{
	"contracts/SupplementTracker.sol": {
		"SupplementTracker": {
			"abi": [
				{
					"inputs": [
						{
							"internalType": "uint256",
							"name": "_supplementId",
							"type": "uint256"
						},
						{
							"internalType": "address",
							"name": "_signer",
							"type": "address"
						}
					],
					"name": "addAuthorizedSigner",
					"outputs": [],
					"stateMutability": "nonpayable",
					"type": "function"
				},
				{
					"inputs": [
						{
							"internalType": "string",
							"name": "_name",
							"type": "string"
						},
						{
							"internalType": "string",
							"name": "_manufacturer",
							"type": "string"
						},
						{
							"internalType": "uint256",
							"name": "_proteins",
							"type": "uint256"
						},
						{
							"internalType": "uint256",
							"name": "_carbs",
							"type": "uint256"
						},
						{
							"internalType": "uint256",
							"name": "_fats",
							"type": "uint256"
						},
						{
							"internalType": "string",
							"name": "_expiryDate",
							"type": "string"
						},
						{
							"internalType": "bytes",
							"name": "_ownerSignature",
							"type": "bytes"
						},
						{
							"internalType": "bytes32",
							"name": "_messageHash",
							"type": "bytes32"
						}
					],
					"name": "addSupplement",
					"outputs": [],
					"stateMutability": "nonpayable",
					"type": "function"
				},
				{
					"inputs": [
						{
							"internalType": "uint256",
							"name": "_supplementId",
							"type": "uint256"
						}
					],
					"name": "getAuthorizedSigners",
					"outputs": [
						{
							"internalType": "address[]",
							"name": "",
							"type": "address[]"
						}
					],
					"stateMutability": "view",
					"type": "function"
				},
				{
					"inputs": [
						{
							"internalType": "uint256",
							"name": "_supplementId",
							"type": "uint256"
						}
					],
					"name": "getSupplementSignatures",
					"outputs": [
						{
							"components": [
								{
									"internalType": "address",
									"name": "signer",
									"type": "address"
								},
								{
									"internalType": "bytes32",
									"name": "messageHash",
									"type": "bytes32"
								},
								{
									"internalType": "bytes",
									"name": "signature",
									"type": "bytes"
								},
								{
									"internalType": "bool",
									"name": "revoked",
									"type": "bool"
								}
							],
							"internalType": "struct SupplementTracker.SupplementSignature[]",
							"name": "",
							"type": "tuple[]"
						}
					],
					"stateMutability": "view",
					"type": "function"
				},
				{
					"inputs": [],
					"name": "getSupplements",
					"outputs": [
						{
							"components": [
								{
									"internalType": "address",
									"name": "owner",
									"type": "address"
								},
								{
									"internalType": "string",
									"name": "name",
									"type": "string"
								},
								{
									"internalType": "string",
									"name": "manufacturer",
									"type": "string"
								},
								{
									"internalType": "uint256",
									"name": "proteins",
									"type": "uint256"
								},
								{
									"internalType": "uint256",
									"name": "carbs",
									"type": "uint256"
								},
								{
									"internalType": "uint256",
									"name": "fats",
									"type": "uint256"
								},
								{
									"internalType": "string",
									"name": "expiryDate",
									"type": "string"
								}
							],
							"internalType": "struct SupplementTracker.SupplementInfo[]",
							"name": "",
							"type": "tuple[]"
						}
					],
					"stateMutability": "view",
					"type": "function"
				},
				{
					"inputs": [
						{
							"internalType": "uint256",
							"name": "_supplementId",
							"type": "uint256"
						},
						{
							"internalType": "address",
							"name": "_signer",
							"type": "address"
						}
					],
					"name": "removeAuthorizedSigner",
					"outputs": [],
					"stateMutability": "nonpayable",
					"type": "function"
				},
				{
					"inputs": [
						{
							"internalType": "uint256",
							"name": "_supplementId",
							"type": "uint256"
						}
					],
					"name": "revokeSignature",
					"outputs": [],
					"stateMutability": "nonpayable",
					"type": "function"
				},
				{
					"inputs": [
						{
							"internalType": "uint256",
							"name": "_supplementId",
							"type": "uint256"
						},
						{
							"internalType": "bytes",
							"name": "_signature",
							"type": "bytes"
						},
						{
							"internalType": "bytes32",
							"name": "_messageHash",
							"type": "bytes32"
						}
					],
					"name": "signSupplement",
					"outputs": [],
					"stateMutability": "nonpayable",
					"type": "function"
				},
				{
					"inputs": [
						{
							"internalType": "uint256",
							"name": "",
							"type": "uint256"
						}
					],
					"name": "supplements",
					"outputs": [
						{
							"internalType": "address",
							"name": "owner",
							"type": "address"
						},
						{
							"internalType": "string",
							"name": "name",
							"type": "string"
						},
						{
							"internalType": "string",
							"name": "manufacturer",
							"type": "string"
						},
						{
							"internalType": "uint256",
							"name": "proteins",
							"type": "uint256"
						},
						{
							"internalType": "uint256",
							"name": "carbs",
							"type": "uint256"
						},
						{
							"internalType": "uint256",
							"name": "fats",
							"type": "uint256"
						},
						{
							"internalType": "string",
							"name": "expiryDate",
							"type": "string"
						}
					],
					"stateMutability": "view",
					"type": "function"
				},
				{
					"inputs": [],
					"name": "supplementsCount",
					"outputs": [
						{
							"internalType": "uint256",
							"name": "",
							"type": "uint256"
						}
					],
					"stateMutability": "view",
					"type": "function"
				},
				{
					"inputs": [
						{
							"internalType": "uint256",
							"name": "",
							"type": "uint256"
						},
						{
							"internalType": "uint256",
							"name": "",
							"type": "uint256"
						}
					],
					"name": "supplementsSignatures",
					"outputs": [
						{
							"internalType": "address",
							"name": "signer",
							"type": "address"
						},
						{
							"internalType": "bytes32",
							"name": "messageHash",
							"type": "bytes32"
						},
						{
							"internalType": "bytes",
							"name": "signature",
							"type": "bytes"
						},
						{
							"internalType": "bool",
							"name": "revoked",
							"type": "bool"
						}
					],
					"stateMutability": "view",
					"type": "function"
				}
			],
			"devdoc": {
				"kind": "dev",
				"methods": {},
				"version": 1
			},
			"evm": {
				"assembly": "    /* \"contracts/SupplementTracker.sol\":70:6553  contract SupplementTracker {... */\n  mstore(0x40, 0x80)\n    /* \"contracts/SupplementTracker.sol\":1116:1117  0 */\n  0x00\n    /* \"contracts/SupplementTracker.sol\":1082:1117  uint256 public supplementsCount = 0 */\n  0x03\n  sstore\n    /* \"contracts/SupplementTracker.sol\":70:6553  contract SupplementTracker {... */\n  callvalue\n  dup1\n  iszero\n  tag_1\n  jumpi\n  0x00\n  dup1\n  revert\ntag_1:\n  pop\n  dataSize(sub_0)\n  dup1\n  dataOffset(sub_0)\n  0x00\n  codecopy\n  0x00\n  return\nstop\n\nsub_0: assembly {\n        /* \"contracts/SupplementTracker.sol\":70:6553  contract SupplementTracker {... */\n      mstore(0x40, 0x80)\n      callvalue\n      dup1\n      iszero\n      tag_1\n      jumpi\n      0x00\n      dup1\n      revert\n    tag_1:\n      pop\n      jumpi(tag_2, lt(calldatasize, 0x04))\n      shr(0xe0, calldataload(0x00))\n      dup1\n      0x2c290e4e\n      gt\n      tag_14\n      jumpi\n      dup1\n      0x2c290e4e\n      eq\n      tag_8\n      jumpi\n      dup1\n      0x37a01230\n      eq\n      tag_9\n      jumpi\n      dup1\n      0x3da1f79a\n      eq\n      tag_10\n      jumpi\n      dup1\n      0xbbe3d522\n      eq\n      tag_11\n      jumpi\n      dup1\n      0xc0c1e2ed\n      eq\n      tag_12\n      jumpi\n      dup1\n      0xf1c98ba2\n      eq\n      tag_13\n      jumpi\n      jump(tag_2)\n    tag_14:\n      dup1\n      0x069e8cff\n      eq\n      tag_3\n      jumpi\n      dup1\n      0x0b2baf40\n      eq\n      tag_4\n      jumpi\n      dup1\n      0x0f86126e\n      eq\n      tag_5\n      jumpi\n      dup1\n      0x2b39fed7\n      eq\n      tag_6\n      jumpi\n      dup1\n      0x2b5acd6c\n      eq\n      tag_7\n      jumpi\n    tag_2:\n      0x00\n      dup1\n      revert\n        /* \"contracts/SupplementTracker.sol\":6011:6551  function getAuthorizedSigners(uint256 _supplementId)... */\n    tag_3:\n      tag_15\n      0x04\n      dup1\n      calldatasize\n      sub\n      dup2\n      add\n      swap1\n      tag_16\n      swap2\n      swap1\n      tag_17\n      jump\t// in\n    tag_16:\n      tag_18\n      jump\t// in\n    tag_15:\n      mload(0x40)\n      tag_19\n      swap2\n      swap1\n      tag_20\n      jump\t// in\n    tag_19:\n      mload(0x40)\n      dup1\n      swap2\n      sub\n      swap1\n      return\n        /* \"contracts/SupplementTracker.sol\":1357:1889  function removeAuthorizedSigner(uint256 _supplementId, address _signer)... */\n    tag_4:\n      tag_21\n      0x04\n      dup1\n      calldatasize\n      sub\n      dup2\n      add\n      swap1\n      tag_22\n      swap2\n      swap1\n      tag_23\n      jump\t// in\n    tag_22:\n      tag_24\n      jump\t// in\n    tag_21:\n      stop\n        /* \"contracts/SupplementTracker.sol\":952:1022  mapping(uint256 => SupplementSignature[]) public supplementsSignatures */\n    tag_5:\n      tag_25\n      0x04\n      dup1\n      calldatasize\n      sub\n      dup2\n      add\n      swap1\n      tag_26\n      swap2\n      swap1\n      tag_27\n      jump\t// in\n    tag_26:\n      tag_28\n      jump\t// in\n    tag_25:\n      mload(0x40)\n      tag_29\n      swap5\n      swap4\n      swap3\n      swap2\n      swap1\n      tag_30\n      jump\t// in\n    tag_29:\n      mload(0x40)\n      dup1\n      swap2\n      sub\n      swap1\n      return\n        /* \"contracts/SupplementTracker.sol\":5035:5371  function getSupplements() public view returns (SupplementInfo[] memory) {... */\n    tag_6:\n      tag_31\n      tag_32\n      jump\t// in\n    tag_31:\n      mload(0x40)\n      tag_33\n      swap2\n      swap1\n      tag_34\n      jump\t// in\n    tag_33:\n      mload(0x40)\n      dup1\n      swap2\n      sub\n      swap1\n      return\n        /* \"contracts/SupplementTracker.sol\":893:946  mapping(uint256 => SupplementInfo) public supplements */\n    tag_7:\n      tag_35\n      0x04\n      dup1\n      calldatasize\n      sub\n      dup2\n      add\n      swap1\n      tag_36\n      swap2\n      swap1\n      tag_17\n      jump\t// in\n    tag_36:\n      tag_37\n      jump\t// in\n    tag_35:\n      mload(0x40)\n      tag_38\n      swap8\n      swap7\n      swap6\n      swap5\n      swap4\n      swap3\n      swap2\n      swap1\n      tag_39\n      jump\t// in\n    tag_38:\n      mload(0x40)\n      dup1\n      swap2\n      sub\n      swap1\n      return\n        /* \"contracts/SupplementTracker.sol\":5377:6005  function getSupplementSignatures(uint256 _supplementId)... */\n    tag_8:\n      tag_40\n      0x04\n      dup1\n      calldatasize\n      sub\n      dup2\n      add\n      swap1\n      tag_41\n      swap2\n      swap1\n      tag_17\n      jump\t// in\n    tag_41:\n      tag_42\n      jump\t// in\n    tag_40:\n      mload(0x40)\n      tag_43\n      swap2\n      swap1\n      tag_44\n      jump\t// in\n    tag_43:\n      mload(0x40)\n      dup1\n      swap2\n      sub\n      swap1\n      return\n        /* \"contracts/SupplementTracker.sol\":1124:1351  function addAuthorizedSigner(uint256 _supplementId, address _signer)... */\n    tag_9:\n      tag_45\n      0x04\n      dup1\n      calldatasize\n      sub\n      dup2\n      add\n      swap1\n      tag_46\n      swap2\n      swap1\n      tag_23\n      jump\t// in\n    tag_46:\n      tag_47\n      jump\t// in\n    tag_45:\n      stop\n        /* \"contracts/SupplementTracker.sol\":2536:3018  function revokeSignature(uint256 _supplementId) public {... */\n    tag_10:\n      tag_48\n      0x04\n      dup1\n      calldatasize\n      sub\n      dup2\n      add\n      swap1\n      tag_49\n      swap2\n      swap1\n      tag_17\n      jump\t// in\n    tag_49:\n      tag_50\n      jump\t// in\n    tag_48:\n      stop\n        /* \"contracts/SupplementTracker.sol\":3024:3668  function signSupplement(... */\n    tag_11:\n      tag_51\n      0x04\n      dup1\n      calldatasize\n      sub\n      dup2\n      add\n      swap1\n      tag_52\n      swap2\n      swap1\n      tag_53\n      jump\t// in\n    tag_52:\n      tag_54\n      jump\t// in\n    tag_51:\n      stop\n        /* \"contracts/SupplementTracker.sol\":1082:1117  uint256 public supplementsCount = 0 */\n    tag_12:\n      tag_55\n      tag_56\n      jump\t// in\n    tag_55:\n      mload(0x40)\n      tag_57\n      swap2\n      swap1\n      tag_58\n      jump\t// in\n    tag_57:\n      mload(0x40)\n      dup1\n      swap2\n      sub\n      swap1\n      return\n        /* \"contracts/SupplementTracker.sol\":4116:5029  function addSupplement(... */\n    tag_13:\n      tag_59\n      0x04\n      dup1\n      calldatasize\n      sub\n      dup2\n      add\n      swap1\n      tag_60\n      swap2\n      swap1\n      tag_61\n      jump\t// in\n    tag_60:\n      tag_62\n      jump\t// in\n    tag_59:\n      stop\n        /* \"contracts/SupplementTracker.sol\":6011:6551  function getAuthorizedSigners(uint256 _supplementId)... */\n    tag_18:\n        /* \"contracts/SupplementTracker.sol\":6109:6125  address[] memory */\n      0x60\n        /* \"contracts/SupplementTracker.sol\":6165:6181  supplementsCount */\n      sload(0x03)\n        /* \"contracts/SupplementTracker.sol\":6149:6162  _supplementId */\n      dup3\n        /* \"contracts/SupplementTracker.sol\":6149:6181  _supplementId < supplementsCount */\n      lt\n        /* \"contracts/SupplementTracker.sol\":6141:6207  require(_supplementId < supplementsCount, \"Supplement not found.\") */\n      tag_64\n      jumpi\n      mload(0x40)\n      0x08c379a000000000000000000000000000000000000000000000000000000000\n      dup2\n      mstore\n      0x04\n      add\n      tag_65\n      swap1\n      tag_66\n      jump\t// in\n    tag_65:\n      mload(0x40)\n      dup1\n      swap2\n      sub\n      swap1\n      revert\n    tag_64:\n        /* \"contracts/SupplementTracker.sol\":6218:6257  address[] memory authorizedSignersArray */\n      0x00\n        /* \"contracts/SupplementTracker.sol\":6287:6304  authorizedSigners */\n      0x02\n        /* \"contracts/SupplementTracker.sol\":6287:6319  authorizedSigners[_supplementId] */\n      0x00\n        /* \"contracts/SupplementTracker.sol\":6305:6318  _supplementId */\n      dup5\n        /* \"contracts/SupplementTracker.sol\":6287:6319  authorizedSigners[_supplementId] */\n      dup2\n      mstore\n      0x20\n      add\n      swap1\n      dup2\n      mstore\n      0x20\n      add\n      0x00\n      keccak256\n        /* \"contracts/SupplementTracker.sol\":6287:6326  authorizedSigners[_supplementId].length */\n      dup1\n      sload\n      swap1\n      pop\n        /* \"contracts/SupplementTracker.sol\":6260:6336  new address[](... */\n      0xffffffffffffffff\n      dup2\n      gt\n      iszero\n      tag_67\n      jumpi\n      tag_68\n      tag_69\n      jump\t// in\n    tag_68:\n    tag_67:\n      mload(0x40)\n      swap1\n      dup1\n      dup3\n      mstore\n      dup1\n      0x20\n      mul\n      0x20\n      add\n      dup3\n      add\n      0x40\n      mstore\n      dup1\n      iszero\n      tag_70\n      jumpi\n      dup2\n      0x20\n      add\n      0x20\n      dup3\n      mul\n      dup1\n      calldatasize\n      dup4\n      calldatacopy\n      dup1\n      dup3\n      add\n      swap2\n      pop\n      pop\n      swap1\n      pop\n    tag_70:\n      pop\n        /* \"contracts/SupplementTracker.sol\":6218:6336  address[] memory authorizedSignersArray = new address[](... */\n      swap1\n      pop\n        /* \"contracts/SupplementTracker.sol\":6352:6361  uint256 i */\n      0x00\n        /* \"contracts/SupplementTracker.sol\":6347:6505  for (uint256 i = 0; i < authorizedSigners[_supplementId].length; i++) {... */\n    tag_71:\n        /* \"contracts/SupplementTracker.sol\":6371:6388  authorizedSigners */\n      0x02\n        /* \"contracts/SupplementTracker.sol\":6371:6403  authorizedSigners[_supplementId] */\n      0x00\n        /* \"contracts/SupplementTracker.sol\":6389:6402  _supplementId */\n      dup6\n        /* \"contracts/SupplementTracker.sol\":6371:6403  authorizedSigners[_supplementId] */\n      dup2\n      mstore\n      0x20\n      add\n      swap1\n      dup2\n      mstore\n      0x20\n      add\n      0x00\n      keccak256\n        /* \"contracts/SupplementTracker.sol\":6371:6410  authorizedSigners[_supplementId].length */\n      dup1\n      sload\n      swap1\n      pop\n        /* \"contracts/SupplementTracker.sol\":6367:6368  i */\n      dup2\n        /* \"contracts/SupplementTracker.sol\":6367:6410  i < authorizedSigners[_supplementId].length */\n      lt\n        /* \"contracts/SupplementTracker.sol\":6347:6505  for (uint256 i = 0; i < authorizedSigners[_supplementId].length; i++) {... */\n      iszero\n      tag_72\n      jumpi\n        /* \"contracts/SupplementTracker.sol\":6459:6476  authorizedSigners */\n      0x02\n        /* \"contracts/SupplementTracker.sol\":6459:6491  authorizedSigners[_supplementId] */\n      0x00\n        /* \"contracts/SupplementTracker.sol\":6477:6490  _supplementId */\n      dup6\n        /* \"contracts/SupplementTracker.sol\":6459:6491  authorizedSigners[_supplementId] */\n      dup2\n      mstore\n      0x20\n      add\n      swap1\n      dup2\n      mstore\n      0x20\n      add\n      0x00\n      keccak256\n        /* \"contracts/SupplementTracker.sol\":6492:6493  i */\n      dup2\n        /* \"contracts/SupplementTracker.sol\":6459:6494  authorizedSigners[_supplementId][i] */\n      dup2\n      sload\n      dup2\n      lt\n      tag_74\n      jumpi\n      tag_75\n      tag_76\n      jump\t// in\n    tag_75:\n    tag_74:\n      swap1\n      0x00\n      mstore\n      keccak256(0x00, 0x20)\n      add\n      0x00\n      swap1\n      sload\n      swap1\n      0x0100\n      exp\n      swap1\n      div\n      0xffffffffffffffffffffffffffffffffffffffff\n      and\n        /* \"contracts/SupplementTracker.sol\":6431:6453  authorizedSignersArray */\n      dup3\n        /* \"contracts/SupplementTracker.sol\":6454:6455  i */\n      dup3\n        /* \"contracts/SupplementTracker.sol\":6431:6456  authorizedSignersArray[i] */\n      dup2\n      mload\n      dup2\n      lt\n      tag_78\n      jumpi\n      tag_79\n      tag_76\n      jump\t// in\n    tag_79:\n    tag_78:\n      0x20\n      mul\n      0x20\n      add\n      add\n        /* \"contracts/SupplementTracker.sol\":6431:6494  authorizedSignersArray[i] = authorizedSigners[_supplementId][i] */\n      swap1\n      0xffffffffffffffffffffffffffffffffffffffff\n      and\n      swap1\n      dup2\n      0xffffffffffffffffffffffffffffffffffffffff\n      and\n      dup2\n      mstore\n      pop\n      pop\n        /* \"contracts/SupplementTracker.sol\":6412:6415  i++ */\n      dup1\n      dup1\n      0x01\n      add\n      swap2\n      pop\n      pop\n        /* \"contracts/SupplementTracker.sol\":6347:6505  for (uint256 i = 0; i < authorizedSigners[_supplementId].length; i++) {... */\n      jump(tag_71)\n    tag_72:\n      pop\n        /* \"contracts/SupplementTracker.sol\":6522:6544  authorizedSignersArray */\n      dup1\n        /* \"contracts/SupplementTracker.sol\":6515:6544  return authorizedSignersArray */\n      swap2\n      pop\n      pop\n        /* \"contracts/SupplementTracker.sol\":6011:6551  function getAuthorizedSigners(uint256 _supplementId)... */\n      swap2\n      swap1\n      pop\n      jump\t// out\n        /* \"contracts/SupplementTracker.sol\":1357:1889  function removeAuthorizedSigner(uint256 _supplementId, address _signer)... */\n    tag_24:\n        /* \"contracts/SupplementTracker.sol\":1482:1498  supplementsCount */\n      sload(0x03)\n        /* \"contracts/SupplementTracker.sol\":1466:1479  _supplementId */\n      dup3\n        /* \"contracts/SupplementTracker.sol\":1466:1498  _supplementId < supplementsCount */\n      lt\n        /* \"contracts/SupplementTracker.sol\":1458:1524  require(_supplementId < supplementsCount, \"Supplement not found.\") */\n      tag_81\n      jumpi\n      mload(0x40)\n      0x08c379a000000000000000000000000000000000000000000000000000000000\n      dup2\n      mstore\n      0x04\n      add\n      tag_82\n      swap1\n      tag_66\n      jump\t// in\n    tag_82:\n      mload(0x40)\n      dup1\n      swap2\n      sub\n      swap1\n      revert\n    tag_81:\n        /* \"contracts/SupplementTracker.sol\":1534:1556  address[] storage data */\n      0x00\n        /* \"contracts/SupplementTracker.sol\":1559:1576  authorizedSigners */\n      0x02\n        /* \"contracts/SupplementTracker.sol\":1559:1591  authorizedSigners[_supplementId] */\n      0x00\n        /* \"contracts/SupplementTracker.sol\":1577:1590  _supplementId */\n      dup5\n        /* \"contracts/SupplementTracker.sol\":1559:1591  authorizedSigners[_supplementId] */\n      dup2\n      mstore\n      0x20\n      add\n      swap1\n      dup2\n      mstore\n      0x20\n      add\n      0x00\n      keccak256\n        /* \"contracts/SupplementTracker.sol\":1534:1591  address[] storage data = authorizedSigners[_supplementId] */\n      swap1\n      pop\n        /* \"contracts/SupplementTracker.sol\":1607:1616  uint256 i */\n      0x00\n        /* \"contracts/SupplementTracker.sol\":1602:1883  for (uint256 i = 0; i < data.length; i++) {... */\n    tag_83:\n        /* \"contracts/SupplementTracker.sol\":1626:1630  data */\n      dup2\n        /* \"contracts/SupplementTracker.sol\":1626:1637  data.length */\n      dup1\n      sload\n      swap1\n      pop\n        /* \"contracts/SupplementTracker.sol\":1622:1623  i */\n      dup2\n        /* \"contracts/SupplementTracker.sol\":1622:1637  i < data.length */\n      lt\n        /* \"contracts/SupplementTracker.sol\":1602:1883  for (uint256 i = 0; i < data.length; i++) {... */\n      iszero\n      tag_84\n      jumpi\n        /* \"contracts/SupplementTracker.sol\":1673:1680  _signer */\n      dup3\n        /* \"contracts/SupplementTracker.sol\":1662:1680  data[i] == _signer */\n      0xffffffffffffffffffffffffffffffffffffffff\n      and\n        /* \"contracts/SupplementTracker.sol\":1662:1666  data */\n      dup3\n        /* \"contracts/SupplementTracker.sol\":1667:1668  i */\n      dup3\n        /* \"contracts/SupplementTracker.sol\":1662:1669  data[i] */\n      dup2\n      sload\n      dup2\n      lt\n      tag_86\n      jumpi\n      tag_87\n      tag_76\n      jump\t// in\n    tag_87:\n    tag_86:\n      swap1\n      0x00\n      mstore\n      keccak256(0x00, 0x20)\n      add\n      0x00\n      swap1\n      sload\n      swap1\n      0x0100\n      exp\n      swap1\n      div\n      0xffffffffffffffffffffffffffffffffffffffff\n      and\n        /* \"contracts/SupplementTracker.sol\":1662:1680  data[i] == _signer */\n      0xffffffffffffffffffffffffffffffffffffffff\n      and\n      sub\n        /* \"contracts/SupplementTracker.sol\":1658:1873  if (data[i] == _signer) {... */\n      tag_89\n      jumpi\n        /* \"contracts/SupplementTracker.sol\":1705:1714  uint256 j */\n      0x00\n        /* \"contracts/SupplementTracker.sol\":1717:1718  i */\n      dup2\n        /* \"contracts/SupplementTracker.sol\":1705:1718  uint256 j = i */\n      swap1\n      pop\n        /* \"contracts/SupplementTracker.sol\":1700:1808  for (uint256 j = i; j < data.length - 1; j++) {... */\n    tag_90:\n        /* \"contracts/SupplementTracker.sol\":1738:1739  1 */\n      0x01\n        /* \"contracts/SupplementTracker.sol\":1724:1728  data */\n      dup4\n        /* \"contracts/SupplementTracker.sol\":1724:1735  data.length */\n      dup1\n      sload\n      swap1\n      pop\n        /* \"contracts/SupplementTracker.sol\":1724:1739  data.length - 1 */\n      tag_93\n      swap2\n      swap1\n      tag_94\n      jump\t// in\n    tag_93:\n        /* \"contracts/SupplementTracker.sol\":1720:1721  j */\n      dup2\n        /* \"contracts/SupplementTracker.sol\":1720:1739  j < data.length - 1 */\n      lt\n        /* \"contracts/SupplementTracker.sol\":1700:1808  for (uint256 j = i; j < data.length - 1; j++) {... */\n      iszero\n      tag_91\n      jumpi\n        /* \"contracts/SupplementTracker.sol\":1778:1782  data */\n      dup3\n        /* \"contracts/SupplementTracker.sol\":1787:1788  1 */\n      0x01\n        /* \"contracts/SupplementTracker.sol\":1783:1784  j */\n      dup3\n        /* \"contracts/SupplementTracker.sol\":1783:1788  j + 1 */\n      tag_95\n      swap2\n      swap1\n      tag_96\n      jump\t// in\n    tag_95:\n        /* \"contracts/SupplementTracker.sol\":1778:1789  data[j + 1] */\n      dup2\n      sload\n      dup2\n      lt\n      tag_97\n      jumpi\n      tag_98\n      tag_76\n      jump\t// in\n    tag_98:\n    tag_97:\n      swap1\n      0x00\n      mstore\n      keccak256(0x00, 0x20)\n      add\n      0x00\n      swap1\n      sload\n      swap1\n      0x0100\n      exp\n      swap1\n      div\n      0xffffffffffffffffffffffffffffffffffffffff\n      and\n        /* \"contracts/SupplementTracker.sol\":1768:1772  data */\n      dup4\n        /* \"contracts/SupplementTracker.sol\":1773:1774  j */\n      dup3\n        /* \"contracts/SupplementTracker.sol\":1768:1775  data[j] */\n      dup2\n      sload\n      dup2\n      lt\n      tag_100\n      jumpi\n      tag_101\n      tag_76\n      jump\t// in\n    tag_101:\n    tag_100:\n      swap1\n      0x00\n      mstore\n      keccak256(0x00, 0x20)\n      add\n      0x00\n        /* \"contracts/SupplementTracker.sol\":1768:1789  data[j] = data[j + 1] */\n      0x0100\n      exp\n      dup2\n      sload\n      dup2\n      0xffffffffffffffffffffffffffffffffffffffff\n      mul\n      not\n      and\n      swap1\n      dup4\n      0xffffffffffffffffffffffffffffffffffffffff\n      and\n      mul\n      or\n      swap1\n      sstore\n      pop\n        /* \"contracts/SupplementTracker.sol\":1741:1744  j++ */\n      dup1\n      dup1\n      0x01\n      add\n      swap2\n      pop\n      pop\n        /* \"contracts/SupplementTracker.sol\":1700:1808  for (uint256 j = i; j < data.length - 1; j++) {... */\n      jump(tag_90)\n    tag_91:\n      pop\n        /* \"contracts/SupplementTracker.sol\":1825:1829  data */\n      dup2\n        /* \"contracts/SupplementTracker.sol\":1825:1835  data.pop() */\n      dup1\n      sload\n      dup1\n      tag_103\n      jumpi\n      tag_104\n      tag_105\n      jump\t// in\n    tag_104:\n    tag_103:\n      0x01\n      swap1\n      sub\n      dup2\n      dup2\n      swap1\n      0x00\n      mstore\n      keccak256(0x00, 0x20)\n      add\n      exp(0x0100, 0x00)\n      dup2\n      sload\n      swap1\n      0xffffffffffffffffffffffffffffffffffffffff\n      mul\n      not\n      and\n      swap1\n      sstore\n      swap1\n      sstore\n        /* \"contracts/SupplementTracker.sol\":1853:1858  break */\n      jump(tag_84)\n        /* \"contracts/SupplementTracker.sol\":1658:1873  if (data[i] == _signer) {... */\n    tag_89:\n        /* \"contracts/SupplementTracker.sol\":1639:1642  i++ */\n      dup1\n      dup1\n      0x01\n      add\n      swap2\n      pop\n      pop\n        /* \"contracts/SupplementTracker.sol\":1602:1883  for (uint256 i = 0; i < data.length; i++) {... */\n      jump(tag_83)\n    tag_84:\n      pop\n        /* \"contracts/SupplementTracker.sol\":1448:1889  {... */\n      pop\n        /* \"contracts/SupplementTracker.sol\":1357:1889  function removeAuthorizedSigner(uint256 _supplementId, address _signer)... */\n      pop\n      pop\n      jump\t// out\n        /* \"contracts/SupplementTracker.sol\":952:1022  mapping(uint256 => SupplementSignature[]) public supplementsSignatures */\n    tag_28:\n      mstore(0x20, 0x01)\n      dup2\n      0x00\n      mstore\n      keccak256(0x00, 0x40)\n      dup2\n      dup2\n      sload\n      dup2\n      lt\n      tag_107\n      jumpi\n      0x00\n      dup1\n      revert\n    tag_107:\n      swap1\n      0x00\n      mstore\n      keccak256(0x00, 0x20)\n      swap1\n      0x04\n      mul\n      add\n      0x00\n      swap2\n      pop\n      swap2\n      pop\n      pop\n      dup1\n      0x00\n      add\n      0x00\n      swap1\n      sload\n      swap1\n      0x0100\n      exp\n      swap1\n      div\n      0xffffffffffffffffffffffffffffffffffffffff\n      and\n      swap1\n      dup1\n      0x01\n      add\n      sload\n      swap1\n      dup1\n      0x02\n      add\n      dup1\n      sload\n      tag_109\n      swap1\n      tag_110\n      jump\t// in\n    tag_109:\n      dup1\n      0x1f\n      add\n      0x20\n      dup1\n      swap2\n      div\n      mul\n      0x20\n      add\n      mload(0x40)\n      swap1\n      dup2\n      add\n      0x40\n      mstore\n      dup1\n      swap3\n      swap2\n      swap1\n      dup2\n      dup2\n      mstore\n      0x20\n      add\n      dup3\n      dup1\n      sload\n      tag_111\n      swap1\n      tag_110\n      jump\t// in\n    tag_111:\n      dup1\n      iszero\n      tag_112\n      jumpi\n      dup1\n      0x1f\n      lt\n      tag_113\n      jumpi\n      0x0100\n      dup1\n      dup4\n      sload\n      div\n      mul\n      dup4\n      mstore\n      swap2\n      0x20\n      add\n      swap2\n      jump(tag_112)\n    tag_113:\n      dup3\n      add\n      swap2\n      swap1\n      0x00\n      mstore\n      keccak256(0x00, 0x20)\n      swap1\n    tag_114:\n      dup2\n      sload\n      dup2\n      mstore\n      swap1\n      0x01\n      add\n      swap1\n      0x20\n      add\n      dup1\n      dup4\n      gt\n      tag_114\n      jumpi\n      dup3\n      swap1\n      sub\n      0x1f\n      and\n      dup3\n      add\n      swap2\n    tag_112:\n      pop\n      pop\n      pop\n      pop\n      pop\n      swap1\n      dup1\n      0x03\n      add\n      0x00\n      swap1\n      sload\n      swap1\n      0x0100\n      exp\n      swap1\n      div\n      0xff\n      and\n      swap1\n      pop\n      dup5\n      jump\t// out\n        /* \"contracts/SupplementTracker.sol\":5035:5371  function getSupplements() public view returns (SupplementInfo[] memory) {... */\n    tag_32:\n        /* \"contracts/SupplementTracker.sol\":5082:5105  SupplementInfo[] memory */\n      0x60\n        /* \"contracts/SupplementTracker.sol\":5117:5155  SupplementInfo[] memory supplementList */\n      0x00\n        /* \"contracts/SupplementTracker.sol\":5192:5208  supplementsCount */\n      sload(0x03)\n        /* \"contracts/SupplementTracker.sol\":5158:5218  new SupplementInfo[](... */\n      0xffffffffffffffff\n      dup2\n      gt\n      iszero\n      tag_116\n      jumpi\n      tag_117\n      tag_69\n      jump\t// in\n    tag_117:\n    tag_116:\n      mload(0x40)\n      swap1\n      dup1\n      dup3\n      mstore\n      dup1\n      0x20\n      mul\n      0x20\n      add\n      dup3\n      add\n      0x40\n      mstore\n      dup1\n      iszero\n      tag_118\n      jumpi\n      dup2\n      0x20\n      add\n    tag_119:\n      tag_120\n      tag_121\n      jump\t// in\n    tag_120:\n      dup2\n      mstore\n      0x20\n      add\n      swap1\n      0x01\n      swap1\n      sub\n      swap1\n      dup2\n      tag_119\n      jumpi\n      swap1\n      pop\n    tag_118:\n      pop\n        /* \"contracts/SupplementTracker.sol\":5117:5218  SupplementInfo[] memory supplementList = new SupplementInfo[](... */\n      swap1\n      pop\n        /* \"contracts/SupplementTracker.sol\":5233:5242  uint256 i */\n      0x00\n        /* \"contracts/SupplementTracker.sol\":5228:5334  for (uint256 i = 0; i < supplementsCount; i++) {... */\n    tag_122:\n        /* \"contracts/SupplementTracker.sol\":5252:5268  supplementsCount */\n      sload(0x03)\n        /* \"contracts/SupplementTracker.sol\":5248:5249  i */\n      dup2\n        /* \"contracts/SupplementTracker.sol\":5248:5268  i < supplementsCount */\n      lt\n        /* \"contracts/SupplementTracker.sol\":5228:5334  for (uint256 i = 0; i < supplementsCount; i++) {... */\n      iszero\n      tag_123\n      jumpi\n        /* \"contracts/SupplementTracker.sol\":5309:5320  supplements */\n      0x00\n        /* \"contracts/SupplementTracker.sol\":5309:5323  supplements[i] */\n      dup1\n        /* \"contracts/SupplementTracker.sol\":5321:5322  i */\n      dup3\n        /* \"contracts/SupplementTracker.sol\":5309:5323  supplements[i] */\n      dup2\n      mstore\n      0x20\n      add\n      swap1\n      dup2\n      mstore\n      0x20\n      add\n      0x00\n      keccak256\n        /* \"contracts/SupplementTracker.sol\":5289:5323  supplementList[i] = supplements[i] */\n      mload(0x40)\n      dup1\n      0xe0\n      add\n      0x40\n      mstore\n      swap1\n      dup2\n      0x00\n      dup3\n      add\n      0x00\n      swap1\n      sload\n      swap1\n      0x0100\n      exp\n      swap1\n      div\n      0xffffffffffffffffffffffffffffffffffffffff\n      and\n      0xffffffffffffffffffffffffffffffffffffffff\n      and\n      0xffffffffffffffffffffffffffffffffffffffff\n      and\n      dup2\n      mstore\n      0x20\n      add\n      0x01\n      dup3\n      add\n      dup1\n      sload\n      tag_125\n      swap1\n      tag_110\n      jump\t// in\n    tag_125:\n      dup1\n      0x1f\n      add\n      0x20\n      dup1\n      swap2\n      div\n      mul\n      0x20\n      add\n      mload(0x40)\n      swap1\n      dup2\n      add\n      0x40\n      mstore\n      dup1\n      swap3\n      swap2\n      swap1\n      dup2\n      dup2\n      mstore\n      0x20\n      add\n      dup3\n      dup1\n      sload\n      tag_126\n      swap1\n      tag_110\n      jump\t// in\n    tag_126:\n      dup1\n      iszero\n      tag_127\n      jumpi\n      dup1\n      0x1f\n      lt\n      tag_128\n      jumpi\n      0x0100\n      dup1\n      dup4\n      sload\n      div\n      mul\n      dup4\n      mstore\n      swap2\n      0x20\n      add\n      swap2\n      jump(tag_127)\n    tag_128:\n      dup3\n      add\n      swap2\n      swap1\n      0x00\n      mstore\n      keccak256(0x00, 0x20)\n      swap1\n    tag_129:\n      dup2\n      sload\n      dup2\n      mstore\n      swap1\n      0x01\n      add\n      swap1\n      0x20\n      add\n      dup1\n      dup4\n      gt\n      tag_129\n      jumpi\n      dup3\n      swap1\n      sub\n      0x1f\n      and\n      dup3\n      add\n      swap2\n    tag_127:\n      pop\n      pop\n      pop\n      pop\n      pop\n      dup2\n      mstore\n      0x20\n      add\n      0x02\n      dup3\n      add\n      dup1\n      sload\n      tag_130\n      swap1\n      tag_110\n      jump\t// in\n    tag_130:\n      dup1\n      0x1f\n      add\n      0x20\n      dup1\n      swap2\n      div\n      mul\n      0x20\n      add\n      mload(0x40)\n      swap1\n      dup2\n      add\n      0x40\n      mstore\n      dup1\n      swap3\n      swap2\n      swap1\n      dup2\n      dup2\n      mstore\n      0x20\n      add\n      dup3\n      dup1\n      sload\n      tag_131\n      swap1\n      tag_110\n      jump\t// in\n    tag_131:\n      dup1\n      iszero\n      tag_132\n      jumpi\n      dup1\n      0x1f\n      lt\n      tag_133\n      jumpi\n      0x0100\n      dup1\n      dup4\n      sload\n      div\n      mul\n      dup4\n      mstore\n      swap2\n      0x20\n      add\n      swap2\n      jump(tag_132)\n    tag_133:\n      dup3\n      add\n      swap2\n      swap1\n      0x00\n      mstore\n      keccak256(0x00, 0x20)\n      swap1\n    tag_134:\n      dup2\n      sload\n      dup2\n      mstore\n      swap1\n      0x01\n      add\n      swap1\n      0x20\n      add\n      dup1\n      dup4\n      gt\n      tag_134\n      jumpi\n      dup3\n      swap1\n      sub\n      0x1f\n      and\n      dup3\n      add\n      swap2\n    tag_132:\n      pop\n      pop\n      pop\n      pop\n      pop\n      dup2\n      mstore\n      0x20\n      add\n      0x03\n      dup3\n      add\n      sload\n      dup2\n      mstore\n      0x20\n      add\n      0x04\n      dup3\n      add\n      sload\n      dup2\n      mstore\n      0x20\n      add\n      0x05\n      dup3\n      add\n      sload\n      dup2\n      mstore\n      0x20\n      add\n      0x06\n      dup3\n      add\n      dup1\n      sload\n      tag_135\n      swap1\n      tag_110\n      jump\t// in\n    tag_135:\n      dup1\n      0x1f\n      add\n      0x20\n      dup1\n      swap2\n      div\n      mul\n      0x20\n      add\n      mload(0x40)\n      swap1\n      dup2\n      add\n      0x40\n      mstore\n      dup1\n      swap3\n      swap2\n      swap1\n      dup2\n      dup2\n      mstore\n      0x20\n      add\n      dup3\n      dup1\n      sload\n      tag_136\n      swap1\n      tag_110\n      jump\t// in\n    tag_136:\n      dup1\n      iszero\n      tag_137\n      jumpi\n      dup1\n      0x1f\n      lt\n      tag_138\n      jumpi\n      0x0100\n      dup1\n      dup4\n      sload\n      div\n      mul\n      dup4\n      mstore\n      swap2\n      0x20\n      add\n      swap2\n      jump(tag_137)\n    tag_138:\n      dup3\n      add\n      swap2\n      swap1\n      0x00\n      mstore\n      keccak256(0x00, 0x20)\n      swap1\n    tag_139:\n      dup2\n      sload\n      dup2\n      mstore\n      swap1\n      0x01\n      add\n      swap1\n      0x20\n      add\n      dup1\n      dup4\n      gt\n      tag_139\n      jumpi\n      dup3\n      swap1\n      sub\n      0x1f\n      and\n      dup3\n      add\n      swap2\n    tag_137:\n      pop\n      pop\n      pop\n      pop\n      pop\n      dup2\n      mstore\n      pop\n      pop\n        /* \"contracts/SupplementTracker.sol\":5289:5303  supplementList */\n      dup3\n        /* \"contracts/SupplementTracker.sol\":5304:5305  i */\n      dup3\n        /* \"contracts/SupplementTracker.sol\":5289:5306  supplementList[i] */\n      dup2\n      mload\n      dup2\n      lt\n      tag_140\n      jumpi\n      tag_141\n      tag_76\n      jump\t// in\n    tag_141:\n    tag_140:\n      0x20\n      mul\n      0x20\n      add\n      add\n        /* \"contracts/SupplementTracker.sol\":5289:5323  supplementList[i] = supplements[i] */\n      dup2\n      swap1\n      mstore\n      pop\n        /* \"contracts/SupplementTracker.sol\":5270:5273  i++ */\n      dup1\n      dup1\n      0x01\n      add\n      swap2\n      pop\n      pop\n        /* \"contracts/SupplementTracker.sol\":5228:5334  for (uint256 i = 0; i < supplementsCount; i++) {... */\n      jump(tag_122)\n    tag_123:\n      pop\n        /* \"contracts/SupplementTracker.sol\":5350:5364  supplementList */\n      dup1\n        /* \"contracts/SupplementTracker.sol\":5343:5364  return supplementList */\n      swap2\n      pop\n      pop\n        /* \"contracts/SupplementTracker.sol\":5035:5371  function getSupplements() public view returns (SupplementInfo[] memory) {... */\n      swap1\n      jump\t// out\n        /* \"contracts/SupplementTracker.sol\":893:946  mapping(uint256 => SupplementInfo) public supplements */\n    tag_37:\n      mstore(0x20, 0x00)\n      dup1\n      0x00\n      mstore\n      keccak256(0x00, 0x40)\n      0x00\n      swap2\n      pop\n      swap1\n      pop\n      dup1\n      0x00\n      add\n      0x00\n      swap1\n      sload\n      swap1\n      0x0100\n      exp\n      swap1\n      div\n      0xffffffffffffffffffffffffffffffffffffffff\n      and\n      swap1\n      dup1\n      0x01\n      add\n      dup1\n      sload\n      tag_142\n      swap1\n      tag_110\n      jump\t// in\n    tag_142:\n      dup1\n      0x1f\n      add\n      0x20\n      dup1\n      swap2\n      div\n      mul\n      0x20\n      add\n      mload(0x40)\n      swap1\n      dup2\n      add\n      0x40\n      mstore\n      dup1\n      swap3\n      swap2\n      swap1\n      dup2\n      dup2\n      mstore\n      0x20\n      add\n      dup3\n      dup1\n      sload\n      tag_143\n      swap1\n      tag_110\n      jump\t// in\n    tag_143:\n      dup1\n      iszero\n      tag_144\n      jumpi\n      dup1\n      0x1f\n      lt\n      tag_145\n      jumpi\n      0x0100\n      dup1\n      dup4\n      sload\n      div\n      mul\n      dup4\n      mstore\n      swap2\n      0x20\n      add\n      swap2\n      jump(tag_144)\n    tag_145:\n      dup3\n      add\n      swap2\n      swap1\n      0x00\n      mstore\n      keccak256(0x00, 0x20)\n      swap1\n    tag_146:\n      dup2\n      sload\n      dup2\n      mstore\n      swap1\n      0x01\n      add\n      swap1\n      0x20\n      add\n      dup1\n      dup4\n      gt\n      tag_146\n      jumpi\n      dup3\n      swap1\n      sub\n      0x1f\n      and\n      dup3\n      add\n      swap2\n    tag_144:\n      pop\n      pop\n      pop\n      pop\n      pop\n      swap1\n      dup1\n      0x02\n      add\n      dup1\n      sload\n      tag_147\n      swap1\n      tag_110\n      jump\t// in\n    tag_147:\n      dup1\n      0x1f\n      add\n      0x20\n      dup1\n      swap2\n      div\n      mul\n      0x20\n      add\n      mload(0x40)\n      swap1\n      dup2\n      add\n      0x40\n      mstore\n      dup1\n      swap3\n      swap2\n      swap1\n      dup2\n      dup2\n      mstore\n      0x20\n      add\n      dup3\n      dup1\n      sload\n      tag_148\n      swap1\n      tag_110\n      jump\t// in\n    tag_148:\n      dup1\n      iszero\n      tag_149\n      jumpi\n      dup1\n      0x1f\n      lt\n      tag_150\n      jumpi\n      0x0100\n      dup1\n      dup4\n      sload\n      div\n      mul\n      dup4\n      mstore\n      swap2\n      0x20\n      add\n      swap2\n      jump(tag_149)\n    tag_150:\n      dup3\n      add\n      swap2\n      swap1\n      0x00\n      mstore\n      keccak256(0x00, 0x20)\n      swap1\n    tag_151:\n      dup2\n      sload\n      dup2\n      mstore\n      swap1\n      0x01\n      add\n      swap1\n      0x20\n      add\n      dup1\n      dup4\n      gt\n      tag_151\n      jumpi\n      dup3\n      swap1\n      sub\n      0x1f\n      and\n      dup3\n      add\n      swap2\n    tag_149:\n      pop\n      pop\n      pop\n      pop\n      pop\n      swap1\n      dup1\n      0x03\n      add\n      sload\n      swap1\n      dup1\n      0x04\n      add\n      sload\n      swap1\n      dup1\n      0x05\n      add\n      sload\n      swap1\n      dup1\n      0x06\n      add\n      dup1\n      sload\n      tag_152\n      swap1\n      tag_110\n      jump\t// in\n    tag_152:\n      dup1\n      0x1f\n      add\n      0x20\n      dup1\n      swap2\n      div\n      mul\n      0x20\n      add\n      mload(0x40)\n      swap1\n      dup2\n      add\n      0x40\n      mstore\n      dup1\n      swap3\n      swap2\n      swap1\n      dup2\n      dup2\n      mstore\n      0x20\n      add\n      dup3\n      dup1\n      sload\n      tag_153\n      swap1\n      tag_110\n      jump\t// in\n    tag_153:\n      dup1\n      iszero\n      tag_154\n      jumpi\n      dup1\n      0x1f\n      lt\n      tag_155\n      jumpi\n      0x0100\n      dup1\n      dup4\n      sload\n      div\n      mul\n      dup4\n      mstore\n      swap2\n      0x20\n      add\n      swap2\n      jump(tag_154)\n    tag_155:\n      dup3\n      add\n      swap2\n      swap1\n      0x00\n      mstore\n      keccak256(0x00, 0x20)\n      swap1\n    tag_156:\n      dup2\n      sload\n      dup2\n      mstore\n      swap1\n      0x01\n      add\n      swap1\n      0x20\n      add\n      dup1\n      dup4\n      gt\n      tag_156\n      jumpi\n      dup3\n      swap1\n      sub\n      0x1f\n      and\n      dup3\n      add\n      swap2\n    tag_154:\n      pop\n      pop\n      pop\n      pop\n      pop\n      swap1\n      pop\n      dup8\n      jump\t// out\n        /* \"contracts/SupplementTracker.sol\":5377:6005  function getSupplementSignatures(uint256 _supplementId)... */\n    tag_42:\n        /* \"contracts/SupplementTracker.sol\":5478:5506  SupplementSignature[] memory */\n      0x60\n        /* \"contracts/SupplementTracker.sol\":5546:5562  supplementsCount */\n      sload(0x03)\n        /* \"contracts/SupplementTracker.sol\":5530:5543  _supplementId */\n      dup3\n        /* \"contracts/SupplementTracker.sol\":5530:5562  _supplementId < supplementsCount */\n      lt\n        /* \"contracts/SupplementTracker.sol\":5522:5588  require(_supplementId < supplementsCount, \"Supplement not found.\") */\n      tag_158\n      jumpi\n      mload(0x40)\n      0x08c379a000000000000000000000000000000000000000000000000000000000\n      dup2\n      mstore\n      0x04\n      add\n      tag_159\n      swap1\n      tag_66\n      jump\t// in\n    tag_159:\n      mload(0x40)\n      dup1\n      swap2\n      sub\n      swap1\n      revert\n    tag_158:\n        /* \"contracts/SupplementTracker.sol\":5599:5641  SupplementSignature[] memory allSignatures */\n      0x00\n        /* \"contracts/SupplementTracker.sol\":5644:5665  supplementsSignatures */\n      0x01\n        /* \"contracts/SupplementTracker.sol\":5644:5702  supplementsSignatures[... */\n      0x00\n        /* \"contracts/SupplementTracker.sol\":5679:5692  _supplementId */\n      dup5\n        /* \"contracts/SupplementTracker.sol\":5644:5702  supplementsSignatures[... */\n      dup2\n      mstore\n      0x20\n      add\n      swap1\n      dup2\n      mstore\n      0x20\n      add\n      0x00\n      keccak256\n        /* \"contracts/SupplementTracker.sol\":5599:5702  SupplementSignature[] memory allSignatures = supplementsSignatures[... */\n      dup1\n      sload\n      dup1\n      0x20\n      mul\n      0x20\n      add\n      mload(0x40)\n      swap1\n      dup2\n      add\n      0x40\n      mstore\n      dup1\n      swap3\n      swap2\n      swap1\n      dup2\n      dup2\n      mstore\n      0x20\n      add\n      0x00\n      swap1\n    tag_160:\n      dup3\n      dup3\n      lt\n      iszero\n      tag_161\n      jumpi\n      dup4\n      dup3\n      swap1\n      0x00\n      mstore\n      keccak256(0x00, 0x20)\n      swap1\n      0x04\n      mul\n      add\n      mload(0x40)\n      dup1\n      0x80\n      add\n      0x40\n      mstore\n      swap1\n      dup2\n      0x00\n      dup3\n      add\n      0x00\n      swap1\n      sload\n      swap1\n      0x0100\n      exp\n      swap1\n      div\n      0xffffffffffffffffffffffffffffffffffffffff\n      and\n      0xffffffffffffffffffffffffffffffffffffffff\n      and\n      0xffffffffffffffffffffffffffffffffffffffff\n      and\n      dup2\n      mstore\n      0x20\n      add\n      0x01\n      dup3\n      add\n      sload\n      dup2\n      mstore\n      0x20\n      add\n      0x02\n      dup3\n      add\n      dup1\n      sload\n      tag_163\n      swap1\n      tag_110\n      jump\t// in\n    tag_163:\n      dup1\n      0x1f\n      add\n      0x20\n      dup1\n      swap2\n      div\n      mul\n      0x20\n      add\n      mload(0x40)\n      swap1\n      dup2\n      add\n      0x40\n      mstore\n      dup1\n      swap3\n      swap2\n      swap1\n      dup2\n      dup2\n      mstore\n      0x20\n      add\n      dup3\n      dup1\n      sload\n      tag_164\n      swap1\n      tag_110\n      jump\t// in\n    tag_164:\n      dup1\n      iszero\n      tag_165\n      jumpi\n      dup1\n      0x1f\n      lt\n      tag_166\n      jumpi\n      0x0100\n      dup1\n      dup4\n      sload\n      div\n      mul\n      dup4\n      mstore\n      swap2\n      0x20\n      add\n      swap2\n      jump(tag_165)\n    tag_166:\n      dup3\n      add\n      swap2\n      swap1\n      0x00\n      mstore\n      keccak256(0x00, 0x20)\n      swap1\n    tag_167:\n      dup2\n      sload\n      dup2\n      mstore\n      swap1\n      0x01\n      add\n      swap1\n      0x20\n      add\n      dup1\n      dup4\n      gt\n      tag_167\n      jumpi\n      dup3\n      swap1\n      sub\n      0x1f\n      and\n      dup3\n      add\n      swap2\n    tag_165:\n      pop\n      pop\n      pop\n      pop\n      pop\n      dup2\n      mstore\n      0x20\n      add\n      0x03\n      dup3\n      add\n      0x00\n      swap1\n      sload\n      swap1\n      0x0100\n      exp\n      swap1\n      div\n      0xff\n      and\n      iszero\n      iszero\n      iszero\n      iszero\n      dup2\n      mstore\n      pop\n      pop\n      dup2\n      mstore\n      0x20\n      add\n      swap1\n      0x01\n      add\n      swap1\n      jump(tag_160)\n    tag_161:\n      pop\n      pop\n      pop\n      pop\n      swap1\n      pop\n        /* \"contracts/SupplementTracker.sol\":5712:5733  uint256 numSignatures */\n      0x00\n        /* \"contracts/SupplementTracker.sol\":5736:5749  allSignatures */\n      dup2\n        /* \"contracts/SupplementTracker.sol\":5736:5756  allSignatures.length */\n      mload\n        /* \"contracts/SupplementTracker.sol\":5712:5756  uint256 numSignatures = allSignatures.length */\n      swap1\n      pop\n        /* \"contracts/SupplementTracker.sol\":5767:5802  SupplementSignature[] memory result */\n      0x00\n        /* \"contracts/SupplementTracker.sol\":5844:5857  numSignatures */\n      dup2\n        /* \"contracts/SupplementTracker.sol\":5805:5867  new SupplementSignature[](... */\n      0xffffffffffffffff\n      dup2\n      gt\n      iszero\n      tag_168\n      jumpi\n      tag_169\n      tag_69\n      jump\t// in\n    tag_169:\n    tag_168:\n      mload(0x40)\n      swap1\n      dup1\n      dup3\n      mstore\n      dup1\n      0x20\n      mul\n      0x20\n      add\n      dup3\n      add\n      0x40\n      mstore\n      dup1\n      iszero\n      tag_170\n      jumpi\n      dup2\n      0x20\n      add\n    tag_171:\n      tag_172\n      tag_173\n      jump\t// in\n    tag_172:\n      dup2\n      mstore\n      0x20\n      add\n      swap1\n      0x01\n      swap1\n      sub\n      swap1\n      dup2\n      tag_171\n      jumpi\n      swap1\n      pop\n    tag_170:\n      pop\n        /* \"contracts/SupplementTracker.sol\":5767:5867  SupplementSignature[] memory result = new SupplementSignature[](... */\n      swap1\n      pop\n        /* \"contracts/SupplementTracker.sol\":5883:5892  uint256 i */\n      0x00\n        /* \"contracts/SupplementTracker.sol\":5878:5975  for (uint256 i = 0; i < numSignatures; i++) {... */\n    tag_174:\n        /* \"contracts/SupplementTracker.sol\":5902:5915  numSignatures */\n      dup3\n        /* \"contracts/SupplementTracker.sol\":5898:5899  i */\n      dup2\n        /* \"contracts/SupplementTracker.sol\":5898:5915  i < numSignatures */\n      lt\n        /* \"contracts/SupplementTracker.sol\":5878:5975  for (uint256 i = 0; i < numSignatures; i++) {... */\n      iszero\n      tag_175\n      jumpi\n        /* \"contracts/SupplementTracker.sol\":5948:5961  allSignatures */\n      dup4\n        /* \"contracts/SupplementTracker.sol\":5962:5963  i */\n      dup2\n        /* \"contracts/SupplementTracker.sol\":5948:5964  allSignatures[i] */\n      dup2\n      mload\n      dup2\n      lt\n      tag_177\n      jumpi\n      tag_178\n      tag_76\n      jump\t// in\n    tag_178:\n    tag_177:\n      0x20\n      mul\n      0x20\n      add\n      add\n      mload\n        /* \"contracts/SupplementTracker.sol\":5936:5942  result */\n      dup3\n        /* \"contracts/SupplementTracker.sol\":5943:5944  i */\n      dup3\n        /* \"contracts/SupplementTracker.sol\":5936:5945  result[i] */\n      dup2\n      mload\n      dup2\n      lt\n      tag_179\n      jumpi\n      tag_180\n      tag_76\n      jump\t// in\n    tag_180:\n    tag_179:\n      0x20\n      mul\n      0x20\n      add\n      add\n        /* \"contracts/SupplementTracker.sol\":5936:5964  result[i] = allSignatures[i] */\n      dup2\n      swap1\n      mstore\n      pop\n        /* \"contracts/SupplementTracker.sol\":5917:5920  i++ */\n      dup1\n      dup1\n      0x01\n      add\n      swap2\n      pop\n      pop\n        /* \"contracts/SupplementTracker.sol\":5878:5975  for (uint256 i = 0; i < numSignatures; i++) {... */\n      jump(tag_174)\n    tag_175:\n      pop\n        /* \"contracts/SupplementTracker.sol\":5992:5998  result */\n      dup1\n        /* \"contracts/SupplementTracker.sol\":5985:5998  return result */\n      swap4\n      pop\n      pop\n      pop\n      pop\n        /* \"contracts/SupplementTracker.sol\":5377:6005  function getSupplementSignatures(uint256 _supplementId)... */\n      swap2\n      swap1\n      pop\n      jump\t// out\n        /* \"contracts/SupplementTracker.sol\":1124:1351  function addAuthorizedSigner(uint256 _supplementId, address _signer)... */\n    tag_47:\n        /* \"contracts/SupplementTracker.sol\":1246:1262  supplementsCount */\n      sload(0x03)\n        /* \"contracts/SupplementTracker.sol\":1230:1243  _supplementId */\n      dup3\n        /* \"contracts/SupplementTracker.sol\":1230:1262  _supplementId < supplementsCount */\n      lt\n        /* \"contracts/SupplementTracker.sol\":1222:1288  require(_supplementId < supplementsCount, \"Supplement not found.\") */\n      tag_182\n      jumpi\n      mload(0x40)\n      0x08c379a000000000000000000000000000000000000000000000000000000000\n      dup2\n      mstore\n      0x04\n      add\n      tag_183\n      swap1\n      tag_66\n      jump\t// in\n    tag_183:\n      mload(0x40)\n      dup1\n      swap2\n      sub\n      swap1\n      revert\n    tag_182:\n        /* \"contracts/SupplementTracker.sol\":1298:1315  authorizedSigners */\n      0x02\n        /* \"contracts/SupplementTracker.sol\":1298:1330  authorizedSigners[_supplementId] */\n      0x00\n        /* \"contracts/SupplementTracker.sol\":1316:1329  _supplementId */\n      dup4\n        /* \"contracts/SupplementTracker.sol\":1298:1330  authorizedSigners[_supplementId] */\n      dup2\n      mstore\n      0x20\n      add\n      swap1\n      dup2\n      mstore\n      0x20\n      add\n      0x00\n      keccak256\n        /* \"contracts/SupplementTracker.sol\":1336:1343  _signer */\n      dup2\n        /* \"contracts/SupplementTracker.sol\":1298:1344  authorizedSigners[_supplementId].push(_signer) */\n      swap1\n      dup1\n      0x01\n      dup2\n      sload\n      add\n      dup1\n      dup3\n      sstore\n      dup1\n      swap2\n      pop\n      pop\n      0x01\n      swap1\n      sub\n      swap1\n      0x00\n      mstore\n      keccak256(0x00, 0x20)\n      add\n      0x00\n      swap1\n      swap2\n      swap1\n      swap2\n      swap1\n      swap2\n      0x0100\n      exp\n      dup2\n      sload\n      dup2\n      0xffffffffffffffffffffffffffffffffffffffff\n      mul\n      not\n      and\n      swap1\n      dup4\n      0xffffffffffffffffffffffffffffffffffffffff\n      and\n      mul\n      or\n      swap1\n      sstore\n      pop\n        /* \"contracts/SupplementTracker.sol\":1124:1351  function addAuthorizedSigner(uint256 _supplementId, address _signer)... */\n      pop\n      pop\n      jump\t// out\n        /* \"contracts/SupplementTracker.sol\":2536:3018  function revokeSignature(uint256 _supplementId) public {... */\n    tag_50:\n        /* \"contracts/SupplementTracker.sol\":2625:2641  supplementsCount */\n      sload(0x03)\n        /* \"contracts/SupplementTracker.sol\":2609:2622  _supplementId */\n      dup2\n        /* \"contracts/SupplementTracker.sol\":2609:2641  _supplementId < supplementsCount */\n      lt\n        /* \"contracts/SupplementTracker.sol\":2601:2667  require(_supplementId < supplementsCount, \"Supplement not found.\") */\n      tag_186\n      jumpi\n      mload(0x40)\n      0x08c379a000000000000000000000000000000000000000000000000000000000\n      dup2\n      mstore\n      0x04\n      add\n      tag_187\n      swap1\n      tag_66\n      jump\t// in\n    tag_187:\n      mload(0x40)\n      dup1\n      swap2\n      sub\n      swap1\n      revert\n    tag_186:\n        /* \"contracts/SupplementTracker.sol\":2678:2718  SupplementSignature[] storage signatures */\n      0x00\n        /* \"contracts/SupplementTracker.sol\":2721:2742  supplementsSignatures */\n      0x01\n        /* \"contracts/SupplementTracker.sol\":2721:2779  supplementsSignatures[... */\n      0x00\n        /* \"contracts/SupplementTracker.sol\":2756:2769  _supplementId */\n      dup4\n        /* \"contracts/SupplementTracker.sol\":2721:2779  supplementsSignatures[... */\n      dup2\n      mstore\n      0x20\n      add\n      swap1\n      dup2\n      mstore\n      0x20\n      add\n      0x00\n      keccak256\n        /* \"contracts/SupplementTracker.sol\":2678:2779  SupplementSignature[] storage signatures = supplementsSignatures[... */\n      swap1\n      pop\n        /* \"contracts/SupplementTracker.sol\":2795:2804  uint256 i */\n      0x00\n        /* \"contracts/SupplementTracker.sol\":2790:3012  for (uint256 i = 0; i < signatures.length; i++) {... */\n    tag_188:\n        /* \"contracts/SupplementTracker.sol\":2814:2824  signatures */\n      dup2\n        /* \"contracts/SupplementTracker.sol\":2814:2831  signatures.length */\n      dup1\n      sload\n      swap1\n      pop\n        /* \"contracts/SupplementTracker.sol\":2810:2811  i */\n      dup2\n        /* \"contracts/SupplementTracker.sol\":2810:2831  i < signatures.length */\n      lt\n        /* \"contracts/SupplementTracker.sol\":2790:3012  for (uint256 i = 0; i < signatures.length; i++) {... */\n      iszero\n      tag_189\n      jumpi\n        /* \"contracts/SupplementTracker.sol\":2880:2890  msg.sender */\n      caller\n        /* \"contracts/SupplementTracker.sol\":2856:2890  signatures[i].signer == msg.sender */\n      0xffffffffffffffffffffffffffffffffffffffff\n      and\n        /* \"contracts/SupplementTracker.sol\":2856:2866  signatures */\n      dup3\n        /* \"contracts/SupplementTracker.sol\":2867:2868  i */\n      dup3\n        /* \"contracts/SupplementTracker.sol\":2856:2869  signatures[i] */\n      dup2\n      sload\n      dup2\n      lt\n      tag_191\n      jumpi\n      tag_192\n      tag_76\n      jump\t// in\n    tag_192:\n    tag_191:\n      swap1\n      0x00\n      mstore\n      keccak256(0x00, 0x20)\n      swap1\n      0x04\n      mul\n      add\n        /* \"contracts/SupplementTracker.sol\":2856:2876  signatures[i].signer */\n      0x00\n      add\n      0x00\n      swap1\n      sload\n      swap1\n      0x0100\n      exp\n      swap1\n      div\n      0xffffffffffffffffffffffffffffffffffffffff\n      and\n        /* \"contracts/SupplementTracker.sol\":2856:2890  signatures[i].signer == msg.sender */\n      0xffffffffffffffffffffffffffffffffffffffff\n      and\n      eq\n        /* \"contracts/SupplementTracker.sol\":2856:2916  signatures[i].signer == msg.sender && !signatures[i].revoked */\n      dup1\n      iszero\n      tag_194\n      jumpi\n      pop\n        /* \"contracts/SupplementTracker.sol\":2895:2905  signatures */\n      dup2\n        /* \"contracts/SupplementTracker.sol\":2906:2907  i */\n      dup2\n        /* \"contracts/SupplementTracker.sol\":2895:2908  signatures[i] */\n      dup2\n      sload\n      dup2\n      lt\n      tag_195\n      jumpi\n      tag_196\n      tag_76\n      jump\t// in\n    tag_196:\n    tag_195:\n      swap1\n      0x00\n      mstore\n      keccak256(0x00, 0x20)\n      swap1\n      0x04\n      mul\n      add\n        /* \"contracts/SupplementTracker.sol\":2895:2916  signatures[i].revoked */\n      0x03\n      add\n      0x00\n      swap1\n      sload\n      swap1\n      0x0100\n      exp\n      swap1\n      div\n      0xff\n      and\n        /* \"contracts/SupplementTracker.sol\":2894:2916  !signatures[i].revoked */\n      iszero\n        /* \"contracts/SupplementTracker.sol\":2856:2916  signatures[i].signer == msg.sender && !signatures[i].revoked */\n    tag_194:\n        /* \"contracts/SupplementTracker.sol\":2852:3002  if (signatures[i].signer == msg.sender && !signatures[i].revoked) {... */\n      iszero\n      tag_198\n      jumpi\n        /* \"contracts/SupplementTracker.sol\":2960:2964  true */\n      0x01\n        /* \"contracts/SupplementTracker.sol\":2936:2946  signatures */\n      dup3\n        /* \"contracts/SupplementTracker.sol\":2947:2948  i */\n      dup3\n        /* \"contracts/SupplementTracker.sol\":2936:2949  signatures[i] */\n      dup2\n      sload\n      dup2\n      lt\n      tag_199\n      jumpi\n      tag_200\n      tag_76\n      jump\t// in\n    tag_200:\n    tag_199:\n      swap1\n      0x00\n      mstore\n      keccak256(0x00, 0x20)\n      swap1\n      0x04\n      mul\n      add\n        /* \"contracts/SupplementTracker.sol\":2936:2957  signatures[i].revoked */\n      0x03\n      add\n      0x00\n        /* \"contracts/SupplementTracker.sol\":2936:2964  signatures[i].revoked = true */\n      0x0100\n      exp\n      dup2\n      sload\n      dup2\n      0xff\n      mul\n      not\n      and\n      swap1\n      dup4\n      iszero\n      iszero\n      mul\n      or\n      swap1\n      sstore\n      pop\n        /* \"contracts/SupplementTracker.sol\":2982:2987  break */\n      jump(tag_189)\n        /* \"contracts/SupplementTracker.sol\":2852:3002  if (signatures[i].signer == msg.sender && !signatures[i].revoked) {... */\n    tag_198:\n        /* \"contracts/SupplementTracker.sol\":2833:2836  i++ */\n      dup1\n      dup1\n      0x01\n      add\n      swap2\n      pop\n      pop\n        /* \"contracts/SupplementTracker.sol\":2790:3012  for (uint256 i = 0; i < signatures.length; i++) {... */\n      jump(tag_188)\n    tag_189:\n      pop\n        /* \"contracts/SupplementTracker.sol\":2591:3018  {... */\n      pop\n        /* \"contracts/SupplementTracker.sol\":2536:3018  function revokeSignature(uint256 _supplementId) public {... */\n      pop\n      jump\t// out\n        /* \"contracts/SupplementTracker.sol\":3024:3668  function signSupplement(... */\n    tag_54:\n        /* \"contracts/SupplementTracker.sol\":3189:3205  supplementsCount */\n      sload(0x03)\n        /* \"contracts/SupplementTracker.sol\":3173:3186  _supplementId */\n      dup4\n        /* \"contracts/SupplementTracker.sol\":3173:3205  _supplementId < supplementsCount */\n      lt\n        /* \"contracts/SupplementTracker.sol\":3165:3231  require(_supplementId < supplementsCount, \"Supplement not found.\") */\n      tag_203\n      jumpi\n      mload(0x40)\n      0x08c379a000000000000000000000000000000000000000000000000000000000\n      dup2\n      mstore\n      0x04\n      add\n      tag_204\n      swap1\n      tag_66\n      jump\t// in\n    tag_204:\n      mload(0x40)\n      dup1\n      swap2\n      sub\n      swap1\n      revert\n    tag_203:\n        /* \"contracts/SupplementTracker.sol\":3262:3301  isAuthorized(msg.sender, _supplementId) */\n      tag_205\n        /* \"contracts/SupplementTracker.sol\":3275:3285  msg.sender */\n      caller\n        /* \"contracts/SupplementTracker.sol\":3287:3300  _supplementId */\n      dup5\n        /* \"contracts/SupplementTracker.sol\":3262:3274  isAuthorized */\n      tag_206\n        /* \"contracts/SupplementTracker.sol\":3262:3301  isAuthorized(msg.sender, _supplementId) */\n      jump\t// in\n    tag_205:\n        /* \"contracts/SupplementTracker.sol\":3241:3375  require(... */\n      tag_207\n      jumpi\n      mload(0x40)\n      0x08c379a000000000000000000000000000000000000000000000000000000000\n      dup2\n      mstore\n      0x04\n      add\n      tag_208\n      swap1\n      tag_209\n      jump\t// in\n    tag_208:\n      mload(0x40)\n      dup1\n      swap2\n      sub\n      swap1\n      revert\n    tag_207:\n        /* \"contracts/SupplementTracker.sol\":3386:3426  SupplementSignature[] storage signatures */\n      0x00\n        /* \"contracts/SupplementTracker.sol\":3429:3450  supplementsSignatures */\n      0x01\n        /* \"contracts/SupplementTracker.sol\":3429:3487  supplementsSignatures[... */\n      0x00\n        /* \"contracts/SupplementTracker.sol\":3464:3477  _supplementId */\n      dup6\n        /* \"contracts/SupplementTracker.sol\":3429:3487  supplementsSignatures[... */\n      dup2\n      mstore\n      0x20\n      add\n      swap1\n      dup2\n      mstore\n      0x20\n      add\n      0x00\n      keccak256\n        /* \"contracts/SupplementTracker.sol\":3386:3487  SupplementSignature[] storage signatures = supplementsSignatures[... */\n      swap1\n      pop\n        /* \"contracts/SupplementTracker.sol\":3498:3508  signatures */\n      dup1\n        /* \"contracts/SupplementTracker.sol\":3527:3591  SupplementSignature(msg.sender, _messageHash, _signature, false) */\n      mload(0x40)\n      dup1\n      0x80\n      add\n      0x40\n      mstore\n      dup1\n        /* \"contracts/SupplementTracker.sol\":3547:3557  msg.sender */\n      caller\n        /* \"contracts/SupplementTracker.sol\":3527:3591  SupplementSignature(msg.sender, _messageHash, _signature, false) */\n      0xffffffffffffffffffffffffffffffffffffffff\n      and\n      dup2\n      mstore\n      0x20\n      add\n        /* \"contracts/SupplementTracker.sol\":3559:3571  _messageHash */\n      dup5\n        /* \"contracts/SupplementTracker.sol\":3527:3591  SupplementSignature(msg.sender, _messageHash, _signature, false) */\n      dup2\n      mstore\n      0x20\n      add\n        /* \"contracts/SupplementTracker.sol\":3573:3583  _signature */\n      dup6\n        /* \"contracts/SupplementTracker.sol\":3527:3591  SupplementSignature(msg.sender, _messageHash, _signature, false) */\n      dup2\n      mstore\n      0x20\n      add\n        /* \"contracts/SupplementTracker.sol\":3585:3590  false */\n      0x00\n        /* \"contracts/SupplementTracker.sol\":3527:3591  SupplementSignature(msg.sender, _messageHash, _signature, false) */\n      iszero\n      iszero\n      dup2\n      mstore\n      pop\n        /* \"contracts/SupplementTracker.sol\":3498:3601  signatures.push(... */\n      swap1\n      dup1\n      0x01\n      dup2\n      sload\n      add\n      dup1\n      dup3\n      sstore\n      dup1\n      swap2\n      pop\n      pop\n      0x01\n      swap1\n      sub\n      swap1\n      0x00\n      mstore\n      keccak256(0x00, 0x20)\n      swap1\n      0x04\n      mul\n      add\n      0x00\n      swap1\n      swap2\n      swap1\n      swap2\n      swap1\n      swap2\n      pop\n      0x00\n      dup3\n      add\n      mload\n      dup2\n      0x00\n      add\n      exp(0x0100, 0x00)\n      dup2\n      sload\n      dup2\n      0xffffffffffffffffffffffffffffffffffffffff\n      mul\n      not\n      and\n      swap1\n      dup4\n      0xffffffffffffffffffffffffffffffffffffffff\n      and\n      mul\n      or\n      swap1\n      sstore\n      pop\n      0x20\n      dup3\n      add\n      mload\n      dup2\n      0x01\n      add\n      sstore\n      0x40\n      dup3\n      add\n      mload\n      dup2\n      0x02\n      add\n      swap1\n      dup2\n      tag_211\n      swap2\n      swap1\n      tag_212\n      jump\t// in\n    tag_211:\n      pop\n      0x60\n      dup3\n      add\n      mload\n      dup2\n      0x03\n      add\n      exp(0x0100, 0x00)\n      dup2\n      sload\n      dup2\n      0xff\n      mul\n      not\n      and\n      swap1\n      dup4\n      iszero\n      iszero\n      mul\n      or\n      swap1\n      sstore\n      pop\n      pop\n      pop\n        /* \"contracts/SupplementTracker.sol\":3651:3661  signatures */\n      dup1\n        /* \"contracts/SupplementTracker.sol\":3612:3633  supplementsSignatures */\n      0x01\n        /* \"contracts/SupplementTracker.sol\":3612:3648  supplementsSignatures[_supplementId] */\n      0x00\n        /* \"contracts/SupplementTracker.sol\":3634:3647  _supplementId */\n      dup7\n        /* \"contracts/SupplementTracker.sol\":3612:3648  supplementsSignatures[_supplementId] */\n      dup2\n      mstore\n      0x20\n      add\n      swap1\n      dup2\n      mstore\n      0x20\n      add\n      0x00\n      keccak256\n        /* \"contracts/SupplementTracker.sol\":3612:3661  supplementsSignatures[_supplementId] = signatures */\n      swap1\n      dup1\n      sload\n      tag_213\n      swap3\n      swap2\n      swap1\n      tag_214\n      jump\t// in\n    tag_213:\n      pop\n        /* \"contracts/SupplementTracker.sol\":3155:3668  {... */\n      pop\n        /* \"contracts/SupplementTracker.sol\":3024:3668  function signSupplement(... */\n      pop\n      pop\n      pop\n      jump\t// out\n        /* \"contracts/SupplementTracker.sol\":1082:1117  uint256 public supplementsCount = 0 */\n    tag_56:\n      sload(0x03)\n      dup2\n      jump\t// out\n        /* \"contracts/SupplementTracker.sol\":4116:5029  function addSupplement(... */\n    tag_62:\n        /* \"contracts/SupplementTracker.sol\":4437:4618  SupplementInfo(... */\n      mload(0x40)\n      dup1\n      0xe0\n      add\n      0x40\n      mstore\n      dup1\n        /* \"contracts/SupplementTracker.sol\":4465:4475  msg.sender */\n      caller\n        /* \"contracts/SupplementTracker.sol\":4437:4618  SupplementInfo(... */\n      0xffffffffffffffffffffffffffffffffffffffff\n      and\n      dup2\n      mstore\n      0x20\n      add\n        /* \"contracts/SupplementTracker.sol\":4489:4494  _name */\n      dup10\n        /* \"contracts/SupplementTracker.sol\":4437:4618  SupplementInfo(... */\n      dup2\n      mstore\n      0x20\n      add\n        /* \"contracts/SupplementTracker.sol\":4508:4521  _manufacturer */\n      dup9\n        /* \"contracts/SupplementTracker.sol\":4437:4618  SupplementInfo(... */\n      dup2\n      mstore\n      0x20\n      add\n        /* \"contracts/SupplementTracker.sol\":4535:4544  _proteins */\n      dup8\n        /* \"contracts/SupplementTracker.sol\":4437:4618  SupplementInfo(... */\n      dup2\n      mstore\n      0x20\n      add\n        /* \"contracts/SupplementTracker.sol\":4558:4564  _carbs */\n      dup7\n        /* \"contracts/SupplementTracker.sol\":4437:4618  SupplementInfo(... */\n      dup2\n      mstore\n      0x20\n      add\n        /* \"contracts/SupplementTracker.sol\":4578:4583  _fats */\n      dup6\n        /* \"contracts/SupplementTracker.sol\":4437:4618  SupplementInfo(... */\n      dup2\n      mstore\n      0x20\n      add\n        /* \"contracts/SupplementTracker.sol\":4597:4608  _expiryDate */\n      dup5\n        /* \"contracts/SupplementTracker.sol\":4437:4618  SupplementInfo(... */\n      dup2\n      mstore\n      pop\n        /* \"contracts/SupplementTracker.sol\":4405:4416  supplements */\n      0x00\n        /* \"contracts/SupplementTracker.sol\":4405:4434  supplements[supplementsCount] */\n      dup1\n        /* \"contracts/SupplementTracker.sol\":4417:4433  supplementsCount */\n      sload(0x03)\n        /* \"contracts/SupplementTracker.sol\":4405:4434  supplements[supplementsCount] */\n      dup2\n      mstore\n      0x20\n      add\n      swap1\n      dup2\n      mstore\n      0x20\n      add\n      0x00\n      keccak256\n        /* \"contracts/SupplementTracker.sol\":4405:4618  supplements[supplementsCount] = SupplementInfo(... */\n      0x00\n      dup3\n      add\n      mload\n      dup2\n      0x00\n      add\n      exp(0x0100, 0x00)\n      dup2\n      sload\n      dup2\n      0xffffffffffffffffffffffffffffffffffffffff\n      mul\n      not\n      and\n      swap1\n      dup4\n      0xffffffffffffffffffffffffffffffffffffffff\n      and\n      mul\n      or\n      swap1\n      sstore\n      pop\n      0x20\n      dup3\n      add\n      mload\n      dup2\n      0x01\n      add\n      swap1\n      dup2\n      tag_216\n      swap2\n      swap1\n      tag_217\n      jump\t// in\n    tag_216:\n      pop\n      0x40\n      dup3\n      add\n      mload\n      dup2\n      0x02\n      add\n      swap1\n      dup2\n      tag_218\n      swap2\n      swap1\n      tag_217\n      jump\t// in\n    tag_218:\n      pop\n      0x60\n      dup3\n      add\n      mload\n      dup2\n      0x03\n      add\n      sstore\n      0x80\n      dup3\n      add\n      mload\n      dup2\n      0x04\n      add\n      sstore\n      0xa0\n      dup3\n      add\n      mload\n      dup2\n      0x05\n      add\n      sstore\n      0xc0\n      dup3\n      add\n      mload\n      dup2\n      0x06\n      add\n      swap1\n      dup2\n      tag_219\n      swap2\n      swap1\n      tag_217\n      jump\t// in\n    tag_219:\n      pop\n      swap1\n      pop\n      pop\n        /* \"contracts/SupplementTracker.sol\":4629:4669  SupplementSignature[] storage signatures */\n      0x00\n        /* \"contracts/SupplementTracker.sol\":4672:4693  supplementsSignatures */\n      0x01\n        /* \"contracts/SupplementTracker.sol\":4672:4733  supplementsSignatures[... */\n      0x00\n        /* \"contracts/SupplementTracker.sol\":4707:4723  supplementsCount */\n      sload(0x03)\n        /* \"contracts/SupplementTracker.sol\":4672:4733  supplementsSignatures[... */\n      dup2\n      mstore\n      0x20\n      add\n      swap1\n      dup2\n      mstore\n      0x20\n      add\n      0x00\n      keccak256\n        /* \"contracts/SupplementTracker.sol\":4629:4733  SupplementSignature[] storage signatures = supplementsSignatures[... */\n      swap1\n      pop\n        /* \"contracts/SupplementTracker.sol\":4744:4754  signatures */\n      dup1\n        /* \"contracts/SupplementTracker.sol\":4773:4920  SupplementSignature(... */\n      mload(0x40)\n      dup1\n      0x80\n      add\n      0x40\n      mstore\n      dup1\n        /* \"contracts/SupplementTracker.sol\":4810:4820  msg.sender */\n      caller\n        /* \"contracts/SupplementTracker.sol\":4773:4920  SupplementSignature(... */\n      0xffffffffffffffffffffffffffffffffffffffff\n      and\n      dup2\n      mstore\n      0x20\n      add\n        /* \"contracts/SupplementTracker.sol\":4838:4850  _messageHash */\n      dup5\n        /* \"contracts/SupplementTracker.sol\":4773:4920  SupplementSignature(... */\n      dup2\n      mstore\n      0x20\n      add\n        /* \"contracts/SupplementTracker.sol\":4868:4883  _ownerSignature */\n      dup6\n        /* \"contracts/SupplementTracker.sol\":4773:4920  SupplementSignature(... */\n      dup2\n      mstore\n      0x20\n      add\n        /* \"contracts/SupplementTracker.sol\":4901:4906  false */\n      0x00\n        /* \"contracts/SupplementTracker.sol\":4773:4920  SupplementSignature(... */\n      iszero\n      iszero\n      dup2\n      mstore\n      pop\n        /* \"contracts/SupplementTracker.sol\":4744:4930  signatures.push(... */\n      swap1\n      dup1\n      0x01\n      dup2\n      sload\n      add\n      dup1\n      dup3\n      sstore\n      dup1\n      swap2\n      pop\n      pop\n      0x01\n      swap1\n      sub\n      swap1\n      0x00\n      mstore\n      keccak256(0x00, 0x20)\n      swap1\n      0x04\n      mul\n      add\n      0x00\n      swap1\n      swap2\n      swap1\n      swap2\n      swap1\n      swap2\n      pop\n      0x00\n      dup3\n      add\n      mload\n      dup2\n      0x00\n      add\n      exp(0x0100, 0x00)\n      dup2\n      sload\n      dup2\n      0xffffffffffffffffffffffffffffffffffffffff\n      mul\n      not\n      and\n      swap1\n      dup4\n      0xffffffffffffffffffffffffffffffffffffffff\n      and\n      mul\n      or\n      swap1\n      sstore\n      pop\n      0x20\n      dup3\n      add\n      mload\n      dup2\n      0x01\n      add\n      sstore\n      0x40\n      dup3\n      add\n      mload\n      dup2\n      0x02\n      add\n      swap1\n      dup2\n      tag_221\n      swap2\n      swap1\n      tag_212\n      jump\t// in\n    tag_221:\n      pop\n      0x60\n      dup3\n      add\n      mload\n      dup2\n      0x03\n      add\n      exp(0x0100, 0x00)\n      dup2\n      sload\n      dup2\n      0xff\n      mul\n      not\n      and\n      swap1\n      dup4\n      iszero\n      iszero\n      mul\n      or\n      swap1\n      sstore\n      pop\n      pop\n      pop\n        /* \"contracts/SupplementTracker.sol\":4941:4958  authorizedSigners */\n      0x02\n        /* \"contracts/SupplementTracker.sol\":4941:4976  authorizedSigners[supplementsCount] */\n      0x00\n        /* \"contracts/SupplementTracker.sol\":4959:4975  supplementsCount */\n      sload(0x03)\n        /* \"contracts/SupplementTracker.sol\":4941:4976  authorizedSigners[supplementsCount] */\n      dup2\n      mstore\n      0x20\n      add\n      swap1\n      dup2\n      mstore\n      0x20\n      add\n      0x00\n      keccak256\n        /* \"contracts/SupplementTracker.sol\":4982:4992  msg.sender */\n      caller\n        /* \"contracts/SupplementTracker.sol\":4941:4993  authorizedSigners[supplementsCount].push(msg.sender) */\n      swap1\n      dup1\n      0x01\n      dup2\n      sload\n      add\n      dup1\n      dup3\n      sstore\n      dup1\n      swap2\n      pop\n      pop\n      0x01\n      swap1\n      sub\n      swap1\n      0x00\n      mstore\n      keccak256(0x00, 0x20)\n      add\n      0x00\n      swap1\n      swap2\n      swap1\n      swap2\n      swap1\n      swap2\n      0x0100\n      exp\n      dup2\n      sload\n      dup2\n      0xffffffffffffffffffffffffffffffffffffffff\n      mul\n      not\n      and\n      swap1\n      dup4\n      0xffffffffffffffffffffffffffffffffffffffff\n      and\n      mul\n      or\n      swap1\n      sstore\n      pop\n        /* \"contracts/SupplementTracker.sol\":5004:5020  supplementsCount */\n      0x03\n      0x00\n        /* \"contracts/SupplementTracker.sol\":5004:5022  supplementsCount++ */\n      dup2\n      sload\n      dup1\n      swap3\n      swap2\n      swap1\n      tag_223\n      swap1\n      tag_224\n      jump\t// in\n    tag_223:\n      swap2\n      swap1\n      pop\n      sstore\n      pop\n        /* \"contracts/SupplementTracker.sol\":4395:5029  {... */\n      pop\n        /* \"contracts/SupplementTracker.sol\":4116:5029  function addSupplement(... */\n      pop\n      pop\n      pop\n      pop\n      pop\n      pop\n      pop\n      pop\n      jump\t// out\n        /* \"contracts/SupplementTracker.sol\":3674:4110  function isAuthorized(address _signer, uint256 _supplementId)... */\n    tag_206:\n        /* \"contracts/SupplementTracker.sol\":3783:3787  bool */\n      0x00\n        /* \"contracts/SupplementTracker.sol\":3827:3843  supplementsCount */\n      sload(0x03)\n        /* \"contracts/SupplementTracker.sol\":3811:3824  _supplementId */\n      dup3\n        /* \"contracts/SupplementTracker.sol\":3811:3843  _supplementId < supplementsCount */\n      lt\n        /* \"contracts/SupplementTracker.sol\":3803:3869  require(_supplementId < supplementsCount, \"Supplement not found.\") */\n      tag_226\n      jumpi\n      mload(0x40)\n      0x08c379a000000000000000000000000000000000000000000000000000000000\n      dup2\n      mstore\n      0x04\n      add\n      tag_227\n      swap1\n      tag_66\n      jump\t// in\n    tag_227:\n      mload(0x40)\n      dup1\n      swap2\n      sub\n      swap1\n      revert\n    tag_226:\n        /* \"contracts/SupplementTracker.sol\":3880:3901  address[] memory data */\n      0x00\n        /* \"contracts/SupplementTracker.sol\":3904:3921  authorizedSigners */\n      0x02\n        /* \"contracts/SupplementTracker.sol\":3904:3936  authorizedSigners[_supplementId] */\n      0x00\n        /* \"contracts/SupplementTracker.sol\":3922:3935  _supplementId */\n      dup5\n        /* \"contracts/SupplementTracker.sol\":3904:3936  authorizedSigners[_supplementId] */\n      dup2\n      mstore\n      0x20\n      add\n      swap1\n      dup2\n      mstore\n      0x20\n      add\n      0x00\n      keccak256\n        /* \"contracts/SupplementTracker.sol\":3880:3936  address[] memory data = authorizedSigners[_supplementId] */\n      dup1\n      sload\n      dup1\n      0x20\n      mul\n      0x20\n      add\n      mload(0x40)\n      swap1\n      dup2\n      add\n      0x40\n      mstore\n      dup1\n      swap3\n      swap2\n      swap1\n      dup2\n      dup2\n      mstore\n      0x20\n      add\n      dup3\n      dup1\n      sload\n      dup1\n      iszero\n      tag_228\n      jumpi\n      0x20\n      mul\n      dup3\n      add\n      swap2\n      swap1\n      0x00\n      mstore\n      keccak256(0x00, 0x20)\n      swap1\n    tag_229:\n      dup2\n      0x00\n      swap1\n      sload\n      swap1\n      0x0100\n      exp\n      swap1\n      div\n      0xffffffffffffffffffffffffffffffffffffffff\n      and\n      0xffffffffffffffffffffffffffffffffffffffff\n      and\n      dup2\n      mstore\n      0x20\n      add\n      swap1\n      0x01\n      add\n      swap1\n      dup1\n      dup4\n      gt\n      tag_229\n      jumpi\n    tag_228:\n      pop\n      pop\n      pop\n      pop\n      pop\n      swap1\n      pop\n        /* \"contracts/SupplementTracker.sol\":3952:3961  uint256 i */\n      0x00\n        /* \"contracts/SupplementTracker.sol\":3947:4081  for (uint256 i = 0; i < data.length; i++) {... */\n    tag_230:\n        /* \"contracts/SupplementTracker.sol\":3971:3975  data */\n      dup2\n        /* \"contracts/SupplementTracker.sol\":3971:3982  data.length */\n      mload\n        /* \"contracts/SupplementTracker.sol\":3967:3968  i */\n      dup2\n        /* \"contracts/SupplementTracker.sol\":3967:3982  i < data.length */\n      lt\n        /* \"contracts/SupplementTracker.sol\":3947:4081  for (uint256 i = 0; i < data.length; i++) {... */\n      iszero\n      tag_231\n      jumpi\n        /* \"contracts/SupplementTracker.sol\":4018:4025  _signer */\n      dup5\n        /* \"contracts/SupplementTracker.sol\":4007:4025  data[i] == _signer */\n      0xffffffffffffffffffffffffffffffffffffffff\n      and\n        /* \"contracts/SupplementTracker.sol\":4007:4011  data */\n      dup3\n        /* \"contracts/SupplementTracker.sol\":4012:4013  i */\n      dup3\n        /* \"contracts/SupplementTracker.sol\":4007:4014  data[i] */\n      dup2\n      mload\n      dup2\n      lt\n      tag_233\n      jumpi\n      tag_234\n      tag_76\n      jump\t// in\n    tag_234:\n    tag_233:\n      0x20\n      mul\n      0x20\n      add\n      add\n      mload\n        /* \"contracts/SupplementTracker.sol\":4007:4025  data[i] == _signer */\n      0xffffffffffffffffffffffffffffffffffffffff\n      and\n      sub\n        /* \"contracts/SupplementTracker.sol\":4003:4071  if (data[i] == _signer) {... */\n      tag_235\n      jumpi\n        /* \"contracts/SupplementTracker.sol\":4052:4056  true */\n      0x01\n        /* \"contracts/SupplementTracker.sol\":4045:4056  return true */\n      swap3\n      pop\n      pop\n      pop\n      jump(tag_225)\n        /* \"contracts/SupplementTracker.sol\":4003:4071  if (data[i] == _signer) {... */\n    tag_235:\n        /* \"contracts/SupplementTracker.sol\":3984:3987  i++ */\n      dup1\n      dup1\n      0x01\n      add\n      swap2\n      pop\n      pop\n        /* \"contracts/SupplementTracker.sol\":3947:4081  for (uint256 i = 0; i < data.length; i++) {... */\n      jump(tag_230)\n    tag_231:\n      pop\n        /* \"contracts/SupplementTracker.sol\":4098:4103  false */\n      0x00\n        /* \"contracts/SupplementTracker.sol\":4091:4103  return false */\n      swap2\n      pop\n      pop\n        /* \"contracts/SupplementTracker.sol\":3674:4110  function isAuthorized(address _signer, uint256 _supplementId)... */\n    tag_225:\n      swap3\n      swap2\n      pop\n      pop\n      jump\t// out\n    tag_121:\n      mload(0x40)\n      dup1\n      0xe0\n      add\n      0x40\n      mstore\n      dup1\n      and(0xffffffffffffffffffffffffffffffffffffffff, 0x00)\n      dup2\n      mstore\n      0x20\n      add\n      0x60\n      dup2\n      mstore\n      0x20\n      add\n      0x60\n      dup2\n      mstore\n      0x20\n      add\n      0x00\n      dup2\n      mstore\n      0x20\n      add\n      0x00\n      dup2\n      mstore\n      0x20\n      add\n      0x00\n      dup2\n      mstore\n      0x20\n      add\n      0x60\n      dup2\n      mstore\n      pop\n      swap1\n      jump\t// out\n    tag_173:\n      mload(0x40)\n      dup1\n      0x80\n      add\n      0x40\n      mstore\n      dup1\n      and(0xffffffffffffffffffffffffffffffffffffffff, 0x00)\n      dup2\n      mstore\n      0x20\n      add\n      0x00\n      dup1\n      not\n      and\n      dup2\n      mstore\n      0x20\n      add\n      0x60\n      dup2\n      mstore\n      0x20\n      add\n      iszero(iszero(0x00))\n      dup2\n      mstore\n      pop\n      swap1\n      jump\t// out\n    tag_214:\n      dup3\n      dup1\n      sload\n      dup3\n      dup3\n      sstore\n      swap1\n      0x00\n      mstore\n      keccak256(0x00, 0x20)\n      swap1\n      0x04\n      mul\n      dup2\n      add\n      swap3\n      dup3\n      iszero\n      tag_236\n      jumpi\n      0x00\n      mstore\n      keccak256(0x00, 0x20)\n      swap2\n      0x04\n      mul\n      dup3\n      add\n    tag_237:\n      dup3\n      dup2\n      gt\n      iszero\n      tag_238\n      jumpi\n      dup3\n      dup3\n      0x00\n      dup3\n      add\n      0x00\n      swap1\n      sload\n      swap1\n      0x0100\n      exp\n      swap1\n      div\n      0xffffffffffffffffffffffffffffffffffffffff\n      and\n      dup2\n      0x00\n      add\n      exp(0x0100, 0x00)\n      dup2\n      sload\n      dup2\n      0xffffffffffffffffffffffffffffffffffffffff\n      mul\n      not\n      and\n      swap1\n      dup4\n      0xffffffffffffffffffffffffffffffffffffffff\n      and\n      mul\n      or\n      swap1\n      sstore\n      pop\n      0x01\n      dup3\n      add\n      sload\n      dup2\n      0x01\n      add\n      sstore\n      0x02\n      dup3\n      add\n      dup2\n      0x02\n      add\n      swap1\n      dup2\n      tag_239\n      swap2\n      swap1\n      tag_240\n      jump\t// in\n    tag_239:\n      pop\n      0x03\n      dup3\n      add\n      0x00\n      swap1\n      sload\n      swap1\n      0x0100\n      exp\n      swap1\n      div\n      0xff\n      and\n      dup2\n      0x03\n      add\n      exp(0x0100, 0x00)\n      dup2\n      sload\n      dup2\n      0xff\n      mul\n      not\n      and\n      swap1\n      dup4\n      iszero\n      iszero\n      mul\n      or\n      swap1\n      sstore\n      pop\n      pop\n      pop\n      swap2\n      0x04\n      add\n      swap2\n      swap1\n      0x04\n      add\n      swap1\n      jump(tag_237)\n    tag_238:\n    tag_236:\n      pop\n      swap1\n      pop\n      tag_241\n      swap2\n      swap1\n      tag_242\n      jump\t// in\n    tag_241:\n      pop\n      swap1\n      jump\t// out\n    tag_242:\n    tag_243:\n      dup1\n      dup3\n      gt\n      iszero\n      tag_244\n      jumpi\n      0x00\n      dup1\n      dup3\n      add\n      exp(0x0100, 0x00)\n      dup2\n      sload\n      swap1\n      0xffffffffffffffffffffffffffffffffffffffff\n      mul\n      not\n      and\n      swap1\n      sstore\n      0x01\n      dup3\n      add\n      0x00\n      swap1\n      sstore\n      0x02\n      dup3\n      add\n      0x00\n      tag_245\n      swap2\n      swap1\n      tag_246\n      jump\t// in\n    tag_245:\n      0x03\n      dup3\n      add\n      exp(0x0100, 0x00)\n      dup2\n      sload\n      swap1\n      0xff\n      mul\n      not\n      and\n      swap1\n      sstore\n      pop\n      0x04\n      add\n      jump(tag_243)\n    tag_244:\n      pop\n      swap1\n      jump\t// out\n    tag_246:\n      pop\n      dup1\n      sload\n      tag_247\n      swap1\n      tag_110\n      jump\t// in\n    tag_247:\n      0x00\n      dup3\n      sstore\n      dup1\n      0x1f\n      lt\n      tag_249\n      jumpi\n      pop\n      jump(tag_248)\n    tag_249:\n      0x1f\n      add\n      0x20\n      swap1\n      div\n      swap1\n      0x00\n      mstore\n      keccak256(0x00, 0x20)\n      swap1\n      dup2\n      add\n      swap1\n      tag_250\n      swap2\n      swap1\n      tag_251\n      jump\t// in\n    tag_250:\n    tag_248:\n      pop\n      jump\t// out\n    tag_251:\n    tag_252:\n      dup1\n      dup3\n      gt\n      iszero\n      tag_253\n      jumpi\n      0x00\n      dup2\n      0x00\n      swap1\n      sstore\n      pop\n      0x01\n      add\n      jump(tag_252)\n    tag_253:\n      pop\n      swap1\n      jump\t// out\n        /* \"#utility.yul\":7:82   */\n    tag_254:\n        /* \"#utility.yul\":40:46   */\n      0x00\n        /* \"#utility.yul\":73:75   */\n      0x40\n        /* \"#utility.yul\":67:76   */\n      mload\n        /* \"#utility.yul\":57:76   */\n      swap1\n      pop\n        /* \"#utility.yul\":7:82   */\n      swap1\n      jump\t// out\n        /* \"#utility.yul\":88:205   */\n    tag_255:\n        /* \"#utility.yul\":197:198   */\n      0x00\n        /* \"#utility.yul\":194:195   */\n      dup1\n        /* \"#utility.yul\":187:199   */\n      revert\n        /* \"#utility.yul\":211:328   */\n    tag_256:\n        /* \"#utility.yul\":320:321   */\n      0x00\n        /* \"#utility.yul\":317:318   */\n      dup1\n        /* \"#utility.yul\":310:322   */\n      revert\n        /* \"#utility.yul\":334:411   */\n    tag_257:\n        /* \"#utility.yul\":371:378   */\n      0x00\n        /* \"#utility.yul\":400:405   */\n      dup2\n        /* \"#utility.yul\":389:405   */\n      swap1\n      pop\n        /* \"#utility.yul\":334:411   */\n      swap2\n      swap1\n      pop\n      jump\t// out\n        /* \"#utility.yul\":417:539   */\n    tag_258:\n        /* \"#utility.yul\":490:514   */\n      tag_349\n        /* \"#utility.yul\":508:513   */\n      dup2\n        /* \"#utility.yul\":490:514   */\n      tag_257\n      jump\t// in\n    tag_349:\n        /* \"#utility.yul\":483:488   */\n      dup2\n        /* \"#utility.yul\":480:515   */\n      eq\n        /* \"#utility.yul\":470:533   */\n      tag_350\n      jumpi\n        /* \"#utility.yul\":529:530   */\n      0x00\n        /* \"#utility.yul\":526:527   */\n      dup1\n        /* \"#utility.yul\":519:531   */\n      revert\n        /* \"#utility.yul\":470:533   */\n    tag_350:\n        /* \"#utility.yul\":417:539   */\n      pop\n      jump\t// out\n        /* \"#utility.yul\":545:684   */\n    tag_259:\n        /* \"#utility.yul\":591:596   */\n      0x00\n        /* \"#utility.yul\":629:635   */\n      dup2\n        /* \"#utility.yul\":616:636   */\n      calldataload\n        /* \"#utility.yul\":607:636   */\n      swap1\n      pop\n        /* \"#utility.yul\":645:678   */\n      tag_352\n        /* \"#utility.yul\":672:677   */\n      dup2\n        /* \"#utility.yul\":645:678   */\n      tag_258\n      jump\t// in\n    tag_352:\n        /* \"#utility.yul\":545:684   */\n      swap3\n      swap2\n      pop\n      pop\n      jump\t// out\n        /* \"#utility.yul\":690:1019   */\n    tag_17:\n        /* \"#utility.yul\":749:755   */\n      0x00\n        /* \"#utility.yul\":798:800   */\n      0x20\n        /* \"#utility.yul\":786:795   */\n      dup3\n        /* \"#utility.yul\":777:784   */\n      dup5\n        /* \"#utility.yul\":773:796   */\n      sub\n        /* \"#utility.yul\":769:801   */\n      slt\n        /* \"#utility.yul\":766:885   */\n      iszero\n      tag_354\n      jumpi\n        /* \"#utility.yul\":804:883   */\n      tag_355\n      tag_255\n      jump\t// in\n    tag_355:\n        /* \"#utility.yul\":766:885   */\n    tag_354:\n        /* \"#utility.yul\":924:925   */\n      0x00\n        /* \"#utility.yul\":949:1002   */\n      tag_356\n        /* \"#utility.yul\":994:1001   */\n      dup5\n        /* \"#utility.yul\":985:991   */\n      dup3\n        /* \"#utility.yul\":974:983   */\n      dup6\n        /* \"#utility.yul\":970:992   */\n      add\n        /* \"#utility.yul\":949:1002   */\n      tag_259\n      jump\t// in\n    tag_356:\n        /* \"#utility.yul\":939:1002   */\n      swap2\n      pop\n        /* \"#utility.yul\":895:1012   */\n      pop\n        /* \"#utility.yul\":690:1019   */\n      swap3\n      swap2\n      pop\n      pop\n      jump\t// out\n        /* \"#utility.yul\":1025:1139   */\n    tag_260:\n        /* \"#utility.yul\":1092:1098   */\n      0x00\n        /* \"#utility.yul\":1126:1131   */\n      dup2\n        /* \"#utility.yul\":1120:1132   */\n      mload\n        /* \"#utility.yul\":1110:1132   */\n      swap1\n      pop\n        /* \"#utility.yul\":1025:1139   */\n      swap2\n      swap1\n      pop\n      jump\t// out\n        /* \"#utility.yul\":1145:1329   */\n    tag_261:\n        /* \"#utility.yul\":1244:1255   */\n      0x00\n        /* \"#utility.yul\":1278:1284   */\n      dup3\n        /* \"#utility.yul\":1273:1276   */\n      dup3\n        /* \"#utility.yul\":1266:1285   */\n      mstore\n        /* \"#utility.yul\":1318:1322   */\n      0x20\n        /* \"#utility.yul\":1313:1316   */\n      dup3\n        /* \"#utility.yul\":1309:1323   */\n      add\n        /* \"#utility.yul\":1294:1323   */\n      swap1\n      pop\n        /* \"#utility.yul\":1145:1329   */\n      swap3\n      swap2\n      pop\n      pop\n      jump\t// out\n        /* \"#utility.yul\":1335:1467   */\n    tag_262:\n        /* \"#utility.yul\":1402:1406   */\n      0x00\n        /* \"#utility.yul\":1425:1428   */\n      dup2\n        /* \"#utility.yul\":1417:1428   */\n      swap1\n      pop\n        /* \"#utility.yul\":1455:1459   */\n      0x20\n        /* \"#utility.yul\":1450:1453   */\n      dup3\n        /* \"#utility.yul\":1446:1460   */\n      add\n        /* \"#utility.yul\":1438:1460   */\n      swap1\n      pop\n        /* \"#utility.yul\":1335:1467   */\n      swap2\n      swap1\n      pop\n      jump\t// out\n        /* \"#utility.yul\":1473:1599   */\n    tag_263:\n        /* \"#utility.yul\":1510:1517   */\n      0x00\n        /* \"#utility.yul\":1550:1592   */\n      0xffffffffffffffffffffffffffffffffffffffff\n        /* \"#utility.yul\":1543:1548   */\n      dup3\n        /* \"#utility.yul\":1539:1593   */\n      and\n        /* \"#utility.yul\":1528:1593   */\n      swap1\n      pop\n        /* \"#utility.yul\":1473:1599   */\n      swap2\n      swap1\n      pop\n      jump\t// out\n        /* \"#utility.yul\":1605:1701   */\n    tag_264:\n        /* \"#utility.yul\":1642:1649   */\n      0x00\n        /* \"#utility.yul\":1671:1695   */\n      tag_362\n        /* \"#utility.yul\":1689:1694   */\n      dup3\n        /* \"#utility.yul\":1671:1695   */\n      tag_263\n      jump\t// in\n    tag_362:\n        /* \"#utility.yul\":1660:1695   */\n      swap1\n      pop\n        /* \"#utility.yul\":1605:1701   */\n      swap2\n      swap1\n      pop\n      jump\t// out\n        /* \"#utility.yul\":1707:1815   */\n    tag_265:\n        /* \"#utility.yul\":1784:1808   */\n      tag_364\n        /* \"#utility.yul\":1802:1807   */\n      dup2\n        /* \"#utility.yul\":1784:1808   */\n      tag_264\n      jump\t// in\n    tag_364:\n        /* \"#utility.yul\":1779:1782   */\n      dup3\n        /* \"#utility.yul\":1772:1809   */\n      mstore\n        /* \"#utility.yul\":1707:1815   */\n      pop\n      pop\n      jump\t// out\n        /* \"#utility.yul\":1821:2000   */\n    tag_266:\n        /* \"#utility.yul\":1890:1900   */\n      0x00\n        /* \"#utility.yul\":1911:1957   */\n      tag_366\n        /* \"#utility.yul\":1953:1956   */\n      dup4\n        /* \"#utility.yul\":1945:1951   */\n      dup4\n        /* \"#utility.yul\":1911:1957   */\n      tag_265\n      jump\t// in\n    tag_366:\n        /* \"#utility.yul\":1989:1993   */\n      0x20\n        /* \"#utility.yul\":1984:1987   */\n      dup4\n        /* \"#utility.yul\":1980:1994   */\n      add\n        /* \"#utility.yul\":1966:1994   */\n      swap1\n      pop\n        /* \"#utility.yul\":1821:2000   */\n      swap3\n      swap2\n      pop\n      pop\n      jump\t// out\n        /* \"#utility.yul\":2006:2119   */\n    tag_267:\n        /* \"#utility.yul\":2076:2080   */\n      0x00\n        /* \"#utility.yul\":2108:2112   */\n      0x20\n        /* \"#utility.yul\":2103:2106   */\n      dup3\n        /* \"#utility.yul\":2099:2113   */\n      add\n        /* \"#utility.yul\":2091:2113   */\n      swap1\n      pop\n        /* \"#utility.yul\":2006:2119   */\n      swap2\n      swap1\n      pop\n      jump\t// out\n        /* \"#utility.yul\":2155:2887   */\n    tag_268:\n        /* \"#utility.yul\":2274:2277   */\n      0x00\n        /* \"#utility.yul\":2303:2357   */\n      tag_369\n        /* \"#utility.yul\":2351:2356   */\n      dup3\n        /* \"#utility.yul\":2303:2357   */\n      tag_260\n      jump\t// in\n    tag_369:\n        /* \"#utility.yul\":2373:2459   */\n      tag_370\n        /* \"#utility.yul\":2452:2458   */\n      dup2\n        /* \"#utility.yul\":2447:2450   */\n      dup6\n        /* \"#utility.yul\":2373:2459   */\n      tag_261\n      jump\t// in\n    tag_370:\n        /* \"#utility.yul\":2366:2459   */\n      swap4\n      pop\n        /* \"#utility.yul\":2483:2539   */\n      tag_371\n        /* \"#utility.yul\":2533:2538   */\n      dup4\n        /* \"#utility.yul\":2483:2539   */\n      tag_262\n      jump\t// in\n    tag_371:\n        /* \"#utility.yul\":2562:2569   */\n      dup1\n        /* \"#utility.yul\":2593:2594   */\n      0x00\n        /* \"#utility.yul\":2578:2862   */\n    tag_372:\n        /* \"#utility.yul\":2603:2609   */\n      dup4\n        /* \"#utility.yul\":2600:2601   */\n      dup2\n        /* \"#utility.yul\":2597:2610   */\n      lt\n        /* \"#utility.yul\":2578:2862   */\n      iszero\n      tag_374\n      jumpi\n        /* \"#utility.yul\":2679:2685   */\n      dup2\n        /* \"#utility.yul\":2673:2686   */\n      mload\n        /* \"#utility.yul\":2706:2769   */\n      tag_375\n        /* \"#utility.yul\":2765:2768   */\n      dup9\n        /* \"#utility.yul\":2750:2763   */\n      dup3\n        /* \"#utility.yul\":2706:2769   */\n      tag_266\n      jump\t// in\n    tag_375:\n        /* \"#utility.yul\":2699:2769   */\n      swap8\n      pop\n        /* \"#utility.yul\":2792:2852   */\n      tag_376\n        /* \"#utility.yul\":2845:2851   */\n      dup4\n        /* \"#utility.yul\":2792:2852   */\n      tag_267\n      jump\t// in\n    tag_376:\n        /* \"#utility.yul\":2782:2852   */\n      swap3\n      pop\n        /* \"#utility.yul\":2638:2862   */\n      pop\n        /* \"#utility.yul\":2625:2626   */\n      0x01\n        /* \"#utility.yul\":2622:2623   */\n      dup2\n        /* \"#utility.yul\":2618:2627   */\n      add\n        /* \"#utility.yul\":2613:2627   */\n      swap1\n      pop\n        /* \"#utility.yul\":2578:2862   */\n      jump(tag_372)\n    tag_374:\n        /* \"#utility.yul\":2582:2596   */\n      pop\n        /* \"#utility.yul\":2878:2881   */\n      dup6\n        /* \"#utility.yul\":2871:2881   */\n      swap4\n      pop\n        /* \"#utility.yul\":2279:2887   */\n      pop\n      pop\n      pop\n        /* \"#utility.yul\":2155:2887   */\n      swap3\n      swap2\n      pop\n      pop\n      jump\t// out\n        /* \"#utility.yul\":2893:3266   */\n    tag_20:\n        /* \"#utility.yul\":3036:3040   */\n      0x00\n        /* \"#utility.yul\":3074:3076   */\n      0x20\n        /* \"#utility.yul\":3063:3072   */\n      dup3\n        /* \"#utility.yul\":3059:3077   */\n      add\n        /* \"#utility.yul\":3051:3077   */\n      swap1\n      pop\n        /* \"#utility.yul\":3123:3132   */\n      dup2\n        /* \"#utility.yul\":3117:3121   */\n      dup2\n        /* \"#utility.yul\":3113:3133   */\n      sub\n        /* \"#utility.yul\":3109:3110   */\n      0x00\n        /* \"#utility.yul\":3098:3107   */\n      dup4\n        /* \"#utility.yul\":3094:3111   */\n      add\n        /* \"#utility.yul\":3087:3134   */\n      mstore\n        /* \"#utility.yul\":3151:3259   */\n      tag_378\n        /* \"#utility.yul\":3254:3258   */\n      dup2\n        /* \"#utility.yul\":3245:3251   */\n      dup5\n        /* \"#utility.yul\":3151:3259   */\n      tag_268\n      jump\t// in\n    tag_378:\n        /* \"#utility.yul\":3143:3259   */\n      swap1\n      pop\n        /* \"#utility.yul\":2893:3266   */\n      swap3\n      swap2\n      pop\n      pop\n      jump\t// out\n        /* \"#utility.yul\":3272:3394   */\n    tag_269:\n        /* \"#utility.yul\":3345:3369   */\n      tag_380\n        /* \"#utility.yul\":3363:3368   */\n      dup2\n        /* \"#utility.yul\":3345:3369   */\n      tag_264\n      jump\t// in\n    tag_380:\n        /* \"#utility.yul\":3338:3343   */\n      dup2\n        /* \"#utility.yul\":3335:3370   */\n      eq\n        /* \"#utility.yul\":3325:3388   */\n      tag_381\n      jumpi\n        /* \"#utility.yul\":3384:3385   */\n      0x00\n        /* \"#utility.yul\":3381:3382   */\n      dup1\n        /* \"#utility.yul\":3374:3386   */\n      revert\n        /* \"#utility.yul\":3325:3388   */\n    tag_381:\n        /* \"#utility.yul\":3272:3394   */\n      pop\n      jump\t// out\n        /* \"#utility.yul\":3400:3539   */\n    tag_270:\n        /* \"#utility.yul\":3446:3451   */\n      0x00\n        /* \"#utility.yul\":3484:3490   */\n      dup2\n        /* \"#utility.yul\":3471:3491   */\n      calldataload\n        /* \"#utility.yul\":3462:3491   */\n      swap1\n      pop\n        /* \"#utility.yul\":3500:3533   */\n      tag_383\n        /* \"#utility.yul\":3527:3532   */\n      dup2\n        /* \"#utility.yul\":3500:3533   */\n      tag_269\n      jump\t// in\n    tag_383:\n        /* \"#utility.yul\":3400:3539   */\n      swap3\n      swap2\n      pop\n      pop\n      jump\t// out\n        /* \"#utility.yul\":3545:4019   */\n    tag_23:\n        /* \"#utility.yul\":3613:3619   */\n      0x00\n        /* \"#utility.yul\":3621:3627   */\n      dup1\n        /* \"#utility.yul\":3670:3672   */\n      0x40\n        /* \"#utility.yul\":3658:3667   */\n      dup4\n        /* \"#utility.yul\":3649:3656   */\n      dup6\n        /* \"#utility.yul\":3645:3668   */\n      sub\n        /* \"#utility.yul\":3641:3673   */\n      slt\n        /* \"#utility.yul\":3638:3757   */\n      iszero\n      tag_385\n      jumpi\n        /* \"#utility.yul\":3676:3755   */\n      tag_386\n      tag_255\n      jump\t// in\n    tag_386:\n        /* \"#utility.yul\":3638:3757   */\n    tag_385:\n        /* \"#utility.yul\":3796:3797   */\n      0x00\n        /* \"#utility.yul\":3821:3874   */\n      tag_387\n        /* \"#utility.yul\":3866:3873   */\n      dup6\n        /* \"#utility.yul\":3857:3863   */\n      dup3\n        /* \"#utility.yul\":3846:3855   */\n      dup7\n        /* \"#utility.yul\":3842:3864   */\n      add\n        /* \"#utility.yul\":3821:3874   */\n      tag_259\n      jump\t// in\n    tag_387:\n        /* \"#utility.yul\":3811:3874   */\n      swap3\n      pop\n        /* \"#utility.yul\":3767:3884   */\n      pop\n        /* \"#utility.yul\":3923:3925   */\n      0x20\n        /* \"#utility.yul\":3949:4002   */\n      tag_388\n        /* \"#utility.yul\":3994:4001   */\n      dup6\n        /* \"#utility.yul\":3985:3991   */\n      dup3\n        /* \"#utility.yul\":3974:3983   */\n      dup7\n        /* \"#utility.yul\":3970:3992   */\n      add\n        /* \"#utility.yul\":3949:4002   */\n      tag_270\n      jump\t// in\n    tag_388:\n        /* \"#utility.yul\":3939:4002   */\n      swap2\n      pop\n        /* \"#utility.yul\":3894:4012   */\n      pop\n        /* \"#utility.yul\":3545:4019   */\n      swap3\n      pop\n      swap3\n      swap1\n      pop\n      jump\t// out\n        /* \"#utility.yul\":4025:4499   */\n    tag_27:\n        /* \"#utility.yul\":4093:4099   */\n      0x00\n        /* \"#utility.yul\":4101:4107   */\n      dup1\n        /* \"#utility.yul\":4150:4152   */\n      0x40\n        /* \"#utility.yul\":4138:4147   */\n      dup4\n        /* \"#utility.yul\":4129:4136   */\n      dup6\n        /* \"#utility.yul\":4125:4148   */\n      sub\n        /* \"#utility.yul\":4121:4153   */\n      slt\n        /* \"#utility.yul\":4118:4237   */\n      iszero\n      tag_390\n      jumpi\n        /* \"#utility.yul\":4156:4235   */\n      tag_391\n      tag_255\n      jump\t// in\n    tag_391:\n        /* \"#utility.yul\":4118:4237   */\n    tag_390:\n        /* \"#utility.yul\":4276:4277   */\n      0x00\n        /* \"#utility.yul\":4301:4354   */\n      tag_392\n        /* \"#utility.yul\":4346:4353   */\n      dup6\n        /* \"#utility.yul\":4337:4343   */\n      dup3\n        /* \"#utility.yul\":4326:4335   */\n      dup7\n        /* \"#utility.yul\":4322:4344   */\n      add\n        /* \"#utility.yul\":4301:4354   */\n      tag_259\n      jump\t// in\n    tag_392:\n        /* \"#utility.yul\":4291:4354   */\n      swap3\n      pop\n        /* \"#utility.yul\":4247:4364   */\n      pop\n        /* \"#utility.yul\":4403:4405   */\n      0x20\n        /* \"#utility.yul\":4429:4482   */\n      tag_393\n        /* \"#utility.yul\":4474:4481   */\n      dup6\n        /* \"#utility.yul\":4465:4471   */\n      dup3\n        /* \"#utility.yul\":4454:4463   */\n      dup7\n        /* \"#utility.yul\":4450:4472   */\n      add\n        /* \"#utility.yul\":4429:4482   */\n      tag_259\n      jump\t// in\n    tag_393:\n        /* \"#utility.yul\":4419:4482   */\n      swap2\n      pop\n        /* \"#utility.yul\":4374:4492   */\n      pop\n        /* \"#utility.yul\":4025:4499   */\n      swap3\n      pop\n      swap3\n      swap1\n      pop\n      jump\t// out\n        /* \"#utility.yul\":4505:4623   */\n    tag_271:\n        /* \"#utility.yul\":4592:4616   */\n      tag_395\n        /* \"#utility.yul\":4610:4615   */\n      dup2\n        /* \"#utility.yul\":4592:4616   */\n      tag_264\n      jump\t// in\n    tag_395:\n        /* \"#utility.yul\":4587:4590   */\n      dup3\n        /* \"#utility.yul\":4580:4617   */\n      mstore\n        /* \"#utility.yul\":4505:4623   */\n      pop\n      pop\n      jump\t// out\n        /* \"#utility.yul\":4629:4706   */\n    tag_272:\n        /* \"#utility.yul\":4666:4673   */\n      0x00\n        /* \"#utility.yul\":4695:4700   */\n      dup2\n        /* \"#utility.yul\":4684:4700   */\n      swap1\n      pop\n        /* \"#utility.yul\":4629:4706   */\n      swap2\n      swap1\n      pop\n      jump\t// out\n        /* \"#utility.yul\":4712:4830   */\n    tag_273:\n        /* \"#utility.yul\":4799:4823   */\n      tag_398\n        /* \"#utility.yul\":4817:4822   */\n      dup2\n        /* \"#utility.yul\":4799:4823   */\n      tag_272\n      jump\t// in\n    tag_398:\n        /* \"#utility.yul\":4794:4797   */\n      dup3\n        /* \"#utility.yul\":4787:4824   */\n      mstore\n        /* \"#utility.yul\":4712:4830   */\n      pop\n      pop\n      jump\t// out\n        /* \"#utility.yul\":4836:4934   */\n    tag_274:\n        /* \"#utility.yul\":4887:4893   */\n      0x00\n        /* \"#utility.yul\":4921:4926   */\n      dup2\n        /* \"#utility.yul\":4915:4927   */\n      mload\n        /* \"#utility.yul\":4905:4927   */\n      swap1\n      pop\n        /* \"#utility.yul\":4836:4934   */\n      swap2\n      swap1\n      pop\n      jump\t// out\n        /* \"#utility.yul\":4940:5108   */\n    tag_275:\n        /* \"#utility.yul\":5023:5034   */\n      0x00\n        /* \"#utility.yul\":5057:5063   */\n      dup3\n        /* \"#utility.yul\":5052:5055   */\n      dup3\n        /* \"#utility.yul\":5045:5064   */\n      mstore\n        /* \"#utility.yul\":5097:5101   */\n      0x20\n        /* \"#utility.yul\":5092:5095   */\n      dup3\n        /* \"#utility.yul\":5088:5102   */\n      add\n        /* \"#utility.yul\":5073:5102   */\n      swap1\n      pop\n        /* \"#utility.yul\":4940:5108   */\n      swap3\n      swap2\n      pop\n      pop\n      jump\t// out\n        /* \"#utility.yul\":5114:5360   */\n    tag_276:\n        /* \"#utility.yul\":5195:5196   */\n      0x00\n        /* \"#utility.yul\":5205:5318   */\n    tag_402:\n        /* \"#utility.yul\":5219:5225   */\n      dup4\n        /* \"#utility.yul\":5216:5217   */\n      dup2\n        /* \"#utility.yul\":5213:5226   */\n      lt\n        /* \"#utility.yul\":5205:5318   */\n      iszero\n      tag_404\n      jumpi\n        /* \"#utility.yul\":5304:5305   */\n      dup1\n        /* \"#utility.yul\":5299:5302   */\n      dup3\n        /* \"#utility.yul\":5295:5306   */\n      add\n        /* \"#utility.yul\":5289:5307   */\n      mload\n        /* \"#utility.yul\":5285:5286   */\n      dup2\n        /* \"#utility.yul\":5280:5283   */\n      dup5\n        /* \"#utility.yul\":5276:5287   */\n      add\n        /* \"#utility.yul\":5269:5308   */\n      mstore\n        /* \"#utility.yul\":5241:5243   */\n      0x20\n        /* \"#utility.yul\":5238:5239   */\n      dup2\n        /* \"#utility.yul\":5234:5244   */\n      add\n        /* \"#utility.yul\":5229:5244   */\n      swap1\n      pop\n        /* \"#utility.yul\":5205:5318   */\n      jump(tag_402)\n    tag_404:\n        /* \"#utility.yul\":5352:5353   */\n      0x00\n        /* \"#utility.yul\":5343:5349   */\n      dup5\n        /* \"#utility.yul\":5338:5341   */\n      dup5\n        /* \"#utility.yul\":5334:5350   */\n      add\n        /* \"#utility.yul\":5327:5354   */\n      mstore\n        /* \"#utility.yul\":5176:5360   */\n      pop\n        /* \"#utility.yul\":5114:5360   */\n      pop\n      pop\n      pop\n      jump\t// out\n        /* \"#utility.yul\":5366:5468   */\n    tag_277:\n        /* \"#utility.yul\":5407:5413   */\n      0x00\n        /* \"#utility.yul\":5458:5460   */\n      0x1f\n        /* \"#utility.yul\":5454:5461   */\n      not\n        /* \"#utility.yul\":5449:5451   */\n      0x1f\n        /* \"#utility.yul\":5442:5447   */\n      dup4\n        /* \"#utility.yul\":5438:5452   */\n      add\n        /* \"#utility.yul\":5434:5462   */\n      and\n        /* \"#utility.yul\":5424:5462   */\n      swap1\n      pop\n        /* \"#utility.yul\":5366:5468   */\n      swap2\n      swap1\n      pop\n      jump\t// out\n        /* \"#utility.yul\":5474:5847   */\n    tag_278:\n        /* \"#utility.yul\":5560:5563   */\n      0x00\n        /* \"#utility.yul\":5588:5626   */\n      tag_407\n        /* \"#utility.yul\":5620:5625   */\n      dup3\n        /* \"#utility.yul\":5588:5626   */\n      tag_274\n      jump\t// in\n    tag_407:\n        /* \"#utility.yul\":5642:5712   */\n      tag_408\n        /* \"#utility.yul\":5705:5711   */\n      dup2\n        /* \"#utility.yul\":5700:5703   */\n      dup6\n        /* \"#utility.yul\":5642:5712   */\n      tag_275\n      jump\t// in\n    tag_408:\n        /* \"#utility.yul\":5635:5712   */\n      swap4\n      pop\n        /* \"#utility.yul\":5721:5786   */\n      tag_409\n        /* \"#utility.yul\":5779:5785   */\n      dup2\n        /* \"#utility.yul\":5774:5777   */\n      dup6\n        /* \"#utility.yul\":5767:5771   */\n      0x20\n        /* \"#utility.yul\":5760:5765   */\n      dup7\n        /* \"#utility.yul\":5756:5772   */\n      add\n        /* \"#utility.yul\":5721:5786   */\n      tag_276\n      jump\t// in\n    tag_409:\n        /* \"#utility.yul\":5811:5840   */\n      tag_410\n        /* \"#utility.yul\":5833:5839   */\n      dup2\n        /* \"#utility.yul\":5811:5840   */\n      tag_277\n      jump\t// in\n    tag_410:\n        /* \"#utility.yul\":5806:5809   */\n      dup5\n        /* \"#utility.yul\":5802:5841   */\n      add\n        /* \"#utility.yul\":5795:5841   */\n      swap2\n      pop\n        /* \"#utility.yul\":5564:5847   */\n      pop\n        /* \"#utility.yul\":5474:5847   */\n      swap3\n      swap2\n      pop\n      pop\n      jump\t// out\n        /* \"#utility.yul\":5853:5943   */\n    tag_279:\n        /* \"#utility.yul\":5887:5894   */\n      0x00\n        /* \"#utility.yul\":5930:5935   */\n      dup2\n        /* \"#utility.yul\":5923:5936   */\n      iszero\n        /* \"#utility.yul\":5916:5937   */\n      iszero\n        /* \"#utility.yul\":5905:5937   */\n      swap1\n      pop\n        /* \"#utility.yul\":5853:5943   */\n      swap2\n      swap1\n      pop\n      jump\t// out\n        /* \"#utility.yul\":5949:6058   */\n    tag_280:\n        /* \"#utility.yul\":6030:6051   */\n      tag_413\n        /* \"#utility.yul\":6045:6050   */\n      dup2\n        /* \"#utility.yul\":6030:6051   */\n      tag_279\n      jump\t// in\n    tag_413:\n        /* \"#utility.yul\":6025:6028   */\n      dup3\n        /* \"#utility.yul\":6018:6052   */\n      mstore\n        /* \"#utility.yul\":5949:6058   */\n      pop\n      pop\n      jump\t// out\n        /* \"#utility.yul\":6064:6692   */\n    tag_30:\n        /* \"#utility.yul\":6253:6257   */\n      0x00\n        /* \"#utility.yul\":6291:6294   */\n      0x80\n        /* \"#utility.yul\":6280:6289   */\n      dup3\n        /* \"#utility.yul\":6276:6295   */\n      add\n        /* \"#utility.yul\":6268:6295   */\n      swap1\n      pop\n        /* \"#utility.yul\":6305:6376   */\n      tag_415\n        /* \"#utility.yul\":6373:6374   */\n      0x00\n        /* \"#utility.yul\":6362:6371   */\n      dup4\n        /* \"#utility.yul\":6358:6375   */\n      add\n        /* \"#utility.yul\":6349:6355   */\n      dup8\n        /* \"#utility.yul\":6305:6376   */\n      tag_271\n      jump\t// in\n    tag_415:\n        /* \"#utility.yul\":6386:6458   */\n      tag_416\n        /* \"#utility.yul\":6454:6456   */\n      0x20\n        /* \"#utility.yul\":6443:6452   */\n      dup4\n        /* \"#utility.yul\":6439:6457   */\n      add\n        /* \"#utility.yul\":6430:6436   */\n      dup7\n        /* \"#utility.yul\":6386:6458   */\n      tag_273\n      jump\t// in\n    tag_416:\n        /* \"#utility.yul\":6505:6514   */\n      dup2\n        /* \"#utility.yul\":6499:6503   */\n      dup2\n        /* \"#utility.yul\":6495:6515   */\n      sub\n        /* \"#utility.yul\":6490:6492   */\n      0x40\n        /* \"#utility.yul\":6479:6488   */\n      dup4\n        /* \"#utility.yul\":6475:6493   */\n      add\n        /* \"#utility.yul\":6468:6516   */\n      mstore\n        /* \"#utility.yul\":6533:6609   */\n      tag_417\n        /* \"#utility.yul\":6604:6608   */\n      dup2\n        /* \"#utility.yul\":6595:6601   */\n      dup6\n        /* \"#utility.yul\":6533:6609   */\n      tag_278\n      jump\t// in\n    tag_417:\n        /* \"#utility.yul\":6525:6609   */\n      swap1\n      pop\n        /* \"#utility.yul\":6619:6685   */\n      tag_418\n        /* \"#utility.yul\":6681:6683   */\n      0x60\n        /* \"#utility.yul\":6670:6679   */\n      dup4\n        /* \"#utility.yul\":6666:6684   */\n      add\n        /* \"#utility.yul\":6657:6663   */\n      dup5\n        /* \"#utility.yul\":6619:6685   */\n      tag_280\n      jump\t// in\n    tag_418:\n        /* \"#utility.yul\":6064:6692   */\n      swap6\n      swap5\n      pop\n      pop\n      pop\n      pop\n      pop\n      jump\t// out\n        /* \"#utility.yul\":6698:6842   */\n    tag_281:\n        /* \"#utility.yul\":6795:6801   */\n      0x00\n        /* \"#utility.yul\":6829:6834   */\n      dup2\n        /* \"#utility.yul\":6823:6835   */\n      mload\n        /* \"#utility.yul\":6813:6835   */\n      swap1\n      pop\n        /* \"#utility.yul\":6698:6842   */\n      swap2\n      swap1\n      pop\n      jump\t// out\n        /* \"#utility.yul\":6848:7062   */\n    tag_282:\n        /* \"#utility.yul\":6977:6988   */\n      0x00\n        /* \"#utility.yul\":7011:7017   */\n      dup3\n        /* \"#utility.yul\":7006:7009   */\n      dup3\n        /* \"#utility.yul\":6999:7018   */\n      mstore\n        /* \"#utility.yul\":7051:7055   */\n      0x20\n        /* \"#utility.yul\":7046:7049   */\n      dup3\n        /* \"#utility.yul\":7042:7056   */\n      add\n        /* \"#utility.yul\":7027:7056   */\n      swap1\n      pop\n        /* \"#utility.yul\":6848:7062   */\n      swap3\n      swap2\n      pop\n      pop\n      jump\t// out\n        /* \"#utility.yul\":7068:7230   */\n    tag_283:\n        /* \"#utility.yul\":7165:7169   */\n      0x00\n        /* \"#utility.yul\":7188:7191   */\n      dup2\n        /* \"#utility.yul\":7180:7191   */\n      swap1\n      pop\n        /* \"#utility.yul\":7218:7222   */\n      0x20\n        /* \"#utility.yul\":7213:7216   */\n      dup3\n        /* \"#utility.yul\":7209:7223   */\n      add\n        /* \"#utility.yul\":7201:7223   */\n      swap1\n      pop\n        /* \"#utility.yul\":7068:7230   */\n      swap2\n      swap1\n      pop\n      jump\t// out\n        /* \"#utility.yul\":7236:7335   */\n    tag_284:\n        /* \"#utility.yul\":7288:7294   */\n      0x00\n        /* \"#utility.yul\":7322:7327   */\n      dup2\n        /* \"#utility.yul\":7316:7328   */\n      mload\n        /* \"#utility.yul\":7306:7328   */\n      swap1\n      pop\n        /* \"#utility.yul\":7236:7335   */\n      swap2\n      swap1\n      pop\n      jump\t// out\n        /* \"#utility.yul\":7341:7500   */\n    tag_285:\n        /* \"#utility.yul\":7415:7426   */\n      0x00\n        /* \"#utility.yul\":7449:7455   */\n      dup3\n        /* \"#utility.yul\":7444:7447   */\n      dup3\n        /* \"#utility.yul\":7437:7456   */\n      mstore\n        /* \"#utility.yul\":7489:7493   */\n      0x20\n        /* \"#utility.yul\":7484:7487   */\n      dup3\n        /* \"#utility.yul\":7480:7494   */\n      add\n        /* \"#utility.yul\":7465:7494   */\n      swap1\n      pop\n        /* \"#utility.yul\":7341:7500   */\n      swap3\n      swap2\n      pop\n      pop\n      jump\t// out\n        /* \"#utility.yul\":7506:7863   */\n    tag_286:\n        /* \"#utility.yul\":7584:7587   */\n      0x00\n        /* \"#utility.yul\":7612:7651   */\n      tag_425\n        /* \"#utility.yul\":7645:7650   */\n      dup3\n        /* \"#utility.yul\":7612:7651   */\n      tag_284\n      jump\t// in\n    tag_425:\n        /* \"#utility.yul\":7667:7728   */\n      tag_426\n        /* \"#utility.yul\":7721:7727   */\n      dup2\n        /* \"#utility.yul\":7716:7719   */\n      dup6\n        /* \"#utility.yul\":7667:7728   */\n      tag_285\n      jump\t// in\n    tag_426:\n        /* \"#utility.yul\":7660:7728   */\n      swap4\n      pop\n        /* \"#utility.yul\":7737:7802   */\n      tag_427\n        /* \"#utility.yul\":7795:7801   */\n      dup2\n        /* \"#utility.yul\":7790:7793   */\n      dup6\n        /* \"#utility.yul\":7783:7787   */\n      0x20\n        /* \"#utility.yul\":7776:7781   */\n      dup7\n        /* \"#utility.yul\":7772:7788   */\n      add\n        /* \"#utility.yul\":7737:7802   */\n      tag_276\n      jump\t// in\n    tag_427:\n        /* \"#utility.yul\":7827:7856   */\n      tag_428\n        /* \"#utility.yul\":7849:7855   */\n      dup2\n        /* \"#utility.yul\":7827:7856   */\n      tag_277\n      jump\t// in\n    tag_428:\n        /* \"#utility.yul\":7822:7825   */\n      dup5\n        /* \"#utility.yul\":7818:7857   */\n      add\n        /* \"#utility.yul\":7811:7857   */\n      swap2\n      pop\n        /* \"#utility.yul\":7588:7863   */\n      pop\n        /* \"#utility.yul\":7506:7863   */\n      swap3\n      swap2\n      pop\n      pop\n      jump\t// out\n        /* \"#utility.yul\":7869:7977   */\n    tag_287:\n        /* \"#utility.yul\":7946:7970   */\n      tag_430\n        /* \"#utility.yul\":7964:7969   */\n      dup2\n        /* \"#utility.yul\":7946:7970   */\n      tag_257\n      jump\t// in\n    tag_430:\n        /* \"#utility.yul\":7941:7944   */\n      dup3\n        /* \"#utility.yul\":7934:7971   */\n      mstore\n        /* \"#utility.yul\":7869:7977   */\n      pop\n      pop\n      jump\t// out\n        /* \"#utility.yul\":8073:9711   */\n    tag_288:\n        /* \"#utility.yul\":8192:8195   */\n      0x00\n        /* \"#utility.yul\":8228:8232   */\n      0xe0\n        /* \"#utility.yul\":8223:8226   */\n      dup4\n        /* \"#utility.yul\":8219:8233   */\n      add\n        /* \"#utility.yul\":8316:8320   */\n      0x00\n        /* \"#utility.yul\":8309:8314   */\n      dup4\n        /* \"#utility.yul\":8305:8321   */\n      add\n        /* \"#utility.yul\":8299:8322   */\n      mload\n        /* \"#utility.yul\":8335:8398   */\n      tag_432\n        /* \"#utility.yul\":8392:8396   */\n      0x00\n        /* \"#utility.yul\":8387:8390   */\n      dup7\n        /* \"#utility.yul\":8383:8397   */\n      add\n        /* \"#utility.yul\":8369:8381   */\n      dup3\n        /* \"#utility.yul\":8335:8398   */\n      tag_265\n      jump\t// in\n    tag_432:\n        /* \"#utility.yul\":8243:8408   */\n      pop\n        /* \"#utility.yul\":8490:8494   */\n      0x20\n        /* \"#utility.yul\":8483:8488   */\n      dup4\n        /* \"#utility.yul\":8479:8495   */\n      add\n        /* \"#utility.yul\":8473:8496   */\n      mload\n        /* \"#utility.yul\":8543:8546   */\n      dup5\n        /* \"#utility.yul\":8537:8541   */\n      dup3\n        /* \"#utility.yul\":8533:8547   */\n      sub\n        /* \"#utility.yul\":8526:8530   */\n      0x20\n        /* \"#utility.yul\":8521:8524   */\n      dup7\n        /* \"#utility.yul\":8517:8531   */\n      add\n        /* \"#utility.yul\":8510:8548   */\n      mstore\n        /* \"#utility.yul\":8569:8642   */\n      tag_433\n        /* \"#utility.yul\":8637:8641   */\n      dup3\n        /* \"#utility.yul\":8623:8635   */\n      dup3\n        /* \"#utility.yul\":8569:8642   */\n      tag_286\n      jump\t// in\n    tag_433:\n        /* \"#utility.yul\":8561:8642   */\n      swap2\n      pop\n        /* \"#utility.yul\":8418:8653   */\n      pop\n        /* \"#utility.yul\":8743:8747   */\n      0x40\n        /* \"#utility.yul\":8736:8741   */\n      dup4\n        /* \"#utility.yul\":8732:8748   */\n      add\n        /* \"#utility.yul\":8726:8749   */\n      mload\n        /* \"#utility.yul\":8796:8799   */\n      dup5\n        /* \"#utility.yul\":8790:8794   */\n      dup3\n        /* \"#utility.yul\":8786:8800   */\n      sub\n        /* \"#utility.yul\":8779:8783   */\n      0x40\n        /* \"#utility.yul\":8774:8777   */\n      dup7\n        /* \"#utility.yul\":8770:8784   */\n      add\n        /* \"#utility.yul\":8763:8801   */\n      mstore\n        /* \"#utility.yul\":8822:8895   */\n      tag_434\n        /* \"#utility.yul\":8890:8894   */\n      dup3\n        /* \"#utility.yul\":8876:8888   */\n      dup3\n        /* \"#utility.yul\":8822:8895   */\n      tag_286\n      jump\t// in\n    tag_434:\n        /* \"#utility.yul\":8814:8895   */\n      swap2\n      pop\n        /* \"#utility.yul\":8663:8906   */\n      pop\n        /* \"#utility.yul\":8992:8996   */\n      0x60\n        /* \"#utility.yul\":8985:8990   */\n      dup4\n        /* \"#utility.yul\":8981:8997   */\n      add\n        /* \"#utility.yul\":8975:8998   */\n      mload\n        /* \"#utility.yul\":9011:9074   */\n      tag_435\n        /* \"#utility.yul\":9068:9072   */\n      0x60\n        /* \"#utility.yul\":9063:9066   */\n      dup7\n        /* \"#utility.yul\":9059:9073   */\n      add\n        /* \"#utility.yul\":9045:9057   */\n      dup3\n        /* \"#utility.yul\":9011:9074   */\n      tag_287\n      jump\t// in\n    tag_435:\n        /* \"#utility.yul\":8916:9084   */\n      pop\n        /* \"#utility.yul\":9167:9171   */\n      0x80\n        /* \"#utility.yul\":9160:9165   */\n      dup4\n        /* \"#utility.yul\":9156:9172   */\n      add\n        /* \"#utility.yul\":9150:9173   */\n      mload\n        /* \"#utility.yul\":9186:9249   */\n      tag_436\n        /* \"#utility.yul\":9243:9247   */\n      0x80\n        /* \"#utility.yul\":9238:9241   */\n      dup7\n        /* \"#utility.yul\":9234:9248   */\n      add\n        /* \"#utility.yul\":9220:9232   */\n      dup3\n        /* \"#utility.yul\":9186:9249   */\n      tag_287\n      jump\t// in\n    tag_436:\n        /* \"#utility.yul\":9094:9259   */\n      pop\n        /* \"#utility.yul\":9341:9345   */\n      0xa0\n        /* \"#utility.yul\":9334:9339   */\n      dup4\n        /* \"#utility.yul\":9330:9346   */\n      add\n        /* \"#utility.yul\":9324:9347   */\n      mload\n        /* \"#utility.yul\":9360:9423   */\n      tag_437\n        /* \"#utility.yul\":9417:9421   */\n      0xa0\n        /* \"#utility.yul\":9412:9415   */\n      dup7\n        /* \"#utility.yul\":9408:9422   */\n      add\n        /* \"#utility.yul\":9394:9406   */\n      dup3\n        /* \"#utility.yul\":9360:9423   */\n      tag_287\n      jump\t// in\n    tag_437:\n        /* \"#utility.yul\":9269:9433   */\n      pop\n        /* \"#utility.yul\":9521:9525   */\n      0xc0\n        /* \"#utility.yul\":9514:9519   */\n      dup4\n        /* \"#utility.yul\":9510:9526   */\n      add\n        /* \"#utility.yul\":9504:9527   */\n      mload\n        /* \"#utility.yul\":9574:9577   */\n      dup5\n        /* \"#utility.yul\":9568:9572   */\n      dup3\n        /* \"#utility.yul\":9564:9578   */\n      sub\n        /* \"#utility.yul\":9557:9561   */\n      0xc0\n        /* \"#utility.yul\":9552:9555   */\n      dup7\n        /* \"#utility.yul\":9548:9562   */\n      add\n        /* \"#utility.yul\":9541:9579   */\n      mstore\n        /* \"#utility.yul\":9600:9673   */\n      tag_438\n        /* \"#utility.yul\":9668:9672   */\n      dup3\n        /* \"#utility.yul\":9654:9666   */\n      dup3\n        /* \"#utility.yul\":9600:9673   */\n      tag_286\n      jump\t// in\n    tag_438:\n        /* \"#utility.yul\":9592:9673   */\n      swap2\n      pop\n        /* \"#utility.yul\":9443:9684   */\n      pop\n        /* \"#utility.yul\":9701:9705   */\n      dup1\n        /* \"#utility.yul\":9694:9705   */\n      swap2\n      pop\n        /* \"#utility.yul\":8197:9711   */\n      pop\n        /* \"#utility.yul\":8073:9711   */\n      swap3\n      swap2\n      pop\n      pop\n      jump\t// out\n        /* \"#utility.yul\":9717:9993   */\n    tag_289:\n        /* \"#utility.yul\":9846:9856   */\n      0x00\n        /* \"#utility.yul\":9881:9987   */\n      tag_440\n        /* \"#utility.yul\":9983:9986   */\n      dup4\n        /* \"#utility.yul\":9975:9981   */\n      dup4\n        /* \"#utility.yul\":9881:9987   */\n      tag_288\n      jump\t// in\n    tag_440:\n        /* \"#utility.yul\":9867:9987   */\n      swap1\n      pop\n        /* \"#utility.yul\":9717:9993   */\n      swap3\n      swap2\n      pop\n      pop\n      jump\t// out\n        /* \"#utility.yul\":9999:10142   */\n    tag_290:\n        /* \"#utility.yul\":10099:10103   */\n      0x00\n        /* \"#utility.yul\":10131:10135   */\n      0x20\n        /* \"#utility.yul\":10126:10129   */\n      dup3\n        /* \"#utility.yul\":10122:10136   */\n      add\n        /* \"#utility.yul\":10114:10136   */\n      swap1\n      pop\n        /* \"#utility.yul\":9999:10142   */\n      swap2\n      swap1\n      pop\n      jump\t// out\n        /* \"#utility.yul\":10242:11393   */\n    tag_291:\n        /* \"#utility.yul\":10421:10424   */\n      0x00\n        /* \"#utility.yul\":10450:10534   */\n      tag_443\n        /* \"#utility.yul\":10528:10533   */\n      dup3\n        /* \"#utility.yul\":10450:10534   */\n      tag_281\n      jump\t// in\n    tag_443:\n        /* \"#utility.yul\":10550:10666   */\n      tag_444\n        /* \"#utility.yul\":10659:10665   */\n      dup2\n        /* \"#utility.yul\":10654:10657   */\n      dup6\n        /* \"#utility.yul\":10550:10666   */\n      tag_282\n      jump\t// in\n    tag_444:\n        /* \"#utility.yul\":10543:10666   */\n      swap4\n      pop\n        /* \"#utility.yul\":10692:10695   */\n      dup4\n        /* \"#utility.yul\":10737:10741   */\n      0x20\n        /* \"#utility.yul\":10729:10735   */\n      dup3\n        /* \"#utility.yul\":10725:10742   */\n      mul\n        /* \"#utility.yul\":10720:10723   */\n      dup6\n        /* \"#utility.yul\":10716:10743   */\n      add\n        /* \"#utility.yul\":10767:10853   */\n      tag_445\n        /* \"#utility.yul\":10847:10852   */\n      dup6\n        /* \"#utility.yul\":10767:10853   */\n      tag_283\n      jump\t// in\n    tag_445:\n        /* \"#utility.yul\":10876:10883   */\n      dup1\n        /* \"#utility.yul\":10907:10908   */\n      0x00\n        /* \"#utility.yul\":10892:11348   */\n    tag_446:\n        /* \"#utility.yul\":10917:10923   */\n      dup6\n        /* \"#utility.yul\":10914:10915   */\n      dup2\n        /* \"#utility.yul\":10911:10924   */\n      lt\n        /* \"#utility.yul\":10892:11348   */\n      iszero\n      tag_448\n      jumpi\n        /* \"#utility.yul\":10988:10997   */\n      dup5\n        /* \"#utility.yul\":10982:10986   */\n      dup5\n        /* \"#utility.yul\":10978:10998   */\n      sub\n        /* \"#utility.yul\":10973:10976   */\n      dup10\n        /* \"#utility.yul\":10966:10999   */\n      mstore\n        /* \"#utility.yul\":11039:11045   */\n      dup2\n        /* \"#utility.yul\":11033:11046   */\n      mload\n        /* \"#utility.yul\":11067:11191   */\n      tag_449\n        /* \"#utility.yul\":11186:11190   */\n      dup6\n        /* \"#utility.yul\":11171:11184   */\n      dup3\n        /* \"#utility.yul\":11067:11191   */\n      tag_289\n      jump\t// in\n    tag_449:\n        /* \"#utility.yul\":11059:11191   */\n      swap5\n      pop\n        /* \"#utility.yul\":11214:11304   */\n      tag_450\n        /* \"#utility.yul\":11297:11303   */\n      dup4\n        /* \"#utility.yul\":11214:11304   */\n      tag_290\n      jump\t// in\n    tag_450:\n        /* \"#utility.yul\":11204:11304   */\n      swap3\n      pop\n        /* \"#utility.yul\":11333:11337   */\n      0x20\n        /* \"#utility.yul\":11328:11331   */\n      dup11\n        /* \"#utility.yul\":11324:11338   */\n      add\n        /* \"#utility.yul\":11317:11338   */\n      swap10\n      pop\n        /* \"#utility.yul\":10952:11348   */\n      pop\n        /* \"#utility.yul\":10939:10940   */\n      0x01\n        /* \"#utility.yul\":10936:10937   */\n      dup2\n        /* \"#utility.yul\":10932:10941   */\n      add\n        /* \"#utility.yul\":10927:10941   */\n      swap1\n      pop\n        /* \"#utility.yul\":10892:11348   */\n      jump(tag_446)\n    tag_448:\n        /* \"#utility.yul\":10896:10910   */\n      pop\n        /* \"#utility.yul\":11364:11368   */\n      dup3\n        /* \"#utility.yul\":11357:11368   */\n      swap8\n      pop\n        /* \"#utility.yul\":11384:11387   */\n      dup8\n        /* \"#utility.yul\":11377:11387   */\n      swap6\n      pop\n        /* \"#utility.yul\":10426:11393   */\n      pop\n      pop\n      pop\n      pop\n      pop\n        /* \"#utility.yul\":10242:11393   */\n      swap3\n      swap2\n      pop\n      pop\n      jump\t// out\n        /* \"#utility.yul\":11399:11892   */\n    tag_34:\n        /* \"#utility.yul\":11602:11606   */\n      0x00\n        /* \"#utility.yul\":11640:11642   */\n      0x20\n        /* \"#utility.yul\":11629:11638   */\n      dup3\n        /* \"#utility.yul\":11625:11643   */\n      add\n        /* \"#utility.yul\":11617:11643   */\n      swap1\n      pop\n        /* \"#utility.yul\":11689:11698   */\n      dup2\n        /* \"#utility.yul\":11683:11687   */\n      dup2\n        /* \"#utility.yul\":11679:11699   */\n      sub\n        /* \"#utility.yul\":11675:11676   */\n      0x00\n        /* \"#utility.yul\":11664:11673   */\n      dup4\n        /* \"#utility.yul\":11660:11677   */\n      add\n        /* \"#utility.yul\":11653:11700   */\n      mstore\n        /* \"#utility.yul\":11717:11885   */\n      tag_452\n        /* \"#utility.yul\":11880:11884   */\n      dup2\n        /* \"#utility.yul\":11871:11877   */\n      dup5\n        /* \"#utility.yul\":11717:11885   */\n      tag_291\n      jump\t// in\n    tag_452:\n        /* \"#utility.yul\":11709:11885   */\n      swap1\n      pop\n        /* \"#utility.yul\":11399:11892   */\n      swap3\n      swap2\n      pop\n      pop\n      jump\t// out\n        /* \"#utility.yul\":11898:12067   */\n    tag_292:\n        /* \"#utility.yul\":11982:11993   */\n      0x00\n        /* \"#utility.yul\":12016:12022   */\n      dup3\n        /* \"#utility.yul\":12011:12014   */\n      dup3\n        /* \"#utility.yul\":12004:12023   */\n      mstore\n        /* \"#utility.yul\":12056:12060   */\n      0x20\n        /* \"#utility.yul\":12051:12054   */\n      dup3\n        /* \"#utility.yul\":12047:12061   */\n      add\n        /* \"#utility.yul\":12032:12061   */\n      swap1\n      pop\n        /* \"#utility.yul\":11898:12067   */\n      swap3\n      swap2\n      pop\n      pop\n      jump\t// out\n        /* \"#utility.yul\":12073:12450   */\n    tag_293:\n        /* \"#utility.yul\":12161:12164   */\n      0x00\n        /* \"#utility.yul\":12189:12228   */\n      tag_455\n        /* \"#utility.yul\":12222:12227   */\n      dup3\n        /* \"#utility.yul\":12189:12228   */\n      tag_284\n      jump\t// in\n    tag_455:\n        /* \"#utility.yul\":12244:12315   */\n      tag_456\n        /* \"#utility.yul\":12308:12314   */\n      dup2\n        /* \"#utility.yul\":12303:12306   */\n      dup6\n        /* \"#utility.yul\":12244:12315   */\n      tag_292\n      jump\t// in\n    tag_456:\n        /* \"#utility.yul\":12237:12315   */\n      swap4\n      pop\n        /* \"#utility.yul\":12324:12389   */\n      tag_457\n        /* \"#utility.yul\":12382:12388   */\n      dup2\n        /* \"#utility.yul\":12377:12380   */\n      dup6\n        /* \"#utility.yul\":12370:12374   */\n      0x20\n        /* \"#utility.yul\":12363:12368   */\n      dup7\n        /* \"#utility.yul\":12359:12375   */\n      add\n        /* \"#utility.yul\":12324:12389   */\n      tag_276\n      jump\t// in\n    tag_457:\n        /* \"#utility.yul\":12414:12443   */\n      tag_458\n        /* \"#utility.yul\":12436:12442   */\n      dup2\n        /* \"#utility.yul\":12414:12443   */\n      tag_277\n      jump\t// in\n    tag_458:\n        /* \"#utility.yul\":12409:12412   */\n      dup5\n        /* \"#utility.yul\":12405:12444   */\n      add\n        /* \"#utility.yul\":12398:12444   */\n      swap2\n      pop\n        /* \"#utility.yul\":12165:12450   */\n      pop\n        /* \"#utility.yul\":12073:12450   */\n      swap3\n      swap2\n      pop\n      pop\n      jump\t// out\n        /* \"#utility.yul\":12456:12574   */\n    tag_294:\n        /* \"#utility.yul\":12543:12567   */\n      tag_460\n        /* \"#utility.yul\":12561:12566   */\n      dup2\n        /* \"#utility.yul\":12543:12567   */\n      tag_257\n      jump\t// in\n    tag_460:\n        /* \"#utility.yul\":12538:12541   */\n      dup3\n        /* \"#utility.yul\":12531:12568   */\n      mstore\n        /* \"#utility.yul\":12456:12574   */\n      pop\n      pop\n      jump\t// out\n        /* \"#utility.yul\":12580:13739   */\n    tag_39:\n        /* \"#utility.yul\":12901:12905   */\n      0x00\n        /* \"#utility.yul\":12939:12942   */\n      0xe0\n        /* \"#utility.yul\":12928:12937   */\n      dup3\n        /* \"#utility.yul\":12924:12943   */\n      add\n        /* \"#utility.yul\":12916:12943   */\n      swap1\n      pop\n        /* \"#utility.yul\":12953:13024   */\n      tag_462\n        /* \"#utility.yul\":13021:13022   */\n      0x00\n        /* \"#utility.yul\":13010:13019   */\n      dup4\n        /* \"#utility.yul\":13006:13023   */\n      add\n        /* \"#utility.yul\":12997:13003   */\n      dup11\n        /* \"#utility.yul\":12953:13024   */\n      tag_271\n      jump\t// in\n    tag_462:\n        /* \"#utility.yul\":13071:13080   */\n      dup2\n        /* \"#utility.yul\":13065:13069   */\n      dup2\n        /* \"#utility.yul\":13061:13081   */\n      sub\n        /* \"#utility.yul\":13056:13058   */\n      0x20\n        /* \"#utility.yul\":13045:13054   */\n      dup4\n        /* \"#utility.yul\":13041:13059   */\n      add\n        /* \"#utility.yul\":13034:13082   */\n      mstore\n        /* \"#utility.yul\":13099:13177   */\n      tag_463\n        /* \"#utility.yul\":13172:13176   */\n      dup2\n        /* \"#utility.yul\":13163:13169   */\n      dup10\n        /* \"#utility.yul\":13099:13177   */\n      tag_293\n      jump\t// in\n    tag_463:\n        /* \"#utility.yul\":13091:13177   */\n      swap1\n      pop\n        /* \"#utility.yul\":13224:13233   */\n      dup2\n        /* \"#utility.yul\":13218:13222   */\n      dup2\n        /* \"#utility.yul\":13214:13234   */\n      sub\n        /* \"#utility.yul\":13209:13211   */\n      0x40\n        /* \"#utility.yul\":13198:13207   */\n      dup4\n        /* \"#utility.yul\":13194:13212   */\n      add\n        /* \"#utility.yul\":13187:13235   */\n      mstore\n        /* \"#utility.yul\":13252:13330   */\n      tag_464\n        /* \"#utility.yul\":13325:13329   */\n      dup2\n        /* \"#utility.yul\":13316:13322   */\n      dup9\n        /* \"#utility.yul\":13252:13330   */\n      tag_293\n      jump\t// in\n    tag_464:\n        /* \"#utility.yul\":13244:13330   */\n      swap1\n      pop\n        /* \"#utility.yul\":13340:13412   */\n      tag_465\n        /* \"#utility.yul\":13408:13410   */\n      0x60\n        /* \"#utility.yul\":13397:13406   */\n      dup4\n        /* \"#utility.yul\":13393:13411   */\n      add\n        /* \"#utility.yul\":13384:13390   */\n      dup8\n        /* \"#utility.yul\":13340:13412   */\n      tag_294\n      jump\t// in\n    tag_465:\n        /* \"#utility.yul\":13422:13495   */\n      tag_466\n        /* \"#utility.yul\":13490:13493   */\n      0x80\n        /* \"#utility.yul\":13479:13488   */\n      dup4\n        /* \"#utility.yul\":13475:13494   */\n      add\n        /* \"#utility.yul\":13466:13472   */\n      dup7\n        /* \"#utility.yul\":13422:13495   */\n      tag_294\n      jump\t// in\n    tag_466:\n        /* \"#utility.yul\":13505:13578   */\n      tag_467\n        /* \"#utility.yul\":13573:13576   */\n      0xa0\n        /* \"#utility.yul\":13562:13571   */\n      dup4\n        /* \"#utility.yul\":13558:13577   */\n      add\n        /* \"#utility.yul\":13549:13555   */\n      dup6\n        /* \"#utility.yul\":13505:13578   */\n      tag_294\n      jump\t// in\n    tag_467:\n        /* \"#utility.yul\":13626:13635   */\n      dup2\n        /* \"#utility.yul\":13620:13624   */\n      dup2\n        /* \"#utility.yul\":13616:13636   */\n      sub\n        /* \"#utility.yul\":13610:13613   */\n      0xc0\n        /* \"#utility.yul\":13599:13608   */\n      dup4\n        /* \"#utility.yul\":13595:13614   */\n      add\n        /* \"#utility.yul\":13588:13637   */\n      mstore\n        /* \"#utility.yul\":13654:13732   */\n      tag_468\n        /* \"#utility.yul\":13727:13731   */\n      dup2\n        /* \"#utility.yul\":13718:13724   */\n      dup5\n        /* \"#utility.yul\":13654:13732   */\n      tag_293\n      jump\t// in\n    tag_468:\n        /* \"#utility.yul\":13646:13732   */\n      swap1\n      pop\n        /* \"#utility.yul\":12580:13739   */\n      swap9\n      swap8\n      pop\n      pop\n      pop\n      pop\n      pop\n      pop\n      pop\n      pop\n      jump\t// out\n        /* \"#utility.yul\":13745:13894   */\n    tag_295:\n        /* \"#utility.yul\":13847:13853   */\n      0x00\n        /* \"#utility.yul\":13881:13886   */\n      dup2\n        /* \"#utility.yul\":13875:13887   */\n      mload\n        /* \"#utility.yul\":13865:13887   */\n      swap1\n      pop\n        /* \"#utility.yul\":13745:13894   */\n      swap2\n      swap1\n      pop\n      jump\t// out\n        /* \"#utility.yul\":13900:14119   */\n    tag_296:\n        /* \"#utility.yul\":14034:14045   */\n      0x00\n        /* \"#utility.yul\":14068:14074   */\n      dup3\n        /* \"#utility.yul\":14063:14066   */\n      dup3\n        /* \"#utility.yul\":14056:14075   */\n      mstore\n        /* \"#utility.yul\":14108:14112   */\n      0x20\n        /* \"#utility.yul\":14103:14106   */\n      dup3\n        /* \"#utility.yul\":14099:14113   */\n      add\n        /* \"#utility.yul\":14084:14113   */\n      swap1\n      pop\n        /* \"#utility.yul\":13900:14119   */\n      swap3\n      swap2\n      pop\n      pop\n      jump\t// out\n        /* \"#utility.yul\":14125:14292   */\n    tag_297:\n        /* \"#utility.yul\":14227:14231   */\n      0x00\n        /* \"#utility.yul\":14250:14253   */\n      dup2\n        /* \"#utility.yul\":14242:14253   */\n      swap1\n      pop\n        /* \"#utility.yul\":14280:14284   */\n      0x20\n        /* \"#utility.yul\":14275:14278   */\n      dup3\n        /* \"#utility.yul\":14271:14285   */\n      add\n        /* \"#utility.yul\":14263:14285   */\n      swap1\n      pop\n        /* \"#utility.yul\":14125:14292   */\n      swap2\n      swap1\n      pop\n      jump\t// out\n        /* \"#utility.yul\":14298:14406   */\n    tag_298:\n        /* \"#utility.yul\":14375:14399   */\n      tag_473\n        /* \"#utility.yul\":14393:14398   */\n      dup2\n        /* \"#utility.yul\":14375:14399   */\n      tag_272\n      jump\t// in\n    tag_473:\n        /* \"#utility.yul\":14370:14373   */\n      dup3\n        /* \"#utility.yul\":14363:14400   */\n      mstore\n        /* \"#utility.yul\":14298:14406   */\n      pop\n      pop\n      jump\t// out\n        /* \"#utility.yul\":14412:14570   */\n    tag_299:\n        /* \"#utility.yul\":14485:14496   */\n      0x00\n        /* \"#utility.yul\":14519:14525   */\n      dup3\n        /* \"#utility.yul\":14514:14517   */\n      dup3\n        /* \"#utility.yul\":14507:14526   */\n      mstore\n        /* \"#utility.yul\":14559:14563   */\n      0x20\n        /* \"#utility.yul\":14554:14557   */\n      dup3\n        /* \"#utility.yul\":14550:14564   */\n      add\n        /* \"#utility.yul\":14535:14564   */\n      swap1\n      pop\n        /* \"#utility.yul\":14412:14570   */\n      swap3\n      swap2\n      pop\n      pop\n      jump\t// out\n        /* \"#utility.yul\":14576:14929   */\n    tag_300:\n        /* \"#utility.yul\":14652:14655   */\n      0x00\n        /* \"#utility.yul\":14680:14718   */\n      tag_476\n        /* \"#utility.yul\":14712:14717   */\n      dup3\n        /* \"#utility.yul\":14680:14718   */\n      tag_274\n      jump\t// in\n    tag_476:\n        /* \"#utility.yul\":14734:14794   */\n      tag_477\n        /* \"#utility.yul\":14787:14793   */\n      dup2\n        /* \"#utility.yul\":14782:14785   */\n      dup6\n        /* \"#utility.yul\":14734:14794   */\n      tag_299\n      jump\t// in\n    tag_477:\n        /* \"#utility.yul\":14727:14794   */\n      swap4\n      pop\n        /* \"#utility.yul\":14803:14868   */\n      tag_478\n        /* \"#utility.yul\":14861:14867   */\n      dup2\n        /* \"#utility.yul\":14856:14859   */\n      dup6\n        /* \"#utility.yul\":14849:14853   */\n      0x20\n        /* \"#utility.yul\":14842:14847   */\n      dup7\n        /* \"#utility.yul\":14838:14854   */\n      add\n        /* \"#utility.yul\":14803:14868   */\n      tag_276\n      jump\t// in\n    tag_478:\n        /* \"#utility.yul\":14893:14922   */\n      tag_479\n        /* \"#utility.yul\":14915:14921   */\n      dup2\n        /* \"#utility.yul\":14893:14922   */\n      tag_277\n      jump\t// in\n    tag_479:\n        /* \"#utility.yul\":14888:14891   */\n      dup5\n        /* \"#utility.yul\":14884:14923   */\n      add\n        /* \"#utility.yul\":14877:14923   */\n      swap2\n      pop\n        /* \"#utility.yul\":14656:14929   */\n      pop\n        /* \"#utility.yul\":14576:14929   */\n      swap3\n      swap2\n      pop\n      pop\n      jump\t// out\n        /* \"#utility.yul\":14935:15034   */\n    tag_301:\n        /* \"#utility.yul\":15006:15027   */\n      tag_481\n        /* \"#utility.yul\":15021:15026   */\n      dup2\n        /* \"#utility.yul\":15006:15027   */\n      tag_279\n      jump\t// in\n    tag_481:\n        /* \"#utility.yul\":15001:15004   */\n      dup3\n        /* \"#utility.yul\":14994:15028   */\n      mstore\n        /* \"#utility.yul\":14935:15034   */\n      pop\n      pop\n      jump\t// out\n        /* \"#utility.yul\":15140:16113   */\n    tag_302:\n        /* \"#utility.yul\":15269:15272   */\n      0x00\n        /* \"#utility.yul\":15305:15309   */\n      0x80\n        /* \"#utility.yul\":15300:15303   */\n      dup4\n        /* \"#utility.yul\":15296:15310   */\n      add\n        /* \"#utility.yul\":15394:15398   */\n      0x00\n        /* \"#utility.yul\":15387:15392   */\n      dup4\n        /* \"#utility.yul\":15383:15399   */\n      add\n        /* \"#utility.yul\":15377:15400   */\n      mload\n        /* \"#utility.yul\":15413:15476   */\n      tag_483\n        /* \"#utility.yul\":15470:15474   */\n      0x00\n        /* \"#utility.yul\":15465:15468   */\n      dup7\n        /* \"#utility.yul\":15461:15475   */\n      add\n        /* \"#utility.yul\":15447:15459   */\n      dup3\n        /* \"#utility.yul\":15413:15476   */\n      tag_265\n      jump\t// in\n    tag_483:\n        /* \"#utility.yul\":15320:15486   */\n      pop\n        /* \"#utility.yul\":15575:15579   */\n      0x20\n        /* \"#utility.yul\":15568:15573   */\n      dup4\n        /* \"#utility.yul\":15564:15580   */\n      add\n        /* \"#utility.yul\":15558:15581   */\n      mload\n        /* \"#utility.yul\":15594:15657   */\n      tag_484\n        /* \"#utility.yul\":15651:15655   */\n      0x20\n        /* \"#utility.yul\":15646:15649   */\n      dup7\n        /* \"#utility.yul\":15642:15656   */\n      add\n        /* \"#utility.yul\":15628:15640   */\n      dup3\n        /* \"#utility.yul\":15594:15657   */\n      tag_298\n      jump\t// in\n    tag_484:\n        /* \"#utility.yul\":15496:15667   */\n      pop\n        /* \"#utility.yul\":15754:15758   */\n      0x40\n        /* \"#utility.yul\":15747:15752   */\n      dup4\n        /* \"#utility.yul\":15743:15759   */\n      add\n        /* \"#utility.yul\":15737:15760   */\n      mload\n        /* \"#utility.yul\":15807:15810   */\n      dup5\n        /* \"#utility.yul\":15801:15805   */\n      dup3\n        /* \"#utility.yul\":15797:15811   */\n      sub\n        /* \"#utility.yul\":15790:15794   */\n      0x40\n        /* \"#utility.yul\":15785:15788   */\n      dup7\n        /* \"#utility.yul\":15781:15795   */\n      add\n        /* \"#utility.yul\":15774:15812   */\n      mstore\n        /* \"#utility.yul\":15833:15904   */\n      tag_485\n        /* \"#utility.yul\":15899:15903   */\n      dup3\n        /* \"#utility.yul\":15885:15897   */\n      dup3\n        /* \"#utility.yul\":15833:15904   */\n      tag_300\n      jump\t// in\n    tag_485:\n        /* \"#utility.yul\":15825:15904   */\n      swap2\n      pop\n        /* \"#utility.yul\":15677:15915   */\n      pop\n        /* \"#utility.yul\":16000:16004   */\n      0x60\n        /* \"#utility.yul\":15993:15998   */\n      dup4\n        /* \"#utility.yul\":15989:16005   */\n      add\n        /* \"#utility.yul\":15983:16006   */\n      mload\n        /* \"#utility.yul\":16019:16076   */\n      tag_486\n        /* \"#utility.yul\":16070:16074   */\n      0x60\n        /* \"#utility.yul\":16065:16068   */\n      dup7\n        /* \"#utility.yul\":16061:16075   */\n      add\n        /* \"#utility.yul\":16047:16059   */\n      dup3\n        /* \"#utility.yul\":16019:16076   */\n      tag_301\n      jump\t// in\n    tag_486:\n        /* \"#utility.yul\":15925:16086   */\n      pop\n        /* \"#utility.yul\":16103:16107   */\n      dup1\n        /* \"#utility.yul\":16096:16107   */\n      swap2\n      pop\n        /* \"#utility.yul\":15274:16113   */\n      pop\n        /* \"#utility.yul\":15140:16113   */\n      swap3\n      swap2\n      pop\n      pop\n      jump\t// out\n        /* \"#utility.yul\":16119:16415   */\n    tag_303:\n        /* \"#utility.yul\":16258:16268   */\n      0x00\n        /* \"#utility.yul\":16293:16409   */\n      tag_488\n        /* \"#utility.yul\":16405:16408   */\n      dup4\n        /* \"#utility.yul\":16397:16403   */\n      dup4\n        /* \"#utility.yul\":16293:16409   */\n      tag_302\n      jump\t// in\n    tag_488:\n        /* \"#utility.yul\":16279:16409   */\n      swap1\n      pop\n        /* \"#utility.yul\":16119:16415   */\n      swap3\n      swap2\n      pop\n      pop\n      jump\t// out\n        /* \"#utility.yul\":16421:16569   */\n    tag_304:\n        /* \"#utility.yul\":16526:16530   */\n      0x00\n        /* \"#utility.yul\":16558:16562   */\n      0x20\n        /* \"#utility.yul\":16553:16556   */\n      dup3\n        /* \"#utility.yul\":16549:16563   */\n      add\n        /* \"#utility.yul\":16541:16563   */\n      swap1\n      pop\n        /* \"#utility.yul\":16421:16569   */\n      swap2\n      swap1\n      pop\n      jump\t// out\n        /* \"#utility.yul\":16679:17870   */\n    tag_305:\n        /* \"#utility.yul\":16868:16871   */\n      0x00\n        /* \"#utility.yul\":16897:16986   */\n      tag_491\n        /* \"#utility.yul\":16980:16985   */\n      dup3\n        /* \"#utility.yul\":16897:16986   */\n      tag_295\n      jump\t// in\n    tag_491:\n        /* \"#utility.yul\":17002:17123   */\n      tag_492\n        /* \"#utility.yul\":17116:17122   */\n      dup2\n        /* \"#utility.yul\":17111:17114   */\n      dup6\n        /* \"#utility.yul\":17002:17123   */\n      tag_296\n      jump\t// in\n    tag_492:\n        /* \"#utility.yul\":16995:17123   */\n      swap4\n      pop\n        /* \"#utility.yul\":17149:17152   */\n      dup4\n        /* \"#utility.yul\":17194:17198   */\n      0x20\n        /* \"#utility.yul\":17186:17192   */\n      dup3\n        /* \"#utility.yul\":17182:17199   */\n      mul\n        /* \"#utility.yul\":17177:17180   */\n      dup6\n        /* \"#utility.yul\":17173:17200   */\n      add\n        /* \"#utility.yul\":17224:17315   */\n      tag_493\n        /* \"#utility.yul\":17309:17314   */\n      dup6\n        /* \"#utility.yul\":17224:17315   */\n      tag_297\n      jump\t// in\n    tag_493:\n        /* \"#utility.yul\":17338:17345   */\n      dup1\n        /* \"#utility.yul\":17369:17370   */\n      0x00\n        /* \"#utility.yul\":17354:17825   */\n    tag_494:\n        /* \"#utility.yul\":17379:17385   */\n      dup6\n        /* \"#utility.yul\":17376:17377   */\n      dup2\n        /* \"#utility.yul\":17373:17386   */\n      lt\n        /* \"#utility.yul\":17354:17825   */\n      iszero\n      tag_496\n      jumpi\n        /* \"#utility.yul\":17450:17459   */\n      dup5\n        /* \"#utility.yul\":17444:17448   */\n      dup5\n        /* \"#utility.yul\":17440:17460   */\n      sub\n        /* \"#utility.yul\":17435:17438   */\n      dup10\n        /* \"#utility.yul\":17428:17461   */\n      mstore\n        /* \"#utility.yul\":17501:17507   */\n      dup2\n        /* \"#utility.yul\":17495:17508   */\n      mload\n        /* \"#utility.yul\":17529:17663   */\n      tag_497\n        /* \"#utility.yul\":17658:17662   */\n      dup6\n        /* \"#utility.yul\":17643:17656   */\n      dup3\n        /* \"#utility.yul\":17529:17663   */\n      tag_303\n      jump\t// in\n    tag_497:\n        /* \"#utility.yul\":17521:17663   */\n      swap5\n      pop\n        /* \"#utility.yul\":17686:17781   */\n      tag_498\n        /* \"#utility.yul\":17774:17780   */\n      dup4\n        /* \"#utility.yul\":17686:17781   */\n      tag_304\n      jump\t// in\n    tag_498:\n        /* \"#utility.yul\":17676:17781   */\n      swap3\n      pop\n        /* \"#utility.yul\":17810:17814   */\n      0x20\n        /* \"#utility.yul\":17805:17808   */\n      dup11\n        /* \"#utility.yul\":17801:17815   */\n      add\n        /* \"#utility.yul\":17794:17815   */\n      swap10\n      pop\n        /* \"#utility.yul\":17414:17825   */\n      pop\n        /* \"#utility.yul\":17401:17402   */\n      0x01\n        /* \"#utility.yul\":17398:17399   */\n      dup2\n        /* \"#utility.yul\":17394:17403   */\n      add\n        /* \"#utility.yul\":17389:17403   */\n      swap1\n      pop\n        /* \"#utility.yul\":17354:17825   */\n      jump(tag_494)\n    tag_496:\n        /* \"#utility.yul\":17358:17372   */\n      pop\n        /* \"#utility.yul\":17841:17845   */\n      dup3\n        /* \"#utility.yul\":17834:17845   */\n      swap8\n      pop\n        /* \"#utility.yul\":17861:17864   */\n      dup8\n        /* \"#utility.yul\":17854:17864   */\n      swap6\n      pop\n        /* \"#utility.yul\":16873:17870   */\n      pop\n      pop\n      pop\n      pop\n      pop\n        /* \"#utility.yul\":16679:17870   */\n      swap3\n      swap2\n      pop\n      pop\n      jump\t// out\n        /* \"#utility.yul\":17876:18389   */\n    tag_44:\n        /* \"#utility.yul\":18089:18093   */\n      0x00\n        /* \"#utility.yul\":18127:18129   */\n      0x20\n        /* \"#utility.yul\":18116:18125   */\n      dup3\n        /* \"#utility.yul\":18112:18130   */\n      add\n        /* \"#utility.yul\":18104:18130   */\n      swap1\n      pop\n        /* \"#utility.yul\":18176:18185   */\n      dup2\n        /* \"#utility.yul\":18170:18174   */\n      dup2\n        /* \"#utility.yul\":18166:18186   */\n      sub\n        /* \"#utility.yul\":18162:18163   */\n      0x00\n        /* \"#utility.yul\":18151:18160   */\n      dup4\n        /* \"#utility.yul\":18147:18164   */\n      add\n        /* \"#utility.yul\":18140:18187   */\n      mstore\n        /* \"#utility.yul\":18204:18382   */\n      tag_500\n        /* \"#utility.yul\":18377:18381   */\n      dup2\n        /* \"#utility.yul\":18368:18374   */\n      dup5\n        /* \"#utility.yul\":18204:18382   */\n      tag_305\n      jump\t// in\n    tag_500:\n        /* \"#utility.yul\":18196:18382   */\n      swap1\n      pop\n        /* \"#utility.yul\":17876:18389   */\n      swap3\n      swap2\n      pop\n      pop\n      jump\t// out\n        /* \"#utility.yul\":18395:18512   */\n    tag_306:\n        /* \"#utility.yul\":18504:18505   */\n      0x00\n        /* \"#utility.yul\":18501:18502   */\n      dup1\n        /* \"#utility.yul\":18494:18506   */\n      revert\n        /* \"#utility.yul\":18518:18635   */\n    tag_307:\n        /* \"#utility.yul\":18627:18628   */\n      0x00\n        /* \"#utility.yul\":18624:18625   */\n      dup1\n        /* \"#utility.yul\":18617:18629   */\n      revert\n        /* \"#utility.yul\":18641:18821   */\n    tag_69:\n        /* \"#utility.yul\":18689:18766   */\n      0x4e487b7100000000000000000000000000000000000000000000000000000000\n        /* \"#utility.yul\":18686:18687   */\n      0x00\n        /* \"#utility.yul\":18679:18767   */\n      mstore\n        /* \"#utility.yul\":18786:18790   */\n      0x41\n        /* \"#utility.yul\":18783:18784   */\n      0x04\n        /* \"#utility.yul\":18776:18791   */\n      mstore\n        /* \"#utility.yul\":18810:18814   */\n      0x24\n        /* \"#utility.yul\":18807:18808   */\n      0x00\n        /* \"#utility.yul\":18800:18815   */\n      revert\n        /* \"#utility.yul\":18827:19108   */\n    tag_308:\n        /* \"#utility.yul\":18910:18937   */\n      tag_505\n        /* \"#utility.yul\":18932:18936   */\n      dup3\n        /* \"#utility.yul\":18910:18937   */\n      tag_277\n      jump\t// in\n    tag_505:\n        /* \"#utility.yul\":18902:18908   */\n      dup2\n        /* \"#utility.yul\":18898:18938   */\n      add\n        /* \"#utility.yul\":19040:19046   */\n      dup2\n        /* \"#utility.yul\":19028:19038   */\n      dup2\n        /* \"#utility.yul\":19025:19047   */\n      lt\n        /* \"#utility.yul\":19004:19022   */\n      0xffffffffffffffff\n        /* \"#utility.yul\":18992:19002   */\n      dup3\n        /* \"#utility.yul\":18989:19023   */\n      gt\n        /* \"#utility.yul\":18986:19048   */\n      or\n        /* \"#utility.yul\":18983:19071   */\n      iszero\n      tag_506\n      jumpi\n        /* \"#utility.yul\":19051:19069   */\n      tag_507\n      tag_69\n      jump\t// in\n    tag_507:\n        /* \"#utility.yul\":18983:19071   */\n    tag_506:\n        /* \"#utility.yul\":19091:19101   */\n      dup1\n        /* \"#utility.yul\":19087:19089   */\n      0x40\n        /* \"#utility.yul\":19080:19102   */\n      mstore\n        /* \"#utility.yul\":18870:19108   */\n      pop\n        /* \"#utility.yul\":18827:19108   */\n      pop\n      pop\n      jump\t// out\n        /* \"#utility.yul\":19114:19243   */\n    tag_309:\n        /* \"#utility.yul\":19148:19154   */\n      0x00\n        /* \"#utility.yul\":19175:19195   */\n      tag_509\n      tag_254\n      jump\t// in\n    tag_509:\n        /* \"#utility.yul\":19165:19195   */\n      swap1\n      pop\n        /* \"#utility.yul\":19204:19237   */\n      tag_510\n        /* \"#utility.yul\":19232:19236   */\n      dup3\n        /* \"#utility.yul\":19224:19230   */\n      dup3\n        /* \"#utility.yul\":19204:19237   */\n      tag_308\n      jump\t// in\n    tag_510:\n        /* \"#utility.yul\":19114:19243   */\n      swap2\n      swap1\n      pop\n      jump\t// out\n        /* \"#utility.yul\":19249:19556   */\n    tag_310:\n        /* \"#utility.yul\":19310:19314   */\n      0x00\n        /* \"#utility.yul\":19400:19418   */\n      0xffffffffffffffff\n        /* \"#utility.yul\":19392:19398   */\n      dup3\n        /* \"#utility.yul\":19389:19419   */\n      gt\n        /* \"#utility.yul\":19386:19442   */\n      iszero\n      tag_512\n      jumpi\n        /* \"#utility.yul\":19422:19440   */\n      tag_513\n      tag_69\n      jump\t// in\n    tag_513:\n        /* \"#utility.yul\":19386:19442   */\n    tag_512:\n        /* \"#utility.yul\":19460:19489   */\n      tag_514\n        /* \"#utility.yul\":19482:19488   */\n      dup3\n        /* \"#utility.yul\":19460:19489   */\n      tag_277\n      jump\t// in\n    tag_514:\n        /* \"#utility.yul\":19452:19489   */\n      swap1\n      pop\n        /* \"#utility.yul\":19544:19548   */\n      0x20\n        /* \"#utility.yul\":19538:19542   */\n      dup2\n        /* \"#utility.yul\":19534:19549   */\n      add\n        /* \"#utility.yul\":19526:19549   */\n      swap1\n      pop\n        /* \"#utility.yul\":19249:19556   */\n      swap2\n      swap1\n      pop\n      jump\t// out\n        /* \"#utility.yul\":19562:19708   */\n    tag_311:\n        /* \"#utility.yul\":19659:19665   */\n      dup3\n        /* \"#utility.yul\":19654:19657   */\n      dup2\n        /* \"#utility.yul\":19649:19652   */\n      dup4\n        /* \"#utility.yul\":19636:19666   */\n      calldatacopy\n        /* \"#utility.yul\":19700:19701   */\n      0x00\n        /* \"#utility.yul\":19691:19697   */\n      dup4\n        /* \"#utility.yul\":19686:19689   */\n      dup4\n        /* \"#utility.yul\":19682:19698   */\n      add\n        /* \"#utility.yul\":19675:19702   */\n      mstore\n        /* \"#utility.yul\":19562:19708   */\n      pop\n      pop\n      pop\n      jump\t// out\n        /* \"#utility.yul\":19714:20137   */\n    tag_312:\n        /* \"#utility.yul\":19791:19796   */\n      0x00\n        /* \"#utility.yul\":19816:19881   */\n      tag_517\n        /* \"#utility.yul\":19832:19880   */\n      tag_518\n        /* \"#utility.yul\":19873:19879   */\n      dup5\n        /* \"#utility.yul\":19832:19880   */\n      tag_310\n      jump\t// in\n    tag_518:\n        /* \"#utility.yul\":19816:19881   */\n      tag_309\n      jump\t// in\n    tag_517:\n        /* \"#utility.yul\":19807:19881   */\n      swap1\n      pop\n        /* \"#utility.yul\":19904:19910   */\n      dup3\n        /* \"#utility.yul\":19897:19902   */\n      dup2\n        /* \"#utility.yul\":19890:19911   */\n      mstore\n        /* \"#utility.yul\":19942:19946   */\n      0x20\n        /* \"#utility.yul\":19935:19940   */\n      dup2\n        /* \"#utility.yul\":19931:19947   */\n      add\n        /* \"#utility.yul\":19980:19983   */\n      dup5\n        /* \"#utility.yul\":19971:19977   */\n      dup5\n        /* \"#utility.yul\":19966:19969   */\n      dup5\n        /* \"#utility.yul\":19962:19978   */\n      add\n        /* \"#utility.yul\":19959:19984   */\n      gt\n        /* \"#utility.yul\":19956:20068   */\n      iszero\n      tag_519\n      jumpi\n        /* \"#utility.yul\":19987:20066   */\n      tag_520\n      tag_307\n      jump\t// in\n    tag_520:\n        /* \"#utility.yul\":19956:20068   */\n    tag_519:\n        /* \"#utility.yul\":20077:20131   */\n      tag_521\n        /* \"#utility.yul\":20124:20130   */\n      dup5\n        /* \"#utility.yul\":20119:20122   */\n      dup3\n        /* \"#utility.yul\":20114:20117   */\n      dup6\n        /* \"#utility.yul\":20077:20131   */\n      tag_311\n      jump\t// in\n    tag_521:\n        /* \"#utility.yul\":19797:20137   */\n      pop\n        /* \"#utility.yul\":19714:20137   */\n      swap4\n      swap3\n      pop\n      pop\n      pop\n      jump\t// out\n        /* \"#utility.yul\":20156:20494   */\n    tag_313:\n        /* \"#utility.yul\":20211:20216   */\n      0x00\n        /* \"#utility.yul\":20260:20263   */\n      dup3\n        /* \"#utility.yul\":20253:20257   */\n      0x1f\n        /* \"#utility.yul\":20245:20251   */\n      dup4\n        /* \"#utility.yul\":20241:20258   */\n      add\n        /* \"#utility.yul\":20237:20264   */\n      slt\n        /* \"#utility.yul\":20227:20349   */\n      tag_523\n      jumpi\n        /* \"#utility.yul\":20268:20347   */\n      tag_524\n      tag_306\n      jump\t// in\n    tag_524:\n        /* \"#utility.yul\":20227:20349   */\n    tag_523:\n        /* \"#utility.yul\":20385:20391   */\n      dup2\n        /* \"#utility.yul\":20372:20392   */\n      calldataload\n        /* \"#utility.yul\":20410:20488   */\n      tag_525\n        /* \"#utility.yul\":20484:20487   */\n      dup5\n        /* \"#utility.yul\":20476:20482   */\n      dup3\n        /* \"#utility.yul\":20469:20473   */\n      0x20\n        /* \"#utility.yul\":20461:20467   */\n      dup7\n        /* \"#utility.yul\":20457:20474   */\n      add\n        /* \"#utility.yul\":20410:20488   */\n      tag_312\n      jump\t// in\n    tag_525:\n        /* \"#utility.yul\":20401:20488   */\n      swap2\n      pop\n        /* \"#utility.yul\":20217:20494   */\n      pop\n        /* \"#utility.yul\":20156:20494   */\n      swap3\n      swap2\n      pop\n      pop\n      jump\t// out\n        /* \"#utility.yul\":20500:20622   */\n    tag_314:\n        /* \"#utility.yul\":20573:20597   */\n      tag_527\n        /* \"#utility.yul\":20591:20596   */\n      dup2\n        /* \"#utility.yul\":20573:20597   */\n      tag_272\n      jump\t// in\n    tag_527:\n        /* \"#utility.yul\":20566:20571   */\n      dup2\n        /* \"#utility.yul\":20563:20598   */\n      eq\n        /* \"#utility.yul\":20553:20616   */\n      tag_528\n      jumpi\n        /* \"#utility.yul\":20612:20613   */\n      0x00\n        /* \"#utility.yul\":20609:20610   */\n      dup1\n        /* \"#utility.yul\":20602:20614   */\n      revert\n        /* \"#utility.yul\":20553:20616   */\n    tag_528:\n        /* \"#utility.yul\":20500:20622   */\n      pop\n      jump\t// out\n        /* \"#utility.yul\":20628:20767   */\n    tag_315:\n        /* \"#utility.yul\":20674:20679   */\n      0x00\n        /* \"#utility.yul\":20712:20718   */\n      dup2\n        /* \"#utility.yul\":20699:20719   */\n      calldataload\n        /* \"#utility.yul\":20690:20719   */\n      swap1\n      pop\n        /* \"#utility.yul\":20728:20761   */\n      tag_530\n        /* \"#utility.yul\":20755:20760   */\n      dup2\n        /* \"#utility.yul\":20728:20761   */\n      tag_314\n      jump\t// in\n    tag_530:\n        /* \"#utility.yul\":20628:20767   */\n      swap3\n      swap2\n      pop\n      pop\n      jump\t// out\n        /* \"#utility.yul\":20773:21570   */\n    tag_53:\n        /* \"#utility.yul\":20859:20865   */\n      0x00\n        /* \"#utility.yul\":20867:20873   */\n      dup1\n        /* \"#utility.yul\":20875:20881   */\n      0x00\n        /* \"#utility.yul\":20924:20926   */\n      0x60\n        /* \"#utility.yul\":20912:20921   */\n      dup5\n        /* \"#utility.yul\":20903:20910   */\n      dup7\n        /* \"#utility.yul\":20899:20922   */\n      sub\n        /* \"#utility.yul\":20895:20927   */\n      slt\n        /* \"#utility.yul\":20892:21011   */\n      iszero\n      tag_532\n      jumpi\n        /* \"#utility.yul\":20930:21009   */\n      tag_533\n      tag_255\n      jump\t// in\n    tag_533:\n        /* \"#utility.yul\":20892:21011   */\n    tag_532:\n        /* \"#utility.yul\":21050:21051   */\n      0x00\n        /* \"#utility.yul\":21075:21128   */\n      tag_534\n        /* \"#utility.yul\":21120:21127   */\n      dup7\n        /* \"#utility.yul\":21111:21117   */\n      dup3\n        /* \"#utility.yul\":21100:21109   */\n      dup8\n        /* \"#utility.yul\":21096:21118   */\n      add\n        /* \"#utility.yul\":21075:21128   */\n      tag_259\n      jump\t// in\n    tag_534:\n        /* \"#utility.yul\":21065:21128   */\n      swap4\n      pop\n        /* \"#utility.yul\":21021:21138   */\n      pop\n        /* \"#utility.yul\":21205:21207   */\n      0x20\n        /* \"#utility.yul\":21194:21203   */\n      dup5\n        /* \"#utility.yul\":21190:21208   */\n      add\n        /* \"#utility.yul\":21177:21209   */\n      calldataload\n        /* \"#utility.yul\":21236:21254   */\n      0xffffffffffffffff\n        /* \"#utility.yul\":21228:21234   */\n      dup2\n        /* \"#utility.yul\":21225:21255   */\n      gt\n        /* \"#utility.yul\":21222:21339   */\n      iszero\n      tag_535\n      jumpi\n        /* \"#utility.yul\":21258:21337   */\n      tag_536\n      tag_256\n      jump\t// in\n    tag_536:\n        /* \"#utility.yul\":21222:21339   */\n    tag_535:\n        /* \"#utility.yul\":21363:21425   */\n      tag_537\n        /* \"#utility.yul\":21417:21424   */\n      dup7\n        /* \"#utility.yul\":21408:21414   */\n      dup3\n        /* \"#utility.yul\":21397:21406   */\n      dup8\n        /* \"#utility.yul\":21393:21415   */\n      add\n        /* \"#utility.yul\":21363:21425   */\n      tag_313\n      jump\t// in\n    tag_537:\n        /* \"#utility.yul\":21353:21425   */\n      swap3\n      pop\n        /* \"#utility.yul\":21148:21435   */\n      pop\n        /* \"#utility.yul\":21474:21476   */\n      0x40\n        /* \"#utility.yul\":21500:21553   */\n      tag_538\n        /* \"#utility.yul\":21545:21552   */\n      dup7\n        /* \"#utility.yul\":21536:21542   */\n      dup3\n        /* \"#utility.yul\":21525:21534   */\n      dup8\n        /* \"#utility.yul\":21521:21543   */\n      add\n        /* \"#utility.yul\":21500:21553   */\n      tag_315\n      jump\t// in\n    tag_538:\n        /* \"#utility.yul\":21490:21553   */\n      swap2\n      pop\n        /* \"#utility.yul\":21445:21563   */\n      pop\n        /* \"#utility.yul\":20773:21570   */\n      swap3\n      pop\n      swap3\n      pop\n      swap3\n      jump\t// out\n        /* \"#utility.yul\":21576:21798   */\n    tag_58:\n        /* \"#utility.yul\":21669:21673   */\n      0x00\n        /* \"#utility.yul\":21707:21709   */\n      0x20\n        /* \"#utility.yul\":21696:21705   */\n      dup3\n        /* \"#utility.yul\":21692:21710   */\n      add\n        /* \"#utility.yul\":21684:21710   */\n      swap1\n      pop\n        /* \"#utility.yul\":21720:21791   */\n      tag_540\n        /* \"#utility.yul\":21788:21789   */\n      0x00\n        /* \"#utility.yul\":21777:21786   */\n      dup4\n        /* \"#utility.yul\":21773:21790   */\n      add\n        /* \"#utility.yul\":21764:21770   */\n      dup5\n        /* \"#utility.yul\":21720:21791   */\n      tag_294\n      jump\t// in\n    tag_540:\n        /* \"#utility.yul\":21576:21798   */\n      swap3\n      swap2\n      pop\n      pop\n      jump\t// out\n        /* \"#utility.yul\":21804:22112   */\n    tag_316:\n        /* \"#utility.yul\":21866:21870   */\n      0x00\n        /* \"#utility.yul\":21956:21974   */\n      0xffffffffffffffff\n        /* \"#utility.yul\":21948:21954   */\n      dup3\n        /* \"#utility.yul\":21945:21975   */\n      gt\n        /* \"#utility.yul\":21942:21998   */\n      iszero\n      tag_542\n      jumpi\n        /* \"#utility.yul\":21978:21996   */\n      tag_543\n      tag_69\n      jump\t// in\n    tag_543:\n        /* \"#utility.yul\":21942:21998   */\n    tag_542:\n        /* \"#utility.yul\":22016:22045   */\n      tag_544\n        /* \"#utility.yul\":22038:22044   */\n      dup3\n        /* \"#utility.yul\":22016:22045   */\n      tag_277\n      jump\t// in\n    tag_544:\n        /* \"#utility.yul\":22008:22045   */\n      swap1\n      pop\n        /* \"#utility.yul\":22100:22104   */\n      0x20\n        /* \"#utility.yul\":22094:22098   */\n      dup2\n        /* \"#utility.yul\":22090:22105   */\n      add\n        /* \"#utility.yul\":22082:22105   */\n      swap1\n      pop\n        /* \"#utility.yul\":21804:22112   */\n      swap2\n      swap1\n      pop\n      jump\t// out\n        /* \"#utility.yul\":22118:22543   */\n    tag_317:\n        /* \"#utility.yul\":22196:22201   */\n      0x00\n        /* \"#utility.yul\":22221:22287   */\n      tag_546\n        /* \"#utility.yul\":22237:22286   */\n      tag_547\n        /* \"#utility.yul\":22279:22285   */\n      dup5\n        /* \"#utility.yul\":22237:22286   */\n      tag_316\n      jump\t// in\n    tag_547:\n        /* \"#utility.yul\":22221:22287   */\n      tag_309\n      jump\t// in\n    tag_546:\n        /* \"#utility.yul\":22212:22287   */\n      swap1\n      pop\n        /* \"#utility.yul\":22310:22316   */\n      dup3\n        /* \"#utility.yul\":22303:22308   */\n      dup2\n        /* \"#utility.yul\":22296:22317   */\n      mstore\n        /* \"#utility.yul\":22348:22352   */\n      0x20\n        /* \"#utility.yul\":22341:22346   */\n      dup2\n        /* \"#utility.yul\":22337:22353   */\n      add\n        /* \"#utility.yul\":22386:22389   */\n      dup5\n        /* \"#utility.yul\":22377:22383   */\n      dup5\n        /* \"#utility.yul\":22372:22375   */\n      dup5\n        /* \"#utility.yul\":22368:22384   */\n      add\n        /* \"#utility.yul\":22365:22390   */\n      gt\n        /* \"#utility.yul\":22362:22474   */\n      iszero\n      tag_548\n      jumpi\n        /* \"#utility.yul\":22393:22472   */\n      tag_549\n      tag_307\n      jump\t// in\n    tag_549:\n        /* \"#utility.yul\":22362:22474   */\n    tag_548:\n        /* \"#utility.yul\":22483:22537   */\n      tag_550\n        /* \"#utility.yul\":22530:22536   */\n      dup5\n        /* \"#utility.yul\":22525:22528   */\n      dup3\n        /* \"#utility.yul\":22520:22523   */\n      dup6\n        /* \"#utility.yul\":22483:22537   */\n      tag_311\n      jump\t// in\n    tag_550:\n        /* \"#utility.yul\":22202:22543   */\n      pop\n        /* \"#utility.yul\":22118:22543   */\n      swap4\n      swap3\n      pop\n      pop\n      pop\n      jump\t// out\n        /* \"#utility.yul\":22563:22903   */\n    tag_318:\n        /* \"#utility.yul\":22619:22624   */\n      0x00\n        /* \"#utility.yul\":22668:22671   */\n      dup3\n        /* \"#utility.yul\":22661:22665   */\n      0x1f\n        /* \"#utility.yul\":22653:22659   */\n      dup4\n        /* \"#utility.yul\":22649:22666   */\n      add\n        /* \"#utility.yul\":22645:22672   */\n      slt\n        /* \"#utility.yul\":22635:22757   */\n      tag_552\n      jumpi\n        /* \"#utility.yul\":22676:22755   */\n      tag_553\n      tag_306\n      jump\t// in\n    tag_553:\n        /* \"#utility.yul\":22635:22757   */\n    tag_552:\n        /* \"#utility.yul\":22793:22799   */\n      dup2\n        /* \"#utility.yul\":22780:22800   */\n      calldataload\n        /* \"#utility.yul\":22818:22897   */\n      tag_554\n        /* \"#utility.yul\":22893:22896   */\n      dup5\n        /* \"#utility.yul\":22885:22891   */\n      dup3\n        /* \"#utility.yul\":22878:22882   */\n      0x20\n        /* \"#utility.yul\":22870:22876   */\n      dup7\n        /* \"#utility.yul\":22866:22883   */\n      add\n        /* \"#utility.yul\":22818:22897   */\n      tag_317\n      jump\t// in\n    tag_554:\n        /* \"#utility.yul\":22809:22897   */\n      swap2\n      pop\n        /* \"#utility.yul\":22625:22903   */\n      pop\n        /* \"#utility.yul\":22563:22903   */\n      swap3\n      swap2\n      pop\n      pop\n      jump\t// out\n        /* \"#utility.yul\":22909:24976   */\n    tag_61:\n        /* \"#utility.yul\":23070:23076   */\n      0x00\n        /* \"#utility.yul\":23078:23084   */\n      dup1\n        /* \"#utility.yul\":23086:23092   */\n      0x00\n        /* \"#utility.yul\":23094:23100   */\n      dup1\n        /* \"#utility.yul\":23102:23108   */\n      0x00\n        /* \"#utility.yul\":23110:23116   */\n      dup1\n        /* \"#utility.yul\":23118:23124   */\n      0x00\n        /* \"#utility.yul\":23126:23132   */\n      dup1\n        /* \"#utility.yul\":23175:23178   */\n      0x0100\n        /* \"#utility.yul\":23163:23172   */\n      dup10\n        /* \"#utility.yul\":23154:23161   */\n      dup12\n        /* \"#utility.yul\":23150:23173   */\n      sub\n        /* \"#utility.yul\":23146:23179   */\n      slt\n        /* \"#utility.yul\":23143:23263   */\n      iszero\n      tag_556\n      jumpi\n        /* \"#utility.yul\":23182:23261   */\n      tag_557\n      tag_255\n      jump\t// in\n    tag_557:\n        /* \"#utility.yul\":23143:23263   */\n    tag_556:\n        /* \"#utility.yul\":23330:23331   */\n      0x00\n        /* \"#utility.yul\":23319:23328   */\n      dup10\n        /* \"#utility.yul\":23315:23332   */\n      add\n        /* \"#utility.yul\":23302:23333   */\n      calldataload\n        /* \"#utility.yul\":23360:23378   */\n      0xffffffffffffffff\n        /* \"#utility.yul\":23352:23358   */\n      dup2\n        /* \"#utility.yul\":23349:23379   */\n      gt\n        /* \"#utility.yul\":23346:23463   */\n      iszero\n      tag_558\n      jumpi\n        /* \"#utility.yul\":23382:23461   */\n      tag_559\n      tag_256\n      jump\t// in\n    tag_559:\n        /* \"#utility.yul\":23346:23463   */\n    tag_558:\n        /* \"#utility.yul\":23487:23550   */\n      tag_560\n        /* \"#utility.yul\":23542:23549   */\n      dup12\n        /* \"#utility.yul\":23533:23539   */\n      dup3\n        /* \"#utility.yul\":23522:23531   */\n      dup13\n        /* \"#utility.yul\":23518:23540   */\n      add\n        /* \"#utility.yul\":23487:23550   */\n      tag_318\n      jump\t// in\n    tag_560:\n        /* \"#utility.yul\":23477:23550   */\n      swap9\n      pop\n        /* \"#utility.yul\":23273:23560   */\n      pop\n        /* \"#utility.yul\":23627:23629   */\n      0x20\n        /* \"#utility.yul\":23616:23625   */\n      dup10\n        /* \"#utility.yul\":23612:23630   */\n      add\n        /* \"#utility.yul\":23599:23631   */\n      calldataload\n        /* \"#utility.yul\":23658:23676   */\n      0xffffffffffffffff\n        /* \"#utility.yul\":23650:23656   */\n      dup2\n        /* \"#utility.yul\":23647:23677   */\n      gt\n        /* \"#utility.yul\":23644:23761   */\n      iszero\n      tag_561\n      jumpi\n        /* \"#utility.yul\":23680:23759   */\n      tag_562\n      tag_256\n      jump\t// in\n    tag_562:\n        /* \"#utility.yul\":23644:23761   */\n    tag_561:\n        /* \"#utility.yul\":23785:23848   */\n      tag_563\n        /* \"#utility.yul\":23840:23847   */\n      dup12\n        /* \"#utility.yul\":23831:23837   */\n      dup3\n        /* \"#utility.yul\":23820:23829   */\n      dup13\n        /* \"#utility.yul\":23816:23838   */\n      add\n        /* \"#utility.yul\":23785:23848   */\n      tag_318\n      jump\t// in\n    tag_563:\n        /* \"#utility.yul\":23775:23848   */\n      swap8\n      pop\n        /* \"#utility.yul\":23570:23858   */\n      pop\n        /* \"#utility.yul\":23897:23899   */\n      0x40\n        /* \"#utility.yul\":23923:23976   */\n      tag_564\n        /* \"#utility.yul\":23968:23975   */\n      dup12\n        /* \"#utility.yul\":23959:23965   */\n      dup3\n        /* \"#utility.yul\":23948:23957   */\n      dup13\n        /* \"#utility.yul\":23944:23966   */\n      add\n        /* \"#utility.yul\":23923:23976   */\n      tag_259\n      jump\t// in\n    tag_564:\n        /* \"#utility.yul\":23913:23976   */\n      swap7\n      pop\n        /* \"#utility.yul\":23868:23986   */\n      pop\n        /* \"#utility.yul\":24025:24027   */\n      0x60\n        /* \"#utility.yul\":24051:24104   */\n      tag_565\n        /* \"#utility.yul\":24096:24103   */\n      dup12\n        /* \"#utility.yul\":24087:24093   */\n      dup3\n        /* \"#utility.yul\":24076:24085   */\n      dup13\n        /* \"#utility.yul\":24072:24094   */\n      add\n        /* \"#utility.yul\":24051:24104   */\n      tag_259\n      jump\t// in\n    tag_565:\n        /* \"#utility.yul\":24041:24104   */\n      swap6\n      pop\n        /* \"#utility.yul\":23996:24114   */\n      pop\n        /* \"#utility.yul\":24153:24156   */\n      0x80\n        /* \"#utility.yul\":24180:24233   */\n      tag_566\n        /* \"#utility.yul\":24225:24232   */\n      dup12\n        /* \"#utility.yul\":24216:24222   */\n      dup3\n        /* \"#utility.yul\":24205:24214   */\n      dup13\n        /* \"#utility.yul\":24201:24223   */\n      add\n        /* \"#utility.yul\":24180:24233   */\n      tag_259\n      jump\t// in\n    tag_566:\n        /* \"#utility.yul\":24170:24233   */\n      swap5\n      pop\n        /* \"#utility.yul\":24124:24243   */\n      pop\n        /* \"#utility.yul\":24310:24313   */\n      0xa0\n        /* \"#utility.yul\":24299:24308   */\n      dup10\n        /* \"#utility.yul\":24295:24314   */\n      add\n        /* \"#utility.yul\":24282:24315   */\n      calldataload\n        /* \"#utility.yul\":24342:24360   */\n      0xffffffffffffffff\n        /* \"#utility.yul\":24334:24340   */\n      dup2\n        /* \"#utility.yul\":24331:24361   */\n      gt\n        /* \"#utility.yul\":24328:24445   */\n      iszero\n      tag_567\n      jumpi\n        /* \"#utility.yul\":24364:24443   */\n      tag_568\n      tag_256\n      jump\t// in\n    tag_568:\n        /* \"#utility.yul\":24328:24445   */\n    tag_567:\n        /* \"#utility.yul\":24469:24532   */\n      tag_569\n        /* \"#utility.yul\":24524:24531   */\n      dup12\n        /* \"#utility.yul\":24515:24521   */\n      dup3\n        /* \"#utility.yul\":24504:24513   */\n      dup13\n        /* \"#utility.yul\":24500:24522   */\n      add\n        /* \"#utility.yul\":24469:24532   */\n      tag_318\n      jump\t// in\n    tag_569:\n        /* \"#utility.yul\":24459:24532   */\n      swap4\n      pop\n        /* \"#utility.yul\":24253:24542   */\n      pop\n        /* \"#utility.yul\":24609:24612   */\n      0xc0\n        /* \"#utility.yul\":24598:24607   */\n      dup10\n        /* \"#utility.yul\":24594:24613   */\n      add\n        /* \"#utility.yul\":24581:24614   */\n      calldataload\n        /* \"#utility.yul\":24641:24659   */\n      0xffffffffffffffff\n        /* \"#utility.yul\":24633:24639   */\n      dup2\n        /* \"#utility.yul\":24630:24660   */\n      gt\n        /* \"#utility.yul\":24627:24744   */\n      iszero\n      tag_570\n      jumpi\n        /* \"#utility.yul\":24663:24742   */\n      tag_571\n      tag_256\n      jump\t// in\n    tag_571:\n        /* \"#utility.yul\":24627:24744   */\n    tag_570:\n        /* \"#utility.yul\":24768:24830   */\n      tag_572\n        /* \"#utility.yul\":24822:24829   */\n      dup12\n        /* \"#utility.yul\":24813:24819   */\n      dup3\n        /* \"#utility.yul\":24802:24811   */\n      dup13\n        /* \"#utility.yul\":24798:24820   */\n      add\n        /* \"#utility.yul\":24768:24830   */\n      tag_313\n      jump\t// in\n    tag_572:\n        /* \"#utility.yul\":24758:24830   */\n      swap3\n      pop\n        /* \"#utility.yul\":24552:24840   */\n      pop\n        /* \"#utility.yul\":24879:24882   */\n      0xe0\n        /* \"#utility.yul\":24906:24959   */\n      tag_573\n        /* \"#utility.yul\":24951:24958   */\n      dup12\n        /* \"#utility.yul\":24942:24948   */\n      dup3\n        /* \"#utility.yul\":24931:24940   */\n      dup13\n        /* \"#utility.yul\":24927:24949   */\n      add\n        /* \"#utility.yul\":24906:24959   */\n      tag_315\n      jump\t// in\n    tag_573:\n        /* \"#utility.yul\":24896:24959   */\n      swap2\n      pop\n        /* \"#utility.yul\":24850:24969   */\n      pop\n        /* \"#utility.yul\":22909:24976   */\n      swap3\n      swap6\n      swap9\n      pop\n      swap3\n      swap6\n      swap9\n      swap1\n      swap4\n      swap7\n      pop\n      jump\t// out\n        /* \"#utility.yul\":24982:25153   */\n    tag_319:\n        /* \"#utility.yul\":25122:25145   */\n      0x537570706c656d656e74206e6f7420666f756e642e0000000000000000000000\n        /* \"#utility.yul\":25118:25119   */\n      0x00\n        /* \"#utility.yul\":25110:25116   */\n      dup3\n        /* \"#utility.yul\":25106:25120   */\n      add\n        /* \"#utility.yul\":25099:25146   */\n      mstore\n        /* \"#utility.yul\":24982:25153   */\n      pop\n      jump\t// out\n        /* \"#utility.yul\":25159:25525   */\n    tag_320:\n        /* \"#utility.yul\":25301:25304   */\n      0x00\n        /* \"#utility.yul\":25322:25389   */\n      tag_576\n        /* \"#utility.yul\":25386:25388   */\n      0x15\n        /* \"#utility.yul\":25381:25384   */\n      dup4\n        /* \"#utility.yul\":25322:25389   */\n      tag_292\n      jump\t// in\n    tag_576:\n        /* \"#utility.yul\":25315:25389   */\n      swap2\n      pop\n        /* \"#utility.yul\":25398:25491   */\n      tag_577\n        /* \"#utility.yul\":25487:25490   */\n      dup3\n        /* \"#utility.yul\":25398:25491   */\n      tag_319\n      jump\t// in\n    tag_577:\n        /* \"#utility.yul\":25516:25518   */\n      0x20\n        /* \"#utility.yul\":25511:25514   */\n      dup3\n        /* \"#utility.yul\":25507:25519   */\n      add\n        /* \"#utility.yul\":25500:25519   */\n      swap1\n      pop\n        /* \"#utility.yul\":25159:25525   */\n      swap2\n      swap1\n      pop\n      jump\t// out\n        /* \"#utility.yul\":25531:25950   */\n    tag_66:\n        /* \"#utility.yul\":25697:25701   */\n      0x00\n        /* \"#utility.yul\":25735:25737   */\n      0x20\n        /* \"#utility.yul\":25724:25733   */\n      dup3\n        /* \"#utility.yul\":25720:25738   */\n      add\n        /* \"#utility.yul\":25712:25738   */\n      swap1\n      pop\n        /* \"#utility.yul\":25784:25793   */\n      dup2\n        /* \"#utility.yul\":25778:25782   */\n      dup2\n        /* \"#utility.yul\":25774:25794   */\n      sub\n        /* \"#utility.yul\":25770:25771   */\n      0x00\n        /* \"#utility.yul\":25759:25768   */\n      dup4\n        /* \"#utility.yul\":25755:25772   */\n      add\n        /* \"#utility.yul\":25748:25795   */\n      mstore\n        /* \"#utility.yul\":25812:25943   */\n      tag_579\n        /* \"#utility.yul\":25938:25942   */\n      dup2\n        /* \"#utility.yul\":25812:25943   */\n      tag_320\n      jump\t// in\n    tag_579:\n        /* \"#utility.yul\":25804:25943   */\n      swap1\n      pop\n        /* \"#utility.yul\":25531:25950   */\n      swap2\n      swap1\n      pop\n      jump\t// out\n        /* \"#utility.yul\":25956:26136   */\n    tag_76:\n        /* \"#utility.yul\":26004:26081   */\n      0x4e487b7100000000000000000000000000000000000000000000000000000000\n        /* \"#utility.yul\":26001:26002   */\n      0x00\n        /* \"#utility.yul\":25994:26082   */\n      mstore\n        /* \"#utility.yul\":26101:26105   */\n      0x32\n        /* \"#utility.yul\":26098:26099   */\n      0x04\n        /* \"#utility.yul\":26091:26106   */\n      mstore\n        /* \"#utility.yul\":26125:26129   */\n      0x24\n        /* \"#utility.yul\":26122:26123   */\n      0x00\n        /* \"#utility.yul\":26115:26130   */\n      revert\n        /* \"#utility.yul\":26142:26322   */\n    tag_321:\n        /* \"#utility.yul\":26190:26267   */\n      0x4e487b7100000000000000000000000000000000000000000000000000000000\n        /* \"#utility.yul\":26187:26188   */\n      0x00\n        /* \"#utility.yul\":26180:26268   */\n      mstore\n        /* \"#utility.yul\":26287:26291   */\n      0x11\n        /* \"#utility.yul\":26284:26285   */\n      0x04\n        /* \"#utility.yul\":26277:26292   */\n      mstore\n        /* \"#utility.yul\":26311:26315   */\n      0x24\n        /* \"#utility.yul\":26308:26309   */\n      0x00\n        /* \"#utility.yul\":26301:26316   */\n      revert\n        /* \"#utility.yul\":26328:26522   */\n    tag_94:\n        /* \"#utility.yul\":26368:26372   */\n      0x00\n        /* \"#utility.yul\":26388:26408   */\n      tag_583\n        /* \"#utility.yul\":26406:26407   */\n      dup3\n        /* \"#utility.yul\":26388:26408   */\n      tag_257\n      jump\t// in\n    tag_583:\n        /* \"#utility.yul\":26383:26408   */\n      swap2\n      pop\n        /* \"#utility.yul\":26422:26442   */\n      tag_584\n        /* \"#utility.yul\":26440:26441   */\n      dup4\n        /* \"#utility.yul\":26422:26442   */\n      tag_257\n      jump\t// in\n    tag_584:\n        /* \"#utility.yul\":26417:26442   */\n      swap3\n      pop\n        /* \"#utility.yul\":26466:26467   */\n      dup3\n        /* \"#utility.yul\":26463:26464   */\n      dup3\n        /* \"#utility.yul\":26459:26468   */\n      sub\n        /* \"#utility.yul\":26451:26468   */\n      swap1\n      pop\n        /* \"#utility.yul\":26490:26491   */\n      dup2\n        /* \"#utility.yul\":26484:26488   */\n      dup2\n        /* \"#utility.yul\":26481:26492   */\n      gt\n        /* \"#utility.yul\":26478:26515   */\n      iszero\n      tag_585\n      jumpi\n        /* \"#utility.yul\":26495:26513   */\n      tag_586\n      tag_321\n      jump\t// in\n    tag_586:\n        /* \"#utility.yul\":26478:26515   */\n    tag_585:\n        /* \"#utility.yul\":26328:26522   */\n      swap3\n      swap2\n      pop\n      pop\n      jump\t// out\n        /* \"#utility.yul\":26528:26719   */\n    tag_96:\n        /* \"#utility.yul\":26568:26571   */\n      0x00\n        /* \"#utility.yul\":26587:26607   */\n      tag_588\n        /* \"#utility.yul\":26605:26606   */\n      dup3\n        /* \"#utility.yul\":26587:26607   */\n      tag_257\n      jump\t// in\n    tag_588:\n        /* \"#utility.yul\":26582:26607   */\n      swap2\n      pop\n        /* \"#utility.yul\":26621:26641   */\n      tag_589\n        /* \"#utility.yul\":26639:26640   */\n      dup4\n        /* \"#utility.yul\":26621:26641   */\n      tag_257\n      jump\t// in\n    tag_589:\n        /* \"#utility.yul\":26616:26641   */\n      swap3\n      pop\n        /* \"#utility.yul\":26664:26665   */\n      dup3\n        /* \"#utility.yul\":26661:26662   */\n      dup3\n        /* \"#utility.yul\":26657:26666   */\n      add\n        /* \"#utility.yul\":26650:26666   */\n      swap1\n      pop\n        /* \"#utility.yul\":26685:26688   */\n      dup1\n        /* \"#utility.yul\":26682:26683   */\n      dup3\n        /* \"#utility.yul\":26679:26689   */\n      gt\n        /* \"#utility.yul\":26676:26712   */\n      iszero\n      tag_590\n      jumpi\n        /* \"#utility.yul\":26692:26710   */\n      tag_591\n      tag_321\n      jump\t// in\n    tag_591:\n        /* \"#utility.yul\":26676:26712   */\n    tag_590:\n        /* \"#utility.yul\":26528:26719   */\n      swap3\n      swap2\n      pop\n      pop\n      jump\t// out\n        /* \"#utility.yul\":26725:26905   */\n    tag_105:\n        /* \"#utility.yul\":26773:26850   */\n      0x4e487b7100000000000000000000000000000000000000000000000000000000\n        /* \"#utility.yul\":26770:26771   */\n      0x00\n        /* \"#utility.yul\":26763:26851   */\n      mstore\n        /* \"#utility.yul\":26870:26874   */\n      0x31\n        /* \"#utility.yul\":26867:26868   */\n      0x04\n        /* \"#utility.yul\":26860:26875   */\n      mstore\n        /* \"#utility.yul\":26894:26898   */\n      0x24\n        /* \"#utility.yul\":26891:26892   */\n      0x00\n        /* \"#utility.yul\":26884:26899   */\n      revert\n        /* \"#utility.yul\":26911:27091   */\n    tag_322:\n        /* \"#utility.yul\":26959:27036   */\n      0x4e487b7100000000000000000000000000000000000000000000000000000000\n        /* \"#utility.yul\":26956:26957   */\n      0x00\n        /* \"#utility.yul\":26949:27037   */\n      mstore\n        /* \"#utility.yul\":27056:27060   */\n      0x22\n        /* \"#utility.yul\":27053:27054   */\n      0x04\n        /* \"#utility.yul\":27046:27061   */\n      mstore\n        /* \"#utility.yul\":27080:27084   */\n      0x24\n        /* \"#utility.yul\":27077:27078   */\n      0x00\n        /* \"#utility.yul\":27070:27085   */\n      revert\n        /* \"#utility.yul\":27097:27417   */\n    tag_110:\n        /* \"#utility.yul\":27141:27147   */\n      0x00\n        /* \"#utility.yul\":27178:27179   */\n      0x02\n        /* \"#utility.yul\":27172:27176   */\n      dup3\n        /* \"#utility.yul\":27168:27180   */\n      div\n        /* \"#utility.yul\":27158:27180   */\n      swap1\n      pop\n        /* \"#utility.yul\":27225:27226   */\n      0x01\n        /* \"#utility.yul\":27219:27223   */\n      dup3\n        /* \"#utility.yul\":27215:27227   */\n      and\n        /* \"#utility.yul\":27246:27264   */\n      dup1\n        /* \"#utility.yul\":27236:27317   */\n      tag_595\n      jumpi\n        /* \"#utility.yul\":27302:27306   */\n      0x7f\n        /* \"#utility.yul\":27294:27300   */\n      dup3\n        /* \"#utility.yul\":27290:27307   */\n      and\n        /* \"#utility.yul\":27280:27307   */\n      swap2\n      pop\n        /* \"#utility.yul\":27236:27317   */\n    tag_595:\n        /* \"#utility.yul\":27364:27366   */\n      0x20\n        /* \"#utility.yul\":27356:27362   */\n      dup3\n        /* \"#utility.yul\":27353:27367   */\n      lt\n        /* \"#utility.yul\":27333:27351   */\n      dup2\n        /* \"#utility.yul\":27330:27368   */\n      sub\n        /* \"#utility.yul\":27327:27411   */\n      tag_596\n      jumpi\n        /* \"#utility.yul\":27383:27401   */\n      tag_597\n      tag_322\n      jump\t// in\n    tag_597:\n        /* \"#utility.yul\":27327:27411   */\n    tag_596:\n        /* \"#utility.yul\":27148:27417   */\n      pop\n        /* \"#utility.yul\":27097:27417   */\n      swap2\n      swap1\n      pop\n      jump\t// out\n        /* \"#utility.yul\":27423:27658   */\n    tag_323:\n        /* \"#utility.yul\":27563:27597   */\n      0x4f6e6c7920617574686f72697a656420706172746965732063616e207369676e\n        /* \"#utility.yul\":27559:27560   */\n      0x00\n        /* \"#utility.yul\":27551:27557   */\n      dup3\n        /* \"#utility.yul\":27547:27561   */\n      add\n        /* \"#utility.yul\":27540:27598   */\n      mstore\n        /* \"#utility.yul\":27632:27650   */\n      0x2074686520737570706c656d656e742e00000000000000000000000000000000\n        /* \"#utility.yul\":27627:27629   */\n      0x20\n        /* \"#utility.yul\":27619:27625   */\n      dup3\n        /* \"#utility.yul\":27615:27630   */\n      add\n        /* \"#utility.yul\":27608:27651   */\n      mstore\n        /* \"#utility.yul\":27423:27658   */\n      pop\n      jump\t// out\n        /* \"#utility.yul\":27664:28030   */\n    tag_324:\n        /* \"#utility.yul\":27806:27809   */\n      0x00\n        /* \"#utility.yul\":27827:27894   */\n      tag_600\n        /* \"#utility.yul\":27891:27893   */\n      0x30\n        /* \"#utility.yul\":27886:27889   */\n      dup4\n        /* \"#utility.yul\":27827:27894   */\n      tag_292\n      jump\t// in\n    tag_600:\n        /* \"#utility.yul\":27820:27894   */\n      swap2\n      pop\n        /* \"#utility.yul\":27903:27996   */\n      tag_601\n        /* \"#utility.yul\":27992:27995   */\n      dup3\n        /* \"#utility.yul\":27903:27996   */\n      tag_323\n      jump\t// in\n    tag_601:\n        /* \"#utility.yul\":28021:28023   */\n      0x40\n        /* \"#utility.yul\":28016:28019   */\n      dup3\n        /* \"#utility.yul\":28012:28024   */\n      add\n        /* \"#utility.yul\":28005:28024   */\n      swap1\n      pop\n        /* \"#utility.yul\":27664:28030   */\n      swap2\n      swap1\n      pop\n      jump\t// out\n        /* \"#utility.yul\":28036:28455   */\n    tag_209:\n        /* \"#utility.yul\":28202:28206   */\n      0x00\n        /* \"#utility.yul\":28240:28242   */\n      0x20\n        /* \"#utility.yul\":28229:28238   */\n      dup3\n        /* \"#utility.yul\":28225:28243   */\n      add\n        /* \"#utility.yul\":28217:28243   */\n      swap1\n      pop\n        /* \"#utility.yul\":28289:28298   */\n      dup2\n        /* \"#utility.yul\":28283:28287   */\n      dup2\n        /* \"#utility.yul\":28279:28299   */\n      sub\n        /* \"#utility.yul\":28275:28276   */\n      0x00\n        /* \"#utility.yul\":28264:28273   */\n      dup4\n        /* \"#utility.yul\":28260:28277   */\n      add\n        /* \"#utility.yul\":28253:28300   */\n      mstore\n        /* \"#utility.yul\":28317:28448   */\n      tag_603\n        /* \"#utility.yul\":28443:28447   */\n      dup2\n        /* \"#utility.yul\":28317:28448   */\n      tag_324\n      jump\t// in\n    tag_603:\n        /* \"#utility.yul\":28309:28448   */\n      swap1\n      pop\n        /* \"#utility.yul\":28036:28455   */\n      swap2\n      swap1\n      pop\n      jump\t// out\n        /* \"#utility.yul\":28461:28601   */\n    tag_325:\n        /* \"#utility.yul\":28509:28513   */\n      0x00\n        /* \"#utility.yul\":28532:28535   */\n      dup2\n        /* \"#utility.yul\":28524:28535   */\n      swap1\n      pop\n        /* \"#utility.yul\":28555:28558   */\n      dup2\n        /* \"#utility.yul\":28552:28553   */\n      0x00\n        /* \"#utility.yul\":28545:28559   */\n      mstore\n        /* \"#utility.yul\":28589:28593   */\n      0x20\n        /* \"#utility.yul\":28586:28587   */\n      0x00\n        /* \"#utility.yul\":28576:28594   */\n      keccak256\n        /* \"#utility.yul\":28568:28594   */\n      swap1\n      pop\n        /* \"#utility.yul\":28461:28601   */\n      swap2\n      swap1\n      pop\n      jump\t// out\n        /* \"#utility.yul\":28607:28700   */\n    tag_326:\n        /* \"#utility.yul\":28644:28650   */\n      0x00\n        /* \"#utility.yul\":28691:28693   */\n      0x20\n        /* \"#utility.yul\":28686:28688   */\n      0x1f\n        /* \"#utility.yul\":28679:28684   */\n      dup4\n        /* \"#utility.yul\":28675:28689   */\n      add\n        /* \"#utility.yul\":28671:28694   */\n      div\n        /* \"#utility.yul\":28661:28694   */\n      swap1\n      pop\n        /* \"#utility.yul\":28607:28700   */\n      swap2\n      swap1\n      pop\n      jump\t// out\n        /* \"#utility.yul\":28706:28813   */\n    tag_327:\n        /* \"#utility.yul\":28750:28758   */\n      0x00\n        /* \"#utility.yul\":28800:28805   */\n      dup3\n        /* \"#utility.yul\":28794:28798   */\n      dup3\n        /* \"#utility.yul\":28790:28806   */\n      shl\n        /* \"#utility.yul\":28769:28806   */\n      swap1\n      pop\n        /* \"#utility.yul\":28706:28813   */\n      swap3\n      swap2\n      pop\n      pop\n      jump\t// out\n        /* \"#utility.yul\":28819:29212   */\n    tag_328:\n        /* \"#utility.yul\":28888:28894   */\n      0x00\n        /* \"#utility.yul\":28938:28939   */\n      0x08\n        /* \"#utility.yul\":28926:28936   */\n      dup4\n        /* \"#utility.yul\":28922:28940   */\n      mul\n        /* \"#utility.yul\":28961:29058   */\n      tag_608\n        /* \"#utility.yul\":28991:29057   */\n      0xffffffffffffffffffffffffffffffffffffffffffffffffffffffffffffffff\n        /* \"#utility.yul\":28980:28989   */\n      dup3\n        /* \"#utility.yul\":28961:29058   */\n      tag_327\n      jump\t// in\n    tag_608:\n        /* \"#utility.yul\":29079:29118   */\n      tag_609\n        /* \"#utility.yul\":29109:29117   */\n      dup7\n        /* \"#utility.yul\":29098:29107   */\n      dup4\n        /* \"#utility.yul\":29079:29118   */\n      tag_327\n      jump\t// in\n    tag_609:\n        /* \"#utility.yul\":29067:29118   */\n      swap6\n      pop\n        /* \"#utility.yul\":29151:29155   */\n      dup1\n        /* \"#utility.yul\":29147:29156   */\n      not\n        /* \"#utility.yul\":29140:29145   */\n      dup5\n        /* \"#utility.yul\":29136:29157   */\n      and\n        /* \"#utility.yul\":29127:29157   */\n      swap4\n      pop\n        /* \"#utility.yul\":29200:29204   */\n      dup1\n        /* \"#utility.yul\":29190:29198   */\n      dup7\n        /* \"#utility.yul\":29186:29205   */\n      and\n        /* \"#utility.yul\":29179:29184   */\n      dup5\n        /* \"#utility.yul\":29176:29206   */\n      or\n        /* \"#utility.yul\":29166:29206   */\n      swap3\n      pop\n        /* \"#utility.yul\":28895:29212   */\n      pop\n      pop\n        /* \"#utility.yul\":28819:29212   */\n      swap4\n      swap3\n      pop\n      pop\n      pop\n      jump\t// out\n        /* \"#utility.yul\":29218:29278   */\n    tag_329:\n        /* \"#utility.yul\":29246:29249   */\n      0x00\n        /* \"#utility.yul\":29267:29272   */\n      dup2\n        /* \"#utility.yul\":29260:29272   */\n      swap1\n      pop\n        /* \"#utility.yul\":29218:29278   */\n      swap2\n      swap1\n      pop\n      jump\t// out\n        /* \"#utility.yul\":29284:29426   */\n    tag_330:\n        /* \"#utility.yul\":29334:29343   */\n      0x00\n        /* \"#utility.yul\":29367:29420   */\n      tag_612\n        /* \"#utility.yul\":29385:29419   */\n      tag_613\n        /* \"#utility.yul\":29394:29418   */\n      tag_614\n        /* \"#utility.yul\":29412:29417   */\n      dup5\n        /* \"#utility.yul\":29394:29418   */\n      tag_257\n      jump\t// in\n    tag_614:\n        /* \"#utility.yul\":29385:29419   */\n      tag_329\n      jump\t// in\n    tag_613:\n        /* \"#utility.yul\":29367:29420   */\n      tag_257\n      jump\t// in\n    tag_612:\n        /* \"#utility.yul\":29354:29420   */\n      swap1\n      pop\n        /* \"#utility.yul\":29284:29426   */\n      swap2\n      swap1\n      pop\n      jump\t// out\n        /* \"#utility.yul\":29432:29507   */\n    tag_331:\n        /* \"#utility.yul\":29475:29478   */\n      0x00\n        /* \"#utility.yul\":29496:29501   */\n      dup2\n        /* \"#utility.yul\":29489:29501   */\n      swap1\n      pop\n        /* \"#utility.yul\":29432:29507   */\n      swap2\n      swap1\n      pop\n      jump\t// out\n        /* \"#utility.yul\":29513:29782   */\n    tag_332:\n        /* \"#utility.yul\":29623:29662   */\n      tag_617\n        /* \"#utility.yul\":29654:29661   */\n      dup4\n        /* \"#utility.yul\":29623:29662   */\n      tag_330\n      jump\t// in\n    tag_617:\n        /* \"#utility.yul\":29684:29775   */\n      tag_618\n        /* \"#utility.yul\":29733:29774   */\n      tag_619\n        /* \"#utility.yul\":29757:29773   */\n      dup3\n        /* \"#utility.yul\":29733:29774   */\n      tag_331\n      jump\t// in\n    tag_619:\n        /* \"#utility.yul\":29725:29731   */\n      dup5\n        /* \"#utility.yul\":29718:29722   */\n      dup5\n        /* \"#utility.yul\":29712:29723   */\n      sload\n        /* \"#utility.yul\":29684:29775   */\n      tag_328\n      jump\t// in\n    tag_618:\n        /* \"#utility.yul\":29678:29682   */\n      dup3\n        /* \"#utility.yul\":29671:29776   */\n      sstore\n        /* \"#utility.yul\":29589:29782   */\n      pop\n        /* \"#utility.yul\":29513:29782   */\n      pop\n      pop\n      pop\n      jump\t// out\n        /* \"#utility.yul\":29788:29861   */\n    tag_333:\n        /* \"#utility.yul\":29833:29836   */\n      0x00\n        /* \"#utility.yul\":29788:29861   */\n      swap1\n      jump\t// out\n        /* \"#utility.yul\":29867:30056   */\n    tag_334:\n        /* \"#utility.yul\":29944:29976   */\n      tag_622\n      tag_333\n      jump\t// in\n    tag_622:\n        /* \"#utility.yul\":29985:30050   */\n      tag_623\n        /* \"#utility.yul\":30043:30049   */\n      dup2\n        /* \"#utility.yul\":30035:30041   */\n      dup5\n        /* \"#utility.yul\":30029:30033   */\n      dup5\n        /* \"#utility.yul\":29985:30050   */\n      tag_332\n      jump\t// in\n    tag_623:\n        /* \"#utility.yul\":29920:30056   */\n      pop\n        /* \"#utility.yul\":29867:30056   */\n      pop\n      pop\n      jump\t// out\n        /* \"#utility.yul\":30062:30248   */\n    tag_335:\n        /* \"#utility.yul\":30122:30242   */\n    tag_625:\n        /* \"#utility.yul\":30139:30142   */\n      dup2\n        /* \"#utility.yul\":30132:30137   */\n      dup2\n        /* \"#utility.yul\":30129:30143   */\n      lt\n        /* \"#utility.yul\":30122:30242   */\n      iszero\n      tag_627\n      jumpi\n        /* \"#utility.yul\":30193:30232   */\n      tag_628\n        /* \"#utility.yul\":30230:30231   */\n      0x00\n        /* \"#utility.yul\":30223:30228   */\n      dup3\n        /* \"#utility.yul\":30193:30232   */\n      tag_334\n      jump\t// in\n    tag_628:\n        /* \"#utility.yul\":30166:30167   */\n      0x01\n        /* \"#utility.yul\":30159:30164   */\n      dup2\n        /* \"#utility.yul\":30155:30168   */\n      add\n        /* \"#utility.yul\":30146:30168   */\n      swap1\n      pop\n        /* \"#utility.yul\":30122:30242   */\n      jump(tag_625)\n    tag_627:\n        /* \"#utility.yul\":30062:30248   */\n      pop\n      pop\n      jump\t// out\n        /* \"#utility.yul\":30254:30795   */\n    tag_336:\n        /* \"#utility.yul\":30354:30356   */\n      0x1f\n        /* \"#utility.yul\":30349:30352   */\n      dup3\n        /* \"#utility.yul\":30346:30357   */\n      gt\n        /* \"#utility.yul\":30343:30788   */\n      iszero\n      tag_630\n      jumpi\n        /* \"#utility.yul\":30388:30425   */\n      tag_631\n        /* \"#utility.yul\":30419:30424   */\n      dup2\n        /* \"#utility.yul\":30388:30425   */\n      tag_325\n      jump\t// in\n    tag_631:\n        /* \"#utility.yul\":30471:30500   */\n      tag_632\n        /* \"#utility.yul\":30489:30499   */\n      dup5\n        /* \"#utility.yul\":30471:30500   */\n      tag_326\n      jump\t// in\n    tag_632:\n        /* \"#utility.yul\":30461:30469   */\n      dup2\n        /* \"#utility.yul\":30457:30501   */\n      add\n        /* \"#utility.yul\":30654:30656   */\n      0x20\n        /* \"#utility.yul\":30642:30652   */\n      dup6\n        /* \"#utility.yul\":30639:30657   */\n      lt\n        /* \"#utility.yul\":30636:30685   */\n      iszero\n      tag_633\n      jumpi\n        /* \"#utility.yul\":30675:30683   */\n      dup2\n        /* \"#utility.yul\":30660:30683   */\n      swap1\n      pop\n        /* \"#utility.yul\":30636:30685   */\n    tag_633:\n        /* \"#utility.yul\":30698:30778   */\n      tag_634\n        /* \"#utility.yul\":30754:30776   */\n      tag_635\n        /* \"#utility.yul\":30772:30775   */\n      dup6\n        /* \"#utility.yul\":30754:30776   */\n      tag_326\n      jump\t// in\n    tag_635:\n        /* \"#utility.yul\":30744:30752   */\n      dup4\n        /* \"#utility.yul\":30740:30777   */\n      add\n        /* \"#utility.yul\":30727:30738   */\n      dup3\n        /* \"#utility.yul\":30698:30778   */\n      tag_335\n      jump\t// in\n    tag_634:\n        /* \"#utility.yul\":30358:30788   */\n      pop\n      pop\n        /* \"#utility.yul\":30343:30788   */\n    tag_630:\n        /* \"#utility.yul\":30254:30795   */\n      pop\n      pop\n      pop\n      jump\t// out\n        /* \"#utility.yul\":30801:30918   */\n    tag_337:\n        /* \"#utility.yul\":30855:30863   */\n      0x00\n        /* \"#utility.yul\":30905:30910   */\n      dup3\n        /* \"#utility.yul\":30899:30903   */\n      dup3\n        /* \"#utility.yul\":30895:30911   */\n      shr\n        /* \"#utility.yul\":30874:30911   */\n      swap1\n      pop\n        /* \"#utility.yul\":30801:30918   */\n      swap3\n      swap2\n      pop\n      pop\n      jump\t// out\n        /* \"#utility.yul\":30924:31093   */\n    tag_338:\n        /* \"#utility.yul\":30968:30974   */\n      0x00\n        /* \"#utility.yul\":31001:31052   */\n      tag_638\n        /* \"#utility.yul\":31049:31050   */\n      0x00\n        /* \"#utility.yul\":31045:31051   */\n      not\n        /* \"#utility.yul\":31037:31042   */\n      dup5\n        /* \"#utility.yul\":31034:31035   */\n      0x08\n        /* \"#utility.yul\":31030:31043   */\n      mul\n        /* \"#utility.yul\":31001:31052   */\n      tag_337\n      jump\t// in\n    tag_638:\n        /* \"#utility.yul\":30997:31053   */\n      not\n        /* \"#utility.yul\":31082:31086   */\n      dup1\n        /* \"#utility.yul\":31076:31080   */\n      dup4\n        /* \"#utility.yul\":31072:31087   */\n      and\n        /* \"#utility.yul\":31062:31087   */\n      swap2\n      pop\n        /* \"#utility.yul\":30975:31093   */\n      pop\n        /* \"#utility.yul\":30924:31093   */\n      swap3\n      swap2\n      pop\n      pop\n      jump\t// out\n        /* \"#utility.yul\":31098:31393   */\n    tag_339:\n        /* \"#utility.yul\":31174:31178   */\n      0x00\n        /* \"#utility.yul\":31320:31349   */\n      tag_640\n        /* \"#utility.yul\":31345:31348   */\n      dup4\n        /* \"#utility.yul\":31339:31343   */\n      dup4\n        /* \"#utility.yul\":31320:31349   */\n      tag_338\n      jump\t// in\n    tag_640:\n        /* \"#utility.yul\":31312:31349   */\n      swap2\n      pop\n        /* \"#utility.yul\":31382:31385   */\n      dup3\n        /* \"#utility.yul\":31379:31380   */\n      0x02\n        /* \"#utility.yul\":31375:31386   */\n      mul\n        /* \"#utility.yul\":31369:31373   */\n      dup3\n        /* \"#utility.yul\":31366:31387   */\n      or\n        /* \"#utility.yul\":31358:31387   */\n      swap1\n      pop\n        /* \"#utility.yul\":31098:31393   */\n      swap3\n      swap2\n      pop\n      pop\n      jump\t// out\n        /* \"#utility.yul\":31398:32788   */\n    tag_212:\n        /* \"#utility.yul\":31513:31549   */\n      tag_642\n        /* \"#utility.yul\":31545:31548   */\n      dup3\n        /* \"#utility.yul\":31513:31549   */\n      tag_274\n      jump\t// in\n    tag_642:\n        /* \"#utility.yul\":31614:31632   */\n      0xffffffffffffffff\n        /* \"#utility.yul\":31606:31612   */\n      dup2\n        /* \"#utility.yul\":31603:31633   */\n      gt\n        /* \"#utility.yul\":31600:31656   */\n      iszero\n      tag_643\n      jumpi\n        /* \"#utility.yul\":31636:31654   */\n      tag_644\n      tag_69\n      jump\t// in\n    tag_644:\n        /* \"#utility.yul\":31600:31656   */\n    tag_643:\n        /* \"#utility.yul\":31680:31718   */\n      tag_645\n        /* \"#utility.yul\":31712:31716   */\n      dup3\n        /* \"#utility.yul\":31706:31717   */\n      sload\n        /* \"#utility.yul\":31680:31718   */\n      tag_110\n      jump\t// in\n    tag_645:\n        /* \"#utility.yul\":31765:31831   */\n      tag_646\n        /* \"#utility.yul\":31824:31830   */\n      dup3\n        /* \"#utility.yul\":31816:31822   */\n      dup3\n        /* \"#utility.yul\":31810:31814   */\n      dup6\n        /* \"#utility.yul\":31765:31831   */\n      tag_336\n      jump\t// in\n    tag_646:\n        /* \"#utility.yul\":31858:31859   */\n      0x00\n        /* \"#utility.yul\":31882:31886   */\n      0x20\n        /* \"#utility.yul\":31869:31886   */\n      swap1\n      pop\n        /* \"#utility.yul\":31914:31916   */\n      0x1f\n        /* \"#utility.yul\":31906:31912   */\n      dup4\n        /* \"#utility.yul\":31903:31917   */\n      gt\n        /* \"#utility.yul\":31931:31932   */\n      0x01\n        /* \"#utility.yul\":31926:32543   */\n      dup2\n      eq\n      tag_648\n      jumpi\n        /* \"#utility.yul\":32587:32588   */\n      0x00\n        /* \"#utility.yul\":32604:32610   */\n      dup5\n        /* \"#utility.yul\":32601:32678   */\n      iszero\n      tag_649\n      jumpi\n        /* \"#utility.yul\":32653:32662   */\n      dup3\n        /* \"#utility.yul\":32648:32651   */\n      dup8\n        /* \"#utility.yul\":32644:32663   */\n      add\n        /* \"#utility.yul\":32638:32664   */\n      mload\n        /* \"#utility.yul\":32629:32664   */\n      swap1\n      pop\n        /* \"#utility.yul\":32601:32678   */\n    tag_649:\n        /* \"#utility.yul\":32704:32771   */\n      tag_650\n        /* \"#utility.yul\":32764:32770   */\n      dup6\n        /* \"#utility.yul\":32757:32762   */\n      dup3\n        /* \"#utility.yul\":32704:32771   */\n      tag_339\n      jump\t// in\n    tag_650:\n        /* \"#utility.yul\":32698:32702   */\n      dup7\n        /* \"#utility.yul\":32691:32772   */\n      sstore\n        /* \"#utility.yul\":32560:32782   */\n      pop\n        /* \"#utility.yul\":31896:32782   */\n      jump(tag_647)\n        /* \"#utility.yul\":31926:32543   */\n    tag_648:\n        /* \"#utility.yul\":31978:31982   */\n      0x1f\n        /* \"#utility.yul\":31974:31983   */\n      not\n        /* \"#utility.yul\":31966:31972   */\n      dup5\n        /* \"#utility.yul\":31962:31984   */\n      and\n        /* \"#utility.yul\":32012:32048   */\n      tag_651\n        /* \"#utility.yul\":32043:32047   */\n      dup7\n        /* \"#utility.yul\":32012:32048   */\n      tag_325\n      jump\t// in\n    tag_651:\n        /* \"#utility.yul\":32070:32071   */\n      0x00\n        /* \"#utility.yul\":32084:32292   */\n    tag_652:\n        /* \"#utility.yul\":32098:32105   */\n      dup3\n        /* \"#utility.yul\":32095:32096   */\n      dup2\n        /* \"#utility.yul\":32092:32106   */\n      lt\n        /* \"#utility.yul\":32084:32292   */\n      iszero\n      tag_654\n      jumpi\n        /* \"#utility.yul\":32177:32186   */\n      dup5\n        /* \"#utility.yul\":32172:32175   */\n      dup10\n        /* \"#utility.yul\":32168:32187   */\n      add\n        /* \"#utility.yul\":32162:32188   */\n      mload\n        /* \"#utility.yul\":32154:32160   */\n      dup3\n        /* \"#utility.yul\":32147:32189   */\n      sstore\n        /* \"#utility.yul\":32228:32229   */\n      0x01\n        /* \"#utility.yul\":32220:32226   */\n      dup3\n        /* \"#utility.yul\":32216:32230   */\n      add\n        /* \"#utility.yul\":32206:32230   */\n      swap2\n      pop\n        /* \"#utility.yul\":32275:32277   */\n      0x20\n        /* \"#utility.yul\":32264:32273   */\n      dup6\n        /* \"#utility.yul\":32260:32278   */\n      add\n        /* \"#utility.yul\":32247:32278   */\n      swap5\n      pop\n        /* \"#utility.yul\":32121:32125   */\n      0x20\n        /* \"#utility.yul\":32118:32119   */\n      dup2\n        /* \"#utility.yul\":32114:32126   */\n      add\n        /* \"#utility.yul\":32109:32126   */\n      swap1\n      pop\n        /* \"#utility.yul\":32084:32292   */\n      jump(tag_652)\n    tag_654:\n        /* \"#utility.yul\":32320:32326   */\n      dup7\n        /* \"#utility.yul\":32311:32318   */\n      dup4\n        /* \"#utility.yul\":32308:32327   */\n      lt\n        /* \"#utility.yul\":32305:32484   */\n      iszero\n      tag_655\n      jumpi\n        /* \"#utility.yul\":32378:32387   */\n      dup5\n        /* \"#utility.yul\":32373:32376   */\n      dup10\n        /* \"#utility.yul\":32369:32388   */\n      add\n        /* \"#utility.yul\":32363:32389   */\n      mload\n        /* \"#utility.yul\":32421:32469   */\n      tag_656\n        /* \"#utility.yul\":32463:32467   */\n      0x1f\n        /* \"#utility.yul\":32455:32461   */\n      dup10\n        /* \"#utility.yul\":32451:32468   */\n      and\n        /* \"#utility.yul\":32440:32449   */\n      dup3\n        /* \"#utility.yul\":32421:32469   */\n      tag_338\n      jump\t// in\n    tag_656:\n        /* \"#utility.yul\":32413:32419   */\n      dup4\n        /* \"#utility.yul\":32406:32470   */\n      sstore\n        /* \"#utility.yul\":32328:32484   */\n      pop\n        /* \"#utility.yul\":32305:32484   */\n    tag_655:\n        /* \"#utility.yul\":32530:32531   */\n      0x01\n        /* \"#utility.yul\":32526:32527   */\n      0x02\n        /* \"#utility.yul\":32518:32524   */\n      dup9\n        /* \"#utility.yul\":32514:32528   */\n      mul\n        /* \"#utility.yul\":32510:32532   */\n      add\n        /* \"#utility.yul\":32504:32508   */\n      dup9\n        /* \"#utility.yul\":32497:32533   */\n      sstore\n        /* \"#utility.yul\":31933:32543   */\n      pop\n      pop\n      pop\n        /* \"#utility.yul\":31896:32782   */\n    tag_647:\n      pop\n        /* \"#utility.yul\":31488:32788   */\n      pop\n      pop\n      pop\n        /* \"#utility.yul\":31398:32788   */\n      pop\n      pop\n      jump\t// out\n        /* \"#utility.yul\":32794:32935   */\n    tag_340:\n        /* \"#utility.yul\":32843:32847   */\n      0x00\n        /* \"#utility.yul\":32866:32869   */\n      dup2\n        /* \"#utility.yul\":32858:32869   */\n      swap1\n      pop\n        /* \"#utility.yul\":32889:32892   */\n      dup2\n        /* \"#utility.yul\":32886:32887   */\n      0x00\n        /* \"#utility.yul\":32879:32893   */\n      mstore\n        /* \"#utility.yul\":32923:32927   */\n      0x20\n        /* \"#utility.yul\":32920:32921   */\n      0x00\n        /* \"#utility.yul\":32910:32928   */\n      keccak256\n        /* \"#utility.yul\":32902:32928   */\n      swap1\n      pop\n        /* \"#utility.yul\":32794:32935   */\n      swap2\n      swap1\n      pop\n      jump\t// out\n        /* \"#utility.yul\":32941:33484   */\n    tag_341:\n        /* \"#utility.yul\":33042:33044   */\n      0x1f\n        /* \"#utility.yul\":33037:33040   */\n      dup3\n        /* \"#utility.yul\":33034:33045   */\n      gt\n        /* \"#utility.yul\":33031:33477   */\n      iszero\n      tag_659\n      jumpi\n        /* \"#utility.yul\":33076:33114   */\n      tag_660\n        /* \"#utility.yul\":33108:33113   */\n      dup2\n        /* \"#utility.yul\":33076:33114   */\n      tag_340\n      jump\t// in\n    tag_660:\n        /* \"#utility.yul\":33160:33189   */\n      tag_661\n        /* \"#utility.yul\":33178:33188   */\n      dup5\n        /* \"#utility.yul\":33160:33189   */\n      tag_326\n      jump\t// in\n    tag_661:\n        /* \"#utility.yul\":33150:33158   */\n      dup2\n        /* \"#utility.yul\":33146:33190   */\n      add\n        /* \"#utility.yul\":33343:33345   */\n      0x20\n        /* \"#utility.yul\":33331:33341   */\n      dup6\n        /* \"#utility.yul\":33328:33346   */\n      lt\n        /* \"#utility.yul\":33325:33374   */\n      iszero\n      tag_662\n      jumpi\n        /* \"#utility.yul\":33364:33372   */\n      dup2\n        /* \"#utility.yul\":33349:33372   */\n      swap1\n      pop\n        /* \"#utility.yul\":33325:33374   */\n    tag_662:\n        /* \"#utility.yul\":33387:33467   */\n      tag_663\n        /* \"#utility.yul\":33443:33465   */\n      tag_664\n        /* \"#utility.yul\":33461:33464   */\n      dup6\n        /* \"#utility.yul\":33443:33465   */\n      tag_326\n      jump\t// in\n    tag_664:\n        /* \"#utility.yul\":33433:33441   */\n      dup4\n        /* \"#utility.yul\":33429:33466   */\n      add\n        /* \"#utility.yul\":33416:33427   */\n      dup3\n        /* \"#utility.yul\":33387:33467   */\n      tag_335\n      jump\t// in\n    tag_663:\n        /* \"#utility.yul\":33046:33477   */\n      pop\n      pop\n        /* \"#utility.yul\":33031:33477   */\n    tag_659:\n        /* \"#utility.yul\":32941:33484   */\n      pop\n      pop\n      pop\n      jump\t// out\n        /* \"#utility.yul\":33490:34885   */\n    tag_217:\n        /* \"#utility.yul\":33607:33644   */\n      tag_666\n        /* \"#utility.yul\":33640:33643   */\n      dup3\n        /* \"#utility.yul\":33607:33644   */\n      tag_284\n      jump\t// in\n    tag_666:\n        /* \"#utility.yul\":33709:33727   */\n      0xffffffffffffffff\n        /* \"#utility.yul\":33701:33707   */\n      dup2\n        /* \"#utility.yul\":33698:33728   */\n      gt\n        /* \"#utility.yul\":33695:33751   */\n      iszero\n      tag_667\n      jumpi\n        /* \"#utility.yul\":33731:33749   */\n      tag_668\n      tag_69\n      jump\t// in\n    tag_668:\n        /* \"#utility.yul\":33695:33751   */\n    tag_667:\n        /* \"#utility.yul\":33775:33813   */\n      tag_669\n        /* \"#utility.yul\":33807:33811   */\n      dup3\n        /* \"#utility.yul\":33801:33812   */\n      sload\n        /* \"#utility.yul\":33775:33813   */\n      tag_110\n      jump\t// in\n    tag_669:\n        /* \"#utility.yul\":33860:33927   */\n      tag_670\n        /* \"#utility.yul\":33920:33926   */\n      dup3\n        /* \"#utility.yul\":33912:33918   */\n      dup3\n        /* \"#utility.yul\":33906:33910   */\n      dup6\n        /* \"#utility.yul\":33860:33927   */\n      tag_341\n      jump\t// in\n    tag_670:\n        /* \"#utility.yul\":33954:33955   */\n      0x00\n        /* \"#utility.yul\":33978:33982   */\n      0x20\n        /* \"#utility.yul\":33965:33982   */\n      swap1\n      pop\n        /* \"#utility.yul\":34010:34012   */\n      0x1f\n        /* \"#utility.yul\":34002:34008   */\n      dup4\n        /* \"#utility.yul\":33999:34013   */\n      gt\n        /* \"#utility.yul\":34027:34028   */\n      0x01\n        /* \"#utility.yul\":34022:34640   */\n      dup2\n      eq\n      tag_672\n      jumpi\n        /* \"#utility.yul\":34684:34685   */\n      0x00\n        /* \"#utility.yul\":34701:34707   */\n      dup5\n        /* \"#utility.yul\":34698:34775   */\n      iszero\n      tag_673\n      jumpi\n        /* \"#utility.yul\":34750:34759   */\n      dup3\n        /* \"#utility.yul\":34745:34748   */\n      dup8\n        /* \"#utility.yul\":34741:34760   */\n      add\n        /* \"#utility.yul\":34735:34761   */\n      mload\n        /* \"#utility.yul\":34726:34761   */\n      swap1\n      pop\n        /* \"#utility.yul\":34698:34775   */\n    tag_673:\n        /* \"#utility.yul\":34801:34868   */\n      tag_674\n        /* \"#utility.yul\":34861:34867   */\n      dup6\n        /* \"#utility.yul\":34854:34859   */\n      dup3\n        /* \"#utility.yul\":34801:34868   */\n      tag_339\n      jump\t// in\n    tag_674:\n        /* \"#utility.yul\":34795:34799   */\n      dup7\n        /* \"#utility.yul\":34788:34869   */\n      sstore\n        /* \"#utility.yul\":34657:34879   */\n      pop\n        /* \"#utility.yul\":33992:34879   */\n      jump(tag_671)\n        /* \"#utility.yul\":34022:34640   */\n    tag_672:\n        /* \"#utility.yul\":34074:34078   */\n      0x1f\n        /* \"#utility.yul\":34070:34079   */\n      not\n        /* \"#utility.yul\":34062:34068   */\n      dup5\n        /* \"#utility.yul\":34058:34080   */\n      and\n        /* \"#utility.yul\":34108:34145   */\n      tag_675\n        /* \"#utility.yul\":34140:34144   */\n      dup7\n        /* \"#utility.yul\":34108:34145   */\n      tag_340\n      jump\t// in\n    tag_675:\n        /* \"#utility.yul\":34167:34168   */\n      0x00\n        /* \"#utility.yul\":34181:34389   */\n    tag_676:\n        /* \"#utility.yul\":34195:34202   */\n      dup3\n        /* \"#utility.yul\":34192:34193   */\n      dup2\n        /* \"#utility.yul\":34189:34203   */\n      lt\n        /* \"#utility.yul\":34181:34389   */\n      iszero\n      tag_678\n      jumpi\n        /* \"#utility.yul\":34274:34283   */\n      dup5\n        /* \"#utility.yul\":34269:34272   */\n      dup10\n        /* \"#utility.yul\":34265:34284   */\n      add\n        /* \"#utility.yul\":34259:34285   */\n      mload\n        /* \"#utility.yul\":34251:34257   */\n      dup3\n        /* \"#utility.yul\":34244:34286   */\n      sstore\n        /* \"#utility.yul\":34325:34326   */\n      0x01\n        /* \"#utility.yul\":34317:34323   */\n      dup3\n        /* \"#utility.yul\":34313:34327   */\n      add\n        /* \"#utility.yul\":34303:34327   */\n      swap2\n      pop\n        /* \"#utility.yul\":34372:34374   */\n      0x20\n        /* \"#utility.yul\":34361:34370   */\n      dup6\n        /* \"#utility.yul\":34357:34375   */\n      add\n        /* \"#utility.yul\":34344:34375   */\n      swap5\n      pop\n        /* \"#utility.yul\":34218:34222   */\n      0x20\n        /* \"#utility.yul\":34215:34216   */\n      dup2\n        /* \"#utility.yul\":34211:34223   */\n      add\n        /* \"#utility.yul\":34206:34223   */\n      swap1\n      pop\n        /* \"#utility.yul\":34181:34389   */\n      jump(tag_676)\n    tag_678:\n        /* \"#utility.yul\":34417:34423   */\n      dup7\n        /* \"#utility.yul\":34408:34415   */\n      dup4\n        /* \"#utility.yul\":34405:34424   */\n      lt\n        /* \"#utility.yul\":34402:34581   */\n      iszero\n      tag_679\n      jumpi\n        /* \"#utility.yul\":34475:34484   */\n      dup5\n        /* \"#utility.yul\":34470:34473   */\n      dup10\n        /* \"#utility.yul\":34466:34485   */\n      add\n        /* \"#utility.yul\":34460:34486   */\n      mload\n        /* \"#utility.yul\":34518:34566   */\n      tag_680\n        /* \"#utility.yul\":34560:34564   */\n      0x1f\n        /* \"#utility.yul\":34552:34558   */\n      dup10\n        /* \"#utility.yul\":34548:34565   */\n      and\n        /* \"#utility.yul\":34537:34546   */\n      dup3\n        /* \"#utility.yul\":34518:34566   */\n      tag_338\n      jump\t// in\n    tag_680:\n        /* \"#utility.yul\":34510:34516   */\n      dup4\n        /* \"#utility.yul\":34503:34567   */\n      sstore\n        /* \"#utility.yul\":34425:34581   */\n      pop\n        /* \"#utility.yul\":34402:34581   */\n    tag_679:\n        /* \"#utility.yul\":34627:34628   */\n      0x01\n        /* \"#utility.yul\":34623:34624   */\n      0x02\n        /* \"#utility.yul\":34615:34621   */\n      dup9\n        /* \"#utility.yul\":34611:34625   */\n      mul\n        /* \"#utility.yul\":34607:34629   */\n      add\n        /* \"#utility.yul\":34601:34605   */\n      dup9\n        /* \"#utility.yul\":34594:34630   */\n      sstore\n        /* \"#utility.yul\":34029:34640   */\n      pop\n      pop\n      pop\n        /* \"#utility.yul\":33992:34879   */\n    tag_671:\n      pop\n        /* \"#utility.yul\":33582:34885   */\n      pop\n      pop\n      pop\n        /* \"#utility.yul\":33490:34885   */\n      pop\n      pop\n      jump\t// out\n        /* \"#utility.yul\":34891:35124   */\n    tag_224:\n        /* \"#utility.yul\":34930:34933   */\n      0x00\n        /* \"#utility.yul\":34953:34977   */\n      tag_682\n        /* \"#utility.yul\":34971:34976   */\n      dup3\n        /* \"#utility.yul\":34953:34977   */\n      tag_257\n      jump\t// in\n    tag_682:\n        /* \"#utility.yul\":34944:34977   */\n      swap2\n      pop\n        /* \"#utility.yul\":34999:35065   */\n      0xffffffffffffffffffffffffffffffffffffffffffffffffffffffffffffffff\n        /* \"#utility.yul\":34992:34997   */\n      dup3\n        /* \"#utility.yul\":34989:35066   */\n      sub\n        /* \"#utility.yul\":34986:35089   */\n      tag_683\n      jumpi\n        /* \"#utility.yul\":35069:35087   */\n      tag_684\n      tag_321\n      jump\t// in\n    tag_684:\n        /* \"#utility.yul\":34986:35089   */\n    tag_683:\n        /* \"#utility.yul\":35116:35117   */\n      0x01\n        /* \"#utility.yul\":35109:35114   */\n      dup3\n        /* \"#utility.yul\":35105:35118   */\n      add\n        /* \"#utility.yul\":35098:35118   */\n      swap1\n      pop\n        /* \"#utility.yul\":34891:35124   */\n      swap2\n      swap1\n      pop\n      jump\t// out\n        /* \"#utility.yul\":35130:35278   */\n    tag_342:\n        /* \"#utility.yul\":35178:35184   */\n      0x00\n        /* \"#utility.yul\":35212:35217   */\n      dup2\n        /* \"#utility.yul\":35206:35218   */\n      sload\n        /* \"#utility.yul\":35196:35218   */\n      swap1\n      pop\n        /* \"#utility.yul\":35238:35271   */\n      tag_686\n        /* \"#utility.yul\":35264:35270   */\n      dup2\n        /* \"#utility.yul\":35238:35271   */\n      tag_110\n      jump\t// in\n    tag_686:\n        /* \"#utility.yul\":35228:35271   */\n      swap1\n      pop\n        /* \"#utility.yul\":35130:35278   */\n      swap2\n      swap1\n      pop\n      jump\t// out\n        /* \"#utility.yul\":35284:36729   */\n    tag_240:\n        /* \"#utility.yul\":35393:35396   */\n      dup2\n        /* \"#utility.yul\":35387:35391   */\n      dup2\n        /* \"#utility.yul\":35384:35397   */\n      sub\n        /* \"#utility.yul\":35381:35407   */\n      tag_688\n      jumpi\n        /* \"#utility.yul\":35400:35405   */\n      pop\n      pop\n      jump(tag_687)\n        /* \"#utility.yul\":35381:35407   */\n    tag_688:\n        /* \"#utility.yul\":35431:35464   */\n      tag_689\n        /* \"#utility.yul\":35460:35463   */\n      dup3\n        /* \"#utility.yul\":35431:35464   */\n      tag_342\n      jump\t// in\n    tag_689:\n        /* \"#utility.yul\":35529:35547   */\n      0xffffffffffffffff\n        /* \"#utility.yul\":35521:35527   */\n      dup2\n        /* \"#utility.yul\":35518:35548   */\n      gt\n        /* \"#utility.yul\":35515:35571   */\n      iszero\n      tag_690\n      jumpi\n        /* \"#utility.yul\":35551:35569   */\n      tag_691\n      tag_69\n      jump\t// in\n    tag_691:\n        /* \"#utility.yul\":35515:35571   */\n    tag_690:\n        /* \"#utility.yul\":35595:35633   */\n      tag_692\n        /* \"#utility.yul\":35627:35631   */\n      dup3\n        /* \"#utility.yul\":35621:35632   */\n      sload\n        /* \"#utility.yul\":35595:35633   */\n      tag_110\n      jump\t// in\n    tag_692:\n        /* \"#utility.yul\":35680:35746   */\n      tag_693\n        /* \"#utility.yul\":35739:35745   */\n      dup3\n        /* \"#utility.yul\":35731:35737   */\n      dup3\n        /* \"#utility.yul\":35725:35729   */\n      dup6\n        /* \"#utility.yul\":35680:35746   */\n      tag_336\n      jump\t// in\n    tag_693:\n        /* \"#utility.yul\":35773:35774   */\n      0x00\n        /* \"#utility.yul\":35802:35804   */\n      0x1f\n        /* \"#utility.yul\":35794:35800   */\n      dup4\n        /* \"#utility.yul\":35791:35805   */\n      gt\n        /* \"#utility.yul\":35819:35820   */\n      0x01\n        /* \"#utility.yul\":35814:36484   */\n      dup2\n      eq\n      tag_695\n      jumpi\n        /* \"#utility.yul\":36528:36529   */\n      0x00\n        /* \"#utility.yul\":36545:36551   */\n      dup5\n        /* \"#utility.yul\":36542:36619   */\n      iszero\n      tag_696\n      jumpi\n        /* \"#utility.yul\":36594:36603   */\n      dup3\n        /* \"#utility.yul\":36589:36592   */\n      dup8\n        /* \"#utility.yul\":36585:36604   */\n      add\n        /* \"#utility.yul\":36579:36605   */\n      sload\n        /* \"#utility.yul\":36570:36605   */\n      swap1\n      pop\n        /* \"#utility.yul\":36542:36619   */\n    tag_696:\n        /* \"#utility.yul\":36645:36712   */\n      tag_697\n        /* \"#utility.yul\":36705:36711   */\n      dup6\n        /* \"#utility.yul\":36698:36703   */\n      dup3\n        /* \"#utility.yul\":36645:36712   */\n      tag_339\n      jump\t// in\n    tag_697:\n        /* \"#utility.yul\":36639:36643   */\n      dup7\n        /* \"#utility.yul\":36632:36713   */\n      sstore\n        /* \"#utility.yul\":36501:36723   */\n      pop\n        /* \"#utility.yul\":35784:36723   */\n      jump(tag_694)\n        /* \"#utility.yul\":35814:36484   */\n    tag_695:\n        /* \"#utility.yul\":35866:35870   */\n      0x1f\n        /* \"#utility.yul\":35862:35871   */\n      not\n        /* \"#utility.yul\":35854:35860   */\n      dup5\n        /* \"#utility.yul\":35850:35872   */\n      and\n        /* \"#utility.yul\":35892:35927   */\n      tag_698\n        /* \"#utility.yul\":35923:35926   */\n      dup8\n        /* \"#utility.yul\":35892:35927   */\n      tag_325\n      jump\t// in\n    tag_698:\n        /* \"#utility.yul\":35885:35927   */\n      swap7\n      pop\n        /* \"#utility.yul\":35954:35990   */\n      tag_699\n        /* \"#utility.yul\":35985:35989   */\n      dup7\n        /* \"#utility.yul\":35954:35990   */\n      tag_325\n      jump\t// in\n    tag_699:\n        /* \"#utility.yul\":36012:36013   */\n      0x00\n        /* \"#utility.yul\":36026:36233   */\n    tag_700:\n        /* \"#utility.yul\":36040:36047   */\n      dup3\n        /* \"#utility.yul\":36037:36038   */\n      dup2\n        /* \"#utility.yul\":36034:36048   */\n      lt\n        /* \"#utility.yul\":36026:36233   */\n      iszero\n      tag_702\n      jumpi\n        /* \"#utility.yul\":36119:36128   */\n      dup5\n        /* \"#utility.yul\":36114:36117   */\n      dup10\n        /* \"#utility.yul\":36110:36129   */\n      add\n        /* \"#utility.yul\":36104:36130   */\n      sload\n        /* \"#utility.yul\":36096:36102   */\n      dup3\n        /* \"#utility.yul\":36089:36131   */\n      sstore\n        /* \"#utility.yul\":36170:36171   */\n      0x01\n        /* \"#utility.yul\":36162:36168   */\n      dup3\n        /* \"#utility.yul\":36158:36172   */\n      add\n        /* \"#utility.yul\":36148:36172   */\n      swap2\n      pop\n        /* \"#utility.yul\":36217:36218   */\n      0x01\n        /* \"#utility.yul\":36206:36215   */\n      dup6\n        /* \"#utility.yul\":36202:36219   */\n      add\n        /* \"#utility.yul\":36189:36219   */\n      swap5\n      pop\n        /* \"#utility.yul\":36063:36067   */\n      0x20\n        /* \"#utility.yul\":36060:36061   */\n      dup2\n        /* \"#utility.yul\":36056:36068   */\n      add\n        /* \"#utility.yul\":36051:36068   */\n      swap1\n      pop\n        /* \"#utility.yul\":36026:36233   */\n      jump(tag_700)\n    tag_702:\n        /* \"#utility.yul\":36261:36267   */\n      dup7\n        /* \"#utility.yul\":36252:36259   */\n      dup4\n        /* \"#utility.yul\":36249:36268   */\n      lt\n        /* \"#utility.yul\":36246:36425   */\n      iszero\n      tag_703\n      jumpi\n        /* \"#utility.yul\":36319:36328   */\n      dup5\n        /* \"#utility.yul\":36314:36317   */\n      dup10\n        /* \"#utility.yul\":36310:36329   */\n      add\n        /* \"#utility.yul\":36304:36330   */\n      sload\n        /* \"#utility.yul\":36362:36410   */\n      tag_704\n        /* \"#utility.yul\":36404:36408   */\n      0x1f\n        /* \"#utility.yul\":36396:36402   */\n      dup10\n        /* \"#utility.yul\":36392:36409   */\n      and\n        /* \"#utility.yul\":36381:36390   */\n      dup3\n        /* \"#utility.yul\":36362:36410   */\n      tag_338\n      jump\t// in\n    tag_704:\n        /* \"#utility.yul\":36354:36360   */\n      dup4\n        /* \"#utility.yul\":36347:36411   */\n      sstore\n        /* \"#utility.yul\":36269:36425   */\n      pop\n        /* \"#utility.yul\":36246:36425   */\n    tag_703:\n        /* \"#utility.yul\":36471:36472   */\n      0x01\n        /* \"#utility.yul\":36467:36468   */\n      0x02\n        /* \"#utility.yul\":36459:36465   */\n      dup9\n        /* \"#utility.yul\":36455:36469   */\n      mul\n        /* \"#utility.yul\":36451:36473   */\n      add\n        /* \"#utility.yul\":36445:36449   */\n      dup9\n        /* \"#utility.yul\":36438:36474   */\n      sstore\n        /* \"#utility.yul\":35821:36484   */\n      pop\n      pop\n      pop\n        /* \"#utility.yul\":35784:36723   */\n    tag_694:\n      pop\n        /* \"#utility.yul\":35371:36729   */\n      pop\n      pop\n      pop\n        /* \"#utility.yul\":35284:36729   */\n      pop\n      pop\n    tag_687:\n      jump\t// out\n\n    auxdata: 0xa26469706673582212202e9835e01e5f97da83f744d1281f1d4a58768bc16585a3f567cde438c77a678c64736f6c63430008160033\n}\n",
				"bytecode": {
					"linkReferences": {},
					"object": "60806040525f600355348015610013575f80fd5b50612a43806100215f395ff3fe608060405234801561000f575f80fd5b50600436106100a7575f3560e01c80632c290e4e1161006f5780632c290e4e1461017e57806337a01230146101ae5780633da1f79a146101ca578063bbe3d522146101e6578063c0c1e2ed14610202578063f1c98ba214610220576100a7565b8063069e8cff146100ab5780630b2baf40146100db5780630f86126e146100f75780632b39fed71461012a5780632b5acd6c14610148575b5f80fd5b6100c560048036038101906100c09190611815565b61023c565b6040516100d29190611927565b60405180910390f35b6100f560048036038101906100f09190611971565b6103af565b005b610111600480360381019061010c91906119af565b6105a7565b6040516101219493929190611ab8565b60405180910390f35b61013261069e565b60405161013f9190611cc5565b60405180910390f35b610162600480360381019061015d9190611815565b610975565b6040516101759796959493929190611d3c565b60405180910390f35b61019860048036038101906101939190611815565b610b63565b6040516101a59190611f3f565b60405180910390f35b6101c860048036038101906101c39190611971565b610dd0565b005b6101e460048036038101906101df9190611815565b610e87565b005b61020060048036038101906101fb91906120b5565b610fea565b005b61020a611197565b6040516102179190612121565b60405180910390f35b61023a600480360381019061023591906121d8565b61119d565b005b60606003548210610282576040517f08c379a000000000000000000000000000000000000000000000000000000000815260040161027990612343565b60405180910390fd5b5f60025f8481526020019081526020015f208054905067ffffffffffffffff8111156102b1576102b0611f67565b5b6040519080825280602002602001820160405280156102df5781602001602082028036833780820191505090505b5090505f5b60025f8581526020019081526020015f20805490508110156103a55760025f8581526020019081526020015f20818154811061032357610322612361565b5b905f5260205f20015f9054906101000a900473ffffffffffffffffffffffffffffffffffffffff1682828151811061035e5761035d612361565b5b602002602001019073ffffffffffffffffffffffffffffffffffffffff16908173ffffffffffffffffffffffffffffffffffffffff168152505080806001019150506102e4565b5080915050919050565b60035482106103f3576040517f08c379a00000000000000000000000000000000000000000000000000000000081526004016103ea90612343565b60405180910390fd5b5f60025f8481526020019081526020015f2090505f5b81805490508110156105a1578273ffffffffffffffffffffffffffffffffffffffff1682828154811061043f5761043e612361565b5b905f5260205f20015f9054906101000a900473ffffffffffffffffffffffffffffffffffffffff1673ffffffffffffffffffffffffffffffffffffffff1603610594575f8190505b6001838054905061049891906123bb565b81101561054b57826001826104ad91906123ee565b815481106104be576104bd612361565b5b905f5260205f20015f9054906101000a900473ffffffffffffffffffffffffffffffffffffffff168382815481106104f9576104f8612361565b5b905f5260205f20015f6101000a81548173ffffffffffffffffffffffffffffffffffffffff021916908373ffffffffffffffffffffffffffffffffffffffff1602179055508080600101915050610487565b508180548061055d5761055c612421565b5b600190038181905f5260205f20015f6101000a81549073ffffffffffffffffffffffffffffffffffffffff021916905590556105a1565b8080600101915050610409565b50505050565b6001602052815f5260405f2081815481106105c0575f80fd5b905f5260205f2090600402015f9150915050805f015f9054906101000a900473ffffffffffffffffffffffffffffffffffffffff169080600101549080600201805461060b9061247b565b80601f01602080910402602001604051908101604052809291908181526020018280546106379061247b565b80156106825780601f1061065957610100808354040283529160200191610682565b820191905f5260205f20905b81548152906001019060200180831161066557829003601f168201915b505050505090806003015f9054906101000a900460ff16905084565b60605f60035467ffffffffffffffff8111156106bd576106bc611f67565b5b6040519080825280602002602001820160405280156106f657816020015b6106e3611584565b8152602001906001900390816106db5790505b5090505f5b60035481101561096d575f808281526020019081526020015f206040518060e00160405290815f82015f9054906101000a900473ffffffffffffffffffffffffffffffffffffffff1673ffffffffffffffffffffffffffffffffffffffff1673ffffffffffffffffffffffffffffffffffffffff1681526020016001820180546107849061247b565b80601f01602080910402602001604051908101604052809291908181526020018280546107b09061247b565b80156107fb5780601f106107d2576101008083540402835291602001916107fb565b820191905f5260205f20905b8154815290600101906020018083116107de57829003601f168201915b505050505081526020016002820180546108149061247b565b80601f01602080910402602001604051908101604052809291908181526020018280546108409061247b565b801561088b5780601f106108625761010080835404028352916020019161088b565b820191905f5260205f20905b81548152906001019060200180831161086e57829003601f168201915b505050505081526020016003820154815260200160048201548152602001600582015481526020016006820180546108c29061247b565b80601f01602080910402602001604051908101604052809291908181526020018280546108ee9061247b565b80156109395780601f1061091057610100808354040283529160200191610939565b820191905f5260205f20905b81548152906001019060200180831161091c57829003601f168201915b50505050508152505082828151811061095557610954612361565b5b602002602001018190525080806001019150506106fb565b508091505090565b5f602052805f5260405f205f91509050805f015f9054906101000a900473ffffffffffffffffffffffffffffffffffffffff16908060010180546109b89061247b565b80601f01602080910402602001604051908101604052809291908181526020018280546109e49061247b565b8015610a2f5780601f10610a0657610100808354040283529160200191610a2f565b820191905f5260205f20905b815481529060010190602001808311610a1257829003601f168201915b505050505090806002018054610a449061247b565b80601f0160208091040260200160405190810160405280929190818152602001828054610a709061247b565b8015610abb5780601f10610a9257610100808354040283529160200191610abb565b820191905f5260205f20905b815481529060010190602001808311610a9e57829003601f168201915b505050505090806003015490806004015490806005015490806006018054610ae29061247b565b80601f0160208091040260200160405190810160405280929190818152602001828054610b0e9061247b565b8015610b595780601f10610b3057610100808354040283529160200191610b59565b820191905f5260205f20905b815481529060010190602001808311610b3c57829003601f168201915b5050505050905087565b60606003548210610ba9576040517f08c379a0000000000000000000000000000000000000000000000000000000008152600401610ba090612343565b60405180910390fd5b5f60015f8481526020019081526020015f20805480602002602001604051908101604052809291908181526020015f905b82821015610d12578382905f5260205f2090600402016040518060800160405290815f82015f9054906101000a900473ffffffffffffffffffffffffffffffffffffffff1673ffffffffffffffffffffffffffffffffffffffff1673ffffffffffffffffffffffffffffffffffffffff16815260200160018201548152602001600282018054610c699061247b565b80601f0160208091040260200160405190810160405280929190818152602001828054610c959061247b565b8015610ce05780601f10610cb757610100808354040283529160200191610ce0565b820191905f5260205f20905b815481529060010190602001808311610cc357829003601f168201915b50505050508152602001600382015f9054906101000a900460ff16151515158152505081526020019060010190610bda565b5050505090505f815190505f8167ffffffffffffffff811115610d3857610d37611f67565b5b604051908082528060200260200182016040528015610d7157816020015b610d5e6115d3565b815260200190600190039081610d565790505b5090505f5b82811015610dc457838181518110610d9157610d90612361565b5b6020026020010151828281518110610dac57610dab612361565b5b60200260200101819052508080600101915050610d76565b50809350505050919050565b6003548210610e14576040517f08c379a0000000000000000000000000000000000000000000000000000000008152600401610e0b90612343565b60405180910390fd5b60025f8381526020019081526020015f2081908060018154018082558091505060019003905f5260205f20015f9091909190916101000a81548173ffffffffffffffffffffffffffffffffffffffff021916908373ffffffffffffffffffffffffffffffffffffffff1602179055505050565b6003548110610ecb576040517f08c379a0000000000000000000000000000000000000000000000000000000008152600401610ec290612343565b60405180910390fd5b5f60015f8381526020019081526020015f2090505f5b8180549050811015610fe5573373ffffffffffffffffffffffffffffffffffffffff16828281548110610f1757610f16612361565b5b905f5260205f2090600402015f015f9054906101000a900473ffffffffffffffffffffffffffffffffffffffff1673ffffffffffffffffffffffffffffffffffffffff16148015610f945750818181548110610f7657610f75612361565b5b905f5260205f2090600402016003015f9054906101000a900460ff16155b15610fd8576001828281548110610fae57610fad612361565b5b905f5260205f2090600402016003015f6101000a81548160ff021916908315150217905550610fe5565b8080600101915050610ee1565b505050565b600354831061102e576040517f08c379a000000000000000000000000000000000000000000000000000000000815260040161102590612343565b60405180910390fd5b611038338461142d565b611077576040517f08c379a000000000000000000000000000000000000000000000000000000000815260040161106e9061251b565b60405180910390fd5b5f60015f8581526020019081526020015f2090508060405180608001604052803373ffffffffffffffffffffffffffffffffffffffff1681526020018481526020018581526020015f1515815250908060018154018082558091505060019003905f5260205f2090600402015f909190919091505f820151815f015f6101000a81548173ffffffffffffffffffffffffffffffffffffffff021916908373ffffffffffffffffffffffffffffffffffffffff16021790555060208201518160010155604082015181600201908161114e91906126d6565b506060820151816003015f6101000a81548160ff02191690831515021790555050508060015f8681526020019081526020015f20908054611190929190611613565b5050505050565b60035481565b6040518060e001604052803373ffffffffffffffffffffffffffffffffffffffff168152602001898152602001888152602001878152602001868152602001858152602001848152505f8060035481526020019081526020015f205f820151815f015f6101000a81548173ffffffffffffffffffffffffffffffffffffffff021916908373ffffffffffffffffffffffffffffffffffffffff160217905550602082015181600101908161125191906127fd565b50604082015181600201908161126791906127fd565b50606082015181600301556080820151816004015560a0820151816005015560c082015181600601908161129b91906127fd565b509050505f60015f60035481526020019081526020015f2090508060405180608001604052803373ffffffffffffffffffffffffffffffffffffffff1681526020018481526020018581526020015f1515815250908060018154018082558091505060019003905f5260205f2090600402015f909190919091505f820151815f015f6101000a81548173ffffffffffffffffffffffffffffffffffffffff021916908373ffffffffffffffffffffffffffffffffffffffff16021790555060208201518160010155604082015181600201908161137891906126d6565b506060820151816003015f6101000a81548160ff021916908315150217905550505060025f60035481526020019081526020015f2033908060018154018082558091505060019003905f5260205f20015f9091909190916101000a81548173ffffffffffffffffffffffffffffffffffffffff021916908373ffffffffffffffffffffffffffffffffffffffff16021790555060035f81548092919061141d906128cc565b9190505550505050505050505050565b5f6003548210611472576040517f08c379a000000000000000000000000000000000000000000000000000000000815260040161146990612343565b60405180910390fd5b5f60025f8481526020019081526020015f2080548060200260200160405190810160405280929190818152602001828054801561150157602002820191905f5260205f20905b815f9054906101000a900473ffffffffffffffffffffffffffffffffffffffff1673ffffffffffffffffffffffffffffffffffffffff16815260200190600101908083116114b8575b505050505090505f5b8151811015611578578473ffffffffffffffffffffffffffffffffffffffff1682828151811061153d5761153c612361565b5b602002602001015173ffffffffffffffffffffffffffffffffffffffff160361156b5760019250505061157e565b808060010191505061150a565b505f9150505b92915050565b6040518060e001604052805f73ffffffffffffffffffffffffffffffffffffffff16815260200160608152602001606081526020015f81526020015f81526020015f8152602001606081525090565b60405180608001604052805f73ffffffffffffffffffffffffffffffffffffffff1681526020015f8019168152602001606081526020015f151581525090565b828054828255905f5260205f20906004028101928215611703575f5260205f209160040282015b828111156117025782825f82015f9054906101000a900473ffffffffffffffffffffffffffffffffffffffff16815f015f6101000a81548173ffffffffffffffffffffffffffffffffffffffff021916908373ffffffffffffffffffffffffffffffffffffffff16021790555060018201548160010155600282018160020190816116c59190612928565b50600382015f9054906101000a900460ff16816003015f6101000a81548160ff02191690831515021790555050509160040191906004019061163a565b5b5090506117109190611714565b5090565b5b80821115611775575f8082015f6101000a81549073ffffffffffffffffffffffffffffffffffffffff0219169055600182015f9055600282015f6117599190611779565b600382015f6101000a81549060ff021916905550600401611715565b5090565b5080546117859061247b565b5f825580601f1061179657506117b3565b601f0160209004905f5260205f20908101906117b291906117b6565b5b50565b5b808211156117cd575f815f9055506001016117b7565b5090565b5f604051905090565b5f80fd5b5f80fd5b5f819050919050565b6117f4816117e2565b81146117fe575f80fd5b50565b5f8135905061180f816117eb565b92915050565b5f6020828403121561182a576118296117da565b5b5f61183784828501611801565b91505092915050565b5f81519050919050565b5f82825260208201905092915050565b5f819050602082019050919050565b5f73ffffffffffffffffffffffffffffffffffffffff82169050919050565b5f61189282611869565b9050919050565b6118a281611888565b82525050565b5f6118b38383611899565b60208301905092915050565b5f602082019050919050565b5f6118d582611840565b6118df818561184a565b93506118ea8361185a565b805f5b8381101561191a57815161190188826118a8565b975061190c836118bf565b9250506001810190506118ed565b5085935050505092915050565b5f6020820190508181035f83015261193f81846118cb565b905092915050565b61195081611888565b811461195a575f80fd5b50565b5f8135905061196b81611947565b92915050565b5f8060408385031215611987576119866117da565b5b5f61199485828601611801565b92505060206119a58582860161195d565b9150509250929050565b5f80604083850312156119c5576119c46117da565b5b5f6119d285828601611801565b92505060206119e385828601611801565b9150509250929050565b6119f681611888565b82525050565b5f819050919050565b611a0e816119fc565b82525050565b5f81519050919050565b5f82825260208201905092915050565b5f5b83811015611a4b578082015181840152602081019050611a30565b5f8484015250505050565b5f601f19601f8301169050919050565b5f611a7082611a14565b611a7a8185611a1e565b9350611a8a818560208601611a2e565b611a9381611a56565b840191505092915050565b5f8115159050919050565b611ab281611a9e565b82525050565b5f608082019050611acb5f8301876119ed565b611ad86020830186611a05565b8181036040830152611aea8185611a66565b9050611af96060830184611aa9565b95945050505050565b5f81519050919050565b5f82825260208201905092915050565b5f819050602082019050919050565b5f81519050919050565b5f82825260208201905092915050565b5f611b4f82611b2b565b611b598185611b35565b9350611b69818560208601611a2e565b611b7281611a56565b840191505092915050565b611b86816117e2565b82525050565b5f60e083015f830151611ba15f860182611899565b5060208301518482036020860152611bb98282611b45565b91505060408301518482036040860152611bd38282611b45565b9150506060830151611be86060860182611b7d565b506080830151611bfb6080860182611b7d565b5060a0830151611c0e60a0860182611b7d565b5060c083015184820360c0860152611c268282611b45565b9150508091505092915050565b5f611c3e8383611b8c565b905092915050565b5f602082019050919050565b5f611c5c82611b02565b611c668185611b0c565b935083602082028501611c7885611b1c565b805f5b85811015611cb35784840389528151611c948582611c33565b9450611c9f83611c46565b925060208a01995050600181019050611c7b565b50829750879550505050505092915050565b5f6020820190508181035f830152611cdd8184611c52565b905092915050565b5f82825260208201905092915050565b5f611cff82611b2b565b611d098185611ce5565b9350611d19818560208601611a2e565b611d2281611a56565b840191505092915050565b611d36816117e2565b82525050565b5f60e082019050611d4f5f83018a6119ed565b8181036020830152611d618189611cf5565b90508181036040830152611d758188611cf5565b9050611d846060830187611d2d565b611d916080830186611d2d565b611d9e60a0830185611d2d565b81810360c0830152611db08184611cf5565b905098975050505050505050565b5f81519050919050565b5f82825260208201905092915050565b5f819050602082019050919050565b611df0816119fc565b82525050565b5f82825260208201905092915050565b5f611e1082611a14565b611e1a8185611df6565b9350611e2a818560208601611a2e565b611e3381611a56565b840191505092915050565b611e4781611a9e565b82525050565b5f608083015f830151611e625f860182611899565b506020830151611e756020860182611de7565b5060408301518482036040860152611e8d8282611e06565b9150506060830151611ea26060860182611e3e565b508091505092915050565b5f611eb88383611e4d565b905092915050565b5f602082019050919050565b5f611ed682611dbe565b611ee08185611dc8565b935083602082028501611ef285611dd8565b805f5b85811015611f2d5784840389528151611f0e8582611ead565b9450611f1983611ec0565b925060208a01995050600181019050611ef5565b50829750879550505050505092915050565b5f6020820190508181035f830152611f578184611ecc565b905092915050565b5f80fd5b5f80fd5b7f4e487b71000000000000000000000000000000000000000000000000000000005f52604160045260245ffd5b611f9d82611a56565b810181811067ffffffffffffffff82111715611fbc57611fbb611f67565b5b80604052505050565b5f611fce6117d1565b9050611fda8282611f94565b919050565b5f67ffffffffffffffff821115611ff957611ff8611f67565b5b61200282611a56565b9050602081019050919050565b828183375f83830152505050565b5f61202f61202a84611fdf565b611fc5565b90508281526020810184848401111561204b5761204a611f63565b5b61205684828561200f565b509392505050565b5f82601f83011261207257612071611f5f565b5b813561208284826020860161201d565b91505092915050565b612094816119fc565b811461209e575f80fd5b50565b5f813590506120af8161208b565b92915050565b5f805f606084860312156120cc576120cb6117da565b5b5f6120d986828701611801565b935050602084013567ffffffffffffffff8111156120fa576120f96117de565b5b6121068682870161205e565b9250506040612117868287016120a1565b9150509250925092565b5f6020820190506121345f830184611d2d565b92915050565b5f67ffffffffffffffff82111561215457612153611f67565b5b61215d82611a56565b9050602081019050919050565b5f61217c6121778461213a565b611fc5565b90508281526020810184848401111561219857612197611f63565b5b6121a384828561200f565b509392505050565b5f82601f8301126121bf576121be611f5f565b5b81356121cf84826020860161216a565b91505092915050565b5f805f805f805f80610100898b0312156121f5576121f46117da565b5b5f89013567ffffffffffffffff811115612212576122116117de565b5b61221e8b828c016121ab565b985050602089013567ffffffffffffffff81111561223f5761223e6117de565b5b61224b8b828c016121ab565b975050604061225c8b828c01611801565b965050606061226d8b828c01611801565b955050608061227e8b828c01611801565b94505060a089013567ffffffffffffffff81111561229f5761229e6117de565b5b6122ab8b828c016121ab565b93505060c089013567ffffffffffffffff8111156122cc576122cb6117de565b5b6122d88b828c0161205e565b92505060e06122e98b828c016120a1565b9150509295985092959890939650565b7f537570706c656d656e74206e6f7420666f756e642e00000000000000000000005f82015250565b5f61232d601583611ce5565b9150612338826122f9565b602082019050919050565b5f6020820190508181035f83015261235a81612321565b9050919050565b7f4e487b71000000000000000000000000000000000000000000000000000000005f52603260045260245ffd5b7f4e487b71000000000000000000000000000000000000000000000000000000005f52601160045260245ffd5b5f6123c5826117e2565b91506123d0836117e2565b92508282039050818111156123e8576123e761238e565b5b92915050565b5f6123f8826117e2565b9150612403836117e2565b925082820190508082111561241b5761241a61238e565b5b92915050565b7f4e487b71000000000000000000000000000000000000000000000000000000005f52603160045260245ffd5b7f4e487b71000000000000000000000000000000000000000000000000000000005f52602260045260245ffd5b5f600282049050600182168061249257607f821691505b6020821081036124a5576124a461244e565b5b50919050565b7f4f6e6c7920617574686f72697a656420706172746965732063616e207369676e5f8201527f2074686520737570706c656d656e742e00000000000000000000000000000000602082015250565b5f612505603083611ce5565b9150612510826124ab565b604082019050919050565b5f6020820190508181035f830152612532816124f9565b9050919050565b5f819050815f5260205f209050919050565b5f6020601f8301049050919050565b5f82821b905092915050565b5f600883026125957fffffffffffffffffffffffffffffffffffffffffffffffffffffffffffffffff8261255a565b61259f868361255a565b95508019841693508086168417925050509392505050565b5f819050919050565b5f6125da6125d56125d0846117e2565b6125b7565b6117e2565b9050919050565b5f819050919050565b6125f3836125c0565b6126076125ff826125e1565b848454612566565b825550505050565b5f90565b61261b61260f565b6126268184846125ea565b505050565b5b818110156126495761263e5f82612613565b60018101905061262c565b5050565b601f82111561268e5761265f81612539565b6126688461254b565b81016020851015612677578190505b61268b6126838561254b565b83018261262b565b50505b505050565b5f82821c905092915050565b5f6126ae5f1984600802612693565b1980831691505092915050565b5f6126c6838361269f565b9150826002028217905092915050565b6126df82611a14565b67ffffffffffffffff8111156126f8576126f7611f67565b5b612702825461247b565b61270d82828561264d565b5f60209050601f83116001811461273e575f841561272c578287015190505b61273685826126bb565b86555061279d565b601f19841661274c86612539565b5f5b828110156127735784890151825560018201915060208501945060208101905061274e565b86831015612790578489015161278c601f89168261269f565b8355505b6001600288020188555050505b505050505050565b5f819050815f5260205f209050919050565b601f8211156127f8576127c9816127a5565b6127d28461254b565b810160208510156127e1578190505b6127f56127ed8561254b565b83018261262b565b50505b505050565b61280682611b2b565b67ffffffffffffffff81111561281f5761281e611f67565b5b612829825461247b565b6128348282856127b7565b5f60209050601f831160018114612865575f8415612853578287015190505b61285d85826126bb565b8655506128c4565b601f198416612873866127a5565b5f5b8281101561289a57848901518255600182019150602085019450602081019050612875565b868310156128b757848901516128b3601f89168261269f565b8355505b6001600288020188555050505b505050505050565b5f6128d6826117e2565b91507fffffffffffffffffffffffffffffffffffffffffffffffffffffffffffffffff82036129085761290761238e565b5b600182019050919050565b5f815490506129218161247b565b9050919050565b818103612936575050612a0b565b61293f82612913565b67ffffffffffffffff81111561295857612957611f67565b5b612962825461247b565b61296d82828561264d565b5f601f83116001811461299a575f8415612988578287015490505b61299285826126bb565b865550612a04565b601f1984166129a887612539565b96506129b386612539565b5f5b828110156129da578489015482556001820191506001850194506020810190506129b5565b868310156129f757848901546129f3601f89168261269f565b8355505b6001600288020188555050505b5050505050505b56fea26469706673582212202e9835e01e5f97da83f744d1281f1d4a58768bc16585a3f567cde438c77a678c64736f6c63430008160033",
					"opcodes": "PUSH1 0x80 PUSH1 0x40 MSTORE PUSH0 PUSH1 0x3 SSTORE CALLVALUE DUP1 ISZERO PUSH2 0x13 JUMPI PUSH0 DUP1 REVERT JUMPDEST POP PUSH2 0x2A43 DUP1 PUSH2 0x21 PUSH0 CODECOPY PUSH0 RETURN INVALID PUSH1 0x80 PUSH1 0x40 MSTORE CALLVALUE DUP1 ISZERO PUSH2 0xF JUMPI PUSH0 DUP1 REVERT JUMPDEST POP PUSH1 0x4 CALLDATASIZE LT PUSH2 0xA7 JUMPI PUSH0 CALLDATALOAD PUSH1 0xE0 SHR DUP1 PUSH4 0x2C290E4E GT PUSH2 0x6F JUMPI DUP1 PUSH4 0x2C290E4E EQ PUSH2 0x17E JUMPI DUP1 PUSH4 0x37A01230 EQ PUSH2 0x1AE JUMPI DUP1 PUSH4 0x3DA1F79A EQ PUSH2 0x1CA JUMPI DUP1 PUSH4 0xBBE3D522 EQ PUSH2 0x1E6 JUMPI DUP1 PUSH4 0xC0C1E2ED EQ PUSH2 0x202 JUMPI DUP1 PUSH4 0xF1C98BA2 EQ PUSH2 0x220 JUMPI PUSH2 0xA7 JUMP JUMPDEST DUP1 PUSH4 0x69E8CFF EQ PUSH2 0xAB JUMPI DUP1 PUSH4 0xB2BAF40 EQ PUSH2 0xDB JUMPI DUP1 PUSH4 0xF86126E EQ PUSH2 0xF7 JUMPI DUP1 PUSH4 0x2B39FED7 EQ PUSH2 0x12A JUMPI DUP1 PUSH4 0x2B5ACD6C EQ PUSH2 0x148 JUMPI JUMPDEST PUSH0 DUP1 REVERT JUMPDEST PUSH2 0xC5 PUSH1 0x4 DUP1 CALLDATASIZE SUB DUP2 ADD SWAP1 PUSH2 0xC0 SWAP2 SWAP1 PUSH2 0x1815 JUMP JUMPDEST PUSH2 0x23C JUMP JUMPDEST PUSH1 0x40 MLOAD PUSH2 0xD2 SWAP2 SWAP1 PUSH2 0x1927 JUMP JUMPDEST PUSH1 0x40 MLOAD DUP1 SWAP2 SUB SWAP1 RETURN JUMPDEST PUSH2 0xF5 PUSH1 0x4 DUP1 CALLDATASIZE SUB DUP2 ADD SWAP1 PUSH2 0xF0 SWAP2 SWAP1 PUSH2 0x1971 JUMP JUMPDEST PUSH2 0x3AF JUMP JUMPDEST STOP JUMPDEST PUSH2 0x111 PUSH1 0x4 DUP1 CALLDATASIZE SUB DUP2 ADD SWAP1 PUSH2 0x10C SWAP2 SWAP1 PUSH2 0x19AF JUMP JUMPDEST PUSH2 0x5A7 JUMP JUMPDEST PUSH1 0x40 MLOAD PUSH2 0x121 SWAP5 SWAP4 SWAP3 SWAP2 SWAP1 PUSH2 0x1AB8 JUMP JUMPDEST PUSH1 0x40 MLOAD DUP1 SWAP2 SUB SWAP1 RETURN JUMPDEST PUSH2 0x132 PUSH2 0x69E JUMP JUMPDEST PUSH1 0x40 MLOAD PUSH2 0x13F SWAP2 SWAP1 PUSH2 0x1CC5 JUMP JUMPDEST PUSH1 0x40 MLOAD DUP1 SWAP2 SUB SWAP1 RETURN JUMPDEST PUSH2 0x162 PUSH1 0x4 DUP1 CALLDATASIZE SUB DUP2 ADD SWAP1 PUSH2 0x15D SWAP2 SWAP1 PUSH2 0x1815 JUMP JUMPDEST PUSH2 0x975 JUMP JUMPDEST PUSH1 0x40 MLOAD PUSH2 0x175 SWAP8 SWAP7 SWAP6 SWAP5 SWAP4 SWAP3 SWAP2 SWAP1 PUSH2 0x1D3C JUMP JUMPDEST PUSH1 0x40 MLOAD DUP1 SWAP2 SUB SWAP1 RETURN JUMPDEST PUSH2 0x198 PUSH1 0x4 DUP1 CALLDATASIZE SUB DUP2 ADD SWAP1 PUSH2 0x193 SWAP2 SWAP1 PUSH2 0x1815 JUMP JUMPDEST PUSH2 0xB63 JUMP JUMPDEST PUSH1 0x40 MLOAD PUSH2 0x1A5 SWAP2 SWAP1 PUSH2 0x1F3F JUMP JUMPDEST PUSH1 0x40 MLOAD DUP1 SWAP2 SUB SWAP1 RETURN JUMPDEST PUSH2 0x1C8 PUSH1 0x4 DUP1 CALLDATASIZE SUB DUP2 ADD SWAP1 PUSH2 0x1C3 SWAP2 SWAP1 PUSH2 0x1971 JUMP JUMPDEST PUSH2 0xDD0 JUMP JUMPDEST STOP JUMPDEST PUSH2 0x1E4 PUSH1 0x4 DUP1 CALLDATASIZE SUB DUP2 ADD SWAP1 PUSH2 0x1DF SWAP2 SWAP1 PUSH2 0x1815 JUMP JUMPDEST PUSH2 0xE87 JUMP JUMPDEST STOP JUMPDEST PUSH2 0x200 PUSH1 0x4 DUP1 CALLDATASIZE SUB DUP2 ADD SWAP1 PUSH2 0x1FB SWAP2 SWAP1 PUSH2 0x20B5 JUMP JUMPDEST PUSH2 0xFEA JUMP JUMPDEST STOP JUMPDEST PUSH2 0x20A PUSH2 0x1197 JUMP JUMPDEST PUSH1 0x40 MLOAD PUSH2 0x217 SWAP2 SWAP1 PUSH2 0x2121 JUMP JUMPDEST PUSH1 0x40 MLOAD DUP1 SWAP2 SUB SWAP1 RETURN JUMPDEST PUSH2 0x23A PUSH1 0x4 DUP1 CALLDATASIZE SUB DUP2 ADD SWAP1 PUSH2 0x235 SWAP2 SWAP1 PUSH2 0x21D8 JUMP JUMPDEST PUSH2 0x119D JUMP JUMPDEST STOP JUMPDEST PUSH1 0x60 PUSH1 0x3 SLOAD DUP3 LT PUSH2 0x282 JUMPI PUSH1 0x40 MLOAD PUSH32 0x8C379A000000000000000000000000000000000000000000000000000000000 DUP2 MSTORE PUSH1 0x4 ADD PUSH2 0x279 SWAP1 PUSH2 0x2343 JUMP JUMPDEST PUSH1 0x40 MLOAD DUP1 SWAP2 SUB SWAP1 REVERT JUMPDEST PUSH0 PUSH1 0x2 PUSH0 DUP5 DUP2 MSTORE PUSH1 0x20 ADD SWAP1 DUP2 MSTORE PUSH1 0x20 ADD PUSH0 KECCAK256 DUP1 SLOAD SWAP1 POP PUSH8 0xFFFFFFFFFFFFFFFF DUP2 GT ISZERO PUSH2 0x2B1 JUMPI PUSH2 0x2B0 PUSH2 0x1F67 JUMP JUMPDEST JUMPDEST PUSH1 0x40 MLOAD SWAP1 DUP1 DUP3 MSTORE DUP1 PUSH1 0x20 MUL PUSH1 0x20 ADD DUP3 ADD PUSH1 0x40 MSTORE DUP1 ISZERO PUSH2 0x2DF JUMPI DUP2 PUSH1 0x20 ADD PUSH1 0x20 DUP3 MUL DUP1 CALLDATASIZE DUP4 CALLDATACOPY DUP1 DUP3 ADD SWAP2 POP POP SWAP1 POP JUMPDEST POP SWAP1 POP PUSH0 JUMPDEST PUSH1 0x2 PUSH0 DUP6 DUP2 MSTORE PUSH1 0x20 ADD SWAP1 DUP2 MSTORE PUSH1 0x20 ADD PUSH0 KECCAK256 DUP1 SLOAD SWAP1 POP DUP2 LT ISZERO PUSH2 0x3A5 JUMPI PUSH1 0x2 PUSH0 DUP6 DUP2 MSTORE PUSH1 0x20 ADD SWAP1 DUP2 MSTORE PUSH1 0x20 ADD PUSH0 KECCAK256 DUP2 DUP2 SLOAD DUP2 LT PUSH2 0x323 JUMPI PUSH2 0x322 PUSH2 0x2361 JUMP JUMPDEST JUMPDEST SWAP1 PUSH0 MSTORE PUSH1 0x20 PUSH0 KECCAK256 ADD PUSH0 SWAP1 SLOAD SWAP1 PUSH2 0x100 EXP SWAP1 DIV PUSH20 0xFFFFFFFFFFFFFFFFFFFFFFFFFFFFFFFFFFFFFFFF AND DUP3 DUP3 DUP2 MLOAD DUP2 LT PUSH2 0x35E JUMPI PUSH2 0x35D PUSH2 0x2361 JUMP JUMPDEST JUMPDEST PUSH1 0x20 MUL PUSH1 0x20 ADD ADD SWAP1 PUSH20 0xFFFFFFFFFFFFFFFFFFFFFFFFFFFFFFFFFFFFFFFF AND SWAP1 DUP2 PUSH20 0xFFFFFFFFFFFFFFFFFFFFFFFFFFFFFFFFFFFFFFFF AND DUP2 MSTORE POP POP DUP1 DUP1 PUSH1 0x1 ADD SWAP2 POP POP PUSH2 0x2E4 JUMP JUMPDEST POP DUP1 SWAP2 POP POP SWAP2 SWAP1 POP JUMP JUMPDEST PUSH1 0x3 SLOAD DUP3 LT PUSH2 0x3F3 JUMPI PUSH1 0x40 MLOAD PUSH32 0x8C379A000000000000000000000000000000000000000000000000000000000 DUP2 MSTORE PUSH1 0x4 ADD PUSH2 0x3EA SWAP1 PUSH2 0x2343 JUMP JUMPDEST PUSH1 0x40 MLOAD DUP1 SWAP2 SUB SWAP1 REVERT JUMPDEST PUSH0 PUSH1 0x2 PUSH0 DUP5 DUP2 MSTORE PUSH1 0x20 ADD SWAP1 DUP2 MSTORE PUSH1 0x20 ADD PUSH0 KECCAK256 SWAP1 POP PUSH0 JUMPDEST DUP2 DUP1 SLOAD SWAP1 POP DUP2 LT ISZERO PUSH2 0x5A1 JUMPI DUP3 PUSH20 0xFFFFFFFFFFFFFFFFFFFFFFFFFFFFFFFFFFFFFFFF AND DUP3 DUP3 DUP2 SLOAD DUP2 LT PUSH2 0x43F JUMPI PUSH2 0x43E PUSH2 0x2361 JUMP JUMPDEST JUMPDEST SWAP1 PUSH0 MSTORE PUSH1 0x20 PUSH0 KECCAK256 ADD PUSH0 SWAP1 SLOAD SWAP1 PUSH2 0x100 EXP SWAP1 DIV PUSH20 0xFFFFFFFFFFFFFFFFFFFFFFFFFFFFFFFFFFFFFFFF AND PUSH20 0xFFFFFFFFFFFFFFFFFFFFFFFFFFFFFFFFFFFFFFFF AND SUB PUSH2 0x594 JUMPI PUSH0 DUP2 SWAP1 POP JUMPDEST PUSH1 0x1 DUP4 DUP1 SLOAD SWAP1 POP PUSH2 0x498 SWAP2 SWAP1 PUSH2 0x23BB JUMP JUMPDEST DUP2 LT ISZERO PUSH2 0x54B JUMPI DUP3 PUSH1 0x1 DUP3 PUSH2 0x4AD SWAP2 SWAP1 PUSH2 0x23EE JUMP JUMPDEST DUP2 SLOAD DUP2 LT PUSH2 0x4BE JUMPI PUSH2 0x4BD PUSH2 0x2361 JUMP JUMPDEST JUMPDEST SWAP1 PUSH0 MSTORE PUSH1 0x20 PUSH0 KECCAK256 ADD PUSH0 SWAP1 SLOAD SWAP1 PUSH2 0x100 EXP SWAP1 DIV PUSH20 0xFFFFFFFFFFFFFFFFFFFFFFFFFFFFFFFFFFFFFFFF AND DUP4 DUP3 DUP2 SLOAD DUP2 LT PUSH2 0x4F9 JUMPI PUSH2 0x4F8 PUSH2 0x2361 JUMP JUMPDEST JUMPDEST SWAP1 PUSH0 MSTORE PUSH1 0x20 PUSH0 KECCAK256 ADD PUSH0 PUSH2 0x100 EXP DUP2 SLOAD DUP2 PUSH20 0xFFFFFFFFFFFFFFFFFFFFFFFFFFFFFFFFFFFFFFFF MUL NOT AND SWAP1 DUP4 PUSH20 0xFFFFFFFFFFFFFFFFFFFFFFFFFFFFFFFFFFFFFFFF AND MUL OR SWAP1 SSTORE POP DUP1 DUP1 PUSH1 0x1 ADD SWAP2 POP POP PUSH2 0x487 JUMP JUMPDEST POP DUP2 DUP1 SLOAD DUP1 PUSH2 0x55D JUMPI PUSH2 0x55C PUSH2 0x2421 JUMP JUMPDEST JUMPDEST PUSH1 0x1 SWAP1 SUB DUP2 DUP2 SWAP1 PUSH0 MSTORE PUSH1 0x20 PUSH0 KECCAK256 ADD PUSH0 PUSH2 0x100 EXP DUP2 SLOAD SWAP1 PUSH20 0xFFFFFFFFFFFFFFFFFFFFFFFFFFFFFFFFFFFFFFFF MUL NOT AND SWAP1 SSTORE SWAP1 SSTORE PUSH2 0x5A1 JUMP JUMPDEST DUP1 DUP1 PUSH1 0x1 ADD SWAP2 POP POP PUSH2 0x409 JUMP JUMPDEST POP POP POP POP JUMP JUMPDEST PUSH1 0x1 PUSH1 0x20 MSTORE DUP2 PUSH0 MSTORE PUSH1 0x40 PUSH0 KECCAK256 DUP2 DUP2 SLOAD DUP2 LT PUSH2 0x5C0 JUMPI PUSH0 DUP1 REVERT JUMPDEST SWAP1 PUSH0 MSTORE PUSH1 0x20 PUSH0 KECCAK256 SWAP1 PUSH1 0x4 MUL ADD PUSH0 SWAP2 POP SWAP2 POP POP DUP1 PUSH0 ADD PUSH0 SWAP1 SLOAD SWAP1 PUSH2 0x100 EXP SWAP1 DIV PUSH20 0xFFFFFFFFFFFFFFFFFFFFFFFFFFFFFFFFFFFFFFFF AND SWAP1 DUP1 PUSH1 0x1 ADD SLOAD SWAP1 DUP1 PUSH1 0x2 ADD DUP1 SLOAD PUSH2 0x60B SWAP1 PUSH2 0x247B JUMP JUMPDEST DUP1 PUSH1 0x1F ADD PUSH1 0x20 DUP1 SWAP2 DIV MUL PUSH1 0x20 ADD PUSH1 0x40 MLOAD SWAP1 DUP2 ADD PUSH1 0x40 MSTORE DUP1 SWAP3 SWAP2 SWAP1 DUP2 DUP2 MSTORE PUSH1 0x20 ADD DUP3 DUP1 SLOAD PUSH2 0x637 SWAP1 PUSH2 0x247B JUMP JUMPDEST DUP1 ISZERO PUSH2 0x682 JUMPI DUP1 PUSH1 0x1F LT PUSH2 0x659 JUMPI PUSH2 0x100 DUP1 DUP4 SLOAD DIV MUL DUP4 MSTORE SWAP2 PUSH1 0x20 ADD SWAP2 PUSH2 0x682 JUMP JUMPDEST DUP3 ADD SWAP2 SWAP1 PUSH0 MSTORE PUSH1 0x20 PUSH0 KECCAK256 SWAP1 JUMPDEST DUP2 SLOAD DUP2 MSTORE SWAP1 PUSH1 0x1 ADD SWAP1 PUSH1 0x20 ADD DUP1 DUP4 GT PUSH2 0x665 JUMPI DUP3 SWAP1 SUB PUSH1 0x1F AND DUP3 ADD SWAP2 JUMPDEST POP POP POP POP POP SWAP1 DUP1 PUSH1 0x3 ADD PUSH0 SWAP1 SLOAD SWAP1 PUSH2 0x100 EXP SWAP1 DIV PUSH1 0xFF AND SWAP1 POP DUP5 JUMP JUMPDEST PUSH1 0x60 PUSH0 PUSH1 0x3 SLOAD PUSH8 0xFFFFFFFFFFFFFFFF DUP2 GT ISZERO PUSH2 0x6BD JUMPI PUSH2 0x6BC PUSH2 0x1F67 JUMP JUMPDEST JUMPDEST PUSH1 0x40 MLOAD SWAP1 DUP1 DUP3 MSTORE DUP1 PUSH1 0x20 MUL PUSH1 0x20 ADD DUP3 ADD PUSH1 0x40 MSTORE DUP1 ISZERO PUSH2 0x6F6 JUMPI DUP2 PUSH1 0x20 ADD JUMPDEST PUSH2 0x6E3 PUSH2 0x1584 JUMP JUMPDEST DUP2 MSTORE PUSH1 0x20 ADD SWAP1 PUSH1 0x1 SWAP1 SUB SWAP1 DUP2 PUSH2 0x6DB JUMPI SWAP1 POP JUMPDEST POP SWAP1 POP PUSH0 JUMPDEST PUSH1 0x3 SLOAD DUP2 LT ISZERO PUSH2 0x96D JUMPI PUSH0 DUP1 DUP3 DUP2 MSTORE PUSH1 0x20 ADD SWAP1 DUP2 MSTORE PUSH1 0x20 ADD PUSH0 KECCAK256 PUSH1 0x40 MLOAD DUP1 PUSH1 0xE0 ADD PUSH1 0x40 MSTORE SWAP1 DUP2 PUSH0 DUP3 ADD PUSH0 SWAP1 SLOAD SWAP1 PUSH2 0x100 EXP SWAP1 DIV PUSH20 0xFFFFFFFFFFFFFFFFFFFFFFFFFFFFFFFFFFFFFFFF AND PUSH20 0xFFFFFFFFFFFFFFFFFFFFFFFFFFFFFFFFFFFFFFFF AND PUSH20 0xFFFFFFFFFFFFFFFFFFFFFFFFFFFFFFFFFFFFFFFF AND DUP2 MSTORE PUSH1 0x20 ADD PUSH1 0x1 DUP3 ADD DUP1 SLOAD PUSH2 0x784 SWAP1 PUSH2 0x247B JUMP JUMPDEST DUP1 PUSH1 0x1F ADD PUSH1 0x20 DUP1 SWAP2 DIV MUL PUSH1 0x20 ADD PUSH1 0x40 MLOAD SWAP1 DUP2 ADD PUSH1 0x40 MSTORE DUP1 SWAP3 SWAP2 SWAP1 DUP2 DUP2 MSTORE PUSH1 0x20 ADD DUP3 DUP1 SLOAD PUSH2 0x7B0 SWAP1 PUSH2 0x247B JUMP JUMPDEST DUP1 ISZERO PUSH2 0x7FB JUMPI DUP1 PUSH1 0x1F LT PUSH2 0x7D2 JUMPI PUSH2 0x100 DUP1 DUP4 SLOAD DIV MUL DUP4 MSTORE SWAP2 PUSH1 0x20 ADD SWAP2 PUSH2 0x7FB JUMP JUMPDEST DUP3 ADD SWAP2 SWAP1 PUSH0 MSTORE PUSH1 0x20 PUSH0 KECCAK256 SWAP1 JUMPDEST DUP2 SLOAD DUP2 MSTORE SWAP1 PUSH1 0x1 ADD SWAP1 PUSH1 0x20 ADD DUP1 DUP4 GT PUSH2 0x7DE JUMPI DUP3 SWAP1 SUB PUSH1 0x1F AND DUP3 ADD SWAP2 JUMPDEST POP POP POP POP POP DUP2 MSTORE PUSH1 0x20 ADD PUSH1 0x2 DUP3 ADD DUP1 SLOAD PUSH2 0x814 SWAP1 PUSH2 0x247B JUMP JUMPDEST DUP1 PUSH1 0x1F ADD PUSH1 0x20 DUP1 SWAP2 DIV MUL PUSH1 0x20 ADD PUSH1 0x40 MLOAD SWAP1 DUP2 ADD PUSH1 0x40 MSTORE DUP1 SWAP3 SWAP2 SWAP1 DUP2 DUP2 MSTORE PUSH1 0x20 ADD DUP3 DUP1 SLOAD PUSH2 0x840 SWAP1 PUSH2 0x247B JUMP JUMPDEST DUP1 ISZERO PUSH2 0x88B JUMPI DUP1 PUSH1 0x1F LT PUSH2 0x862 JUMPI PUSH2 0x100 DUP1 DUP4 SLOAD DIV MUL DUP4 MSTORE SWAP2 PUSH1 0x20 ADD SWAP2 PUSH2 0x88B JUMP JUMPDEST DUP3 ADD SWAP2 SWAP1 PUSH0 MSTORE PUSH1 0x20 PUSH0 KECCAK256 SWAP1 JUMPDEST DUP2 SLOAD DUP2 MSTORE SWAP1 PUSH1 0x1 ADD SWAP1 PUSH1 0x20 ADD DUP1 DUP4 GT PUSH2 0x86E JUMPI DUP3 SWAP1 SUB PUSH1 0x1F AND DUP3 ADD SWAP2 JUMPDEST POP POP POP POP POP DUP2 MSTORE PUSH1 0x20 ADD PUSH1 0x3 DUP3 ADD SLOAD DUP2 MSTORE PUSH1 0x20 ADD PUSH1 0x4 DUP3 ADD SLOAD DUP2 MSTORE PUSH1 0x20 ADD PUSH1 0x5 DUP3 ADD SLOAD DUP2 MSTORE PUSH1 0x20 ADD PUSH1 0x6 DUP3 ADD DUP1 SLOAD PUSH2 0x8C2 SWAP1 PUSH2 0x247B JUMP JUMPDEST DUP1 PUSH1 0x1F ADD PUSH1 0x20 DUP1 SWAP2 DIV MUL PUSH1 0x20 ADD PUSH1 0x40 MLOAD SWAP1 DUP2 ADD PUSH1 0x40 MSTORE DUP1 SWAP3 SWAP2 SWAP1 DUP2 DUP2 MSTORE PUSH1 0x20 ADD DUP3 DUP1 SLOAD PUSH2 0x8EE SWAP1 PUSH2 0x247B JUMP JUMPDEST DUP1 ISZERO PUSH2 0x939 JUMPI DUP1 PUSH1 0x1F LT PUSH2 0x910 JUMPI PUSH2 0x100 DUP1 DUP4 SLOAD DIV MUL DUP4 MSTORE SWAP2 PUSH1 0x20 ADD SWAP2 PUSH2 0x939 JUMP JUMPDEST DUP3 ADD SWAP2 SWAP1 PUSH0 MSTORE PUSH1 0x20 PUSH0 KECCAK256 SWAP1 JUMPDEST DUP2 SLOAD DUP2 MSTORE SWAP1 PUSH1 0x1 ADD SWAP1 PUSH1 0x20 ADD DUP1 DUP4 GT PUSH2 0x91C JUMPI DUP3 SWAP1 SUB PUSH1 0x1F AND DUP3 ADD SWAP2 JUMPDEST POP POP POP POP POP DUP2 MSTORE POP POP DUP3 DUP3 DUP2 MLOAD DUP2 LT PUSH2 0x955 JUMPI PUSH2 0x954 PUSH2 0x2361 JUMP JUMPDEST JUMPDEST PUSH1 0x20 MUL PUSH1 0x20 ADD ADD DUP2 SWAP1 MSTORE POP DUP1 DUP1 PUSH1 0x1 ADD SWAP2 POP POP PUSH2 0x6FB JUMP JUMPDEST POP DUP1 SWAP2 POP POP SWAP1 JUMP JUMPDEST PUSH0 PUSH1 0x20 MSTORE DUP1 PUSH0 MSTORE PUSH1 0x40 PUSH0 KECCAK256 PUSH0 SWAP2 POP SWAP1 POP DUP1 PUSH0 ADD PUSH0 SWAP1 SLOAD SWAP1 PUSH2 0x100 EXP SWAP1 DIV PUSH20 0xFFFFFFFFFFFFFFFFFFFFFFFFFFFFFFFFFFFFFFFF AND SWAP1 DUP1 PUSH1 0x1 ADD DUP1 SLOAD PUSH2 0x9B8 SWAP1 PUSH2 0x247B JUMP JUMPDEST DUP1 PUSH1 0x1F ADD PUSH1 0x20 DUP1 SWAP2 DIV MUL PUSH1 0x20 ADD PUSH1 0x40 MLOAD SWAP1 DUP2 ADD PUSH1 0x40 MSTORE DUP1 SWAP3 SWAP2 SWAP1 DUP2 DUP2 MSTORE PUSH1 0x20 ADD DUP3 DUP1 SLOAD PUSH2 0x9E4 SWAP1 PUSH2 0x247B JUMP JUMPDEST DUP1 ISZERO PUSH2 0xA2F JUMPI DUP1 PUSH1 0x1F LT PUSH2 0xA06 JUMPI PUSH2 0x100 DUP1 DUP4 SLOAD DIV MUL DUP4 MSTORE SWAP2 PUSH1 0x20 ADD SWAP2 PUSH2 0xA2F JUMP JUMPDEST DUP3 ADD SWAP2 SWAP1 PUSH0 MSTORE PUSH1 0x20 PUSH0 KECCAK256 SWAP1 JUMPDEST DUP2 SLOAD DUP2 MSTORE SWAP1 PUSH1 0x1 ADD SWAP1 PUSH1 0x20 ADD DUP1 DUP4 GT PUSH2 0xA12 JUMPI DUP3 SWAP1 SUB PUSH1 0x1F AND DUP3 ADD SWAP2 JUMPDEST POP POP POP POP POP SWAP1 DUP1 PUSH1 0x2 ADD DUP1 SLOAD PUSH2 0xA44 SWAP1 PUSH2 0x247B JUMP JUMPDEST DUP1 PUSH1 0x1F ADD PUSH1 0x20 DUP1 SWAP2 DIV MUL PUSH1 0x20 ADD PUSH1 0x40 MLOAD SWAP1 DUP2 ADD PUSH1 0x40 MSTORE DUP1 SWAP3 SWAP2 SWAP1 DUP2 DUP2 MSTORE PUSH1 0x20 ADD DUP3 DUP1 SLOAD PUSH2 0xA70 SWAP1 PUSH2 0x247B JUMP JUMPDEST DUP1 ISZERO PUSH2 0xABB JUMPI DUP1 PUSH1 0x1F LT PUSH2 0xA92 JUMPI PUSH2 0x100 DUP1 DUP4 SLOAD DIV MUL DUP4 MSTORE SWAP2 PUSH1 0x20 ADD SWAP2 PUSH2 0xABB JUMP JUMPDEST DUP3 ADD SWAP2 SWAP1 PUSH0 MSTORE PUSH1 0x20 PUSH0 KECCAK256 SWAP1 JUMPDEST DUP2 SLOAD DUP2 MSTORE SWAP1 PUSH1 0x1 ADD SWAP1 PUSH1 0x20 ADD DUP1 DUP4 GT PUSH2 0xA9E JUMPI DUP3 SWAP1 SUB PUSH1 0x1F AND DUP3 ADD SWAP2 JUMPDEST POP POP POP POP POP SWAP1 DUP1 PUSH1 0x3 ADD SLOAD SWAP1 DUP1 PUSH1 0x4 ADD SLOAD SWAP1 DUP1 PUSH1 0x5 ADD SLOAD SWAP1 DUP1 PUSH1 0x6 ADD DUP1 SLOAD PUSH2 0xAE2 SWAP1 PUSH2 0x247B JUMP JUMPDEST DUP1 PUSH1 0x1F ADD PUSH1 0x20 DUP1 SWAP2 DIV MUL PUSH1 0x20 ADD PUSH1 0x40 MLOAD SWAP1 DUP2 ADD PUSH1 0x40 MSTORE DUP1 SWAP3 SWAP2 SWAP1 DUP2 DUP2 MSTORE PUSH1 0x20 ADD DUP3 DUP1 SLOAD PUSH2 0xB0E SWAP1 PUSH2 0x247B JUMP JUMPDEST DUP1 ISZERO PUSH2 0xB59 JUMPI DUP1 PUSH1 0x1F LT PUSH2 0xB30 JUMPI PUSH2 0x100 DUP1 DUP4 SLOAD DIV MUL DUP4 MSTORE SWAP2 PUSH1 0x20 ADD SWAP2 PUSH2 0xB59 JUMP JUMPDEST DUP3 ADD SWAP2 SWAP1 PUSH0 MSTORE PUSH1 0x20 PUSH0 KECCAK256 SWAP1 JUMPDEST DUP2 SLOAD DUP2 MSTORE SWAP1 PUSH1 0x1 ADD SWAP1 PUSH1 0x20 ADD DUP1 DUP4 GT PUSH2 0xB3C JUMPI DUP3 SWAP1 SUB PUSH1 0x1F AND DUP3 ADD SWAP2 JUMPDEST POP POP POP POP POP SWAP1 POP DUP8 JUMP JUMPDEST PUSH1 0x60 PUSH1 0x3 SLOAD DUP3 LT PUSH2 0xBA9 JUMPI PUSH1 0x40 MLOAD PUSH32 0x8C379A000000000000000000000000000000000000000000000000000000000 DUP2 MSTORE PUSH1 0x4 ADD PUSH2 0xBA0 SWAP1 PUSH2 0x2343 JUMP JUMPDEST PUSH1 0x40 MLOAD DUP1 SWAP2 SUB SWAP1 REVERT JUMPDEST PUSH0 PUSH1 0x1 PUSH0 DUP5 DUP2 MSTORE PUSH1 0x20 ADD SWAP1 DUP2 MSTORE PUSH1 0x20 ADD PUSH0 KECCAK256 DUP1 SLOAD DUP1 PUSH1 0x20 MUL PUSH1 0x20 ADD PUSH1 0x40 MLOAD SWAP1 DUP2 ADD PUSH1 0x40 MSTORE DUP1 SWAP3 SWAP2 SWAP1 DUP2 DUP2 MSTORE PUSH1 0x20 ADD PUSH0 SWAP1 JUMPDEST DUP3 DUP3 LT ISZERO PUSH2 0xD12 JUMPI DUP4 DUP3 SWAP1 PUSH0 MSTORE PUSH1 0x20 PUSH0 KECCAK256 SWAP1 PUSH1 0x4 MUL ADD PUSH1 0x40 MLOAD DUP1 PUSH1 0x80 ADD PUSH1 0x40 MSTORE SWAP1 DUP2 PUSH0 DUP3 ADD PUSH0 SWAP1 SLOAD SWAP1 PUSH2 0x100 EXP SWAP1 DIV PUSH20 0xFFFFFFFFFFFFFFFFFFFFFFFFFFFFFFFFFFFFFFFF AND PUSH20 0xFFFFFFFFFFFFFFFFFFFFFFFFFFFFFFFFFFFFFFFF AND PUSH20 0xFFFFFFFFFFFFFFFFFFFFFFFFFFFFFFFFFFFFFFFF AND DUP2 MSTORE PUSH1 0x20 ADD PUSH1 0x1 DUP3 ADD SLOAD DUP2 MSTORE PUSH1 0x20 ADD PUSH1 0x2 DUP3 ADD DUP1 SLOAD PUSH2 0xC69 SWAP1 PUSH2 0x247B JUMP JUMPDEST DUP1 PUSH1 0x1F ADD PUSH1 0x20 DUP1 SWAP2 DIV MUL PUSH1 0x20 ADD PUSH1 0x40 MLOAD SWAP1 DUP2 ADD PUSH1 0x40 MSTORE DUP1 SWAP3 SWAP2 SWAP1 DUP2 DUP2 MSTORE PUSH1 0x20 ADD DUP3 DUP1 SLOAD PUSH2 0xC95 SWAP1 PUSH2 0x247B JUMP JUMPDEST DUP1 ISZERO PUSH2 0xCE0 JUMPI DUP1 PUSH1 0x1F LT PUSH2 0xCB7 JUMPI PUSH2 0x100 DUP1 DUP4 SLOAD DIV MUL DUP4 MSTORE SWAP2 PUSH1 0x20 ADD SWAP2 PUSH2 0xCE0 JUMP JUMPDEST DUP3 ADD SWAP2 SWAP1 PUSH0 MSTORE PUSH1 0x20 PUSH0 KECCAK256 SWAP1 JUMPDEST DUP2 SLOAD DUP2 MSTORE SWAP1 PUSH1 0x1 ADD SWAP1 PUSH1 0x20 ADD DUP1 DUP4 GT PUSH2 0xCC3 JUMPI DUP3 SWAP1 SUB PUSH1 0x1F AND DUP3 ADD SWAP2 JUMPDEST POP POP POP POP POP DUP2 MSTORE PUSH1 0x20 ADD PUSH1 0x3 DUP3 ADD PUSH0 SWAP1 SLOAD SWAP1 PUSH2 0x100 EXP SWAP1 DIV PUSH1 0xFF AND ISZERO ISZERO ISZERO ISZERO DUP2 MSTORE POP POP DUP2 MSTORE PUSH1 0x20 ADD SWAP1 PUSH1 0x1 ADD SWAP1 PUSH2 0xBDA JUMP JUMPDEST POP POP POP POP SWAP1 POP PUSH0 DUP2 MLOAD SWAP1 POP PUSH0 DUP2 PUSH8 0xFFFFFFFFFFFFFFFF DUP2 GT ISZERO PUSH2 0xD38 JUMPI PUSH2 0xD37 PUSH2 0x1F67 JUMP JUMPDEST JUMPDEST PUSH1 0x40 MLOAD SWAP1 DUP1 DUP3 MSTORE DUP1 PUSH1 0x20 MUL PUSH1 0x20 ADD DUP3 ADD PUSH1 0x40 MSTORE DUP1 ISZERO PUSH2 0xD71 JUMPI DUP2 PUSH1 0x20 ADD JUMPDEST PUSH2 0xD5E PUSH2 0x15D3 JUMP JUMPDEST DUP2 MSTORE PUSH1 0x20 ADD SWAP1 PUSH1 0x1 SWAP1 SUB SWAP1 DUP2 PUSH2 0xD56 JUMPI SWAP1 POP JUMPDEST POP SWAP1 POP PUSH0 JUMPDEST DUP3 DUP2 LT ISZERO PUSH2 0xDC4 JUMPI DUP4 DUP2 DUP2 MLOAD DUP2 LT PUSH2 0xD91 JUMPI PUSH2 0xD90 PUSH2 0x2361 JUMP JUMPDEST JUMPDEST PUSH1 0x20 MUL PUSH1 0x20 ADD ADD MLOAD DUP3 DUP3 DUP2 MLOAD DUP2 LT PUSH2 0xDAC JUMPI PUSH2 0xDAB PUSH2 0x2361 JUMP JUMPDEST JUMPDEST PUSH1 0x20 MUL PUSH1 0x20 ADD ADD DUP2 SWAP1 MSTORE POP DUP1 DUP1 PUSH1 0x1 ADD SWAP2 POP POP PUSH2 0xD76 JUMP JUMPDEST POP DUP1 SWAP4 POP POP POP POP SWAP2 SWAP1 POP JUMP JUMPDEST PUSH1 0x3 SLOAD DUP3 LT PUSH2 0xE14 JUMPI PUSH1 0x40 MLOAD PUSH32 0x8C379A000000000000000000000000000000000000000000000000000000000 DUP2 MSTORE PUSH1 0x4 ADD PUSH2 0xE0B SWAP1 PUSH2 0x2343 JUMP JUMPDEST PUSH1 0x40 MLOAD DUP1 SWAP2 SUB SWAP1 REVERT JUMPDEST PUSH1 0x2 PUSH0 DUP4 DUP2 MSTORE PUSH1 0x20 ADD SWAP1 DUP2 MSTORE PUSH1 0x20 ADD PUSH0 KECCAK256 DUP2 SWAP1 DUP1 PUSH1 0x1 DUP2 SLOAD ADD DUP1 DUP3 SSTORE DUP1 SWAP2 POP POP PUSH1 0x1 SWAP1 SUB SWAP1 PUSH0 MSTORE PUSH1 0x20 PUSH0 KECCAK256 ADD PUSH0 SWAP1 SWAP2 SWAP1 SWAP2 SWAP1 SWAP2 PUSH2 0x100 EXP DUP2 SLOAD DUP2 PUSH20 0xFFFFFFFFFFFFFFFFFFFFFFFFFFFFFFFFFFFFFFFF MUL NOT AND SWAP1 DUP4 PUSH20 0xFFFFFFFFFFFFFFFFFFFFFFFFFFFFFFFFFFFFFFFF AND MUL OR SWAP1 SSTORE POP POP POP JUMP JUMPDEST PUSH1 0x3 SLOAD DUP2 LT PUSH2 0xECB JUMPI PUSH1 0x40 MLOAD PUSH32 0x8C379A000000000000000000000000000000000000000000000000000000000 DUP2 MSTORE PUSH1 0x4 ADD PUSH2 0xEC2 SWAP1 PUSH2 0x2343 JUMP JUMPDEST PUSH1 0x40 MLOAD DUP1 SWAP2 SUB SWAP1 REVERT JUMPDEST PUSH0 PUSH1 0x1 PUSH0 DUP4 DUP2 MSTORE PUSH1 0x20 ADD SWAP1 DUP2 MSTORE PUSH1 0x20 ADD PUSH0 KECCAK256 SWAP1 POP PUSH0 JUMPDEST DUP2 DUP1 SLOAD SWAP1 POP DUP2 LT ISZERO PUSH2 0xFE5 JUMPI CALLER PUSH20 0xFFFFFFFFFFFFFFFFFFFFFFFFFFFFFFFFFFFFFFFF AND DUP3 DUP3 DUP2 SLOAD DUP2 LT PUSH2 0xF17 JUMPI PUSH2 0xF16 PUSH2 0x2361 JUMP JUMPDEST JUMPDEST SWAP1 PUSH0 MSTORE PUSH1 0x20 PUSH0 KECCAK256 SWAP1 PUSH1 0x4 MUL ADD PUSH0 ADD PUSH0 SWAP1 SLOAD SWAP1 PUSH2 0x100 EXP SWAP1 DIV PUSH20 0xFFFFFFFFFFFFFFFFFFFFFFFFFFFFFFFFFFFFFFFF AND PUSH20 0xFFFFFFFFFFFFFFFFFFFFFFFFFFFFFFFFFFFFFFFF AND EQ DUP1 ISZERO PUSH2 0xF94 JUMPI POP DUP2 DUP2 DUP2 SLOAD DUP2 LT PUSH2 0xF76 JUMPI PUSH2 0xF75 PUSH2 0x2361 JUMP JUMPDEST JUMPDEST SWAP1 PUSH0 MSTORE PUSH1 0x20 PUSH0 KECCAK256 SWAP1 PUSH1 0x4 MUL ADD PUSH1 0x3 ADD PUSH0 SWAP1 SLOAD SWAP1 PUSH2 0x100 EXP SWAP1 DIV PUSH1 0xFF AND ISZERO JUMPDEST ISZERO PUSH2 0xFD8 JUMPI PUSH1 0x1 DUP3 DUP3 DUP2 SLOAD DUP2 LT PUSH2 0xFAE JUMPI PUSH2 0xFAD PUSH2 0x2361 JUMP JUMPDEST JUMPDEST SWAP1 PUSH0 MSTORE PUSH1 0x20 PUSH0 KECCAK256 SWAP1 PUSH1 0x4 MUL ADD PUSH1 0x3 ADD PUSH0 PUSH2 0x100 EXP DUP2 SLOAD DUP2 PUSH1 0xFF MUL NOT AND SWAP1 DUP4 ISZERO ISZERO MUL OR SWAP1 SSTORE POP PUSH2 0xFE5 JUMP JUMPDEST DUP1 DUP1 PUSH1 0x1 ADD SWAP2 POP POP PUSH2 0xEE1 JUMP JUMPDEST POP POP POP JUMP JUMPDEST PUSH1 0x3 SLOAD DUP4 LT PUSH2 0x102E JUMPI PUSH1 0x40 MLOAD PUSH32 0x8C379A000000000000000000000000000000000000000000000000000000000 DUP2 MSTORE PUSH1 0x4 ADD PUSH2 0x1025 SWAP1 PUSH2 0x2343 JUMP JUMPDEST PUSH1 0x40 MLOAD DUP1 SWAP2 SUB SWAP1 REVERT JUMPDEST PUSH2 0x1038 CALLER DUP5 PUSH2 0x142D JUMP JUMPDEST PUSH2 0x1077 JUMPI PUSH1 0x40 MLOAD PUSH32 0x8C379A000000000000000000000000000000000000000000000000000000000 DUP2 MSTORE PUSH1 0x4 ADD PUSH2 0x106E SWAP1 PUSH2 0x251B JUMP JUMPDEST PUSH1 0x40 MLOAD DUP1 SWAP2 SUB SWAP1 REVERT JUMPDEST PUSH0 PUSH1 0x1 PUSH0 DUP6 DUP2 MSTORE PUSH1 0x20 ADD SWAP1 DUP2 MSTORE PUSH1 0x20 ADD PUSH0 KECCAK256 SWAP1 POP DUP1 PUSH1 0x40 MLOAD DUP1 PUSH1 0x80 ADD PUSH1 0x40 MSTORE DUP1 CALLER PUSH20 0xFFFFFFFFFFFFFFFFFFFFFFFFFFFFFFFFFFFFFFFF AND DUP2 MSTORE PUSH1 0x20 ADD DUP5 DUP2 MSTORE PUSH1 0x20 ADD DUP6 DUP2 MSTORE PUSH1 0x20 ADD PUSH0 ISZERO ISZERO DUP2 MSTORE POP SWAP1 DUP1 PUSH1 0x1 DUP2 SLOAD ADD DUP1 DUP3 SSTORE DUP1 SWAP2 POP POP PUSH1 0x1 SWAP1 SUB SWAP1 PUSH0 MSTORE PUSH1 0x20 PUSH0 KECCAK256 SWAP1 PUSH1 0x4 MUL ADD PUSH0 SWAP1 SWAP2 SWAP1 SWAP2 SWAP1 SWAP2 POP PUSH0 DUP3 ADD MLOAD DUP2 PUSH0 ADD PUSH0 PUSH2 0x100 EXP DUP2 SLOAD DUP2 PUSH20 0xFFFFFFFFFFFFFFFFFFFFFFFFFFFFFFFFFFFFFFFF MUL NOT AND SWAP1 DUP4 PUSH20 0xFFFFFFFFFFFFFFFFFFFFFFFFFFFFFFFFFFFFFFFF AND MUL OR SWAP1 SSTORE POP PUSH1 0x20 DUP3 ADD MLOAD DUP2 PUSH1 0x1 ADD SSTORE PUSH1 0x40 DUP3 ADD MLOAD DUP2 PUSH1 0x2 ADD SWAP1 DUP2 PUSH2 0x114E SWAP2 SWAP1 PUSH2 0x26D6 JUMP JUMPDEST POP PUSH1 0x60 DUP3 ADD MLOAD DUP2 PUSH1 0x3 ADD PUSH0 PUSH2 0x100 EXP DUP2 SLOAD DUP2 PUSH1 0xFF MUL NOT AND SWAP1 DUP4 ISZERO ISZERO MUL OR SWAP1 SSTORE POP POP POP DUP1 PUSH1 0x1 PUSH0 DUP7 DUP2 MSTORE PUSH1 0x20 ADD SWAP1 DUP2 MSTORE PUSH1 0x20 ADD PUSH0 KECCAK256 SWAP1 DUP1 SLOAD PUSH2 0x1190 SWAP3 SWAP2 SWAP1 PUSH2 0x1613 JUMP JUMPDEST POP POP POP POP POP JUMP JUMPDEST PUSH1 0x3 SLOAD DUP2 JUMP JUMPDEST PUSH1 0x40 MLOAD DUP1 PUSH1 0xE0 ADD PUSH1 0x40 MSTORE DUP1 CALLER PUSH20 0xFFFFFFFFFFFFFFFFFFFFFFFFFFFFFFFFFFFFFFFF AND DUP2 MSTORE PUSH1 0x20 ADD DUP10 DUP2 MSTORE PUSH1 0x20 ADD DUP9 DUP2 MSTORE PUSH1 0x20 ADD DUP8 DUP2 MSTORE PUSH1 0x20 ADD DUP7 DUP2 MSTORE PUSH1 0x20 ADD DUP6 DUP2 MSTORE PUSH1 0x20 ADD DUP5 DUP2 MSTORE POP PUSH0 DUP1 PUSH1 0x3 SLOAD DUP2 MSTORE PUSH1 0x20 ADD SWAP1 DUP2 MSTORE PUSH1 0x20 ADD PUSH0 KECCAK256 PUSH0 DUP3 ADD MLOAD DUP2 PUSH0 ADD PUSH0 PUSH2 0x100 EXP DUP2 SLOAD DUP2 PUSH20 0xFFFFFFFFFFFFFFFFFFFFFFFFFFFFFFFFFFFFFFFF MUL NOT AND SWAP1 DUP4 PUSH20 0xFFFFFFFFFFFFFFFFFFFFFFFFFFFFFFFFFFFFFFFF AND MUL OR SWAP1 SSTORE POP PUSH1 0x20 DUP3 ADD MLOAD DUP2 PUSH1 0x1 ADD SWAP1 DUP2 PUSH2 0x1251 SWAP2 SWAP1 PUSH2 0x27FD JUMP JUMPDEST POP PUSH1 0x40 DUP3 ADD MLOAD DUP2 PUSH1 0x2 ADD SWAP1 DUP2 PUSH2 0x1267 SWAP2 SWAP1 PUSH2 0x27FD JUMP JUMPDEST POP PUSH1 0x60 DUP3 ADD MLOAD DUP2 PUSH1 0x3 ADD SSTORE PUSH1 0x80 DUP3 ADD MLOAD DUP2 PUSH1 0x4 ADD SSTORE PUSH1 0xA0 DUP3 ADD MLOAD DUP2 PUSH1 0x5 ADD SSTORE PUSH1 0xC0 DUP3 ADD MLOAD DUP2 PUSH1 0x6 ADD SWAP1 DUP2 PUSH2 0x129B SWAP2 SWAP1 PUSH2 0x27FD JUMP JUMPDEST POP SWAP1 POP POP PUSH0 PUSH1 0x1 PUSH0 PUSH1 0x3 SLOAD DUP2 MSTORE PUSH1 0x20 ADD SWAP1 DUP2 MSTORE PUSH1 0x20 ADD PUSH0 KECCAK256 SWAP1 POP DUP1 PUSH1 0x40 MLOAD DUP1 PUSH1 0x80 ADD PUSH1 0x40 MSTORE DUP1 CALLER PUSH20 0xFFFFFFFFFFFFFFFFFFFFFFFFFFFFFFFFFFFFFFFF AND DUP2 MSTORE PUSH1 0x20 ADD DUP5 DUP2 MSTORE PUSH1 0x20 ADD DUP6 DUP2 MSTORE PUSH1 0x20 ADD PUSH0 ISZERO ISZERO DUP2 MSTORE POP SWAP1 DUP1 PUSH1 0x1 DUP2 SLOAD ADD DUP1 DUP3 SSTORE DUP1 SWAP2 POP POP PUSH1 0x1 SWAP1 SUB SWAP1 PUSH0 MSTORE PUSH1 0x20 PUSH0 KECCAK256 SWAP1 PUSH1 0x4 MUL ADD PUSH0 SWAP1 SWAP2 SWAP1 SWAP2 SWAP1 SWAP2 POP PUSH0 DUP3 ADD MLOAD DUP2 PUSH0 ADD PUSH0 PUSH2 0x100 EXP DUP2 SLOAD DUP2 PUSH20 0xFFFFFFFFFFFFFFFFFFFFFFFFFFFFFFFFFFFFFFFF MUL NOT AND SWAP1 DUP4 PUSH20 0xFFFFFFFFFFFFFFFFFFFFFFFFFFFFFFFFFFFFFFFF AND MUL OR SWAP1 SSTORE POP PUSH1 0x20 DUP3 ADD MLOAD DUP2 PUSH1 0x1 ADD SSTORE PUSH1 0x40 DUP3 ADD MLOAD DUP2 PUSH1 0x2 ADD SWAP1 DUP2 PUSH2 0x1378 SWAP2 SWAP1 PUSH2 0x26D6 JUMP JUMPDEST POP PUSH1 0x60 DUP3 ADD MLOAD DUP2 PUSH1 0x3 ADD PUSH0 PUSH2 0x100 EXP DUP2 SLOAD DUP2 PUSH1 0xFF MUL NOT AND SWAP1 DUP4 ISZERO ISZERO MUL OR SWAP1 SSTORE POP POP POP PUSH1 0x2 PUSH0 PUSH1 0x3 SLOAD DUP2 MSTORE PUSH1 0x20 ADD SWAP1 DUP2 MSTORE PUSH1 0x20 ADD PUSH0 KECCAK256 CALLER SWAP1 DUP1 PUSH1 0x1 DUP2 SLOAD ADD DUP1 DUP3 SSTORE DUP1 SWAP2 POP POP PUSH1 0x1 SWAP1 SUB SWAP1 PUSH0 MSTORE PUSH1 0x20 PUSH0 KECCAK256 ADD PUSH0 SWAP1 SWAP2 SWAP1 SWAP2 SWAP1 SWAP2 PUSH2 0x100 EXP DUP2 SLOAD DUP2 PUSH20 0xFFFFFFFFFFFFFFFFFFFFFFFFFFFFFFFFFFFFFFFF MUL NOT AND SWAP1 DUP4 PUSH20 0xFFFFFFFFFFFFFFFFFFFFFFFFFFFFFFFFFFFFFFFF AND MUL OR SWAP1 SSTORE POP PUSH1 0x3 PUSH0 DUP2 SLOAD DUP1 SWAP3 SWAP2 SWAP1 PUSH2 0x141D SWAP1 PUSH2 0x28CC JUMP JUMPDEST SWAP2 SWAP1 POP SSTORE POP POP POP POP POP POP POP POP POP POP JUMP JUMPDEST PUSH0 PUSH1 0x3 SLOAD DUP3 LT PUSH2 0x1472 JUMPI PUSH1 0x40 MLOAD PUSH32 0x8C379A000000000000000000000000000000000000000000000000000000000 DUP2 MSTORE PUSH1 0x4 ADD PUSH2 0x1469 SWAP1 PUSH2 0x2343 JUMP JUMPDEST PUSH1 0x40 MLOAD DUP1 SWAP2 SUB SWAP1 REVERT JUMPDEST PUSH0 PUSH1 0x2 PUSH0 DUP5 DUP2 MSTORE PUSH1 0x20 ADD SWAP1 DUP2 MSTORE PUSH1 0x20 ADD PUSH0 KECCAK256 DUP1 SLOAD DUP1 PUSH1 0x20 MUL PUSH1 0x20 ADD PUSH1 0x40 MLOAD SWAP1 DUP2 ADD PUSH1 0x40 MSTORE DUP1 SWAP3 SWAP2 SWAP1 DUP2 DUP2 MSTORE PUSH1 0x20 ADD DUP3 DUP1 SLOAD DUP1 ISZERO PUSH2 0x1501 JUMPI PUSH1 0x20 MUL DUP3 ADD SWAP2 SWAP1 PUSH0 MSTORE PUSH1 0x20 PUSH0 KECCAK256 SWAP1 JUMPDEST DUP2 PUSH0 SWAP1 SLOAD SWAP1 PUSH2 0x100 EXP SWAP1 DIV PUSH20 0xFFFFFFFFFFFFFFFFFFFFFFFFFFFFFFFFFFFFFFFF AND PUSH20 0xFFFFFFFFFFFFFFFFFFFFFFFFFFFFFFFFFFFFFFFF AND DUP2 MSTORE PUSH1 0x20 ADD SWAP1 PUSH1 0x1 ADD SWAP1 DUP1 DUP4 GT PUSH2 0x14B8 JUMPI JUMPDEST POP POP POP POP POP SWAP1 POP PUSH0 JUMPDEST DUP2 MLOAD DUP2 LT ISZERO PUSH2 0x1578 JUMPI DUP5 PUSH20 0xFFFFFFFFFFFFFFFFFFFFFFFFFFFFFFFFFFFFFFFF AND DUP3 DUP3 DUP2 MLOAD DUP2 LT PUSH2 0x153D JUMPI PUSH2 0x153C PUSH2 0x2361 JUMP JUMPDEST JUMPDEST PUSH1 0x20 MUL PUSH1 0x20 ADD ADD MLOAD PUSH20 0xFFFFFFFFFFFFFFFFFFFFFFFFFFFFFFFFFFFFFFFF AND SUB PUSH2 0x156B JUMPI PUSH1 0x1 SWAP3 POP POP POP PUSH2 0x157E JUMP JUMPDEST DUP1 DUP1 PUSH1 0x1 ADD SWAP2 POP POP PUSH2 0x150A JUMP JUMPDEST POP PUSH0 SWAP2 POP POP JUMPDEST SWAP3 SWAP2 POP POP JUMP JUMPDEST PUSH1 0x40 MLOAD DUP1 PUSH1 0xE0 ADD PUSH1 0x40 MSTORE DUP1 PUSH0 PUSH20 0xFFFFFFFFFFFFFFFFFFFFFFFFFFFFFFFFFFFFFFFF AND DUP2 MSTORE PUSH1 0x20 ADD PUSH1 0x60 DUP2 MSTORE PUSH1 0x20 ADD PUSH1 0x60 DUP2 MSTORE PUSH1 0x20 ADD PUSH0 DUP2 MSTORE PUSH1 0x20 ADD PUSH0 DUP2 MSTORE PUSH1 0x20 ADD PUSH0 DUP2 MSTORE PUSH1 0x20 ADD PUSH1 0x60 DUP2 MSTORE POP SWAP1 JUMP JUMPDEST PUSH1 0x40 MLOAD DUP1 PUSH1 0x80 ADD PUSH1 0x40 MSTORE DUP1 PUSH0 PUSH20 0xFFFFFFFFFFFFFFFFFFFFFFFFFFFFFFFFFFFFFFFF AND DUP2 MSTORE PUSH1 0x20 ADD PUSH0 DUP1 NOT AND DUP2 MSTORE PUSH1 0x20 ADD PUSH1 0x60 DUP2 MSTORE PUSH1 0x20 ADD PUSH0 ISZERO ISZERO DUP2 MSTORE POP SWAP1 JUMP JUMPDEST DUP3 DUP1 SLOAD DUP3 DUP3 SSTORE SWAP1 PUSH0 MSTORE PUSH1 0x20 PUSH0 KECCAK256 SWAP1 PUSH1 0x4 MUL DUP2 ADD SWAP3 DUP3 ISZERO PUSH2 0x1703 JUMPI PUSH0 MSTORE PUSH1 0x20 PUSH0 KECCAK256 SWAP2 PUSH1 0x4 MUL DUP3 ADD JUMPDEST DUP3 DUP2 GT ISZERO PUSH2 0x1702 JUMPI DUP3 DUP3 PUSH0 DUP3 ADD PUSH0 SWAP1 SLOAD SWAP1 PUSH2 0x100 EXP SWAP1 DIV PUSH20 0xFFFFFFFFFFFFFFFFFFFFFFFFFFFFFFFFFFFFFFFF AND DUP2 PUSH0 ADD PUSH0 PUSH2 0x100 EXP DUP2 SLOAD DUP2 PUSH20 0xFFFFFFFFFFFFFFFFFFFFFFFFFFFFFFFFFFFFFFFF MUL NOT AND SWAP1 DUP4 PUSH20 0xFFFFFFFFFFFFFFFFFFFFFFFFFFFFFFFFFFFFFFFF AND MUL OR SWAP1 SSTORE POP PUSH1 0x1 DUP3 ADD SLOAD DUP2 PUSH1 0x1 ADD SSTORE PUSH1 0x2 DUP3 ADD DUP2 PUSH1 0x2 ADD SWAP1 DUP2 PUSH2 0x16C5 SWAP2 SWAP1 PUSH2 0x2928 JUMP JUMPDEST POP PUSH1 0x3 DUP3 ADD PUSH0 SWAP1 SLOAD SWAP1 PUSH2 0x100 EXP SWAP1 DIV PUSH1 0xFF AND DUP2 PUSH1 0x3 ADD PUSH0 PUSH2 0x100 EXP DUP2 SLOAD DUP2 PUSH1 0xFF MUL NOT AND SWAP1 DUP4 ISZERO ISZERO MUL OR SWAP1 SSTORE POP POP POP SWAP2 PUSH1 0x4 ADD SWAP2 SWAP1 PUSH1 0x4 ADD SWAP1 PUSH2 0x163A JUMP JUMPDEST JUMPDEST POP SWAP1 POP PUSH2 0x1710 SWAP2 SWAP1 PUSH2 0x1714 JUMP JUMPDEST POP SWAP1 JUMP JUMPDEST JUMPDEST DUP1 DUP3 GT ISZERO PUSH2 0x1775 JUMPI PUSH0 DUP1 DUP3 ADD PUSH0 PUSH2 0x100 EXP DUP2 SLOAD SWAP1 PUSH20 0xFFFFFFFFFFFFFFFFFFFFFFFFFFFFFFFFFFFFFFFF MUL NOT AND SWAP1 SSTORE PUSH1 0x1 DUP3 ADD PUSH0 SWAP1 SSTORE PUSH1 0x2 DUP3 ADD PUSH0 PUSH2 0x1759 SWAP2 SWAP1 PUSH2 0x1779 JUMP JUMPDEST PUSH1 0x3 DUP3 ADD PUSH0 PUSH2 0x100 EXP DUP2 SLOAD SWAP1 PUSH1 0xFF MUL NOT AND SWAP1 SSTORE POP PUSH1 0x4 ADD PUSH2 0x1715 JUMP JUMPDEST POP SWAP1 JUMP JUMPDEST POP DUP1 SLOAD PUSH2 0x1785 SWAP1 PUSH2 0x247B JUMP JUMPDEST PUSH0 DUP3 SSTORE DUP1 PUSH1 0x1F LT PUSH2 0x1796 JUMPI POP PUSH2 0x17B3 JUMP JUMPDEST PUSH1 0x1F ADD PUSH1 0x20 SWAP1 DIV SWAP1 PUSH0 MSTORE PUSH1 0x20 PUSH0 KECCAK256 SWAP1 DUP2 ADD SWAP1 PUSH2 0x17B2 SWAP2 SWAP1 PUSH2 0x17B6 JUMP JUMPDEST JUMPDEST POP JUMP JUMPDEST JUMPDEST DUP1 DUP3 GT ISZERO PUSH2 0x17CD JUMPI PUSH0 DUP2 PUSH0 SWAP1 SSTORE POP PUSH1 0x1 ADD PUSH2 0x17B7 JUMP JUMPDEST POP SWAP1 JUMP JUMPDEST PUSH0 PUSH1 0x40 MLOAD SWAP1 POP SWAP1 JUMP JUMPDEST PUSH0 DUP1 REVERT JUMPDEST PUSH0 DUP1 REVERT JUMPDEST PUSH0 DUP2 SWAP1 POP SWAP2 SWAP1 POP JUMP JUMPDEST PUSH2 0x17F4 DUP2 PUSH2 0x17E2 JUMP JUMPDEST DUP2 EQ PUSH2 0x17FE JUMPI PUSH0 DUP1 REVERT JUMPDEST POP JUMP JUMPDEST PUSH0 DUP2 CALLDATALOAD SWAP1 POP PUSH2 0x180F DUP2 PUSH2 0x17EB JUMP JUMPDEST SWAP3 SWAP2 POP POP JUMP JUMPDEST PUSH0 PUSH1 0x20 DUP3 DUP5 SUB SLT ISZERO PUSH2 0x182A JUMPI PUSH2 0x1829 PUSH2 0x17DA JUMP JUMPDEST JUMPDEST PUSH0 PUSH2 0x1837 DUP5 DUP3 DUP6 ADD PUSH2 0x1801 JUMP JUMPDEST SWAP2 POP POP SWAP3 SWAP2 POP POP JUMP JUMPDEST PUSH0 DUP2 MLOAD SWAP1 POP SWAP2 SWAP1 POP JUMP JUMPDEST PUSH0 DUP3 DUP3 MSTORE PUSH1 0x20 DUP3 ADD SWAP1 POP SWAP3 SWAP2 POP POP JUMP JUMPDEST PUSH0 DUP2 SWAP1 POP PUSH1 0x20 DUP3 ADD SWAP1 POP SWAP2 SWAP1 POP JUMP JUMPDEST PUSH0 PUSH20 0xFFFFFFFFFFFFFFFFFFFFFFFFFFFFFFFFFFFFFFFF DUP3 AND SWAP1 POP SWAP2 SWAP1 POP JUMP JUMPDEST PUSH0 PUSH2 0x1892 DUP3 PUSH2 0x1869 JUMP JUMPDEST SWAP1 POP SWAP2 SWAP1 POP JUMP JUMPDEST PUSH2 0x18A2 DUP2 PUSH2 0x1888 JUMP JUMPDEST DUP3 MSTORE POP POP JUMP JUMPDEST PUSH0 PUSH2 0x18B3 DUP4 DUP4 PUSH2 0x1899 JUMP JUMPDEST PUSH1 0x20 DUP4 ADD SWAP1 POP SWAP3 SWAP2 POP POP JUMP JUMPDEST PUSH0 PUSH1 0x20 DUP3 ADD SWAP1 POP SWAP2 SWAP1 POP JUMP JUMPDEST PUSH0 PUSH2 0x18D5 DUP3 PUSH2 0x1840 JUMP JUMPDEST PUSH2 0x18DF DUP2 DUP6 PUSH2 0x184A JUMP JUMPDEST SWAP4 POP PUSH2 0x18EA DUP4 PUSH2 0x185A JUMP JUMPDEST DUP1 PUSH0 JUMPDEST DUP4 DUP2 LT ISZERO PUSH2 0x191A JUMPI DUP2 MLOAD PUSH2 0x1901 DUP9 DUP3 PUSH2 0x18A8 JUMP JUMPDEST SWAP8 POP PUSH2 0x190C DUP4 PUSH2 0x18BF JUMP JUMPDEST SWAP3 POP POP PUSH1 0x1 DUP2 ADD SWAP1 POP PUSH2 0x18ED JUMP JUMPDEST POP DUP6 SWAP4 POP POP POP POP SWAP3 SWAP2 POP POP JUMP JUMPDEST PUSH0 PUSH1 0x20 DUP3 ADD SWAP1 POP DUP2 DUP2 SUB PUSH0 DUP4 ADD MSTORE PUSH2 0x193F DUP2 DUP5 PUSH2 0x18CB JUMP JUMPDEST SWAP1 POP SWAP3 SWAP2 POP POP JUMP JUMPDEST PUSH2 0x1950 DUP2 PUSH2 0x1888 JUMP JUMPDEST DUP2 EQ PUSH2 0x195A JUMPI PUSH0 DUP1 REVERT JUMPDEST POP JUMP JUMPDEST PUSH0 DUP2 CALLDATALOAD SWAP1 POP PUSH2 0x196B DUP2 PUSH2 0x1947 JUMP JUMPDEST SWAP3 SWAP2 POP POP JUMP JUMPDEST PUSH0 DUP1 PUSH1 0x40 DUP4 DUP6 SUB SLT ISZERO PUSH2 0x1987 JUMPI PUSH2 0x1986 PUSH2 0x17DA JUMP JUMPDEST JUMPDEST PUSH0 PUSH2 0x1994 DUP6 DUP3 DUP7 ADD PUSH2 0x1801 JUMP JUMPDEST SWAP3 POP POP PUSH1 0x20 PUSH2 0x19A5 DUP6 DUP3 DUP7 ADD PUSH2 0x195D JUMP JUMPDEST SWAP2 POP POP SWAP3 POP SWAP3 SWAP1 POP JUMP JUMPDEST PUSH0 DUP1 PUSH1 0x40 DUP4 DUP6 SUB SLT ISZERO PUSH2 0x19C5 JUMPI PUSH2 0x19C4 PUSH2 0x17DA JUMP JUMPDEST JUMPDEST PUSH0 PUSH2 0x19D2 DUP6 DUP3 DUP7 ADD PUSH2 0x1801 JUMP JUMPDEST SWAP3 POP POP PUSH1 0x20 PUSH2 0x19E3 DUP6 DUP3 DUP7 ADD PUSH2 0x1801 JUMP JUMPDEST SWAP2 POP POP SWAP3 POP SWAP3 SWAP1 POP JUMP JUMPDEST PUSH2 0x19F6 DUP2 PUSH2 0x1888 JUMP JUMPDEST DUP3 MSTORE POP POP JUMP JUMPDEST PUSH0 DUP2 SWAP1 POP SWAP2 SWAP1 POP JUMP JUMPDEST PUSH2 0x1A0E DUP2 PUSH2 0x19FC JUMP JUMPDEST DUP3 MSTORE POP POP JUMP JUMPDEST PUSH0 DUP2 MLOAD SWAP1 POP SWAP2 SWAP1 POP JUMP JUMPDEST PUSH0 DUP3 DUP3 MSTORE PUSH1 0x20 DUP3 ADD SWAP1 POP SWAP3 SWAP2 POP POP JUMP JUMPDEST PUSH0 JUMPDEST DUP4 DUP2 LT ISZERO PUSH2 0x1A4B JUMPI DUP1 DUP3 ADD MLOAD DUP2 DUP5 ADD MSTORE PUSH1 0x20 DUP2 ADD SWAP1 POP PUSH2 0x1A30 JUMP JUMPDEST PUSH0 DUP5 DUP5 ADD MSTORE POP POP POP POP JUMP JUMPDEST PUSH0 PUSH1 0x1F NOT PUSH1 0x1F DUP4 ADD AND SWAP1 POP SWAP2 SWAP1 POP JUMP JUMPDEST PUSH0 PUSH2 0x1A70 DUP3 PUSH2 0x1A14 JUMP JUMPDEST PUSH2 0x1A7A DUP2 DUP6 PUSH2 0x1A1E JUMP JUMPDEST SWAP4 POP PUSH2 0x1A8A DUP2 DUP6 PUSH1 0x20 DUP7 ADD PUSH2 0x1A2E JUMP JUMPDEST PUSH2 0x1A93 DUP2 PUSH2 0x1A56 JUMP JUMPDEST DUP5 ADD SWAP2 POP POP SWAP3 SWAP2 POP POP JUMP JUMPDEST PUSH0 DUP2 ISZERO ISZERO SWAP1 POP SWAP2 SWAP1 POP JUMP JUMPDEST PUSH2 0x1AB2 DUP2 PUSH2 0x1A9E JUMP JUMPDEST DUP3 MSTORE POP POP JUMP JUMPDEST PUSH0 PUSH1 0x80 DUP3 ADD SWAP1 POP PUSH2 0x1ACB PUSH0 DUP4 ADD DUP8 PUSH2 0x19ED JUMP JUMPDEST PUSH2 0x1AD8 PUSH1 0x20 DUP4 ADD DUP7 PUSH2 0x1A05 JUMP JUMPDEST DUP2 DUP2 SUB PUSH1 0x40 DUP4 ADD MSTORE PUSH2 0x1AEA DUP2 DUP6 PUSH2 0x1A66 JUMP JUMPDEST SWAP1 POP PUSH2 0x1AF9 PUSH1 0x60 DUP4 ADD DUP5 PUSH2 0x1AA9 JUMP JUMPDEST SWAP6 SWAP5 POP POP POP POP POP JUMP JUMPDEST PUSH0 DUP2 MLOAD SWAP1 POP SWAP2 SWAP1 POP JUMP JUMPDEST PUSH0 DUP3 DUP3 MSTORE PUSH1 0x20 DUP3 ADD SWAP1 POP SWAP3 SWAP2 POP POP JUMP JUMPDEST PUSH0 DUP2 SWAP1 POP PUSH1 0x20 DUP3 ADD SWAP1 POP SWAP2 SWAP1 POP JUMP JUMPDEST PUSH0 DUP2 MLOAD SWAP1 POP SWAP2 SWAP1 POP JUMP JUMPDEST PUSH0 DUP3 DUP3 MSTORE PUSH1 0x20 DUP3 ADD SWAP1 POP SWAP3 SWAP2 POP POP JUMP JUMPDEST PUSH0 PUSH2 0x1B4F DUP3 PUSH2 0x1B2B JUMP JUMPDEST PUSH2 0x1B59 DUP2 DUP6 PUSH2 0x1B35 JUMP JUMPDEST SWAP4 POP PUSH2 0x1B69 DUP2 DUP6 PUSH1 0x20 DUP7 ADD PUSH2 0x1A2E JUMP JUMPDEST PUSH2 0x1B72 DUP2 PUSH2 0x1A56 JUMP JUMPDEST DUP5 ADD SWAP2 POP POP SWAP3 SWAP2 POP POP JUMP JUMPDEST PUSH2 0x1B86 DUP2 PUSH2 0x17E2 JUMP JUMPDEST DUP3 MSTORE POP POP JUMP JUMPDEST PUSH0 PUSH1 0xE0 DUP4 ADD PUSH0 DUP4 ADD MLOAD PUSH2 0x1BA1 PUSH0 DUP7 ADD DUP3 PUSH2 0x1899 JUMP JUMPDEST POP PUSH1 0x20 DUP4 ADD MLOAD DUP5 DUP3 SUB PUSH1 0x20 DUP7 ADD MSTORE PUSH2 0x1BB9 DUP3 DUP3 PUSH2 0x1B45 JUMP JUMPDEST SWAP2 POP POP PUSH1 0x40 DUP4 ADD MLOAD DUP5 DUP3 SUB PUSH1 0x40 DUP7 ADD MSTORE PUSH2 0x1BD3 DUP3 DUP3 PUSH2 0x1B45 JUMP JUMPDEST SWAP2 POP POP PUSH1 0x60 DUP4 ADD MLOAD PUSH2 0x1BE8 PUSH1 0x60 DUP7 ADD DUP3 PUSH2 0x1B7D JUMP JUMPDEST POP PUSH1 0x80 DUP4 ADD MLOAD PUSH2 0x1BFB PUSH1 0x80 DUP7 ADD DUP3 PUSH2 0x1B7D JUMP JUMPDEST POP PUSH1 0xA0 DUP4 ADD MLOAD PUSH2 0x1C0E PUSH1 0xA0 DUP7 ADD DUP3 PUSH2 0x1B7D JUMP JUMPDEST POP PUSH1 0xC0 DUP4 ADD MLOAD DUP5 DUP3 SUB PUSH1 0xC0 DUP7 ADD MSTORE PUSH2 0x1C26 DUP3 DUP3 PUSH2 0x1B45 JUMP JUMPDEST SWAP2 POP POP DUP1 SWAP2 POP POP SWAP3 SWAP2 POP POP JUMP JUMPDEST PUSH0 PUSH2 0x1C3E DUP4 DUP4 PUSH2 0x1B8C JUMP JUMPDEST SWAP1 POP SWAP3 SWAP2 POP POP JUMP JUMPDEST PUSH0 PUSH1 0x20 DUP3 ADD SWAP1 POP SWAP2 SWAP1 POP JUMP JUMPDEST PUSH0 PUSH2 0x1C5C DUP3 PUSH2 0x1B02 JUMP JUMPDEST PUSH2 0x1C66 DUP2 DUP6 PUSH2 0x1B0C JUMP JUMPDEST SWAP4 POP DUP4 PUSH1 0x20 DUP3 MUL DUP6 ADD PUSH2 0x1C78 DUP6 PUSH2 0x1B1C JUMP JUMPDEST DUP1 PUSH0 JUMPDEST DUP6 DUP2 LT ISZERO PUSH2 0x1CB3 JUMPI DUP5 DUP5 SUB DUP10 MSTORE DUP2 MLOAD PUSH2 0x1C94 DUP6 DUP3 PUSH2 0x1C33 JUMP JUMPDEST SWAP5 POP PUSH2 0x1C9F DUP4 PUSH2 0x1C46 JUMP JUMPDEST SWAP3 POP PUSH1 0x20 DUP11 ADD SWAP10 POP POP PUSH1 0x1 DUP2 ADD SWAP1 POP PUSH2 0x1C7B JUMP JUMPDEST POP DUP3 SWAP8 POP DUP8 SWAP6 POP POP POP POP POP POP SWAP3 SWAP2 POP POP JUMP JUMPDEST PUSH0 PUSH1 0x20 DUP3 ADD SWAP1 POP DUP2 DUP2 SUB PUSH0 DUP4 ADD MSTORE PUSH2 0x1CDD DUP2 DUP5 PUSH2 0x1C52 JUMP JUMPDEST SWAP1 POP SWAP3 SWAP2 POP POP JUMP JUMPDEST PUSH0 DUP3 DUP3 MSTORE PUSH1 0x20 DUP3 ADD SWAP1 POP SWAP3 SWAP2 POP POP JUMP JUMPDEST PUSH0 PUSH2 0x1CFF DUP3 PUSH2 0x1B2B JUMP JUMPDEST PUSH2 0x1D09 DUP2 DUP6 PUSH2 0x1CE5 JUMP JUMPDEST SWAP4 POP PUSH2 0x1D19 DUP2 DUP6 PUSH1 0x20 DUP7 ADD PUSH2 0x1A2E JUMP JUMPDEST PUSH2 0x1D22 DUP2 PUSH2 0x1A56 JUMP JUMPDEST DUP5 ADD SWAP2 POP POP SWAP3 SWAP2 POP POP JUMP JUMPDEST PUSH2 0x1D36 DUP2 PUSH2 0x17E2 JUMP JUMPDEST DUP3 MSTORE POP POP JUMP JUMPDEST PUSH0 PUSH1 0xE0 DUP3 ADD SWAP1 POP PUSH2 0x1D4F PUSH0 DUP4 ADD DUP11 PUSH2 0x19ED JUMP JUMPDEST DUP2 DUP2 SUB PUSH1 0x20 DUP4 ADD MSTORE PUSH2 0x1D61 DUP2 DUP10 PUSH2 0x1CF5 JUMP JUMPDEST SWAP1 POP DUP2 DUP2 SUB PUSH1 0x40 DUP4 ADD MSTORE PUSH2 0x1D75 DUP2 DUP9 PUSH2 0x1CF5 JUMP JUMPDEST SWAP1 POP PUSH2 0x1D84 PUSH1 0x60 DUP4 ADD DUP8 PUSH2 0x1D2D JUMP JUMPDEST PUSH2 0x1D91 PUSH1 0x80 DUP4 ADD DUP7 PUSH2 0x1D2D JUMP JUMPDEST PUSH2 0x1D9E PUSH1 0xA0 DUP4 ADD DUP6 PUSH2 0x1D2D JUMP JUMPDEST DUP2 DUP2 SUB PUSH1 0xC0 DUP4 ADD MSTORE PUSH2 0x1DB0 DUP2 DUP5 PUSH2 0x1CF5 JUMP JUMPDEST SWAP1 POP SWAP9 SWAP8 POP POP POP POP POP POP POP POP JUMP JUMPDEST PUSH0 DUP2 MLOAD SWAP1 POP SWAP2 SWAP1 POP JUMP JUMPDEST PUSH0 DUP3 DUP3 MSTORE PUSH1 0x20 DUP3 ADD SWAP1 POP SWAP3 SWAP2 POP POP JUMP JUMPDEST PUSH0 DUP2 SWAP1 POP PUSH1 0x20 DUP3 ADD SWAP1 POP SWAP2 SWAP1 POP JUMP JUMPDEST PUSH2 0x1DF0 DUP2 PUSH2 0x19FC JUMP JUMPDEST DUP3 MSTORE POP POP JUMP JUMPDEST PUSH0 DUP3 DUP3 MSTORE PUSH1 0x20 DUP3 ADD SWAP1 POP SWAP3 SWAP2 POP POP JUMP JUMPDEST PUSH0 PUSH2 0x1E10 DUP3 PUSH2 0x1A14 JUMP JUMPDEST PUSH2 0x1E1A DUP2 DUP6 PUSH2 0x1DF6 JUMP JUMPDEST SWAP4 POP PUSH2 0x1E2A DUP2 DUP6 PUSH1 0x20 DUP7 ADD PUSH2 0x1A2E JUMP JUMPDEST PUSH2 0x1E33 DUP2 PUSH2 0x1A56 JUMP JUMPDEST DUP5 ADD SWAP2 POP POP SWAP3 SWAP2 POP POP JUMP JUMPDEST PUSH2 0x1E47 DUP2 PUSH2 0x1A9E JUMP JUMPDEST DUP3 MSTORE POP POP JUMP JUMPDEST PUSH0 PUSH1 0x80 DUP4 ADD PUSH0 DUP4 ADD MLOAD PUSH2 0x1E62 PUSH0 DUP7 ADD DUP3 PUSH2 0x1899 JUMP JUMPDEST POP PUSH1 0x20 DUP4 ADD MLOAD PUSH2 0x1E75 PUSH1 0x20 DUP7 ADD DUP3 PUSH2 0x1DE7 JUMP JUMPDEST POP PUSH1 0x40 DUP4 ADD MLOAD DUP5 DUP3 SUB PUSH1 0x40 DUP7 ADD MSTORE PUSH2 0x1E8D DUP3 DUP3 PUSH2 0x1E06 JUMP JUMPDEST SWAP2 POP POP PUSH1 0x60 DUP4 ADD MLOAD PUSH2 0x1EA2 PUSH1 0x60 DUP7 ADD DUP3 PUSH2 0x1E3E JUMP JUMPDEST POP DUP1 SWAP2 POP POP SWAP3 SWAP2 POP POP JUMP JUMPDEST PUSH0 PUSH2 0x1EB8 DUP4 DUP4 PUSH2 0x1E4D JUMP JUMPDEST SWAP1 POP SWAP3 SWAP2 POP POP JUMP JUMPDEST PUSH0 PUSH1 0x20 DUP3 ADD SWAP1 POP SWAP2 SWAP1 POP JUMP JUMPDEST PUSH0 PUSH2 0x1ED6 DUP3 PUSH2 0x1DBE JUMP JUMPDEST PUSH2 0x1EE0 DUP2 DUP6 PUSH2 0x1DC8 JUMP JUMPDEST SWAP4 POP DUP4 PUSH1 0x20 DUP3 MUL DUP6 ADD PUSH2 0x1EF2 DUP6 PUSH2 0x1DD8 JUMP JUMPDEST DUP1 PUSH0 JUMPDEST DUP6 DUP2 LT ISZERO PUSH2 0x1F2D JUMPI DUP5 DUP5 SUB DUP10 MSTORE DUP2 MLOAD PUSH2 0x1F0E DUP6 DUP3 PUSH2 0x1EAD JUMP JUMPDEST SWAP5 POP PUSH2 0x1F19 DUP4 PUSH2 0x1EC0 JUMP JUMPDEST SWAP3 POP PUSH1 0x20 DUP11 ADD SWAP10 POP POP PUSH1 0x1 DUP2 ADD SWAP1 POP PUSH2 0x1EF5 JUMP JUMPDEST POP DUP3 SWAP8 POP DUP8 SWAP6 POP POP POP POP POP POP SWAP3 SWAP2 POP POP JUMP JUMPDEST PUSH0 PUSH1 0x20 DUP3 ADD SWAP1 POP DUP2 DUP2 SUB PUSH0 DUP4 ADD MSTORE PUSH2 0x1F57 DUP2 DUP5 PUSH2 0x1ECC JUMP JUMPDEST SWAP1 POP SWAP3 SWAP2 POP POP JUMP JUMPDEST PUSH0 DUP1 REVERT JUMPDEST PUSH0 DUP1 REVERT JUMPDEST PUSH32 0x4E487B7100000000000000000000000000000000000000000000000000000000 PUSH0 MSTORE PUSH1 0x41 PUSH1 0x4 MSTORE PUSH1 0x24 PUSH0 REVERT JUMPDEST PUSH2 0x1F9D DUP3 PUSH2 0x1A56 JUMP JUMPDEST DUP2 ADD DUP2 DUP2 LT PUSH8 0xFFFFFFFFFFFFFFFF DUP3 GT OR ISZERO PUSH2 0x1FBC JUMPI PUSH2 0x1FBB PUSH2 0x1F67 JUMP JUMPDEST JUMPDEST DUP1 PUSH1 0x40 MSTORE POP POP POP JUMP JUMPDEST PUSH0 PUSH2 0x1FCE PUSH2 0x17D1 JUMP JUMPDEST SWAP1 POP PUSH2 0x1FDA DUP3 DUP3 PUSH2 0x1F94 JUMP JUMPDEST SWAP2 SWAP1 POP JUMP JUMPDEST PUSH0 PUSH8 0xFFFFFFFFFFFFFFFF DUP3 GT ISZERO PUSH2 0x1FF9 JUMPI PUSH2 0x1FF8 PUSH2 0x1F67 JUMP JUMPDEST JUMPDEST PUSH2 0x2002 DUP3 PUSH2 0x1A56 JUMP JUMPDEST SWAP1 POP PUSH1 0x20 DUP2 ADD SWAP1 POP SWAP2 SWAP1 POP JUMP JUMPDEST DUP3 DUP2 DUP4 CALLDATACOPY PUSH0 DUP4 DUP4 ADD MSTORE POP POP POP JUMP JUMPDEST PUSH0 PUSH2 0x202F PUSH2 0x202A DUP5 PUSH2 0x1FDF JUMP JUMPDEST PUSH2 0x1FC5 JUMP JUMPDEST SWAP1 POP DUP3 DUP2 MSTORE PUSH1 0x20 DUP2 ADD DUP5 DUP5 DUP5 ADD GT ISZERO PUSH2 0x204B JUMPI PUSH2 0x204A PUSH2 0x1F63 JUMP JUMPDEST JUMPDEST PUSH2 0x2056 DUP5 DUP3 DUP6 PUSH2 0x200F JUMP JUMPDEST POP SWAP4 SWAP3 POP POP POP JUMP JUMPDEST PUSH0 DUP3 PUSH1 0x1F DUP4 ADD SLT PUSH2 0x2072 JUMPI PUSH2 0x2071 PUSH2 0x1F5F JUMP JUMPDEST JUMPDEST DUP2 CALLDATALOAD PUSH2 0x2082 DUP5 DUP3 PUSH1 0x20 DUP7 ADD PUSH2 0x201D JUMP JUMPDEST SWAP2 POP POP SWAP3 SWAP2 POP POP JUMP JUMPDEST PUSH2 0x2094 DUP2 PUSH2 0x19FC JUMP JUMPDEST DUP2 EQ PUSH2 0x209E JUMPI PUSH0 DUP1 REVERT JUMPDEST POP JUMP JUMPDEST PUSH0 DUP2 CALLDATALOAD SWAP1 POP PUSH2 0x20AF DUP2 PUSH2 0x208B JUMP JUMPDEST SWAP3 SWAP2 POP POP JUMP JUMPDEST PUSH0 DUP1 PUSH0 PUSH1 0x60 DUP5 DUP7 SUB SLT ISZERO PUSH2 0x20CC JUMPI PUSH2 0x20CB PUSH2 0x17DA JUMP JUMPDEST JUMPDEST PUSH0 PUSH2 0x20D9 DUP7 DUP3 DUP8 ADD PUSH2 0x1801 JUMP JUMPDEST SWAP4 POP POP PUSH1 0x20 DUP5 ADD CALLDATALOAD PUSH8 0xFFFFFFFFFFFFFFFF DUP2 GT ISZERO PUSH2 0x20FA JUMPI PUSH2 0x20F9 PUSH2 0x17DE JUMP JUMPDEST JUMPDEST PUSH2 0x2106 DUP7 DUP3 DUP8 ADD PUSH2 0x205E JUMP JUMPDEST SWAP3 POP POP PUSH1 0x40 PUSH2 0x2117 DUP7 DUP3 DUP8 ADD PUSH2 0x20A1 JUMP JUMPDEST SWAP2 POP POP SWAP3 POP SWAP3 POP SWAP3 JUMP JUMPDEST PUSH0 PUSH1 0x20 DUP3 ADD SWAP1 POP PUSH2 0x2134 PUSH0 DUP4 ADD DUP5 PUSH2 0x1D2D JUMP JUMPDEST SWAP3 SWAP2 POP POP JUMP JUMPDEST PUSH0 PUSH8 0xFFFFFFFFFFFFFFFF DUP3 GT ISZERO PUSH2 0x2154 JUMPI PUSH2 0x2153 PUSH2 0x1F67 JUMP JUMPDEST JUMPDEST PUSH2 0x215D DUP3 PUSH2 0x1A56 JUMP JUMPDEST SWAP1 POP PUSH1 0x20 DUP2 ADD SWAP1 POP SWAP2 SWAP1 POP JUMP JUMPDEST PUSH0 PUSH2 0x217C PUSH2 0x2177 DUP5 PUSH2 0x213A JUMP JUMPDEST PUSH2 0x1FC5 JUMP JUMPDEST SWAP1 POP DUP3 DUP2 MSTORE PUSH1 0x20 DUP2 ADD DUP5 DUP5 DUP5 ADD GT ISZERO PUSH2 0x2198 JUMPI PUSH2 0x2197 PUSH2 0x1F63 JUMP JUMPDEST JUMPDEST PUSH2 0x21A3 DUP5 DUP3 DUP6 PUSH2 0x200F JUMP JUMPDEST POP SWAP4 SWAP3 POP POP POP JUMP JUMPDEST PUSH0 DUP3 PUSH1 0x1F DUP4 ADD SLT PUSH2 0x21BF JUMPI PUSH2 0x21BE PUSH2 0x1F5F JUMP JUMPDEST JUMPDEST DUP2 CALLDATALOAD PUSH2 0x21CF DUP5 DUP3 PUSH1 0x20 DUP7 ADD PUSH2 0x216A JUMP JUMPDEST SWAP2 POP POP SWAP3 SWAP2 POP POP JUMP JUMPDEST PUSH0 DUP1 PUSH0 DUP1 PUSH0 DUP1 PUSH0 DUP1 PUSH2 0x100 DUP10 DUP12 SUB SLT ISZERO PUSH2 0x21F5 JUMPI PUSH2 0x21F4 PUSH2 0x17DA JUMP JUMPDEST JUMPDEST PUSH0 DUP10 ADD CALLDATALOAD PUSH8 0xFFFFFFFFFFFFFFFF DUP2 GT ISZERO PUSH2 0x2212 JUMPI PUSH2 0x2211 PUSH2 0x17DE JUMP JUMPDEST JUMPDEST PUSH2 0x221E DUP12 DUP3 DUP13 ADD PUSH2 0x21AB JUMP JUMPDEST SWAP9 POP POP PUSH1 0x20 DUP10 ADD CALLDATALOAD PUSH8 0xFFFFFFFFFFFFFFFF DUP2 GT ISZERO PUSH2 0x223F JUMPI PUSH2 0x223E PUSH2 0x17DE JUMP JUMPDEST JUMPDEST PUSH2 0x224B DUP12 DUP3 DUP13 ADD PUSH2 0x21AB JUMP JUMPDEST SWAP8 POP POP PUSH1 0x40 PUSH2 0x225C DUP12 DUP3 DUP13 ADD PUSH2 0x1801 JUMP JUMPDEST SWAP7 POP POP PUSH1 0x60 PUSH2 0x226D DUP12 DUP3 DUP13 ADD PUSH2 0x1801 JUMP JUMPDEST SWAP6 POP POP PUSH1 0x80 PUSH2 0x227E DUP12 DUP3 DUP13 ADD PUSH2 0x1801 JUMP JUMPDEST SWAP5 POP POP PUSH1 0xA0 DUP10 ADD CALLDATALOAD PUSH8 0xFFFFFFFFFFFFFFFF DUP2 GT ISZERO PUSH2 0x229F JUMPI PUSH2 0x229E PUSH2 0x17DE JUMP JUMPDEST JUMPDEST PUSH2 0x22AB DUP12 DUP3 DUP13 ADD PUSH2 0x21AB JUMP JUMPDEST SWAP4 POP POP PUSH1 0xC0 DUP10 ADD CALLDATALOAD PUSH8 0xFFFFFFFFFFFFFFFF DUP2 GT ISZERO PUSH2 0x22CC JUMPI PUSH2 0x22CB PUSH2 0x17DE JUMP JUMPDEST JUMPDEST PUSH2 0x22D8 DUP12 DUP3 DUP13 ADD PUSH2 0x205E JUMP JUMPDEST SWAP3 POP POP PUSH1 0xE0 PUSH2 0x22E9 DUP12 DUP3 DUP13 ADD PUSH2 0x20A1 JUMP JUMPDEST SWAP2 POP POP SWAP3 SWAP6 SWAP9 POP SWAP3 SWAP6 SWAP9 SWAP1 SWAP4 SWAP7 POP JUMP JUMPDEST PUSH32 0x537570706C656D656E74206E6F7420666F756E642E0000000000000000000000 PUSH0 DUP3 ADD MSTORE POP JUMP JUMPDEST PUSH0 PUSH2 0x232D PUSH1 0x15 DUP4 PUSH2 0x1CE5 JUMP JUMPDEST SWAP2 POP PUSH2 0x2338 DUP3 PUSH2 0x22F9 JUMP JUMPDEST PUSH1 0x20 DUP3 ADD SWAP1 POP SWAP2 SWAP1 POP JUMP JUMPDEST PUSH0 PUSH1 0x20 DUP3 ADD SWAP1 POP DUP2 DUP2 SUB PUSH0 DUP4 ADD MSTORE PUSH2 0x235A DUP2 PUSH2 0x2321 JUMP JUMPDEST SWAP1 POP SWAP2 SWAP1 POP JUMP JUMPDEST PUSH32 0x4E487B7100000000000000000000000000000000000000000000000000000000 PUSH0 MSTORE PUSH1 0x32 PUSH1 0x4 MSTORE PUSH1 0x24 PUSH0 REVERT JUMPDEST PUSH32 0x4E487B7100000000000000000000000000000000000000000000000000000000 PUSH0 MSTORE PUSH1 0x11 PUSH1 0x4 MSTORE PUSH1 0x24 PUSH0 REVERT JUMPDEST PUSH0 PUSH2 0x23C5 DUP3 PUSH2 0x17E2 JUMP JUMPDEST SWAP2 POP PUSH2 0x23D0 DUP4 PUSH2 0x17E2 JUMP JUMPDEST SWAP3 POP DUP3 DUP3 SUB SWAP1 POP DUP2 DUP2 GT ISZERO PUSH2 0x23E8 JUMPI PUSH2 0x23E7 PUSH2 0x238E JUMP JUMPDEST JUMPDEST SWAP3 SWAP2 POP POP JUMP JUMPDEST PUSH0 PUSH2 0x23F8 DUP3 PUSH2 0x17E2 JUMP JUMPDEST SWAP2 POP PUSH2 0x2403 DUP4 PUSH2 0x17E2 JUMP JUMPDEST SWAP3 POP DUP3 DUP3 ADD SWAP1 POP DUP1 DUP3 GT ISZERO PUSH2 0x241B JUMPI PUSH2 0x241A PUSH2 0x238E JUMP JUMPDEST JUMPDEST SWAP3 SWAP2 POP POP JUMP JUMPDEST PUSH32 0x4E487B7100000000000000000000000000000000000000000000000000000000 PUSH0 MSTORE PUSH1 0x31 PUSH1 0x4 MSTORE PUSH1 0x24 PUSH0 REVERT JUMPDEST PUSH32 0x4E487B7100000000000000000000000000000000000000000000000000000000 PUSH0 MSTORE PUSH1 0x22 PUSH1 0x4 MSTORE PUSH1 0x24 PUSH0 REVERT JUMPDEST PUSH0 PUSH1 0x2 DUP3 DIV SWAP1 POP PUSH1 0x1 DUP3 AND DUP1 PUSH2 0x2492 JUMPI PUSH1 0x7F DUP3 AND SWAP2 POP JUMPDEST PUSH1 0x20 DUP3 LT DUP2 SUB PUSH2 0x24A5 JUMPI PUSH2 0x24A4 PUSH2 0x244E JUMP JUMPDEST JUMPDEST POP SWAP2 SWAP1 POP JUMP JUMPDEST PUSH32 0x4F6E6C7920617574686F72697A656420706172746965732063616E207369676E PUSH0 DUP3 ADD MSTORE PUSH32 0x2074686520737570706C656D656E742E00000000000000000000000000000000 PUSH1 0x20 DUP3 ADD MSTORE POP JUMP JUMPDEST PUSH0 PUSH2 0x2505 PUSH1 0x30 DUP4 PUSH2 0x1CE5 JUMP JUMPDEST SWAP2 POP PUSH2 0x2510 DUP3 PUSH2 0x24AB JUMP JUMPDEST PUSH1 0x40 DUP3 ADD SWAP1 POP SWAP2 SWAP1 POP JUMP JUMPDEST PUSH0 PUSH1 0x20 DUP3 ADD SWAP1 POP DUP2 DUP2 SUB PUSH0 DUP4 ADD MSTORE PUSH2 0x2532 DUP2 PUSH2 0x24F9 JUMP JUMPDEST SWAP1 POP SWAP2 SWAP1 POP JUMP JUMPDEST PUSH0 DUP2 SWAP1 POP DUP2 PUSH0 MSTORE PUSH1 0x20 PUSH0 KECCAK256 SWAP1 POP SWAP2 SWAP1 POP JUMP JUMPDEST PUSH0 PUSH1 0x20 PUSH1 0x1F DUP4 ADD DIV SWAP1 POP SWAP2 SWAP1 POP JUMP JUMPDEST PUSH0 DUP3 DUP3 SHL SWAP1 POP SWAP3 SWAP2 POP POP JUMP JUMPDEST PUSH0 PUSH1 0x8 DUP4 MUL PUSH2 0x2595 PUSH32 0xFFFFFFFFFFFFFFFFFFFFFFFFFFFFFFFFFFFFFFFFFFFFFFFFFFFFFFFFFFFFFFFF DUP3 PUSH2 0x255A JUMP JUMPDEST PUSH2 0x259F DUP7 DUP4 PUSH2 0x255A JUMP JUMPDEST SWAP6 POP DUP1 NOT DUP5 AND SWAP4 POP DUP1 DUP7 AND DUP5 OR SWAP3 POP POP POP SWAP4 SWAP3 POP POP POP JUMP JUMPDEST PUSH0 DUP2 SWAP1 POP SWAP2 SWAP1 POP JUMP JUMPDEST PUSH0 PUSH2 0x25DA PUSH2 0x25D5 PUSH2 0x25D0 DUP5 PUSH2 0x17E2 JUMP JUMPDEST PUSH2 0x25B7 JUMP JUMPDEST PUSH2 0x17E2 JUMP JUMPDEST SWAP1 POP SWAP2 SWAP1 POP JUMP JUMPDEST PUSH0 DUP2 SWAP1 POP SWAP2 SWAP1 POP JUMP JUMPDEST PUSH2 0x25F3 DUP4 PUSH2 0x25C0 JUMP JUMPDEST PUSH2 0x2607 PUSH2 0x25FF DUP3 PUSH2 0x25E1 JUMP JUMPDEST DUP5 DUP5 SLOAD PUSH2 0x2566 JUMP JUMPDEST DUP3 SSTORE POP POP POP POP JUMP JUMPDEST PUSH0 SWAP1 JUMP JUMPDEST PUSH2 0x261B PUSH2 0x260F JUMP JUMPDEST PUSH2 0x2626 DUP2 DUP5 DUP5 PUSH2 0x25EA JUMP JUMPDEST POP POP POP JUMP JUMPDEST JUMPDEST DUP2 DUP2 LT ISZERO PUSH2 0x2649 JUMPI PUSH2 0x263E PUSH0 DUP3 PUSH2 0x2613 JUMP JUMPDEST PUSH1 0x1 DUP2 ADD SWAP1 POP PUSH2 0x262C JUMP JUMPDEST POP POP JUMP JUMPDEST PUSH1 0x1F DUP3 GT ISZERO PUSH2 0x268E JUMPI PUSH2 0x265F DUP2 PUSH2 0x2539 JUMP JUMPDEST PUSH2 0x2668 DUP5 PUSH2 0x254B JUMP JUMPDEST DUP2 ADD PUSH1 0x20 DUP6 LT ISZERO PUSH2 0x2677 JUMPI DUP2 SWAP1 POP JUMPDEST PUSH2 0x268B PUSH2 0x2683 DUP6 PUSH2 0x254B JUMP JUMPDEST DUP4 ADD DUP3 PUSH2 0x262B JUMP JUMPDEST POP POP JUMPDEST POP POP POP JUMP JUMPDEST PUSH0 DUP3 DUP3 SHR SWAP1 POP SWAP3 SWAP2 POP POP JUMP JUMPDEST PUSH0 PUSH2 0x26AE PUSH0 NOT DUP5 PUSH1 0x8 MUL PUSH2 0x2693 JUMP JUMPDEST NOT DUP1 DUP4 AND SWAP2 POP POP SWAP3 SWAP2 POP POP JUMP JUMPDEST PUSH0 PUSH2 0x26C6 DUP4 DUP4 PUSH2 0x269F JUMP JUMPDEST SWAP2 POP DUP3 PUSH1 0x2 MUL DUP3 OR SWAP1 POP SWAP3 SWAP2 POP POP JUMP JUMPDEST PUSH2 0x26DF DUP3 PUSH2 0x1A14 JUMP JUMPDEST PUSH8 0xFFFFFFFFFFFFFFFF DUP2 GT ISZERO PUSH2 0x26F8 JUMPI PUSH2 0x26F7 PUSH2 0x1F67 JUMP JUMPDEST JUMPDEST PUSH2 0x2702 DUP3 SLOAD PUSH2 0x247B JUMP JUMPDEST PUSH2 0x270D DUP3 DUP3 DUP6 PUSH2 0x264D JUMP JUMPDEST PUSH0 PUSH1 0x20 SWAP1 POP PUSH1 0x1F DUP4 GT PUSH1 0x1 DUP2 EQ PUSH2 0x273E JUMPI PUSH0 DUP5 ISZERO PUSH2 0x272C JUMPI DUP3 DUP8 ADD MLOAD SWAP1 POP JUMPDEST PUSH2 0x2736 DUP6 DUP3 PUSH2 0x26BB JUMP JUMPDEST DUP7 SSTORE POP PUSH2 0x279D JUMP JUMPDEST PUSH1 0x1F NOT DUP5 AND PUSH2 0x274C DUP7 PUSH2 0x2539 JUMP JUMPDEST PUSH0 JUMPDEST DUP3 DUP2 LT ISZERO PUSH2 0x2773 JUMPI DUP5 DUP10 ADD MLOAD DUP3 SSTORE PUSH1 0x1 DUP3 ADD SWAP2 POP PUSH1 0x20 DUP6 ADD SWAP5 POP PUSH1 0x20 DUP2 ADD SWAP1 POP PUSH2 0x274E JUMP JUMPDEST DUP7 DUP4 LT ISZERO PUSH2 0x2790 JUMPI DUP5 DUP10 ADD MLOAD PUSH2 0x278C PUSH1 0x1F DUP10 AND DUP3 PUSH2 0x269F JUMP JUMPDEST DUP4 SSTORE POP JUMPDEST PUSH1 0x1 PUSH1 0x2 DUP9 MUL ADD DUP9 SSTORE POP POP POP JUMPDEST POP POP POP POP POP POP JUMP JUMPDEST PUSH0 DUP2 SWAP1 POP DUP2 PUSH0 MSTORE PUSH1 0x20 PUSH0 KECCAK256 SWAP1 POP SWAP2 SWAP1 POP JUMP JUMPDEST PUSH1 0x1F DUP3 GT ISZERO PUSH2 0x27F8 JUMPI PUSH2 0x27C9 DUP2 PUSH2 0x27A5 JUMP JUMPDEST PUSH2 0x27D2 DUP5 PUSH2 0x254B JUMP JUMPDEST DUP2 ADD PUSH1 0x20 DUP6 LT ISZERO PUSH2 0x27E1 JUMPI DUP2 SWAP1 POP JUMPDEST PUSH2 0x27F5 PUSH2 0x27ED DUP6 PUSH2 0x254B JUMP JUMPDEST DUP4 ADD DUP3 PUSH2 0x262B JUMP JUMPDEST POP POP JUMPDEST POP POP POP JUMP JUMPDEST PUSH2 0x2806 DUP3 PUSH2 0x1B2B JUMP JUMPDEST PUSH8 0xFFFFFFFFFFFFFFFF DUP2 GT ISZERO PUSH2 0x281F JUMPI PUSH2 0x281E PUSH2 0x1F67 JUMP JUMPDEST JUMPDEST PUSH2 0x2829 DUP3 SLOAD PUSH2 0x247B JUMP JUMPDEST PUSH2 0x2834 DUP3 DUP3 DUP6 PUSH2 0x27B7 JUMP JUMPDEST PUSH0 PUSH1 0x20 SWAP1 POP PUSH1 0x1F DUP4 GT PUSH1 0x1 DUP2 EQ PUSH2 0x2865 JUMPI PUSH0 DUP5 ISZERO PUSH2 0x2853 JUMPI DUP3 DUP8 ADD MLOAD SWAP1 POP JUMPDEST PUSH2 0x285D DUP6 DUP3 PUSH2 0x26BB JUMP JUMPDEST DUP7 SSTORE POP PUSH2 0x28C4 JUMP JUMPDEST PUSH1 0x1F NOT DUP5 AND PUSH2 0x2873 DUP7 PUSH2 0x27A5 JUMP JUMPDEST PUSH0 JUMPDEST DUP3 DUP2 LT ISZERO PUSH2 0x289A JUMPI DUP5 DUP10 ADD MLOAD DUP3 SSTORE PUSH1 0x1 DUP3 ADD SWAP2 POP PUSH1 0x20 DUP6 ADD SWAP5 POP PUSH1 0x20 DUP2 ADD SWAP1 POP PUSH2 0x2875 JUMP JUMPDEST DUP7 DUP4 LT ISZERO PUSH2 0x28B7 JUMPI DUP5 DUP10 ADD MLOAD PUSH2 0x28B3 PUSH1 0x1F DUP10 AND DUP3 PUSH2 0x269F JUMP JUMPDEST DUP4 SSTORE POP JUMPDEST PUSH1 0x1 PUSH1 0x2 DUP9 MUL ADD DUP9 SSTORE POP POP POP JUMPDEST POP POP POP POP POP POP JUMP JUMPDEST PUSH0 PUSH2 0x28D6 DUP3 PUSH2 0x17E2 JUMP JUMPDEST SWAP2 POP PUSH32 0xFFFFFFFFFFFFFFFFFFFFFFFFFFFFFFFFFFFFFFFFFFFFFFFFFFFFFFFFFFFFFFFF DUP3 SUB PUSH2 0x2908 JUMPI PUSH2 0x2907 PUSH2 0x238E JUMP JUMPDEST JUMPDEST PUSH1 0x1 DUP3 ADD SWAP1 POP SWAP2 SWAP1 POP JUMP JUMPDEST PUSH0 DUP2 SLOAD SWAP1 POP PUSH2 0x2921 DUP2 PUSH2 0x247B JUMP JUMPDEST SWAP1 POP SWAP2 SWAP1 POP JUMP JUMPDEST DUP2 DUP2 SUB PUSH2 0x2936 JUMPI POP POP PUSH2 0x2A0B JUMP JUMPDEST PUSH2 0x293F DUP3 PUSH2 0x2913 JUMP JUMPDEST PUSH8 0xFFFFFFFFFFFFFFFF DUP2 GT ISZERO PUSH2 0x2958 JUMPI PUSH2 0x2957 PUSH2 0x1F67 JUMP JUMPDEST JUMPDEST PUSH2 0x2962 DUP3 SLOAD PUSH2 0x247B JUMP JUMPDEST PUSH2 0x296D DUP3 DUP3 DUP6 PUSH2 0x264D JUMP JUMPDEST PUSH0 PUSH1 0x1F DUP4 GT PUSH1 0x1 DUP2 EQ PUSH2 0x299A JUMPI PUSH0 DUP5 ISZERO PUSH2 0x2988 JUMPI DUP3 DUP8 ADD SLOAD SWAP1 POP JUMPDEST PUSH2 0x2992 DUP6 DUP3 PUSH2 0x26BB JUMP JUMPDEST DUP7 SSTORE POP PUSH2 0x2A04 JUMP JUMPDEST PUSH1 0x1F NOT DUP5 AND PUSH2 0x29A8 DUP8 PUSH2 0x2539 JUMP JUMPDEST SWAP7 POP PUSH2 0x29B3 DUP7 PUSH2 0x2539 JUMP JUMPDEST PUSH0 JUMPDEST DUP3 DUP2 LT ISZERO PUSH2 0x29DA JUMPI DUP5 DUP10 ADD SLOAD DUP3 SSTORE PUSH1 0x1 DUP3 ADD SWAP2 POP PUSH1 0x1 DUP6 ADD SWAP5 POP PUSH1 0x20 DUP2 ADD SWAP1 POP PUSH2 0x29B5 JUMP JUMPDEST DUP7 DUP4 LT ISZERO PUSH2 0x29F7 JUMPI DUP5 DUP10 ADD SLOAD PUSH2 0x29F3 PUSH1 0x1F DUP10 AND DUP3 PUSH2 0x269F JUMP JUMPDEST DUP4 SSTORE POP JUMPDEST PUSH1 0x1 PUSH1 0x2 DUP9 MUL ADD DUP9 SSTORE POP POP POP JUMPDEST POP POP POP POP POP POP JUMPDEST JUMP INVALID LOG2 PUSH5 0x6970667358 0x22 SLT KECCAK256 0x2E SWAP9 CALLDATALOAD 0xE0 0x1E PUSH0 SWAP8 0xDA DUP4 0xF7 PREVRANDAO 0xD1 0x28 0x1F SAR 0x4A PC PUSH23 0x8BC16585A3F567CDE438C77A678C64736F6C6343000816 STOP CALLER "
				},
				"gasEstimates": {
					"creation": {
						"codeDepositCost": "2163800",
						"executionCost": "7312",
						"totalCost": "2171112"
					},
					"external": {
						"addAuthorizedSigner(uint256,address)": "51417",
						"addSupplement(string,string,uint256,uint256,uint256,string,bytes,bytes32)": "infinite",
						"getAuthorizedSigners(uint256)": "infinite",
						"getSupplementSignatures(uint256)": "infinite",
						"getSupplements()": "infinite",
						"removeAuthorizedSigner(uint256,address)": "infinite",
						"revokeSignature(uint256)": "infinite",
						"signSupplement(uint256,bytes,bytes32)": "infinite",
						"supplements(uint256)": "infinite",
						"supplementsCount()": "2513",
						"supplementsSignatures(uint256,uint256)": "infinite"
					},
					"internal": {
						"isAuthorized(address,uint256)": "infinite",
						"isRevokeAuthorized(address,uint256)": "infinite"
					}
				},
				"methodIdentifiers": {
					"addAuthorizedSigner(uint256,address)": "37a01230",
					"addSupplement(string,string,uint256,uint256,uint256,string,bytes,bytes32)": "f1c98ba2",
					"getAuthorizedSigners(uint256)": "069e8cff",
					"getSupplementSignatures(uint256)": "2c290e4e",
					"getSupplements()": "2b39fed7",
					"removeAuthorizedSigner(uint256,address)": "0b2baf40",
					"revokeSignature(uint256)": "3da1f79a",
					"signSupplement(uint256,bytes,bytes32)": "bbe3d522",
					"supplements(uint256)": "2b5acd6c",
					"supplementsCount()": "c0c1e2ed",
					"supplementsSignatures(uint256,uint256)": "0f86126e"
				}
			},
			"storageLayout": {
				"storage": [
					{
						"astId": 30,
						"contract": "contracts/SupplementTracker.sol:SupplementTracker",
						"label": "supplements",
						"offset": 0,
						"slot": "0",
						"type": "t_mapping(t_uint256,t_struct(SupplementInfo)16_storage)"
					},
					{
						"astId": 36,
						"contract": "contracts/SupplementTracker.sol:SupplementTracker",
						"label": "supplementsSignatures",
						"offset": 0,
						"slot": "1",
						"type": "t_mapping(t_uint256,t_array(t_struct(SupplementSignature)25_storage)dyn_storage)"
					},
					{
						"astId": 41,
						"contract": "contracts/SupplementTracker.sol:SupplementTracker",
						"label": "authorizedSigners",
						"offset": 0,
						"slot": "2",
						"type": "t_mapping(t_uint256,t_array(t_address)dyn_storage)"
					},
					{
						"astId": 44,
						"contract": "contracts/SupplementTracker.sol:SupplementTracker",
						"label": "supplementsCount",
						"offset": 0,
						"slot": "3",
						"type": "t_uint256"
					}
				],
				"types": {
					"t_address": {
						"encoding": "inplace",
						"label": "address",
						"numberOfBytes": "20"
					},
					"t_array(t_address)dyn_storage": {
						"base": "t_address",
						"encoding": "dynamic_array",
						"label": "address[]",
						"numberOfBytes": "32"
					},
					"t_array(t_struct(SupplementSignature)25_storage)dyn_storage": {
						"base": "t_struct(SupplementSignature)25_storage",
						"encoding": "dynamic_array",
						"label": "struct SupplementTracker.SupplementSignature[]",
						"numberOfBytes": "32"
					},
					"t_bool": {
						"encoding": "inplace",
						"label": "bool",
						"numberOfBytes": "1"
					},
					"t_bytes32": {
						"encoding": "inplace",
						"label": "bytes32",
						"numberOfBytes": "32"
					},
					"t_bytes_storage": {
						"encoding": "bytes",
						"label": "bytes",
						"numberOfBytes": "32"
					},
					"t_mapping(t_uint256,t_array(t_address)dyn_storage)": {
						"encoding": "mapping",
						"key": "t_uint256",
						"label": "mapping(uint256 => address[])",
						"numberOfBytes": "32",
						"value": "t_array(t_address)dyn_storage"
					},
					"t_mapping(t_uint256,t_array(t_struct(SupplementSignature)25_storage)dyn_storage)": {
						"encoding": "mapping",
						"key": "t_uint256",
						"label": "mapping(uint256 => struct SupplementTracker.SupplementSignature[])",
						"numberOfBytes": "32",
						"value": "t_array(t_struct(SupplementSignature)25_storage)dyn_storage"
					},
					"t_mapping(t_uint256,t_struct(SupplementInfo)16_storage)": {
						"encoding": "mapping",
						"key": "t_uint256",
						"label": "mapping(uint256 => struct SupplementTracker.SupplementInfo)",
						"numberOfBytes": "32",
						"value": "t_struct(SupplementInfo)16_storage"
					},
					"t_string_storage": {
						"encoding": "bytes",
						"label": "string",
						"numberOfBytes": "32"
					},
					"t_struct(SupplementInfo)16_storage": {
						"encoding": "inplace",
						"label": "struct SupplementTracker.SupplementInfo",
						"members": [
							{
								"astId": 3,
								"contract": "contracts/SupplementTracker.sol:SupplementTracker",
								"label": "owner",
								"offset": 0,
								"slot": "0",
								"type": "t_address"
							},
							{
								"astId": 5,
								"contract": "contracts/SupplementTracker.sol:SupplementTracker",
								"label": "name",
								"offset": 0,
								"slot": "1",
								"type": "t_string_storage"
							},
							{
								"astId": 7,
								"contract": "contracts/SupplementTracker.sol:SupplementTracker",
								"label": "manufacturer",
								"offset": 0,
								"slot": "2",
								"type": "t_string_storage"
							},
							{
								"astId": 9,
								"contract": "contracts/SupplementTracker.sol:SupplementTracker",
								"label": "proteins",
								"offset": 0,
								"slot": "3",
								"type": "t_uint256"
							},
							{
								"astId": 11,
								"contract": "contracts/SupplementTracker.sol:SupplementTracker",
								"label": "carbs",
								"offset": 0,
								"slot": "4",
								"type": "t_uint256"
							},
							{
								"astId": 13,
								"contract": "contracts/SupplementTracker.sol:SupplementTracker",
								"label": "fats",
								"offset": 0,
								"slot": "5",
								"type": "t_uint256"
							},
							{
								"astId": 15,
								"contract": "contracts/SupplementTracker.sol:SupplementTracker",
								"label": "expiryDate",
								"offset": 0,
								"slot": "6",
								"type": "t_string_storage"
							}
						],
						"numberOfBytes": "224"
					},
					"t_struct(SupplementSignature)25_storage": {
						"encoding": "inplace",
						"label": "struct SupplementTracker.SupplementSignature",
						"members": [
							{
								"astId": 18,
								"contract": "contracts/SupplementTracker.sol:SupplementTracker",
								"label": "signer",
								"offset": 0,
								"slot": "0",
								"type": "t_address"
							},
							{
								"astId": 20,
								"contract": "contracts/SupplementTracker.sol:SupplementTracker",
								"label": "messageHash",
								"offset": 0,
								"slot": "1",
								"type": "t_bytes32"
							},
							{
								"astId": 22,
								"contract": "contracts/SupplementTracker.sol:SupplementTracker",
								"label": "signature",
								"offset": 0,
								"slot": "2",
								"type": "t_bytes_storage"
							},
							{
								"astId": 24,
								"contract": "contracts/SupplementTracker.sol:SupplementTracker",
								"label": "revoked",
								"offset": 0,
								"slot": "3",
								"type": "t_bool"
							}
						],
						"numberOfBytes": "128"
					},
					"t_uint256": {
						"encoding": "inplace",
						"label": "uint256",
						"numberOfBytes": "32"
					}
				}
			},
			"userdoc": {
				"kind": "user",
				"methods": {},
				"version": 1
			}
		}
	}
}