{
	"contracts/SupplementTracker.sol": {
		"SupplementTracker": {
			"abi": [
				{
					"inputs": [
						{
							"internalType": "string",
							"name": "_name",
							"type": "string"
						},
						{
							"internalType": "string",
							"name": "_manufacturer",
							"type": "string"
						},
						{
							"internalType": "uint256",
							"name": "_proteinContent",
							"type": "uint256"
						},
						{
							"internalType": "uint256",
							"name": "_carbs",
							"type": "uint256"
						},
						{
							"internalType": "uint256",
							"name": "_fats",
							"type": "uint256"
						},
						{
							"internalType": "string",
							"name": "_expiryDate",
							"type": "string"
						}
					],
					"name": "addSupplement",
					"outputs": [
						{
							"components": [
								{
									"internalType": "string",
									"name": "name",
									"type": "string"
								},
								{
									"internalType": "string",
									"name": "manufacturer",
									"type": "string"
								},
								{
									"internalType": "uint256",
									"name": "proteinContent",
									"type": "uint256"
								},
								{
									"internalType": "uint256",
									"name": "carbs",
									"type": "uint256"
								},
								{
									"internalType": "uint256",
									"name": "fats",
									"type": "uint256"
								},
								{
									"internalType": "string",
									"name": "expiryDate",
									"type": "string"
								}
							],
							"internalType": "struct SupplementTracker.SupplementInfo",
							"name": "",
							"type": "tuple"
						}
					],
					"stateMutability": "nonpayable",
					"type": "function"
				},
				{
					"inputs": [
						{
							"internalType": "uint256",
							"name": "_productId",
							"type": "uint256"
						}
					],
					"name": "getSupplementInfo",
					"outputs": [
						{
							"components": [
								{
									"internalType": "string",
									"name": "name",
									"type": "string"
								},
								{
									"internalType": "string",
									"name": "manufacturer",
									"type": "string"
								},
								{
									"internalType": "uint256",
									"name": "proteinContent",
									"type": "uint256"
								},
								{
									"internalType": "uint256",
									"name": "carbs",
									"type": "uint256"
								},
								{
									"internalType": "uint256",
									"name": "fats",
									"type": "uint256"
								},
								{
									"internalType": "string",
									"name": "expiryDate",
									"type": "string"
								}
							],
							"internalType": "struct SupplementTracker.SupplementInfo",
							"name": "",
							"type": "tuple"
						}
					],
					"stateMutability": "view",
					"type": "function"
				},
				{
					"inputs": [],
					"name": "productCount",
					"outputs": [
						{
							"internalType": "uint256",
							"name": "",
							"type": "uint256"
						}
					],
					"stateMutability": "view",
					"type": "function"
				},
				{
					"inputs": [
						{
							"internalType": "uint256",
							"name": "",
							"type": "uint256"
						}
					],
					"name": "supplements",
					"outputs": [
						{
							"internalType": "string",
							"name": "name",
							"type": "string"
						},
						{
							"internalType": "string",
							"name": "manufacturer",
							"type": "string"
						},
						{
							"internalType": "uint256",
							"name": "proteinContent",
							"type": "uint256"
						},
						{
							"internalType": "uint256",
							"name": "carbs",
							"type": "uint256"
						},
						{
							"internalType": "uint256",
							"name": "fats",
							"type": "uint256"
						},
						{
							"internalType": "string",
							"name": "expiryDate",
							"type": "string"
						}
					],
					"stateMutability": "view",
					"type": "function"
				}
			],
			"devdoc": {
				"kind": "dev",
				"methods": {},
				"version": 1
			},
			"evm": {
				"assembly": "    /* \"contracts/SupplementTracker.sol\":74:988  contract SupplementTracker {... */\n  mstore(0x40, 0x80)\n    /* \"contracts/SupplementTracker.sol\":381:382  0 */\n  0x00\n    /* \"contracts/SupplementTracker.sol\":354:382  uint public productCount = 0 */\n  0x01\n  sstore\n    /* \"contracts/SupplementTracker.sol\":74:988  contract SupplementTracker {... */\n  callvalue\n  dup1\n  iszero\n  tag_1\n  jumpi\n  0x00\n  dup1\n  revert\ntag_1:\n  pop\n  dataSize(sub_0)\n  dup1\n  dataOffset(sub_0)\n  0x00\n  codecopy\n  0x00\n  return\nstop\n\nsub_0: assembly {\n        /* \"contracts/SupplementTracker.sol\":74:988  contract SupplementTracker {... */\n      mstore(0x40, 0x80)\n      callvalue\n      dup1\n      iszero\n      tag_1\n      jumpi\n      0x00\n      dup1\n      revert\n    tag_1:\n      pop\n      jumpi(tag_2, lt(calldatasize, 0x04))\n      shr(0xe0, calldataload(0x00))\n      dup1\n      0x150373de\n      eq\n      tag_3\n      jumpi\n      dup1\n      0x2b5acd6c\n      eq\n      tag_4\n      jumpi\n      dup1\n      0x7c73e220\n      eq\n      tag_5\n      jumpi\n      dup1\n      0xe0f6ef87\n      eq\n      tag_6\n      jumpi\n    tag_2:\n      0x00\n      dup1\n      revert\n        /* \"contracts/SupplementTracker.sol\":391:773  function addSupplement(string memory _name, string memory _manufacturer, uint _proteinContent, uint _carbs, uint _fats, string memory _expiryDate) public returns (SupplementInfo memory) {... */\n    tag_3:\n      tag_7\n      0x04\n      dup1\n      calldatasize\n      sub\n      dup2\n      add\n      swap1\n      tag_8\n      swap2\n      swap1\n      tag_9\n      jump\t// in\n    tag_8:\n      tag_10\n      jump\t// in\n    tag_7:\n      mload(0x40)\n      tag_11\n      swap2\n      swap1\n      tag_12\n      jump\t// in\n    tag_11:\n      mload(0x40)\n      dup1\n      swap2\n      sub\n      swap1\n      return\n        /* \"contracts/SupplementTracker.sol\":297:347  mapping(uint => SupplementInfo) public supplements */\n    tag_4:\n      tag_13\n      0x04\n      dup1\n      calldatasize\n      sub\n      dup2\n      add\n      swap1\n      tag_14\n      swap2\n      swap1\n      tag_15\n      jump\t// in\n    tag_14:\n      tag_16\n      jump\t// in\n    tag_13:\n      mload(0x40)\n      tag_17\n      swap7\n      swap6\n      swap5\n      swap4\n      swap3\n      swap2\n      swap1\n      tag_18\n      jump\t// in\n    tag_17:\n      mload(0x40)\n      dup1\n      swap2\n      sub\n      swap1\n      return\n        /* \"contracts/SupplementTracker.sol\":781:985  function getSupplementInfo(uint _productId) public view returns (SupplementInfo memory) {... */\n    tag_5:\n      tag_19\n      0x04\n      dup1\n      calldatasize\n      sub\n      dup2\n      add\n      swap1\n      tag_20\n      swap2\n      swap1\n      tag_15\n      jump\t// in\n    tag_20:\n      tag_21\n      jump\t// in\n    tag_19:\n      mload(0x40)\n      tag_22\n      swap2\n      swap1\n      tag_12\n      jump\t// in\n    tag_22:\n      mload(0x40)\n      dup1\n      swap2\n      sub\n      swap1\n      return\n        /* \"contracts/SupplementTracker.sol\":354:382  uint public productCount = 0 */\n    tag_6:\n      tag_23\n      tag_24\n      jump\t// in\n    tag_23:\n      mload(0x40)\n      tag_25\n      swap2\n      swap1\n      tag_26\n      jump\t// in\n    tag_25:\n      mload(0x40)\n      dup1\n      swap2\n      sub\n      swap1\n      return\n        /* \"contracts/SupplementTracker.sol\":391:773  function addSupplement(string memory _name, string memory _manufacturer, uint _proteinContent, uint _carbs, uint _fats, string memory _expiryDate) public returns (SupplementInfo memory) {... */\n    tag_10:\n        /* \"contracts/SupplementTracker.sol\":554:575  SupplementInfo memory */\n      tag_27\n      tag_28\n      jump\t// in\n    tag_27:\n        /* \"contracts/SupplementTracker.sol\":616:697  SupplementInfo(_name, _manufacturer, _proteinContent, _carbs, _fats, _expiryDate) */\n      mload(0x40)\n      dup1\n      0xc0\n      add\n      0x40\n      mstore\n      dup1\n        /* \"contracts/SupplementTracker.sol\":631:636  _name */\n      dup9\n        /* \"contracts/SupplementTracker.sol\":616:697  SupplementInfo(_name, _manufacturer, _proteinContent, _carbs, _fats, _expiryDate) */\n      dup2\n      mstore\n      0x20\n      add\n        /* \"contracts/SupplementTracker.sol\":638:651  _manufacturer */\n      dup8\n        /* \"contracts/SupplementTracker.sol\":616:697  SupplementInfo(_name, _manufacturer, _proteinContent, _carbs, _fats, _expiryDate) */\n      dup2\n      mstore\n      0x20\n      add\n        /* \"contracts/SupplementTracker.sol\":653:668  _proteinContent */\n      dup7\n        /* \"contracts/SupplementTracker.sol\":616:697  SupplementInfo(_name, _manufacturer, _proteinContent, _carbs, _fats, _expiryDate) */\n      dup2\n      mstore\n      0x20\n      add\n        /* \"contracts/SupplementTracker.sol\":670:676  _carbs */\n      dup6\n        /* \"contracts/SupplementTracker.sol\":616:697  SupplementInfo(_name, _manufacturer, _proteinContent, _carbs, _fats, _expiryDate) */\n      dup2\n      mstore\n      0x20\n      add\n        /* \"contracts/SupplementTracker.sol\":678:683  _fats */\n      dup5\n        /* \"contracts/SupplementTracker.sol\":616:697  SupplementInfo(_name, _manufacturer, _proteinContent, _carbs, _fats, _expiryDate) */\n      dup2\n      mstore\n      0x20\n      add\n        /* \"contracts/SupplementTracker.sol\":685:696  _expiryDate */\n      dup4\n        /* \"contracts/SupplementTracker.sol\":616:697  SupplementInfo(_name, _manufacturer, _proteinContent, _carbs, _fats, _expiryDate) */\n      dup2\n      mstore\n      pop\n        /* \"contracts/SupplementTracker.sol\":588:599  supplements */\n      0x00\n        /* \"contracts/SupplementTracker.sol\":588:613  supplements[productCount] */\n      dup1\n        /* \"contracts/SupplementTracker.sol\":600:612  productCount */\n      sload(0x01)\n        /* \"contracts/SupplementTracker.sol\":588:613  supplements[productCount] */\n      dup2\n      mstore\n      0x20\n      add\n      swap1\n      dup2\n      mstore\n      0x20\n      add\n      0x00\n      keccak256\n        /* \"contracts/SupplementTracker.sol\":588:697  supplements[productCount] = SupplementInfo(_name, _manufacturer, _proteinContent, _carbs, _fats, _expiryDate) */\n      0x00\n      dup3\n      add\n      mload\n      dup2\n      0x00\n      add\n      swap1\n      dup2\n      tag_30\n      swap2\n      swap1\n      tag_31\n      jump\t// in\n    tag_30:\n      pop\n      0x20\n      dup3\n      add\n      mload\n      dup2\n      0x01\n      add\n      swap1\n      dup2\n      tag_32\n      swap2\n      swap1\n      tag_31\n      jump\t// in\n    tag_32:\n      pop\n      0x40\n      dup3\n      add\n      mload\n      dup2\n      0x02\n      add\n      sstore\n      0x60\n      dup3\n      add\n      mload\n      dup2\n      0x03\n      add\n      sstore\n      0x80\n      dup3\n      add\n      mload\n      dup2\n      0x04\n      add\n      sstore\n      0xa0\n      dup3\n      add\n      mload\n      dup2\n      0x05\n      add\n      swap1\n      dup2\n      tag_33\n      swap2\n      swap1\n      tag_31\n      jump\t// in\n    tag_33:\n      pop\n      swap1\n      pop\n      pop\n        /* \"contracts/SupplementTracker.sol\":708:720  productCount */\n      0x01\n      0x00\n        /* \"contracts/SupplementTracker.sol\":708:722  productCount++ */\n      dup2\n      sload\n      dup1\n      swap3\n      swap2\n      swap1\n      tag_34\n      swap1\n      tag_35\n      jump\t// in\n    tag_34:\n      swap2\n      swap1\n      pop\n      sstore\n      pop\n        /* \"contracts/SupplementTracker.sol\":740:751  supplements */\n      0x00\n        /* \"contracts/SupplementTracker.sol\":740:765  supplements[productCount] */\n      dup1\n        /* \"contracts/SupplementTracker.sol\":752:764  productCount */\n      sload(0x01)\n        /* \"contracts/SupplementTracker.sol\":740:765  supplements[productCount] */\n      dup2\n      mstore\n      0x20\n      add\n      swap1\n      dup2\n      mstore\n      0x20\n      add\n      0x00\n      keccak256\n        /* \"contracts/SupplementTracker.sol\":733:765  return supplements[productCount] */\n      mload(0x40)\n      dup1\n      0xc0\n      add\n      0x40\n      mstore\n      swap1\n      dup2\n      0x00\n      dup3\n      add\n      dup1\n      sload\n      tag_36\n      swap1\n      tag_37\n      jump\t// in\n    tag_36:\n      dup1\n      0x1f\n      add\n      0x20\n      dup1\n      swap2\n      div\n      mul\n      0x20\n      add\n      mload(0x40)\n      swap1\n      dup2\n      add\n      0x40\n      mstore\n      dup1\n      swap3\n      swap2\n      swap1\n      dup2\n      dup2\n      mstore\n      0x20\n      add\n      dup3\n      dup1\n      sload\n      tag_38\n      swap1\n      tag_37\n      jump\t// in\n    tag_38:\n      dup1\n      iszero\n      tag_39\n      jumpi\n      dup1\n      0x1f\n      lt\n      tag_40\n      jumpi\n      0x0100\n      dup1\n      dup4\n      sload\n      div\n      mul\n      dup4\n      mstore\n      swap2\n      0x20\n      add\n      swap2\n      jump(tag_39)\n    tag_40:\n      dup3\n      add\n      swap2\n      swap1\n      0x00\n      mstore\n      keccak256(0x00, 0x20)\n      swap1\n    tag_41:\n      dup2\n      sload\n      dup2\n      mstore\n      swap1\n      0x01\n      add\n      swap1\n      0x20\n      add\n      dup1\n      dup4\n      gt\n      tag_41\n      jumpi\n      dup3\n      swap1\n      sub\n      0x1f\n      and\n      dup3\n      add\n      swap2\n    tag_39:\n      pop\n      pop\n      pop\n      pop\n      pop\n      dup2\n      mstore\n      0x20\n      add\n      0x01\n      dup3\n      add\n      dup1\n      sload\n      tag_42\n      swap1\n      tag_37\n      jump\t// in\n    tag_42:\n      dup1\n      0x1f\n      add\n      0x20\n      dup1\n      swap2\n      div\n      mul\n      0x20\n      add\n      mload(0x40)\n      swap1\n      dup2\n      add\n      0x40\n      mstore\n      dup1\n      swap3\n      swap2\n      swap1\n      dup2\n      dup2\n      mstore\n      0x20\n      add\n      dup3\n      dup1\n      sload\n      tag_43\n      swap1\n      tag_37\n      jump\t// in\n    tag_43:\n      dup1\n      iszero\n      tag_44\n      jumpi\n      dup1\n      0x1f\n      lt\n      tag_45\n      jumpi\n      0x0100\n      dup1\n      dup4\n      sload\n      div\n      mul\n      dup4\n      mstore\n      swap2\n      0x20\n      add\n      swap2\n      jump(tag_44)\n    tag_45:\n      dup3\n      add\n      swap2\n      swap1\n      0x00\n      mstore\n      keccak256(0x00, 0x20)\n      swap1\n    tag_46:\n      dup2\n      sload\n      dup2\n      mstore\n      swap1\n      0x01\n      add\n      swap1\n      0x20\n      add\n      dup1\n      dup4\n      gt\n      tag_46\n      jumpi\n      dup3\n      swap1\n      sub\n      0x1f\n      and\n      dup3\n      add\n      swap2\n    tag_44:\n      pop\n      pop\n      pop\n      pop\n      pop\n      dup2\n      mstore\n      0x20\n      add\n      0x02\n      dup3\n      add\n      sload\n      dup2\n      mstore\n      0x20\n      add\n      0x03\n      dup3\n      add\n      sload\n      dup2\n      mstore\n      0x20\n      add\n      0x04\n      dup3\n      add\n      sload\n      dup2\n      mstore\n      0x20\n      add\n      0x05\n      dup3\n      add\n      dup1\n      sload\n      tag_47\n      swap1\n      tag_37\n      jump\t// in\n    tag_47:\n      dup1\n      0x1f\n      add\n      0x20\n      dup1\n      swap2\n      div\n      mul\n      0x20\n      add\n      mload(0x40)\n      swap1\n      dup2\n      add\n      0x40\n      mstore\n      dup1\n      swap3\n      swap2\n      swap1\n      dup2\n      dup2\n      mstore\n      0x20\n      add\n      dup3\n      dup1\n      sload\n      tag_48\n      swap1\n      tag_37\n      jump\t// in\n    tag_48:\n      dup1\n      iszero\n      tag_49\n      jumpi\n      dup1\n      0x1f\n      lt\n      tag_50\n      jumpi\n      0x0100\n      dup1\n      dup4\n      sload\n      div\n      mul\n      dup4\n      mstore\n      swap2\n      0x20\n      add\n      swap2\n      jump(tag_49)\n    tag_50:\n      dup3\n      add\n      swap2\n      swap1\n      0x00\n      mstore\n      keccak256(0x00, 0x20)\n      swap1\n    tag_51:\n      dup2\n      sload\n      dup2\n      mstore\n      swap1\n      0x01\n      add\n      swap1\n      0x20\n      add\n      dup1\n      dup4\n      gt\n      tag_51\n      jumpi\n      dup3\n      swap1\n      sub\n      0x1f\n      and\n      dup3\n      add\n      swap2\n    tag_49:\n      pop\n      pop\n      pop\n      pop\n      pop\n      dup2\n      mstore\n      pop\n      pop\n      swap1\n      pop\n        /* \"contracts/SupplementTracker.sol\":391:773  function addSupplement(string memory _name, string memory _manufacturer, uint _proteinContent, uint _carbs, uint _fats, string memory _expiryDate) public returns (SupplementInfo memory) {... */\n      swap7\n      swap6\n      pop\n      pop\n      pop\n      pop\n      pop\n      pop\n      jump\t// out\n        /* \"contracts/SupplementTracker.sol\":297:347  mapping(uint => SupplementInfo) public supplements */\n    tag_16:\n      mstore(0x20, 0x00)\n      dup1\n      0x00\n      mstore\n      keccak256(0x00, 0x40)\n      0x00\n      swap2\n      pop\n      swap1\n      pop\n      dup1\n      0x00\n      add\n      dup1\n      sload\n      tag_52\n      swap1\n      tag_37\n      jump\t// in\n    tag_52:\n      dup1\n      0x1f\n      add\n      0x20\n      dup1\n      swap2\n      div\n      mul\n      0x20\n      add\n      mload(0x40)\n      swap1\n      dup2\n      add\n      0x40\n      mstore\n      dup1\n      swap3\n      swap2\n      swap1\n      dup2\n      dup2\n      mstore\n      0x20\n      add\n      dup3\n      dup1\n      sload\n      tag_53\n      swap1\n      tag_37\n      jump\t// in\n    tag_53:\n      dup1\n      iszero\n      tag_54\n      jumpi\n      dup1\n      0x1f\n      lt\n      tag_55\n      jumpi\n      0x0100\n      dup1\n      dup4\n      sload\n      div\n      mul\n      dup4\n      mstore\n      swap2\n      0x20\n      add\n      swap2\n      jump(tag_54)\n    tag_55:\n      dup3\n      add\n      swap2\n      swap1\n      0x00\n      mstore\n      keccak256(0x00, 0x20)\n      swap1\n    tag_56:\n      dup2\n      sload\n      dup2\n      mstore\n      swap1\n      0x01\n      add\n      swap1\n      0x20\n      add\n      dup1\n      dup4\n      gt\n      tag_56\n      jumpi\n      dup3\n      swap1\n      sub\n      0x1f\n      and\n      dup3\n      add\n      swap2\n    tag_54:\n      pop\n      pop\n      pop\n      pop\n      pop\n      swap1\n      dup1\n      0x01\n      add\n      dup1\n      sload\n      tag_57\n      swap1\n      tag_37\n      jump\t// in\n    tag_57:\n      dup1\n      0x1f\n      add\n      0x20\n      dup1\n      swap2\n      div\n      mul\n      0x20\n      add\n      mload(0x40)\n      swap1\n      dup2\n      add\n      0x40\n      mstore\n      dup1\n      swap3\n      swap2\n      swap1\n      dup2\n      dup2\n      mstore\n      0x20\n      add\n      dup3\n      dup1\n      sload\n      tag_58\n      swap1\n      tag_37\n      jump\t// in\n    tag_58:\n      dup1\n      iszero\n      tag_59\n      jumpi\n      dup1\n      0x1f\n      lt\n      tag_60\n      jumpi\n      0x0100\n      dup1\n      dup4\n      sload\n      div\n      mul\n      dup4\n      mstore\n      swap2\n      0x20\n      add\n      swap2\n      jump(tag_59)\n    tag_60:\n      dup3\n      add\n      swap2\n      swap1\n      0x00\n      mstore\n      keccak256(0x00, 0x20)\n      swap1\n    tag_61:\n      dup2\n      sload\n      dup2\n      mstore\n      swap1\n      0x01\n      add\n      swap1\n      0x20\n      add\n      dup1\n      dup4\n      gt\n      tag_61\n      jumpi\n      dup3\n      swap1\n      sub\n      0x1f\n      and\n      dup3\n      add\n      swap2\n    tag_59:\n      pop\n      pop\n      pop\n      pop\n      pop\n      swap1\n      dup1\n      0x02\n      add\n      sload\n      swap1\n      dup1\n      0x03\n      add\n      sload\n      swap1\n      dup1\n      0x04\n      add\n      sload\n      swap1\n      dup1\n      0x05\n      add\n      dup1\n      sload\n      tag_62\n      swap1\n      tag_37\n      jump\t// in\n    tag_62:\n      dup1\n      0x1f\n      add\n      0x20\n      dup1\n      swap2\n      div\n      mul\n      0x20\n      add\n      mload(0x40)\n      swap1\n      dup2\n      add\n      0x40\n      mstore\n      dup1\n      swap3\n      swap2\n      swap1\n      dup2\n      dup2\n      mstore\n      0x20\n      add\n      dup3\n      dup1\n      sload\n      tag_63\n      swap1\n      tag_37\n      jump\t// in\n    tag_63:\n      dup1\n      iszero\n      tag_64\n      jumpi\n      dup1\n      0x1f\n      lt\n      tag_65\n      jumpi\n      0x0100\n      dup1\n      dup4\n      sload\n      div\n      mul\n      dup4\n      mstore\n      swap2\n      0x20\n      add\n      swap2\n      jump(tag_64)\n    tag_65:\n      dup3\n      add\n      swap2\n      swap1\n      0x00\n      mstore\n      keccak256(0x00, 0x20)\n      swap1\n    tag_66:\n      dup2\n      sload\n      dup2\n      mstore\n      swap1\n      0x01\n      add\n      swap1\n      0x20\n      add\n      dup1\n      dup4\n      gt\n      tag_66\n      jumpi\n      dup3\n      swap1\n      sub\n      0x1f\n      and\n      dup3\n      add\n      swap2\n    tag_64:\n      pop\n      pop\n      pop\n      pop\n      pop\n      swap1\n      pop\n      dup7\n      jump\t// out\n        /* \"contracts/SupplementTracker.sol\":781:985  function getSupplementInfo(uint _productId) public view returns (SupplementInfo memory) {... */\n    tag_21:\n        /* \"contracts/SupplementTracker.sol\":846:867  SupplementInfo memory */\n      tag_67\n      tag_28\n      jump\t// in\n    tag_67:\n        /* \"contracts/SupplementTracker.sol\":901:913  productCount */\n      sload(0x01)\n        /* \"contracts/SupplementTracker.sol\":888:898  _productId */\n      dup3\n        /* \"contracts/SupplementTracker.sol\":888:913  _productId < productCount */\n      lt\n        /* \"contracts/SupplementTracker.sol\":880:936  require(_productId < productCount, \"Product not found.\") */\n      tag_69\n      jumpi\n      mload(0x40)\n      0x08c379a000000000000000000000000000000000000000000000000000000000\n      dup2\n      mstore\n      0x04\n      add\n      tag_70\n      swap1\n      tag_71\n      jump\t// in\n    tag_70:\n      mload(0x40)\n      dup1\n      swap2\n      sub\n      swap1\n      revert\n    tag_69:\n        /* \"contracts/SupplementTracker.sol\":954:965  supplements */\n      0x00\n        /* \"contracts/SupplementTracker.sol\":954:977  supplements[_productId] */\n      dup1\n        /* \"contracts/SupplementTracker.sol\":966:976  _productId */\n      dup4\n        /* \"contracts/SupplementTracker.sol\":954:977  supplements[_productId] */\n      dup2\n      mstore\n      0x20\n      add\n      swap1\n      dup2\n      mstore\n      0x20\n      add\n      0x00\n      keccak256\n        /* \"contracts/SupplementTracker.sol\":947:977  return supplements[_productId] */\n      mload(0x40)\n      dup1\n      0xc0\n      add\n      0x40\n      mstore\n      swap1\n      dup2\n      0x00\n      dup3\n      add\n      dup1\n      sload\n      tag_72\n      swap1\n      tag_37\n      jump\t// in\n    tag_72:\n      dup1\n      0x1f\n      add\n      0x20\n      dup1\n      swap2\n      div\n      mul\n      0x20\n      add\n      mload(0x40)\n      swap1\n      dup2\n      add\n      0x40\n      mstore\n      dup1\n      swap3\n      swap2\n      swap1\n      dup2\n      dup2\n      mstore\n      0x20\n      add\n      dup3\n      dup1\n      sload\n      tag_73\n      swap1\n      tag_37\n      jump\t// in\n    tag_73:\n      dup1\n      iszero\n      tag_74\n      jumpi\n      dup1\n      0x1f\n      lt\n      tag_75\n      jumpi\n      0x0100\n      dup1\n      dup4\n      sload\n      div\n      mul\n      dup4\n      mstore\n      swap2\n      0x20\n      add\n      swap2\n      jump(tag_74)\n    tag_75:\n      dup3\n      add\n      swap2\n      swap1\n      0x00\n      mstore\n      keccak256(0x00, 0x20)\n      swap1\n    tag_76:\n      dup2\n      sload\n      dup2\n      mstore\n      swap1\n      0x01\n      add\n      swap1\n      0x20\n      add\n      dup1\n      dup4\n      gt\n      tag_76\n      jumpi\n      dup3\n      swap1\n      sub\n      0x1f\n      and\n      dup3\n      add\n      swap2\n    tag_74:\n      pop\n      pop\n      pop\n      pop\n      pop\n      dup2\n      mstore\n      0x20\n      add\n      0x01\n      dup3\n      add\n      dup1\n      sload\n      tag_77\n      swap1\n      tag_37\n      jump\t// in\n    tag_77:\n      dup1\n      0x1f\n      add\n      0x20\n      dup1\n      swap2\n      div\n      mul\n      0x20\n      add\n      mload(0x40)\n      swap1\n      dup2\n      add\n      0x40\n      mstore\n      dup1\n      swap3\n      swap2\n      swap1\n      dup2\n      dup2\n      mstore\n      0x20\n      add\n      dup3\n      dup1\n      sload\n      tag_78\n      swap1\n      tag_37\n      jump\t// in\n    tag_78:\n      dup1\n      iszero\n      tag_79\n      jumpi\n      dup1\n      0x1f\n      lt\n      tag_80\n      jumpi\n      0x0100\n      dup1\n      dup4\n      sload\n      div\n      mul\n      dup4\n      mstore\n      swap2\n      0x20\n      add\n      swap2\n      jump(tag_79)\n    tag_80:\n      dup3\n      add\n      swap2\n      swap1\n      0x00\n      mstore\n      keccak256(0x00, 0x20)\n      swap1\n    tag_81:\n      dup2\n      sload\n      dup2\n      mstore\n      swap1\n      0x01\n      add\n      swap1\n      0x20\n      add\n      dup1\n      dup4\n      gt\n      tag_81\n      jumpi\n      dup3\n      swap1\n      sub\n      0x1f\n      and\n      dup3\n      add\n      swap2\n    tag_79:\n      pop\n      pop\n      pop\n      pop\n      pop\n      dup2\n      mstore\n      0x20\n      add\n      0x02\n      dup3\n      add\n      sload\n      dup2\n      mstore\n      0x20\n      add\n      0x03\n      dup3\n      add\n      sload\n      dup2\n      mstore\n      0x20\n      add\n      0x04\n      dup3\n      add\n      sload\n      dup2\n      mstore\n      0x20\n      add\n      0x05\n      dup3\n      add\n      dup1\n      sload\n      tag_82\n      swap1\n      tag_37\n      jump\t// in\n    tag_82:\n      dup1\n      0x1f\n      add\n      0x20\n      dup1\n      swap2\n      div\n      mul\n      0x20\n      add\n      mload(0x40)\n      swap1\n      dup2\n      add\n      0x40\n      mstore\n      dup1\n      swap3\n      swap2\n      swap1\n      dup2\n      dup2\n      mstore\n      0x20\n      add\n      dup3\n      dup1\n      sload\n      tag_83\n      swap1\n      tag_37\n      jump\t// in\n    tag_83:\n      dup1\n      iszero\n      tag_84\n      jumpi\n      dup1\n      0x1f\n      lt\n      tag_85\n      jumpi\n      0x0100\n      dup1\n      dup4\n      sload\n      div\n      mul\n      dup4\n      mstore\n      swap2\n      0x20\n      add\n      swap2\n      jump(tag_84)\n    tag_85:\n      dup3\n      add\n      swap2\n      swap1\n      0x00\n      mstore\n      keccak256(0x00, 0x20)\n      swap1\n    tag_86:\n      dup2\n      sload\n      dup2\n      mstore\n      swap1\n      0x01\n      add\n      swap1\n      0x20\n      add\n      dup1\n      dup4\n      gt\n      tag_86\n      jumpi\n      dup3\n      swap1\n      sub\n      0x1f\n      and\n      dup3\n      add\n      swap2\n    tag_84:\n      pop\n      pop\n      pop\n      pop\n      pop\n      dup2\n      mstore\n      pop\n      pop\n      swap1\n      pop\n        /* \"contracts/SupplementTracker.sol\":781:985  function getSupplementInfo(uint _productId) public view returns (SupplementInfo memory) {... */\n      swap2\n      swap1\n      pop\n      jump\t// out\n        /* \"contracts/SupplementTracker.sol\":354:382  uint public productCount = 0 */\n    tag_24:\n      sload(0x01)\n      dup2\n      jump\t// out\n    tag_28:\n      mload(0x40)\n      dup1\n      0xc0\n      add\n      0x40\n      mstore\n      dup1\n      0x60\n      dup2\n      mstore\n      0x20\n      add\n      0x60\n      dup2\n      mstore\n      0x20\n      add\n      0x00\n      dup2\n      mstore\n      0x20\n      add\n      0x00\n      dup2\n      mstore\n      0x20\n      add\n      0x00\n      dup2\n      mstore\n      0x20\n      add\n      0x60\n      dup2\n      mstore\n      pop\n      swap1\n      jump\t// out\n        /* \"#utility.yul\":7:82   */\n    tag_87:\n        /* \"#utility.yul\":40:46   */\n      0x00\n        /* \"#utility.yul\":73:75   */\n      0x40\n        /* \"#utility.yul\":67:76   */\n      mload\n        /* \"#utility.yul\":57:76   */\n      swap1\n      pop\n        /* \"#utility.yul\":7:82   */\n      swap1\n      jump\t// out\n        /* \"#utility.yul\":88:205   */\n    tag_88:\n        /* \"#utility.yul\":197:198   */\n      0x00\n        /* \"#utility.yul\":194:195   */\n      dup1\n        /* \"#utility.yul\":187:199   */\n      revert\n        /* \"#utility.yul\":211:328   */\n    tag_89:\n        /* \"#utility.yul\":320:321   */\n      0x00\n        /* \"#utility.yul\":317:318   */\n      dup1\n        /* \"#utility.yul\":310:322   */\n      revert\n        /* \"#utility.yul\":334:451   */\n    tag_90:\n        /* \"#utility.yul\":443:444   */\n      0x00\n        /* \"#utility.yul\":440:441   */\n      dup1\n        /* \"#utility.yul\":433:445   */\n      revert\n        /* \"#utility.yul\":457:574   */\n    tag_91:\n        /* \"#utility.yul\":566:567   */\n      0x00\n        /* \"#utility.yul\":563:564   */\n      dup1\n        /* \"#utility.yul\":556:568   */\n      revert\n        /* \"#utility.yul\":580:682   */\n    tag_92:\n        /* \"#utility.yul\":621:627   */\n      0x00\n        /* \"#utility.yul\":672:674   */\n      0x1f\n        /* \"#utility.yul\":668:675   */\n      not\n        /* \"#utility.yul\":663:665   */\n      0x1f\n        /* \"#utility.yul\":656:661   */\n      dup4\n        /* \"#utility.yul\":652:666   */\n      add\n        /* \"#utility.yul\":648:676   */\n      and\n        /* \"#utility.yul\":638:676   */\n      swap1\n      pop\n        /* \"#utility.yul\":580:682   */\n      swap2\n      swap1\n      pop\n      jump\t// out\n        /* \"#utility.yul\":688:868   */\n    tag_93:\n        /* \"#utility.yul\":736:813   */\n      0x4e487b7100000000000000000000000000000000000000000000000000000000\n        /* \"#utility.yul\":733:734   */\n      0x00\n        /* \"#utility.yul\":726:814   */\n      mstore\n        /* \"#utility.yul\":833:837   */\n      0x41\n        /* \"#utility.yul\":830:831   */\n      0x04\n        /* \"#utility.yul\":823:838   */\n      mstore\n        /* \"#utility.yul\":857:861   */\n      0x24\n        /* \"#utility.yul\":854:855   */\n      0x00\n        /* \"#utility.yul\":847:862   */\n      revert\n        /* \"#utility.yul\":874:1155   */\n    tag_94:\n        /* \"#utility.yul\":957:984   */\n      tag_140\n        /* \"#utility.yul\":979:983   */\n      dup3\n        /* \"#utility.yul\":957:984   */\n      tag_92\n      jump\t// in\n    tag_140:\n        /* \"#utility.yul\":949:955   */\n      dup2\n        /* \"#utility.yul\":945:985   */\n      add\n        /* \"#utility.yul\":1087:1093   */\n      dup2\n        /* \"#utility.yul\":1075:1085   */\n      dup2\n        /* \"#utility.yul\":1072:1094   */\n      lt\n        /* \"#utility.yul\":1051:1069   */\n      0xffffffffffffffff\n        /* \"#utility.yul\":1039:1049   */\n      dup3\n        /* \"#utility.yul\":1036:1070   */\n      gt\n        /* \"#utility.yul\":1033:1095   */\n      or\n        /* \"#utility.yul\":1030:1118   */\n      iszero\n      tag_141\n      jumpi\n        /* \"#utility.yul\":1098:1116   */\n      tag_142\n      tag_93\n      jump\t// in\n    tag_142:\n        /* \"#utility.yul\":1030:1118   */\n    tag_141:\n        /* \"#utility.yul\":1138:1148   */\n      dup1\n        /* \"#utility.yul\":1134:1136   */\n      0x40\n        /* \"#utility.yul\":1127:1149   */\n      mstore\n        /* \"#utility.yul\":917:1155   */\n      pop\n        /* \"#utility.yul\":874:1155   */\n      pop\n      pop\n      jump\t// out\n        /* \"#utility.yul\":1161:1290   */\n    tag_95:\n        /* \"#utility.yul\":1195:1201   */\n      0x00\n        /* \"#utility.yul\":1222:1242   */\n      tag_144\n      tag_87\n      jump\t// in\n    tag_144:\n        /* \"#utility.yul\":1212:1242   */\n      swap1\n      pop\n        /* \"#utility.yul\":1251:1284   */\n      tag_145\n        /* \"#utility.yul\":1279:1283   */\n      dup3\n        /* \"#utility.yul\":1271:1277   */\n      dup3\n        /* \"#utility.yul\":1251:1284   */\n      tag_94\n      jump\t// in\n    tag_145:\n        /* \"#utility.yul\":1161:1290   */\n      swap2\n      swap1\n      pop\n      jump\t// out\n        /* \"#utility.yul\":1296:1604   */\n    tag_96:\n        /* \"#utility.yul\":1358:1362   */\n      0x00\n        /* \"#utility.yul\":1448:1466   */\n      0xffffffffffffffff\n        /* \"#utility.yul\":1440:1446   */\n      dup3\n        /* \"#utility.yul\":1437:1467   */\n      gt\n        /* \"#utility.yul\":1434:1490   */\n      iszero\n      tag_147\n      jumpi\n        /* \"#utility.yul\":1470:1488   */\n      tag_148\n      tag_93\n      jump\t// in\n    tag_148:\n        /* \"#utility.yul\":1434:1490   */\n    tag_147:\n        /* \"#utility.yul\":1508:1537   */\n      tag_149\n        /* \"#utility.yul\":1530:1536   */\n      dup3\n        /* \"#utility.yul\":1508:1537   */\n      tag_92\n      jump\t// in\n    tag_149:\n        /* \"#utility.yul\":1500:1537   */\n      swap1\n      pop\n        /* \"#utility.yul\":1592:1596   */\n      0x20\n        /* \"#utility.yul\":1586:1590   */\n      dup2\n        /* \"#utility.yul\":1582:1597   */\n      add\n        /* \"#utility.yul\":1574:1597   */\n      swap1\n      pop\n        /* \"#utility.yul\":1296:1604   */\n      swap2\n      swap1\n      pop\n      jump\t// out\n        /* \"#utility.yul\":1610:1756   */\n    tag_97:\n        /* \"#utility.yul\":1707:1713   */\n      dup3\n        /* \"#utility.yul\":1702:1705   */\n      dup2\n        /* \"#utility.yul\":1697:1700   */\n      dup4\n        /* \"#utility.yul\":1684:1714   */\n      calldatacopy\n        /* \"#utility.yul\":1748:1749   */\n      0x00\n        /* \"#utility.yul\":1739:1745   */\n      dup4\n        /* \"#utility.yul\":1734:1737   */\n      dup4\n        /* \"#utility.yul\":1730:1746   */\n      add\n        /* \"#utility.yul\":1723:1750   */\n      mstore\n        /* \"#utility.yul\":1610:1756   */\n      pop\n      pop\n      pop\n      jump\t// out\n        /* \"#utility.yul\":1762:2187   */\n    tag_98:\n        /* \"#utility.yul\":1840:1845   */\n      0x00\n        /* \"#utility.yul\":1865:1931   */\n      tag_152\n        /* \"#utility.yul\":1881:1930   */\n      tag_153\n        /* \"#utility.yul\":1923:1929   */\n      dup5\n        /* \"#utility.yul\":1881:1930   */\n      tag_96\n      jump\t// in\n    tag_153:\n        /* \"#utility.yul\":1865:1931   */\n      tag_95\n      jump\t// in\n    tag_152:\n        /* \"#utility.yul\":1856:1931   */\n      swap1\n      pop\n        /* \"#utility.yul\":1954:1960   */\n      dup3\n        /* \"#utility.yul\":1947:1952   */\n      dup2\n        /* \"#utility.yul\":1940:1961   */\n      mstore\n        /* \"#utility.yul\":1992:1996   */\n      0x20\n        /* \"#utility.yul\":1985:1990   */\n      dup2\n        /* \"#utility.yul\":1981:1997   */\n      add\n        /* \"#utility.yul\":2030:2033   */\n      dup5\n        /* \"#utility.yul\":2021:2027   */\n      dup5\n        /* \"#utility.yul\":2016:2019   */\n      dup5\n        /* \"#utility.yul\":2012:2028   */\n      add\n        /* \"#utility.yul\":2009:2034   */\n      gt\n        /* \"#utility.yul\":2006:2118   */\n      iszero\n      tag_154\n      jumpi\n        /* \"#utility.yul\":2037:2116   */\n      tag_155\n      tag_91\n      jump\t// in\n    tag_155:\n        /* \"#utility.yul\":2006:2118   */\n    tag_154:\n        /* \"#utility.yul\":2127:2181   */\n      tag_156\n        /* \"#utility.yul\":2174:2180   */\n      dup5\n        /* \"#utility.yul\":2169:2172   */\n      dup3\n        /* \"#utility.yul\":2164:2167   */\n      dup6\n        /* \"#utility.yul\":2127:2181   */\n      tag_97\n      jump\t// in\n    tag_156:\n        /* \"#utility.yul\":1846:2187   */\n      pop\n        /* \"#utility.yul\":1762:2187   */\n      swap4\n      swap3\n      pop\n      pop\n      pop\n      jump\t// out\n        /* \"#utility.yul\":2207:2547   */\n    tag_99:\n        /* \"#utility.yul\":2263:2268   */\n      0x00\n        /* \"#utility.yul\":2312:2315   */\n      dup3\n        /* \"#utility.yul\":2305:2309   */\n      0x1f\n        /* \"#utility.yul\":2297:2303   */\n      dup4\n        /* \"#utility.yul\":2293:2310   */\n      add\n        /* \"#utility.yul\":2289:2316   */\n      slt\n        /* \"#utility.yul\":2279:2401   */\n      tag_158\n      jumpi\n        /* \"#utility.yul\":2320:2399   */\n      tag_159\n      tag_90\n      jump\t// in\n    tag_159:\n        /* \"#utility.yul\":2279:2401   */\n    tag_158:\n        /* \"#utility.yul\":2437:2443   */\n      dup2\n        /* \"#utility.yul\":2424:2444   */\n      calldataload\n        /* \"#utility.yul\":2462:2541   */\n      tag_160\n        /* \"#utility.yul\":2537:2540   */\n      dup5\n        /* \"#utility.yul\":2529:2535   */\n      dup3\n        /* \"#utility.yul\":2522:2526   */\n      0x20\n        /* \"#utility.yul\":2514:2520   */\n      dup7\n        /* \"#utility.yul\":2510:2527   */\n      add\n        /* \"#utility.yul\":2462:2541   */\n      tag_98\n      jump\t// in\n    tag_160:\n        /* \"#utility.yul\":2453:2541   */\n      swap2\n      pop\n        /* \"#utility.yul\":2269:2547   */\n      pop\n        /* \"#utility.yul\":2207:2547   */\n      swap3\n      swap2\n      pop\n      pop\n      jump\t// out\n        /* \"#utility.yul\":2553:2630   */\n    tag_100:\n        /* \"#utility.yul\":2590:2597   */\n      0x00\n        /* \"#utility.yul\":2619:2624   */\n      dup2\n        /* \"#utility.yul\":2608:2624   */\n      swap1\n      pop\n        /* \"#utility.yul\":2553:2630   */\n      swap2\n      swap1\n      pop\n      jump\t// out\n        /* \"#utility.yul\":2636:2758   */\n    tag_101:\n        /* \"#utility.yul\":2709:2733   */\n      tag_163\n        /* \"#utility.yul\":2727:2732   */\n      dup2\n        /* \"#utility.yul\":2709:2733   */\n      tag_100\n      jump\t// in\n    tag_163:\n        /* \"#utility.yul\":2702:2707   */\n      dup2\n        /* \"#utility.yul\":2699:2734   */\n      eq\n        /* \"#utility.yul\":2689:2752   */\n      tag_164\n      jumpi\n        /* \"#utility.yul\":2748:2749   */\n      0x00\n        /* \"#utility.yul\":2745:2746   */\n      dup1\n        /* \"#utility.yul\":2738:2750   */\n      revert\n        /* \"#utility.yul\":2689:2752   */\n    tag_164:\n        /* \"#utility.yul\":2636:2758   */\n      pop\n      jump\t// out\n        /* \"#utility.yul\":2764:2903   */\n    tag_102:\n        /* \"#utility.yul\":2810:2815   */\n      0x00\n        /* \"#utility.yul\":2848:2854   */\n      dup2\n        /* \"#utility.yul\":2835:2855   */\n      calldataload\n        /* \"#utility.yul\":2826:2855   */\n      swap1\n      pop\n        /* \"#utility.yul\":2864:2897   */\n      tag_166\n        /* \"#utility.yul\":2891:2896   */\n      dup2\n        /* \"#utility.yul\":2864:2897   */\n      tag_101\n      jump\t// in\n    tag_166:\n        /* \"#utility.yul\":2764:2903   */\n      swap3\n      swap2\n      pop\n      pop\n      jump\t// out\n        /* \"#utility.yul\":2909:4506   */\n    tag_9:\n        /* \"#utility.yul\":3043:3049   */\n      0x00\n        /* \"#utility.yul\":3051:3057   */\n      dup1\n        /* \"#utility.yul\":3059:3065   */\n      0x00\n        /* \"#utility.yul\":3067:3073   */\n      dup1\n        /* \"#utility.yul\":3075:3081   */\n      0x00\n        /* \"#utility.yul\":3083:3089   */\n      dup1\n        /* \"#utility.yul\":3132:3135   */\n      0xc0\n        /* \"#utility.yul\":3120:3129   */\n      dup8\n        /* \"#utility.yul\":3111:3118   */\n      dup10\n        /* \"#utility.yul\":3107:3130   */\n      sub\n        /* \"#utility.yul\":3103:3136   */\n      slt\n        /* \"#utility.yul\":3100:3220   */\n      iszero\n      tag_168\n      jumpi\n        /* \"#utility.yul\":3139:3218   */\n      tag_169\n      tag_88\n      jump\t// in\n    tag_169:\n        /* \"#utility.yul\":3100:3220   */\n    tag_168:\n        /* \"#utility.yul\":3287:3288   */\n      0x00\n        /* \"#utility.yul\":3276:3285   */\n      dup8\n        /* \"#utility.yul\":3272:3289   */\n      add\n        /* \"#utility.yul\":3259:3290   */\n      calldataload\n        /* \"#utility.yul\":3317:3335   */\n      0xffffffffffffffff\n        /* \"#utility.yul\":3309:3315   */\n      dup2\n        /* \"#utility.yul\":3306:3336   */\n      gt\n        /* \"#utility.yul\":3303:3420   */\n      iszero\n      tag_170\n      jumpi\n        /* \"#utility.yul\":3339:3418   */\n      tag_171\n      tag_89\n      jump\t// in\n    tag_171:\n        /* \"#utility.yul\":3303:3420   */\n    tag_170:\n        /* \"#utility.yul\":3444:3507   */\n      tag_172\n        /* \"#utility.yul\":3499:3506   */\n      dup10\n        /* \"#utility.yul\":3490:3496   */\n      dup3\n        /* \"#utility.yul\":3479:3488   */\n      dup11\n        /* \"#utility.yul\":3475:3497   */\n      add\n        /* \"#utility.yul\":3444:3507   */\n      tag_99\n      jump\t// in\n    tag_172:\n        /* \"#utility.yul\":3434:3507   */\n      swap7\n      pop\n        /* \"#utility.yul\":3230:3517   */\n      pop\n        /* \"#utility.yul\":3584:3586   */\n      0x20\n        /* \"#utility.yul\":3573:3582   */\n      dup8\n        /* \"#utility.yul\":3569:3587   */\n      add\n        /* \"#utility.yul\":3556:3588   */\n      calldataload\n        /* \"#utility.yul\":3615:3633   */\n      0xffffffffffffffff\n        /* \"#utility.yul\":3607:3613   */\n      dup2\n        /* \"#utility.yul\":3604:3634   */\n      gt\n        /* \"#utility.yul\":3601:3718   */\n      iszero\n      tag_173\n      jumpi\n        /* \"#utility.yul\":3637:3716   */\n      tag_174\n      tag_89\n      jump\t// in\n    tag_174:\n        /* \"#utility.yul\":3601:3718   */\n    tag_173:\n        /* \"#utility.yul\":3742:3805   */\n      tag_175\n        /* \"#utility.yul\":3797:3804   */\n      dup10\n        /* \"#utility.yul\":3788:3794   */\n      dup3\n        /* \"#utility.yul\":3777:3786   */\n      dup11\n        /* \"#utility.yul\":3773:3795   */\n      add\n        /* \"#utility.yul\":3742:3805   */\n      tag_99\n      jump\t// in\n    tag_175:\n        /* \"#utility.yul\":3732:3805   */\n      swap6\n      pop\n        /* \"#utility.yul\":3527:3815   */\n      pop\n        /* \"#utility.yul\":3854:3856   */\n      0x40\n        /* \"#utility.yul\":3880:3933   */\n      tag_176\n        /* \"#utility.yul\":3925:3932   */\n      dup10\n        /* \"#utility.yul\":3916:3922   */\n      dup3\n        /* \"#utility.yul\":3905:3914   */\n      dup11\n        /* \"#utility.yul\":3901:3923   */\n      add\n        /* \"#utility.yul\":3880:3933   */\n      tag_102\n      jump\t// in\n    tag_176:\n        /* \"#utility.yul\":3870:3933   */\n      swap5\n      pop\n        /* \"#utility.yul\":3825:3943   */\n      pop\n        /* \"#utility.yul\":3982:3984   */\n      0x60\n        /* \"#utility.yul\":4008:4061   */\n      tag_177\n        /* \"#utility.yul\":4053:4060   */\n      dup10\n        /* \"#utility.yul\":4044:4050   */\n      dup3\n        /* \"#utility.yul\":4033:4042   */\n      dup11\n        /* \"#utility.yul\":4029:4051   */\n      add\n        /* \"#utility.yul\":4008:4061   */\n      tag_102\n      jump\t// in\n    tag_177:\n        /* \"#utility.yul\":3998:4061   */\n      swap4\n      pop\n        /* \"#utility.yul\":3953:4071   */\n      pop\n        /* \"#utility.yul\":4110:4113   */\n      0x80\n        /* \"#utility.yul\":4137:4190   */\n      tag_178\n        /* \"#utility.yul\":4182:4189   */\n      dup10\n        /* \"#utility.yul\":4173:4179   */\n      dup3\n        /* \"#utility.yul\":4162:4171   */\n      dup11\n        /* \"#utility.yul\":4158:4180   */\n      add\n        /* \"#utility.yul\":4137:4190   */\n      tag_102\n      jump\t// in\n    tag_178:\n        /* \"#utility.yul\":4127:4190   */\n      swap3\n      pop\n        /* \"#utility.yul\":4081:4200   */\n      pop\n        /* \"#utility.yul\":4267:4270   */\n      0xa0\n        /* \"#utility.yul\":4256:4265   */\n      dup8\n        /* \"#utility.yul\":4252:4271   */\n      add\n        /* \"#utility.yul\":4239:4272   */\n      calldataload\n        /* \"#utility.yul\":4299:4317   */\n      0xffffffffffffffff\n        /* \"#utility.yul\":4291:4297   */\n      dup2\n        /* \"#utility.yul\":4288:4318   */\n      gt\n        /* \"#utility.yul\":4285:4402   */\n      iszero\n      tag_179\n      jumpi\n        /* \"#utility.yul\":4321:4400   */\n      tag_180\n      tag_89\n      jump\t// in\n    tag_180:\n        /* \"#utility.yul\":4285:4402   */\n    tag_179:\n        /* \"#utility.yul\":4426:4489   */\n      tag_181\n        /* \"#utility.yul\":4481:4488   */\n      dup10\n        /* \"#utility.yul\":4472:4478   */\n      dup3\n        /* \"#utility.yul\":4461:4470   */\n      dup11\n        /* \"#utility.yul\":4457:4479   */\n      add\n        /* \"#utility.yul\":4426:4489   */\n      tag_99\n      jump\t// in\n    tag_181:\n        /* \"#utility.yul\":4416:4489   */\n      swap2\n      pop\n        /* \"#utility.yul\":4210:4499   */\n      pop\n        /* \"#utility.yul\":2909:4506   */\n      swap3\n      swap6\n      pop\n      swap3\n      swap6\n      pop\n      swap3\n      swap6\n      jump\t// out\n        /* \"#utility.yul\":4512:4611   */\n    tag_103:\n        /* \"#utility.yul\":4564:4570   */\n      0x00\n        /* \"#utility.yul\":4598:4603   */\n      dup2\n        /* \"#utility.yul\":4592:4604   */\n      mload\n        /* \"#utility.yul\":4582:4604   */\n      swap1\n      pop\n        /* \"#utility.yul\":4512:4611   */\n      swap2\n      swap1\n      pop\n      jump\t// out\n        /* \"#utility.yul\":4617:4776   */\n    tag_104:\n        /* \"#utility.yul\":4691:4702   */\n      0x00\n        /* \"#utility.yul\":4725:4731   */\n      dup3\n        /* \"#utility.yul\":4720:4723   */\n      dup3\n        /* \"#utility.yul\":4713:4732   */\n      mstore\n        /* \"#utility.yul\":4765:4769   */\n      0x20\n        /* \"#utility.yul\":4760:4763   */\n      dup3\n        /* \"#utility.yul\":4756:4770   */\n      add\n        /* \"#utility.yul\":4741:4770   */\n      swap1\n      pop\n        /* \"#utility.yul\":4617:4776   */\n      swap3\n      swap2\n      pop\n      pop\n      jump\t// out\n        /* \"#utility.yul\":4782:5028   */\n    tag_105:\n        /* \"#utility.yul\":4863:4864   */\n      0x00\n        /* \"#utility.yul\":4873:4986   */\n    tag_185:\n        /* \"#utility.yul\":4887:4893   */\n      dup4\n        /* \"#utility.yul\":4884:4885   */\n      dup2\n        /* \"#utility.yul\":4881:4894   */\n      lt\n        /* \"#utility.yul\":4873:4986   */\n      iszero\n      tag_187\n      jumpi\n        /* \"#utility.yul\":4972:4973   */\n      dup1\n        /* \"#utility.yul\":4967:4970   */\n      dup3\n        /* \"#utility.yul\":4963:4974   */\n      add\n        /* \"#utility.yul\":4957:4975   */\n      mload\n        /* \"#utility.yul\":4953:4954   */\n      dup2\n        /* \"#utility.yul\":4948:4951   */\n      dup5\n        /* \"#utility.yul\":4944:4955   */\n      add\n        /* \"#utility.yul\":4937:4976   */\n      mstore\n        /* \"#utility.yul\":4909:4911   */\n      0x20\n        /* \"#utility.yul\":4906:4907   */\n      dup2\n        /* \"#utility.yul\":4902:4912   */\n      add\n        /* \"#utility.yul\":4897:4912   */\n      swap1\n      pop\n        /* \"#utility.yul\":4873:4986   */\n      jump(tag_185)\n    tag_187:\n        /* \"#utility.yul\":5020:5021   */\n      0x00\n        /* \"#utility.yul\":5011:5017   */\n      dup5\n        /* \"#utility.yul\":5006:5009   */\n      dup5\n        /* \"#utility.yul\":5002:5018   */\n      add\n        /* \"#utility.yul\":4995:5022   */\n      mstore\n        /* \"#utility.yul\":4844:5028   */\n      pop\n        /* \"#utility.yul\":4782:5028   */\n      pop\n      pop\n      pop\n      jump\t// out\n        /* \"#utility.yul\":5034:5391   */\n    tag_106:\n        /* \"#utility.yul\":5112:5115   */\n      0x00\n        /* \"#utility.yul\":5140:5179   */\n      tag_189\n        /* \"#utility.yul\":5173:5178   */\n      dup3\n        /* \"#utility.yul\":5140:5179   */\n      tag_103\n      jump\t// in\n    tag_189:\n        /* \"#utility.yul\":5195:5256   */\n      tag_190\n        /* \"#utility.yul\":5249:5255   */\n      dup2\n        /* \"#utility.yul\":5244:5247   */\n      dup6\n        /* \"#utility.yul\":5195:5256   */\n      tag_104\n      jump\t// in\n    tag_190:\n        /* \"#utility.yul\":5188:5256   */\n      swap4\n      pop\n        /* \"#utility.yul\":5265:5330   */\n      tag_191\n        /* \"#utility.yul\":5323:5329   */\n      dup2\n        /* \"#utility.yul\":5318:5321   */\n      dup6\n        /* \"#utility.yul\":5311:5315   */\n      0x20\n        /* \"#utility.yul\":5304:5309   */\n      dup7\n        /* \"#utility.yul\":5300:5316   */\n      add\n        /* \"#utility.yul\":5265:5330   */\n      tag_105\n      jump\t// in\n    tag_191:\n        /* \"#utility.yul\":5355:5384   */\n      tag_192\n        /* \"#utility.yul\":5377:5383   */\n      dup2\n        /* \"#utility.yul\":5355:5384   */\n      tag_92\n      jump\t// in\n    tag_192:\n        /* \"#utility.yul\":5350:5353   */\n      dup5\n        /* \"#utility.yul\":5346:5385   */\n      add\n        /* \"#utility.yul\":5339:5385   */\n      swap2\n      pop\n        /* \"#utility.yul\":5116:5391   */\n      pop\n        /* \"#utility.yul\":5034:5391   */\n      swap3\n      swap2\n      pop\n      pop\n      jump\t// out\n        /* \"#utility.yul\":5397:5505   */\n    tag_107:\n        /* \"#utility.yul\":5474:5498   */\n      tag_194\n        /* \"#utility.yul\":5492:5497   */\n      dup2\n        /* \"#utility.yul\":5474:5498   */\n      tag_100\n      jump\t// in\n    tag_194:\n        /* \"#utility.yul\":5469:5472   */\n      dup3\n        /* \"#utility.yul\":5462:5499   */\n      mstore\n        /* \"#utility.yul\":5397:5505   */\n      pop\n      pop\n      jump\t// out\n        /* \"#utility.yul\":5601:7080   */\n    tag_108:\n        /* \"#utility.yul\":5730:5733   */\n      0x00\n        /* \"#utility.yul\":5766:5770   */\n      0xc0\n        /* \"#utility.yul\":5761:5764   */\n      dup4\n        /* \"#utility.yul\":5757:5771   */\n      add\n        /* \"#utility.yul\":5853:5857   */\n      0x00\n        /* \"#utility.yul\":5846:5851   */\n      dup4\n        /* \"#utility.yul\":5842:5858   */\n      add\n        /* \"#utility.yul\":5836:5859   */\n      mload\n        /* \"#utility.yul\":5906:5909   */\n      dup5\n        /* \"#utility.yul\":5900:5904   */\n      dup3\n        /* \"#utility.yul\":5896:5910   */\n      sub\n        /* \"#utility.yul\":5889:5893   */\n      0x00\n        /* \"#utility.yul\":5884:5887   */\n      dup7\n        /* \"#utility.yul\":5880:5894   */\n      add\n        /* \"#utility.yul\":5873:5911   */\n      mstore\n        /* \"#utility.yul\":5932:6005   */\n      tag_196\n        /* \"#utility.yul\":6000:6004   */\n      dup3\n        /* \"#utility.yul\":5986:5998   */\n      dup3\n        /* \"#utility.yul\":5932:6005   */\n      tag_106\n      jump\t// in\n    tag_196:\n        /* \"#utility.yul\":5924:6005   */\n      swap2\n      pop\n        /* \"#utility.yul\":5781:6016   */\n      pop\n        /* \"#utility.yul\":6106:6110   */\n      0x20\n        /* \"#utility.yul\":6099:6104   */\n      dup4\n        /* \"#utility.yul\":6095:6111   */\n      add\n        /* \"#utility.yul\":6089:6112   */\n      mload\n        /* \"#utility.yul\":6159:6162   */\n      dup5\n        /* \"#utility.yul\":6153:6157   */\n      dup3\n        /* \"#utility.yul\":6149:6163   */\n      sub\n        /* \"#utility.yul\":6142:6146   */\n      0x20\n        /* \"#utility.yul\":6137:6140   */\n      dup7\n        /* \"#utility.yul\":6133:6147   */\n      add\n        /* \"#utility.yul\":6126:6164   */\n      mstore\n        /* \"#utility.yul\":6185:6258   */\n      tag_197\n        /* \"#utility.yul\":6253:6257   */\n      dup3\n        /* \"#utility.yul\":6239:6251   */\n      dup3\n        /* \"#utility.yul\":6185:6258   */\n      tag_106\n      jump\t// in\n    tag_197:\n        /* \"#utility.yul\":6177:6258   */\n      swap2\n      pop\n        /* \"#utility.yul\":6026:6269   */\n      pop\n        /* \"#utility.yul\":6361:6365   */\n      0x40\n        /* \"#utility.yul\":6354:6359   */\n      dup4\n        /* \"#utility.yul\":6350:6366   */\n      add\n        /* \"#utility.yul\":6344:6367   */\n      mload\n        /* \"#utility.yul\":6380:6443   */\n      tag_198\n        /* \"#utility.yul\":6437:6441   */\n      0x40\n        /* \"#utility.yul\":6432:6435   */\n      dup7\n        /* \"#utility.yul\":6428:6442   */\n      add\n        /* \"#utility.yul\":6414:6426   */\n      dup3\n        /* \"#utility.yul\":6380:6443   */\n      tag_107\n      jump\t// in\n    tag_198:\n        /* \"#utility.yul\":6279:6453   */\n      pop\n        /* \"#utility.yul\":6536:6540   */\n      0x60\n        /* \"#utility.yul\":6529:6534   */\n      dup4\n        /* \"#utility.yul\":6525:6541   */\n      add\n        /* \"#utility.yul\":6519:6542   */\n      mload\n        /* \"#utility.yul\":6555:6618   */\n      tag_199\n        /* \"#utility.yul\":6612:6616   */\n      0x60\n        /* \"#utility.yul\":6607:6610   */\n      dup7\n        /* \"#utility.yul\":6603:6617   */\n      add\n        /* \"#utility.yul\":6589:6601   */\n      dup3\n        /* \"#utility.yul\":6555:6618   */\n      tag_107\n      jump\t// in\n    tag_199:\n        /* \"#utility.yul\":6463:6628   */\n      pop\n        /* \"#utility.yul\":6710:6714   */\n      0x80\n        /* \"#utility.yul\":6703:6708   */\n      dup4\n        /* \"#utility.yul\":6699:6715   */\n      add\n        /* \"#utility.yul\":6693:6716   */\n      mload\n        /* \"#utility.yul\":6729:6792   */\n      tag_200\n        /* \"#utility.yul\":6786:6790   */\n      0x80\n        /* \"#utility.yul\":6781:6784   */\n      dup7\n        /* \"#utility.yul\":6777:6791   */\n      add\n        /* \"#utility.yul\":6763:6775   */\n      dup3\n        /* \"#utility.yul\":6729:6792   */\n      tag_107\n      jump\t// in\n    tag_200:\n        /* \"#utility.yul\":6638:6802   */\n      pop\n        /* \"#utility.yul\":6890:6894   */\n      0xa0\n        /* \"#utility.yul\":6883:6888   */\n      dup4\n        /* \"#utility.yul\":6879:6895   */\n      add\n        /* \"#utility.yul\":6873:6896   */\n      mload\n        /* \"#utility.yul\":6943:6946   */\n      dup5\n        /* \"#utility.yul\":6937:6941   */\n      dup3\n        /* \"#utility.yul\":6933:6947   */\n      sub\n        /* \"#utility.yul\":6926:6930   */\n      0xa0\n        /* \"#utility.yul\":6921:6924   */\n      dup7\n        /* \"#utility.yul\":6917:6931   */\n      add\n        /* \"#utility.yul\":6910:6948   */\n      mstore\n        /* \"#utility.yul\":6969:7042   */\n      tag_201\n        /* \"#utility.yul\":7037:7041   */\n      dup3\n        /* \"#utility.yul\":7023:7035   */\n      dup3\n        /* \"#utility.yul\":6969:7042   */\n      tag_106\n      jump\t// in\n    tag_201:\n        /* \"#utility.yul\":6961:7042   */\n      swap2\n      pop\n        /* \"#utility.yul\":6812:7053   */\n      pop\n        /* \"#utility.yul\":7070:7074   */\n      dup1\n        /* \"#utility.yul\":7063:7074   */\n      swap2\n      pop\n        /* \"#utility.yul\":5735:7080   */\n      pop\n        /* \"#utility.yul\":5601:7080   */\n      swap3\n      swap2\n      pop\n      pop\n      jump\t// out\n        /* \"#utility.yul\":7086:7479   */\n    tag_12:\n        /* \"#utility.yul\":7239:7243   */\n      0x00\n        /* \"#utility.yul\":7277:7279   */\n      0x20\n        /* \"#utility.yul\":7266:7275   */\n      dup3\n        /* \"#utility.yul\":7262:7280   */\n      add\n        /* \"#utility.yul\":7254:7280   */\n      swap1\n      pop\n        /* \"#utility.yul\":7326:7335   */\n      dup2\n        /* \"#utility.yul\":7320:7324   */\n      dup2\n        /* \"#utility.yul\":7316:7336   */\n      sub\n        /* \"#utility.yul\":7312:7313   */\n      0x00\n        /* \"#utility.yul\":7301:7310   */\n      dup4\n        /* \"#utility.yul\":7297:7314   */\n      add\n        /* \"#utility.yul\":7290:7337   */\n      mstore\n        /* \"#utility.yul\":7354:7472   */\n      tag_203\n        /* \"#utility.yul\":7467:7471   */\n      dup2\n        /* \"#utility.yul\":7458:7464   */\n      dup5\n        /* \"#utility.yul\":7354:7472   */\n      tag_108\n      jump\t// in\n    tag_203:\n        /* \"#utility.yul\":7346:7472   */\n      swap1\n      pop\n        /* \"#utility.yul\":7086:7479   */\n      swap3\n      swap2\n      pop\n      pop\n      jump\t// out\n        /* \"#utility.yul\":7485:7814   */\n    tag_15:\n        /* \"#utility.yul\":7544:7550   */\n      0x00\n        /* \"#utility.yul\":7593:7595   */\n      0x20\n        /* \"#utility.yul\":7581:7590   */\n      dup3\n        /* \"#utility.yul\":7572:7579   */\n      dup5\n        /* \"#utility.yul\":7568:7591   */\n      sub\n        /* \"#utility.yul\":7564:7596   */\n      slt\n        /* \"#utility.yul\":7561:7680   */\n      iszero\n      tag_205\n      jumpi\n        /* \"#utility.yul\":7599:7678   */\n      tag_206\n      tag_88\n      jump\t// in\n    tag_206:\n        /* \"#utility.yul\":7561:7680   */\n    tag_205:\n        /* \"#utility.yul\":7719:7720   */\n      0x00\n        /* \"#utility.yul\":7744:7797   */\n      tag_207\n        /* \"#utility.yul\":7789:7796   */\n      dup5\n        /* \"#utility.yul\":7780:7786   */\n      dup3\n        /* \"#utility.yul\":7769:7778   */\n      dup6\n        /* \"#utility.yul\":7765:7787   */\n      add\n        /* \"#utility.yul\":7744:7797   */\n      tag_102\n      jump\t// in\n    tag_207:\n        /* \"#utility.yul\":7734:7797   */\n      swap2\n      pop\n        /* \"#utility.yul\":7690:7807   */\n      pop\n        /* \"#utility.yul\":7485:7814   */\n      swap3\n      swap2\n      pop\n      pop\n      jump\t// out\n        /* \"#utility.yul\":7820:7989   */\n    tag_109:\n        /* \"#utility.yul\":7904:7915   */\n      0x00\n        /* \"#utility.yul\":7938:7944   */\n      dup3\n        /* \"#utility.yul\":7933:7936   */\n      dup3\n        /* \"#utility.yul\":7926:7945   */\n      mstore\n        /* \"#utility.yul\":7978:7982   */\n      0x20\n        /* \"#utility.yul\":7973:7976   */\n      dup3\n        /* \"#utility.yul\":7969:7983   */\n      add\n        /* \"#utility.yul\":7954:7983   */\n      swap1\n      pop\n        /* \"#utility.yul\":7820:7989   */\n      swap3\n      swap2\n      pop\n      pop\n      jump\t// out\n        /* \"#utility.yul\":7995:8372   */\n    tag_110:\n        /* \"#utility.yul\":8083:8086   */\n      0x00\n        /* \"#utility.yul\":8111:8150   */\n      tag_210\n        /* \"#utility.yul\":8144:8149   */\n      dup3\n        /* \"#utility.yul\":8111:8150   */\n      tag_103\n      jump\t// in\n    tag_210:\n        /* \"#utility.yul\":8166:8237   */\n      tag_211\n        /* \"#utility.yul\":8230:8236   */\n      dup2\n        /* \"#utility.yul\":8225:8228   */\n      dup6\n        /* \"#utility.yul\":8166:8237   */\n      tag_109\n      jump\t// in\n    tag_211:\n        /* \"#utility.yul\":8159:8237   */\n      swap4\n      pop\n        /* \"#utility.yul\":8246:8311   */\n      tag_212\n        /* \"#utility.yul\":8304:8310   */\n      dup2\n        /* \"#utility.yul\":8299:8302   */\n      dup6\n        /* \"#utility.yul\":8292:8296   */\n      0x20\n        /* \"#utility.yul\":8285:8290   */\n      dup7\n        /* \"#utility.yul\":8281:8297   */\n      add\n        /* \"#utility.yul\":8246:8311   */\n      tag_105\n      jump\t// in\n    tag_212:\n        /* \"#utility.yul\":8336:8365   */\n      tag_213\n        /* \"#utility.yul\":8358:8364   */\n      dup2\n        /* \"#utility.yul\":8336:8365   */\n      tag_92\n      jump\t// in\n    tag_213:\n        /* \"#utility.yul\":8331:8334   */\n      dup5\n        /* \"#utility.yul\":8327:8366   */\n      add\n        /* \"#utility.yul\":8320:8366   */\n      swap2\n      pop\n        /* \"#utility.yul\":8087:8372   */\n      pop\n        /* \"#utility.yul\":7995:8372   */\n      swap3\n      swap2\n      pop\n      pop\n      jump\t// out\n        /* \"#utility.yul\":8378:8496   */\n    tag_111:\n        /* \"#utility.yul\":8465:8489   */\n      tag_215\n        /* \"#utility.yul\":8483:8488   */\n      dup2\n        /* \"#utility.yul\":8465:8489   */\n      tag_100\n      jump\t// in\n    tag_215:\n        /* \"#utility.yul\":8460:8463   */\n      dup3\n        /* \"#utility.yul\":8453:8490   */\n      mstore\n        /* \"#utility.yul\":8378:8496   */\n      pop\n      pop\n      jump\t// out\n        /* \"#utility.yul\":8502:9550   */\n    tag_18:\n        /* \"#utility.yul\":8795:8799   */\n      0x00\n        /* \"#utility.yul\":8833:8836   */\n      0xc0\n        /* \"#utility.yul\":8822:8831   */\n      dup3\n        /* \"#utility.yul\":8818:8837   */\n      add\n        /* \"#utility.yul\":8810:8837   */\n      swap1\n      pop\n        /* \"#utility.yul\":8883:8892   */\n      dup2\n        /* \"#utility.yul\":8877:8881   */\n      dup2\n        /* \"#utility.yul\":8873:8893   */\n      sub\n        /* \"#utility.yul\":8869:8870   */\n      0x00\n        /* \"#utility.yul\":8858:8867   */\n      dup4\n        /* \"#utility.yul\":8854:8871   */\n      add\n        /* \"#utility.yul\":8847:8894   */\n      mstore\n        /* \"#utility.yul\":8911:8989   */\n      tag_217\n        /* \"#utility.yul\":8984:8988   */\n      dup2\n        /* \"#utility.yul\":8975:8981   */\n      dup10\n        /* \"#utility.yul\":8911:8989   */\n      tag_110\n      jump\t// in\n    tag_217:\n        /* \"#utility.yul\":8903:8989   */\n      swap1\n      pop\n        /* \"#utility.yul\":9036:9045   */\n      dup2\n        /* \"#utility.yul\":9030:9034   */\n      dup2\n        /* \"#utility.yul\":9026:9046   */\n      sub\n        /* \"#utility.yul\":9021:9023   */\n      0x20\n        /* \"#utility.yul\":9010:9019   */\n      dup4\n        /* \"#utility.yul\":9006:9024   */\n      add\n        /* \"#utility.yul\":8999:9047   */\n      mstore\n        /* \"#utility.yul\":9064:9142   */\n      tag_218\n        /* \"#utility.yul\":9137:9141   */\n      dup2\n        /* \"#utility.yul\":9128:9134   */\n      dup9\n        /* \"#utility.yul\":9064:9142   */\n      tag_110\n      jump\t// in\n    tag_218:\n        /* \"#utility.yul\":9056:9142   */\n      swap1\n      pop\n        /* \"#utility.yul\":9152:9224   */\n      tag_219\n        /* \"#utility.yul\":9220:9222   */\n      0x40\n        /* \"#utility.yul\":9209:9218   */\n      dup4\n        /* \"#utility.yul\":9205:9223   */\n      add\n        /* \"#utility.yul\":9196:9202   */\n      dup8\n        /* \"#utility.yul\":9152:9224   */\n      tag_111\n      jump\t// in\n    tag_219:\n        /* \"#utility.yul\":9234:9306   */\n      tag_220\n        /* \"#utility.yul\":9302:9304   */\n      0x60\n        /* \"#utility.yul\":9291:9300   */\n      dup4\n        /* \"#utility.yul\":9287:9305   */\n      add\n        /* \"#utility.yul\":9278:9284   */\n      dup7\n        /* \"#utility.yul\":9234:9306   */\n      tag_111\n      jump\t// in\n    tag_220:\n        /* \"#utility.yul\":9316:9389   */\n      tag_221\n        /* \"#utility.yul\":9384:9387   */\n      0x80\n        /* \"#utility.yul\":9373:9382   */\n      dup4\n        /* \"#utility.yul\":9369:9388   */\n      add\n        /* \"#utility.yul\":9360:9366   */\n      dup6\n        /* \"#utility.yul\":9316:9389   */\n      tag_111\n      jump\t// in\n    tag_221:\n        /* \"#utility.yul\":9437:9446   */\n      dup2\n        /* \"#utility.yul\":9431:9435   */\n      dup2\n        /* \"#utility.yul\":9427:9447   */\n      sub\n        /* \"#utility.yul\":9421:9424   */\n      0xa0\n        /* \"#utility.yul\":9410:9419   */\n      dup4\n        /* \"#utility.yul\":9406:9425   */\n      add\n        /* \"#utility.yul\":9399:9448   */\n      mstore\n        /* \"#utility.yul\":9465:9543   */\n      tag_222\n        /* \"#utility.yul\":9538:9542   */\n      dup2\n        /* \"#utility.yul\":9529:9535   */\n      dup5\n        /* \"#utility.yul\":9465:9543   */\n      tag_110\n      jump\t// in\n    tag_222:\n        /* \"#utility.yul\":9457:9543   */\n      swap1\n      pop\n        /* \"#utility.yul\":8502:9550   */\n      swap8\n      swap7\n      pop\n      pop\n      pop\n      pop\n      pop\n      pop\n      pop\n      jump\t// out\n        /* \"#utility.yul\":9556:9778   */\n    tag_26:\n        /* \"#utility.yul\":9649:9653   */\n      0x00\n        /* \"#utility.yul\":9687:9689   */\n      0x20\n        /* \"#utility.yul\":9676:9685   */\n      dup3\n        /* \"#utility.yul\":9672:9690   */\n      add\n        /* \"#utility.yul\":9664:9690   */\n      swap1\n      pop\n        /* \"#utility.yul\":9700:9771   */\n      tag_224\n        /* \"#utility.yul\":9768:9769   */\n      0x00\n        /* \"#utility.yul\":9757:9766   */\n      dup4\n        /* \"#utility.yul\":9753:9770   */\n      add\n        /* \"#utility.yul\":9744:9750   */\n      dup5\n        /* \"#utility.yul\":9700:9771   */\n      tag_111\n      jump\t// in\n    tag_224:\n        /* \"#utility.yul\":9556:9778   */\n      swap3\n      swap2\n      pop\n      pop\n      jump\t// out\n        /* \"#utility.yul\":9784:9964   */\n    tag_112:\n        /* \"#utility.yul\":9832:9909   */\n      0x4e487b7100000000000000000000000000000000000000000000000000000000\n        /* \"#utility.yul\":9829:9830   */\n      0x00\n        /* \"#utility.yul\":9822:9910   */\n      mstore\n        /* \"#utility.yul\":9929:9933   */\n      0x22\n        /* \"#utility.yul\":9926:9927   */\n      0x04\n        /* \"#utility.yul\":9919:9934   */\n      mstore\n        /* \"#utility.yul\":9953:9957   */\n      0x24\n        /* \"#utility.yul\":9950:9951   */\n      0x00\n        /* \"#utility.yul\":9943:9958   */\n      revert\n        /* \"#utility.yul\":9970:10290   */\n    tag_37:\n        /* \"#utility.yul\":10014:10020   */\n      0x00\n        /* \"#utility.yul\":10051:10052   */\n      0x02\n        /* \"#utility.yul\":10045:10049   */\n      dup3\n        /* \"#utility.yul\":10041:10053   */\n      div\n        /* \"#utility.yul\":10031:10053   */\n      swap1\n      pop\n        /* \"#utility.yul\":10098:10099   */\n      0x01\n        /* \"#utility.yul\":10092:10096   */\n      dup3\n        /* \"#utility.yul\":10088:10100   */\n      and\n        /* \"#utility.yul\":10119:10137   */\n      dup1\n        /* \"#utility.yul\":10109:10190   */\n      tag_227\n      jumpi\n        /* \"#utility.yul\":10175:10179   */\n      0x7f\n        /* \"#utility.yul\":10167:10173   */\n      dup3\n        /* \"#utility.yul\":10163:10180   */\n      and\n        /* \"#utility.yul\":10153:10180   */\n      swap2\n      pop\n        /* \"#utility.yul\":10109:10190   */\n    tag_227:\n        /* \"#utility.yul\":10237:10239   */\n      0x20\n        /* \"#utility.yul\":10229:10235   */\n      dup3\n        /* \"#utility.yul\":10226:10240   */\n      lt\n        /* \"#utility.yul\":10206:10224   */\n      dup2\n        /* \"#utility.yul\":10203:10241   */\n      sub\n        /* \"#utility.yul\":10200:10284   */\n      tag_228\n      jumpi\n        /* \"#utility.yul\":10256:10274   */\n      tag_229\n      tag_112\n      jump\t// in\n    tag_229:\n        /* \"#utility.yul\":10200:10284   */\n    tag_228:\n        /* \"#utility.yul\":10021:10290   */\n      pop\n        /* \"#utility.yul\":9970:10290   */\n      swap2\n      swap1\n      pop\n      jump\t// out\n        /* \"#utility.yul\":10296:10437   */\n    tag_113:\n        /* \"#utility.yul\":10345:10349   */\n      0x00\n        /* \"#utility.yul\":10368:10371   */\n      dup2\n        /* \"#utility.yul\":10360:10371   */\n      swap1\n      pop\n        /* \"#utility.yul\":10391:10394   */\n      dup2\n        /* \"#utility.yul\":10388:10389   */\n      0x00\n        /* \"#utility.yul\":10381:10395   */\n      mstore\n        /* \"#utility.yul\":10425:10429   */\n      0x20\n        /* \"#utility.yul\":10422:10423   */\n      0x00\n        /* \"#utility.yul\":10412:10430   */\n      keccak256\n        /* \"#utility.yul\":10404:10430   */\n      swap1\n      pop\n        /* \"#utility.yul\":10296:10437   */\n      swap2\n      swap1\n      pop\n      jump\t// out\n        /* \"#utility.yul\":10443:10536   */\n    tag_114:\n        /* \"#utility.yul\":10480:10486   */\n      0x00\n        /* \"#utility.yul\":10527:10529   */\n      0x20\n        /* \"#utility.yul\":10522:10524   */\n      0x1f\n        /* \"#utility.yul\":10515:10520   */\n      dup4\n        /* \"#utility.yul\":10511:10525   */\n      add\n        /* \"#utility.yul\":10507:10530   */\n      div\n        /* \"#utility.yul\":10497:10530   */\n      swap1\n      pop\n        /* \"#utility.yul\":10443:10536   */\n      swap2\n      swap1\n      pop\n      jump\t// out\n        /* \"#utility.yul\":10542:10649   */\n    tag_115:\n        /* \"#utility.yul\":10586:10594   */\n      0x00\n        /* \"#utility.yul\":10636:10641   */\n      dup3\n        /* \"#utility.yul\":10630:10634   */\n      dup3\n        /* \"#utility.yul\":10626:10642   */\n      shl\n        /* \"#utility.yul\":10605:10642   */\n      swap1\n      pop\n        /* \"#utility.yul\":10542:10649   */\n      swap3\n      swap2\n      pop\n      pop\n      jump\t// out\n        /* \"#utility.yul\":10655:11048   */\n    tag_116:\n        /* \"#utility.yul\":10724:10730   */\n      0x00\n        /* \"#utility.yul\":10774:10775   */\n      0x08\n        /* \"#utility.yul\":10762:10772   */\n      dup4\n        /* \"#utility.yul\":10758:10776   */\n      mul\n        /* \"#utility.yul\":10797:10894   */\n      tag_234\n        /* \"#utility.yul\":10827:10893   */\n      0xffffffffffffffffffffffffffffffffffffffffffffffffffffffffffffffff\n        /* \"#utility.yul\":10816:10825   */\n      dup3\n        /* \"#utility.yul\":10797:10894   */\n      tag_115\n      jump\t// in\n    tag_234:\n        /* \"#utility.yul\":10915:10954   */\n      tag_235\n        /* \"#utility.yul\":10945:10953   */\n      dup7\n        /* \"#utility.yul\":10934:10943   */\n      dup4\n        /* \"#utility.yul\":10915:10954   */\n      tag_115\n      jump\t// in\n    tag_235:\n        /* \"#utility.yul\":10903:10954   */\n      swap6\n      pop\n        /* \"#utility.yul\":10987:10991   */\n      dup1\n        /* \"#utility.yul\":10983:10992   */\n      not\n        /* \"#utility.yul\":10976:10981   */\n      dup5\n        /* \"#utility.yul\":10972:10993   */\n      and\n        /* \"#utility.yul\":10963:10993   */\n      swap4\n      pop\n        /* \"#utility.yul\":11036:11040   */\n      dup1\n        /* \"#utility.yul\":11026:11034   */\n      dup7\n        /* \"#utility.yul\":11022:11041   */\n      and\n        /* \"#utility.yul\":11015:11020   */\n      dup5\n        /* \"#utility.yul\":11012:11042   */\n      or\n        /* \"#utility.yul\":11002:11042   */\n      swap3\n      pop\n        /* \"#utility.yul\":10731:11048   */\n      pop\n      pop\n        /* \"#utility.yul\":10655:11048   */\n      swap4\n      swap3\n      pop\n      pop\n      pop\n      jump\t// out\n        /* \"#utility.yul\":11054:11114   */\n    tag_117:\n        /* \"#utility.yul\":11082:11085   */\n      0x00\n        /* \"#utility.yul\":11103:11108   */\n      dup2\n        /* \"#utility.yul\":11096:11108   */\n      swap1\n      pop\n        /* \"#utility.yul\":11054:11114   */\n      swap2\n      swap1\n      pop\n      jump\t// out\n        /* \"#utility.yul\":11120:11262   */\n    tag_118:\n        /* \"#utility.yul\":11170:11179   */\n      0x00\n        /* \"#utility.yul\":11203:11256   */\n      tag_238\n        /* \"#utility.yul\":11221:11255   */\n      tag_239\n        /* \"#utility.yul\":11230:11254   */\n      tag_240\n        /* \"#utility.yul\":11248:11253   */\n      dup5\n        /* \"#utility.yul\":11230:11254   */\n      tag_100\n      jump\t// in\n    tag_240:\n        /* \"#utility.yul\":11221:11255   */\n      tag_117\n      jump\t// in\n    tag_239:\n        /* \"#utility.yul\":11203:11256   */\n      tag_100\n      jump\t// in\n    tag_238:\n        /* \"#utility.yul\":11190:11256   */\n      swap1\n      pop\n        /* \"#utility.yul\":11120:11262   */\n      swap2\n      swap1\n      pop\n      jump\t// out\n        /* \"#utility.yul\":11268:11343   */\n    tag_119:\n        /* \"#utility.yul\":11311:11314   */\n      0x00\n        /* \"#utility.yul\":11332:11337   */\n      dup2\n        /* \"#utility.yul\":11325:11337   */\n      swap1\n      pop\n        /* \"#utility.yul\":11268:11343   */\n      swap2\n      swap1\n      pop\n      jump\t// out\n        /* \"#utility.yul\":11349:11618   */\n    tag_120:\n        /* \"#utility.yul\":11459:11498   */\n      tag_243\n        /* \"#utility.yul\":11490:11497   */\n      dup4\n        /* \"#utility.yul\":11459:11498   */\n      tag_118\n      jump\t// in\n    tag_243:\n        /* \"#utility.yul\":11520:11611   */\n      tag_244\n        /* \"#utility.yul\":11569:11610   */\n      tag_245\n        /* \"#utility.yul\":11593:11609   */\n      dup3\n        /* \"#utility.yul\":11569:11610   */\n      tag_119\n      jump\t// in\n    tag_245:\n        /* \"#utility.yul\":11561:11567   */\n      dup5\n        /* \"#utility.yul\":11554:11558   */\n      dup5\n        /* \"#utility.yul\":11548:11559   */\n      sload\n        /* \"#utility.yul\":11520:11611   */\n      tag_116\n      jump\t// in\n    tag_244:\n        /* \"#utility.yul\":11514:11518   */\n      dup3\n        /* \"#utility.yul\":11507:11612   */\n      sstore\n        /* \"#utility.yul\":11425:11618   */\n      pop\n        /* \"#utility.yul\":11349:11618   */\n      pop\n      pop\n      pop\n      jump\t// out\n        /* \"#utility.yul\":11624:11697   */\n    tag_121:\n        /* \"#utility.yul\":11669:11672   */\n      0x00\n        /* \"#utility.yul\":11624:11697   */\n      swap1\n      jump\t// out\n        /* \"#utility.yul\":11703:11892   */\n    tag_122:\n        /* \"#utility.yul\":11780:11812   */\n      tag_248\n      tag_121\n      jump\t// in\n    tag_248:\n        /* \"#utility.yul\":11821:11886   */\n      tag_249\n        /* \"#utility.yul\":11879:11885   */\n      dup2\n        /* \"#utility.yul\":11871:11877   */\n      dup5\n        /* \"#utility.yul\":11865:11869   */\n      dup5\n        /* \"#utility.yul\":11821:11886   */\n      tag_120\n      jump\t// in\n    tag_249:\n        /* \"#utility.yul\":11756:11892   */\n      pop\n        /* \"#utility.yul\":11703:11892   */\n      pop\n      pop\n      jump\t// out\n        /* \"#utility.yul\":11898:12084   */\n    tag_123:\n        /* \"#utility.yul\":11958:12078   */\n    tag_251:\n        /* \"#utility.yul\":11975:11978   */\n      dup2\n        /* \"#utility.yul\":11968:11973   */\n      dup2\n        /* \"#utility.yul\":11965:11979   */\n      lt\n        /* \"#utility.yul\":11958:12078   */\n      iszero\n      tag_253\n      jumpi\n        /* \"#utility.yul\":12029:12068   */\n      tag_254\n        /* \"#utility.yul\":12066:12067   */\n      0x00\n        /* \"#utility.yul\":12059:12064   */\n      dup3\n        /* \"#utility.yul\":12029:12068   */\n      tag_122\n      jump\t// in\n    tag_254:\n        /* \"#utility.yul\":12002:12003   */\n      0x01\n        /* \"#utility.yul\":11995:12000   */\n      dup2\n        /* \"#utility.yul\":11991:12004   */\n      add\n        /* \"#utility.yul\":11982:12004   */\n      swap1\n      pop\n        /* \"#utility.yul\":11958:12078   */\n      jump(tag_251)\n    tag_253:\n        /* \"#utility.yul\":11898:12084   */\n      pop\n      pop\n      jump\t// out\n        /* \"#utility.yul\":12090:12633   */\n    tag_124:\n        /* \"#utility.yul\":12191:12193   */\n      0x1f\n        /* \"#utility.yul\":12186:12189   */\n      dup3\n        /* \"#utility.yul\":12183:12194   */\n      gt\n        /* \"#utility.yul\":12180:12626   */\n      iszero\n      tag_256\n      jumpi\n        /* \"#utility.yul\":12225:12263   */\n      tag_257\n        /* \"#utility.yul\":12257:12262   */\n      dup2\n        /* \"#utility.yul\":12225:12263   */\n      tag_113\n      jump\t// in\n    tag_257:\n        /* \"#utility.yul\":12309:12338   */\n      tag_258\n        /* \"#utility.yul\":12327:12337   */\n      dup5\n        /* \"#utility.yul\":12309:12338   */\n      tag_114\n      jump\t// in\n    tag_258:\n        /* \"#utility.yul\":12299:12307   */\n      dup2\n        /* \"#utility.yul\":12295:12339   */\n      add\n        /* \"#utility.yul\":12492:12494   */\n      0x20\n        /* \"#utility.yul\":12480:12490   */\n      dup6\n        /* \"#utility.yul\":12477:12495   */\n      lt\n        /* \"#utility.yul\":12474:12523   */\n      iszero\n      tag_259\n      jumpi\n        /* \"#utility.yul\":12513:12521   */\n      dup2\n        /* \"#utility.yul\":12498:12521   */\n      swap1\n      pop\n        /* \"#utility.yul\":12474:12523   */\n    tag_259:\n        /* \"#utility.yul\":12536:12616   */\n      tag_260\n        /* \"#utility.yul\":12592:12614   */\n      tag_261\n        /* \"#utility.yul\":12610:12613   */\n      dup6\n        /* \"#utility.yul\":12592:12614   */\n      tag_114\n      jump\t// in\n    tag_261:\n        /* \"#utility.yul\":12582:12590   */\n      dup4\n        /* \"#utility.yul\":12578:12615   */\n      add\n        /* \"#utility.yul\":12565:12576   */\n      dup3\n        /* \"#utility.yul\":12536:12616   */\n      tag_123\n      jump\t// in\n    tag_260:\n        /* \"#utility.yul\":12195:12626   */\n      pop\n      pop\n        /* \"#utility.yul\":12180:12626   */\n    tag_256:\n        /* \"#utility.yul\":12090:12633   */\n      pop\n      pop\n      pop\n      jump\t// out\n        /* \"#utility.yul\":12639:12756   */\n    tag_125:\n        /* \"#utility.yul\":12693:12701   */\n      0x00\n        /* \"#utility.yul\":12743:12748   */\n      dup3\n        /* \"#utility.yul\":12737:12741   */\n      dup3\n        /* \"#utility.yul\":12733:12749   */\n      shr\n        /* \"#utility.yul\":12712:12749   */\n      swap1\n      pop\n        /* \"#utility.yul\":12639:12756   */\n      swap3\n      swap2\n      pop\n      pop\n      jump\t// out\n        /* \"#utility.yul\":12762:12931   */\n    tag_126:\n        /* \"#utility.yul\":12806:12812   */\n      0x00\n        /* \"#utility.yul\":12839:12890   */\n      tag_264\n        /* \"#utility.yul\":12887:12888   */\n      0x00\n        /* \"#utility.yul\":12883:12889   */\n      not\n        /* \"#utility.yul\":12875:12880   */\n      dup5\n        /* \"#utility.yul\":12872:12873   */\n      0x08\n        /* \"#utility.yul\":12868:12881   */\n      mul\n        /* \"#utility.yul\":12839:12890   */\n      tag_125\n      jump\t// in\n    tag_264:\n        /* \"#utility.yul\":12835:12891   */\n      not\n        /* \"#utility.yul\":12920:12924   */\n      dup1\n        /* \"#utility.yul\":12914:12918   */\n      dup4\n        /* \"#utility.yul\":12910:12925   */\n      and\n        /* \"#utility.yul\":12900:12925   */\n      swap2\n      pop\n        /* \"#utility.yul\":12813:12931   */\n      pop\n        /* \"#utility.yul\":12762:12931   */\n      swap3\n      swap2\n      pop\n      pop\n      jump\t// out\n        /* \"#utility.yul\":12936:13231   */\n    tag_127:\n        /* \"#utility.yul\":13012:13016   */\n      0x00\n        /* \"#utility.yul\":13158:13187   */\n      tag_266\n        /* \"#utility.yul\":13183:13186   */\n      dup4\n        /* \"#utility.yul\":13177:13181   */\n      dup4\n        /* \"#utility.yul\":13158:13187   */\n      tag_126\n      jump\t// in\n    tag_266:\n        /* \"#utility.yul\":13150:13187   */\n      swap2\n      pop\n        /* \"#utility.yul\":13220:13223   */\n      dup3\n        /* \"#utility.yul\":13217:13218   */\n      0x02\n        /* \"#utility.yul\":13213:13224   */\n      mul\n        /* \"#utility.yul\":13207:13211   */\n      dup3\n        /* \"#utility.yul\":13204:13225   */\n      or\n        /* \"#utility.yul\":13196:13225   */\n      swap1\n      pop\n        /* \"#utility.yul\":12936:13231   */\n      swap3\n      swap2\n      pop\n      pop\n      jump\t// out\n        /* \"#utility.yul\":13236:14631   */\n    tag_31:\n        /* \"#utility.yul\":13353:13390   */\n      tag_268\n        /* \"#utility.yul\":13386:13389   */\n      dup3\n        /* \"#utility.yul\":13353:13390   */\n      tag_103\n      jump\t// in\n    tag_268:\n        /* \"#utility.yul\":13455:13473   */\n      0xffffffffffffffff\n        /* \"#utility.yul\":13447:13453   */\n      dup2\n        /* \"#utility.yul\":13444:13474   */\n      gt\n        /* \"#utility.yul\":13441:13497   */\n      iszero\n      tag_269\n      jumpi\n        /* \"#utility.yul\":13477:13495   */\n      tag_270\n      tag_93\n      jump\t// in\n    tag_270:\n        /* \"#utility.yul\":13441:13497   */\n    tag_269:\n        /* \"#utility.yul\":13521:13559   */\n      tag_271\n        /* \"#utility.yul\":13553:13557   */\n      dup3\n        /* \"#utility.yul\":13547:13558   */\n      sload\n        /* \"#utility.yul\":13521:13559   */\n      tag_37\n      jump\t// in\n    tag_271:\n        /* \"#utility.yul\":13606:13673   */\n      tag_272\n        /* \"#utility.yul\":13666:13672   */\n      dup3\n        /* \"#utility.yul\":13658:13664   */\n      dup3\n        /* \"#utility.yul\":13652:13656   */\n      dup6\n        /* \"#utility.yul\":13606:13673   */\n      tag_124\n      jump\t// in\n    tag_272:\n        /* \"#utility.yul\":13700:13701   */\n      0x00\n        /* \"#utility.yul\":13724:13728   */\n      0x20\n        /* \"#utility.yul\":13711:13728   */\n      swap1\n      pop\n        /* \"#utility.yul\":13756:13758   */\n      0x1f\n        /* \"#utility.yul\":13748:13754   */\n      dup4\n        /* \"#utility.yul\":13745:13759   */\n      gt\n        /* \"#utility.yul\":13773:13774   */\n      0x01\n        /* \"#utility.yul\":13768:14386   */\n      dup2\n      eq\n      tag_274\n      jumpi\n        /* \"#utility.yul\":14430:14431   */\n      0x00\n        /* \"#utility.yul\":14447:14453   */\n      dup5\n        /* \"#utility.yul\":14444:14521   */\n      iszero\n      tag_275\n      jumpi\n        /* \"#utility.yul\":14496:14505   */\n      dup3\n        /* \"#utility.yul\":14491:14494   */\n      dup8\n        /* \"#utility.yul\":14487:14506   */\n      add\n        /* \"#utility.yul\":14481:14507   */\n      mload\n        /* \"#utility.yul\":14472:14507   */\n      swap1\n      pop\n        /* \"#utility.yul\":14444:14521   */\n    tag_275:\n        /* \"#utility.yul\":14547:14614   */\n      tag_276\n        /* \"#utility.yul\":14607:14613   */\n      dup6\n        /* \"#utility.yul\":14600:14605   */\n      dup3\n        /* \"#utility.yul\":14547:14614   */\n      tag_127\n      jump\t// in\n    tag_276:\n        /* \"#utility.yul\":14541:14545   */\n      dup7\n        /* \"#utility.yul\":14534:14615   */\n      sstore\n        /* \"#utility.yul\":14403:14625   */\n      pop\n        /* \"#utility.yul\":13738:14625   */\n      jump(tag_273)\n        /* \"#utility.yul\":13768:14386   */\n    tag_274:\n        /* \"#utility.yul\":13820:13824   */\n      0x1f\n        /* \"#utility.yul\":13816:13825   */\n      not\n        /* \"#utility.yul\":13808:13814   */\n      dup5\n        /* \"#utility.yul\":13804:13826   */\n      and\n        /* \"#utility.yul\":13854:13891   */\n      tag_277\n        /* \"#utility.yul\":13886:13890   */\n      dup7\n        /* \"#utility.yul\":13854:13891   */\n      tag_113\n      jump\t// in\n    tag_277:\n        /* \"#utility.yul\":13913:13914   */\n      0x00\n        /* \"#utility.yul\":13927:14135   */\n    tag_278:\n        /* \"#utility.yul\":13941:13948   */\n      dup3\n        /* \"#utility.yul\":13938:13939   */\n      dup2\n        /* \"#utility.yul\":13935:13949   */\n      lt\n        /* \"#utility.yul\":13927:14135   */\n      iszero\n      tag_280\n      jumpi\n        /* \"#utility.yul\":14020:14029   */\n      dup5\n        /* \"#utility.yul\":14015:14018   */\n      dup10\n        /* \"#utility.yul\":14011:14030   */\n      add\n        /* \"#utility.yul\":14005:14031   */\n      mload\n        /* \"#utility.yul\":13997:14003   */\n      dup3\n        /* \"#utility.yul\":13990:14032   */\n      sstore\n        /* \"#utility.yul\":14071:14072   */\n      0x01\n        /* \"#utility.yul\":14063:14069   */\n      dup3\n        /* \"#utility.yul\":14059:14073   */\n      add\n        /* \"#utility.yul\":14049:14073   */\n      swap2\n      pop\n        /* \"#utility.yul\":14118:14120   */\n      0x20\n        /* \"#utility.yul\":14107:14116   */\n      dup6\n        /* \"#utility.yul\":14103:14121   */\n      add\n        /* \"#utility.yul\":14090:14121   */\n      swap5\n      pop\n        /* \"#utility.yul\":13964:13968   */\n      0x20\n        /* \"#utility.yul\":13961:13962   */\n      dup2\n        /* \"#utility.yul\":13957:13969   */\n      add\n        /* \"#utility.yul\":13952:13969   */\n      swap1\n      pop\n        /* \"#utility.yul\":13927:14135   */\n      jump(tag_278)\n    tag_280:\n        /* \"#utility.yul\":14163:14169   */\n      dup7\n        /* \"#utility.yul\":14154:14161   */\n      dup4\n        /* \"#utility.yul\":14151:14170   */\n      lt\n        /* \"#utility.yul\":14148:14327   */\n      iszero\n      tag_281\n      jumpi\n        /* \"#utility.yul\":14221:14230   */\n      dup5\n        /* \"#utility.yul\":14216:14219   */\n      dup10\n        /* \"#utility.yul\":14212:14231   */\n      add\n        /* \"#utility.yul\":14206:14232   */\n      mload\n        /* \"#utility.yul\":14264:14312   */\n      tag_282\n        /* \"#utility.yul\":14306:14310   */\n      0x1f\n        /* \"#utility.yul\":14298:14304   */\n      dup10\n        /* \"#utility.yul\":14294:14311   */\n      and\n        /* \"#utility.yul\":14283:14292   */\n      dup3\n        /* \"#utility.yul\":14264:14312   */\n      tag_126\n      jump\t// in\n    tag_282:\n        /* \"#utility.yul\":14256:14262   */\n      dup4\n        /* \"#utility.yul\":14249:14313   */\n      sstore\n        /* \"#utility.yul\":14171:14327   */\n      pop\n        /* \"#utility.yul\":14148:14327   */\n    tag_281:\n        /* \"#utility.yul\":14373:14374   */\n      0x01\n        /* \"#utility.yul\":14369:14370   */\n      0x02\n        /* \"#utility.yul\":14361:14367   */\n      dup9\n        /* \"#utility.yul\":14357:14371   */\n      mul\n        /* \"#utility.yul\":14353:14375   */\n      add\n        /* \"#utility.yul\":14347:14351   */\n      dup9\n        /* \"#utility.yul\":14340:14376   */\n      sstore\n        /* \"#utility.yul\":13775:14386   */\n      pop\n      pop\n      pop\n        /* \"#utility.yul\":13738:14625   */\n    tag_273:\n      pop\n        /* \"#utility.yul\":13328:14631   */\n      pop\n      pop\n      pop\n        /* \"#utility.yul\":13236:14631   */\n      pop\n      pop\n      jump\t// out\n        /* \"#utility.yul\":14637:14817   */\n    tag_128:\n        /* \"#utility.yul\":14685:14762   */\n      0x4e487b7100000000000000000000000000000000000000000000000000000000\n        /* \"#utility.yul\":14682:14683   */\n      0x00\n        /* \"#utility.yul\":14675:14763   */\n      mstore\n        /* \"#utility.yul\":14782:14786   */\n      0x11\n        /* \"#utility.yul\":14779:14780   */\n      0x04\n        /* \"#utility.yul\":14772:14787   */\n      mstore\n        /* \"#utility.yul\":14806:14810   */\n      0x24\n        /* \"#utility.yul\":14803:14804   */\n      0x00\n        /* \"#utility.yul\":14796:14811   */\n      revert\n        /* \"#utility.yul\":14823:15056   */\n    tag_35:\n        /* \"#utility.yul\":14862:14865   */\n      0x00\n        /* \"#utility.yul\":14885:14909   */\n      tag_285\n        /* \"#utility.yul\":14903:14908   */\n      dup3\n        /* \"#utility.yul\":14885:14909   */\n      tag_100\n      jump\t// in\n    tag_285:\n        /* \"#utility.yul\":14876:14909   */\n      swap2\n      pop\n        /* \"#utility.yul\":14931:14997   */\n      0xffffffffffffffffffffffffffffffffffffffffffffffffffffffffffffffff\n        /* \"#utility.yul\":14924:14929   */\n      dup3\n        /* \"#utility.yul\":14921:14998   */\n      sub\n        /* \"#utility.yul\":14918:15021   */\n      tag_286\n      jumpi\n        /* \"#utility.yul\":15001:15019   */\n      tag_287\n      tag_128\n      jump\t// in\n    tag_287:\n        /* \"#utility.yul\":14918:15021   */\n    tag_286:\n        /* \"#utility.yul\":15048:15049   */\n      0x01\n        /* \"#utility.yul\":15041:15046   */\n      dup3\n        /* \"#utility.yul\":15037:15050   */\n      add\n        /* \"#utility.yul\":15030:15050   */\n      swap1\n      pop\n        /* \"#utility.yul\":14823:15056   */\n      swap2\n      swap1\n      pop\n      jump\t// out\n        /* \"#utility.yul\":15062:15230   */\n    tag_129:\n        /* \"#utility.yul\":15202:15222   */\n      0x50726f64756374206e6f7420666f756e642e0000000000000000000000000000\n        /* \"#utility.yul\":15198:15199   */\n      0x00\n        /* \"#utility.yul\":15190:15196   */\n      dup3\n        /* \"#utility.yul\":15186:15200   */\n      add\n        /* \"#utility.yul\":15179:15223   */\n      mstore\n        /* \"#utility.yul\":15062:15230   */\n      pop\n      jump\t// out\n        /* \"#utility.yul\":15236:15602   */\n    tag_130:\n        /* \"#utility.yul\":15378:15381   */\n      0x00\n        /* \"#utility.yul\":15399:15466   */\n      tag_290\n        /* \"#utility.yul\":15463:15465   */\n      0x12\n        /* \"#utility.yul\":15458:15461   */\n      dup4\n        /* \"#utility.yul\":15399:15466   */\n      tag_109\n      jump\t// in\n    tag_290:\n        /* \"#utility.yul\":15392:15466   */\n      swap2\n      pop\n        /* \"#utility.yul\":15475:15568   */\n      tag_291\n        /* \"#utility.yul\":15564:15567   */\n      dup3\n        /* \"#utility.yul\":15475:15568   */\n      tag_129\n      jump\t// in\n    tag_291:\n        /* \"#utility.yul\":15593:15595   */\n      0x20\n        /* \"#utility.yul\":15588:15591   */\n      dup3\n        /* \"#utility.yul\":15584:15596   */\n      add\n        /* \"#utility.yul\":15577:15596   */\n      swap1\n      pop\n        /* \"#utility.yul\":15236:15602   */\n      swap2\n      swap1\n      pop\n      jump\t// out\n        /* \"#utility.yul\":15608:16027   */\n    tag_71:\n        /* \"#utility.yul\":15774:15778   */\n      0x00\n        /* \"#utility.yul\":15812:15814   */\n      0x20\n        /* \"#utility.yul\":15801:15810   */\n      dup3\n        /* \"#utility.yul\":15797:15815   */\n      add\n        /* \"#utility.yul\":15789:15815   */\n      swap1\n      pop\n        /* \"#utility.yul\":15861:15870   */\n      dup2\n        /* \"#utility.yul\":15855:15859   */\n      dup2\n        /* \"#utility.yul\":15851:15871   */\n      sub\n        /* \"#utility.yul\":15847:15848   */\n      0x00\n        /* \"#utility.yul\":15836:15845   */\n      dup4\n        /* \"#utility.yul\":15832:15849   */\n      add\n        /* \"#utility.yul\":15825:15872   */\n      mstore\n        /* \"#utility.yul\":15889:16020   */\n      tag_293\n        /* \"#utility.yul\":16015:16019   */\n      dup2\n        /* \"#utility.yul\":15889:16020   */\n      tag_130\n      jump\t// in\n    tag_293:\n        /* \"#utility.yul\":15881:16020   */\n      swap1\n      pop\n        /* \"#utility.yul\":15608:16027   */\n      swap2\n      swap1\n      pop\n      jump\t// out\n\n    auxdata: 0xa2646970667358221220ee6fdbb9a3526e1f8902df08580bbb086a4400248087f2f9229df96d43bb132a64736f6c63430008160033\n}\n",
				"bytecode": {
					"linkReferences": {},
					"object": "60806040525f600155348015610013575f80fd5b50611077806100215f395ff3fe608060405234801561000f575f80fd5b506004361061004a575f3560e01c8063150373de1461004e5780632b5acd6c1461007e5780637c73e220146100b3578063e0f6ef87146100e3575b5f80fd5b61006860048036038101906100639190610973565b610101565b6040516100759190610b6d565b60405180910390f35b61009860048036038101906100939190610b8d565b6103b6565b6040516100aa96959493929190610c0f565b60405180910390f35b6100cd60048036038101906100c89190610b8d565b61057f565b6040516100da9190610b6d565b60405180910390f35b6100eb6107ba565b6040516100f89190610c83565b60405180910390f35b6101096107c0565b6040518060c00160405280888152602001878152602001868152602001858152602001848152602001838152505f8060015481526020019081526020015f205f820151815f01908161015b9190610e96565b5060208201518160010190816101719190610e96565b5060408201518160020155606082015181600301556080820151816004015560a08201518160050190816101a59190610e96565b5090505060015f8154809291906101bb90610f92565b91905055505f8060015481526020019081526020015f206040518060c00160405290815f820180546101ec90610cc9565b80601f016020809104026020016040519081016040528092919081815260200182805461021890610cc9565b80156102635780601f1061023a57610100808354040283529160200191610263565b820191905f5260205f20905b81548152906001019060200180831161024657829003601f168201915b5050505050815260200160018201805461027c90610cc9565b80601f01602080910402602001604051908101604052809291908181526020018280546102a890610cc9565b80156102f35780601f106102ca576101008083540402835291602001916102f3565b820191905f5260205f20905b8154815290600101906020018083116102d657829003601f168201915b5050505050815260200160028201548152602001600382015481526020016004820154815260200160058201805461032a90610cc9565b80601f016020809104026020016040519081016040528092919081815260200182805461035690610cc9565b80156103a15780601f10610378576101008083540402835291602001916103a1565b820191905f5260205f20905b81548152906001019060200180831161038457829003601f168201915b50505050508152505090509695505050505050565b5f602052805f5260405f205f91509050805f0180546103d490610cc9565b80601f016020809104026020016040519081016040528092919081815260200182805461040090610cc9565b801561044b5780601f106104225761010080835404028352916020019161044b565b820191905f5260205f20905b81548152906001019060200180831161042e57829003601f168201915b50505050509080600101805461046090610cc9565b80601f016020809104026020016040519081016040528092919081815260200182805461048c90610cc9565b80156104d75780601f106104ae576101008083540402835291602001916104d7565b820191905f5260205f20905b8154815290600101906020018083116104ba57829003601f168201915b5050505050908060020154908060030154908060040154908060050180546104fe90610cc9565b80601f016020809104026020016040519081016040528092919081815260200182805461052a90610cc9565b80156105755780601f1061054c57610100808354040283529160200191610575565b820191905f5260205f20905b81548152906001019060200180831161055857829003601f168201915b5050505050905086565b6105876107c0565b60015482106105cb576040517f08c379a00000000000000000000000000000000000000000000000000000000081526004016105c290611023565b60405180910390fd5b5f808381526020019081526020015f206040518060c00160405290815f820180546105f590610cc9565b80601f016020809104026020016040519081016040528092919081815260200182805461062190610cc9565b801561066c5780601f106106435761010080835404028352916020019161066c565b820191905f5260205f20905b81548152906001019060200180831161064f57829003601f168201915b5050505050815260200160018201805461068590610cc9565b80601f01602080910402602001604051908101604052809291908181526020018280546106b190610cc9565b80156106fc5780601f106106d3576101008083540402835291602001916106fc565b820191905f5260205f20905b8154815290600101906020018083116106df57829003601f168201915b5050505050815260200160028201548152602001600382015481526020016004820154815260200160058201805461073390610cc9565b80601f016020809104026020016040519081016040528092919081815260200182805461075f90610cc9565b80156107aa5780601f10610781576101008083540402835291602001916107aa565b820191905f5260205f20905b81548152906001019060200180831161078d57829003601f168201915b5050505050815250509050919050565b60015481565b6040518060c0016040528060608152602001606081526020015f81526020015f81526020015f8152602001606081525090565b5f604051905090565b5f80fd5b5f80fd5b5f80fd5b5f80fd5b5f601f19601f8301169050919050565b7f4e487b71000000000000000000000000000000000000000000000000000000005f52604160045260245ffd5b6108528261080c565b810181811067ffffffffffffffff821117156108715761087061081c565b5b80604052505050565b5f6108836107f3565b905061088f8282610849565b919050565b5f67ffffffffffffffff8211156108ae576108ad61081c565b5b6108b78261080c565b9050602081019050919050565b828183375f83830152505050565b5f6108e46108df84610894565b61087a565b905082815260208101848484011115610900576108ff610808565b5b61090b8482856108c4565b509392505050565b5f82601f83011261092757610926610804565b5b81356109378482602086016108d2565b91505092915050565b5f819050919050565b61095281610940565b811461095c575f80fd5b50565b5f8135905061096d81610949565b92915050565b5f805f805f8060c0878903121561098d5761098c6107fc565b5b5f87013567ffffffffffffffff8111156109aa576109a9610800565b5b6109b689828a01610913565b965050602087013567ffffffffffffffff8111156109d7576109d6610800565b5b6109e389828a01610913565b95505060406109f489828a0161095f565b9450506060610a0589828a0161095f565b9350506080610a1689828a0161095f565b92505060a087013567ffffffffffffffff811115610a3757610a36610800565b5b610a4389828a01610913565b9150509295509295509295565b5f81519050919050565b5f82825260208201905092915050565b5f5b83811015610a87578082015181840152602081019050610a6c565b5f8484015250505050565b5f610a9c82610a50565b610aa68185610a5a565b9350610ab6818560208601610a6a565b610abf8161080c565b840191505092915050565b610ad381610940565b82525050565b5f60c083015f8301518482035f860152610af38282610a92565b91505060208301518482036020860152610b0d8282610a92565b9150506040830151610b226040860182610aca565b506060830151610b356060860182610aca565b506080830151610b486080860182610aca565b5060a083015184820360a0860152610b608282610a92565b9150508091505092915050565b5f6020820190508181035f830152610b858184610ad9565b905092915050565b5f60208284031215610ba257610ba16107fc565b5b5f610baf8482850161095f565b91505092915050565b5f82825260208201905092915050565b5f610bd282610a50565b610bdc8185610bb8565b9350610bec818560208601610a6a565b610bf58161080c565b840191505092915050565b610c0981610940565b82525050565b5f60c0820190508181035f830152610c278189610bc8565b90508181036020830152610c3b8188610bc8565b9050610c4a6040830187610c00565b610c576060830186610c00565b610c646080830185610c00565b81810360a0830152610c768184610bc8565b9050979650505050505050565b5f602082019050610c965f830184610c00565b92915050565b7f4e487b71000000000000000000000000000000000000000000000000000000005f52602260045260245ffd5b5f6002820490506001821680610ce057607f821691505b602082108103610cf357610cf2610c9c565b5b50919050565b5f819050815f5260205f209050919050565b5f6020601f8301049050919050565b5f82821b905092915050565b5f60088302610d557fffffffffffffffffffffffffffffffffffffffffffffffffffffffffffffffff82610d1a565b610d5f8683610d1a565b95508019841693508086168417925050509392505050565b5f819050919050565b5f610d9a610d95610d9084610940565b610d77565b610940565b9050919050565b5f819050919050565b610db383610d80565b610dc7610dbf82610da1565b848454610d26565b825550505050565b5f90565b610ddb610dcf565b610de6818484610daa565b505050565b5b81811015610e0957610dfe5f82610dd3565b600181019050610dec565b5050565b601f821115610e4e57610e1f81610cf9565b610e2884610d0b565b81016020851015610e37578190505b610e4b610e4385610d0b565b830182610deb565b50505b505050565b5f82821c905092915050565b5f610e6e5f1984600802610e53565b1980831691505092915050565b5f610e868383610e5f565b9150826002028217905092915050565b610e9f82610a50565b67ffffffffffffffff811115610eb857610eb761081c565b5b610ec28254610cc9565b610ecd828285610e0d565b5f60209050601f831160018114610efe575f8415610eec578287015190505b610ef68582610e7b565b865550610f5d565b601f198416610f0c86610cf9565b5f5b82811015610f3357848901518255600182019150602085019450602081019050610f0e565b86831015610f505784890151610f4c601f891682610e5f565b8355505b6001600288020188555050505b505050505050565b7f4e487b71000000000000000000000000000000000000000000000000000000005f52601160045260245ffd5b5f610f9c82610940565b91507fffffffffffffffffffffffffffffffffffffffffffffffffffffffffffffffff8203610fce57610fcd610f65565b5b600182019050919050565b7f50726f64756374206e6f7420666f756e642e00000000000000000000000000005f82015250565b5f61100d601283610bb8565b915061101882610fd9565b602082019050919050565b5f6020820190508181035f83015261103a81611001565b905091905056fea2646970667358221220ee6fdbb9a3526e1f8902df08580bbb086a4400248087f2f9229df96d43bb132a64736f6c63430008160033",
					"opcodes": "PUSH1 0x80 PUSH1 0x40 MSTORE PUSH0 PUSH1 0x1 SSTORE CALLVALUE DUP1 ISZERO PUSH2 0x13 JUMPI PUSH0 DUP1 REVERT JUMPDEST POP PUSH2 0x1077 DUP1 PUSH2 0x21 PUSH0 CODECOPY PUSH0 RETURN INVALID PUSH1 0x80 PUSH1 0x40 MSTORE CALLVALUE DUP1 ISZERO PUSH2 0xF JUMPI PUSH0 DUP1 REVERT JUMPDEST POP PUSH1 0x4 CALLDATASIZE LT PUSH2 0x4A JUMPI PUSH0 CALLDATALOAD PUSH1 0xE0 SHR DUP1 PUSH4 0x150373DE EQ PUSH2 0x4E JUMPI DUP1 PUSH4 0x2B5ACD6C EQ PUSH2 0x7E JUMPI DUP1 PUSH4 0x7C73E220 EQ PUSH2 0xB3 JUMPI DUP1 PUSH4 0xE0F6EF87 EQ PUSH2 0xE3 JUMPI JUMPDEST PUSH0 DUP1 REVERT JUMPDEST PUSH2 0x68 PUSH1 0x4 DUP1 CALLDATASIZE SUB DUP2 ADD SWAP1 PUSH2 0x63 SWAP2 SWAP1 PUSH2 0x973 JUMP JUMPDEST PUSH2 0x101 JUMP JUMPDEST PUSH1 0x40 MLOAD PUSH2 0x75 SWAP2 SWAP1 PUSH2 0xB6D JUMP JUMPDEST PUSH1 0x40 MLOAD DUP1 SWAP2 SUB SWAP1 RETURN JUMPDEST PUSH2 0x98 PUSH1 0x4 DUP1 CALLDATASIZE SUB DUP2 ADD SWAP1 PUSH2 0x93 SWAP2 SWAP1 PUSH2 0xB8D JUMP JUMPDEST PUSH2 0x3B6 JUMP JUMPDEST PUSH1 0x40 MLOAD PUSH2 0xAA SWAP7 SWAP6 SWAP5 SWAP4 SWAP3 SWAP2 SWAP1 PUSH2 0xC0F JUMP JUMPDEST PUSH1 0x40 MLOAD DUP1 SWAP2 SUB SWAP1 RETURN JUMPDEST PUSH2 0xCD PUSH1 0x4 DUP1 CALLDATASIZE SUB DUP2 ADD SWAP1 PUSH2 0xC8 SWAP2 SWAP1 PUSH2 0xB8D JUMP JUMPDEST PUSH2 0x57F JUMP JUMPDEST PUSH1 0x40 MLOAD PUSH2 0xDA SWAP2 SWAP1 PUSH2 0xB6D JUMP JUMPDEST PUSH1 0x40 MLOAD DUP1 SWAP2 SUB SWAP1 RETURN JUMPDEST PUSH2 0xEB PUSH2 0x7BA JUMP JUMPDEST PUSH1 0x40 MLOAD PUSH2 0xF8 SWAP2 SWAP1 PUSH2 0xC83 JUMP JUMPDEST PUSH1 0x40 MLOAD DUP1 SWAP2 SUB SWAP1 RETURN JUMPDEST PUSH2 0x109 PUSH2 0x7C0 JUMP JUMPDEST PUSH1 0x40 MLOAD DUP1 PUSH1 0xC0 ADD PUSH1 0x40 MSTORE DUP1 DUP9 DUP2 MSTORE PUSH1 0x20 ADD DUP8 DUP2 MSTORE PUSH1 0x20 ADD DUP7 DUP2 MSTORE PUSH1 0x20 ADD DUP6 DUP2 MSTORE PUSH1 0x20 ADD DUP5 DUP2 MSTORE PUSH1 0x20 ADD DUP4 DUP2 MSTORE POP PUSH0 DUP1 PUSH1 0x1 SLOAD DUP2 MSTORE PUSH1 0x20 ADD SWAP1 DUP2 MSTORE PUSH1 0x20 ADD PUSH0 KECCAK256 PUSH0 DUP3 ADD MLOAD DUP2 PUSH0 ADD SWAP1 DUP2 PUSH2 0x15B SWAP2 SWAP1 PUSH2 0xE96 JUMP JUMPDEST POP PUSH1 0x20 DUP3 ADD MLOAD DUP2 PUSH1 0x1 ADD SWAP1 DUP2 PUSH2 0x171 SWAP2 SWAP1 PUSH2 0xE96 JUMP JUMPDEST POP PUSH1 0x40 DUP3 ADD MLOAD DUP2 PUSH1 0x2 ADD SSTORE PUSH1 0x60 DUP3 ADD MLOAD DUP2 PUSH1 0x3 ADD SSTORE PUSH1 0x80 DUP3 ADD MLOAD DUP2 PUSH1 0x4 ADD SSTORE PUSH1 0xA0 DUP3 ADD MLOAD DUP2 PUSH1 0x5 ADD SWAP1 DUP2 PUSH2 0x1A5 SWAP2 SWAP1 PUSH2 0xE96 JUMP JUMPDEST POP SWAP1 POP POP PUSH1 0x1 PUSH0 DUP2 SLOAD DUP1 SWAP3 SWAP2 SWAP1 PUSH2 0x1BB SWAP1 PUSH2 0xF92 JUMP JUMPDEST SWAP2 SWAP1 POP SSTORE POP PUSH0 DUP1 PUSH1 0x1 SLOAD DUP2 MSTORE PUSH1 0x20 ADD SWAP1 DUP2 MSTORE PUSH1 0x20 ADD PUSH0 KECCAK256 PUSH1 0x40 MLOAD DUP1 PUSH1 0xC0 ADD PUSH1 0x40 MSTORE SWAP1 DUP2 PUSH0 DUP3 ADD DUP1 SLOAD PUSH2 0x1EC SWAP1 PUSH2 0xCC9 JUMP JUMPDEST DUP1 PUSH1 0x1F ADD PUSH1 0x20 DUP1 SWAP2 DIV MUL PUSH1 0x20 ADD PUSH1 0x40 MLOAD SWAP1 DUP2 ADD PUSH1 0x40 MSTORE DUP1 SWAP3 SWAP2 SWAP1 DUP2 DUP2 MSTORE PUSH1 0x20 ADD DUP3 DUP1 SLOAD PUSH2 0x218 SWAP1 PUSH2 0xCC9 JUMP JUMPDEST DUP1 ISZERO PUSH2 0x263 JUMPI DUP1 PUSH1 0x1F LT PUSH2 0x23A JUMPI PUSH2 0x100 DUP1 DUP4 SLOAD DIV MUL DUP4 MSTORE SWAP2 PUSH1 0x20 ADD SWAP2 PUSH2 0x263 JUMP JUMPDEST DUP3 ADD SWAP2 SWAP1 PUSH0 MSTORE PUSH1 0x20 PUSH0 KECCAK256 SWAP1 JUMPDEST DUP2 SLOAD DUP2 MSTORE SWAP1 PUSH1 0x1 ADD SWAP1 PUSH1 0x20 ADD DUP1 DUP4 GT PUSH2 0x246 JUMPI DUP3 SWAP1 SUB PUSH1 0x1F AND DUP3 ADD SWAP2 JUMPDEST POP POP POP POP POP DUP2 MSTORE PUSH1 0x20 ADD PUSH1 0x1 DUP3 ADD DUP1 SLOAD PUSH2 0x27C SWAP1 PUSH2 0xCC9 JUMP JUMPDEST DUP1 PUSH1 0x1F ADD PUSH1 0x20 DUP1 SWAP2 DIV MUL PUSH1 0x20 ADD PUSH1 0x40 MLOAD SWAP1 DUP2 ADD PUSH1 0x40 MSTORE DUP1 SWAP3 SWAP2 SWAP1 DUP2 DUP2 MSTORE PUSH1 0x20 ADD DUP3 DUP1 SLOAD PUSH2 0x2A8 SWAP1 PUSH2 0xCC9 JUMP JUMPDEST DUP1 ISZERO PUSH2 0x2F3 JUMPI DUP1 PUSH1 0x1F LT PUSH2 0x2CA JUMPI PUSH2 0x100 DUP1 DUP4 SLOAD DIV MUL DUP4 MSTORE SWAP2 PUSH1 0x20 ADD SWAP2 PUSH2 0x2F3 JUMP JUMPDEST DUP3 ADD SWAP2 SWAP1 PUSH0 MSTORE PUSH1 0x20 PUSH0 KECCAK256 SWAP1 JUMPDEST DUP2 SLOAD DUP2 MSTORE SWAP1 PUSH1 0x1 ADD SWAP1 PUSH1 0x20 ADD DUP1 DUP4 GT PUSH2 0x2D6 JUMPI DUP3 SWAP1 SUB PUSH1 0x1F AND DUP3 ADD SWAP2 JUMPDEST POP POP POP POP POP DUP2 MSTORE PUSH1 0x20 ADD PUSH1 0x2 DUP3 ADD SLOAD DUP2 MSTORE PUSH1 0x20 ADD PUSH1 0x3 DUP3 ADD SLOAD DUP2 MSTORE PUSH1 0x20 ADD PUSH1 0x4 DUP3 ADD SLOAD DUP2 MSTORE PUSH1 0x20 ADD PUSH1 0x5 DUP3 ADD DUP1 SLOAD PUSH2 0x32A SWAP1 PUSH2 0xCC9 JUMP JUMPDEST DUP1 PUSH1 0x1F ADD PUSH1 0x20 DUP1 SWAP2 DIV MUL PUSH1 0x20 ADD PUSH1 0x40 MLOAD SWAP1 DUP2 ADD PUSH1 0x40 MSTORE DUP1 SWAP3 SWAP2 SWAP1 DUP2 DUP2 MSTORE PUSH1 0x20 ADD DUP3 DUP1 SLOAD PUSH2 0x356 SWAP1 PUSH2 0xCC9 JUMP JUMPDEST DUP1 ISZERO PUSH2 0x3A1 JUMPI DUP1 PUSH1 0x1F LT PUSH2 0x378 JUMPI PUSH2 0x100 DUP1 DUP4 SLOAD DIV MUL DUP4 MSTORE SWAP2 PUSH1 0x20 ADD SWAP2 PUSH2 0x3A1 JUMP JUMPDEST DUP3 ADD SWAP2 SWAP1 PUSH0 MSTORE PUSH1 0x20 PUSH0 KECCAK256 SWAP1 JUMPDEST DUP2 SLOAD DUP2 MSTORE SWAP1 PUSH1 0x1 ADD SWAP1 PUSH1 0x20 ADD DUP1 DUP4 GT PUSH2 0x384 JUMPI DUP3 SWAP1 SUB PUSH1 0x1F AND DUP3 ADD SWAP2 JUMPDEST POP POP POP POP POP DUP2 MSTORE POP POP SWAP1 POP SWAP7 SWAP6 POP POP POP POP POP POP JUMP JUMPDEST PUSH0 PUSH1 0x20 MSTORE DUP1 PUSH0 MSTORE PUSH1 0x40 PUSH0 KECCAK256 PUSH0 SWAP2 POP SWAP1 POP DUP1 PUSH0 ADD DUP1 SLOAD PUSH2 0x3D4 SWAP1 PUSH2 0xCC9 JUMP JUMPDEST DUP1 PUSH1 0x1F ADD PUSH1 0x20 DUP1 SWAP2 DIV MUL PUSH1 0x20 ADD PUSH1 0x40 MLOAD SWAP1 DUP2 ADD PUSH1 0x40 MSTORE DUP1 SWAP3 SWAP2 SWAP1 DUP2 DUP2 MSTORE PUSH1 0x20 ADD DUP3 DUP1 SLOAD PUSH2 0x400 SWAP1 PUSH2 0xCC9 JUMP JUMPDEST DUP1 ISZERO PUSH2 0x44B JUMPI DUP1 PUSH1 0x1F LT PUSH2 0x422 JUMPI PUSH2 0x100 DUP1 DUP4 SLOAD DIV MUL DUP4 MSTORE SWAP2 PUSH1 0x20 ADD SWAP2 PUSH2 0x44B JUMP JUMPDEST DUP3 ADD SWAP2 SWAP1 PUSH0 MSTORE PUSH1 0x20 PUSH0 KECCAK256 SWAP1 JUMPDEST DUP2 SLOAD DUP2 MSTORE SWAP1 PUSH1 0x1 ADD SWAP1 PUSH1 0x20 ADD DUP1 DUP4 GT PUSH2 0x42E JUMPI DUP3 SWAP1 SUB PUSH1 0x1F AND DUP3 ADD SWAP2 JUMPDEST POP POP POP POP POP SWAP1 DUP1 PUSH1 0x1 ADD DUP1 SLOAD PUSH2 0x460 SWAP1 PUSH2 0xCC9 JUMP JUMPDEST DUP1 PUSH1 0x1F ADD PUSH1 0x20 DUP1 SWAP2 DIV MUL PUSH1 0x20 ADD PUSH1 0x40 MLOAD SWAP1 DUP2 ADD PUSH1 0x40 MSTORE DUP1 SWAP3 SWAP2 SWAP1 DUP2 DUP2 MSTORE PUSH1 0x20 ADD DUP3 DUP1 SLOAD PUSH2 0x48C SWAP1 PUSH2 0xCC9 JUMP JUMPDEST DUP1 ISZERO PUSH2 0x4D7 JUMPI DUP1 PUSH1 0x1F LT PUSH2 0x4AE JUMPI PUSH2 0x100 DUP1 DUP4 SLOAD DIV MUL DUP4 MSTORE SWAP2 PUSH1 0x20 ADD SWAP2 PUSH2 0x4D7 JUMP JUMPDEST DUP3 ADD SWAP2 SWAP1 PUSH0 MSTORE PUSH1 0x20 PUSH0 KECCAK256 SWAP1 JUMPDEST DUP2 SLOAD DUP2 MSTORE SWAP1 PUSH1 0x1 ADD SWAP1 PUSH1 0x20 ADD DUP1 DUP4 GT PUSH2 0x4BA JUMPI DUP3 SWAP1 SUB PUSH1 0x1F AND DUP3 ADD SWAP2 JUMPDEST POP POP POP POP POP SWAP1 DUP1 PUSH1 0x2 ADD SLOAD SWAP1 DUP1 PUSH1 0x3 ADD SLOAD SWAP1 DUP1 PUSH1 0x4 ADD SLOAD SWAP1 DUP1 PUSH1 0x5 ADD DUP1 SLOAD PUSH2 0x4FE SWAP1 PUSH2 0xCC9 JUMP JUMPDEST DUP1 PUSH1 0x1F ADD PUSH1 0x20 DUP1 SWAP2 DIV MUL PUSH1 0x20 ADD PUSH1 0x40 MLOAD SWAP1 DUP2 ADD PUSH1 0x40 MSTORE DUP1 SWAP3 SWAP2 SWAP1 DUP2 DUP2 MSTORE PUSH1 0x20 ADD DUP3 DUP1 SLOAD PUSH2 0x52A SWAP1 PUSH2 0xCC9 JUMP JUMPDEST DUP1 ISZERO PUSH2 0x575 JUMPI DUP1 PUSH1 0x1F LT PUSH2 0x54C JUMPI PUSH2 0x100 DUP1 DUP4 SLOAD DIV MUL DUP4 MSTORE SWAP2 PUSH1 0x20 ADD SWAP2 PUSH2 0x575 JUMP JUMPDEST DUP3 ADD SWAP2 SWAP1 PUSH0 MSTORE PUSH1 0x20 PUSH0 KECCAK256 SWAP1 JUMPDEST DUP2 SLOAD DUP2 MSTORE SWAP1 PUSH1 0x1 ADD SWAP1 PUSH1 0x20 ADD DUP1 DUP4 GT PUSH2 0x558 JUMPI DUP3 SWAP1 SUB PUSH1 0x1F AND DUP3 ADD SWAP2 JUMPDEST POP POP POP POP POP SWAP1 POP DUP7 JUMP JUMPDEST PUSH2 0x587 PUSH2 0x7C0 JUMP JUMPDEST PUSH1 0x1 SLOAD DUP3 LT PUSH2 0x5CB JUMPI PUSH1 0x40 MLOAD PUSH32 0x8C379A000000000000000000000000000000000000000000000000000000000 DUP2 MSTORE PUSH1 0x4 ADD PUSH2 0x5C2 SWAP1 PUSH2 0x1023 JUMP JUMPDEST PUSH1 0x40 MLOAD DUP1 SWAP2 SUB SWAP1 REVERT JUMPDEST PUSH0 DUP1 DUP4 DUP2 MSTORE PUSH1 0x20 ADD SWAP1 DUP2 MSTORE PUSH1 0x20 ADD PUSH0 KECCAK256 PUSH1 0x40 MLOAD DUP1 PUSH1 0xC0 ADD PUSH1 0x40 MSTORE SWAP1 DUP2 PUSH0 DUP3 ADD DUP1 SLOAD PUSH2 0x5F5 SWAP1 PUSH2 0xCC9 JUMP JUMPDEST DUP1 PUSH1 0x1F ADD PUSH1 0x20 DUP1 SWAP2 DIV MUL PUSH1 0x20 ADD PUSH1 0x40 MLOAD SWAP1 DUP2 ADD PUSH1 0x40 MSTORE DUP1 SWAP3 SWAP2 SWAP1 DUP2 DUP2 MSTORE PUSH1 0x20 ADD DUP3 DUP1 SLOAD PUSH2 0x621 SWAP1 PUSH2 0xCC9 JUMP JUMPDEST DUP1 ISZERO PUSH2 0x66C JUMPI DUP1 PUSH1 0x1F LT PUSH2 0x643 JUMPI PUSH2 0x100 DUP1 DUP4 SLOAD DIV MUL DUP4 MSTORE SWAP2 PUSH1 0x20 ADD SWAP2 PUSH2 0x66C JUMP JUMPDEST DUP3 ADD SWAP2 SWAP1 PUSH0 MSTORE PUSH1 0x20 PUSH0 KECCAK256 SWAP1 JUMPDEST DUP2 SLOAD DUP2 MSTORE SWAP1 PUSH1 0x1 ADD SWAP1 PUSH1 0x20 ADD DUP1 DUP4 GT PUSH2 0x64F JUMPI DUP3 SWAP1 SUB PUSH1 0x1F AND DUP3 ADD SWAP2 JUMPDEST POP POP POP POP POP DUP2 MSTORE PUSH1 0x20 ADD PUSH1 0x1 DUP3 ADD DUP1 SLOAD PUSH2 0x685 SWAP1 PUSH2 0xCC9 JUMP JUMPDEST DUP1 PUSH1 0x1F ADD PUSH1 0x20 DUP1 SWAP2 DIV MUL PUSH1 0x20 ADD PUSH1 0x40 MLOAD SWAP1 DUP2 ADD PUSH1 0x40 MSTORE DUP1 SWAP3 SWAP2 SWAP1 DUP2 DUP2 MSTORE PUSH1 0x20 ADD DUP3 DUP1 SLOAD PUSH2 0x6B1 SWAP1 PUSH2 0xCC9 JUMP JUMPDEST DUP1 ISZERO PUSH2 0x6FC JUMPI DUP1 PUSH1 0x1F LT PUSH2 0x6D3 JUMPI PUSH2 0x100 DUP1 DUP4 SLOAD DIV MUL DUP4 MSTORE SWAP2 PUSH1 0x20 ADD SWAP2 PUSH2 0x6FC JUMP JUMPDEST DUP3 ADD SWAP2 SWAP1 PUSH0 MSTORE PUSH1 0x20 PUSH0 KECCAK256 SWAP1 JUMPDEST DUP2 SLOAD DUP2 MSTORE SWAP1 PUSH1 0x1 ADD SWAP1 PUSH1 0x20 ADD DUP1 DUP4 GT PUSH2 0x6DF JUMPI DUP3 SWAP1 SUB PUSH1 0x1F AND DUP3 ADD SWAP2 JUMPDEST POP POP POP POP POP DUP2 MSTORE PUSH1 0x20 ADD PUSH1 0x2 DUP3 ADD SLOAD DUP2 MSTORE PUSH1 0x20 ADD PUSH1 0x3 DUP3 ADD SLOAD DUP2 MSTORE PUSH1 0x20 ADD PUSH1 0x4 DUP3 ADD SLOAD DUP2 MSTORE PUSH1 0x20 ADD PUSH1 0x5 DUP3 ADD DUP1 SLOAD PUSH2 0x733 SWAP1 PUSH2 0xCC9 JUMP JUMPDEST DUP1 PUSH1 0x1F ADD PUSH1 0x20 DUP1 SWAP2 DIV MUL PUSH1 0x20 ADD PUSH1 0x40 MLOAD SWAP1 DUP2 ADD PUSH1 0x40 MSTORE DUP1 SWAP3 SWAP2 SWAP1 DUP2 DUP2 MSTORE PUSH1 0x20 ADD DUP3 DUP1 SLOAD PUSH2 0x75F SWAP1 PUSH2 0xCC9 JUMP JUMPDEST DUP1 ISZERO PUSH2 0x7AA JUMPI DUP1 PUSH1 0x1F LT PUSH2 0x781 JUMPI PUSH2 0x100 DUP1 DUP4 SLOAD DIV MUL DUP4 MSTORE SWAP2 PUSH1 0x20 ADD SWAP2 PUSH2 0x7AA JUMP JUMPDEST DUP3 ADD SWAP2 SWAP1 PUSH0 MSTORE PUSH1 0x20 PUSH0 KECCAK256 SWAP1 JUMPDEST DUP2 SLOAD DUP2 MSTORE SWAP1 PUSH1 0x1 ADD SWAP1 PUSH1 0x20 ADD DUP1 DUP4 GT PUSH2 0x78D JUMPI DUP3 SWAP1 SUB PUSH1 0x1F AND DUP3 ADD SWAP2 JUMPDEST POP POP POP POP POP DUP2 MSTORE POP POP SWAP1 POP SWAP2 SWAP1 POP JUMP JUMPDEST PUSH1 0x1 SLOAD DUP2 JUMP JUMPDEST PUSH1 0x40 MLOAD DUP1 PUSH1 0xC0 ADD PUSH1 0x40 MSTORE DUP1 PUSH1 0x60 DUP2 MSTORE PUSH1 0x20 ADD PUSH1 0x60 DUP2 MSTORE PUSH1 0x20 ADD PUSH0 DUP2 MSTORE PUSH1 0x20 ADD PUSH0 DUP2 MSTORE PUSH1 0x20 ADD PUSH0 DUP2 MSTORE PUSH1 0x20 ADD PUSH1 0x60 DUP2 MSTORE POP SWAP1 JUMP JUMPDEST PUSH0 PUSH1 0x40 MLOAD SWAP1 POP SWAP1 JUMP JUMPDEST PUSH0 DUP1 REVERT JUMPDEST PUSH0 DUP1 REVERT JUMPDEST PUSH0 DUP1 REVERT JUMPDEST PUSH0 DUP1 REVERT JUMPDEST PUSH0 PUSH1 0x1F NOT PUSH1 0x1F DUP4 ADD AND SWAP1 POP SWAP2 SWAP1 POP JUMP JUMPDEST PUSH32 0x4E487B7100000000000000000000000000000000000000000000000000000000 PUSH0 MSTORE PUSH1 0x41 PUSH1 0x4 MSTORE PUSH1 0x24 PUSH0 REVERT JUMPDEST PUSH2 0x852 DUP3 PUSH2 0x80C JUMP JUMPDEST DUP2 ADD DUP2 DUP2 LT PUSH8 0xFFFFFFFFFFFFFFFF DUP3 GT OR ISZERO PUSH2 0x871 JUMPI PUSH2 0x870 PUSH2 0x81C JUMP JUMPDEST JUMPDEST DUP1 PUSH1 0x40 MSTORE POP POP POP JUMP JUMPDEST PUSH0 PUSH2 0x883 PUSH2 0x7F3 JUMP JUMPDEST SWAP1 POP PUSH2 0x88F DUP3 DUP3 PUSH2 0x849 JUMP JUMPDEST SWAP2 SWAP1 POP JUMP JUMPDEST PUSH0 PUSH8 0xFFFFFFFFFFFFFFFF DUP3 GT ISZERO PUSH2 0x8AE JUMPI PUSH2 0x8AD PUSH2 0x81C JUMP JUMPDEST JUMPDEST PUSH2 0x8B7 DUP3 PUSH2 0x80C JUMP JUMPDEST SWAP1 POP PUSH1 0x20 DUP2 ADD SWAP1 POP SWAP2 SWAP1 POP JUMP JUMPDEST DUP3 DUP2 DUP4 CALLDATACOPY PUSH0 DUP4 DUP4 ADD MSTORE POP POP POP JUMP JUMPDEST PUSH0 PUSH2 0x8E4 PUSH2 0x8DF DUP5 PUSH2 0x894 JUMP JUMPDEST PUSH2 0x87A JUMP JUMPDEST SWAP1 POP DUP3 DUP2 MSTORE PUSH1 0x20 DUP2 ADD DUP5 DUP5 DUP5 ADD GT ISZERO PUSH2 0x900 JUMPI PUSH2 0x8FF PUSH2 0x808 JUMP JUMPDEST JUMPDEST PUSH2 0x90B DUP5 DUP3 DUP6 PUSH2 0x8C4 JUMP JUMPDEST POP SWAP4 SWAP3 POP POP POP JUMP JUMPDEST PUSH0 DUP3 PUSH1 0x1F DUP4 ADD SLT PUSH2 0x927 JUMPI PUSH2 0x926 PUSH2 0x804 JUMP JUMPDEST JUMPDEST DUP2 CALLDATALOAD PUSH2 0x937 DUP5 DUP3 PUSH1 0x20 DUP7 ADD PUSH2 0x8D2 JUMP JUMPDEST SWAP2 POP POP SWAP3 SWAP2 POP POP JUMP JUMPDEST PUSH0 DUP2 SWAP1 POP SWAP2 SWAP1 POP JUMP JUMPDEST PUSH2 0x952 DUP2 PUSH2 0x940 JUMP JUMPDEST DUP2 EQ PUSH2 0x95C JUMPI PUSH0 DUP1 REVERT JUMPDEST POP JUMP JUMPDEST PUSH0 DUP2 CALLDATALOAD SWAP1 POP PUSH2 0x96D DUP2 PUSH2 0x949 JUMP JUMPDEST SWAP3 SWAP2 POP POP JUMP JUMPDEST PUSH0 DUP1 PUSH0 DUP1 PUSH0 DUP1 PUSH1 0xC0 DUP8 DUP10 SUB SLT ISZERO PUSH2 0x98D JUMPI PUSH2 0x98C PUSH2 0x7FC JUMP JUMPDEST JUMPDEST PUSH0 DUP8 ADD CALLDATALOAD PUSH8 0xFFFFFFFFFFFFFFFF DUP2 GT ISZERO PUSH2 0x9AA JUMPI PUSH2 0x9A9 PUSH2 0x800 JUMP JUMPDEST JUMPDEST PUSH2 0x9B6 DUP10 DUP3 DUP11 ADD PUSH2 0x913 JUMP JUMPDEST SWAP7 POP POP PUSH1 0x20 DUP8 ADD CALLDATALOAD PUSH8 0xFFFFFFFFFFFFFFFF DUP2 GT ISZERO PUSH2 0x9D7 JUMPI PUSH2 0x9D6 PUSH2 0x800 JUMP JUMPDEST JUMPDEST PUSH2 0x9E3 DUP10 DUP3 DUP11 ADD PUSH2 0x913 JUMP JUMPDEST SWAP6 POP POP PUSH1 0x40 PUSH2 0x9F4 DUP10 DUP3 DUP11 ADD PUSH2 0x95F JUMP JUMPDEST SWAP5 POP POP PUSH1 0x60 PUSH2 0xA05 DUP10 DUP3 DUP11 ADD PUSH2 0x95F JUMP JUMPDEST SWAP4 POP POP PUSH1 0x80 PUSH2 0xA16 DUP10 DUP3 DUP11 ADD PUSH2 0x95F JUMP JUMPDEST SWAP3 POP POP PUSH1 0xA0 DUP8 ADD CALLDATALOAD PUSH8 0xFFFFFFFFFFFFFFFF DUP2 GT ISZERO PUSH2 0xA37 JUMPI PUSH2 0xA36 PUSH2 0x800 JUMP JUMPDEST JUMPDEST PUSH2 0xA43 DUP10 DUP3 DUP11 ADD PUSH2 0x913 JUMP JUMPDEST SWAP2 POP POP SWAP3 SWAP6 POP SWAP3 SWAP6 POP SWAP3 SWAP6 JUMP JUMPDEST PUSH0 DUP2 MLOAD SWAP1 POP SWAP2 SWAP1 POP JUMP JUMPDEST PUSH0 DUP3 DUP3 MSTORE PUSH1 0x20 DUP3 ADD SWAP1 POP SWAP3 SWAP2 POP POP JUMP JUMPDEST PUSH0 JUMPDEST DUP4 DUP2 LT ISZERO PUSH2 0xA87 JUMPI DUP1 DUP3 ADD MLOAD DUP2 DUP5 ADD MSTORE PUSH1 0x20 DUP2 ADD SWAP1 POP PUSH2 0xA6C JUMP JUMPDEST PUSH0 DUP5 DUP5 ADD MSTORE POP POP POP POP JUMP JUMPDEST PUSH0 PUSH2 0xA9C DUP3 PUSH2 0xA50 JUMP JUMPDEST PUSH2 0xAA6 DUP2 DUP6 PUSH2 0xA5A JUMP JUMPDEST SWAP4 POP PUSH2 0xAB6 DUP2 DUP6 PUSH1 0x20 DUP7 ADD PUSH2 0xA6A JUMP JUMPDEST PUSH2 0xABF DUP2 PUSH2 0x80C JUMP JUMPDEST DUP5 ADD SWAP2 POP POP SWAP3 SWAP2 POP POP JUMP JUMPDEST PUSH2 0xAD3 DUP2 PUSH2 0x940 JUMP JUMPDEST DUP3 MSTORE POP POP JUMP JUMPDEST PUSH0 PUSH1 0xC0 DUP4 ADD PUSH0 DUP4 ADD MLOAD DUP5 DUP3 SUB PUSH0 DUP7 ADD MSTORE PUSH2 0xAF3 DUP3 DUP3 PUSH2 0xA92 JUMP JUMPDEST SWAP2 POP POP PUSH1 0x20 DUP4 ADD MLOAD DUP5 DUP3 SUB PUSH1 0x20 DUP7 ADD MSTORE PUSH2 0xB0D DUP3 DUP3 PUSH2 0xA92 JUMP JUMPDEST SWAP2 POP POP PUSH1 0x40 DUP4 ADD MLOAD PUSH2 0xB22 PUSH1 0x40 DUP7 ADD DUP3 PUSH2 0xACA JUMP JUMPDEST POP PUSH1 0x60 DUP4 ADD MLOAD PUSH2 0xB35 PUSH1 0x60 DUP7 ADD DUP3 PUSH2 0xACA JUMP JUMPDEST POP PUSH1 0x80 DUP4 ADD MLOAD PUSH2 0xB48 PUSH1 0x80 DUP7 ADD DUP3 PUSH2 0xACA JUMP JUMPDEST POP PUSH1 0xA0 DUP4 ADD MLOAD DUP5 DUP3 SUB PUSH1 0xA0 DUP7 ADD MSTORE PUSH2 0xB60 DUP3 DUP3 PUSH2 0xA92 JUMP JUMPDEST SWAP2 POP POP DUP1 SWAP2 POP POP SWAP3 SWAP2 POP POP JUMP JUMPDEST PUSH0 PUSH1 0x20 DUP3 ADD SWAP1 POP DUP2 DUP2 SUB PUSH0 DUP4 ADD MSTORE PUSH2 0xB85 DUP2 DUP5 PUSH2 0xAD9 JUMP JUMPDEST SWAP1 POP SWAP3 SWAP2 POP POP JUMP JUMPDEST PUSH0 PUSH1 0x20 DUP3 DUP5 SUB SLT ISZERO PUSH2 0xBA2 JUMPI PUSH2 0xBA1 PUSH2 0x7FC JUMP JUMPDEST JUMPDEST PUSH0 PUSH2 0xBAF DUP5 DUP3 DUP6 ADD PUSH2 0x95F JUMP JUMPDEST SWAP2 POP POP SWAP3 SWAP2 POP POP JUMP JUMPDEST PUSH0 DUP3 DUP3 MSTORE PUSH1 0x20 DUP3 ADD SWAP1 POP SWAP3 SWAP2 POP POP JUMP JUMPDEST PUSH0 PUSH2 0xBD2 DUP3 PUSH2 0xA50 JUMP JUMPDEST PUSH2 0xBDC DUP2 DUP6 PUSH2 0xBB8 JUMP JUMPDEST SWAP4 POP PUSH2 0xBEC DUP2 DUP6 PUSH1 0x20 DUP7 ADD PUSH2 0xA6A JUMP JUMPDEST PUSH2 0xBF5 DUP2 PUSH2 0x80C JUMP JUMPDEST DUP5 ADD SWAP2 POP POP SWAP3 SWAP2 POP POP JUMP JUMPDEST PUSH2 0xC09 DUP2 PUSH2 0x940 JUMP JUMPDEST DUP3 MSTORE POP POP JUMP JUMPDEST PUSH0 PUSH1 0xC0 DUP3 ADD SWAP1 POP DUP2 DUP2 SUB PUSH0 DUP4 ADD MSTORE PUSH2 0xC27 DUP2 DUP10 PUSH2 0xBC8 JUMP JUMPDEST SWAP1 POP DUP2 DUP2 SUB PUSH1 0x20 DUP4 ADD MSTORE PUSH2 0xC3B DUP2 DUP9 PUSH2 0xBC8 JUMP JUMPDEST SWAP1 POP PUSH2 0xC4A PUSH1 0x40 DUP4 ADD DUP8 PUSH2 0xC00 JUMP JUMPDEST PUSH2 0xC57 PUSH1 0x60 DUP4 ADD DUP7 PUSH2 0xC00 JUMP JUMPDEST PUSH2 0xC64 PUSH1 0x80 DUP4 ADD DUP6 PUSH2 0xC00 JUMP JUMPDEST DUP2 DUP2 SUB PUSH1 0xA0 DUP4 ADD MSTORE PUSH2 0xC76 DUP2 DUP5 PUSH2 0xBC8 JUMP JUMPDEST SWAP1 POP SWAP8 SWAP7 POP POP POP POP POP POP POP JUMP JUMPDEST PUSH0 PUSH1 0x20 DUP3 ADD SWAP1 POP PUSH2 0xC96 PUSH0 DUP4 ADD DUP5 PUSH2 0xC00 JUMP JUMPDEST SWAP3 SWAP2 POP POP JUMP JUMPDEST PUSH32 0x4E487B7100000000000000000000000000000000000000000000000000000000 PUSH0 MSTORE PUSH1 0x22 PUSH1 0x4 MSTORE PUSH1 0x24 PUSH0 REVERT JUMPDEST PUSH0 PUSH1 0x2 DUP3 DIV SWAP1 POP PUSH1 0x1 DUP3 AND DUP1 PUSH2 0xCE0 JUMPI PUSH1 0x7F DUP3 AND SWAP2 POP JUMPDEST PUSH1 0x20 DUP3 LT DUP2 SUB PUSH2 0xCF3 JUMPI PUSH2 0xCF2 PUSH2 0xC9C JUMP JUMPDEST JUMPDEST POP SWAP2 SWAP1 POP JUMP JUMPDEST PUSH0 DUP2 SWAP1 POP DUP2 PUSH0 MSTORE PUSH1 0x20 PUSH0 KECCAK256 SWAP1 POP SWAP2 SWAP1 POP JUMP JUMPDEST PUSH0 PUSH1 0x20 PUSH1 0x1F DUP4 ADD DIV SWAP1 POP SWAP2 SWAP1 POP JUMP JUMPDEST PUSH0 DUP3 DUP3 SHL SWAP1 POP SWAP3 SWAP2 POP POP JUMP JUMPDEST PUSH0 PUSH1 0x8 DUP4 MUL PUSH2 0xD55 PUSH32 0xFFFFFFFFFFFFFFFFFFFFFFFFFFFFFFFFFFFFFFFFFFFFFFFFFFFFFFFFFFFFFFFF DUP3 PUSH2 0xD1A JUMP JUMPDEST PUSH2 0xD5F DUP7 DUP4 PUSH2 0xD1A JUMP JUMPDEST SWAP6 POP DUP1 NOT DUP5 AND SWAP4 POP DUP1 DUP7 AND DUP5 OR SWAP3 POP POP POP SWAP4 SWAP3 POP POP POP JUMP JUMPDEST PUSH0 DUP2 SWAP1 POP SWAP2 SWAP1 POP JUMP JUMPDEST PUSH0 PUSH2 0xD9A PUSH2 0xD95 PUSH2 0xD90 DUP5 PUSH2 0x940 JUMP JUMPDEST PUSH2 0xD77 JUMP JUMPDEST PUSH2 0x940 JUMP JUMPDEST SWAP1 POP SWAP2 SWAP1 POP JUMP JUMPDEST PUSH0 DUP2 SWAP1 POP SWAP2 SWAP1 POP JUMP JUMPDEST PUSH2 0xDB3 DUP4 PUSH2 0xD80 JUMP JUMPDEST PUSH2 0xDC7 PUSH2 0xDBF DUP3 PUSH2 0xDA1 JUMP JUMPDEST DUP5 DUP5 SLOAD PUSH2 0xD26 JUMP JUMPDEST DUP3 SSTORE POP POP POP POP JUMP JUMPDEST PUSH0 SWAP1 JUMP JUMPDEST PUSH2 0xDDB PUSH2 0xDCF JUMP JUMPDEST PUSH2 0xDE6 DUP2 DUP5 DUP5 PUSH2 0xDAA JUMP JUMPDEST POP POP POP JUMP JUMPDEST JUMPDEST DUP2 DUP2 LT ISZERO PUSH2 0xE09 JUMPI PUSH2 0xDFE PUSH0 DUP3 PUSH2 0xDD3 JUMP JUMPDEST PUSH1 0x1 DUP2 ADD SWAP1 POP PUSH2 0xDEC JUMP JUMPDEST POP POP JUMP JUMPDEST PUSH1 0x1F DUP3 GT ISZERO PUSH2 0xE4E JUMPI PUSH2 0xE1F DUP2 PUSH2 0xCF9 JUMP JUMPDEST PUSH2 0xE28 DUP5 PUSH2 0xD0B JUMP JUMPDEST DUP2 ADD PUSH1 0x20 DUP6 LT ISZERO PUSH2 0xE37 JUMPI DUP2 SWAP1 POP JUMPDEST PUSH2 0xE4B PUSH2 0xE43 DUP6 PUSH2 0xD0B JUMP JUMPDEST DUP4 ADD DUP3 PUSH2 0xDEB JUMP JUMPDEST POP POP JUMPDEST POP POP POP JUMP JUMPDEST PUSH0 DUP3 DUP3 SHR SWAP1 POP SWAP3 SWAP2 POP POP JUMP JUMPDEST PUSH0 PUSH2 0xE6E PUSH0 NOT DUP5 PUSH1 0x8 MUL PUSH2 0xE53 JUMP JUMPDEST NOT DUP1 DUP4 AND SWAP2 POP POP SWAP3 SWAP2 POP POP JUMP JUMPDEST PUSH0 PUSH2 0xE86 DUP4 DUP4 PUSH2 0xE5F JUMP JUMPDEST SWAP2 POP DUP3 PUSH1 0x2 MUL DUP3 OR SWAP1 POP SWAP3 SWAP2 POP POP JUMP JUMPDEST PUSH2 0xE9F DUP3 PUSH2 0xA50 JUMP JUMPDEST PUSH8 0xFFFFFFFFFFFFFFFF DUP2 GT ISZERO PUSH2 0xEB8 JUMPI PUSH2 0xEB7 PUSH2 0x81C JUMP JUMPDEST JUMPDEST PUSH2 0xEC2 DUP3 SLOAD PUSH2 0xCC9 JUMP JUMPDEST PUSH2 0xECD DUP3 DUP3 DUP6 PUSH2 0xE0D JUMP JUMPDEST PUSH0 PUSH1 0x20 SWAP1 POP PUSH1 0x1F DUP4 GT PUSH1 0x1 DUP2 EQ PUSH2 0xEFE JUMPI PUSH0 DUP5 ISZERO PUSH2 0xEEC JUMPI DUP3 DUP8 ADD MLOAD SWAP1 POP JUMPDEST PUSH2 0xEF6 DUP6 DUP3 PUSH2 0xE7B JUMP JUMPDEST DUP7 SSTORE POP PUSH2 0xF5D JUMP JUMPDEST PUSH1 0x1F NOT DUP5 AND PUSH2 0xF0C DUP7 PUSH2 0xCF9 JUMP JUMPDEST PUSH0 JUMPDEST DUP3 DUP2 LT ISZERO PUSH2 0xF33 JUMPI DUP5 DUP10 ADD MLOAD DUP3 SSTORE PUSH1 0x1 DUP3 ADD SWAP2 POP PUSH1 0x20 DUP6 ADD SWAP5 POP PUSH1 0x20 DUP2 ADD SWAP1 POP PUSH2 0xF0E JUMP JUMPDEST DUP7 DUP4 LT ISZERO PUSH2 0xF50 JUMPI DUP5 DUP10 ADD MLOAD PUSH2 0xF4C PUSH1 0x1F DUP10 AND DUP3 PUSH2 0xE5F JUMP JUMPDEST DUP4 SSTORE POP JUMPDEST PUSH1 0x1 PUSH1 0x2 DUP9 MUL ADD DUP9 SSTORE POP POP POP JUMPDEST POP POP POP POP POP POP JUMP JUMPDEST PUSH32 0x4E487B7100000000000000000000000000000000000000000000000000000000 PUSH0 MSTORE PUSH1 0x11 PUSH1 0x4 MSTORE PUSH1 0x24 PUSH0 REVERT JUMPDEST PUSH0 PUSH2 0xF9C DUP3 PUSH2 0x940 JUMP JUMPDEST SWAP2 POP PUSH32 0xFFFFFFFFFFFFFFFFFFFFFFFFFFFFFFFFFFFFFFFFFFFFFFFFFFFFFFFFFFFFFFFF DUP3 SUB PUSH2 0xFCE JUMPI PUSH2 0xFCD PUSH2 0xF65 JUMP JUMPDEST JUMPDEST PUSH1 0x1 DUP3 ADD SWAP1 POP SWAP2 SWAP1 POP JUMP JUMPDEST PUSH32 0x50726F64756374206E6F7420666F756E642E0000000000000000000000000000 PUSH0 DUP3 ADD MSTORE POP JUMP JUMPDEST PUSH0 PUSH2 0x100D PUSH1 0x12 DUP4 PUSH2 0xBB8 JUMP JUMPDEST SWAP2 POP PUSH2 0x1018 DUP3 PUSH2 0xFD9 JUMP JUMPDEST PUSH1 0x20 DUP3 ADD SWAP1 POP SWAP2 SWAP1 POP JUMP JUMPDEST PUSH0 PUSH1 0x20 DUP3 ADD SWAP1 POP DUP2 DUP2 SUB PUSH0 DUP4 ADD MSTORE PUSH2 0x103A DUP2 PUSH2 0x1001 JUMP JUMPDEST SWAP1 POP SWAP2 SWAP1 POP JUMP INVALID LOG2 PUSH5 0x6970667358 0x22 SLT KECCAK256 0xEE PUSH16 0xDBB9A3526E1F8902DF08580BBB086A44 STOP 0x24 DUP1 DUP8 CALLCODE 0xF9 0x22 SWAP14 0xF9 PUSH14 0x43BB132A64736F6C634300081600 CALLER "
				},
				"gasEstimates": {
					"creation": {
						"codeDepositCost": "843000",
						"executionCost": "5880",
						"totalCost": "848880"
					},
					"external": {
						"addSupplement(string,string,uint256,uint256,uint256,string)": "infinite",
						"getSupplementInfo(uint256)": "infinite",
						"productCount()": "2469",
						"supplements(uint256)": "infinite"
					}
				},
				"methodIdentifiers": {
					"addSupplement(string,string,uint256,uint256,uint256,string)": "150373de",
					"getSupplementInfo(uint256)": "7c73e220",
					"productCount()": "e0f6ef87",
					"supplements(uint256)": "2b5acd6c"
				}
			},
			"storageLayout": {
				"storage": [
					{
						"astId": 19,
						"contract": "contracts/SupplementTracker.sol:SupplementTracker",
						"label": "supplements",
						"offset": 0,
						"slot": "0",
						"type": "t_mapping(t_uint256,t_struct(SupplementInfo)14_storage)"
					},
					{
						"astId": 22,
						"contract": "contracts/SupplementTracker.sol:SupplementTracker",
						"label": "productCount",
						"offset": 0,
						"slot": "1",
						"type": "t_uint256"
					}
				],
				"types": {
					"t_mapping(t_uint256,t_struct(SupplementInfo)14_storage)": {
						"encoding": "mapping",
						"key": "t_uint256",
						"label": "mapping(uint256 => struct SupplementTracker.SupplementInfo)",
						"numberOfBytes": "32",
						"value": "t_struct(SupplementInfo)14_storage"
					},
					"t_string_storage": {
						"encoding": "bytes",
						"label": "string",
						"numberOfBytes": "32"
					},
					"t_struct(SupplementInfo)14_storage": {
						"encoding": "inplace",
						"label": "struct SupplementTracker.SupplementInfo",
						"members": [
							{
								"astId": 3,
								"contract": "contracts/SupplementTracker.sol:SupplementTracker",
								"label": "name",
								"offset": 0,
								"slot": "0",
								"type": "t_string_storage"
							},
							{
								"astId": 5,
								"contract": "contracts/SupplementTracker.sol:SupplementTracker",
								"label": "manufacturer",
								"offset": 0,
								"slot": "1",
								"type": "t_string_storage"
							},
							{
								"astId": 7,
								"contract": "contracts/SupplementTracker.sol:SupplementTracker",
								"label": "proteinContent",
								"offset": 0,
								"slot": "2",
								"type": "t_uint256"
							},
							{
								"astId": 9,
								"contract": "contracts/SupplementTracker.sol:SupplementTracker",
								"label": "carbs",
								"offset": 0,
								"slot": "3",
								"type": "t_uint256"
							},
							{
								"astId": 11,
								"contract": "contracts/SupplementTracker.sol:SupplementTracker",
								"label": "fats",
								"offset": 0,
								"slot": "4",
								"type": "t_uint256"
							},
							{
								"astId": 13,
								"contract": "contracts/SupplementTracker.sol:SupplementTracker",
								"label": "expiryDate",
								"offset": 0,
								"slot": "5",
								"type": "t_string_storage"
							}
						],
						"numberOfBytes": "192"
					},
					"t_uint256": {
						"encoding": "inplace",
						"label": "uint256",
						"numberOfBytes": "32"
					}
				}
			},
			"userdoc": {
				"kind": "user",
				"methods": {},
				"version": 1
			}
		}
	}
}