{
	"contracts/SupplementTracker.sol": {
		"SupplementTracker": {
			"abi": [
				{
					"inputs": [
						{
							"internalType": "string",
							"name": "_name",
							"type": "string"
						},
						{
							"internalType": "string",
							"name": "_manufacturer",
							"type": "string"
						},
						{
							"internalType": "uint256",
							"name": "_proteins",
							"type": "uint256"
						},
						{
							"internalType": "uint256",
							"name": "_carbs",
							"type": "uint256"
						},
						{
							"internalType": "uint256",
							"name": "_fats",
							"type": "uint256"
						},
						{
							"internalType": "string",
							"name": "_expiryDate",
							"type": "string"
						},
						{
							"internalType": "bytes",
							"name": "_ownerSignature",
							"type": "bytes"
						},
						{
							"internalType": "bytes32",
							"name": "_messageHash",
							"type": "bytes32"
						}
					],
					"name": "addSupplement",
					"outputs": [],
					"stateMutability": "nonpayable",
					"type": "function"
				},
				{
					"inputs": [
						{
							"internalType": "uint256",
							"name": "",
							"type": "uint256"
						},
						{
							"internalType": "address",
							"name": "",
							"type": "address"
						}
					],
					"name": "authorizedSigners",
					"outputs": [
						{
							"internalType": "bool",
							"name": "",
							"type": "bool"
						}
					],
					"stateMutability": "view",
					"type": "function"
				},
				{
					"inputs": [
						{
							"internalType": "uint256",
							"name": "_supplementId",
							"type": "uint256"
						}
					],
					"name": "getSupplementSignatures",
					"outputs": [
						{
							"components": [
								{
									"internalType": "address",
									"name": "signer",
									"type": "address"
								},
								{
									"internalType": "bytes32",
									"name": "messageHash",
									"type": "bytes32"
								},
								{
									"internalType": "bytes",
									"name": "signature",
									"type": "bytes"
								}
							],
							"internalType": "struct SupplementTracker.SupplementSignature[]",
							"name": "",
							"type": "tuple[]"
						}
					],
					"stateMutability": "view",
					"type": "function"
				},
				{
					"inputs": [],
					"name": "getSupplements",
					"outputs": [
						{
							"components": [
								{
									"internalType": "address",
									"name": "owner",
									"type": "address"
								},
								{
									"internalType": "string",
									"name": "name",
									"type": "string"
								},
								{
									"internalType": "string",
									"name": "manufacturer",
									"type": "string"
								},
								{
									"internalType": "uint256",
									"name": "proteins",
									"type": "uint256"
								},
								{
									"internalType": "uint256",
									"name": "carbs",
									"type": "uint256"
								},
								{
									"internalType": "uint256",
									"name": "fats",
									"type": "uint256"
								},
								{
									"internalType": "string",
									"name": "expiryDate",
									"type": "string"
								}
							],
							"internalType": "struct SupplementTracker.SupplementInfo[]",
							"name": "",
							"type": "tuple[]"
						}
					],
					"stateMutability": "view",
					"type": "function"
				},
				{
					"inputs": [
						{
							"internalType": "uint256",
							"name": "_supplementId",
							"type": "uint256"
						},
						{
							"internalType": "address",
							"name": "_signer",
							"type": "address"
						},
						{
							"internalType": "bool",
							"name": "_authorization",
							"type": "bool"
						}
					],
					"name": "setSignerAuthorization",
					"outputs": [],
					"stateMutability": "nonpayable",
					"type": "function"
				},
				{
					"inputs": [
						{
							"internalType": "uint256",
							"name": "_supplementId",
							"type": "uint256"
						},
						{
							"internalType": "bytes",
							"name": "_signature",
							"type": "bytes"
						},
						{
							"internalType": "bytes32",
							"name": "_messageHash",
							"type": "bytes32"
						}
					],
					"name": "signSupplement",
					"outputs": [],
					"stateMutability": "nonpayable",
					"type": "function"
				},
				{
					"inputs": [
						{
							"internalType": "uint256",
							"name": "",
							"type": "uint256"
						}
					],
					"name": "supplements",
					"outputs": [
						{
							"internalType": "address",
							"name": "owner",
							"type": "address"
						},
						{
							"internalType": "string",
							"name": "name",
							"type": "string"
						},
						{
							"internalType": "string",
							"name": "manufacturer",
							"type": "string"
						},
						{
							"internalType": "uint256",
							"name": "proteins",
							"type": "uint256"
						},
						{
							"internalType": "uint256",
							"name": "carbs",
							"type": "uint256"
						},
						{
							"internalType": "uint256",
							"name": "fats",
							"type": "uint256"
						},
						{
							"internalType": "string",
							"name": "expiryDate",
							"type": "string"
						}
					],
					"stateMutability": "view",
					"type": "function"
				},
				{
					"inputs": [],
					"name": "supplementsCount",
					"outputs": [
						{
							"internalType": "uint256",
							"name": "",
							"type": "uint256"
						}
					],
					"stateMutability": "view",
					"type": "function"
				},
				{
					"inputs": [
						{
							"internalType": "uint256",
							"name": "",
							"type": "uint256"
						},
						{
							"internalType": "uint256",
							"name": "",
							"type": "uint256"
						}
					],
					"name": "supplementsSignatures",
					"outputs": [
						{
							"internalType": "address",
							"name": "signer",
							"type": "address"
						},
						{
							"internalType": "bytes32",
							"name": "messageHash",
							"type": "bytes32"
						},
						{
							"internalType": "bytes",
							"name": "signature",
							"type": "bytes"
						}
					],
					"stateMutability": "view",
					"type": "function"
				}
			],
			"devdoc": {
				"kind": "dev",
				"methods": {},
				"version": 1
			},
			"evm": {
				"assembly": "    /* \"contracts/SupplementTracker.sol\":70:3695  contract SupplementTracker {... */\n  mstore(0x40, 0x80)\n    /* \"contracts/SupplementTracker.sol\":672:673  0 */\n  0x00\n    /* \"contracts/SupplementTracker.sol\":638:673  uint256 public supplementsCount = 0 */\n  0x03\n  sstore\n    /* \"contracts/SupplementTracker.sol\":70:3695  contract SupplementTracker {... */\n  callvalue\n  dup1\n  iszero\n  tag_1\n  jumpi\n  0x00\n  dup1\n  revert\ntag_1:\n  pop\n  dataSize(sub_0)\n  dup1\n  dataOffset(sub_0)\n  0x00\n  codecopy\n  0x00\n  return\nstop\n\nsub_0: assembly {\n        /* \"contracts/SupplementTracker.sol\":70:3695  contract SupplementTracker {... */\n      mstore(0x40, 0x80)\n      callvalue\n      dup1\n      iszero\n      tag_1\n      jumpi\n      0x00\n      dup1\n      revert\n    tag_1:\n      pop\n      jumpi(tag_2, lt(calldatasize, 0x04))\n      shr(0xe0, calldataload(0x00))\n      dup1\n      0x49aa1d94\n      gt\n      tag_12\n      jumpi\n      dup1\n      0x49aa1d94\n      eq\n      tag_7\n      jumpi\n      dup1\n      0xbbe3d522\n      eq\n      tag_8\n      jumpi\n      dup1\n      0xc0c1e2ed\n      eq\n      tag_9\n      jumpi\n      dup1\n      0xd92d8f71\n      eq\n      tag_10\n      jumpi\n      dup1\n      0xf1c98ba2\n      eq\n      tag_11\n      jumpi\n      jump(tag_2)\n    tag_12:\n      dup1\n      0x0f86126e\n      eq\n      tag_3\n      jumpi\n      dup1\n      0x2b39fed7\n      eq\n      tag_4\n      jumpi\n      dup1\n      0x2b5acd6c\n      eq\n      tag_5\n      jumpi\n      dup1\n      0x2c290e4e\n      eq\n      tag_6\n      jumpi\n    tag_2:\n      0x00\n      dup1\n      revert\n        /* \"contracts/SupplementTracker.sol\":486:556  mapping(uint256 => SupplementSignature[]) public supplementsSignatures */\n    tag_3:\n      tag_13\n      0x04\n      dup1\n      calldatasize\n      sub\n      dup2\n      add\n      swap1\n      tag_14\n      swap2\n      swap1\n      tag_15\n      jump\t// in\n    tag_14:\n      tag_16\n      jump\t// in\n    tag_13:\n      mload(0x40)\n      tag_17\n      swap4\n      swap3\n      swap2\n      swap1\n      tag_18\n      jump\t// in\n    tag_17:\n      mload(0x40)\n      dup1\n      swap2\n      sub\n      swap1\n      return\n        /* \"contracts/SupplementTracker.sol\":2723:3059  function getSupplements() public view returns (SupplementInfo[] memory) {... */\n    tag_4:\n      tag_19\n      tag_20\n      jump\t// in\n    tag_19:\n      mload(0x40)\n      tag_21\n      swap2\n      swap1\n      tag_22\n      jump\t// in\n    tag_21:\n      mload(0x40)\n      dup1\n      swap2\n      sub\n      swap1\n      return\n        /* \"contracts/SupplementTracker.sol\":427:480  mapping(uint256 => SupplementInfo) public supplements */\n    tag_5:\n      tag_23\n      0x04\n      dup1\n      calldatasize\n      sub\n      dup2\n      add\n      swap1\n      tag_24\n      swap2\n      swap1\n      tag_25\n      jump\t// in\n    tag_24:\n      tag_26\n      jump\t// in\n    tag_23:\n      mload(0x40)\n      tag_27\n      swap8\n      swap7\n      swap6\n      swap5\n      swap4\n      swap3\n      swap2\n      swap1\n      tag_28\n      jump\t// in\n    tag_27:\n      mload(0x40)\n      dup1\n      swap2\n      sub\n      swap1\n      return\n        /* \"contracts/SupplementTracker.sol\":3065:3693  function getSupplementSignatures(uint256 _supplementId)... */\n    tag_6:\n      tag_29\n      0x04\n      dup1\n      calldatasize\n      sub\n      dup2\n      add\n      swap1\n      tag_30\n      swap2\n      swap1\n      tag_25\n      jump\t// in\n    tag_30:\n      tag_31\n      jump\t// in\n    tag_29:\n      mload(0x40)\n      tag_32\n      swap2\n      swap1\n      tag_33\n      jump\t// in\n    tag_32:\n      mload(0x40)\n      dup1\n      swap2\n      sub\n      swap1\n      return\n        /* \"contracts/SupplementTracker.sol\":562:631  mapping(uint256 => mapping(address => bool)) public authorizedSigners */\n    tag_7:\n      tag_34\n      0x04\n      dup1\n      calldatasize\n      sub\n      dup2\n      add\n      swap1\n      tag_35\n      swap2\n      swap1\n      tag_36\n      jump\t// in\n    tag_35:\n      tag_37\n      jump\t// in\n    tag_34:\n      mload(0x40)\n      tag_38\n      swap2\n      swap1\n      tag_39\n      jump\t// in\n    tag_38:\n      mload(0x40)\n      dup1\n      swap2\n      sub\n      swap1\n      return\n        /* \"contracts/SupplementTracker.sol\":1119:1756  function signSupplement(... */\n    tag_8:\n      tag_40\n      0x04\n      dup1\n      calldatasize\n      sub\n      dup2\n      add\n      swap1\n      tag_41\n      swap2\n      swap1\n      tag_42\n      jump\t// in\n    tag_41:\n      tag_43\n      jump\t// in\n    tag_40:\n      stop\n        /* \"contracts/SupplementTracker.sol\":638:673  uint256 public supplementsCount = 0 */\n    tag_9:\n      tag_44\n      tag_45\n      jump\t// in\n    tag_44:\n      mload(0x40)\n      tag_46\n      swap2\n      swap1\n      tag_47\n      jump\t// in\n    tag_46:\n      mload(0x40)\n      dup1\n      swap2\n      sub\n      swap1\n      return\n        /* \"contracts/SupplementTracker.sol\":680:1113  function setSignerAuthorization(... */\n    tag_10:\n      tag_48\n      0x04\n      dup1\n      calldatasize\n      sub\n      dup2\n      add\n      swap1\n      tag_49\n      swap2\n      swap1\n      tag_50\n      jump\t// in\n    tag_49:\n      tag_51\n      jump\t// in\n    tag_48:\n      stop\n        /* \"contracts/SupplementTracker.sol\":1952:2717  function addSupplement(... */\n    tag_11:\n      tag_52\n      0x04\n      dup1\n      calldatasize\n      sub\n      dup2\n      add\n      swap1\n      tag_53\n      swap2\n      swap1\n      tag_54\n      jump\t// in\n    tag_53:\n      tag_55\n      jump\t// in\n    tag_52:\n      stop\n        /* \"contracts/SupplementTracker.sol\":486:556  mapping(uint256 => SupplementSignature[]) public supplementsSignatures */\n    tag_16:\n      mstore(0x20, 0x01)\n      dup2\n      0x00\n      mstore\n      keccak256(0x00, 0x40)\n      dup2\n      dup2\n      sload\n      dup2\n      lt\n      tag_56\n      jumpi\n      0x00\n      dup1\n      revert\n    tag_56:\n      swap1\n      0x00\n      mstore\n      keccak256(0x00, 0x20)\n      swap1\n      0x03\n      mul\n      add\n      0x00\n      swap2\n      pop\n      swap2\n      pop\n      pop\n      dup1\n      0x00\n      add\n      0x00\n      swap1\n      sload\n      swap1\n      0x0100\n      exp\n      swap1\n      div\n      0xffffffffffffffffffffffffffffffffffffffff\n      and\n      swap1\n      dup1\n      0x01\n      add\n      sload\n      swap1\n      dup1\n      0x02\n      add\n      dup1\n      sload\n      tag_58\n      swap1\n      tag_59\n      jump\t// in\n    tag_58:\n      dup1\n      0x1f\n      add\n      0x20\n      dup1\n      swap2\n      div\n      mul\n      0x20\n      add\n      mload(0x40)\n      swap1\n      dup2\n      add\n      0x40\n      mstore\n      dup1\n      swap3\n      swap2\n      swap1\n      dup2\n      dup2\n      mstore\n      0x20\n      add\n      dup3\n      dup1\n      sload\n      tag_60\n      swap1\n      tag_59\n      jump\t// in\n    tag_60:\n      dup1\n      iszero\n      tag_61\n      jumpi\n      dup1\n      0x1f\n      lt\n      tag_62\n      jumpi\n      0x0100\n      dup1\n      dup4\n      sload\n      div\n      mul\n      dup4\n      mstore\n      swap2\n      0x20\n      add\n      swap2\n      jump(tag_61)\n    tag_62:\n      dup3\n      add\n      swap2\n      swap1\n      0x00\n      mstore\n      keccak256(0x00, 0x20)\n      swap1\n    tag_63:\n      dup2\n      sload\n      dup2\n      mstore\n      swap1\n      0x01\n      add\n      swap1\n      0x20\n      add\n      dup1\n      dup4\n      gt\n      tag_63\n      jumpi\n      dup3\n      swap1\n      sub\n      0x1f\n      and\n      dup3\n      add\n      swap2\n    tag_61:\n      pop\n      pop\n      pop\n      pop\n      pop\n      swap1\n      pop\n      dup4\n      jump\t// out\n        /* \"contracts/SupplementTracker.sol\":2723:3059  function getSupplements() public view returns (SupplementInfo[] memory) {... */\n    tag_20:\n        /* \"contracts/SupplementTracker.sol\":2770:2793  SupplementInfo[] memory */\n      0x60\n        /* \"contracts/SupplementTracker.sol\":2805:2843  SupplementInfo[] memory supplementList */\n      0x00\n        /* \"contracts/SupplementTracker.sol\":2880:2896  supplementsCount */\n      sload(0x03)\n        /* \"contracts/SupplementTracker.sol\":2846:2906  new SupplementInfo[](... */\n      0xffffffffffffffff\n      dup2\n      gt\n      iszero\n      tag_65\n      jumpi\n      tag_66\n      tag_67\n      jump\t// in\n    tag_66:\n    tag_65:\n      mload(0x40)\n      swap1\n      dup1\n      dup3\n      mstore\n      dup1\n      0x20\n      mul\n      0x20\n      add\n      dup3\n      add\n      0x40\n      mstore\n      dup1\n      iszero\n      tag_68\n      jumpi\n      dup2\n      0x20\n      add\n    tag_69:\n      tag_70\n      tag_71\n      jump\t// in\n    tag_70:\n      dup2\n      mstore\n      0x20\n      add\n      swap1\n      0x01\n      swap1\n      sub\n      swap1\n      dup2\n      tag_69\n      jumpi\n      swap1\n      pop\n    tag_68:\n      pop\n        /* \"contracts/SupplementTracker.sol\":2805:2906  SupplementInfo[] memory supplementList = new SupplementInfo[](... */\n      swap1\n      pop\n        /* \"contracts/SupplementTracker.sol\":2921:2930  uint256 i */\n      0x00\n        /* \"contracts/SupplementTracker.sol\":2916:3022  for (uint256 i = 0; i < supplementsCount; i++) {... */\n    tag_72:\n        /* \"contracts/SupplementTracker.sol\":2940:2956  supplementsCount */\n      sload(0x03)\n        /* \"contracts/SupplementTracker.sol\":2936:2937  i */\n      dup2\n        /* \"contracts/SupplementTracker.sol\":2936:2956  i < supplementsCount */\n      lt\n        /* \"contracts/SupplementTracker.sol\":2916:3022  for (uint256 i = 0; i < supplementsCount; i++) {... */\n      iszero\n      tag_73\n      jumpi\n        /* \"contracts/SupplementTracker.sol\":2997:3008  supplements */\n      0x00\n        /* \"contracts/SupplementTracker.sol\":2997:3011  supplements[i] */\n      dup1\n        /* \"contracts/SupplementTracker.sol\":3009:3010  i */\n      dup3\n        /* \"contracts/SupplementTracker.sol\":2997:3011  supplements[i] */\n      dup2\n      mstore\n      0x20\n      add\n      swap1\n      dup2\n      mstore\n      0x20\n      add\n      0x00\n      keccak256\n        /* \"contracts/SupplementTracker.sol\":2977:3011  supplementList[i] = supplements[i] */\n      mload(0x40)\n      dup1\n      0xe0\n      add\n      0x40\n      mstore\n      swap1\n      dup2\n      0x00\n      dup3\n      add\n      0x00\n      swap1\n      sload\n      swap1\n      0x0100\n      exp\n      swap1\n      div\n      0xffffffffffffffffffffffffffffffffffffffff\n      and\n      0xffffffffffffffffffffffffffffffffffffffff\n      and\n      0xffffffffffffffffffffffffffffffffffffffff\n      and\n      dup2\n      mstore\n      0x20\n      add\n      0x01\n      dup3\n      add\n      dup1\n      sload\n      tag_75\n      swap1\n      tag_59\n      jump\t// in\n    tag_75:\n      dup1\n      0x1f\n      add\n      0x20\n      dup1\n      swap2\n      div\n      mul\n      0x20\n      add\n      mload(0x40)\n      swap1\n      dup2\n      add\n      0x40\n      mstore\n      dup1\n      swap3\n      swap2\n      swap1\n      dup2\n      dup2\n      mstore\n      0x20\n      add\n      dup3\n      dup1\n      sload\n      tag_76\n      swap1\n      tag_59\n      jump\t// in\n    tag_76:\n      dup1\n      iszero\n      tag_77\n      jumpi\n      dup1\n      0x1f\n      lt\n      tag_78\n      jumpi\n      0x0100\n      dup1\n      dup4\n      sload\n      div\n      mul\n      dup4\n      mstore\n      swap2\n      0x20\n      add\n      swap2\n      jump(tag_77)\n    tag_78:\n      dup3\n      add\n      swap2\n      swap1\n      0x00\n      mstore\n      keccak256(0x00, 0x20)\n      swap1\n    tag_79:\n      dup2\n      sload\n      dup2\n      mstore\n      swap1\n      0x01\n      add\n      swap1\n      0x20\n      add\n      dup1\n      dup4\n      gt\n      tag_79\n      jumpi\n      dup3\n      swap1\n      sub\n      0x1f\n      and\n      dup3\n      add\n      swap2\n    tag_77:\n      pop\n      pop\n      pop\n      pop\n      pop\n      dup2\n      mstore\n      0x20\n      add\n      0x02\n      dup3\n      add\n      dup1\n      sload\n      tag_80\n      swap1\n      tag_59\n      jump\t// in\n    tag_80:\n      dup1\n      0x1f\n      add\n      0x20\n      dup1\n      swap2\n      div\n      mul\n      0x20\n      add\n      mload(0x40)\n      swap1\n      dup2\n      add\n      0x40\n      mstore\n      dup1\n      swap3\n      swap2\n      swap1\n      dup2\n      dup2\n      mstore\n      0x20\n      add\n      dup3\n      dup1\n      sload\n      tag_81\n      swap1\n      tag_59\n      jump\t// in\n    tag_81:\n      dup1\n      iszero\n      tag_82\n      jumpi\n      dup1\n      0x1f\n      lt\n      tag_83\n      jumpi\n      0x0100\n      dup1\n      dup4\n      sload\n      div\n      mul\n      dup4\n      mstore\n      swap2\n      0x20\n      add\n      swap2\n      jump(tag_82)\n    tag_83:\n      dup3\n      add\n      swap2\n      swap1\n      0x00\n      mstore\n      keccak256(0x00, 0x20)\n      swap1\n    tag_84:\n      dup2\n      sload\n      dup2\n      mstore\n      swap1\n      0x01\n      add\n      swap1\n      0x20\n      add\n      dup1\n      dup4\n      gt\n      tag_84\n      jumpi\n      dup3\n      swap1\n      sub\n      0x1f\n      and\n      dup3\n      add\n      swap2\n    tag_82:\n      pop\n      pop\n      pop\n      pop\n      pop\n      dup2\n      mstore\n      0x20\n      add\n      0x03\n      dup3\n      add\n      sload\n      dup2\n      mstore\n      0x20\n      add\n      0x04\n      dup3\n      add\n      sload\n      dup2\n      mstore\n      0x20\n      add\n      0x05\n      dup3\n      add\n      sload\n      dup2\n      mstore\n      0x20\n      add\n      0x06\n      dup3\n      add\n      dup1\n      sload\n      tag_85\n      swap1\n      tag_59\n      jump\t// in\n    tag_85:\n      dup1\n      0x1f\n      add\n      0x20\n      dup1\n      swap2\n      div\n      mul\n      0x20\n      add\n      mload(0x40)\n      swap1\n      dup2\n      add\n      0x40\n      mstore\n      dup1\n      swap3\n      swap2\n      swap1\n      dup2\n      dup2\n      mstore\n      0x20\n      add\n      dup3\n      dup1\n      sload\n      tag_86\n      swap1\n      tag_59\n      jump\t// in\n    tag_86:\n      dup1\n      iszero\n      tag_87\n      jumpi\n      dup1\n      0x1f\n      lt\n      tag_88\n      jumpi\n      0x0100\n      dup1\n      dup4\n      sload\n      div\n      mul\n      dup4\n      mstore\n      swap2\n      0x20\n      add\n      swap2\n      jump(tag_87)\n    tag_88:\n      dup3\n      add\n      swap2\n      swap1\n      0x00\n      mstore\n      keccak256(0x00, 0x20)\n      swap1\n    tag_89:\n      dup2\n      sload\n      dup2\n      mstore\n      swap1\n      0x01\n      add\n      swap1\n      0x20\n      add\n      dup1\n      dup4\n      gt\n      tag_89\n      jumpi\n      dup3\n      swap1\n      sub\n      0x1f\n      and\n      dup3\n      add\n      swap2\n    tag_87:\n      pop\n      pop\n      pop\n      pop\n      pop\n      dup2\n      mstore\n      pop\n      pop\n        /* \"contracts/SupplementTracker.sol\":2977:2991  supplementList */\n      dup3\n        /* \"contracts/SupplementTracker.sol\":2992:2993  i */\n      dup3\n        /* \"contracts/SupplementTracker.sol\":2977:2994  supplementList[i] */\n      dup2\n      mload\n      dup2\n      lt\n      tag_90\n      jumpi\n      tag_91\n      tag_92\n      jump\t// in\n    tag_91:\n    tag_90:\n      0x20\n      mul\n      0x20\n      add\n      add\n        /* \"contracts/SupplementTracker.sol\":2977:3011  supplementList[i] = supplements[i] */\n      dup2\n      swap1\n      mstore\n      pop\n        /* \"contracts/SupplementTracker.sol\":2958:2961  i++ */\n      dup1\n      dup1\n      0x01\n      add\n      swap2\n      pop\n      pop\n        /* \"contracts/SupplementTracker.sol\":2916:3022  for (uint256 i = 0; i < supplementsCount; i++) {... */\n      jump(tag_72)\n    tag_73:\n      pop\n        /* \"contracts/SupplementTracker.sol\":3038:3052  supplementList */\n      dup1\n        /* \"contracts/SupplementTracker.sol\":3031:3052  return supplementList */\n      swap2\n      pop\n      pop\n        /* \"contracts/SupplementTracker.sol\":2723:3059  function getSupplements() public view returns (SupplementInfo[] memory) {... */\n      swap1\n      jump\t// out\n        /* \"contracts/SupplementTracker.sol\":427:480  mapping(uint256 => SupplementInfo) public supplements */\n    tag_26:\n      mstore(0x20, 0x00)\n      dup1\n      0x00\n      mstore\n      keccak256(0x00, 0x40)\n      0x00\n      swap2\n      pop\n      swap1\n      pop\n      dup1\n      0x00\n      add\n      0x00\n      swap1\n      sload\n      swap1\n      0x0100\n      exp\n      swap1\n      div\n      0xffffffffffffffffffffffffffffffffffffffff\n      and\n      swap1\n      dup1\n      0x01\n      add\n      dup1\n      sload\n      tag_93\n      swap1\n      tag_59\n      jump\t// in\n    tag_93:\n      dup1\n      0x1f\n      add\n      0x20\n      dup1\n      swap2\n      div\n      mul\n      0x20\n      add\n      mload(0x40)\n      swap1\n      dup2\n      add\n      0x40\n      mstore\n      dup1\n      swap3\n      swap2\n      swap1\n      dup2\n      dup2\n      mstore\n      0x20\n      add\n      dup3\n      dup1\n      sload\n      tag_94\n      swap1\n      tag_59\n      jump\t// in\n    tag_94:\n      dup1\n      iszero\n      tag_95\n      jumpi\n      dup1\n      0x1f\n      lt\n      tag_96\n      jumpi\n      0x0100\n      dup1\n      dup4\n      sload\n      div\n      mul\n      dup4\n      mstore\n      swap2\n      0x20\n      add\n      swap2\n      jump(tag_95)\n    tag_96:\n      dup3\n      add\n      swap2\n      swap1\n      0x00\n      mstore\n      keccak256(0x00, 0x20)\n      swap1\n    tag_97:\n      dup2\n      sload\n      dup2\n      mstore\n      swap1\n      0x01\n      add\n      swap1\n      0x20\n      add\n      dup1\n      dup4\n      gt\n      tag_97\n      jumpi\n      dup3\n      swap1\n      sub\n      0x1f\n      and\n      dup3\n      add\n      swap2\n    tag_95:\n      pop\n      pop\n      pop\n      pop\n      pop\n      swap1\n      dup1\n      0x02\n      add\n      dup1\n      sload\n      tag_98\n      swap1\n      tag_59\n      jump\t// in\n    tag_98:\n      dup1\n      0x1f\n      add\n      0x20\n      dup1\n      swap2\n      div\n      mul\n      0x20\n      add\n      mload(0x40)\n      swap1\n      dup2\n      add\n      0x40\n      mstore\n      dup1\n      swap3\n      swap2\n      swap1\n      dup2\n      dup2\n      mstore\n      0x20\n      add\n      dup3\n      dup1\n      sload\n      tag_99\n      swap1\n      tag_59\n      jump\t// in\n    tag_99:\n      dup1\n      iszero\n      tag_100\n      jumpi\n      dup1\n      0x1f\n      lt\n      tag_101\n      jumpi\n      0x0100\n      dup1\n      dup4\n      sload\n      div\n      mul\n      dup4\n      mstore\n      swap2\n      0x20\n      add\n      swap2\n      jump(tag_100)\n    tag_101:\n      dup3\n      add\n      swap2\n      swap1\n      0x00\n      mstore\n      keccak256(0x00, 0x20)\n      swap1\n    tag_102:\n      dup2\n      sload\n      dup2\n      mstore\n      swap1\n      0x01\n      add\n      swap1\n      0x20\n      add\n      dup1\n      dup4\n      gt\n      tag_102\n      jumpi\n      dup3\n      swap1\n      sub\n      0x1f\n      and\n      dup3\n      add\n      swap2\n    tag_100:\n      pop\n      pop\n      pop\n      pop\n      pop\n      swap1\n      dup1\n      0x03\n      add\n      sload\n      swap1\n      dup1\n      0x04\n      add\n      sload\n      swap1\n      dup1\n      0x05\n      add\n      sload\n      swap1\n      dup1\n      0x06\n      add\n      dup1\n      sload\n      tag_103\n      swap1\n      tag_59\n      jump\t// in\n    tag_103:\n      dup1\n      0x1f\n      add\n      0x20\n      dup1\n      swap2\n      div\n      mul\n      0x20\n      add\n      mload(0x40)\n      swap1\n      dup2\n      add\n      0x40\n      mstore\n      dup1\n      swap3\n      swap2\n      swap1\n      dup2\n      dup2\n      mstore\n      0x20\n      add\n      dup3\n      dup1\n      sload\n      tag_104\n      swap1\n      tag_59\n      jump\t// in\n    tag_104:\n      dup1\n      iszero\n      tag_105\n      jumpi\n      dup1\n      0x1f\n      lt\n      tag_106\n      jumpi\n      0x0100\n      dup1\n      dup4\n      sload\n      div\n      mul\n      dup4\n      mstore\n      swap2\n      0x20\n      add\n      swap2\n      jump(tag_105)\n    tag_106:\n      dup3\n      add\n      swap2\n      swap1\n      0x00\n      mstore\n      keccak256(0x00, 0x20)\n      swap1\n    tag_107:\n      dup2\n      sload\n      dup2\n      mstore\n      swap1\n      0x01\n      add\n      swap1\n      0x20\n      add\n      dup1\n      dup4\n      gt\n      tag_107\n      jumpi\n      dup3\n      swap1\n      sub\n      0x1f\n      and\n      dup3\n      add\n      swap2\n    tag_105:\n      pop\n      pop\n      pop\n      pop\n      pop\n      swap1\n      pop\n      dup8\n      jump\t// out\n        /* \"contracts/SupplementTracker.sol\":3065:3693  function getSupplementSignatures(uint256 _supplementId)... */\n    tag_31:\n        /* \"contracts/SupplementTracker.sol\":3166:3194  SupplementSignature[] memory */\n      0x60\n        /* \"contracts/SupplementTracker.sol\":3234:3250  supplementsCount */\n      sload(0x03)\n        /* \"contracts/SupplementTracker.sol\":3218:3231  _supplementId */\n      dup3\n        /* \"contracts/SupplementTracker.sol\":3218:3250  _supplementId < supplementsCount */\n      lt\n        /* \"contracts/SupplementTracker.sol\":3210:3276  require(_supplementId < supplementsCount, \"Supplement not found.\") */\n      tag_109\n      jumpi\n      mload(0x40)\n      0x08c379a000000000000000000000000000000000000000000000000000000000\n      dup2\n      mstore\n      0x04\n      add\n      tag_110\n      swap1\n      tag_111\n      jump\t// in\n    tag_110:\n      mload(0x40)\n      dup1\n      swap2\n      sub\n      swap1\n      revert\n    tag_109:\n        /* \"contracts/SupplementTracker.sol\":3287:3329  SupplementSignature[] memory allSignatures */\n      0x00\n        /* \"contracts/SupplementTracker.sol\":3332:3353  supplementsSignatures */\n      0x01\n        /* \"contracts/SupplementTracker.sol\":3332:3390  supplementsSignatures[... */\n      0x00\n        /* \"contracts/SupplementTracker.sol\":3367:3380  _supplementId */\n      dup5\n        /* \"contracts/SupplementTracker.sol\":3332:3390  supplementsSignatures[... */\n      dup2\n      mstore\n      0x20\n      add\n      swap1\n      dup2\n      mstore\n      0x20\n      add\n      0x00\n      keccak256\n        /* \"contracts/SupplementTracker.sol\":3287:3390  SupplementSignature[] memory allSignatures = supplementsSignatures[... */\n      dup1\n      sload\n      dup1\n      0x20\n      mul\n      0x20\n      add\n      mload(0x40)\n      swap1\n      dup2\n      add\n      0x40\n      mstore\n      dup1\n      swap3\n      swap2\n      swap1\n      dup2\n      dup2\n      mstore\n      0x20\n      add\n      0x00\n      swap1\n    tag_112:\n      dup3\n      dup3\n      lt\n      iszero\n      tag_113\n      jumpi\n      dup4\n      dup3\n      swap1\n      0x00\n      mstore\n      keccak256(0x00, 0x20)\n      swap1\n      0x03\n      mul\n      add\n      mload(0x40)\n      dup1\n      0x60\n      add\n      0x40\n      mstore\n      swap1\n      dup2\n      0x00\n      dup3\n      add\n      0x00\n      swap1\n      sload\n      swap1\n      0x0100\n      exp\n      swap1\n      div\n      0xffffffffffffffffffffffffffffffffffffffff\n      and\n      0xffffffffffffffffffffffffffffffffffffffff\n      and\n      0xffffffffffffffffffffffffffffffffffffffff\n      and\n      dup2\n      mstore\n      0x20\n      add\n      0x01\n      dup3\n      add\n      sload\n      dup2\n      mstore\n      0x20\n      add\n      0x02\n      dup3\n      add\n      dup1\n      sload\n      tag_115\n      swap1\n      tag_59\n      jump\t// in\n    tag_115:\n      dup1\n      0x1f\n      add\n      0x20\n      dup1\n      swap2\n      div\n      mul\n      0x20\n      add\n      mload(0x40)\n      swap1\n      dup2\n      add\n      0x40\n      mstore\n      dup1\n      swap3\n      swap2\n      swap1\n      dup2\n      dup2\n      mstore\n      0x20\n      add\n      dup3\n      dup1\n      sload\n      tag_116\n      swap1\n      tag_59\n      jump\t// in\n    tag_116:\n      dup1\n      iszero\n      tag_117\n      jumpi\n      dup1\n      0x1f\n      lt\n      tag_118\n      jumpi\n      0x0100\n      dup1\n      dup4\n      sload\n      div\n      mul\n      dup4\n      mstore\n      swap2\n      0x20\n      add\n      swap2\n      jump(tag_117)\n    tag_118:\n      dup3\n      add\n      swap2\n      swap1\n      0x00\n      mstore\n      keccak256(0x00, 0x20)\n      swap1\n    tag_119:\n      dup2\n      sload\n      dup2\n      mstore\n      swap1\n      0x01\n      add\n      swap1\n      0x20\n      add\n      dup1\n      dup4\n      gt\n      tag_119\n      jumpi\n      dup3\n      swap1\n      sub\n      0x1f\n      and\n      dup3\n      add\n      swap2\n    tag_117:\n      pop\n      pop\n      pop\n      pop\n      pop\n      dup2\n      mstore\n      pop\n      pop\n      dup2\n      mstore\n      0x20\n      add\n      swap1\n      0x01\n      add\n      swap1\n      jump(tag_112)\n    tag_113:\n      pop\n      pop\n      pop\n      pop\n      swap1\n      pop\n        /* \"contracts/SupplementTracker.sol\":3400:3421  uint256 numSignatures */\n      0x00\n        /* \"contracts/SupplementTracker.sol\":3424:3437  allSignatures */\n      dup2\n        /* \"contracts/SupplementTracker.sol\":3424:3444  allSignatures.length */\n      mload\n        /* \"contracts/SupplementTracker.sol\":3400:3444  uint256 numSignatures = allSignatures.length */\n      swap1\n      pop\n        /* \"contracts/SupplementTracker.sol\":3455:3490  SupplementSignature[] memory result */\n      0x00\n        /* \"contracts/SupplementTracker.sol\":3532:3545  numSignatures */\n      dup2\n        /* \"contracts/SupplementTracker.sol\":3493:3555  new SupplementSignature[](... */\n      0xffffffffffffffff\n      dup2\n      gt\n      iszero\n      tag_120\n      jumpi\n      tag_121\n      tag_67\n      jump\t// in\n    tag_121:\n    tag_120:\n      mload(0x40)\n      swap1\n      dup1\n      dup3\n      mstore\n      dup1\n      0x20\n      mul\n      0x20\n      add\n      dup3\n      add\n      0x40\n      mstore\n      dup1\n      iszero\n      tag_122\n      jumpi\n      dup2\n      0x20\n      add\n    tag_123:\n      tag_124\n      tag_125\n      jump\t// in\n    tag_124:\n      dup2\n      mstore\n      0x20\n      add\n      swap1\n      0x01\n      swap1\n      sub\n      swap1\n      dup2\n      tag_123\n      jumpi\n      swap1\n      pop\n    tag_122:\n      pop\n        /* \"contracts/SupplementTracker.sol\":3455:3555  SupplementSignature[] memory result = new SupplementSignature[](... */\n      swap1\n      pop\n        /* \"contracts/SupplementTracker.sol\":3571:3580  uint256 i */\n      0x00\n        /* \"contracts/SupplementTracker.sol\":3566:3663  for (uint256 i = 0; i < numSignatures; i++) {... */\n    tag_126:\n        /* \"contracts/SupplementTracker.sol\":3590:3603  numSignatures */\n      dup3\n        /* \"contracts/SupplementTracker.sol\":3586:3587  i */\n      dup2\n        /* \"contracts/SupplementTracker.sol\":3586:3603  i < numSignatures */\n      lt\n        /* \"contracts/SupplementTracker.sol\":3566:3663  for (uint256 i = 0; i < numSignatures; i++) {... */\n      iszero\n      tag_127\n      jumpi\n        /* \"contracts/SupplementTracker.sol\":3636:3649  allSignatures */\n      dup4\n        /* \"contracts/SupplementTracker.sol\":3650:3651  i */\n      dup2\n        /* \"contracts/SupplementTracker.sol\":3636:3652  allSignatures[i] */\n      dup2\n      mload\n      dup2\n      lt\n      tag_129\n      jumpi\n      tag_130\n      tag_92\n      jump\t// in\n    tag_130:\n    tag_129:\n      0x20\n      mul\n      0x20\n      add\n      add\n      mload\n        /* \"contracts/SupplementTracker.sol\":3624:3630  result */\n      dup3\n        /* \"contracts/SupplementTracker.sol\":3631:3632  i */\n      dup3\n        /* \"contracts/SupplementTracker.sol\":3624:3633  result[i] */\n      dup2\n      mload\n      dup2\n      lt\n      tag_131\n      jumpi\n      tag_132\n      tag_92\n      jump\t// in\n    tag_132:\n    tag_131:\n      0x20\n      mul\n      0x20\n      add\n      add\n        /* \"contracts/SupplementTracker.sol\":3624:3652  result[i] = allSignatures[i] */\n      dup2\n      swap1\n      mstore\n      pop\n        /* \"contracts/SupplementTracker.sol\":3605:3608  i++ */\n      dup1\n      dup1\n      0x01\n      add\n      swap2\n      pop\n      pop\n        /* \"contracts/SupplementTracker.sol\":3566:3663  for (uint256 i = 0; i < numSignatures; i++) {... */\n      jump(tag_126)\n    tag_127:\n      pop\n        /* \"contracts/SupplementTracker.sol\":3680:3686  result */\n      dup1\n        /* \"contracts/SupplementTracker.sol\":3673:3686  return result */\n      swap4\n      pop\n      pop\n      pop\n      pop\n        /* \"contracts/SupplementTracker.sol\":3065:3693  function getSupplementSignatures(uint256 _supplementId)... */\n      swap2\n      swap1\n      pop\n      jump\t// out\n        /* \"contracts/SupplementTracker.sol\":562:631  mapping(uint256 => mapping(address => bool)) public authorizedSigners */\n    tag_37:\n      mstore(0x20, 0x02)\n      dup2\n      0x00\n      mstore\n      mstore(0x20, keccak256(0x00, 0x40))\n      dup1\n      0x00\n      mstore\n      keccak256(0x00, 0x40)\n      0x00\n      swap2\n      pop\n      swap2\n      pop\n      swap1\n      sload\n      swap1\n      0x0100\n      exp\n      swap1\n      div\n      0xff\n      and\n      dup2\n      jump\t// out\n        /* \"contracts/SupplementTracker.sol\":1119:1756  function signSupplement(... */\n    tag_43:\n        /* \"contracts/SupplementTracker.sol\":1284:1300  supplementsCount */\n      sload(0x03)\n        /* \"contracts/SupplementTracker.sol\":1268:1281  _supplementId */\n      dup4\n        /* \"contracts/SupplementTracker.sol\":1268:1300  _supplementId < supplementsCount */\n      lt\n        /* \"contracts/SupplementTracker.sol\":1260:1326  require(_supplementId < supplementsCount, \"Supplement not found.\") */\n      tag_134\n      jumpi\n      mload(0x40)\n      0x08c379a000000000000000000000000000000000000000000000000000000000\n      dup2\n      mstore\n      0x04\n      add\n      tag_135\n      swap1\n      tag_111\n      jump\t// in\n    tag_135:\n      mload(0x40)\n      dup1\n      swap2\n      sub\n      swap1\n      revert\n    tag_134:\n        /* \"contracts/SupplementTracker.sol\":1357:1396  isAuthorized(msg.sender, _supplementId) */\n      tag_136\n        /* \"contracts/SupplementTracker.sol\":1370:1380  msg.sender */\n      caller\n        /* \"contracts/SupplementTracker.sol\":1382:1395  _supplementId */\n      dup5\n        /* \"contracts/SupplementTracker.sol\":1357:1369  isAuthorized */\n      tag_137\n        /* \"contracts/SupplementTracker.sol\":1357:1396  isAuthorized(msg.sender, _supplementId) */\n      jump\t// in\n    tag_136:\n        /* \"contracts/SupplementTracker.sol\":1336:1470  require(... */\n      tag_138\n      jumpi\n      mload(0x40)\n      0x08c379a000000000000000000000000000000000000000000000000000000000\n      dup2\n      mstore\n      0x04\n      add\n      tag_139\n      swap1\n      tag_140\n      jump\t// in\n    tag_139:\n      mload(0x40)\n      dup1\n      swap2\n      sub\n      swap1\n      revert\n    tag_138:\n        /* \"contracts/SupplementTracker.sol\":1481:1521  SupplementSignature[] storage signatures */\n      0x00\n        /* \"contracts/SupplementTracker.sol\":1524:1545  supplementsSignatures */\n      0x01\n        /* \"contracts/SupplementTracker.sol\":1524:1582  supplementsSignatures[... */\n      0x00\n        /* \"contracts/SupplementTracker.sol\":1559:1572  _supplementId */\n      dup6\n        /* \"contracts/SupplementTracker.sol\":1524:1582  supplementsSignatures[... */\n      dup2\n      mstore\n      0x20\n      add\n      swap1\n      dup2\n      mstore\n      0x20\n      add\n      0x00\n      keccak256\n        /* \"contracts/SupplementTracker.sol\":1481:1582  SupplementSignature[] storage signatures = supplementsSignatures[... */\n      swap1\n      pop\n        /* \"contracts/SupplementTracker.sol\":1593:1603  signatures */\n      dup1\n        /* \"contracts/SupplementTracker.sol\":1622:1679  SupplementSignature(msg.sender, _messageHash, _signature) */\n      mload(0x40)\n      dup1\n      0x60\n      add\n      0x40\n      mstore\n      dup1\n        /* \"contracts/SupplementTracker.sol\":1642:1652  msg.sender */\n      caller\n        /* \"contracts/SupplementTracker.sol\":1622:1679  SupplementSignature(msg.sender, _messageHash, _signature) */\n      0xffffffffffffffffffffffffffffffffffffffff\n      and\n      dup2\n      mstore\n      0x20\n      add\n        /* \"contracts/SupplementTracker.sol\":1654:1666  _messageHash */\n      dup5\n        /* \"contracts/SupplementTracker.sol\":1622:1679  SupplementSignature(msg.sender, _messageHash, _signature) */\n      dup2\n      mstore\n      0x20\n      add\n        /* \"contracts/SupplementTracker.sol\":1668:1678  _signature */\n      dup6\n        /* \"contracts/SupplementTracker.sol\":1622:1679  SupplementSignature(msg.sender, _messageHash, _signature) */\n      dup2\n      mstore\n      pop\n        /* \"contracts/SupplementTracker.sol\":1593:1689  signatures.push(... */\n      swap1\n      dup1\n      0x01\n      dup2\n      sload\n      add\n      dup1\n      dup3\n      sstore\n      dup1\n      swap2\n      pop\n      pop\n      0x01\n      swap1\n      sub\n      swap1\n      0x00\n      mstore\n      keccak256(0x00, 0x20)\n      swap1\n      0x03\n      mul\n      add\n      0x00\n      swap1\n      swap2\n      swap1\n      swap2\n      swap1\n      swap2\n      pop\n      0x00\n      dup3\n      add\n      mload\n      dup2\n      0x00\n      add\n      exp(0x0100, 0x00)\n      dup2\n      sload\n      dup2\n      0xffffffffffffffffffffffffffffffffffffffff\n      mul\n      not\n      and\n      swap1\n      dup4\n      0xffffffffffffffffffffffffffffffffffffffff\n      and\n      mul\n      or\n      swap1\n      sstore\n      pop\n      0x20\n      dup3\n      add\n      mload\n      dup2\n      0x01\n      add\n      sstore\n      0x40\n      dup3\n      add\n      mload\n      dup2\n      0x02\n      add\n      swap1\n      dup2\n      tag_142\n      swap2\n      swap1\n      tag_143\n      jump\t// in\n    tag_142:\n      pop\n      pop\n      pop\n        /* \"contracts/SupplementTracker.sol\":1739:1749  signatures */\n      dup1\n        /* \"contracts/SupplementTracker.sol\":1700:1721  supplementsSignatures */\n      0x01\n        /* \"contracts/SupplementTracker.sol\":1700:1736  supplementsSignatures[_supplementId] */\n      0x00\n        /* \"contracts/SupplementTracker.sol\":1722:1735  _supplementId */\n      dup7\n        /* \"contracts/SupplementTracker.sol\":1700:1736  supplementsSignatures[_supplementId] */\n      dup2\n      mstore\n      0x20\n      add\n      swap1\n      dup2\n      mstore\n      0x20\n      add\n      0x00\n      keccak256\n        /* \"contracts/SupplementTracker.sol\":1700:1749  supplementsSignatures[_supplementId] = signatures */\n      swap1\n      dup1\n      sload\n      tag_144\n      swap3\n      swap2\n      swap1\n      tag_145\n      jump\t// in\n    tag_144:\n      pop\n        /* \"contracts/SupplementTracker.sol\":1250:1756  {... */\n      pop\n        /* \"contracts/SupplementTracker.sol\":1119:1756  function signSupplement(... */\n      pop\n      pop\n      pop\n      jump\t// out\n        /* \"contracts/SupplementTracker.sol\":638:673  uint256 public supplementsCount = 0 */\n    tag_45:\n      sload(0x03)\n      dup2\n      jump\t// out\n        /* \"contracts/SupplementTracker.sol\":680:1113  function setSignerAuthorization(... */\n    tag_51:\n        /* \"contracts/SupplementTracker.sol\":844:860  supplementsCount */\n      sload(0x03)\n        /* \"contracts/SupplementTracker.sol\":828:841  _supplementId */\n      dup4\n        /* \"contracts/SupplementTracker.sol\":828:860  _supplementId < supplementsCount */\n      lt\n        /* \"contracts/SupplementTracker.sol\":820:886  require(_supplementId < supplementsCount, \"Supplement not found.\") */\n      tag_147\n      jumpi\n      mload(0x40)\n      0x08c379a000000000000000000000000000000000000000000000000000000000\n      dup2\n      mstore\n      0x04\n      add\n      tag_148\n      swap1\n      tag_111\n      jump\t// in\n    tag_148:\n      mload(0x40)\n      dup1\n      swap2\n      sub\n      swap1\n      revert\n    tag_147:\n        /* \"contracts/SupplementTracker.sol\":931:942  supplements */\n      0x00\n        /* \"contracts/SupplementTracker.sol\":931:957  supplements[_supplementId] */\n      dup1\n        /* \"contracts/SupplementTracker.sol\":943:956  _supplementId */\n      dup5\n        /* \"contracts/SupplementTracker.sol\":931:957  supplements[_supplementId] */\n      dup2\n      mstore\n      0x20\n      add\n      swap1\n      dup2\n      mstore\n      0x20\n      add\n      0x00\n      keccak256\n        /* \"contracts/SupplementTracker.sol\":931:963  supplements[_supplementId].owner */\n      0x00\n      add\n      0x00\n      swap1\n      sload\n      swap1\n      0x0100\n      exp\n      swap1\n      div\n      0xffffffffffffffffffffffffffffffffffffffff\n      and\n        /* \"contracts/SupplementTracker.sol\":917:963  msg.sender == supplements[_supplementId].owner */\n      0xffffffffffffffffffffffffffffffffffffffff\n      and\n        /* \"contracts/SupplementTracker.sol\":917:927  msg.sender */\n      caller\n        /* \"contracts/SupplementTracker.sol\":917:963  msg.sender == supplements[_supplementId].owner */\n      0xffffffffffffffffffffffffffffffffffffffff\n      and\n      eq\n        /* \"contracts/SupplementTracker.sol\":896:1037  require(... */\n      tag_149\n      jumpi\n      mload(0x40)\n      0x08c379a000000000000000000000000000000000000000000000000000000000\n      dup2\n      mstore\n      0x04\n      add\n      tag_150\n      swap1\n      tag_151\n      jump\t// in\n    tag_150:\n      mload(0x40)\n      dup1\n      swap2\n      sub\n      swap1\n      revert\n    tag_149:\n        /* \"contracts/SupplementTracker.sol\":1092:1106  _authorization */\n      dup1\n        /* \"contracts/SupplementTracker.sol\":1048:1065  authorizedSigners */\n      0x02\n        /* \"contracts/SupplementTracker.sol\":1048:1080  authorizedSigners[_supplementId] */\n      0x00\n        /* \"contracts/SupplementTracker.sol\":1066:1079  _supplementId */\n      dup6\n        /* \"contracts/SupplementTracker.sol\":1048:1080  authorizedSigners[_supplementId] */\n      dup2\n      mstore\n      0x20\n      add\n      swap1\n      dup2\n      mstore\n      0x20\n      add\n      0x00\n      keccak256\n        /* \"contracts/SupplementTracker.sol\":1048:1089  authorizedSigners[_supplementId][_signer] */\n      0x00\n        /* \"contracts/SupplementTracker.sol\":1081:1088  _signer */\n      dup5\n        /* \"contracts/SupplementTracker.sol\":1048:1089  authorizedSigners[_supplementId][_signer] */\n      0xffffffffffffffffffffffffffffffffffffffff\n      and\n      0xffffffffffffffffffffffffffffffffffffffff\n      and\n      dup2\n      mstore\n      0x20\n      add\n      swap1\n      dup2\n      mstore\n      0x20\n      add\n      0x00\n      keccak256\n      0x00\n        /* \"contracts/SupplementTracker.sol\":1048:1106  authorizedSigners[_supplementId][_signer] = _authorization */\n      0x0100\n      exp\n      dup2\n      sload\n      dup2\n      0xff\n      mul\n      not\n      and\n      swap1\n      dup4\n      iszero\n      iszero\n      mul\n      or\n      swap1\n      sstore\n      pop\n        /* \"contracts/SupplementTracker.sol\":680:1113  function setSignerAuthorization(... */\n      pop\n      pop\n      pop\n      jump\t// out\n        /* \"contracts/SupplementTracker.sol\":1952:2717  function addSupplement(... */\n    tag_55:\n        /* \"contracts/SupplementTracker.sol\":2273:2454  SupplementInfo(... */\n      mload(0x40)\n      dup1\n      0xe0\n      add\n      0x40\n      mstore\n      dup1\n        /* \"contracts/SupplementTracker.sol\":2301:2311  msg.sender */\n      caller\n        /* \"contracts/SupplementTracker.sol\":2273:2454  SupplementInfo(... */\n      0xffffffffffffffffffffffffffffffffffffffff\n      and\n      dup2\n      mstore\n      0x20\n      add\n        /* \"contracts/SupplementTracker.sol\":2325:2330  _name */\n      dup10\n        /* \"contracts/SupplementTracker.sol\":2273:2454  SupplementInfo(... */\n      dup2\n      mstore\n      0x20\n      add\n        /* \"contracts/SupplementTracker.sol\":2344:2357  _manufacturer */\n      dup9\n        /* \"contracts/SupplementTracker.sol\":2273:2454  SupplementInfo(... */\n      dup2\n      mstore\n      0x20\n      add\n        /* \"contracts/SupplementTracker.sol\":2371:2380  _proteins */\n      dup8\n        /* \"contracts/SupplementTracker.sol\":2273:2454  SupplementInfo(... */\n      dup2\n      mstore\n      0x20\n      add\n        /* \"contracts/SupplementTracker.sol\":2394:2400  _carbs */\n      dup7\n        /* \"contracts/SupplementTracker.sol\":2273:2454  SupplementInfo(... */\n      dup2\n      mstore\n      0x20\n      add\n        /* \"contracts/SupplementTracker.sol\":2414:2419  _fats */\n      dup6\n        /* \"contracts/SupplementTracker.sol\":2273:2454  SupplementInfo(... */\n      dup2\n      mstore\n      0x20\n      add\n        /* \"contracts/SupplementTracker.sol\":2433:2444  _expiryDate */\n      dup5\n        /* \"contracts/SupplementTracker.sol\":2273:2454  SupplementInfo(... */\n      dup2\n      mstore\n      pop\n        /* \"contracts/SupplementTracker.sol\":2241:2252  supplements */\n      0x00\n        /* \"contracts/SupplementTracker.sol\":2241:2270  supplements[supplementsCount] */\n      dup1\n        /* \"contracts/SupplementTracker.sol\":2253:2269  supplementsCount */\n      sload(0x03)\n        /* \"contracts/SupplementTracker.sol\":2241:2270  supplements[supplementsCount] */\n      dup2\n      mstore\n      0x20\n      add\n      swap1\n      dup2\n      mstore\n      0x20\n      add\n      0x00\n      keccak256\n        /* \"contracts/SupplementTracker.sol\":2241:2454  supplements[supplementsCount] = SupplementInfo(... */\n      0x00\n      dup3\n      add\n      mload\n      dup2\n      0x00\n      add\n      exp(0x0100, 0x00)\n      dup2\n      sload\n      dup2\n      0xffffffffffffffffffffffffffffffffffffffff\n      mul\n      not\n      and\n      swap1\n      dup4\n      0xffffffffffffffffffffffffffffffffffffffff\n      and\n      mul\n      or\n      swap1\n      sstore\n      pop\n      0x20\n      dup3\n      add\n      mload\n      dup2\n      0x01\n      add\n      swap1\n      dup2\n      tag_153\n      swap2\n      swap1\n      tag_154\n      jump\t// in\n    tag_153:\n      pop\n      0x40\n      dup3\n      add\n      mload\n      dup2\n      0x02\n      add\n      swap1\n      dup2\n      tag_155\n      swap2\n      swap1\n      tag_154\n      jump\t// in\n    tag_155:\n      pop\n      0x60\n      dup3\n      add\n      mload\n      dup2\n      0x03\n      add\n      sstore\n      0x80\n      dup3\n      add\n      mload\n      dup2\n      0x04\n      add\n      sstore\n      0xa0\n      dup3\n      add\n      mload\n      dup2\n      0x05\n      add\n      sstore\n      0xc0\n      dup3\n      add\n      mload\n      dup2\n      0x06\n      add\n      swap1\n      dup2\n      tag_156\n      swap2\n      swap1\n      tag_154\n      jump\t// in\n    tag_156:\n      pop\n      swap1\n      pop\n      pop\n        /* \"contracts/SupplementTracker.sol\":2465:2505  SupplementSignature[] storage signatures */\n      0x00\n        /* \"contracts/SupplementTracker.sol\":2508:2529  supplementsSignatures */\n      0x01\n        /* \"contracts/SupplementTracker.sol\":2508:2569  supplementsSignatures[... */\n      0x00\n        /* \"contracts/SupplementTracker.sol\":2543:2559  supplementsCount */\n      sload(0x03)\n        /* \"contracts/SupplementTracker.sol\":2508:2569  supplementsSignatures[... */\n      dup2\n      mstore\n      0x20\n      add\n      swap1\n      dup2\n      mstore\n      0x20\n      add\n      0x00\n      keccak256\n        /* \"contracts/SupplementTracker.sol\":2465:2569  SupplementSignature[] storage signatures = supplementsSignatures[... */\n      swap1\n      pop\n        /* \"contracts/SupplementTracker.sol\":2580:2590  signatures */\n      dup1\n        /* \"contracts/SupplementTracker.sol\":2609:2671  SupplementSignature(msg.sender, _messageHash, _ownerSignature) */\n      mload(0x40)\n      dup1\n      0x60\n      add\n      0x40\n      mstore\n      dup1\n        /* \"contracts/SupplementTracker.sol\":2629:2639  msg.sender */\n      caller\n        /* \"contracts/SupplementTracker.sol\":2609:2671  SupplementSignature(msg.sender, _messageHash, _ownerSignature) */\n      0xffffffffffffffffffffffffffffffffffffffff\n      and\n      dup2\n      mstore\n      0x20\n      add\n        /* \"contracts/SupplementTracker.sol\":2641:2653  _messageHash */\n      dup5\n        /* \"contracts/SupplementTracker.sol\":2609:2671  SupplementSignature(msg.sender, _messageHash, _ownerSignature) */\n      dup2\n      mstore\n      0x20\n      add\n        /* \"contracts/SupplementTracker.sol\":2655:2670  _ownerSignature */\n      dup6\n        /* \"contracts/SupplementTracker.sol\":2609:2671  SupplementSignature(msg.sender, _messageHash, _ownerSignature) */\n      dup2\n      mstore\n      pop\n        /* \"contracts/SupplementTracker.sol\":2580:2681  signatures.push(... */\n      swap1\n      dup1\n      0x01\n      dup2\n      sload\n      add\n      dup1\n      dup3\n      sstore\n      dup1\n      swap2\n      pop\n      pop\n      0x01\n      swap1\n      sub\n      swap1\n      0x00\n      mstore\n      keccak256(0x00, 0x20)\n      swap1\n      0x03\n      mul\n      add\n      0x00\n      swap1\n      swap2\n      swap1\n      swap2\n      swap1\n      swap2\n      pop\n      0x00\n      dup3\n      add\n      mload\n      dup2\n      0x00\n      add\n      exp(0x0100, 0x00)\n      dup2\n      sload\n      dup2\n      0xffffffffffffffffffffffffffffffffffffffff\n      mul\n      not\n      and\n      swap1\n      dup4\n      0xffffffffffffffffffffffffffffffffffffffff\n      and\n      mul\n      or\n      swap1\n      sstore\n      pop\n      0x20\n      dup3\n      add\n      mload\n      dup2\n      0x01\n      add\n      sstore\n      0x40\n      dup3\n      add\n      mload\n      dup2\n      0x02\n      add\n      swap1\n      dup2\n      tag_158\n      swap2\n      swap1\n      tag_143\n      jump\t// in\n    tag_158:\n      pop\n      pop\n      pop\n        /* \"contracts/SupplementTracker.sol\":2692:2708  supplementsCount */\n      0x03\n      0x00\n        /* \"contracts/SupplementTracker.sol\":2692:2710  supplementsCount++ */\n      dup2\n      sload\n      dup1\n      swap3\n      swap2\n      swap1\n      tag_159\n      swap1\n      tag_160\n      jump\t// in\n    tag_159:\n      swap2\n      swap1\n      pop\n      sstore\n      pop\n        /* \"contracts/SupplementTracker.sol\":2231:2717  {... */\n      pop\n        /* \"contracts/SupplementTracker.sol\":1952:2717  function addSupplement(... */\n      pop\n      pop\n      pop\n      pop\n      pop\n      pop\n      pop\n      pop\n      jump\t// out\n        /* \"contracts/SupplementTracker.sol\":1762:1946  function isAuthorized(address _signer, uint256 _supplementId)... */\n    tag_137:\n        /* \"contracts/SupplementTracker.sol\":1871:1875  bool */\n      0x00\n        /* \"contracts/SupplementTracker.sol\":1898:1915  authorizedSigners */\n      0x02\n        /* \"contracts/SupplementTracker.sol\":1898:1930  authorizedSigners[_supplementId] */\n      0x00\n        /* \"contracts/SupplementTracker.sol\":1916:1929  _supplementId */\n      dup4\n        /* \"contracts/SupplementTracker.sol\":1898:1930  authorizedSigners[_supplementId] */\n      dup2\n      mstore\n      0x20\n      add\n      swap1\n      dup2\n      mstore\n      0x20\n      add\n      0x00\n      keccak256\n        /* \"contracts/SupplementTracker.sol\":1898:1939  authorizedSigners[_supplementId][_signer] */\n      0x00\n        /* \"contracts/SupplementTracker.sol\":1931:1938  _signer */\n      dup5\n        /* \"contracts/SupplementTracker.sol\":1898:1939  authorizedSigners[_supplementId][_signer] */\n      0xffffffffffffffffffffffffffffffffffffffff\n      and\n      0xffffffffffffffffffffffffffffffffffffffff\n      and\n      dup2\n      mstore\n      0x20\n      add\n      swap1\n      dup2\n      mstore\n      0x20\n      add\n      0x00\n      keccak256\n      0x00\n      swap1\n      sload\n      swap1\n      0x0100\n      exp\n      swap1\n      div\n      0xff\n      and\n        /* \"contracts/SupplementTracker.sol\":1891:1939  return authorizedSigners[_supplementId][_signer] */\n      swap1\n      pop\n        /* \"contracts/SupplementTracker.sol\":1762:1946  function isAuthorized(address _signer, uint256 _supplementId)... */\n      swap3\n      swap2\n      pop\n      pop\n      jump\t// out\n    tag_71:\n      mload(0x40)\n      dup1\n      0xe0\n      add\n      0x40\n      mstore\n      dup1\n      and(0xffffffffffffffffffffffffffffffffffffffff, 0x00)\n      dup2\n      mstore\n      0x20\n      add\n      0x60\n      dup2\n      mstore\n      0x20\n      add\n      0x60\n      dup2\n      mstore\n      0x20\n      add\n      0x00\n      dup2\n      mstore\n      0x20\n      add\n      0x00\n      dup2\n      mstore\n      0x20\n      add\n      0x00\n      dup2\n      mstore\n      0x20\n      add\n      0x60\n      dup2\n      mstore\n      pop\n      swap1\n      jump\t// out\n    tag_125:\n      mload(0x40)\n      dup1\n      0x60\n      add\n      0x40\n      mstore\n      dup1\n      and(0xffffffffffffffffffffffffffffffffffffffff, 0x00)\n      dup2\n      mstore\n      0x20\n      add\n      0x00\n      dup1\n      not\n      and\n      dup2\n      mstore\n      0x20\n      add\n      0x60\n      dup2\n      mstore\n      pop\n      swap1\n      jump\t// out\n    tag_145:\n      dup3\n      dup1\n      sload\n      dup3\n      dup3\n      sstore\n      swap1\n      0x00\n      mstore\n      keccak256(0x00, 0x20)\n      swap1\n      0x03\n      mul\n      dup2\n      add\n      swap3\n      dup3\n      iszero\n      tag_162\n      jumpi\n      0x00\n      mstore\n      keccak256(0x00, 0x20)\n      swap2\n      0x03\n      mul\n      dup3\n      add\n    tag_163:\n      dup3\n      dup2\n      gt\n      iszero\n      tag_164\n      jumpi\n      dup3\n      dup3\n      0x00\n      dup3\n      add\n      0x00\n      swap1\n      sload\n      swap1\n      0x0100\n      exp\n      swap1\n      div\n      0xffffffffffffffffffffffffffffffffffffffff\n      and\n      dup2\n      0x00\n      add\n      exp(0x0100, 0x00)\n      dup2\n      sload\n      dup2\n      0xffffffffffffffffffffffffffffffffffffffff\n      mul\n      not\n      and\n      swap1\n      dup4\n      0xffffffffffffffffffffffffffffffffffffffff\n      and\n      mul\n      or\n      swap1\n      sstore\n      pop\n      0x01\n      dup3\n      add\n      sload\n      dup2\n      0x01\n      add\n      sstore\n      0x02\n      dup3\n      add\n      dup2\n      0x02\n      add\n      swap1\n      dup2\n      tag_165\n      swap2\n      swap1\n      tag_166\n      jump\t// in\n    tag_165:\n      pop\n      pop\n      pop\n      swap2\n      0x03\n      add\n      swap2\n      swap1\n      0x03\n      add\n      swap1\n      jump(tag_163)\n    tag_164:\n    tag_162:\n      pop\n      swap1\n      pop\n      tag_167\n      swap2\n      swap1\n      tag_168\n      jump\t// in\n    tag_167:\n      pop\n      swap1\n      jump\t// out\n    tag_168:\n    tag_169:\n      dup1\n      dup3\n      gt\n      iszero\n      tag_170\n      jumpi\n      0x00\n      dup1\n      dup3\n      add\n      exp(0x0100, 0x00)\n      dup2\n      sload\n      swap1\n      0xffffffffffffffffffffffffffffffffffffffff\n      mul\n      not\n      and\n      swap1\n      sstore\n      0x01\n      dup3\n      add\n      0x00\n      swap1\n      sstore\n      0x02\n      dup3\n      add\n      0x00\n      tag_171\n      swap2\n      swap1\n      tag_172\n      jump\t// in\n    tag_171:\n      pop\n      0x03\n      add\n      jump(tag_169)\n    tag_170:\n      pop\n      swap1\n      jump\t// out\n    tag_172:\n      pop\n      dup1\n      sload\n      tag_173\n      swap1\n      tag_59\n      jump\t// in\n    tag_173:\n      0x00\n      dup3\n      sstore\n      dup1\n      0x1f\n      lt\n      tag_175\n      jumpi\n      pop\n      jump(tag_174)\n    tag_175:\n      0x1f\n      add\n      0x20\n      swap1\n      div\n      swap1\n      0x00\n      mstore\n      keccak256(0x00, 0x20)\n      swap1\n      dup2\n      add\n      swap1\n      tag_176\n      swap2\n      swap1\n      tag_177\n      jump\t// in\n    tag_176:\n    tag_174:\n      pop\n      jump\t// out\n    tag_177:\n    tag_178:\n      dup1\n      dup3\n      gt\n      iszero\n      tag_179\n      jumpi\n      0x00\n      dup2\n      0x00\n      swap1\n      sstore\n      pop\n      0x01\n      add\n      jump(tag_178)\n    tag_179:\n      pop\n      swap1\n      jump\t// out\n        /* \"#utility.yul\":7:82   */\n    tag_180:\n        /* \"#utility.yul\":40:46   */\n      0x00\n        /* \"#utility.yul\":73:75   */\n      0x40\n        /* \"#utility.yul\":67:76   */\n      mload\n        /* \"#utility.yul\":57:76   */\n      swap1\n      pop\n        /* \"#utility.yul\":7:82   */\n      swap1\n      jump\t// out\n        /* \"#utility.yul\":88:205   */\n    tag_181:\n        /* \"#utility.yul\":197:198   */\n      0x00\n        /* \"#utility.yul\":194:195   */\n      dup1\n        /* \"#utility.yul\":187:199   */\n      revert\n        /* \"#utility.yul\":211:328   */\n    tag_182:\n        /* \"#utility.yul\":320:321   */\n      0x00\n        /* \"#utility.yul\":317:318   */\n      dup1\n        /* \"#utility.yul\":310:322   */\n      revert\n        /* \"#utility.yul\":334:411   */\n    tag_183:\n        /* \"#utility.yul\":371:378   */\n      0x00\n        /* \"#utility.yul\":400:405   */\n      dup2\n        /* \"#utility.yul\":389:405   */\n      swap1\n      pop\n        /* \"#utility.yul\":334:411   */\n      swap2\n      swap1\n      pop\n      jump\t// out\n        /* \"#utility.yul\":417:539   */\n    tag_184:\n        /* \"#utility.yul\":490:514   */\n      tag_272\n        /* \"#utility.yul\":508:513   */\n      dup2\n        /* \"#utility.yul\":490:514   */\n      tag_183\n      jump\t// in\n    tag_272:\n        /* \"#utility.yul\":483:488   */\n      dup2\n        /* \"#utility.yul\":480:515   */\n      eq\n        /* \"#utility.yul\":470:533   */\n      tag_273\n      jumpi\n        /* \"#utility.yul\":529:530   */\n      0x00\n        /* \"#utility.yul\":526:527   */\n      dup1\n        /* \"#utility.yul\":519:531   */\n      revert\n        /* \"#utility.yul\":470:533   */\n    tag_273:\n        /* \"#utility.yul\":417:539   */\n      pop\n      jump\t// out\n        /* \"#utility.yul\":545:684   */\n    tag_185:\n        /* \"#utility.yul\":591:596   */\n      0x00\n        /* \"#utility.yul\":629:635   */\n      dup2\n        /* \"#utility.yul\":616:636   */\n      calldataload\n        /* \"#utility.yul\":607:636   */\n      swap1\n      pop\n        /* \"#utility.yul\":645:678   */\n      tag_275\n        /* \"#utility.yul\":672:677   */\n      dup2\n        /* \"#utility.yul\":645:678   */\n      tag_184\n      jump\t// in\n    tag_275:\n        /* \"#utility.yul\":545:684   */\n      swap3\n      swap2\n      pop\n      pop\n      jump\t// out\n        /* \"#utility.yul\":690:1164   */\n    tag_15:\n        /* \"#utility.yul\":758:764   */\n      0x00\n        /* \"#utility.yul\":766:772   */\n      dup1\n        /* \"#utility.yul\":815:817   */\n      0x40\n        /* \"#utility.yul\":803:812   */\n      dup4\n        /* \"#utility.yul\":794:801   */\n      dup6\n        /* \"#utility.yul\":790:813   */\n      sub\n        /* \"#utility.yul\":786:818   */\n      slt\n        /* \"#utility.yul\":783:902   */\n      iszero\n      tag_277\n      jumpi\n        /* \"#utility.yul\":821:900   */\n      tag_278\n      tag_181\n      jump\t// in\n    tag_278:\n        /* \"#utility.yul\":783:902   */\n    tag_277:\n        /* \"#utility.yul\":941:942   */\n      0x00\n        /* \"#utility.yul\":966:1019   */\n      tag_279\n        /* \"#utility.yul\":1011:1018   */\n      dup6\n        /* \"#utility.yul\":1002:1008   */\n      dup3\n        /* \"#utility.yul\":991:1000   */\n      dup7\n        /* \"#utility.yul\":987:1009   */\n      add\n        /* \"#utility.yul\":966:1019   */\n      tag_185\n      jump\t// in\n    tag_279:\n        /* \"#utility.yul\":956:1019   */\n      swap3\n      pop\n        /* \"#utility.yul\":912:1029   */\n      pop\n        /* \"#utility.yul\":1068:1070   */\n      0x20\n        /* \"#utility.yul\":1094:1147   */\n      tag_280\n        /* \"#utility.yul\":1139:1146   */\n      dup6\n        /* \"#utility.yul\":1130:1136   */\n      dup3\n        /* \"#utility.yul\":1119:1128   */\n      dup7\n        /* \"#utility.yul\":1115:1137   */\n      add\n        /* \"#utility.yul\":1094:1147   */\n      tag_185\n      jump\t// in\n    tag_280:\n        /* \"#utility.yul\":1084:1147   */\n      swap2\n      pop\n        /* \"#utility.yul\":1039:1157   */\n      pop\n        /* \"#utility.yul\":690:1164   */\n      swap3\n      pop\n      swap3\n      swap1\n      pop\n      jump\t// out\n        /* \"#utility.yul\":1170:1296   */\n    tag_186:\n        /* \"#utility.yul\":1207:1214   */\n      0x00\n        /* \"#utility.yul\":1247:1289   */\n      0xffffffffffffffffffffffffffffffffffffffff\n        /* \"#utility.yul\":1240:1245   */\n      dup3\n        /* \"#utility.yul\":1236:1290   */\n      and\n        /* \"#utility.yul\":1225:1290   */\n      swap1\n      pop\n        /* \"#utility.yul\":1170:1296   */\n      swap2\n      swap1\n      pop\n      jump\t// out\n        /* \"#utility.yul\":1302:1398   */\n    tag_187:\n        /* \"#utility.yul\":1339:1346   */\n      0x00\n        /* \"#utility.yul\":1368:1392   */\n      tag_283\n        /* \"#utility.yul\":1386:1391   */\n      dup3\n        /* \"#utility.yul\":1368:1392   */\n      tag_186\n      jump\t// in\n    tag_283:\n        /* \"#utility.yul\":1357:1392   */\n      swap1\n      pop\n        /* \"#utility.yul\":1302:1398   */\n      swap2\n      swap1\n      pop\n      jump\t// out\n        /* \"#utility.yul\":1404:1522   */\n    tag_188:\n        /* \"#utility.yul\":1491:1515   */\n      tag_285\n        /* \"#utility.yul\":1509:1514   */\n      dup2\n        /* \"#utility.yul\":1491:1515   */\n      tag_187\n      jump\t// in\n    tag_285:\n        /* \"#utility.yul\":1486:1489   */\n      dup3\n        /* \"#utility.yul\":1479:1516   */\n      mstore\n        /* \"#utility.yul\":1404:1522   */\n      pop\n      pop\n      jump\t// out\n        /* \"#utility.yul\":1528:1605   */\n    tag_189:\n        /* \"#utility.yul\":1565:1572   */\n      0x00\n        /* \"#utility.yul\":1594:1599   */\n      dup2\n        /* \"#utility.yul\":1583:1599   */\n      swap1\n      pop\n        /* \"#utility.yul\":1528:1605   */\n      swap2\n      swap1\n      pop\n      jump\t// out\n        /* \"#utility.yul\":1611:1729   */\n    tag_190:\n        /* \"#utility.yul\":1698:1722   */\n      tag_288\n        /* \"#utility.yul\":1716:1721   */\n      dup2\n        /* \"#utility.yul\":1698:1722   */\n      tag_189\n      jump\t// in\n    tag_288:\n        /* \"#utility.yul\":1693:1696   */\n      dup3\n        /* \"#utility.yul\":1686:1723   */\n      mstore\n        /* \"#utility.yul\":1611:1729   */\n      pop\n      pop\n      jump\t// out\n        /* \"#utility.yul\":1735:1833   */\n    tag_191:\n        /* \"#utility.yul\":1786:1792   */\n      0x00\n        /* \"#utility.yul\":1820:1825   */\n      dup2\n        /* \"#utility.yul\":1814:1826   */\n      mload\n        /* \"#utility.yul\":1804:1826   */\n      swap1\n      pop\n        /* \"#utility.yul\":1735:1833   */\n      swap2\n      swap1\n      pop\n      jump\t// out\n        /* \"#utility.yul\":1839:2007   */\n    tag_192:\n        /* \"#utility.yul\":1922:1933   */\n      0x00\n        /* \"#utility.yul\":1956:1962   */\n      dup3\n        /* \"#utility.yul\":1951:1954   */\n      dup3\n        /* \"#utility.yul\":1944:1963   */\n      mstore\n        /* \"#utility.yul\":1996:2000   */\n      0x20\n        /* \"#utility.yul\":1991:1994   */\n      dup3\n        /* \"#utility.yul\":1987:2001   */\n      add\n        /* \"#utility.yul\":1972:2001   */\n      swap1\n      pop\n        /* \"#utility.yul\":1839:2007   */\n      swap3\n      swap2\n      pop\n      pop\n      jump\t// out\n        /* \"#utility.yul\":2013:2259   */\n    tag_193:\n        /* \"#utility.yul\":2094:2095   */\n      0x00\n        /* \"#utility.yul\":2104:2217   */\n    tag_292:\n        /* \"#utility.yul\":2118:2124   */\n      dup4\n        /* \"#utility.yul\":2115:2116   */\n      dup2\n        /* \"#utility.yul\":2112:2125   */\n      lt\n        /* \"#utility.yul\":2104:2217   */\n      iszero\n      tag_294\n      jumpi\n        /* \"#utility.yul\":2203:2204   */\n      dup1\n        /* \"#utility.yul\":2198:2201   */\n      dup3\n        /* \"#utility.yul\":2194:2205   */\n      add\n        /* \"#utility.yul\":2188:2206   */\n      mload\n        /* \"#utility.yul\":2184:2185   */\n      dup2\n        /* \"#utility.yul\":2179:2182   */\n      dup5\n        /* \"#utility.yul\":2175:2186   */\n      add\n        /* \"#utility.yul\":2168:2207   */\n      mstore\n        /* \"#utility.yul\":2140:2142   */\n      0x20\n        /* \"#utility.yul\":2137:2138   */\n      dup2\n        /* \"#utility.yul\":2133:2143   */\n      add\n        /* \"#utility.yul\":2128:2143   */\n      swap1\n      pop\n        /* \"#utility.yul\":2104:2217   */\n      jump(tag_292)\n    tag_294:\n        /* \"#utility.yul\":2251:2252   */\n      0x00\n        /* \"#utility.yul\":2242:2248   */\n      dup5\n        /* \"#utility.yul\":2237:2240   */\n      dup5\n        /* \"#utility.yul\":2233:2249   */\n      add\n        /* \"#utility.yul\":2226:2253   */\n      mstore\n        /* \"#utility.yul\":2075:2259   */\n      pop\n        /* \"#utility.yul\":2013:2259   */\n      pop\n      pop\n      pop\n      jump\t// out\n        /* \"#utility.yul\":2265:2367   */\n    tag_194:\n        /* \"#utility.yul\":2306:2312   */\n      0x00\n        /* \"#utility.yul\":2357:2359   */\n      0x1f\n        /* \"#utility.yul\":2353:2360   */\n      not\n        /* \"#utility.yul\":2348:2350   */\n      0x1f\n        /* \"#utility.yul\":2341:2346   */\n      dup4\n        /* \"#utility.yul\":2337:2351   */\n      add\n        /* \"#utility.yul\":2333:2361   */\n      and\n        /* \"#utility.yul\":2323:2361   */\n      swap1\n      pop\n        /* \"#utility.yul\":2265:2367   */\n      swap2\n      swap1\n      pop\n      jump\t// out\n        /* \"#utility.yul\":2373:2746   */\n    tag_195:\n        /* \"#utility.yul\":2459:2462   */\n      0x00\n        /* \"#utility.yul\":2487:2525   */\n      tag_297\n        /* \"#utility.yul\":2519:2524   */\n      dup3\n        /* \"#utility.yul\":2487:2525   */\n      tag_191\n      jump\t// in\n    tag_297:\n        /* \"#utility.yul\":2541:2611   */\n      tag_298\n        /* \"#utility.yul\":2604:2610   */\n      dup2\n        /* \"#utility.yul\":2599:2602   */\n      dup6\n        /* \"#utility.yul\":2541:2611   */\n      tag_192\n      jump\t// in\n    tag_298:\n        /* \"#utility.yul\":2534:2611   */\n      swap4\n      pop\n        /* \"#utility.yul\":2620:2685   */\n      tag_299\n        /* \"#utility.yul\":2678:2684   */\n      dup2\n        /* \"#utility.yul\":2673:2676   */\n      dup6\n        /* \"#utility.yul\":2666:2670   */\n      0x20\n        /* \"#utility.yul\":2659:2664   */\n      dup7\n        /* \"#utility.yul\":2655:2671   */\n      add\n        /* \"#utility.yul\":2620:2685   */\n      tag_193\n      jump\t// in\n    tag_299:\n        /* \"#utility.yul\":2710:2739   */\n      tag_300\n        /* \"#utility.yul\":2732:2738   */\n      dup2\n        /* \"#utility.yul\":2710:2739   */\n      tag_194\n      jump\t// in\n    tag_300:\n        /* \"#utility.yul\":2705:2708   */\n      dup5\n        /* \"#utility.yul\":2701:2740   */\n      add\n        /* \"#utility.yul\":2694:2740   */\n      swap2\n      pop\n        /* \"#utility.yul\":2463:2746   */\n      pop\n        /* \"#utility.yul\":2373:2746   */\n      swap3\n      swap2\n      pop\n      pop\n      jump\t// out\n        /* \"#utility.yul\":2752:3281   */\n    tag_18:\n        /* \"#utility.yul\":2919:2923   */\n      0x00\n        /* \"#utility.yul\":2957:2959   */\n      0x60\n        /* \"#utility.yul\":2946:2955   */\n      dup3\n        /* \"#utility.yul\":2942:2960   */\n      add\n        /* \"#utility.yul\":2934:2960   */\n      swap1\n      pop\n        /* \"#utility.yul\":2970:3041   */\n      tag_302\n        /* \"#utility.yul\":3038:3039   */\n      0x00\n        /* \"#utility.yul\":3027:3036   */\n      dup4\n        /* \"#utility.yul\":3023:3040   */\n      add\n        /* \"#utility.yul\":3014:3020   */\n      dup7\n        /* \"#utility.yul\":2970:3041   */\n      tag_188\n      jump\t// in\n    tag_302:\n        /* \"#utility.yul\":3051:3123   */\n      tag_303\n        /* \"#utility.yul\":3119:3121   */\n      0x20\n        /* \"#utility.yul\":3108:3117   */\n      dup4\n        /* \"#utility.yul\":3104:3122   */\n      add\n        /* \"#utility.yul\":3095:3101   */\n      dup6\n        /* \"#utility.yul\":3051:3123   */\n      tag_190\n      jump\t// in\n    tag_303:\n        /* \"#utility.yul\":3170:3179   */\n      dup2\n        /* \"#utility.yul\":3164:3168   */\n      dup2\n        /* \"#utility.yul\":3160:3180   */\n      sub\n        /* \"#utility.yul\":3155:3157   */\n      0x40\n        /* \"#utility.yul\":3144:3153   */\n      dup4\n        /* \"#utility.yul\":3140:3158   */\n      add\n        /* \"#utility.yul\":3133:3181   */\n      mstore\n        /* \"#utility.yul\":3198:3274   */\n      tag_304\n        /* \"#utility.yul\":3269:3273   */\n      dup2\n        /* \"#utility.yul\":3260:3266   */\n      dup5\n        /* \"#utility.yul\":3198:3274   */\n      tag_195\n      jump\t// in\n    tag_304:\n        /* \"#utility.yul\":3190:3274   */\n      swap1\n      pop\n        /* \"#utility.yul\":2752:3281   */\n      swap5\n      swap4\n      pop\n      pop\n      pop\n      pop\n      jump\t// out\n        /* \"#utility.yul\":3287:3431   */\n    tag_196:\n        /* \"#utility.yul\":3384:3390   */\n      0x00\n        /* \"#utility.yul\":3418:3423   */\n      dup2\n        /* \"#utility.yul\":3412:3424   */\n      mload\n        /* \"#utility.yul\":3402:3424   */\n      swap1\n      pop\n        /* \"#utility.yul\":3287:3431   */\n      swap2\n      swap1\n      pop\n      jump\t// out\n        /* \"#utility.yul\":3437:3651   */\n    tag_197:\n        /* \"#utility.yul\":3566:3577   */\n      0x00\n        /* \"#utility.yul\":3600:3606   */\n      dup3\n        /* \"#utility.yul\":3595:3598   */\n      dup3\n        /* \"#utility.yul\":3588:3607   */\n      mstore\n        /* \"#utility.yul\":3640:3644   */\n      0x20\n        /* \"#utility.yul\":3635:3638   */\n      dup3\n        /* \"#utility.yul\":3631:3645   */\n      add\n        /* \"#utility.yul\":3616:3645   */\n      swap1\n      pop\n        /* \"#utility.yul\":3437:3651   */\n      swap3\n      swap2\n      pop\n      pop\n      jump\t// out\n        /* \"#utility.yul\":3657:3819   */\n    tag_198:\n        /* \"#utility.yul\":3754:3758   */\n      0x00\n        /* \"#utility.yul\":3777:3780   */\n      dup2\n        /* \"#utility.yul\":3769:3780   */\n      swap1\n      pop\n        /* \"#utility.yul\":3807:3811   */\n      0x20\n        /* \"#utility.yul\":3802:3805   */\n      dup3\n        /* \"#utility.yul\":3798:3812   */\n      add\n        /* \"#utility.yul\":3790:3812   */\n      swap1\n      pop\n        /* \"#utility.yul\":3657:3819   */\n      swap2\n      swap1\n      pop\n      jump\t// out\n        /* \"#utility.yul\":3825:3933   */\n    tag_199:\n        /* \"#utility.yul\":3902:3926   */\n      tag_309\n        /* \"#utility.yul\":3920:3925   */\n      dup2\n        /* \"#utility.yul\":3902:3926   */\n      tag_187\n      jump\t// in\n    tag_309:\n        /* \"#utility.yul\":3897:3900   */\n      dup3\n        /* \"#utility.yul\":3890:3927   */\n      mstore\n        /* \"#utility.yul\":3825:3933   */\n      pop\n      pop\n      jump\t// out\n        /* \"#utility.yul\":3939:4038   */\n    tag_200:\n        /* \"#utility.yul\":3991:3997   */\n      0x00\n        /* \"#utility.yul\":4025:4030   */\n      dup2\n        /* \"#utility.yul\":4019:4031   */\n      mload\n        /* \"#utility.yul\":4009:4031   */\n      swap1\n      pop\n        /* \"#utility.yul\":3939:4038   */\n      swap2\n      swap1\n      pop\n      jump\t// out\n        /* \"#utility.yul\":4044:4203   */\n    tag_201:\n        /* \"#utility.yul\":4118:4129   */\n      0x00\n        /* \"#utility.yul\":4152:4158   */\n      dup3\n        /* \"#utility.yul\":4147:4150   */\n      dup3\n        /* \"#utility.yul\":4140:4159   */\n      mstore\n        /* \"#utility.yul\":4192:4196   */\n      0x20\n        /* \"#utility.yul\":4187:4190   */\n      dup3\n        /* \"#utility.yul\":4183:4197   */\n      add\n        /* \"#utility.yul\":4168:4197   */\n      swap1\n      pop\n        /* \"#utility.yul\":4044:4203   */\n      swap3\n      swap2\n      pop\n      pop\n      jump\t// out\n        /* \"#utility.yul\":4209:4566   */\n    tag_202:\n        /* \"#utility.yul\":4287:4290   */\n      0x00\n        /* \"#utility.yul\":4315:4354   */\n      tag_313\n        /* \"#utility.yul\":4348:4353   */\n      dup3\n        /* \"#utility.yul\":4315:4354   */\n      tag_200\n      jump\t// in\n    tag_313:\n        /* \"#utility.yul\":4370:4431   */\n      tag_314\n        /* \"#utility.yul\":4424:4430   */\n      dup2\n        /* \"#utility.yul\":4419:4422   */\n      dup6\n        /* \"#utility.yul\":4370:4431   */\n      tag_201\n      jump\t// in\n    tag_314:\n        /* \"#utility.yul\":4363:4431   */\n      swap4\n      pop\n        /* \"#utility.yul\":4440:4505   */\n      tag_315\n        /* \"#utility.yul\":4498:4504   */\n      dup2\n        /* \"#utility.yul\":4493:4496   */\n      dup6\n        /* \"#utility.yul\":4486:4490   */\n      0x20\n        /* \"#utility.yul\":4479:4484   */\n      dup7\n        /* \"#utility.yul\":4475:4491   */\n      add\n        /* \"#utility.yul\":4440:4505   */\n      tag_193\n      jump\t// in\n    tag_315:\n        /* \"#utility.yul\":4530:4559   */\n      tag_316\n        /* \"#utility.yul\":4552:4558   */\n      dup2\n        /* \"#utility.yul\":4530:4559   */\n      tag_194\n      jump\t// in\n    tag_316:\n        /* \"#utility.yul\":4525:4528   */\n      dup5\n        /* \"#utility.yul\":4521:4560   */\n      add\n        /* \"#utility.yul\":4514:4560   */\n      swap2\n      pop\n        /* \"#utility.yul\":4291:4566   */\n      pop\n        /* \"#utility.yul\":4209:4566   */\n      swap3\n      swap2\n      pop\n      pop\n      jump\t// out\n        /* \"#utility.yul\":4572:4680   */\n    tag_203:\n        /* \"#utility.yul\":4649:4673   */\n      tag_318\n        /* \"#utility.yul\":4667:4672   */\n      dup2\n        /* \"#utility.yul\":4649:4673   */\n      tag_183\n      jump\t// in\n    tag_318:\n        /* \"#utility.yul\":4644:4647   */\n      dup3\n        /* \"#utility.yul\":4637:4674   */\n      mstore\n        /* \"#utility.yul\":4572:4680   */\n      pop\n      pop\n      jump\t// out\n        /* \"#utility.yul\":4776:6414   */\n    tag_204:\n        /* \"#utility.yul\":4895:4898   */\n      0x00\n        /* \"#utility.yul\":4931:4935   */\n      0xe0\n        /* \"#utility.yul\":4926:4929   */\n      dup4\n        /* \"#utility.yul\":4922:4936   */\n      add\n        /* \"#utility.yul\":5019:5023   */\n      0x00\n        /* \"#utility.yul\":5012:5017   */\n      dup4\n        /* \"#utility.yul\":5008:5024   */\n      add\n        /* \"#utility.yul\":5002:5025   */\n      mload\n        /* \"#utility.yul\":5038:5101   */\n      tag_320\n        /* \"#utility.yul\":5095:5099   */\n      0x00\n        /* \"#utility.yul\":5090:5093   */\n      dup7\n        /* \"#utility.yul\":5086:5100   */\n      add\n        /* \"#utility.yul\":5072:5084   */\n      dup3\n        /* \"#utility.yul\":5038:5101   */\n      tag_199\n      jump\t// in\n    tag_320:\n        /* \"#utility.yul\":4946:5111   */\n      pop\n        /* \"#utility.yul\":5193:5197   */\n      0x20\n        /* \"#utility.yul\":5186:5191   */\n      dup4\n        /* \"#utility.yul\":5182:5198   */\n      add\n        /* \"#utility.yul\":5176:5199   */\n      mload\n        /* \"#utility.yul\":5246:5249   */\n      dup5\n        /* \"#utility.yul\":5240:5244   */\n      dup3\n        /* \"#utility.yul\":5236:5250   */\n      sub\n        /* \"#utility.yul\":5229:5233   */\n      0x20\n        /* \"#utility.yul\":5224:5227   */\n      dup7\n        /* \"#utility.yul\":5220:5234   */\n      add\n        /* \"#utility.yul\":5213:5251   */\n      mstore\n        /* \"#utility.yul\":5272:5345   */\n      tag_321\n        /* \"#utility.yul\":5340:5344   */\n      dup3\n        /* \"#utility.yul\":5326:5338   */\n      dup3\n        /* \"#utility.yul\":5272:5345   */\n      tag_202\n      jump\t// in\n    tag_321:\n        /* \"#utility.yul\":5264:5345   */\n      swap2\n      pop\n        /* \"#utility.yul\":5121:5356   */\n      pop\n        /* \"#utility.yul\":5446:5450   */\n      0x40\n        /* \"#utility.yul\":5439:5444   */\n      dup4\n        /* \"#utility.yul\":5435:5451   */\n      add\n        /* \"#utility.yul\":5429:5452   */\n      mload\n        /* \"#utility.yul\":5499:5502   */\n      dup5\n        /* \"#utility.yul\":5493:5497   */\n      dup3\n        /* \"#utility.yul\":5489:5503   */\n      sub\n        /* \"#utility.yul\":5482:5486   */\n      0x40\n        /* \"#utility.yul\":5477:5480   */\n      dup7\n        /* \"#utility.yul\":5473:5487   */\n      add\n        /* \"#utility.yul\":5466:5504   */\n      mstore\n        /* \"#utility.yul\":5525:5598   */\n      tag_322\n        /* \"#utility.yul\":5593:5597   */\n      dup3\n        /* \"#utility.yul\":5579:5591   */\n      dup3\n        /* \"#utility.yul\":5525:5598   */\n      tag_202\n      jump\t// in\n    tag_322:\n        /* \"#utility.yul\":5517:5598   */\n      swap2\n      pop\n        /* \"#utility.yul\":5366:5609   */\n      pop\n        /* \"#utility.yul\":5695:5699   */\n      0x60\n        /* \"#utility.yul\":5688:5693   */\n      dup4\n        /* \"#utility.yul\":5684:5700   */\n      add\n        /* \"#utility.yul\":5678:5701   */\n      mload\n        /* \"#utility.yul\":5714:5777   */\n      tag_323\n        /* \"#utility.yul\":5771:5775   */\n      0x60\n        /* \"#utility.yul\":5766:5769   */\n      dup7\n        /* \"#utility.yul\":5762:5776   */\n      add\n        /* \"#utility.yul\":5748:5760   */\n      dup3\n        /* \"#utility.yul\":5714:5777   */\n      tag_203\n      jump\t// in\n    tag_323:\n        /* \"#utility.yul\":5619:5787   */\n      pop\n        /* \"#utility.yul\":5870:5874   */\n      0x80\n        /* \"#utility.yul\":5863:5868   */\n      dup4\n        /* \"#utility.yul\":5859:5875   */\n      add\n        /* \"#utility.yul\":5853:5876   */\n      mload\n        /* \"#utility.yul\":5889:5952   */\n      tag_324\n        /* \"#utility.yul\":5946:5950   */\n      0x80\n        /* \"#utility.yul\":5941:5944   */\n      dup7\n        /* \"#utility.yul\":5937:5951   */\n      add\n        /* \"#utility.yul\":5923:5935   */\n      dup3\n        /* \"#utility.yul\":5889:5952   */\n      tag_203\n      jump\t// in\n    tag_324:\n        /* \"#utility.yul\":5797:5962   */\n      pop\n        /* \"#utility.yul\":6044:6048   */\n      0xa0\n        /* \"#utility.yul\":6037:6042   */\n      dup4\n        /* \"#utility.yul\":6033:6049   */\n      add\n        /* \"#utility.yul\":6027:6050   */\n      mload\n        /* \"#utility.yul\":6063:6126   */\n      tag_325\n        /* \"#utility.yul\":6120:6124   */\n      0xa0\n        /* \"#utility.yul\":6115:6118   */\n      dup7\n        /* \"#utility.yul\":6111:6125   */\n      add\n        /* \"#utility.yul\":6097:6109   */\n      dup3\n        /* \"#utility.yul\":6063:6126   */\n      tag_203\n      jump\t// in\n    tag_325:\n        /* \"#utility.yul\":5972:6136   */\n      pop\n        /* \"#utility.yul\":6224:6228   */\n      0xc0\n        /* \"#utility.yul\":6217:6222   */\n      dup4\n        /* \"#utility.yul\":6213:6229   */\n      add\n        /* \"#utility.yul\":6207:6230   */\n      mload\n        /* \"#utility.yul\":6277:6280   */\n      dup5\n        /* \"#utility.yul\":6271:6275   */\n      dup3\n        /* \"#utility.yul\":6267:6281   */\n      sub\n        /* \"#utility.yul\":6260:6264   */\n      0xc0\n        /* \"#utility.yul\":6255:6258   */\n      dup7\n        /* \"#utility.yul\":6251:6265   */\n      add\n        /* \"#utility.yul\":6244:6282   */\n      mstore\n        /* \"#utility.yul\":6303:6376   */\n      tag_326\n        /* \"#utility.yul\":6371:6375   */\n      dup3\n        /* \"#utility.yul\":6357:6369   */\n      dup3\n        /* \"#utility.yul\":6303:6376   */\n      tag_202\n      jump\t// in\n    tag_326:\n        /* \"#utility.yul\":6295:6376   */\n      swap2\n      pop\n        /* \"#utility.yul\":6146:6387   */\n      pop\n        /* \"#utility.yul\":6404:6408   */\n      dup1\n        /* \"#utility.yul\":6397:6408   */\n      swap2\n      pop\n        /* \"#utility.yul\":4900:6414   */\n      pop\n        /* \"#utility.yul\":4776:6414   */\n      swap3\n      swap2\n      pop\n      pop\n      jump\t// out\n        /* \"#utility.yul\":6420:6696   */\n    tag_205:\n        /* \"#utility.yul\":6549:6559   */\n      0x00\n        /* \"#utility.yul\":6584:6690   */\n      tag_328\n        /* \"#utility.yul\":6686:6689   */\n      dup4\n        /* \"#utility.yul\":6678:6684   */\n      dup4\n        /* \"#utility.yul\":6584:6690   */\n      tag_204\n      jump\t// in\n    tag_328:\n        /* \"#utility.yul\":6570:6690   */\n      swap1\n      pop\n        /* \"#utility.yul\":6420:6696   */\n      swap3\n      swap2\n      pop\n      pop\n      jump\t// out\n        /* \"#utility.yul\":6702:6845   */\n    tag_206:\n        /* \"#utility.yul\":6802:6806   */\n      0x00\n        /* \"#utility.yul\":6834:6838   */\n      0x20\n        /* \"#utility.yul\":6829:6832   */\n      dup3\n        /* \"#utility.yul\":6825:6839   */\n      add\n        /* \"#utility.yul\":6817:6839   */\n      swap1\n      pop\n        /* \"#utility.yul\":6702:6845   */\n      swap2\n      swap1\n      pop\n      jump\t// out\n        /* \"#utility.yul\":6945:8096   */\n    tag_207:\n        /* \"#utility.yul\":7124:7127   */\n      0x00\n        /* \"#utility.yul\":7153:7237   */\n      tag_331\n        /* \"#utility.yul\":7231:7236   */\n      dup3\n        /* \"#utility.yul\":7153:7237   */\n      tag_196\n      jump\t// in\n    tag_331:\n        /* \"#utility.yul\":7253:7369   */\n      tag_332\n        /* \"#utility.yul\":7362:7368   */\n      dup2\n        /* \"#utility.yul\":7357:7360   */\n      dup6\n        /* \"#utility.yul\":7253:7369   */\n      tag_197\n      jump\t// in\n    tag_332:\n        /* \"#utility.yul\":7246:7369   */\n      swap4\n      pop\n        /* \"#utility.yul\":7395:7398   */\n      dup4\n        /* \"#utility.yul\":7440:7444   */\n      0x20\n        /* \"#utility.yul\":7432:7438   */\n      dup3\n        /* \"#utility.yul\":7428:7445   */\n      mul\n        /* \"#utility.yul\":7423:7426   */\n      dup6\n        /* \"#utility.yul\":7419:7446   */\n      add\n        /* \"#utility.yul\":7470:7556   */\n      tag_333\n        /* \"#utility.yul\":7550:7555   */\n      dup6\n        /* \"#utility.yul\":7470:7556   */\n      tag_198\n      jump\t// in\n    tag_333:\n        /* \"#utility.yul\":7579:7586   */\n      dup1\n        /* \"#utility.yul\":7610:7611   */\n      0x00\n        /* \"#utility.yul\":7595:8051   */\n    tag_334:\n        /* \"#utility.yul\":7620:7626   */\n      dup6\n        /* \"#utility.yul\":7617:7618   */\n      dup2\n        /* \"#utility.yul\":7614:7627   */\n      lt\n        /* \"#utility.yul\":7595:8051   */\n      iszero\n      tag_336\n      jumpi\n        /* \"#utility.yul\":7691:7700   */\n      dup5\n        /* \"#utility.yul\":7685:7689   */\n      dup5\n        /* \"#utility.yul\":7681:7701   */\n      sub\n        /* \"#utility.yul\":7676:7679   */\n      dup10\n        /* \"#utility.yul\":7669:7702   */\n      mstore\n        /* \"#utility.yul\":7742:7748   */\n      dup2\n        /* \"#utility.yul\":7736:7749   */\n      mload\n        /* \"#utility.yul\":7770:7894   */\n      tag_337\n        /* \"#utility.yul\":7889:7893   */\n      dup6\n        /* \"#utility.yul\":7874:7887   */\n      dup3\n        /* \"#utility.yul\":7770:7894   */\n      tag_205\n      jump\t// in\n    tag_337:\n        /* \"#utility.yul\":7762:7894   */\n      swap5\n      pop\n        /* \"#utility.yul\":7917:8007   */\n      tag_338\n        /* \"#utility.yul\":8000:8006   */\n      dup4\n        /* \"#utility.yul\":7917:8007   */\n      tag_206\n      jump\t// in\n    tag_338:\n        /* \"#utility.yul\":7907:8007   */\n      swap3\n      pop\n        /* \"#utility.yul\":8036:8040   */\n      0x20\n        /* \"#utility.yul\":8031:8034   */\n      dup11\n        /* \"#utility.yul\":8027:8041   */\n      add\n        /* \"#utility.yul\":8020:8041   */\n      swap10\n      pop\n        /* \"#utility.yul\":7655:8051   */\n      pop\n        /* \"#utility.yul\":7642:7643   */\n      0x01\n        /* \"#utility.yul\":7639:7640   */\n      dup2\n        /* \"#utility.yul\":7635:7644   */\n      add\n        /* \"#utility.yul\":7630:7644   */\n      swap1\n      pop\n        /* \"#utility.yul\":7595:8051   */\n      jump(tag_334)\n    tag_336:\n        /* \"#utility.yul\":7599:7613   */\n      pop\n        /* \"#utility.yul\":8067:8071   */\n      dup3\n        /* \"#utility.yul\":8060:8071   */\n      swap8\n      pop\n        /* \"#utility.yul\":8087:8090   */\n      dup8\n        /* \"#utility.yul\":8080:8090   */\n      swap6\n      pop\n        /* \"#utility.yul\":7129:8096   */\n      pop\n      pop\n      pop\n      pop\n      pop\n        /* \"#utility.yul\":6945:8096   */\n      swap3\n      swap2\n      pop\n      pop\n      jump\t// out\n        /* \"#utility.yul\":8102:8595   */\n    tag_22:\n        /* \"#utility.yul\":8305:8309   */\n      0x00\n        /* \"#utility.yul\":8343:8345   */\n      0x20\n        /* \"#utility.yul\":8332:8341   */\n      dup3\n        /* \"#utility.yul\":8328:8346   */\n      add\n        /* \"#utility.yul\":8320:8346   */\n      swap1\n      pop\n        /* \"#utility.yul\":8392:8401   */\n      dup2\n        /* \"#utility.yul\":8386:8390   */\n      dup2\n        /* \"#utility.yul\":8382:8402   */\n      sub\n        /* \"#utility.yul\":8378:8379   */\n      0x00\n        /* \"#utility.yul\":8367:8376   */\n      dup4\n        /* \"#utility.yul\":8363:8380   */\n      add\n        /* \"#utility.yul\":8356:8403   */\n      mstore\n        /* \"#utility.yul\":8420:8588   */\n      tag_340\n        /* \"#utility.yul\":8583:8587   */\n      dup2\n        /* \"#utility.yul\":8574:8580   */\n      dup5\n        /* \"#utility.yul\":8420:8588   */\n      tag_207\n      jump\t// in\n    tag_340:\n        /* \"#utility.yul\":8412:8588   */\n      swap1\n      pop\n        /* \"#utility.yul\":8102:8595   */\n      swap3\n      swap2\n      pop\n      pop\n      jump\t// out\n        /* \"#utility.yul\":8601:8930   */\n    tag_25:\n        /* \"#utility.yul\":8660:8666   */\n      0x00\n        /* \"#utility.yul\":8709:8711   */\n      0x20\n        /* \"#utility.yul\":8697:8706   */\n      dup3\n        /* \"#utility.yul\":8688:8695   */\n      dup5\n        /* \"#utility.yul\":8684:8707   */\n      sub\n        /* \"#utility.yul\":8680:8712   */\n      slt\n        /* \"#utility.yul\":8677:8796   */\n      iszero\n      tag_342\n      jumpi\n        /* \"#utility.yul\":8715:8794   */\n      tag_343\n      tag_181\n      jump\t// in\n    tag_343:\n        /* \"#utility.yul\":8677:8796   */\n    tag_342:\n        /* \"#utility.yul\":8835:8836   */\n      0x00\n        /* \"#utility.yul\":8860:8913   */\n      tag_344\n        /* \"#utility.yul\":8905:8912   */\n      dup5\n        /* \"#utility.yul\":8896:8902   */\n      dup3\n        /* \"#utility.yul\":8885:8894   */\n      dup6\n        /* \"#utility.yul\":8881:8903   */\n      add\n        /* \"#utility.yul\":8860:8913   */\n      tag_185\n      jump\t// in\n    tag_344:\n        /* \"#utility.yul\":8850:8913   */\n      swap2\n      pop\n        /* \"#utility.yul\":8806:8923   */\n      pop\n        /* \"#utility.yul\":8601:8930   */\n      swap3\n      swap2\n      pop\n      pop\n      jump\t// out\n        /* \"#utility.yul\":8936:9105   */\n    tag_208:\n        /* \"#utility.yul\":9020:9031   */\n      0x00\n        /* \"#utility.yul\":9054:9060   */\n      dup3\n        /* \"#utility.yul\":9049:9052   */\n      dup3\n        /* \"#utility.yul\":9042:9061   */\n      mstore\n        /* \"#utility.yul\":9094:9098   */\n      0x20\n        /* \"#utility.yul\":9089:9092   */\n      dup3\n        /* \"#utility.yul\":9085:9099   */\n      add\n        /* \"#utility.yul\":9070:9099   */\n      swap1\n      pop\n        /* \"#utility.yul\":8936:9105   */\n      swap3\n      swap2\n      pop\n      pop\n      jump\t// out\n        /* \"#utility.yul\":9111:9488   */\n    tag_209:\n        /* \"#utility.yul\":9199:9202   */\n      0x00\n        /* \"#utility.yul\":9227:9266   */\n      tag_347\n        /* \"#utility.yul\":9260:9265   */\n      dup3\n        /* \"#utility.yul\":9227:9266   */\n      tag_200\n      jump\t// in\n    tag_347:\n        /* \"#utility.yul\":9282:9353   */\n      tag_348\n        /* \"#utility.yul\":9346:9352   */\n      dup2\n        /* \"#utility.yul\":9341:9344   */\n      dup6\n        /* \"#utility.yul\":9282:9353   */\n      tag_208\n      jump\t// in\n    tag_348:\n        /* \"#utility.yul\":9275:9353   */\n      swap4\n      pop\n        /* \"#utility.yul\":9362:9427   */\n      tag_349\n        /* \"#utility.yul\":9420:9426   */\n      dup2\n        /* \"#utility.yul\":9415:9418   */\n      dup6\n        /* \"#utility.yul\":9408:9412   */\n      0x20\n        /* \"#utility.yul\":9401:9406   */\n      dup7\n        /* \"#utility.yul\":9397:9413   */\n      add\n        /* \"#utility.yul\":9362:9427   */\n      tag_193\n      jump\t// in\n    tag_349:\n        /* \"#utility.yul\":9452:9481   */\n      tag_350\n        /* \"#utility.yul\":9474:9480   */\n      dup2\n        /* \"#utility.yul\":9452:9481   */\n      tag_194\n      jump\t// in\n    tag_350:\n        /* \"#utility.yul\":9447:9450   */\n      dup5\n        /* \"#utility.yul\":9443:9482   */\n      add\n        /* \"#utility.yul\":9436:9482   */\n      swap2\n      pop\n        /* \"#utility.yul\":9203:9488   */\n      pop\n        /* \"#utility.yul\":9111:9488   */\n      swap3\n      swap2\n      pop\n      pop\n      jump\t// out\n        /* \"#utility.yul\":9494:9612   */\n    tag_210:\n        /* \"#utility.yul\":9581:9605   */\n      tag_352\n        /* \"#utility.yul\":9599:9604   */\n      dup2\n        /* \"#utility.yul\":9581:9605   */\n      tag_183\n      jump\t// in\n    tag_352:\n        /* \"#utility.yul\":9576:9579   */\n      dup3\n        /* \"#utility.yul\":9569:9606   */\n      mstore\n        /* \"#utility.yul\":9494:9612   */\n      pop\n      pop\n      jump\t// out\n        /* \"#utility.yul\":9618:10777   */\n    tag_28:\n        /* \"#utility.yul\":9939:9943   */\n      0x00\n        /* \"#utility.yul\":9977:9980   */\n      0xe0\n        /* \"#utility.yul\":9966:9975   */\n      dup3\n        /* \"#utility.yul\":9962:9981   */\n      add\n        /* \"#utility.yul\":9954:9981   */\n      swap1\n      pop\n        /* \"#utility.yul\":9991:10062   */\n      tag_354\n        /* \"#utility.yul\":10059:10060   */\n      0x00\n        /* \"#utility.yul\":10048:10057   */\n      dup4\n        /* \"#utility.yul\":10044:10061   */\n      add\n        /* \"#utility.yul\":10035:10041   */\n      dup11\n        /* \"#utility.yul\":9991:10062   */\n      tag_188\n      jump\t// in\n    tag_354:\n        /* \"#utility.yul\":10109:10118   */\n      dup2\n        /* \"#utility.yul\":10103:10107   */\n      dup2\n        /* \"#utility.yul\":10099:10119   */\n      sub\n        /* \"#utility.yul\":10094:10096   */\n      0x20\n        /* \"#utility.yul\":10083:10092   */\n      dup4\n        /* \"#utility.yul\":10079:10097   */\n      add\n        /* \"#utility.yul\":10072:10120   */\n      mstore\n        /* \"#utility.yul\":10137:10215   */\n      tag_355\n        /* \"#utility.yul\":10210:10214   */\n      dup2\n        /* \"#utility.yul\":10201:10207   */\n      dup10\n        /* \"#utility.yul\":10137:10215   */\n      tag_209\n      jump\t// in\n    tag_355:\n        /* \"#utility.yul\":10129:10215   */\n      swap1\n      pop\n        /* \"#utility.yul\":10262:10271   */\n      dup2\n        /* \"#utility.yul\":10256:10260   */\n      dup2\n        /* \"#utility.yul\":10252:10272   */\n      sub\n        /* \"#utility.yul\":10247:10249   */\n      0x40\n        /* \"#utility.yul\":10236:10245   */\n      dup4\n        /* \"#utility.yul\":10232:10250   */\n      add\n        /* \"#utility.yul\":10225:10273   */\n      mstore\n        /* \"#utility.yul\":10290:10368   */\n      tag_356\n        /* \"#utility.yul\":10363:10367   */\n      dup2\n        /* \"#utility.yul\":10354:10360   */\n      dup9\n        /* \"#utility.yul\":10290:10368   */\n      tag_209\n      jump\t// in\n    tag_356:\n        /* \"#utility.yul\":10282:10368   */\n      swap1\n      pop\n        /* \"#utility.yul\":10378:10450   */\n      tag_357\n        /* \"#utility.yul\":10446:10448   */\n      0x60\n        /* \"#utility.yul\":10435:10444   */\n      dup4\n        /* \"#utility.yul\":10431:10449   */\n      add\n        /* \"#utility.yul\":10422:10428   */\n      dup8\n        /* \"#utility.yul\":10378:10450   */\n      tag_210\n      jump\t// in\n    tag_357:\n        /* \"#utility.yul\":10460:10533   */\n      tag_358\n        /* \"#utility.yul\":10528:10531   */\n      0x80\n        /* \"#utility.yul\":10517:10526   */\n      dup4\n        /* \"#utility.yul\":10513:10532   */\n      add\n        /* \"#utility.yul\":10504:10510   */\n      dup7\n        /* \"#utility.yul\":10460:10533   */\n      tag_210\n      jump\t// in\n    tag_358:\n        /* \"#utility.yul\":10543:10616   */\n      tag_359\n        /* \"#utility.yul\":10611:10614   */\n      0xa0\n        /* \"#utility.yul\":10600:10609   */\n      dup4\n        /* \"#utility.yul\":10596:10615   */\n      add\n        /* \"#utility.yul\":10587:10593   */\n      dup6\n        /* \"#utility.yul\":10543:10616   */\n      tag_210\n      jump\t// in\n    tag_359:\n        /* \"#utility.yul\":10664:10673   */\n      dup2\n        /* \"#utility.yul\":10658:10662   */\n      dup2\n        /* \"#utility.yul\":10654:10674   */\n      sub\n        /* \"#utility.yul\":10648:10651   */\n      0xc0\n        /* \"#utility.yul\":10637:10646   */\n      dup4\n        /* \"#utility.yul\":10633:10652   */\n      add\n        /* \"#utility.yul\":10626:10675   */\n      mstore\n        /* \"#utility.yul\":10692:10770   */\n      tag_360\n        /* \"#utility.yul\":10765:10769   */\n      dup2\n        /* \"#utility.yul\":10756:10762   */\n      dup5\n        /* \"#utility.yul\":10692:10770   */\n      tag_209\n      jump\t// in\n    tag_360:\n        /* \"#utility.yul\":10684:10770   */\n      swap1\n      pop\n        /* \"#utility.yul\":9618:10777   */\n      swap9\n      swap8\n      pop\n      pop\n      pop\n      pop\n      pop\n      pop\n      pop\n      pop\n      jump\t// out\n        /* \"#utility.yul\":10783:10932   */\n    tag_211:\n        /* \"#utility.yul\":10885:10891   */\n      0x00\n        /* \"#utility.yul\":10919:10924   */\n      dup2\n        /* \"#utility.yul\":10913:10925   */\n      mload\n        /* \"#utility.yul\":10903:10925   */\n      swap1\n      pop\n        /* \"#utility.yul\":10783:10932   */\n      swap2\n      swap1\n      pop\n      jump\t// out\n        /* \"#utility.yul\":10938:11157   */\n    tag_212:\n        /* \"#utility.yul\":11072:11083   */\n      0x00\n        /* \"#utility.yul\":11106:11112   */\n      dup3\n        /* \"#utility.yul\":11101:11104   */\n      dup3\n        /* \"#utility.yul\":11094:11113   */\n      mstore\n        /* \"#utility.yul\":11146:11150   */\n      0x20\n        /* \"#utility.yul\":11141:11144   */\n      dup3\n        /* \"#utility.yul\":11137:11151   */\n      add\n        /* \"#utility.yul\":11122:11151   */\n      swap1\n      pop\n        /* \"#utility.yul\":10938:11157   */\n      swap3\n      swap2\n      pop\n      pop\n      jump\t// out\n        /* \"#utility.yul\":11163:11330   */\n    tag_213:\n        /* \"#utility.yul\":11265:11269   */\n      0x00\n        /* \"#utility.yul\":11288:11291   */\n      dup2\n        /* \"#utility.yul\":11280:11291   */\n      swap1\n      pop\n        /* \"#utility.yul\":11318:11322   */\n      0x20\n        /* \"#utility.yul\":11313:11316   */\n      dup3\n        /* \"#utility.yul\":11309:11323   */\n      add\n        /* \"#utility.yul\":11301:11323   */\n      swap1\n      pop\n        /* \"#utility.yul\":11163:11330   */\n      swap2\n      swap1\n      pop\n      jump\t// out\n        /* \"#utility.yul\":11336:11444   */\n    tag_214:\n        /* \"#utility.yul\":11413:11437   */\n      tag_365\n        /* \"#utility.yul\":11431:11436   */\n      dup2\n        /* \"#utility.yul\":11413:11437   */\n      tag_189\n      jump\t// in\n    tag_365:\n        /* \"#utility.yul\":11408:11411   */\n      dup3\n        /* \"#utility.yul\":11401:11438   */\n      mstore\n        /* \"#utility.yul\":11336:11444   */\n      pop\n      pop\n      jump\t// out\n        /* \"#utility.yul\":11450:11608   */\n    tag_215:\n        /* \"#utility.yul\":11523:11534   */\n      0x00\n        /* \"#utility.yul\":11557:11563   */\n      dup3\n        /* \"#utility.yul\":11552:11555   */\n      dup3\n        /* \"#utility.yul\":11545:11564   */\n      mstore\n        /* \"#utility.yul\":11597:11601   */\n      0x20\n        /* \"#utility.yul\":11592:11595   */\n      dup3\n        /* \"#utility.yul\":11588:11602   */\n      add\n        /* \"#utility.yul\":11573:11602   */\n      swap1\n      pop\n        /* \"#utility.yul\":11450:11608   */\n      swap3\n      swap2\n      pop\n      pop\n      jump\t// out\n        /* \"#utility.yul\":11614:11967   */\n    tag_216:\n        /* \"#utility.yul\":11690:11693   */\n      0x00\n        /* \"#utility.yul\":11718:11756   */\n      tag_368\n        /* \"#utility.yul\":11750:11755   */\n      dup3\n        /* \"#utility.yul\":11718:11756   */\n      tag_191\n      jump\t// in\n    tag_368:\n        /* \"#utility.yul\":11772:11832   */\n      tag_369\n        /* \"#utility.yul\":11825:11831   */\n      dup2\n        /* \"#utility.yul\":11820:11823   */\n      dup6\n        /* \"#utility.yul\":11772:11832   */\n      tag_215\n      jump\t// in\n    tag_369:\n        /* \"#utility.yul\":11765:11832   */\n      swap4\n      pop\n        /* \"#utility.yul\":11841:11906   */\n      tag_370\n        /* \"#utility.yul\":11899:11905   */\n      dup2\n        /* \"#utility.yul\":11894:11897   */\n      dup6\n        /* \"#utility.yul\":11887:11891   */\n      0x20\n        /* \"#utility.yul\":11880:11885   */\n      dup7\n        /* \"#utility.yul\":11876:11892   */\n      add\n        /* \"#utility.yul\":11841:11906   */\n      tag_193\n      jump\t// in\n    tag_370:\n        /* \"#utility.yul\":11931:11960   */\n      tag_371\n        /* \"#utility.yul\":11953:11959   */\n      dup2\n        /* \"#utility.yul\":11931:11960   */\n      tag_194\n      jump\t// in\n    tag_371:\n        /* \"#utility.yul\":11926:11929   */\n      dup5\n        /* \"#utility.yul\":11922:11961   */\n      add\n        /* \"#utility.yul\":11915:11961   */\n      swap2\n      pop\n        /* \"#utility.yul\":11694:11967   */\n      pop\n        /* \"#utility.yul\":11614:11967   */\n      swap3\n      swap2\n      pop\n      pop\n      jump\t// out\n        /* \"#utility.yul\":12073:12875   */\n    tag_217:\n        /* \"#utility.yul\":12202:12205   */\n      0x00\n        /* \"#utility.yul\":12238:12242   */\n      0x60\n        /* \"#utility.yul\":12233:12236   */\n      dup4\n        /* \"#utility.yul\":12229:12243   */\n      add\n        /* \"#utility.yul\":12327:12331   */\n      0x00\n        /* \"#utility.yul\":12320:12325   */\n      dup4\n        /* \"#utility.yul\":12316:12332   */\n      add\n        /* \"#utility.yul\":12310:12333   */\n      mload\n        /* \"#utility.yul\":12346:12409   */\n      tag_373\n        /* \"#utility.yul\":12403:12407   */\n      0x00\n        /* \"#utility.yul\":12398:12401   */\n      dup7\n        /* \"#utility.yul\":12394:12408   */\n      add\n        /* \"#utility.yul\":12380:12392   */\n      dup3\n        /* \"#utility.yul\":12346:12409   */\n      tag_199\n      jump\t// in\n    tag_373:\n        /* \"#utility.yul\":12253:12419   */\n      pop\n        /* \"#utility.yul\":12508:12512   */\n      0x20\n        /* \"#utility.yul\":12501:12506   */\n      dup4\n        /* \"#utility.yul\":12497:12513   */\n      add\n        /* \"#utility.yul\":12491:12514   */\n      mload\n        /* \"#utility.yul\":12527:12590   */\n      tag_374\n        /* \"#utility.yul\":12584:12588   */\n      0x20\n        /* \"#utility.yul\":12579:12582   */\n      dup7\n        /* \"#utility.yul\":12575:12589   */\n      add\n        /* \"#utility.yul\":12561:12573   */\n      dup3\n        /* \"#utility.yul\":12527:12590   */\n      tag_214\n      jump\t// in\n    tag_374:\n        /* \"#utility.yul\":12429:12600   */\n      pop\n        /* \"#utility.yul\":12687:12691   */\n      0x40\n        /* \"#utility.yul\":12680:12685   */\n      dup4\n        /* \"#utility.yul\":12676:12692   */\n      add\n        /* \"#utility.yul\":12670:12693   */\n      mload\n        /* \"#utility.yul\":12740:12743   */\n      dup5\n        /* \"#utility.yul\":12734:12738   */\n      dup3\n        /* \"#utility.yul\":12730:12744   */\n      sub\n        /* \"#utility.yul\":12723:12727   */\n      0x40\n        /* \"#utility.yul\":12718:12721   */\n      dup7\n        /* \"#utility.yul\":12714:12728   */\n      add\n        /* \"#utility.yul\":12707:12745   */\n      mstore\n        /* \"#utility.yul\":12766:12837   */\n      tag_375\n        /* \"#utility.yul\":12832:12836   */\n      dup3\n        /* \"#utility.yul\":12818:12830   */\n      dup3\n        /* \"#utility.yul\":12766:12837   */\n      tag_216\n      jump\t// in\n    tag_375:\n        /* \"#utility.yul\":12758:12837   */\n      swap2\n      pop\n        /* \"#utility.yul\":12610:12848   */\n      pop\n        /* \"#utility.yul\":12865:12869   */\n      dup1\n        /* \"#utility.yul\":12858:12869   */\n      swap2\n      pop\n        /* \"#utility.yul\":12207:12875   */\n      pop\n        /* \"#utility.yul\":12073:12875   */\n      swap3\n      swap2\n      pop\n      pop\n      jump\t// out\n        /* \"#utility.yul\":12881:13177   */\n    tag_218:\n        /* \"#utility.yul\":13020:13030   */\n      0x00\n        /* \"#utility.yul\":13055:13171   */\n      tag_377\n        /* \"#utility.yul\":13167:13170   */\n      dup4\n        /* \"#utility.yul\":13159:13165   */\n      dup4\n        /* \"#utility.yul\":13055:13171   */\n      tag_217\n      jump\t// in\n    tag_377:\n        /* \"#utility.yul\":13041:13171   */\n      swap1\n      pop\n        /* \"#utility.yul\":12881:13177   */\n      swap3\n      swap2\n      pop\n      pop\n      jump\t// out\n        /* \"#utility.yul\":13183:13331   */\n    tag_219:\n        /* \"#utility.yul\":13288:13292   */\n      0x00\n        /* \"#utility.yul\":13320:13324   */\n      0x20\n        /* \"#utility.yul\":13315:13318   */\n      dup3\n        /* \"#utility.yul\":13311:13325   */\n      add\n        /* \"#utility.yul\":13303:13325   */\n      swap1\n      pop\n        /* \"#utility.yul\":13183:13331   */\n      swap2\n      swap1\n      pop\n      jump\t// out\n        /* \"#utility.yul\":13441:14632   */\n    tag_220:\n        /* \"#utility.yul\":13630:13633   */\n      0x00\n        /* \"#utility.yul\":13659:13748   */\n      tag_380\n        /* \"#utility.yul\":13742:13747   */\n      dup3\n        /* \"#utility.yul\":13659:13748   */\n      tag_211\n      jump\t// in\n    tag_380:\n        /* \"#utility.yul\":13764:13885   */\n      tag_381\n        /* \"#utility.yul\":13878:13884   */\n      dup2\n        /* \"#utility.yul\":13873:13876   */\n      dup6\n        /* \"#utility.yul\":13764:13885   */\n      tag_212\n      jump\t// in\n    tag_381:\n        /* \"#utility.yul\":13757:13885   */\n      swap4\n      pop\n        /* \"#utility.yul\":13911:13914   */\n      dup4\n        /* \"#utility.yul\":13956:13960   */\n      0x20\n        /* \"#utility.yul\":13948:13954   */\n      dup3\n        /* \"#utility.yul\":13944:13961   */\n      mul\n        /* \"#utility.yul\":13939:13942   */\n      dup6\n        /* \"#utility.yul\":13935:13962   */\n      add\n        /* \"#utility.yul\":13986:14077   */\n      tag_382\n        /* \"#utility.yul\":14071:14076   */\n      dup6\n        /* \"#utility.yul\":13986:14077   */\n      tag_213\n      jump\t// in\n    tag_382:\n        /* \"#utility.yul\":14100:14107   */\n      dup1\n        /* \"#utility.yul\":14131:14132   */\n      0x00\n        /* \"#utility.yul\":14116:14587   */\n    tag_383:\n        /* \"#utility.yul\":14141:14147   */\n      dup6\n        /* \"#utility.yul\":14138:14139   */\n      dup2\n        /* \"#utility.yul\":14135:14148   */\n      lt\n        /* \"#utility.yul\":14116:14587   */\n      iszero\n      tag_385\n      jumpi\n        /* \"#utility.yul\":14212:14221   */\n      dup5\n        /* \"#utility.yul\":14206:14210   */\n      dup5\n        /* \"#utility.yul\":14202:14222   */\n      sub\n        /* \"#utility.yul\":14197:14200   */\n      dup10\n        /* \"#utility.yul\":14190:14223   */\n      mstore\n        /* \"#utility.yul\":14263:14269   */\n      dup2\n        /* \"#utility.yul\":14257:14270   */\n      mload\n        /* \"#utility.yul\":14291:14425   */\n      tag_386\n        /* \"#utility.yul\":14420:14424   */\n      dup6\n        /* \"#utility.yul\":14405:14418   */\n      dup3\n        /* \"#utility.yul\":14291:14425   */\n      tag_218\n      jump\t// in\n    tag_386:\n        /* \"#utility.yul\":14283:14425   */\n      swap5\n      pop\n        /* \"#utility.yul\":14448:14543   */\n      tag_387\n        /* \"#utility.yul\":14536:14542   */\n      dup4\n        /* \"#utility.yul\":14448:14543   */\n      tag_219\n      jump\t// in\n    tag_387:\n        /* \"#utility.yul\":14438:14543   */\n      swap3\n      pop\n        /* \"#utility.yul\":14572:14576   */\n      0x20\n        /* \"#utility.yul\":14567:14570   */\n      dup11\n        /* \"#utility.yul\":14563:14577   */\n      add\n        /* \"#utility.yul\":14556:14577   */\n      swap10\n      pop\n        /* \"#utility.yul\":14176:14587   */\n      pop\n        /* \"#utility.yul\":14163:14164   */\n      0x01\n        /* \"#utility.yul\":14160:14161   */\n      dup2\n        /* \"#utility.yul\":14156:14165   */\n      add\n        /* \"#utility.yul\":14151:14165   */\n      swap1\n      pop\n        /* \"#utility.yul\":14116:14587   */\n      jump(tag_383)\n    tag_385:\n        /* \"#utility.yul\":14120:14134   */\n      pop\n        /* \"#utility.yul\":14603:14607   */\n      dup3\n        /* \"#utility.yul\":14596:14607   */\n      swap8\n      pop\n        /* \"#utility.yul\":14623:14626   */\n      dup8\n        /* \"#utility.yul\":14616:14626   */\n      swap6\n      pop\n        /* \"#utility.yul\":13635:14632   */\n      pop\n      pop\n      pop\n      pop\n      pop\n        /* \"#utility.yul\":13441:14632   */\n      swap3\n      swap2\n      pop\n      pop\n      jump\t// out\n        /* \"#utility.yul\":14638:15151   */\n    tag_33:\n        /* \"#utility.yul\":14851:14855   */\n      0x00\n        /* \"#utility.yul\":14889:14891   */\n      0x20\n        /* \"#utility.yul\":14878:14887   */\n      dup3\n        /* \"#utility.yul\":14874:14892   */\n      add\n        /* \"#utility.yul\":14866:14892   */\n      swap1\n      pop\n        /* \"#utility.yul\":14938:14947   */\n      dup2\n        /* \"#utility.yul\":14932:14936   */\n      dup2\n        /* \"#utility.yul\":14928:14948   */\n      sub\n        /* \"#utility.yul\":14924:14925   */\n      0x00\n        /* \"#utility.yul\":14913:14922   */\n      dup4\n        /* \"#utility.yul\":14909:14926   */\n      add\n        /* \"#utility.yul\":14902:14949   */\n      mstore\n        /* \"#utility.yul\":14966:15144   */\n      tag_389\n        /* \"#utility.yul\":15139:15143   */\n      dup2\n        /* \"#utility.yul\":15130:15136   */\n      dup5\n        /* \"#utility.yul\":14966:15144   */\n      tag_220\n      jump\t// in\n    tag_389:\n        /* \"#utility.yul\":14958:15144   */\n      swap1\n      pop\n        /* \"#utility.yul\":14638:15151   */\n      swap3\n      swap2\n      pop\n      pop\n      jump\t// out\n        /* \"#utility.yul\":15157:15279   */\n    tag_221:\n        /* \"#utility.yul\":15230:15254   */\n      tag_391\n        /* \"#utility.yul\":15248:15253   */\n      dup2\n        /* \"#utility.yul\":15230:15254   */\n      tag_187\n      jump\t// in\n    tag_391:\n        /* \"#utility.yul\":15223:15228   */\n      dup2\n        /* \"#utility.yul\":15220:15255   */\n      eq\n        /* \"#utility.yul\":15210:15273   */\n      tag_392\n      jumpi\n        /* \"#utility.yul\":15269:15270   */\n      0x00\n        /* \"#utility.yul\":15266:15267   */\n      dup1\n        /* \"#utility.yul\":15259:15271   */\n      revert\n        /* \"#utility.yul\":15210:15273   */\n    tag_392:\n        /* \"#utility.yul\":15157:15279   */\n      pop\n      jump\t// out\n        /* \"#utility.yul\":15285:15424   */\n    tag_222:\n        /* \"#utility.yul\":15331:15336   */\n      0x00\n        /* \"#utility.yul\":15369:15375   */\n      dup2\n        /* \"#utility.yul\":15356:15376   */\n      calldataload\n        /* \"#utility.yul\":15347:15376   */\n      swap1\n      pop\n        /* \"#utility.yul\":15385:15418   */\n      tag_394\n        /* \"#utility.yul\":15412:15417   */\n      dup2\n        /* \"#utility.yul\":15385:15418   */\n      tag_221\n      jump\t// in\n    tag_394:\n        /* \"#utility.yul\":15285:15424   */\n      swap3\n      swap2\n      pop\n      pop\n      jump\t// out\n        /* \"#utility.yul\":15430:15904   */\n    tag_36:\n        /* \"#utility.yul\":15498:15504   */\n      0x00\n        /* \"#utility.yul\":15506:15512   */\n      dup1\n        /* \"#utility.yul\":15555:15557   */\n      0x40\n        /* \"#utility.yul\":15543:15552   */\n      dup4\n        /* \"#utility.yul\":15534:15541   */\n      dup6\n        /* \"#utility.yul\":15530:15553   */\n      sub\n        /* \"#utility.yul\":15526:15558   */\n      slt\n        /* \"#utility.yul\":15523:15642   */\n      iszero\n      tag_396\n      jumpi\n        /* \"#utility.yul\":15561:15640   */\n      tag_397\n      tag_181\n      jump\t// in\n    tag_397:\n        /* \"#utility.yul\":15523:15642   */\n    tag_396:\n        /* \"#utility.yul\":15681:15682   */\n      0x00\n        /* \"#utility.yul\":15706:15759   */\n      tag_398\n        /* \"#utility.yul\":15751:15758   */\n      dup6\n        /* \"#utility.yul\":15742:15748   */\n      dup3\n        /* \"#utility.yul\":15731:15740   */\n      dup7\n        /* \"#utility.yul\":15727:15749   */\n      add\n        /* \"#utility.yul\":15706:15759   */\n      tag_185\n      jump\t// in\n    tag_398:\n        /* \"#utility.yul\":15696:15759   */\n      swap3\n      pop\n        /* \"#utility.yul\":15652:15769   */\n      pop\n        /* \"#utility.yul\":15808:15810   */\n      0x20\n        /* \"#utility.yul\":15834:15887   */\n      tag_399\n        /* \"#utility.yul\":15879:15886   */\n      dup6\n        /* \"#utility.yul\":15870:15876   */\n      dup3\n        /* \"#utility.yul\":15859:15868   */\n      dup7\n        /* \"#utility.yul\":15855:15877   */\n      add\n        /* \"#utility.yul\":15834:15887   */\n      tag_222\n      jump\t// in\n    tag_399:\n        /* \"#utility.yul\":15824:15887   */\n      swap2\n      pop\n        /* \"#utility.yul\":15779:15897   */\n      pop\n        /* \"#utility.yul\":15430:15904   */\n      swap3\n      pop\n      swap3\n      swap1\n      pop\n      jump\t// out\n        /* \"#utility.yul\":15910:16000   */\n    tag_223:\n        /* \"#utility.yul\":15944:15951   */\n      0x00\n        /* \"#utility.yul\":15987:15992   */\n      dup2\n        /* \"#utility.yul\":15980:15993   */\n      iszero\n        /* \"#utility.yul\":15973:15994   */\n      iszero\n        /* \"#utility.yul\":15962:15994   */\n      swap1\n      pop\n        /* \"#utility.yul\":15910:16000   */\n      swap2\n      swap1\n      pop\n      jump\t// out\n        /* \"#utility.yul\":16006:16115   */\n    tag_224:\n        /* \"#utility.yul\":16087:16108   */\n      tag_402\n        /* \"#utility.yul\":16102:16107   */\n      dup2\n        /* \"#utility.yul\":16087:16108   */\n      tag_223\n      jump\t// in\n    tag_402:\n        /* \"#utility.yul\":16082:16085   */\n      dup3\n        /* \"#utility.yul\":16075:16109   */\n      mstore\n        /* \"#utility.yul\":16006:16115   */\n      pop\n      pop\n      jump\t// out\n        /* \"#utility.yul\":16121:16331   */\n    tag_39:\n        /* \"#utility.yul\":16208:16212   */\n      0x00\n        /* \"#utility.yul\":16246:16248   */\n      0x20\n        /* \"#utility.yul\":16235:16244   */\n      dup3\n        /* \"#utility.yul\":16231:16249   */\n      add\n        /* \"#utility.yul\":16223:16249   */\n      swap1\n      pop\n        /* \"#utility.yul\":16259:16324   */\n      tag_404\n        /* \"#utility.yul\":16321:16322   */\n      0x00\n        /* \"#utility.yul\":16310:16319   */\n      dup4\n        /* \"#utility.yul\":16306:16323   */\n      add\n        /* \"#utility.yul\":16297:16303   */\n      dup5\n        /* \"#utility.yul\":16259:16324   */\n      tag_224\n      jump\t// in\n    tag_404:\n        /* \"#utility.yul\":16121:16331   */\n      swap3\n      swap2\n      pop\n      pop\n      jump\t// out\n        /* \"#utility.yul\":16337:16454   */\n    tag_225:\n        /* \"#utility.yul\":16446:16447   */\n      0x00\n        /* \"#utility.yul\":16443:16444   */\n      dup1\n        /* \"#utility.yul\":16436:16448   */\n      revert\n        /* \"#utility.yul\":16460:16577   */\n    tag_226:\n        /* \"#utility.yul\":16569:16570   */\n      0x00\n        /* \"#utility.yul\":16566:16567   */\n      dup1\n        /* \"#utility.yul\":16559:16571   */\n      revert\n        /* \"#utility.yul\":16583:16763   */\n    tag_67:\n        /* \"#utility.yul\":16631:16708   */\n      0x4e487b7100000000000000000000000000000000000000000000000000000000\n        /* \"#utility.yul\":16628:16629   */\n      0x00\n        /* \"#utility.yul\":16621:16709   */\n      mstore\n        /* \"#utility.yul\":16728:16732   */\n      0x41\n        /* \"#utility.yul\":16725:16726   */\n      0x04\n        /* \"#utility.yul\":16718:16733   */\n      mstore\n        /* \"#utility.yul\":16752:16756   */\n      0x24\n        /* \"#utility.yul\":16749:16750   */\n      0x00\n        /* \"#utility.yul\":16742:16757   */\n      revert\n        /* \"#utility.yul\":16769:17050   */\n    tag_227:\n        /* \"#utility.yul\":16852:16879   */\n      tag_409\n        /* \"#utility.yul\":16874:16878   */\n      dup3\n        /* \"#utility.yul\":16852:16879   */\n      tag_194\n      jump\t// in\n    tag_409:\n        /* \"#utility.yul\":16844:16850   */\n      dup2\n        /* \"#utility.yul\":16840:16880   */\n      add\n        /* \"#utility.yul\":16982:16988   */\n      dup2\n        /* \"#utility.yul\":16970:16980   */\n      dup2\n        /* \"#utility.yul\":16967:16989   */\n      lt\n        /* \"#utility.yul\":16946:16964   */\n      0xffffffffffffffff\n        /* \"#utility.yul\":16934:16944   */\n      dup3\n        /* \"#utility.yul\":16931:16965   */\n      gt\n        /* \"#utility.yul\":16928:16990   */\n      or\n        /* \"#utility.yul\":16925:17013   */\n      iszero\n      tag_410\n      jumpi\n        /* \"#utility.yul\":16993:17011   */\n      tag_411\n      tag_67\n      jump\t// in\n    tag_411:\n        /* \"#utility.yul\":16925:17013   */\n    tag_410:\n        /* \"#utility.yul\":17033:17043   */\n      dup1\n        /* \"#utility.yul\":17029:17031   */\n      0x40\n        /* \"#utility.yul\":17022:17044   */\n      mstore\n        /* \"#utility.yul\":16812:17050   */\n      pop\n        /* \"#utility.yul\":16769:17050   */\n      pop\n      pop\n      jump\t// out\n        /* \"#utility.yul\":17056:17185   */\n    tag_228:\n        /* \"#utility.yul\":17090:17096   */\n      0x00\n        /* \"#utility.yul\":17117:17137   */\n      tag_413\n      tag_180\n      jump\t// in\n    tag_413:\n        /* \"#utility.yul\":17107:17137   */\n      swap1\n      pop\n        /* \"#utility.yul\":17146:17179   */\n      tag_414\n        /* \"#utility.yul\":17174:17178   */\n      dup3\n        /* \"#utility.yul\":17166:17172   */\n      dup3\n        /* \"#utility.yul\":17146:17179   */\n      tag_227\n      jump\t// in\n    tag_414:\n        /* \"#utility.yul\":17056:17185   */\n      swap2\n      swap1\n      pop\n      jump\t// out\n        /* \"#utility.yul\":17191:17498   */\n    tag_229:\n        /* \"#utility.yul\":17252:17256   */\n      0x00\n        /* \"#utility.yul\":17342:17360   */\n      0xffffffffffffffff\n        /* \"#utility.yul\":17334:17340   */\n      dup3\n        /* \"#utility.yul\":17331:17361   */\n      gt\n        /* \"#utility.yul\":17328:17384   */\n      iszero\n      tag_416\n      jumpi\n        /* \"#utility.yul\":17364:17382   */\n      tag_417\n      tag_67\n      jump\t// in\n    tag_417:\n        /* \"#utility.yul\":17328:17384   */\n    tag_416:\n        /* \"#utility.yul\":17402:17431   */\n      tag_418\n        /* \"#utility.yul\":17424:17430   */\n      dup3\n        /* \"#utility.yul\":17402:17431   */\n      tag_194\n      jump\t// in\n    tag_418:\n        /* \"#utility.yul\":17394:17431   */\n      swap1\n      pop\n        /* \"#utility.yul\":17486:17490   */\n      0x20\n        /* \"#utility.yul\":17480:17484   */\n      dup2\n        /* \"#utility.yul\":17476:17491   */\n      add\n        /* \"#utility.yul\":17468:17491   */\n      swap1\n      pop\n        /* \"#utility.yul\":17191:17498   */\n      swap2\n      swap1\n      pop\n      jump\t// out\n        /* \"#utility.yul\":17504:17650   */\n    tag_230:\n        /* \"#utility.yul\":17601:17607   */\n      dup3\n        /* \"#utility.yul\":17596:17599   */\n      dup2\n        /* \"#utility.yul\":17591:17594   */\n      dup4\n        /* \"#utility.yul\":17578:17608   */\n      calldatacopy\n        /* \"#utility.yul\":17642:17643   */\n      0x00\n        /* \"#utility.yul\":17633:17639   */\n      dup4\n        /* \"#utility.yul\":17628:17631   */\n      dup4\n        /* \"#utility.yul\":17624:17640   */\n      add\n        /* \"#utility.yul\":17617:17644   */\n      mstore\n        /* \"#utility.yul\":17504:17650   */\n      pop\n      pop\n      pop\n      jump\t// out\n        /* \"#utility.yul\":17656:18079   */\n    tag_231:\n        /* \"#utility.yul\":17733:17738   */\n      0x00\n        /* \"#utility.yul\":17758:17823   */\n      tag_421\n        /* \"#utility.yul\":17774:17822   */\n      tag_422\n        /* \"#utility.yul\":17815:17821   */\n      dup5\n        /* \"#utility.yul\":17774:17822   */\n      tag_229\n      jump\t// in\n    tag_422:\n        /* \"#utility.yul\":17758:17823   */\n      tag_228\n      jump\t// in\n    tag_421:\n        /* \"#utility.yul\":17749:17823   */\n      swap1\n      pop\n        /* \"#utility.yul\":17846:17852   */\n      dup3\n        /* \"#utility.yul\":17839:17844   */\n      dup2\n        /* \"#utility.yul\":17832:17853   */\n      mstore\n        /* \"#utility.yul\":17884:17888   */\n      0x20\n        /* \"#utility.yul\":17877:17882   */\n      dup2\n        /* \"#utility.yul\":17873:17889   */\n      add\n        /* \"#utility.yul\":17922:17925   */\n      dup5\n        /* \"#utility.yul\":17913:17919   */\n      dup5\n        /* \"#utility.yul\":17908:17911   */\n      dup5\n        /* \"#utility.yul\":17904:17920   */\n      add\n        /* \"#utility.yul\":17901:17926   */\n      gt\n        /* \"#utility.yul\":17898:18010   */\n      iszero\n      tag_423\n      jumpi\n        /* \"#utility.yul\":17929:18008   */\n      tag_424\n      tag_226\n      jump\t// in\n    tag_424:\n        /* \"#utility.yul\":17898:18010   */\n    tag_423:\n        /* \"#utility.yul\":18019:18073   */\n      tag_425\n        /* \"#utility.yul\":18066:18072   */\n      dup5\n        /* \"#utility.yul\":18061:18064   */\n      dup3\n        /* \"#utility.yul\":18056:18059   */\n      dup6\n        /* \"#utility.yul\":18019:18073   */\n      tag_230\n      jump\t// in\n    tag_425:\n        /* \"#utility.yul\":17739:18079   */\n      pop\n        /* \"#utility.yul\":17656:18079   */\n      swap4\n      swap3\n      pop\n      pop\n      pop\n      jump\t// out\n        /* \"#utility.yul\":18098:18436   */\n    tag_232:\n        /* \"#utility.yul\":18153:18158   */\n      0x00\n        /* \"#utility.yul\":18202:18205   */\n      dup3\n        /* \"#utility.yul\":18195:18199   */\n      0x1f\n        /* \"#utility.yul\":18187:18193   */\n      dup4\n        /* \"#utility.yul\":18183:18200   */\n      add\n        /* \"#utility.yul\":18179:18206   */\n      slt\n        /* \"#utility.yul\":18169:18291   */\n      tag_427\n      jumpi\n        /* \"#utility.yul\":18210:18289   */\n      tag_428\n      tag_225\n      jump\t// in\n    tag_428:\n        /* \"#utility.yul\":18169:18291   */\n    tag_427:\n        /* \"#utility.yul\":18327:18333   */\n      dup2\n        /* \"#utility.yul\":18314:18334   */\n      calldataload\n        /* \"#utility.yul\":18352:18430   */\n      tag_429\n        /* \"#utility.yul\":18426:18429   */\n      dup5\n        /* \"#utility.yul\":18418:18424   */\n      dup3\n        /* \"#utility.yul\":18411:18415   */\n      0x20\n        /* \"#utility.yul\":18403:18409   */\n      dup7\n        /* \"#utility.yul\":18399:18416   */\n      add\n        /* \"#utility.yul\":18352:18430   */\n      tag_231\n      jump\t// in\n    tag_429:\n        /* \"#utility.yul\":18343:18430   */\n      swap2\n      pop\n        /* \"#utility.yul\":18159:18436   */\n      pop\n        /* \"#utility.yul\":18098:18436   */\n      swap3\n      swap2\n      pop\n      pop\n      jump\t// out\n        /* \"#utility.yul\":18442:18564   */\n    tag_233:\n        /* \"#utility.yul\":18515:18539   */\n      tag_431\n        /* \"#utility.yul\":18533:18538   */\n      dup2\n        /* \"#utility.yul\":18515:18539   */\n      tag_189\n      jump\t// in\n    tag_431:\n        /* \"#utility.yul\":18508:18513   */\n      dup2\n        /* \"#utility.yul\":18505:18540   */\n      eq\n        /* \"#utility.yul\":18495:18558   */\n      tag_432\n      jumpi\n        /* \"#utility.yul\":18554:18555   */\n      0x00\n        /* \"#utility.yul\":18551:18552   */\n      dup1\n        /* \"#utility.yul\":18544:18556   */\n      revert\n        /* \"#utility.yul\":18495:18558   */\n    tag_432:\n        /* \"#utility.yul\":18442:18564   */\n      pop\n      jump\t// out\n        /* \"#utility.yul\":18570:18709   */\n    tag_234:\n        /* \"#utility.yul\":18616:18621   */\n      0x00\n        /* \"#utility.yul\":18654:18660   */\n      dup2\n        /* \"#utility.yul\":18641:18661   */\n      calldataload\n        /* \"#utility.yul\":18632:18661   */\n      swap1\n      pop\n        /* \"#utility.yul\":18670:18703   */\n      tag_434\n        /* \"#utility.yul\":18697:18702   */\n      dup2\n        /* \"#utility.yul\":18670:18703   */\n      tag_233\n      jump\t// in\n    tag_434:\n        /* \"#utility.yul\":18570:18709   */\n      swap3\n      swap2\n      pop\n      pop\n      jump\t// out\n        /* \"#utility.yul\":18715:19512   */\n    tag_42:\n        /* \"#utility.yul\":18801:18807   */\n      0x00\n        /* \"#utility.yul\":18809:18815   */\n      dup1\n        /* \"#utility.yul\":18817:18823   */\n      0x00\n        /* \"#utility.yul\":18866:18868   */\n      0x60\n        /* \"#utility.yul\":18854:18863   */\n      dup5\n        /* \"#utility.yul\":18845:18852   */\n      dup7\n        /* \"#utility.yul\":18841:18864   */\n      sub\n        /* \"#utility.yul\":18837:18869   */\n      slt\n        /* \"#utility.yul\":18834:18953   */\n      iszero\n      tag_436\n      jumpi\n        /* \"#utility.yul\":18872:18951   */\n      tag_437\n      tag_181\n      jump\t// in\n    tag_437:\n        /* \"#utility.yul\":18834:18953   */\n    tag_436:\n        /* \"#utility.yul\":18992:18993   */\n      0x00\n        /* \"#utility.yul\":19017:19070   */\n      tag_438\n        /* \"#utility.yul\":19062:19069   */\n      dup7\n        /* \"#utility.yul\":19053:19059   */\n      dup3\n        /* \"#utility.yul\":19042:19051   */\n      dup8\n        /* \"#utility.yul\":19038:19060   */\n      add\n        /* \"#utility.yul\":19017:19070   */\n      tag_185\n      jump\t// in\n    tag_438:\n        /* \"#utility.yul\":19007:19070   */\n      swap4\n      pop\n        /* \"#utility.yul\":18963:19080   */\n      pop\n        /* \"#utility.yul\":19147:19149   */\n      0x20\n        /* \"#utility.yul\":19136:19145   */\n      dup5\n        /* \"#utility.yul\":19132:19150   */\n      add\n        /* \"#utility.yul\":19119:19151   */\n      calldataload\n        /* \"#utility.yul\":19178:19196   */\n      0xffffffffffffffff\n        /* \"#utility.yul\":19170:19176   */\n      dup2\n        /* \"#utility.yul\":19167:19197   */\n      gt\n        /* \"#utility.yul\":19164:19281   */\n      iszero\n      tag_439\n      jumpi\n        /* \"#utility.yul\":19200:19279   */\n      tag_440\n      tag_182\n      jump\t// in\n    tag_440:\n        /* \"#utility.yul\":19164:19281   */\n    tag_439:\n        /* \"#utility.yul\":19305:19367   */\n      tag_441\n        /* \"#utility.yul\":19359:19366   */\n      dup7\n        /* \"#utility.yul\":19350:19356   */\n      dup3\n        /* \"#utility.yul\":19339:19348   */\n      dup8\n        /* \"#utility.yul\":19335:19357   */\n      add\n        /* \"#utility.yul\":19305:19367   */\n      tag_232\n      jump\t// in\n    tag_441:\n        /* \"#utility.yul\":19295:19367   */\n      swap3\n      pop\n        /* \"#utility.yul\":19090:19377   */\n      pop\n        /* \"#utility.yul\":19416:19418   */\n      0x40\n        /* \"#utility.yul\":19442:19495   */\n      tag_442\n        /* \"#utility.yul\":19487:19494   */\n      dup7\n        /* \"#utility.yul\":19478:19484   */\n      dup3\n        /* \"#utility.yul\":19467:19476   */\n      dup8\n        /* \"#utility.yul\":19463:19485   */\n      add\n        /* \"#utility.yul\":19442:19495   */\n      tag_234\n      jump\t// in\n    tag_442:\n        /* \"#utility.yul\":19432:19495   */\n      swap2\n      pop\n        /* \"#utility.yul\":19387:19505   */\n      pop\n        /* \"#utility.yul\":18715:19512   */\n      swap3\n      pop\n      swap3\n      pop\n      swap3\n      jump\t// out\n        /* \"#utility.yul\":19518:19740   */\n    tag_47:\n        /* \"#utility.yul\":19611:19615   */\n      0x00\n        /* \"#utility.yul\":19649:19651   */\n      0x20\n        /* \"#utility.yul\":19638:19647   */\n      dup3\n        /* \"#utility.yul\":19634:19652   */\n      add\n        /* \"#utility.yul\":19626:19652   */\n      swap1\n      pop\n        /* \"#utility.yul\":19662:19733   */\n      tag_444\n        /* \"#utility.yul\":19730:19731   */\n      0x00\n        /* \"#utility.yul\":19719:19728   */\n      dup4\n        /* \"#utility.yul\":19715:19732   */\n      add\n        /* \"#utility.yul\":19706:19712   */\n      dup5\n        /* \"#utility.yul\":19662:19733   */\n      tag_210\n      jump\t// in\n    tag_444:\n        /* \"#utility.yul\":19518:19740   */\n      swap3\n      swap2\n      pop\n      pop\n      jump\t// out\n        /* \"#utility.yul\":19746:19862   */\n    tag_235:\n        /* \"#utility.yul\":19816:19837   */\n      tag_446\n        /* \"#utility.yul\":19831:19836   */\n      dup2\n        /* \"#utility.yul\":19816:19837   */\n      tag_223\n      jump\t// in\n    tag_446:\n        /* \"#utility.yul\":19809:19814   */\n      dup2\n        /* \"#utility.yul\":19806:19838   */\n      eq\n        /* \"#utility.yul\":19796:19856   */\n      tag_447\n      jumpi\n        /* \"#utility.yul\":19852:19853   */\n      0x00\n        /* \"#utility.yul\":19849:19850   */\n      dup1\n        /* \"#utility.yul\":19842:19854   */\n      revert\n        /* \"#utility.yul\":19796:19856   */\n    tag_447:\n        /* \"#utility.yul\":19746:19862   */\n      pop\n      jump\t// out\n        /* \"#utility.yul\":19868:20001   */\n    tag_236:\n        /* \"#utility.yul\":19911:19916   */\n      0x00\n        /* \"#utility.yul\":19949:19955   */\n      dup2\n        /* \"#utility.yul\":19936:19956   */\n      calldataload\n        /* \"#utility.yul\":19927:19956   */\n      swap1\n      pop\n        /* \"#utility.yul\":19965:19995   */\n      tag_449\n        /* \"#utility.yul\":19989:19994   */\n      dup2\n        /* \"#utility.yul\":19965:19995   */\n      tag_235\n      jump\t// in\n    tag_449:\n        /* \"#utility.yul\":19868:20001   */\n      swap3\n      swap2\n      pop\n      pop\n      jump\t// out\n        /* \"#utility.yul\":20007:20620   */\n    tag_50:\n        /* \"#utility.yul\":20081:20087   */\n      0x00\n        /* \"#utility.yul\":20089:20095   */\n      dup1\n        /* \"#utility.yul\":20097:20103   */\n      0x00\n        /* \"#utility.yul\":20146:20148   */\n      0x60\n        /* \"#utility.yul\":20134:20143   */\n      dup5\n        /* \"#utility.yul\":20125:20132   */\n      dup7\n        /* \"#utility.yul\":20121:20144   */\n      sub\n        /* \"#utility.yul\":20117:20149   */\n      slt\n        /* \"#utility.yul\":20114:20233   */\n      iszero\n      tag_451\n      jumpi\n        /* \"#utility.yul\":20152:20231   */\n      tag_452\n      tag_181\n      jump\t// in\n    tag_452:\n        /* \"#utility.yul\":20114:20233   */\n    tag_451:\n        /* \"#utility.yul\":20272:20273   */\n      0x00\n        /* \"#utility.yul\":20297:20350   */\n      tag_453\n        /* \"#utility.yul\":20342:20349   */\n      dup7\n        /* \"#utility.yul\":20333:20339   */\n      dup3\n        /* \"#utility.yul\":20322:20331   */\n      dup8\n        /* \"#utility.yul\":20318:20340   */\n      add\n        /* \"#utility.yul\":20297:20350   */\n      tag_185\n      jump\t// in\n    tag_453:\n        /* \"#utility.yul\":20287:20350   */\n      swap4\n      pop\n        /* \"#utility.yul\":20243:20360   */\n      pop\n        /* \"#utility.yul\":20399:20401   */\n      0x20\n        /* \"#utility.yul\":20425:20478   */\n      tag_454\n        /* \"#utility.yul\":20470:20477   */\n      dup7\n        /* \"#utility.yul\":20461:20467   */\n      dup3\n        /* \"#utility.yul\":20450:20459   */\n      dup8\n        /* \"#utility.yul\":20446:20468   */\n      add\n        /* \"#utility.yul\":20425:20478   */\n      tag_222\n      jump\t// in\n    tag_454:\n        /* \"#utility.yul\":20415:20478   */\n      swap3\n      pop\n        /* \"#utility.yul\":20370:20488   */\n      pop\n        /* \"#utility.yul\":20527:20529   */\n      0x40\n        /* \"#utility.yul\":20553:20603   */\n      tag_455\n        /* \"#utility.yul\":20595:20602   */\n      dup7\n        /* \"#utility.yul\":20586:20592   */\n      dup3\n        /* \"#utility.yul\":20575:20584   */\n      dup8\n        /* \"#utility.yul\":20571:20593   */\n      add\n        /* \"#utility.yul\":20553:20603   */\n      tag_236\n      jump\t// in\n    tag_455:\n        /* \"#utility.yul\":20543:20603   */\n      swap2\n      pop\n        /* \"#utility.yul\":20498:20613   */\n      pop\n        /* \"#utility.yul\":20007:20620   */\n      swap3\n      pop\n      swap3\n      pop\n      swap3\n      jump\t// out\n        /* \"#utility.yul\":20626:20934   */\n    tag_237:\n        /* \"#utility.yul\":20688:20692   */\n      0x00\n        /* \"#utility.yul\":20778:20796   */\n      0xffffffffffffffff\n        /* \"#utility.yul\":20770:20776   */\n      dup3\n        /* \"#utility.yul\":20767:20797   */\n      gt\n        /* \"#utility.yul\":20764:20820   */\n      iszero\n      tag_457\n      jumpi\n        /* \"#utility.yul\":20800:20818   */\n      tag_458\n      tag_67\n      jump\t// in\n    tag_458:\n        /* \"#utility.yul\":20764:20820   */\n    tag_457:\n        /* \"#utility.yul\":20838:20867   */\n      tag_459\n        /* \"#utility.yul\":20860:20866   */\n      dup3\n        /* \"#utility.yul\":20838:20867   */\n      tag_194\n      jump\t// in\n    tag_459:\n        /* \"#utility.yul\":20830:20867   */\n      swap1\n      pop\n        /* \"#utility.yul\":20922:20926   */\n      0x20\n        /* \"#utility.yul\":20916:20920   */\n      dup2\n        /* \"#utility.yul\":20912:20927   */\n      add\n        /* \"#utility.yul\":20904:20927   */\n      swap1\n      pop\n        /* \"#utility.yul\":20626:20934   */\n      swap2\n      swap1\n      pop\n      jump\t// out\n        /* \"#utility.yul\":20940:21365   */\n    tag_238:\n        /* \"#utility.yul\":21018:21023   */\n      0x00\n        /* \"#utility.yul\":21043:21109   */\n      tag_461\n        /* \"#utility.yul\":21059:21108   */\n      tag_462\n        /* \"#utility.yul\":21101:21107   */\n      dup5\n        /* \"#utility.yul\":21059:21108   */\n      tag_237\n      jump\t// in\n    tag_462:\n        /* \"#utility.yul\":21043:21109   */\n      tag_228\n      jump\t// in\n    tag_461:\n        /* \"#utility.yul\":21034:21109   */\n      swap1\n      pop\n        /* \"#utility.yul\":21132:21138   */\n      dup3\n        /* \"#utility.yul\":21125:21130   */\n      dup2\n        /* \"#utility.yul\":21118:21139   */\n      mstore\n        /* \"#utility.yul\":21170:21174   */\n      0x20\n        /* \"#utility.yul\":21163:21168   */\n      dup2\n        /* \"#utility.yul\":21159:21175   */\n      add\n        /* \"#utility.yul\":21208:21211   */\n      dup5\n        /* \"#utility.yul\":21199:21205   */\n      dup5\n        /* \"#utility.yul\":21194:21197   */\n      dup5\n        /* \"#utility.yul\":21190:21206   */\n      add\n        /* \"#utility.yul\":21187:21212   */\n      gt\n        /* \"#utility.yul\":21184:21296   */\n      iszero\n      tag_463\n      jumpi\n        /* \"#utility.yul\":21215:21294   */\n      tag_464\n      tag_226\n      jump\t// in\n    tag_464:\n        /* \"#utility.yul\":21184:21296   */\n    tag_463:\n        /* \"#utility.yul\":21305:21359   */\n      tag_465\n        /* \"#utility.yul\":21352:21358   */\n      dup5\n        /* \"#utility.yul\":21347:21350   */\n      dup3\n        /* \"#utility.yul\":21342:21345   */\n      dup6\n        /* \"#utility.yul\":21305:21359   */\n      tag_230\n      jump\t// in\n    tag_465:\n        /* \"#utility.yul\":21024:21365   */\n      pop\n        /* \"#utility.yul\":20940:21365   */\n      swap4\n      swap3\n      pop\n      pop\n      pop\n      jump\t// out\n        /* \"#utility.yul\":21385:21725   */\n    tag_239:\n        /* \"#utility.yul\":21441:21446   */\n      0x00\n        /* \"#utility.yul\":21490:21493   */\n      dup3\n        /* \"#utility.yul\":21483:21487   */\n      0x1f\n        /* \"#utility.yul\":21475:21481   */\n      dup4\n        /* \"#utility.yul\":21471:21488   */\n      add\n        /* \"#utility.yul\":21467:21494   */\n      slt\n        /* \"#utility.yul\":21457:21579   */\n      tag_467\n      jumpi\n        /* \"#utility.yul\":21498:21577   */\n      tag_468\n      tag_225\n      jump\t// in\n    tag_468:\n        /* \"#utility.yul\":21457:21579   */\n    tag_467:\n        /* \"#utility.yul\":21615:21621   */\n      dup2\n        /* \"#utility.yul\":21602:21622   */\n      calldataload\n        /* \"#utility.yul\":21640:21719   */\n      tag_469\n        /* \"#utility.yul\":21715:21718   */\n      dup5\n        /* \"#utility.yul\":21707:21713   */\n      dup3\n        /* \"#utility.yul\":21700:21704   */\n      0x20\n        /* \"#utility.yul\":21692:21698   */\n      dup7\n        /* \"#utility.yul\":21688:21705   */\n      add\n        /* \"#utility.yul\":21640:21719   */\n      tag_238\n      jump\t// in\n    tag_469:\n        /* \"#utility.yul\":21631:21719   */\n      swap2\n      pop\n        /* \"#utility.yul\":21447:21725   */\n      pop\n        /* \"#utility.yul\":21385:21725   */\n      swap3\n      swap2\n      pop\n      pop\n      jump\t// out\n        /* \"#utility.yul\":21731:23798   */\n    tag_54:\n        /* \"#utility.yul\":21892:21898   */\n      0x00\n        /* \"#utility.yul\":21900:21906   */\n      dup1\n        /* \"#utility.yul\":21908:21914   */\n      0x00\n        /* \"#utility.yul\":21916:21922   */\n      dup1\n        /* \"#utility.yul\":21924:21930   */\n      0x00\n        /* \"#utility.yul\":21932:21938   */\n      dup1\n        /* \"#utility.yul\":21940:21946   */\n      0x00\n        /* \"#utility.yul\":21948:21954   */\n      dup1\n        /* \"#utility.yul\":21997:22000   */\n      0x0100\n        /* \"#utility.yul\":21985:21994   */\n      dup10\n        /* \"#utility.yul\":21976:21983   */\n      dup12\n        /* \"#utility.yul\":21972:21995   */\n      sub\n        /* \"#utility.yul\":21968:22001   */\n      slt\n        /* \"#utility.yul\":21965:22085   */\n      iszero\n      tag_471\n      jumpi\n        /* \"#utility.yul\":22004:22083   */\n      tag_472\n      tag_181\n      jump\t// in\n    tag_472:\n        /* \"#utility.yul\":21965:22085   */\n    tag_471:\n        /* \"#utility.yul\":22152:22153   */\n      0x00\n        /* \"#utility.yul\":22141:22150   */\n      dup10\n        /* \"#utility.yul\":22137:22154   */\n      add\n        /* \"#utility.yul\":22124:22155   */\n      calldataload\n        /* \"#utility.yul\":22182:22200   */\n      0xffffffffffffffff\n        /* \"#utility.yul\":22174:22180   */\n      dup2\n        /* \"#utility.yul\":22171:22201   */\n      gt\n        /* \"#utility.yul\":22168:22285   */\n      iszero\n      tag_473\n      jumpi\n        /* \"#utility.yul\":22204:22283   */\n      tag_474\n      tag_182\n      jump\t// in\n    tag_474:\n        /* \"#utility.yul\":22168:22285   */\n    tag_473:\n        /* \"#utility.yul\":22309:22372   */\n      tag_475\n        /* \"#utility.yul\":22364:22371   */\n      dup12\n        /* \"#utility.yul\":22355:22361   */\n      dup3\n        /* \"#utility.yul\":22344:22353   */\n      dup13\n        /* \"#utility.yul\":22340:22362   */\n      add\n        /* \"#utility.yul\":22309:22372   */\n      tag_239\n      jump\t// in\n    tag_475:\n        /* \"#utility.yul\":22299:22372   */\n      swap9\n      pop\n        /* \"#utility.yul\":22095:22382   */\n      pop\n        /* \"#utility.yul\":22449:22451   */\n      0x20\n        /* \"#utility.yul\":22438:22447   */\n      dup10\n        /* \"#utility.yul\":22434:22452   */\n      add\n        /* \"#utility.yul\":22421:22453   */\n      calldataload\n        /* \"#utility.yul\":22480:22498   */\n      0xffffffffffffffff\n        /* \"#utility.yul\":22472:22478   */\n      dup2\n        /* \"#utility.yul\":22469:22499   */\n      gt\n        /* \"#utility.yul\":22466:22583   */\n      iszero\n      tag_476\n      jumpi\n        /* \"#utility.yul\":22502:22581   */\n      tag_477\n      tag_182\n      jump\t// in\n    tag_477:\n        /* \"#utility.yul\":22466:22583   */\n    tag_476:\n        /* \"#utility.yul\":22607:22670   */\n      tag_478\n        /* \"#utility.yul\":22662:22669   */\n      dup12\n        /* \"#utility.yul\":22653:22659   */\n      dup3\n        /* \"#utility.yul\":22642:22651   */\n      dup13\n        /* \"#utility.yul\":22638:22660   */\n      add\n        /* \"#utility.yul\":22607:22670   */\n      tag_239\n      jump\t// in\n    tag_478:\n        /* \"#utility.yul\":22597:22670   */\n      swap8\n      pop\n        /* \"#utility.yul\":22392:22680   */\n      pop\n        /* \"#utility.yul\":22719:22721   */\n      0x40\n        /* \"#utility.yul\":22745:22798   */\n      tag_479\n        /* \"#utility.yul\":22790:22797   */\n      dup12\n        /* \"#utility.yul\":22781:22787   */\n      dup3\n        /* \"#utility.yul\":22770:22779   */\n      dup13\n        /* \"#utility.yul\":22766:22788   */\n      add\n        /* \"#utility.yul\":22745:22798   */\n      tag_185\n      jump\t// in\n    tag_479:\n        /* \"#utility.yul\":22735:22798   */\n      swap7\n      pop\n        /* \"#utility.yul\":22690:22808   */\n      pop\n        /* \"#utility.yul\":22847:22849   */\n      0x60\n        /* \"#utility.yul\":22873:22926   */\n      tag_480\n        /* \"#utility.yul\":22918:22925   */\n      dup12\n        /* \"#utility.yul\":22909:22915   */\n      dup3\n        /* \"#utility.yul\":22898:22907   */\n      dup13\n        /* \"#utility.yul\":22894:22916   */\n      add\n        /* \"#utility.yul\":22873:22926   */\n      tag_185\n      jump\t// in\n    tag_480:\n        /* \"#utility.yul\":22863:22926   */\n      swap6\n      pop\n        /* \"#utility.yul\":22818:22936   */\n      pop\n        /* \"#utility.yul\":22975:22978   */\n      0x80\n        /* \"#utility.yul\":23002:23055   */\n      tag_481\n        /* \"#utility.yul\":23047:23054   */\n      dup12\n        /* \"#utility.yul\":23038:23044   */\n      dup3\n        /* \"#utility.yul\":23027:23036   */\n      dup13\n        /* \"#utility.yul\":23023:23045   */\n      add\n        /* \"#utility.yul\":23002:23055   */\n      tag_185\n      jump\t// in\n    tag_481:\n        /* \"#utility.yul\":22992:23055   */\n      swap5\n      pop\n        /* \"#utility.yul\":22946:23065   */\n      pop\n        /* \"#utility.yul\":23132:23135   */\n      0xa0\n        /* \"#utility.yul\":23121:23130   */\n      dup10\n        /* \"#utility.yul\":23117:23136   */\n      add\n        /* \"#utility.yul\":23104:23137   */\n      calldataload\n        /* \"#utility.yul\":23164:23182   */\n      0xffffffffffffffff\n        /* \"#utility.yul\":23156:23162   */\n      dup2\n        /* \"#utility.yul\":23153:23183   */\n      gt\n        /* \"#utility.yul\":23150:23267   */\n      iszero\n      tag_482\n      jumpi\n        /* \"#utility.yul\":23186:23265   */\n      tag_483\n      tag_182\n      jump\t// in\n    tag_483:\n        /* \"#utility.yul\":23150:23267   */\n    tag_482:\n        /* \"#utility.yul\":23291:23354   */\n      tag_484\n        /* \"#utility.yul\":23346:23353   */\n      dup12\n        /* \"#utility.yul\":23337:23343   */\n      dup3\n        /* \"#utility.yul\":23326:23335   */\n      dup13\n        /* \"#utility.yul\":23322:23344   */\n      add\n        /* \"#utility.yul\":23291:23354   */\n      tag_239\n      jump\t// in\n    tag_484:\n        /* \"#utility.yul\":23281:23354   */\n      swap4\n      pop\n        /* \"#utility.yul\":23075:23364   */\n      pop\n        /* \"#utility.yul\":23431:23434   */\n      0xc0\n        /* \"#utility.yul\":23420:23429   */\n      dup10\n        /* \"#utility.yul\":23416:23435   */\n      add\n        /* \"#utility.yul\":23403:23436   */\n      calldataload\n        /* \"#utility.yul\":23463:23481   */\n      0xffffffffffffffff\n        /* \"#utility.yul\":23455:23461   */\n      dup2\n        /* \"#utility.yul\":23452:23482   */\n      gt\n        /* \"#utility.yul\":23449:23566   */\n      iszero\n      tag_485\n      jumpi\n        /* \"#utility.yul\":23485:23564   */\n      tag_486\n      tag_182\n      jump\t// in\n    tag_486:\n        /* \"#utility.yul\":23449:23566   */\n    tag_485:\n        /* \"#utility.yul\":23590:23652   */\n      tag_487\n        /* \"#utility.yul\":23644:23651   */\n      dup12\n        /* \"#utility.yul\":23635:23641   */\n      dup3\n        /* \"#utility.yul\":23624:23633   */\n      dup13\n        /* \"#utility.yul\":23620:23642   */\n      add\n        /* \"#utility.yul\":23590:23652   */\n      tag_232\n      jump\t// in\n    tag_487:\n        /* \"#utility.yul\":23580:23652   */\n      swap3\n      pop\n        /* \"#utility.yul\":23374:23662   */\n      pop\n        /* \"#utility.yul\":23701:23704   */\n      0xe0\n        /* \"#utility.yul\":23728:23781   */\n      tag_488\n        /* \"#utility.yul\":23773:23780   */\n      dup12\n        /* \"#utility.yul\":23764:23770   */\n      dup3\n        /* \"#utility.yul\":23753:23762   */\n      dup13\n        /* \"#utility.yul\":23749:23771   */\n      add\n        /* \"#utility.yul\":23728:23781   */\n      tag_234\n      jump\t// in\n    tag_488:\n        /* \"#utility.yul\":23718:23781   */\n      swap2\n      pop\n        /* \"#utility.yul\":23672:23791   */\n      pop\n        /* \"#utility.yul\":21731:23798   */\n      swap3\n      swap6\n      swap9\n      pop\n      swap3\n      swap6\n      swap9\n      swap1\n      swap4\n      swap7\n      pop\n      jump\t// out\n        /* \"#utility.yul\":23804:23984   */\n    tag_240:\n        /* \"#utility.yul\":23852:23929   */\n      0x4e487b7100000000000000000000000000000000000000000000000000000000\n        /* \"#utility.yul\":23849:23850   */\n      0x00\n        /* \"#utility.yul\":23842:23930   */\n      mstore\n        /* \"#utility.yul\":23949:23953   */\n      0x22\n        /* \"#utility.yul\":23946:23947   */\n      0x04\n        /* \"#utility.yul\":23939:23954   */\n      mstore\n        /* \"#utility.yul\":23973:23977   */\n      0x24\n        /* \"#utility.yul\":23970:23971   */\n      0x00\n        /* \"#utility.yul\":23963:23978   */\n      revert\n        /* \"#utility.yul\":23990:24310   */\n    tag_59:\n        /* \"#utility.yul\":24034:24040   */\n      0x00\n        /* \"#utility.yul\":24071:24072   */\n      0x02\n        /* \"#utility.yul\":24065:24069   */\n      dup3\n        /* \"#utility.yul\":24061:24073   */\n      div\n        /* \"#utility.yul\":24051:24073   */\n      swap1\n      pop\n        /* \"#utility.yul\":24118:24119   */\n      0x01\n        /* \"#utility.yul\":24112:24116   */\n      dup3\n        /* \"#utility.yul\":24108:24120   */\n      and\n        /* \"#utility.yul\":24139:24157   */\n      dup1\n        /* \"#utility.yul\":24129:24210   */\n      tag_491\n      jumpi\n        /* \"#utility.yul\":24195:24199   */\n      0x7f\n        /* \"#utility.yul\":24187:24193   */\n      dup3\n        /* \"#utility.yul\":24183:24200   */\n      and\n        /* \"#utility.yul\":24173:24200   */\n      swap2\n      pop\n        /* \"#utility.yul\":24129:24210   */\n    tag_491:\n        /* \"#utility.yul\":24257:24259   */\n      0x20\n        /* \"#utility.yul\":24249:24255   */\n      dup3\n        /* \"#utility.yul\":24246:24260   */\n      lt\n        /* \"#utility.yul\":24226:24244   */\n      dup2\n        /* \"#utility.yul\":24223:24261   */\n      sub\n        /* \"#utility.yul\":24220:24304   */\n      tag_492\n      jumpi\n        /* \"#utility.yul\":24276:24294   */\n      tag_493\n      tag_240\n      jump\t// in\n    tag_493:\n        /* \"#utility.yul\":24220:24304   */\n    tag_492:\n        /* \"#utility.yul\":24041:24310   */\n      pop\n        /* \"#utility.yul\":23990:24310   */\n      swap2\n      swap1\n      pop\n      jump\t// out\n        /* \"#utility.yul\":24316:24496   */\n    tag_92:\n        /* \"#utility.yul\":24364:24441   */\n      0x4e487b7100000000000000000000000000000000000000000000000000000000\n        /* \"#utility.yul\":24361:24362   */\n      0x00\n        /* \"#utility.yul\":24354:24442   */\n      mstore\n        /* \"#utility.yul\":24461:24465   */\n      0x32\n        /* \"#utility.yul\":24458:24459   */\n      0x04\n        /* \"#utility.yul\":24451:24466   */\n      mstore\n        /* \"#utility.yul\":24485:24489   */\n      0x24\n        /* \"#utility.yul\":24482:24483   */\n      0x00\n        /* \"#utility.yul\":24475:24490   */\n      revert\n        /* \"#utility.yul\":24502:24673   */\n    tag_241:\n        /* \"#utility.yul\":24642:24665   */\n      0x537570706c656d656e74206e6f7420666f756e642e0000000000000000000000\n        /* \"#utility.yul\":24638:24639   */\n      0x00\n        /* \"#utility.yul\":24630:24636   */\n      dup3\n        /* \"#utility.yul\":24626:24640   */\n      add\n        /* \"#utility.yul\":24619:24666   */\n      mstore\n        /* \"#utility.yul\":24502:24673   */\n      pop\n      jump\t// out\n        /* \"#utility.yul\":24679:25045   */\n    tag_242:\n        /* \"#utility.yul\":24821:24824   */\n      0x00\n        /* \"#utility.yul\":24842:24909   */\n      tag_497\n        /* \"#utility.yul\":24906:24908   */\n      0x15\n        /* \"#utility.yul\":24901:24904   */\n      dup4\n        /* \"#utility.yul\":24842:24909   */\n      tag_208\n      jump\t// in\n    tag_497:\n        /* \"#utility.yul\":24835:24909   */\n      swap2\n      pop\n        /* \"#utility.yul\":24918:25011   */\n      tag_498\n        /* \"#utility.yul\":25007:25010   */\n      dup3\n        /* \"#utility.yul\":24918:25011   */\n      tag_241\n      jump\t// in\n    tag_498:\n        /* \"#utility.yul\":25036:25038   */\n      0x20\n        /* \"#utility.yul\":25031:25034   */\n      dup3\n        /* \"#utility.yul\":25027:25039   */\n      add\n        /* \"#utility.yul\":25020:25039   */\n      swap1\n      pop\n        /* \"#utility.yul\":24679:25045   */\n      swap2\n      swap1\n      pop\n      jump\t// out\n        /* \"#utility.yul\":25051:25470   */\n    tag_111:\n        /* \"#utility.yul\":25217:25221   */\n      0x00\n        /* \"#utility.yul\":25255:25257   */\n      0x20\n        /* \"#utility.yul\":25244:25253   */\n      dup3\n        /* \"#utility.yul\":25240:25258   */\n      add\n        /* \"#utility.yul\":25232:25258   */\n      swap1\n      pop\n        /* \"#utility.yul\":25304:25313   */\n      dup2\n        /* \"#utility.yul\":25298:25302   */\n      dup2\n        /* \"#utility.yul\":25294:25314   */\n      sub\n        /* \"#utility.yul\":25290:25291   */\n      0x00\n        /* \"#utility.yul\":25279:25288   */\n      dup4\n        /* \"#utility.yul\":25275:25292   */\n      add\n        /* \"#utility.yul\":25268:25315   */\n      mstore\n        /* \"#utility.yul\":25332:25463   */\n      tag_500\n        /* \"#utility.yul\":25458:25462   */\n      dup2\n        /* \"#utility.yul\":25332:25463   */\n      tag_242\n      jump\t// in\n    tag_500:\n        /* \"#utility.yul\":25324:25463   */\n      swap1\n      pop\n        /* \"#utility.yul\":25051:25470   */\n      swap2\n      swap1\n      pop\n      jump\t// out\n        /* \"#utility.yul\":25476:25711   */\n    tag_243:\n        /* \"#utility.yul\":25616:25650   */\n      0x4f6e6c7920617574686f72697a656420706172746965732063616e207369676e\n        /* \"#utility.yul\":25612:25613   */\n      0x00\n        /* \"#utility.yul\":25604:25610   */\n      dup3\n        /* \"#utility.yul\":25600:25614   */\n      add\n        /* \"#utility.yul\":25593:25651   */\n      mstore\n        /* \"#utility.yul\":25685:25703   */\n      0x2074686520737570706c656d656e742e00000000000000000000000000000000\n        /* \"#utility.yul\":25680:25682   */\n      0x20\n        /* \"#utility.yul\":25672:25678   */\n      dup3\n        /* \"#utility.yul\":25668:25683   */\n      add\n        /* \"#utility.yul\":25661:25704   */\n      mstore\n        /* \"#utility.yul\":25476:25711   */\n      pop\n      jump\t// out\n        /* \"#utility.yul\":25717:26083   */\n    tag_244:\n        /* \"#utility.yul\":25859:25862   */\n      0x00\n        /* \"#utility.yul\":25880:25947   */\n      tag_503\n        /* \"#utility.yul\":25944:25946   */\n      0x30\n        /* \"#utility.yul\":25939:25942   */\n      dup4\n        /* \"#utility.yul\":25880:25947   */\n      tag_208\n      jump\t// in\n    tag_503:\n        /* \"#utility.yul\":25873:25947   */\n      swap2\n      pop\n        /* \"#utility.yul\":25956:26049   */\n      tag_504\n        /* \"#utility.yul\":26045:26048   */\n      dup3\n        /* \"#utility.yul\":25956:26049   */\n      tag_243\n      jump\t// in\n    tag_504:\n        /* \"#utility.yul\":26074:26076   */\n      0x40\n        /* \"#utility.yul\":26069:26072   */\n      dup3\n        /* \"#utility.yul\":26065:26077   */\n      add\n        /* \"#utility.yul\":26058:26077   */\n      swap1\n      pop\n        /* \"#utility.yul\":25717:26083   */\n      swap2\n      swap1\n      pop\n      jump\t// out\n        /* \"#utility.yul\":26089:26508   */\n    tag_140:\n        /* \"#utility.yul\":26255:26259   */\n      0x00\n        /* \"#utility.yul\":26293:26295   */\n      0x20\n        /* \"#utility.yul\":26282:26291   */\n      dup3\n        /* \"#utility.yul\":26278:26296   */\n      add\n        /* \"#utility.yul\":26270:26296   */\n      swap1\n      pop\n        /* \"#utility.yul\":26342:26351   */\n      dup2\n        /* \"#utility.yul\":26336:26340   */\n      dup2\n        /* \"#utility.yul\":26332:26352   */\n      sub\n        /* \"#utility.yul\":26328:26329   */\n      0x00\n        /* \"#utility.yul\":26317:26326   */\n      dup4\n        /* \"#utility.yul\":26313:26330   */\n      add\n        /* \"#utility.yul\":26306:26353   */\n      mstore\n        /* \"#utility.yul\":26370:26501   */\n      tag_506\n        /* \"#utility.yul\":26496:26500   */\n      dup2\n        /* \"#utility.yul\":26370:26501   */\n      tag_244\n      jump\t// in\n    tag_506:\n        /* \"#utility.yul\":26362:26501   */\n      swap1\n      pop\n        /* \"#utility.yul\":26089:26508   */\n      swap2\n      swap1\n      pop\n      jump\t// out\n        /* \"#utility.yul\":26514:26654   */\n    tag_245:\n        /* \"#utility.yul\":26562:26566   */\n      0x00\n        /* \"#utility.yul\":26585:26588   */\n      dup2\n        /* \"#utility.yul\":26577:26588   */\n      swap1\n      pop\n        /* \"#utility.yul\":26608:26611   */\n      dup2\n        /* \"#utility.yul\":26605:26606   */\n      0x00\n        /* \"#utility.yul\":26598:26612   */\n      mstore\n        /* \"#utility.yul\":26642:26646   */\n      0x20\n        /* \"#utility.yul\":26639:26640   */\n      0x00\n        /* \"#utility.yul\":26629:26647   */\n      keccak256\n        /* \"#utility.yul\":26621:26647   */\n      swap1\n      pop\n        /* \"#utility.yul\":26514:26654   */\n      swap2\n      swap1\n      pop\n      jump\t// out\n        /* \"#utility.yul\":26660:26753   */\n    tag_246:\n        /* \"#utility.yul\":26697:26703   */\n      0x00\n        /* \"#utility.yul\":26744:26746   */\n      0x20\n        /* \"#utility.yul\":26739:26741   */\n      0x1f\n        /* \"#utility.yul\":26732:26737   */\n      dup4\n        /* \"#utility.yul\":26728:26742   */\n      add\n        /* \"#utility.yul\":26724:26747   */\n      div\n        /* \"#utility.yul\":26714:26747   */\n      swap1\n      pop\n        /* \"#utility.yul\":26660:26753   */\n      swap2\n      swap1\n      pop\n      jump\t// out\n        /* \"#utility.yul\":26759:26866   */\n    tag_247:\n        /* \"#utility.yul\":26803:26811   */\n      0x00\n        /* \"#utility.yul\":26853:26858   */\n      dup3\n        /* \"#utility.yul\":26847:26851   */\n      dup3\n        /* \"#utility.yul\":26843:26859   */\n      shl\n        /* \"#utility.yul\":26822:26859   */\n      swap1\n      pop\n        /* \"#utility.yul\":26759:26866   */\n      swap3\n      swap2\n      pop\n      pop\n      jump\t// out\n        /* \"#utility.yul\":26872:27265   */\n    tag_248:\n        /* \"#utility.yul\":26941:26947   */\n      0x00\n        /* \"#utility.yul\":26991:26992   */\n      0x08\n        /* \"#utility.yul\":26979:26989   */\n      dup4\n        /* \"#utility.yul\":26975:26993   */\n      mul\n        /* \"#utility.yul\":27014:27111   */\n      tag_511\n        /* \"#utility.yul\":27044:27110   */\n      0xffffffffffffffffffffffffffffffffffffffffffffffffffffffffffffffff\n        /* \"#utility.yul\":27033:27042   */\n      dup3\n        /* \"#utility.yul\":27014:27111   */\n      tag_247\n      jump\t// in\n    tag_511:\n        /* \"#utility.yul\":27132:27171   */\n      tag_512\n        /* \"#utility.yul\":27162:27170   */\n      dup7\n        /* \"#utility.yul\":27151:27160   */\n      dup4\n        /* \"#utility.yul\":27132:27171   */\n      tag_247\n      jump\t// in\n    tag_512:\n        /* \"#utility.yul\":27120:27171   */\n      swap6\n      pop\n        /* \"#utility.yul\":27204:27208   */\n      dup1\n        /* \"#utility.yul\":27200:27209   */\n      not\n        /* \"#utility.yul\":27193:27198   */\n      dup5\n        /* \"#utility.yul\":27189:27210   */\n      and\n        /* \"#utility.yul\":27180:27210   */\n      swap4\n      pop\n        /* \"#utility.yul\":27253:27257   */\n      dup1\n        /* \"#utility.yul\":27243:27251   */\n      dup7\n        /* \"#utility.yul\":27239:27258   */\n      and\n        /* \"#utility.yul\":27232:27237   */\n      dup5\n        /* \"#utility.yul\":27229:27259   */\n      or\n        /* \"#utility.yul\":27219:27259   */\n      swap3\n      pop\n        /* \"#utility.yul\":26948:27265   */\n      pop\n      pop\n        /* \"#utility.yul\":26872:27265   */\n      swap4\n      swap3\n      pop\n      pop\n      pop\n      jump\t// out\n        /* \"#utility.yul\":27271:27331   */\n    tag_249:\n        /* \"#utility.yul\":27299:27302   */\n      0x00\n        /* \"#utility.yul\":27320:27325   */\n      dup2\n        /* \"#utility.yul\":27313:27325   */\n      swap1\n      pop\n        /* \"#utility.yul\":27271:27331   */\n      swap2\n      swap1\n      pop\n      jump\t// out\n        /* \"#utility.yul\":27337:27479   */\n    tag_250:\n        /* \"#utility.yul\":27387:27396   */\n      0x00\n        /* \"#utility.yul\":27420:27473   */\n      tag_515\n        /* \"#utility.yul\":27438:27472   */\n      tag_516\n        /* \"#utility.yul\":27447:27471   */\n      tag_517\n        /* \"#utility.yul\":27465:27470   */\n      dup5\n        /* \"#utility.yul\":27447:27471   */\n      tag_183\n      jump\t// in\n    tag_517:\n        /* \"#utility.yul\":27438:27472   */\n      tag_249\n      jump\t// in\n    tag_516:\n        /* \"#utility.yul\":27420:27473   */\n      tag_183\n      jump\t// in\n    tag_515:\n        /* \"#utility.yul\":27407:27473   */\n      swap1\n      pop\n        /* \"#utility.yul\":27337:27479   */\n      swap2\n      swap1\n      pop\n      jump\t// out\n        /* \"#utility.yul\":27485:27560   */\n    tag_251:\n        /* \"#utility.yul\":27528:27531   */\n      0x00\n        /* \"#utility.yul\":27549:27554   */\n      dup2\n        /* \"#utility.yul\":27542:27554   */\n      swap1\n      pop\n        /* \"#utility.yul\":27485:27560   */\n      swap2\n      swap1\n      pop\n      jump\t// out\n        /* \"#utility.yul\":27566:27835   */\n    tag_252:\n        /* \"#utility.yul\":27676:27715   */\n      tag_520\n        /* \"#utility.yul\":27707:27714   */\n      dup4\n        /* \"#utility.yul\":27676:27715   */\n      tag_250\n      jump\t// in\n    tag_520:\n        /* \"#utility.yul\":27737:27828   */\n      tag_521\n        /* \"#utility.yul\":27786:27827   */\n      tag_522\n        /* \"#utility.yul\":27810:27826   */\n      dup3\n        /* \"#utility.yul\":27786:27827   */\n      tag_251\n      jump\t// in\n    tag_522:\n        /* \"#utility.yul\":27778:27784   */\n      dup5\n        /* \"#utility.yul\":27771:27775   */\n      dup5\n        /* \"#utility.yul\":27765:27776   */\n      sload\n        /* \"#utility.yul\":27737:27828   */\n      tag_248\n      jump\t// in\n    tag_521:\n        /* \"#utility.yul\":27731:27735   */\n      dup3\n        /* \"#utility.yul\":27724:27829   */\n      sstore\n        /* \"#utility.yul\":27642:27835   */\n      pop\n        /* \"#utility.yul\":27566:27835   */\n      pop\n      pop\n      pop\n      jump\t// out\n        /* \"#utility.yul\":27841:27914   */\n    tag_253:\n        /* \"#utility.yul\":27886:27889   */\n      0x00\n        /* \"#utility.yul\":27841:27914   */\n      swap1\n      jump\t// out\n        /* \"#utility.yul\":27920:28109   */\n    tag_254:\n        /* \"#utility.yul\":27997:28029   */\n      tag_525\n      tag_253\n      jump\t// in\n    tag_525:\n        /* \"#utility.yul\":28038:28103   */\n      tag_526\n        /* \"#utility.yul\":28096:28102   */\n      dup2\n        /* \"#utility.yul\":28088:28094   */\n      dup5\n        /* \"#utility.yul\":28082:28086   */\n      dup5\n        /* \"#utility.yul\":28038:28103   */\n      tag_252\n      jump\t// in\n    tag_526:\n        /* \"#utility.yul\":27973:28109   */\n      pop\n        /* \"#utility.yul\":27920:28109   */\n      pop\n      pop\n      jump\t// out\n        /* \"#utility.yul\":28115:28301   */\n    tag_255:\n        /* \"#utility.yul\":28175:28295   */\n    tag_528:\n        /* \"#utility.yul\":28192:28195   */\n      dup2\n        /* \"#utility.yul\":28185:28190   */\n      dup2\n        /* \"#utility.yul\":28182:28196   */\n      lt\n        /* \"#utility.yul\":28175:28295   */\n      iszero\n      tag_530\n      jumpi\n        /* \"#utility.yul\":28246:28285   */\n      tag_531\n        /* \"#utility.yul\":28283:28284   */\n      0x00\n        /* \"#utility.yul\":28276:28281   */\n      dup3\n        /* \"#utility.yul\":28246:28285   */\n      tag_254\n      jump\t// in\n    tag_531:\n        /* \"#utility.yul\":28219:28220   */\n      0x01\n        /* \"#utility.yul\":28212:28217   */\n      dup2\n        /* \"#utility.yul\":28208:28221   */\n      add\n        /* \"#utility.yul\":28199:28221   */\n      swap1\n      pop\n        /* \"#utility.yul\":28175:28295   */\n      jump(tag_528)\n    tag_530:\n        /* \"#utility.yul\":28115:28301   */\n      pop\n      pop\n      jump\t// out\n        /* \"#utility.yul\":28307:28848   */\n    tag_256:\n        /* \"#utility.yul\":28407:28409   */\n      0x1f\n        /* \"#utility.yul\":28402:28405   */\n      dup3\n        /* \"#utility.yul\":28399:28410   */\n      gt\n        /* \"#utility.yul\":28396:28841   */\n      iszero\n      tag_533\n      jumpi\n        /* \"#utility.yul\":28441:28478   */\n      tag_534\n        /* \"#utility.yul\":28472:28477   */\n      dup2\n        /* \"#utility.yul\":28441:28478   */\n      tag_245\n      jump\t// in\n    tag_534:\n        /* \"#utility.yul\":28524:28553   */\n      tag_535\n        /* \"#utility.yul\":28542:28552   */\n      dup5\n        /* \"#utility.yul\":28524:28553   */\n      tag_246\n      jump\t// in\n    tag_535:\n        /* \"#utility.yul\":28514:28522   */\n      dup2\n        /* \"#utility.yul\":28510:28554   */\n      add\n        /* \"#utility.yul\":28707:28709   */\n      0x20\n        /* \"#utility.yul\":28695:28705   */\n      dup6\n        /* \"#utility.yul\":28692:28710   */\n      lt\n        /* \"#utility.yul\":28689:28738   */\n      iszero\n      tag_536\n      jumpi\n        /* \"#utility.yul\":28728:28736   */\n      dup2\n        /* \"#utility.yul\":28713:28736   */\n      swap1\n      pop\n        /* \"#utility.yul\":28689:28738   */\n    tag_536:\n        /* \"#utility.yul\":28751:28831   */\n      tag_537\n        /* \"#utility.yul\":28807:28829   */\n      tag_538\n        /* \"#utility.yul\":28825:28828   */\n      dup6\n        /* \"#utility.yul\":28807:28829   */\n      tag_246\n      jump\t// in\n    tag_538:\n        /* \"#utility.yul\":28797:28805   */\n      dup4\n        /* \"#utility.yul\":28793:28830   */\n      add\n        /* \"#utility.yul\":28780:28791   */\n      dup3\n        /* \"#utility.yul\":28751:28831   */\n      tag_255\n      jump\t// in\n    tag_537:\n        /* \"#utility.yul\":28411:28841   */\n      pop\n      pop\n        /* \"#utility.yul\":28396:28841   */\n    tag_533:\n        /* \"#utility.yul\":28307:28848   */\n      pop\n      pop\n      pop\n      jump\t// out\n        /* \"#utility.yul\":28854:28971   */\n    tag_257:\n        /* \"#utility.yul\":28908:28916   */\n      0x00\n        /* \"#utility.yul\":28958:28963   */\n      dup3\n        /* \"#utility.yul\":28952:28956   */\n      dup3\n        /* \"#utility.yul\":28948:28964   */\n      shr\n        /* \"#utility.yul\":28927:28964   */\n      swap1\n      pop\n        /* \"#utility.yul\":28854:28971   */\n      swap3\n      swap2\n      pop\n      pop\n      jump\t// out\n        /* \"#utility.yul\":28977:29146   */\n    tag_258:\n        /* \"#utility.yul\":29021:29027   */\n      0x00\n        /* \"#utility.yul\":29054:29105   */\n      tag_541\n        /* \"#utility.yul\":29102:29103   */\n      0x00\n        /* \"#utility.yul\":29098:29104   */\n      not\n        /* \"#utility.yul\":29090:29095   */\n      dup5\n        /* \"#utility.yul\":29087:29088   */\n      0x08\n        /* \"#utility.yul\":29083:29096   */\n      mul\n        /* \"#utility.yul\":29054:29105   */\n      tag_257\n      jump\t// in\n    tag_541:\n        /* \"#utility.yul\":29050:29106   */\n      not\n        /* \"#utility.yul\":29135:29139   */\n      dup1\n        /* \"#utility.yul\":29129:29133   */\n      dup4\n        /* \"#utility.yul\":29125:29140   */\n      and\n        /* \"#utility.yul\":29115:29140   */\n      swap2\n      pop\n        /* \"#utility.yul\":29028:29146   */\n      pop\n        /* \"#utility.yul\":28977:29146   */\n      swap3\n      swap2\n      pop\n      pop\n      jump\t// out\n        /* \"#utility.yul\":29151:29446   */\n    tag_259:\n        /* \"#utility.yul\":29227:29231   */\n      0x00\n        /* \"#utility.yul\":29373:29402   */\n      tag_543\n        /* \"#utility.yul\":29398:29401   */\n      dup4\n        /* \"#utility.yul\":29392:29396   */\n      dup4\n        /* \"#utility.yul\":29373:29402   */\n      tag_258\n      jump\t// in\n    tag_543:\n        /* \"#utility.yul\":29365:29402   */\n      swap2\n      pop\n        /* \"#utility.yul\":29435:29438   */\n      dup3\n        /* \"#utility.yul\":29432:29433   */\n      0x02\n        /* \"#utility.yul\":29428:29439   */\n      mul\n        /* \"#utility.yul\":29422:29426   */\n      dup3\n        /* \"#utility.yul\":29419:29440   */\n      or\n        /* \"#utility.yul\":29411:29440   */\n      swap1\n      pop\n        /* \"#utility.yul\":29151:29446   */\n      swap3\n      swap2\n      pop\n      pop\n      jump\t// out\n        /* \"#utility.yul\":29451:30841   */\n    tag_143:\n        /* \"#utility.yul\":29566:29602   */\n      tag_545\n        /* \"#utility.yul\":29598:29601   */\n      dup3\n        /* \"#utility.yul\":29566:29602   */\n      tag_191\n      jump\t// in\n    tag_545:\n        /* \"#utility.yul\":29667:29685   */\n      0xffffffffffffffff\n        /* \"#utility.yul\":29659:29665   */\n      dup2\n        /* \"#utility.yul\":29656:29686   */\n      gt\n        /* \"#utility.yul\":29653:29709   */\n      iszero\n      tag_546\n      jumpi\n        /* \"#utility.yul\":29689:29707   */\n      tag_547\n      tag_67\n      jump\t// in\n    tag_547:\n        /* \"#utility.yul\":29653:29709   */\n    tag_546:\n        /* \"#utility.yul\":29733:29771   */\n      tag_548\n        /* \"#utility.yul\":29765:29769   */\n      dup3\n        /* \"#utility.yul\":29759:29770   */\n      sload\n        /* \"#utility.yul\":29733:29771   */\n      tag_59\n      jump\t// in\n    tag_548:\n        /* \"#utility.yul\":29818:29884   */\n      tag_549\n        /* \"#utility.yul\":29877:29883   */\n      dup3\n        /* \"#utility.yul\":29869:29875   */\n      dup3\n        /* \"#utility.yul\":29863:29867   */\n      dup6\n        /* \"#utility.yul\":29818:29884   */\n      tag_256\n      jump\t// in\n    tag_549:\n        /* \"#utility.yul\":29911:29912   */\n      0x00\n        /* \"#utility.yul\":29935:29939   */\n      0x20\n        /* \"#utility.yul\":29922:29939   */\n      swap1\n      pop\n        /* \"#utility.yul\":29967:29969   */\n      0x1f\n        /* \"#utility.yul\":29959:29965   */\n      dup4\n        /* \"#utility.yul\":29956:29970   */\n      gt\n        /* \"#utility.yul\":29984:29985   */\n      0x01\n        /* \"#utility.yul\":29979:30596   */\n      dup2\n      eq\n      tag_551\n      jumpi\n        /* \"#utility.yul\":30640:30641   */\n      0x00\n        /* \"#utility.yul\":30657:30663   */\n      dup5\n        /* \"#utility.yul\":30654:30731   */\n      iszero\n      tag_552\n      jumpi\n        /* \"#utility.yul\":30706:30715   */\n      dup3\n        /* \"#utility.yul\":30701:30704   */\n      dup8\n        /* \"#utility.yul\":30697:30716   */\n      add\n        /* \"#utility.yul\":30691:30717   */\n      mload\n        /* \"#utility.yul\":30682:30717   */\n      swap1\n      pop\n        /* \"#utility.yul\":30654:30731   */\n    tag_552:\n        /* \"#utility.yul\":30757:30824   */\n      tag_553\n        /* \"#utility.yul\":30817:30823   */\n      dup6\n        /* \"#utility.yul\":30810:30815   */\n      dup3\n        /* \"#utility.yul\":30757:30824   */\n      tag_259\n      jump\t// in\n    tag_553:\n        /* \"#utility.yul\":30751:30755   */\n      dup7\n        /* \"#utility.yul\":30744:30825   */\n      sstore\n        /* \"#utility.yul\":30613:30835   */\n      pop\n        /* \"#utility.yul\":29949:30835   */\n      jump(tag_550)\n        /* \"#utility.yul\":29979:30596   */\n    tag_551:\n        /* \"#utility.yul\":30031:30035   */\n      0x1f\n        /* \"#utility.yul\":30027:30036   */\n      not\n        /* \"#utility.yul\":30019:30025   */\n      dup5\n        /* \"#utility.yul\":30015:30037   */\n      and\n        /* \"#utility.yul\":30065:30101   */\n      tag_554\n        /* \"#utility.yul\":30096:30100   */\n      dup7\n        /* \"#utility.yul\":30065:30101   */\n      tag_245\n      jump\t// in\n    tag_554:\n        /* \"#utility.yul\":30123:30124   */\n      0x00\n        /* \"#utility.yul\":30137:30345   */\n    tag_555:\n        /* \"#utility.yul\":30151:30158   */\n      dup3\n        /* \"#utility.yul\":30148:30149   */\n      dup2\n        /* \"#utility.yul\":30145:30159   */\n      lt\n        /* \"#utility.yul\":30137:30345   */\n      iszero\n      tag_557\n      jumpi\n        /* \"#utility.yul\":30230:30239   */\n      dup5\n        /* \"#utility.yul\":30225:30228   */\n      dup10\n        /* \"#utility.yul\":30221:30240   */\n      add\n        /* \"#utility.yul\":30215:30241   */\n      mload\n        /* \"#utility.yul\":30207:30213   */\n      dup3\n        /* \"#utility.yul\":30200:30242   */\n      sstore\n        /* \"#utility.yul\":30281:30282   */\n      0x01\n        /* \"#utility.yul\":30273:30279   */\n      dup3\n        /* \"#utility.yul\":30269:30283   */\n      add\n        /* \"#utility.yul\":30259:30283   */\n      swap2\n      pop\n        /* \"#utility.yul\":30328:30330   */\n      0x20\n        /* \"#utility.yul\":30317:30326   */\n      dup6\n        /* \"#utility.yul\":30313:30331   */\n      add\n        /* \"#utility.yul\":30300:30331   */\n      swap5\n      pop\n        /* \"#utility.yul\":30174:30178   */\n      0x20\n        /* \"#utility.yul\":30171:30172   */\n      dup2\n        /* \"#utility.yul\":30167:30179   */\n      add\n        /* \"#utility.yul\":30162:30179   */\n      swap1\n      pop\n        /* \"#utility.yul\":30137:30345   */\n      jump(tag_555)\n    tag_557:\n        /* \"#utility.yul\":30373:30379   */\n      dup7\n        /* \"#utility.yul\":30364:30371   */\n      dup4\n        /* \"#utility.yul\":30361:30380   */\n      lt\n        /* \"#utility.yul\":30358:30537   */\n      iszero\n      tag_558\n      jumpi\n        /* \"#utility.yul\":30431:30440   */\n      dup5\n        /* \"#utility.yul\":30426:30429   */\n      dup10\n        /* \"#utility.yul\":30422:30441   */\n      add\n        /* \"#utility.yul\":30416:30442   */\n      mload\n        /* \"#utility.yul\":30474:30522   */\n      tag_559\n        /* \"#utility.yul\":30516:30520   */\n      0x1f\n        /* \"#utility.yul\":30508:30514   */\n      dup10\n        /* \"#utility.yul\":30504:30521   */\n      and\n        /* \"#utility.yul\":30493:30502   */\n      dup3\n        /* \"#utility.yul\":30474:30522   */\n      tag_258\n      jump\t// in\n    tag_559:\n        /* \"#utility.yul\":30466:30472   */\n      dup4\n        /* \"#utility.yul\":30459:30523   */\n      sstore\n        /* \"#utility.yul\":30381:30537   */\n      pop\n        /* \"#utility.yul\":30358:30537   */\n    tag_558:\n        /* \"#utility.yul\":30583:30584   */\n      0x01\n        /* \"#utility.yul\":30579:30580   */\n      0x02\n        /* \"#utility.yul\":30571:30577   */\n      dup9\n        /* \"#utility.yul\":30567:30581   */\n      mul\n        /* \"#utility.yul\":30563:30585   */\n      add\n        /* \"#utility.yul\":30557:30561   */\n      dup9\n        /* \"#utility.yul\":30550:30586   */\n      sstore\n        /* \"#utility.yul\":29986:30596   */\n      pop\n      pop\n      pop\n        /* \"#utility.yul\":29949:30835   */\n    tag_550:\n      pop\n        /* \"#utility.yul\":29541:30841   */\n      pop\n      pop\n      pop\n        /* \"#utility.yul\":29451:30841   */\n      pop\n      pop\n      jump\t// out\n        /* \"#utility.yul\":30847:31082   */\n    tag_260:\n        /* \"#utility.yul\":30987:31021   */\n      0x4f6e6c7920746865206f776e65722063616e2073657420746865207369676e65\n        /* \"#utility.yul\":30983:30984   */\n      0x00\n        /* \"#utility.yul\":30975:30981   */\n      dup3\n        /* \"#utility.yul\":30971:30985   */\n      add\n        /* \"#utility.yul\":30964:31022   */\n      mstore\n        /* \"#utility.yul\":31056:31074   */\n      0x7220617574686f72697a6174696f6e2e00000000000000000000000000000000\n        /* \"#utility.yul\":31051:31053   */\n      0x20\n        /* \"#utility.yul\":31043:31049   */\n      dup3\n        /* \"#utility.yul\":31039:31054   */\n      add\n        /* \"#utility.yul\":31032:31075   */\n      mstore\n        /* \"#utility.yul\":30847:31082   */\n      pop\n      jump\t// out\n        /* \"#utility.yul\":31088:31454   */\n    tag_261:\n        /* \"#utility.yul\":31230:31233   */\n      0x00\n        /* \"#utility.yul\":31251:31318   */\n      tag_562\n        /* \"#utility.yul\":31315:31317   */\n      0x30\n        /* \"#utility.yul\":31310:31313   */\n      dup4\n        /* \"#utility.yul\":31251:31318   */\n      tag_208\n      jump\t// in\n    tag_562:\n        /* \"#utility.yul\":31244:31318   */\n      swap2\n      pop\n        /* \"#utility.yul\":31327:31420   */\n      tag_563\n        /* \"#utility.yul\":31416:31419   */\n      dup3\n        /* \"#utility.yul\":31327:31420   */\n      tag_260\n      jump\t// in\n    tag_563:\n        /* \"#utility.yul\":31445:31447   */\n      0x40\n        /* \"#utility.yul\":31440:31443   */\n      dup3\n        /* \"#utility.yul\":31436:31448   */\n      add\n        /* \"#utility.yul\":31429:31448   */\n      swap1\n      pop\n        /* \"#utility.yul\":31088:31454   */\n      swap2\n      swap1\n      pop\n      jump\t// out\n        /* \"#utility.yul\":31460:31879   */\n    tag_151:\n        /* \"#utility.yul\":31626:31630   */\n      0x00\n        /* \"#utility.yul\":31664:31666   */\n      0x20\n        /* \"#utility.yul\":31653:31662   */\n      dup3\n        /* \"#utility.yul\":31649:31667   */\n      add\n        /* \"#utility.yul\":31641:31667   */\n      swap1\n      pop\n        /* \"#utility.yul\":31713:31722   */\n      dup2\n        /* \"#utility.yul\":31707:31711   */\n      dup2\n        /* \"#utility.yul\":31703:31723   */\n      sub\n        /* \"#utility.yul\":31699:31700   */\n      0x00\n        /* \"#utility.yul\":31688:31697   */\n      dup4\n        /* \"#utility.yul\":31684:31701   */\n      add\n        /* \"#utility.yul\":31677:31724   */\n      mstore\n        /* \"#utility.yul\":31741:31872   */\n      tag_565\n        /* \"#utility.yul\":31867:31871   */\n      dup2\n        /* \"#utility.yul\":31741:31872   */\n      tag_261\n      jump\t// in\n    tag_565:\n        /* \"#utility.yul\":31733:31872   */\n      swap1\n      pop\n        /* \"#utility.yul\":31460:31879   */\n      swap2\n      swap1\n      pop\n      jump\t// out\n        /* \"#utility.yul\":31885:32026   */\n    tag_262:\n        /* \"#utility.yul\":31934:31938   */\n      0x00\n        /* \"#utility.yul\":31957:31960   */\n      dup2\n        /* \"#utility.yul\":31949:31960   */\n      swap1\n      pop\n        /* \"#utility.yul\":31980:31983   */\n      dup2\n        /* \"#utility.yul\":31977:31978   */\n      0x00\n        /* \"#utility.yul\":31970:31984   */\n      mstore\n        /* \"#utility.yul\":32014:32018   */\n      0x20\n        /* \"#utility.yul\":32011:32012   */\n      0x00\n        /* \"#utility.yul\":32001:32019   */\n      keccak256\n        /* \"#utility.yul\":31993:32019   */\n      swap1\n      pop\n        /* \"#utility.yul\":31885:32026   */\n      swap2\n      swap1\n      pop\n      jump\t// out\n        /* \"#utility.yul\":32032:32575   */\n    tag_263:\n        /* \"#utility.yul\":32133:32135   */\n      0x1f\n        /* \"#utility.yul\":32128:32131   */\n      dup3\n        /* \"#utility.yul\":32125:32136   */\n      gt\n        /* \"#utility.yul\":32122:32568   */\n      iszero\n      tag_568\n      jumpi\n        /* \"#utility.yul\":32167:32205   */\n      tag_569\n        /* \"#utility.yul\":32199:32204   */\n      dup2\n        /* \"#utility.yul\":32167:32205   */\n      tag_262\n      jump\t// in\n    tag_569:\n        /* \"#utility.yul\":32251:32280   */\n      tag_570\n        /* \"#utility.yul\":32269:32279   */\n      dup5\n        /* \"#utility.yul\":32251:32280   */\n      tag_246\n      jump\t// in\n    tag_570:\n        /* \"#utility.yul\":32241:32249   */\n      dup2\n        /* \"#utility.yul\":32237:32281   */\n      add\n        /* \"#utility.yul\":32434:32436   */\n      0x20\n        /* \"#utility.yul\":32422:32432   */\n      dup6\n        /* \"#utility.yul\":32419:32437   */\n      lt\n        /* \"#utility.yul\":32416:32465   */\n      iszero\n      tag_571\n      jumpi\n        /* \"#utility.yul\":32455:32463   */\n      dup2\n        /* \"#utility.yul\":32440:32463   */\n      swap1\n      pop\n        /* \"#utility.yul\":32416:32465   */\n    tag_571:\n        /* \"#utility.yul\":32478:32558   */\n      tag_572\n        /* \"#utility.yul\":32534:32556   */\n      tag_573\n        /* \"#utility.yul\":32552:32555   */\n      dup6\n        /* \"#utility.yul\":32534:32556   */\n      tag_246\n      jump\t// in\n    tag_573:\n        /* \"#utility.yul\":32524:32532   */\n      dup4\n        /* \"#utility.yul\":32520:32557   */\n      add\n        /* \"#utility.yul\":32507:32518   */\n      dup3\n        /* \"#utility.yul\":32478:32558   */\n      tag_255\n      jump\t// in\n    tag_572:\n        /* \"#utility.yul\":32137:32568   */\n      pop\n      pop\n        /* \"#utility.yul\":32122:32568   */\n    tag_568:\n        /* \"#utility.yul\":32032:32575   */\n      pop\n      pop\n      pop\n      jump\t// out\n        /* \"#utility.yul\":32581:33976   */\n    tag_154:\n        /* \"#utility.yul\":32698:32735   */\n      tag_575\n        /* \"#utility.yul\":32731:32734   */\n      dup3\n        /* \"#utility.yul\":32698:32735   */\n      tag_200\n      jump\t// in\n    tag_575:\n        /* \"#utility.yul\":32800:32818   */\n      0xffffffffffffffff\n        /* \"#utility.yul\":32792:32798   */\n      dup2\n        /* \"#utility.yul\":32789:32819   */\n      gt\n        /* \"#utility.yul\":32786:32842   */\n      iszero\n      tag_576\n      jumpi\n        /* \"#utility.yul\":32822:32840   */\n      tag_577\n      tag_67\n      jump\t// in\n    tag_577:\n        /* \"#utility.yul\":32786:32842   */\n    tag_576:\n        /* \"#utility.yul\":32866:32904   */\n      tag_578\n        /* \"#utility.yul\":32898:32902   */\n      dup3\n        /* \"#utility.yul\":32892:32903   */\n      sload\n        /* \"#utility.yul\":32866:32904   */\n      tag_59\n      jump\t// in\n    tag_578:\n        /* \"#utility.yul\":32951:33018   */\n      tag_579\n        /* \"#utility.yul\":33011:33017   */\n      dup3\n        /* \"#utility.yul\":33003:33009   */\n      dup3\n        /* \"#utility.yul\":32997:33001   */\n      dup6\n        /* \"#utility.yul\":32951:33018   */\n      tag_263\n      jump\t// in\n    tag_579:\n        /* \"#utility.yul\":33045:33046   */\n      0x00\n        /* \"#utility.yul\":33069:33073   */\n      0x20\n        /* \"#utility.yul\":33056:33073   */\n      swap1\n      pop\n        /* \"#utility.yul\":33101:33103   */\n      0x1f\n        /* \"#utility.yul\":33093:33099   */\n      dup4\n        /* \"#utility.yul\":33090:33104   */\n      gt\n        /* \"#utility.yul\":33118:33119   */\n      0x01\n        /* \"#utility.yul\":33113:33731   */\n      dup2\n      eq\n      tag_581\n      jumpi\n        /* \"#utility.yul\":33775:33776   */\n      0x00\n        /* \"#utility.yul\":33792:33798   */\n      dup5\n        /* \"#utility.yul\":33789:33866   */\n      iszero\n      tag_582\n      jumpi\n        /* \"#utility.yul\":33841:33850   */\n      dup3\n        /* \"#utility.yul\":33836:33839   */\n      dup8\n        /* \"#utility.yul\":33832:33851   */\n      add\n        /* \"#utility.yul\":33826:33852   */\n      mload\n        /* \"#utility.yul\":33817:33852   */\n      swap1\n      pop\n        /* \"#utility.yul\":33789:33866   */\n    tag_582:\n        /* \"#utility.yul\":33892:33959   */\n      tag_583\n        /* \"#utility.yul\":33952:33958   */\n      dup6\n        /* \"#utility.yul\":33945:33950   */\n      dup3\n        /* \"#utility.yul\":33892:33959   */\n      tag_259\n      jump\t// in\n    tag_583:\n        /* \"#utility.yul\":33886:33890   */\n      dup7\n        /* \"#utility.yul\":33879:33960   */\n      sstore\n        /* \"#utility.yul\":33748:33970   */\n      pop\n        /* \"#utility.yul\":33083:33970   */\n      jump(tag_580)\n        /* \"#utility.yul\":33113:33731   */\n    tag_581:\n        /* \"#utility.yul\":33165:33169   */\n      0x1f\n        /* \"#utility.yul\":33161:33170   */\n      not\n        /* \"#utility.yul\":33153:33159   */\n      dup5\n        /* \"#utility.yul\":33149:33171   */\n      and\n        /* \"#utility.yul\":33199:33236   */\n      tag_584\n        /* \"#utility.yul\":33231:33235   */\n      dup7\n        /* \"#utility.yul\":33199:33236   */\n      tag_262\n      jump\t// in\n    tag_584:\n        /* \"#utility.yul\":33258:33259   */\n      0x00\n        /* \"#utility.yul\":33272:33480   */\n    tag_585:\n        /* \"#utility.yul\":33286:33293   */\n      dup3\n        /* \"#utility.yul\":33283:33284   */\n      dup2\n        /* \"#utility.yul\":33280:33294   */\n      lt\n        /* \"#utility.yul\":33272:33480   */\n      iszero\n      tag_587\n      jumpi\n        /* \"#utility.yul\":33365:33374   */\n      dup5\n        /* \"#utility.yul\":33360:33363   */\n      dup10\n        /* \"#utility.yul\":33356:33375   */\n      add\n        /* \"#utility.yul\":33350:33376   */\n      mload\n        /* \"#utility.yul\":33342:33348   */\n      dup3\n        /* \"#utility.yul\":33335:33377   */\n      sstore\n        /* \"#utility.yul\":33416:33417   */\n      0x01\n        /* \"#utility.yul\":33408:33414   */\n      dup3\n        /* \"#utility.yul\":33404:33418   */\n      add\n        /* \"#utility.yul\":33394:33418   */\n      swap2\n      pop\n        /* \"#utility.yul\":33463:33465   */\n      0x20\n        /* \"#utility.yul\":33452:33461   */\n      dup6\n        /* \"#utility.yul\":33448:33466   */\n      add\n        /* \"#utility.yul\":33435:33466   */\n      swap5\n      pop\n        /* \"#utility.yul\":33309:33313   */\n      0x20\n        /* \"#utility.yul\":33306:33307   */\n      dup2\n        /* \"#utility.yul\":33302:33314   */\n      add\n        /* \"#utility.yul\":33297:33314   */\n      swap1\n      pop\n        /* \"#utility.yul\":33272:33480   */\n      jump(tag_585)\n    tag_587:\n        /* \"#utility.yul\":33508:33514   */\n      dup7\n        /* \"#utility.yul\":33499:33506   */\n      dup4\n        /* \"#utility.yul\":33496:33515   */\n      lt\n        /* \"#utility.yul\":33493:33672   */\n      iszero\n      tag_588\n      jumpi\n        /* \"#utility.yul\":33566:33575   */\n      dup5\n        /* \"#utility.yul\":33561:33564   */\n      dup10\n        /* \"#utility.yul\":33557:33576   */\n      add\n        /* \"#utility.yul\":33551:33577   */\n      mload\n        /* \"#utility.yul\":33609:33657   */\n      tag_589\n        /* \"#utility.yul\":33651:33655   */\n      0x1f\n        /* \"#utility.yul\":33643:33649   */\n      dup10\n        /* \"#utility.yul\":33639:33656   */\n      and\n        /* \"#utility.yul\":33628:33637   */\n      dup3\n        /* \"#utility.yul\":33609:33657   */\n      tag_258\n      jump\t// in\n    tag_589:\n        /* \"#utility.yul\":33601:33607   */\n      dup4\n        /* \"#utility.yul\":33594:33658   */\n      sstore\n        /* \"#utility.yul\":33516:33672   */\n      pop\n        /* \"#utility.yul\":33493:33672   */\n    tag_588:\n        /* \"#utility.yul\":33718:33719   */\n      0x01\n        /* \"#utility.yul\":33714:33715   */\n      0x02\n        /* \"#utility.yul\":33706:33712   */\n      dup9\n        /* \"#utility.yul\":33702:33716   */\n      mul\n        /* \"#utility.yul\":33698:33720   */\n      add\n        /* \"#utility.yul\":33692:33696   */\n      dup9\n        /* \"#utility.yul\":33685:33721   */\n      sstore\n        /* \"#utility.yul\":33120:33731   */\n      pop\n      pop\n      pop\n        /* \"#utility.yul\":33083:33970   */\n    tag_580:\n      pop\n        /* \"#utility.yul\":32673:33976   */\n      pop\n      pop\n      pop\n        /* \"#utility.yul\":32581:33976   */\n      pop\n      pop\n      jump\t// out\n        /* \"#utility.yul\":33982:34162   */\n    tag_264:\n        /* \"#utility.yul\":34030:34107   */\n      0x4e487b7100000000000000000000000000000000000000000000000000000000\n        /* \"#utility.yul\":34027:34028   */\n      0x00\n        /* \"#utility.yul\":34020:34108   */\n      mstore\n        /* \"#utility.yul\":34127:34131   */\n      0x11\n        /* \"#utility.yul\":34124:34125   */\n      0x04\n        /* \"#utility.yul\":34117:34132   */\n      mstore\n        /* \"#utility.yul\":34151:34155   */\n      0x24\n        /* \"#utility.yul\":34148:34149   */\n      0x00\n        /* \"#utility.yul\":34141:34156   */\n      revert\n        /* \"#utility.yul\":34168:34401   */\n    tag_160:\n        /* \"#utility.yul\":34207:34210   */\n      0x00\n        /* \"#utility.yul\":34230:34254   */\n      tag_592\n        /* \"#utility.yul\":34248:34253   */\n      dup3\n        /* \"#utility.yul\":34230:34254   */\n      tag_183\n      jump\t// in\n    tag_592:\n        /* \"#utility.yul\":34221:34254   */\n      swap2\n      pop\n        /* \"#utility.yul\":34276:34342   */\n      0xffffffffffffffffffffffffffffffffffffffffffffffffffffffffffffffff\n        /* \"#utility.yul\":34269:34274   */\n      dup3\n        /* \"#utility.yul\":34266:34343   */\n      sub\n        /* \"#utility.yul\":34263:34366   */\n      tag_593\n      jumpi\n        /* \"#utility.yul\":34346:34364   */\n      tag_594\n      tag_264\n      jump\t// in\n    tag_594:\n        /* \"#utility.yul\":34263:34366   */\n    tag_593:\n        /* \"#utility.yul\":34393:34394   */\n      0x01\n        /* \"#utility.yul\":34386:34391   */\n      dup3\n        /* \"#utility.yul\":34382:34395   */\n      add\n        /* \"#utility.yul\":34375:34395   */\n      swap1\n      pop\n        /* \"#utility.yul\":34168:34401   */\n      swap2\n      swap1\n      pop\n      jump\t// out\n        /* \"#utility.yul\":34407:34555   */\n    tag_265:\n        /* \"#utility.yul\":34455:34461   */\n      0x00\n        /* \"#utility.yul\":34489:34494   */\n      dup2\n        /* \"#utility.yul\":34483:34495   */\n      sload\n        /* \"#utility.yul\":34473:34495   */\n      swap1\n      pop\n        /* \"#utility.yul\":34515:34548   */\n      tag_596\n        /* \"#utility.yul\":34541:34547   */\n      dup2\n        /* \"#utility.yul\":34515:34548   */\n      tag_59\n      jump\t// in\n    tag_596:\n        /* \"#utility.yul\":34505:34548   */\n      swap1\n      pop\n        /* \"#utility.yul\":34407:34555   */\n      swap2\n      swap1\n      pop\n      jump\t// out\n        /* \"#utility.yul\":34561:36006   */\n    tag_166:\n        /* \"#utility.yul\":34670:34673   */\n      dup2\n        /* \"#utility.yul\":34664:34668   */\n      dup2\n        /* \"#utility.yul\":34661:34674   */\n      sub\n        /* \"#utility.yul\":34658:34684   */\n      tag_598\n      jumpi\n        /* \"#utility.yul\":34677:34682   */\n      pop\n      pop\n      jump(tag_597)\n        /* \"#utility.yul\":34658:34684   */\n    tag_598:\n        /* \"#utility.yul\":34708:34741   */\n      tag_599\n        /* \"#utility.yul\":34737:34740   */\n      dup3\n        /* \"#utility.yul\":34708:34741   */\n      tag_265\n      jump\t// in\n    tag_599:\n        /* \"#utility.yul\":34806:34824   */\n      0xffffffffffffffff\n        /* \"#utility.yul\":34798:34804   */\n      dup2\n        /* \"#utility.yul\":34795:34825   */\n      gt\n        /* \"#utility.yul\":34792:34848   */\n      iszero\n      tag_600\n      jumpi\n        /* \"#utility.yul\":34828:34846   */\n      tag_601\n      tag_67\n      jump\t// in\n    tag_601:\n        /* \"#utility.yul\":34792:34848   */\n    tag_600:\n        /* \"#utility.yul\":34872:34910   */\n      tag_602\n        /* \"#utility.yul\":34904:34908   */\n      dup3\n        /* \"#utility.yul\":34898:34909   */\n      sload\n        /* \"#utility.yul\":34872:34910   */\n      tag_59\n      jump\t// in\n    tag_602:\n        /* \"#utility.yul\":34957:35023   */\n      tag_603\n        /* \"#utility.yul\":35016:35022   */\n      dup3\n        /* \"#utility.yul\":35008:35014   */\n      dup3\n        /* \"#utility.yul\":35002:35006   */\n      dup6\n        /* \"#utility.yul\":34957:35023   */\n      tag_256\n      jump\t// in\n    tag_603:\n        /* \"#utility.yul\":35050:35051   */\n      0x00\n        /* \"#utility.yul\":35079:35081   */\n      0x1f\n        /* \"#utility.yul\":35071:35077   */\n      dup4\n        /* \"#utility.yul\":35068:35082   */\n      gt\n        /* \"#utility.yul\":35096:35097   */\n      0x01\n        /* \"#utility.yul\":35091:35761   */\n      dup2\n      eq\n      tag_605\n      jumpi\n        /* \"#utility.yul\":35805:35806   */\n      0x00\n        /* \"#utility.yul\":35822:35828   */\n      dup5\n        /* \"#utility.yul\":35819:35896   */\n      iszero\n      tag_606\n      jumpi\n        /* \"#utility.yul\":35871:35880   */\n      dup3\n        /* \"#utility.yul\":35866:35869   */\n      dup8\n        /* \"#utility.yul\":35862:35881   */\n      add\n        /* \"#utility.yul\":35856:35882   */\n      sload\n        /* \"#utility.yul\":35847:35882   */\n      swap1\n      pop\n        /* \"#utility.yul\":35819:35896   */\n    tag_606:\n        /* \"#utility.yul\":35922:35989   */\n      tag_607\n        /* \"#utility.yul\":35982:35988   */\n      dup6\n        /* \"#utility.yul\":35975:35980   */\n      dup3\n        /* \"#utility.yul\":35922:35989   */\n      tag_259\n      jump\t// in\n    tag_607:\n        /* \"#utility.yul\":35916:35920   */\n      dup7\n        /* \"#utility.yul\":35909:35990   */\n      sstore\n        /* \"#utility.yul\":35778:36000   */\n      pop\n        /* \"#utility.yul\":35061:36000   */\n      jump(tag_604)\n        /* \"#utility.yul\":35091:35761   */\n    tag_605:\n        /* \"#utility.yul\":35143:35147   */\n      0x1f\n        /* \"#utility.yul\":35139:35148   */\n      not\n        /* \"#utility.yul\":35131:35137   */\n      dup5\n        /* \"#utility.yul\":35127:35149   */\n      and\n        /* \"#utility.yul\":35169:35204   */\n      tag_608\n        /* \"#utility.yul\":35200:35203   */\n      dup8\n        /* \"#utility.yul\":35169:35204   */\n      tag_245\n      jump\t// in\n    tag_608:\n        /* \"#utility.yul\":35162:35204   */\n      swap7\n      pop\n        /* \"#utility.yul\":35231:35267   */\n      tag_609\n        /* \"#utility.yul\":35262:35266   */\n      dup7\n        /* \"#utility.yul\":35231:35267   */\n      tag_245\n      jump\t// in\n    tag_609:\n        /* \"#utility.yul\":35289:35290   */\n      0x00\n        /* \"#utility.yul\":35303:35510   */\n    tag_610:\n        /* \"#utility.yul\":35317:35324   */\n      dup3\n        /* \"#utility.yul\":35314:35315   */\n      dup2\n        /* \"#utility.yul\":35311:35325   */\n      lt\n        /* \"#utility.yul\":35303:35510   */\n      iszero\n      tag_612\n      jumpi\n        /* \"#utility.yul\":35396:35405   */\n      dup5\n        /* \"#utility.yul\":35391:35394   */\n      dup10\n        /* \"#utility.yul\":35387:35406   */\n      add\n        /* \"#utility.yul\":35381:35407   */\n      sload\n        /* \"#utility.yul\":35373:35379   */\n      dup3\n        /* \"#utility.yul\":35366:35408   */\n      sstore\n        /* \"#utility.yul\":35447:35448   */\n      0x01\n        /* \"#utility.yul\":35439:35445   */\n      dup3\n        /* \"#utility.yul\":35435:35449   */\n      add\n        /* \"#utility.yul\":35425:35449   */\n      swap2\n      pop\n        /* \"#utility.yul\":35494:35495   */\n      0x01\n        /* \"#utility.yul\":35483:35492   */\n      dup6\n        /* \"#utility.yul\":35479:35496   */\n      add\n        /* \"#utility.yul\":35466:35496   */\n      swap5\n      pop\n        /* \"#utility.yul\":35340:35344   */\n      0x20\n        /* \"#utility.yul\":35337:35338   */\n      dup2\n        /* \"#utility.yul\":35333:35345   */\n      add\n        /* \"#utility.yul\":35328:35345   */\n      swap1\n      pop\n        /* \"#utility.yul\":35303:35510   */\n      jump(tag_610)\n    tag_612:\n        /* \"#utility.yul\":35538:35544   */\n      dup7\n        /* \"#utility.yul\":35529:35536   */\n      dup4\n        /* \"#utility.yul\":35526:35545   */\n      lt\n        /* \"#utility.yul\":35523:35702   */\n      iszero\n      tag_613\n      jumpi\n        /* \"#utility.yul\":35596:35605   */\n      dup5\n        /* \"#utility.yul\":35591:35594   */\n      dup10\n        /* \"#utility.yul\":35587:35606   */\n      add\n        /* \"#utility.yul\":35581:35607   */\n      sload\n        /* \"#utility.yul\":35639:35687   */\n      tag_614\n        /* \"#utility.yul\":35681:35685   */\n      0x1f\n        /* \"#utility.yul\":35673:35679   */\n      dup10\n        /* \"#utility.yul\":35669:35686   */\n      and\n        /* \"#utility.yul\":35658:35667   */\n      dup3\n        /* \"#utility.yul\":35639:35687   */\n      tag_258\n      jump\t// in\n    tag_614:\n        /* \"#utility.yul\":35631:35637   */\n      dup4\n        /* \"#utility.yul\":35624:35688   */\n      sstore\n        /* \"#utility.yul\":35546:35702   */\n      pop\n        /* \"#utility.yul\":35523:35702   */\n    tag_613:\n        /* \"#utility.yul\":35748:35749   */\n      0x01\n        /* \"#utility.yul\":35744:35745   */\n      0x02\n        /* \"#utility.yul\":35736:35742   */\n      dup9\n        /* \"#utility.yul\":35732:35746   */\n      mul\n        /* \"#utility.yul\":35728:35750   */\n      add\n        /* \"#utility.yul\":35722:35726   */\n      dup9\n        /* \"#utility.yul\":35715:35751   */\n      sstore\n        /* \"#utility.yul\":35098:35761   */\n      pop\n      pop\n      pop\n        /* \"#utility.yul\":35061:36000   */\n    tag_604:\n      pop\n        /* \"#utility.yul\":34648:36006   */\n      pop\n      pop\n      pop\n        /* \"#utility.yul\":34561:36006   */\n      pop\n      pop\n    tag_597:\n      jump\t// out\n\n    auxdata: 0xa2646970667358221220c601bc652ccdefb08c2d316b8ca4ef9abd257a5d358341416dcd5f462d5a7e9764736f6c63430008160033\n}\n",
				"bytecode": {
					"linkReferences": {},
					"object": "60806040525f600355348015610013575f80fd5b50612354806100215f395ff3fe608060405234801561000f575f80fd5b5060043610610091575f3560e01c806349aa1d941161006457806349aa1d941461014b578063bbe3d5221461017b578063c0c1e2ed14610197578063d92d8f71146101b5578063f1c98ba2146101d157610091565b80630f86126e146100955780632b39fed7146100c75780632b5acd6c146100e55780632c290e4e1461011b575b5f80fd5b6100af60048036038101906100aa9190611190565b6101ed565b6040516100be939291906112af565b60405180910390f35b6100cf6102d2565b6040516100dc91906114bd565b60405180910390f35b6100ff60048036038101906100fa91906114dd565b6105a9565b604051610112979695949392919061155f565b60405180910390f35b610135600480360381019061013091906114dd565b610797565b6040516101429190611740565b60405180910390f35b6101656004803603810190610160919061178a565b6109ea565b60405161017291906117e2565b60405180910390f35b61019560048036038101906101909190611951565b610a14565b005b61019f610b9a565b6040516101ac91906119bd565b60405180910390f35b6101cf60048036038101906101ca9190611a00565b610ba0565b005b6101eb60048036038101906101e69190611aee565b610ceb565b005b6001602052815f5260405f208181548110610206575f80fd5b905f5260205f2090600302015f9150915050805f015f9054906101000a900473ffffffffffffffffffffffffffffffffffffffff169080600101549080600201805461025190611c3c565b80601f016020809104026020016040519081016040528092919081815260200182805461027d90611c3c565b80156102c85780601f1061029f576101008083540402835291602001916102c8565b820191905f5260205f20905b8154815290600101906020018083116102ab57829003601f168201915b5050505050905083565b60605f60035467ffffffffffffffff8111156102f1576102f0611803565b5b60405190808252806020026020018201604052801561032a57816020015b610317610f45565b81526020019060019003908161030f5790505b5090505f5b6003548110156105a1575f808281526020019081526020015f206040518060e00160405290815f82015f9054906101000a900473ffffffffffffffffffffffffffffffffffffffff1673ffffffffffffffffffffffffffffffffffffffff1673ffffffffffffffffffffffffffffffffffffffff1681526020016001820180546103b890611c3c565b80601f01602080910402602001604051908101604052809291908181526020018280546103e490611c3c565b801561042f5780601f106104065761010080835404028352916020019161042f565b820191905f5260205f20905b81548152906001019060200180831161041257829003601f168201915b5050505050815260200160028201805461044890611c3c565b80601f016020809104026020016040519081016040528092919081815260200182805461047490611c3c565b80156104bf5780601f10610496576101008083540402835291602001916104bf565b820191905f5260205f20905b8154815290600101906020018083116104a257829003601f168201915b505050505081526020016003820154815260200160048201548152602001600582015481526020016006820180546104f690611c3c565b80601f016020809104026020016040519081016040528092919081815260200182805461052290611c3c565b801561056d5780601f106105445761010080835404028352916020019161056d565b820191905f5260205f20905b81548152906001019060200180831161055057829003601f168201915b50505050508152505082828151811061058957610588611c6c565b5b6020026020010181905250808060010191505061032f565b508091505090565b5f602052805f5260405f205f91509050805f015f9054906101000a900473ffffffffffffffffffffffffffffffffffffffff16908060010180546105ec90611c3c565b80601f016020809104026020016040519081016040528092919081815260200182805461061890611c3c565b80156106635780601f1061063a57610100808354040283529160200191610663565b820191905f5260205f20905b81548152906001019060200180831161064657829003601f168201915b50505050509080600201805461067890611c3c565b80601f01602080910402602001604051908101604052809291908181526020018280546106a490611c3c565b80156106ef5780601f106106c6576101008083540402835291602001916106ef565b820191905f5260205f20905b8154815290600101906020018083116106d257829003601f168201915b50505050509080600301549080600401549080600501549080600601805461071690611c3c565b80601f016020809104026020016040519081016040528092919081815260200182805461074290611c3c565b801561078d5780601f106107645761010080835404028352916020019161078d565b820191905f5260205f20905b81548152906001019060200180831161077057829003601f168201915b5050505050905087565b606060035482106107dd576040517f08c379a00000000000000000000000000000000000000000000000000000000081526004016107d490611ce3565b60405180910390fd5b5f60015f8481526020019081526020015f20805480602002602001604051908101604052809291908181526020015f905b8282101561092c578382905f5260205f2090600302016040518060600160405290815f82015f9054906101000a900473ffffffffffffffffffffffffffffffffffffffff1673ffffffffffffffffffffffffffffffffffffffff1673ffffffffffffffffffffffffffffffffffffffff1681526020016001820154815260200160028201805461089d90611c3c565b80601f01602080910402602001604051908101604052809291908181526020018280546108c990611c3c565b80156109145780601f106108eb57610100808354040283529160200191610914565b820191905f5260205f20905b8154815290600101906020018083116108f757829003601f168201915b5050505050815250508152602001906001019061080e565b5050505090505f815190505f8167ffffffffffffffff81111561095257610951611803565b5b60405190808252806020026020018201604052801561098b57816020015b610978610f94565b8152602001906001900390816109705790505b5090505f5b828110156109de578381815181106109ab576109aa611c6c565b5b60200260200101518282815181106109c6576109c5611c6c565b5b60200260200101819052508080600101915050610990565b50809350505050919050565b6002602052815f5260405f20602052805f5260405f205f915091509054906101000a900460ff1681565b6003548310610a58576040517f08c379a0000000000000000000000000000000000000000000000000000000008152600401610a4f90611ce3565b60405180910390fd5b610a623384610ee3565b610aa1576040517f08c379a0000000000000000000000000000000000000000000000000000000008152600401610a9890611d71565b60405180910390fd5b5f60015f8581526020019081526020015f2090508060405180606001604052803373ffffffffffffffffffffffffffffffffffffffff16815260200184815260200185815250908060018154018082558091505060019003905f5260205f2090600302015f909190919091505f820151815f015f6101000a81548173ffffffffffffffffffffffffffffffffffffffff021916908373ffffffffffffffffffffffffffffffffffffffff160217905550602082015181600101556040820151816002019081610b709190611f2c565b5050508060015f8681526020019081526020015f20908054610b93929190610fcc565b5050505050565b60035481565b6003548310610be4576040517f08c379a0000000000000000000000000000000000000000000000000000000008152600401610bdb90611ce3565b60405180910390fd5b5f808481526020019081526020015f205f015f9054906101000a900473ffffffffffffffffffffffffffffffffffffffff1673ffffffffffffffffffffffffffffffffffffffff163373ffffffffffffffffffffffffffffffffffffffff1614610c83576040517f08c379a0000000000000000000000000000000000000000000000000000000008152600401610c7a9061206b565b60405180910390fd5b8060025f8581526020019081526020015f205f8473ffffffffffffffffffffffffffffffffffffffff1673ffffffffffffffffffffffffffffffffffffffff1681526020019081526020015f205f6101000a81548160ff021916908315150217905550505050565b6040518060e001604052803373ffffffffffffffffffffffffffffffffffffffff168152602001898152602001888152602001878152602001868152602001858152602001848152505f8060035481526020019081526020015f205f820151815f015f6101000a81548173ffffffffffffffffffffffffffffffffffffffff021916908373ffffffffffffffffffffffffffffffffffffffff1602179055506020820151816001019081610d9f91906120e1565b506040820151816002019081610db591906120e1565b50606082015181600301556080820151816004015560a0820151816005015560c0820151816006019081610de991906120e1565b509050505f60015f60035481526020019081526020015f2090508060405180606001604052803373ffffffffffffffffffffffffffffffffffffffff16815260200184815260200185815250908060018154018082558091505060019003905f5260205f2090600302015f909190919091505f820151815f015f6101000a81548173ffffffffffffffffffffffffffffffffffffffff021916908373ffffffffffffffffffffffffffffffffffffffff160217905550602082015181600101556040820151816002019081610ebe9190611f2c565b50505060035f815480929190610ed3906121dd565b9190505550505050505050505050565b5f60025f8381526020019081526020015f205f8473ffffffffffffffffffffffffffffffffffffffff1673ffffffffffffffffffffffffffffffffffffffff1681526020019081526020015f205f9054906101000a900460ff16905092915050565b6040518060e001604052805f73ffffffffffffffffffffffffffffffffffffffff16815260200160608152602001606081526020015f81526020015f81526020015f8152602001606081525090565b60405180606001604052805f73ffffffffffffffffffffffffffffffffffffffff1681526020015f8019168152602001606081525090565b828054828255905f5260205f20906003028101928215611091575f5260205f209160030282015b828111156110905782825f82015f9054906101000a900473ffffffffffffffffffffffffffffffffffffffff16815f015f6101000a81548173ffffffffffffffffffffffffffffffffffffffff021916908373ffffffffffffffffffffffffffffffffffffffff160217905550600182015481600101556002820181600201908161107e9190612239565b50505091600301919060030190610ff3565b5b50905061109e91906110a2565b5090565b5b808211156110f0575f8082015f6101000a81549073ffffffffffffffffffffffffffffffffffffffff0219169055600182015f9055600282015f6110e791906110f4565b506003016110a3565b5090565b50805461110090611c3c565b5f825580601f10611111575061112e565b601f0160209004905f5260205f209081019061112d9190611131565b5b50565b5b80821115611148575f815f905550600101611132565b5090565b5f604051905090565b5f80fd5b5f80fd5b5f819050919050565b61116f8161115d565b8114611179575f80fd5b50565b5f8135905061118a81611166565b92915050565b5f80604083850312156111a6576111a5611155565b5b5f6111b38582860161117c565b92505060206111c48582860161117c565b9150509250929050565b5f73ffffffffffffffffffffffffffffffffffffffff82169050919050565b5f6111f7826111ce565b9050919050565b611207816111ed565b82525050565b5f819050919050565b61121f8161120d565b82525050565b5f81519050919050565b5f82825260208201905092915050565b5f5b8381101561125c578082015181840152602081019050611241565b5f8484015250505050565b5f601f19601f8301169050919050565b5f61128182611225565b61128b818561122f565b935061129b81856020860161123f565b6112a481611267565b840191505092915050565b5f6060820190506112c25f8301866111fe565b6112cf6020830185611216565b81810360408301526112e18184611277565b9050949350505050565b5f81519050919050565b5f82825260208201905092915050565b5f819050602082019050919050565b61131d816111ed565b82525050565b5f81519050919050565b5f82825260208201905092915050565b5f61134782611323565b611351818561132d565b935061136181856020860161123f565b61136a81611267565b840191505092915050565b61137e8161115d565b82525050565b5f60e083015f8301516113995f860182611314565b50602083015184820360208601526113b1828261133d565b915050604083015184820360408601526113cb828261133d565b91505060608301516113e06060860182611375565b5060808301516113f36080860182611375565b5060a083015161140660a0860182611375565b5060c083015184820360c086015261141e828261133d565b9150508091505092915050565b5f6114368383611384565b905092915050565b5f602082019050919050565b5f611454826112eb565b61145e81856112f5565b93508360208202850161147085611305565b805f5b858110156114ab578484038952815161148c858261142b565b94506114978361143e565b925060208a01995050600181019050611473565b50829750879550505050505092915050565b5f6020820190508181035f8301526114d5818461144a565b905092915050565b5f602082840312156114f2576114f1611155565b5b5f6114ff8482850161117c565b91505092915050565b5f82825260208201905092915050565b5f61152282611323565b61152c8185611508565b935061153c81856020860161123f565b61154581611267565b840191505092915050565b6115598161115d565b82525050565b5f60e0820190506115725f83018a6111fe565b81810360208301526115848189611518565b905081810360408301526115988188611518565b90506115a76060830187611550565b6115b46080830186611550565b6115c160a0830185611550565b81810360c08301526115d38184611518565b905098975050505050505050565b5f81519050919050565b5f82825260208201905092915050565b5f819050602082019050919050565b6116138161120d565b82525050565b5f82825260208201905092915050565b5f61163382611225565b61163d8185611619565b935061164d81856020860161123f565b61165681611267565b840191505092915050565b5f606083015f8301516116765f860182611314565b506020830151611689602086018261160a565b50604083015184820360408601526116a18282611629565b9150508091505092915050565b5f6116b98383611661565b905092915050565b5f602082019050919050565b5f6116d7826115e1565b6116e181856115eb565b9350836020820285016116f3856115fb565b805f5b8581101561172e578484038952815161170f85826116ae565b945061171a836116c1565b925060208a019950506001810190506116f6565b50829750879550505050505092915050565b5f6020820190508181035f83015261175881846116cd565b905092915050565b611769816111ed565b8114611773575f80fd5b50565b5f8135905061178481611760565b92915050565b5f80604083850312156117a05761179f611155565b5b5f6117ad8582860161117c565b92505060206117be85828601611776565b9150509250929050565b5f8115159050919050565b6117dc816117c8565b82525050565b5f6020820190506117f55f8301846117d3565b92915050565b5f80fd5b5f80fd5b7f4e487b71000000000000000000000000000000000000000000000000000000005f52604160045260245ffd5b61183982611267565b810181811067ffffffffffffffff8211171561185857611857611803565b5b80604052505050565b5f61186a61114c565b90506118768282611830565b919050565b5f67ffffffffffffffff82111561189557611894611803565b5b61189e82611267565b9050602081019050919050565b828183375f83830152505050565b5f6118cb6118c68461187b565b611861565b9050828152602081018484840111156118e7576118e66117ff565b5b6118f28482856118ab565b509392505050565b5f82601f83011261190e5761190d6117fb565b5b813561191e8482602086016118b9565b91505092915050565b6119308161120d565b811461193a575f80fd5b50565b5f8135905061194b81611927565b92915050565b5f805f6060848603121561196857611967611155565b5b5f6119758682870161117c565b935050602084013567ffffffffffffffff81111561199657611995611159565b5b6119a2868287016118fa565b92505060406119b38682870161193d565b9150509250925092565b5f6020820190506119d05f830184611550565b92915050565b6119df816117c8565b81146119e9575f80fd5b50565b5f813590506119fa816119d6565b92915050565b5f805f60608486031215611a1757611a16611155565b5b5f611a248682870161117c565b9350506020611a3586828701611776565b9250506040611a46868287016119ec565b9150509250925092565b5f67ffffffffffffffff821115611a6a57611a69611803565b5b611a7382611267565b9050602081019050919050565b5f611a92611a8d84611a50565b611861565b905082815260208101848484011115611aae57611aad6117ff565b5b611ab98482856118ab565b509392505050565b5f82601f830112611ad557611ad46117fb565b5b8135611ae5848260208601611a80565b91505092915050565b5f805f805f805f80610100898b031215611b0b57611b0a611155565b5b5f89013567ffffffffffffffff811115611b2857611b27611159565b5b611b348b828c01611ac1565b985050602089013567ffffffffffffffff811115611b5557611b54611159565b5b611b618b828c01611ac1565b9750506040611b728b828c0161117c565b9650506060611b838b828c0161117c565b9550506080611b948b828c0161117c565b94505060a089013567ffffffffffffffff811115611bb557611bb4611159565b5b611bc18b828c01611ac1565b93505060c089013567ffffffffffffffff811115611be257611be1611159565b5b611bee8b828c016118fa565b92505060e0611bff8b828c0161193d565b9150509295985092959890939650565b7f4e487b71000000000000000000000000000000000000000000000000000000005f52602260045260245ffd5b5f6002820490506001821680611c5357607f821691505b602082108103611c6657611c65611c0f565b5b50919050565b7f4e487b71000000000000000000000000000000000000000000000000000000005f52603260045260245ffd5b7f537570706c656d656e74206e6f7420666f756e642e00000000000000000000005f82015250565b5f611ccd601583611508565b9150611cd882611c99565b602082019050919050565b5f6020820190508181035f830152611cfa81611cc1565b9050919050565b7f4f6e6c7920617574686f72697a656420706172746965732063616e207369676e5f8201527f2074686520737570706c656d656e742e00000000000000000000000000000000602082015250565b5f611d5b603083611508565b9150611d6682611d01565b604082019050919050565b5f6020820190508181035f830152611d8881611d4f565b9050919050565b5f819050815f5260205f209050919050565b5f6020601f8301049050919050565b5f82821b905092915050565b5f60088302611deb7fffffffffffffffffffffffffffffffffffffffffffffffffffffffffffffffff82611db0565b611df58683611db0565b95508019841693508086168417925050509392505050565b5f819050919050565b5f611e30611e2b611e268461115d565b611e0d565b61115d565b9050919050565b5f819050919050565b611e4983611e16565b611e5d611e5582611e37565b848454611dbc565b825550505050565b5f90565b611e71611e65565b611e7c818484611e40565b505050565b5b81811015611e9f57611e945f82611e69565b600181019050611e82565b5050565b601f821115611ee457611eb581611d8f565b611ebe84611da1565b81016020851015611ecd578190505b611ee1611ed985611da1565b830182611e81565b50505b505050565b5f82821c905092915050565b5f611f045f1984600802611ee9565b1980831691505092915050565b5f611f1c8383611ef5565b9150826002028217905092915050565b611f3582611225565b67ffffffffffffffff811115611f4e57611f4d611803565b5b611f588254611c3c565b611f63828285611ea3565b5f60209050601f831160018114611f94575f8415611f82578287015190505b611f8c8582611f11565b865550611ff3565b601f198416611fa286611d8f565b5f5b82811015611fc957848901518255600182019150602085019450602081019050611fa4565b86831015611fe65784890151611fe2601f891682611ef5565b8355505b6001600288020188555050505b505050505050565b7f4f6e6c7920746865206f776e65722063616e2073657420746865207369676e655f8201527f7220617574686f72697a6174696f6e2e00000000000000000000000000000000602082015250565b5f612055603083611508565b915061206082611ffb565b604082019050919050565b5f6020820190508181035f83015261208281612049565b9050919050565b5f819050815f5260205f209050919050565b601f8211156120dc576120ad81612089565b6120b684611da1565b810160208510156120c5578190505b6120d96120d185611da1565b830182611e81565b50505b505050565b6120ea82611323565b67ffffffffffffffff81111561210357612102611803565b5b61210d8254611c3c565b61211882828561209b565b5f60209050601f831160018114612149575f8415612137578287015190505b6121418582611f11565b8655506121a8565b601f19841661215786612089565b5f5b8281101561217e57848901518255600182019150602085019450602081019050612159565b8683101561219b5784890151612197601f891682611ef5565b8355505b6001600288020188555050505b505050505050565b7f4e487b71000000000000000000000000000000000000000000000000000000005f52601160045260245ffd5b5f6121e78261115d565b91507fffffffffffffffffffffffffffffffffffffffffffffffffffffffffffffffff8203612219576122186121b0565b5b600182019050919050565b5f8154905061223281611c3c565b9050919050565b81810361224757505061231c565b61225082612224565b67ffffffffffffffff81111561226957612268611803565b5b6122738254611c3c565b61227e828285611ea3565b5f601f8311600181146122ab575f8415612299578287015490505b6122a38582611f11565b865550612315565b601f1984166122b987611d8f565b96506122c486611d8f565b5f5b828110156122eb578489015482556001820191506001850194506020810190506122c6565b868310156123085784890154612304601f891682611ef5565b8355505b6001600288020188555050505b5050505050505b56fea2646970667358221220c601bc652ccdefb08c2d316b8ca4ef9abd257a5d358341416dcd5f462d5a7e9764736f6c63430008160033",
					"opcodes": "PUSH1 0x80 PUSH1 0x40 MSTORE PUSH0 PUSH1 0x3 SSTORE CALLVALUE DUP1 ISZERO PUSH2 0x13 JUMPI PUSH0 DUP1 REVERT JUMPDEST POP PUSH2 0x2354 DUP1 PUSH2 0x21 PUSH0 CODECOPY PUSH0 RETURN INVALID PUSH1 0x80 PUSH1 0x40 MSTORE CALLVALUE DUP1 ISZERO PUSH2 0xF JUMPI PUSH0 DUP1 REVERT JUMPDEST POP PUSH1 0x4 CALLDATASIZE LT PUSH2 0x91 JUMPI PUSH0 CALLDATALOAD PUSH1 0xE0 SHR DUP1 PUSH4 0x49AA1D94 GT PUSH2 0x64 JUMPI DUP1 PUSH4 0x49AA1D94 EQ PUSH2 0x14B JUMPI DUP1 PUSH4 0xBBE3D522 EQ PUSH2 0x17B JUMPI DUP1 PUSH4 0xC0C1E2ED EQ PUSH2 0x197 JUMPI DUP1 PUSH4 0xD92D8F71 EQ PUSH2 0x1B5 JUMPI DUP1 PUSH4 0xF1C98BA2 EQ PUSH2 0x1D1 JUMPI PUSH2 0x91 JUMP JUMPDEST DUP1 PUSH4 0xF86126E EQ PUSH2 0x95 JUMPI DUP1 PUSH4 0x2B39FED7 EQ PUSH2 0xC7 JUMPI DUP1 PUSH4 0x2B5ACD6C EQ PUSH2 0xE5 JUMPI DUP1 PUSH4 0x2C290E4E EQ PUSH2 0x11B JUMPI JUMPDEST PUSH0 DUP1 REVERT JUMPDEST PUSH2 0xAF PUSH1 0x4 DUP1 CALLDATASIZE SUB DUP2 ADD SWAP1 PUSH2 0xAA SWAP2 SWAP1 PUSH2 0x1190 JUMP JUMPDEST PUSH2 0x1ED JUMP JUMPDEST PUSH1 0x40 MLOAD PUSH2 0xBE SWAP4 SWAP3 SWAP2 SWAP1 PUSH2 0x12AF JUMP JUMPDEST PUSH1 0x40 MLOAD DUP1 SWAP2 SUB SWAP1 RETURN JUMPDEST PUSH2 0xCF PUSH2 0x2D2 JUMP JUMPDEST PUSH1 0x40 MLOAD PUSH2 0xDC SWAP2 SWAP1 PUSH2 0x14BD JUMP JUMPDEST PUSH1 0x40 MLOAD DUP1 SWAP2 SUB SWAP1 RETURN JUMPDEST PUSH2 0xFF PUSH1 0x4 DUP1 CALLDATASIZE SUB DUP2 ADD SWAP1 PUSH2 0xFA SWAP2 SWAP1 PUSH2 0x14DD JUMP JUMPDEST PUSH2 0x5A9 JUMP JUMPDEST PUSH1 0x40 MLOAD PUSH2 0x112 SWAP8 SWAP7 SWAP6 SWAP5 SWAP4 SWAP3 SWAP2 SWAP1 PUSH2 0x155F JUMP JUMPDEST PUSH1 0x40 MLOAD DUP1 SWAP2 SUB SWAP1 RETURN JUMPDEST PUSH2 0x135 PUSH1 0x4 DUP1 CALLDATASIZE SUB DUP2 ADD SWAP1 PUSH2 0x130 SWAP2 SWAP1 PUSH2 0x14DD JUMP JUMPDEST PUSH2 0x797 JUMP JUMPDEST PUSH1 0x40 MLOAD PUSH2 0x142 SWAP2 SWAP1 PUSH2 0x1740 JUMP JUMPDEST PUSH1 0x40 MLOAD DUP1 SWAP2 SUB SWAP1 RETURN JUMPDEST PUSH2 0x165 PUSH1 0x4 DUP1 CALLDATASIZE SUB DUP2 ADD SWAP1 PUSH2 0x160 SWAP2 SWAP1 PUSH2 0x178A JUMP JUMPDEST PUSH2 0x9EA JUMP JUMPDEST PUSH1 0x40 MLOAD PUSH2 0x172 SWAP2 SWAP1 PUSH2 0x17E2 JUMP JUMPDEST PUSH1 0x40 MLOAD DUP1 SWAP2 SUB SWAP1 RETURN JUMPDEST PUSH2 0x195 PUSH1 0x4 DUP1 CALLDATASIZE SUB DUP2 ADD SWAP1 PUSH2 0x190 SWAP2 SWAP1 PUSH2 0x1951 JUMP JUMPDEST PUSH2 0xA14 JUMP JUMPDEST STOP JUMPDEST PUSH2 0x19F PUSH2 0xB9A JUMP JUMPDEST PUSH1 0x40 MLOAD PUSH2 0x1AC SWAP2 SWAP1 PUSH2 0x19BD JUMP JUMPDEST PUSH1 0x40 MLOAD DUP1 SWAP2 SUB SWAP1 RETURN JUMPDEST PUSH2 0x1CF PUSH1 0x4 DUP1 CALLDATASIZE SUB DUP2 ADD SWAP1 PUSH2 0x1CA SWAP2 SWAP1 PUSH2 0x1A00 JUMP JUMPDEST PUSH2 0xBA0 JUMP JUMPDEST STOP JUMPDEST PUSH2 0x1EB PUSH1 0x4 DUP1 CALLDATASIZE SUB DUP2 ADD SWAP1 PUSH2 0x1E6 SWAP2 SWAP1 PUSH2 0x1AEE JUMP JUMPDEST PUSH2 0xCEB JUMP JUMPDEST STOP JUMPDEST PUSH1 0x1 PUSH1 0x20 MSTORE DUP2 PUSH0 MSTORE PUSH1 0x40 PUSH0 KECCAK256 DUP2 DUP2 SLOAD DUP2 LT PUSH2 0x206 JUMPI PUSH0 DUP1 REVERT JUMPDEST SWAP1 PUSH0 MSTORE PUSH1 0x20 PUSH0 KECCAK256 SWAP1 PUSH1 0x3 MUL ADD PUSH0 SWAP2 POP SWAP2 POP POP DUP1 PUSH0 ADD PUSH0 SWAP1 SLOAD SWAP1 PUSH2 0x100 EXP SWAP1 DIV PUSH20 0xFFFFFFFFFFFFFFFFFFFFFFFFFFFFFFFFFFFFFFFF AND SWAP1 DUP1 PUSH1 0x1 ADD SLOAD SWAP1 DUP1 PUSH1 0x2 ADD DUP1 SLOAD PUSH2 0x251 SWAP1 PUSH2 0x1C3C JUMP JUMPDEST DUP1 PUSH1 0x1F ADD PUSH1 0x20 DUP1 SWAP2 DIV MUL PUSH1 0x20 ADD PUSH1 0x40 MLOAD SWAP1 DUP2 ADD PUSH1 0x40 MSTORE DUP1 SWAP3 SWAP2 SWAP1 DUP2 DUP2 MSTORE PUSH1 0x20 ADD DUP3 DUP1 SLOAD PUSH2 0x27D SWAP1 PUSH2 0x1C3C JUMP JUMPDEST DUP1 ISZERO PUSH2 0x2C8 JUMPI DUP1 PUSH1 0x1F LT PUSH2 0x29F JUMPI PUSH2 0x100 DUP1 DUP4 SLOAD DIV MUL DUP4 MSTORE SWAP2 PUSH1 0x20 ADD SWAP2 PUSH2 0x2C8 JUMP JUMPDEST DUP3 ADD SWAP2 SWAP1 PUSH0 MSTORE PUSH1 0x20 PUSH0 KECCAK256 SWAP1 JUMPDEST DUP2 SLOAD DUP2 MSTORE SWAP1 PUSH1 0x1 ADD SWAP1 PUSH1 0x20 ADD DUP1 DUP4 GT PUSH2 0x2AB JUMPI DUP3 SWAP1 SUB PUSH1 0x1F AND DUP3 ADD SWAP2 JUMPDEST POP POP POP POP POP SWAP1 POP DUP4 JUMP JUMPDEST PUSH1 0x60 PUSH0 PUSH1 0x3 SLOAD PUSH8 0xFFFFFFFFFFFFFFFF DUP2 GT ISZERO PUSH2 0x2F1 JUMPI PUSH2 0x2F0 PUSH2 0x1803 JUMP JUMPDEST JUMPDEST PUSH1 0x40 MLOAD SWAP1 DUP1 DUP3 MSTORE DUP1 PUSH1 0x20 MUL PUSH1 0x20 ADD DUP3 ADD PUSH1 0x40 MSTORE DUP1 ISZERO PUSH2 0x32A JUMPI DUP2 PUSH1 0x20 ADD JUMPDEST PUSH2 0x317 PUSH2 0xF45 JUMP JUMPDEST DUP2 MSTORE PUSH1 0x20 ADD SWAP1 PUSH1 0x1 SWAP1 SUB SWAP1 DUP2 PUSH2 0x30F JUMPI SWAP1 POP JUMPDEST POP SWAP1 POP PUSH0 JUMPDEST PUSH1 0x3 SLOAD DUP2 LT ISZERO PUSH2 0x5A1 JUMPI PUSH0 DUP1 DUP3 DUP2 MSTORE PUSH1 0x20 ADD SWAP1 DUP2 MSTORE PUSH1 0x20 ADD PUSH0 KECCAK256 PUSH1 0x40 MLOAD DUP1 PUSH1 0xE0 ADD PUSH1 0x40 MSTORE SWAP1 DUP2 PUSH0 DUP3 ADD PUSH0 SWAP1 SLOAD SWAP1 PUSH2 0x100 EXP SWAP1 DIV PUSH20 0xFFFFFFFFFFFFFFFFFFFFFFFFFFFFFFFFFFFFFFFF AND PUSH20 0xFFFFFFFFFFFFFFFFFFFFFFFFFFFFFFFFFFFFFFFF AND PUSH20 0xFFFFFFFFFFFFFFFFFFFFFFFFFFFFFFFFFFFFFFFF AND DUP2 MSTORE PUSH1 0x20 ADD PUSH1 0x1 DUP3 ADD DUP1 SLOAD PUSH2 0x3B8 SWAP1 PUSH2 0x1C3C JUMP JUMPDEST DUP1 PUSH1 0x1F ADD PUSH1 0x20 DUP1 SWAP2 DIV MUL PUSH1 0x20 ADD PUSH1 0x40 MLOAD SWAP1 DUP2 ADD PUSH1 0x40 MSTORE DUP1 SWAP3 SWAP2 SWAP1 DUP2 DUP2 MSTORE PUSH1 0x20 ADD DUP3 DUP1 SLOAD PUSH2 0x3E4 SWAP1 PUSH2 0x1C3C JUMP JUMPDEST DUP1 ISZERO PUSH2 0x42F JUMPI DUP1 PUSH1 0x1F LT PUSH2 0x406 JUMPI PUSH2 0x100 DUP1 DUP4 SLOAD DIV MUL DUP4 MSTORE SWAP2 PUSH1 0x20 ADD SWAP2 PUSH2 0x42F JUMP JUMPDEST DUP3 ADD SWAP2 SWAP1 PUSH0 MSTORE PUSH1 0x20 PUSH0 KECCAK256 SWAP1 JUMPDEST DUP2 SLOAD DUP2 MSTORE SWAP1 PUSH1 0x1 ADD SWAP1 PUSH1 0x20 ADD DUP1 DUP4 GT PUSH2 0x412 JUMPI DUP3 SWAP1 SUB PUSH1 0x1F AND DUP3 ADD SWAP2 JUMPDEST POP POP POP POP POP DUP2 MSTORE PUSH1 0x20 ADD PUSH1 0x2 DUP3 ADD DUP1 SLOAD PUSH2 0x448 SWAP1 PUSH2 0x1C3C JUMP JUMPDEST DUP1 PUSH1 0x1F ADD PUSH1 0x20 DUP1 SWAP2 DIV MUL PUSH1 0x20 ADD PUSH1 0x40 MLOAD SWAP1 DUP2 ADD PUSH1 0x40 MSTORE DUP1 SWAP3 SWAP2 SWAP1 DUP2 DUP2 MSTORE PUSH1 0x20 ADD DUP3 DUP1 SLOAD PUSH2 0x474 SWAP1 PUSH2 0x1C3C JUMP JUMPDEST DUP1 ISZERO PUSH2 0x4BF JUMPI DUP1 PUSH1 0x1F LT PUSH2 0x496 JUMPI PUSH2 0x100 DUP1 DUP4 SLOAD DIV MUL DUP4 MSTORE SWAP2 PUSH1 0x20 ADD SWAP2 PUSH2 0x4BF JUMP JUMPDEST DUP3 ADD SWAP2 SWAP1 PUSH0 MSTORE PUSH1 0x20 PUSH0 KECCAK256 SWAP1 JUMPDEST DUP2 SLOAD DUP2 MSTORE SWAP1 PUSH1 0x1 ADD SWAP1 PUSH1 0x20 ADD DUP1 DUP4 GT PUSH2 0x4A2 JUMPI DUP3 SWAP1 SUB PUSH1 0x1F AND DUP3 ADD SWAP2 JUMPDEST POP POP POP POP POP DUP2 MSTORE PUSH1 0x20 ADD PUSH1 0x3 DUP3 ADD SLOAD DUP2 MSTORE PUSH1 0x20 ADD PUSH1 0x4 DUP3 ADD SLOAD DUP2 MSTORE PUSH1 0x20 ADD PUSH1 0x5 DUP3 ADD SLOAD DUP2 MSTORE PUSH1 0x20 ADD PUSH1 0x6 DUP3 ADD DUP1 SLOAD PUSH2 0x4F6 SWAP1 PUSH2 0x1C3C JUMP JUMPDEST DUP1 PUSH1 0x1F ADD PUSH1 0x20 DUP1 SWAP2 DIV MUL PUSH1 0x20 ADD PUSH1 0x40 MLOAD SWAP1 DUP2 ADD PUSH1 0x40 MSTORE DUP1 SWAP3 SWAP2 SWAP1 DUP2 DUP2 MSTORE PUSH1 0x20 ADD DUP3 DUP1 SLOAD PUSH2 0x522 SWAP1 PUSH2 0x1C3C JUMP JUMPDEST DUP1 ISZERO PUSH2 0x56D JUMPI DUP1 PUSH1 0x1F LT PUSH2 0x544 JUMPI PUSH2 0x100 DUP1 DUP4 SLOAD DIV MUL DUP4 MSTORE SWAP2 PUSH1 0x20 ADD SWAP2 PUSH2 0x56D JUMP JUMPDEST DUP3 ADD SWAP2 SWAP1 PUSH0 MSTORE PUSH1 0x20 PUSH0 KECCAK256 SWAP1 JUMPDEST DUP2 SLOAD DUP2 MSTORE SWAP1 PUSH1 0x1 ADD SWAP1 PUSH1 0x20 ADD DUP1 DUP4 GT PUSH2 0x550 JUMPI DUP3 SWAP1 SUB PUSH1 0x1F AND DUP3 ADD SWAP2 JUMPDEST POP POP POP POP POP DUP2 MSTORE POP POP DUP3 DUP3 DUP2 MLOAD DUP2 LT PUSH2 0x589 JUMPI PUSH2 0x588 PUSH2 0x1C6C JUMP JUMPDEST JUMPDEST PUSH1 0x20 MUL PUSH1 0x20 ADD ADD DUP2 SWAP1 MSTORE POP DUP1 DUP1 PUSH1 0x1 ADD SWAP2 POP POP PUSH2 0x32F JUMP JUMPDEST POP DUP1 SWAP2 POP POP SWAP1 JUMP JUMPDEST PUSH0 PUSH1 0x20 MSTORE DUP1 PUSH0 MSTORE PUSH1 0x40 PUSH0 KECCAK256 PUSH0 SWAP2 POP SWAP1 POP DUP1 PUSH0 ADD PUSH0 SWAP1 SLOAD SWAP1 PUSH2 0x100 EXP SWAP1 DIV PUSH20 0xFFFFFFFFFFFFFFFFFFFFFFFFFFFFFFFFFFFFFFFF AND SWAP1 DUP1 PUSH1 0x1 ADD DUP1 SLOAD PUSH2 0x5EC SWAP1 PUSH2 0x1C3C JUMP JUMPDEST DUP1 PUSH1 0x1F ADD PUSH1 0x20 DUP1 SWAP2 DIV MUL PUSH1 0x20 ADD PUSH1 0x40 MLOAD SWAP1 DUP2 ADD PUSH1 0x40 MSTORE DUP1 SWAP3 SWAP2 SWAP1 DUP2 DUP2 MSTORE PUSH1 0x20 ADD DUP3 DUP1 SLOAD PUSH2 0x618 SWAP1 PUSH2 0x1C3C JUMP JUMPDEST DUP1 ISZERO PUSH2 0x663 JUMPI DUP1 PUSH1 0x1F LT PUSH2 0x63A JUMPI PUSH2 0x100 DUP1 DUP4 SLOAD DIV MUL DUP4 MSTORE SWAP2 PUSH1 0x20 ADD SWAP2 PUSH2 0x663 JUMP JUMPDEST DUP3 ADD SWAP2 SWAP1 PUSH0 MSTORE PUSH1 0x20 PUSH0 KECCAK256 SWAP1 JUMPDEST DUP2 SLOAD DUP2 MSTORE SWAP1 PUSH1 0x1 ADD SWAP1 PUSH1 0x20 ADD DUP1 DUP4 GT PUSH2 0x646 JUMPI DUP3 SWAP1 SUB PUSH1 0x1F AND DUP3 ADD SWAP2 JUMPDEST POP POP POP POP POP SWAP1 DUP1 PUSH1 0x2 ADD DUP1 SLOAD PUSH2 0x678 SWAP1 PUSH2 0x1C3C JUMP JUMPDEST DUP1 PUSH1 0x1F ADD PUSH1 0x20 DUP1 SWAP2 DIV MUL PUSH1 0x20 ADD PUSH1 0x40 MLOAD SWAP1 DUP2 ADD PUSH1 0x40 MSTORE DUP1 SWAP3 SWAP2 SWAP1 DUP2 DUP2 MSTORE PUSH1 0x20 ADD DUP3 DUP1 SLOAD PUSH2 0x6A4 SWAP1 PUSH2 0x1C3C JUMP JUMPDEST DUP1 ISZERO PUSH2 0x6EF JUMPI DUP1 PUSH1 0x1F LT PUSH2 0x6C6 JUMPI PUSH2 0x100 DUP1 DUP4 SLOAD DIV MUL DUP4 MSTORE SWAP2 PUSH1 0x20 ADD SWAP2 PUSH2 0x6EF JUMP JUMPDEST DUP3 ADD SWAP2 SWAP1 PUSH0 MSTORE PUSH1 0x20 PUSH0 KECCAK256 SWAP1 JUMPDEST DUP2 SLOAD DUP2 MSTORE SWAP1 PUSH1 0x1 ADD SWAP1 PUSH1 0x20 ADD DUP1 DUP4 GT PUSH2 0x6D2 JUMPI DUP3 SWAP1 SUB PUSH1 0x1F AND DUP3 ADD SWAP2 JUMPDEST POP POP POP POP POP SWAP1 DUP1 PUSH1 0x3 ADD SLOAD SWAP1 DUP1 PUSH1 0x4 ADD SLOAD SWAP1 DUP1 PUSH1 0x5 ADD SLOAD SWAP1 DUP1 PUSH1 0x6 ADD DUP1 SLOAD PUSH2 0x716 SWAP1 PUSH2 0x1C3C JUMP JUMPDEST DUP1 PUSH1 0x1F ADD PUSH1 0x20 DUP1 SWAP2 DIV MUL PUSH1 0x20 ADD PUSH1 0x40 MLOAD SWAP1 DUP2 ADD PUSH1 0x40 MSTORE DUP1 SWAP3 SWAP2 SWAP1 DUP2 DUP2 MSTORE PUSH1 0x20 ADD DUP3 DUP1 SLOAD PUSH2 0x742 SWAP1 PUSH2 0x1C3C JUMP JUMPDEST DUP1 ISZERO PUSH2 0x78D JUMPI DUP1 PUSH1 0x1F LT PUSH2 0x764 JUMPI PUSH2 0x100 DUP1 DUP4 SLOAD DIV MUL DUP4 MSTORE SWAP2 PUSH1 0x20 ADD SWAP2 PUSH2 0x78D JUMP JUMPDEST DUP3 ADD SWAP2 SWAP1 PUSH0 MSTORE PUSH1 0x20 PUSH0 KECCAK256 SWAP1 JUMPDEST DUP2 SLOAD DUP2 MSTORE SWAP1 PUSH1 0x1 ADD SWAP1 PUSH1 0x20 ADD DUP1 DUP4 GT PUSH2 0x770 JUMPI DUP3 SWAP1 SUB PUSH1 0x1F AND DUP3 ADD SWAP2 JUMPDEST POP POP POP POP POP SWAP1 POP DUP8 JUMP JUMPDEST PUSH1 0x60 PUSH1 0x3 SLOAD DUP3 LT PUSH2 0x7DD JUMPI PUSH1 0x40 MLOAD PUSH32 0x8C379A000000000000000000000000000000000000000000000000000000000 DUP2 MSTORE PUSH1 0x4 ADD PUSH2 0x7D4 SWAP1 PUSH2 0x1CE3 JUMP JUMPDEST PUSH1 0x40 MLOAD DUP1 SWAP2 SUB SWAP1 REVERT JUMPDEST PUSH0 PUSH1 0x1 PUSH0 DUP5 DUP2 MSTORE PUSH1 0x20 ADD SWAP1 DUP2 MSTORE PUSH1 0x20 ADD PUSH0 KECCAK256 DUP1 SLOAD DUP1 PUSH1 0x20 MUL PUSH1 0x20 ADD PUSH1 0x40 MLOAD SWAP1 DUP2 ADD PUSH1 0x40 MSTORE DUP1 SWAP3 SWAP2 SWAP1 DUP2 DUP2 MSTORE PUSH1 0x20 ADD PUSH0 SWAP1 JUMPDEST DUP3 DUP3 LT ISZERO PUSH2 0x92C JUMPI DUP4 DUP3 SWAP1 PUSH0 MSTORE PUSH1 0x20 PUSH0 KECCAK256 SWAP1 PUSH1 0x3 MUL ADD PUSH1 0x40 MLOAD DUP1 PUSH1 0x60 ADD PUSH1 0x40 MSTORE SWAP1 DUP2 PUSH0 DUP3 ADD PUSH0 SWAP1 SLOAD SWAP1 PUSH2 0x100 EXP SWAP1 DIV PUSH20 0xFFFFFFFFFFFFFFFFFFFFFFFFFFFFFFFFFFFFFFFF AND PUSH20 0xFFFFFFFFFFFFFFFFFFFFFFFFFFFFFFFFFFFFFFFF AND PUSH20 0xFFFFFFFFFFFFFFFFFFFFFFFFFFFFFFFFFFFFFFFF AND DUP2 MSTORE PUSH1 0x20 ADD PUSH1 0x1 DUP3 ADD SLOAD DUP2 MSTORE PUSH1 0x20 ADD PUSH1 0x2 DUP3 ADD DUP1 SLOAD PUSH2 0x89D SWAP1 PUSH2 0x1C3C JUMP JUMPDEST DUP1 PUSH1 0x1F ADD PUSH1 0x20 DUP1 SWAP2 DIV MUL PUSH1 0x20 ADD PUSH1 0x40 MLOAD SWAP1 DUP2 ADD PUSH1 0x40 MSTORE DUP1 SWAP3 SWAP2 SWAP1 DUP2 DUP2 MSTORE PUSH1 0x20 ADD DUP3 DUP1 SLOAD PUSH2 0x8C9 SWAP1 PUSH2 0x1C3C JUMP JUMPDEST DUP1 ISZERO PUSH2 0x914 JUMPI DUP1 PUSH1 0x1F LT PUSH2 0x8EB JUMPI PUSH2 0x100 DUP1 DUP4 SLOAD DIV MUL DUP4 MSTORE SWAP2 PUSH1 0x20 ADD SWAP2 PUSH2 0x914 JUMP JUMPDEST DUP3 ADD SWAP2 SWAP1 PUSH0 MSTORE PUSH1 0x20 PUSH0 KECCAK256 SWAP1 JUMPDEST DUP2 SLOAD DUP2 MSTORE SWAP1 PUSH1 0x1 ADD SWAP1 PUSH1 0x20 ADD DUP1 DUP4 GT PUSH2 0x8F7 JUMPI DUP3 SWAP1 SUB PUSH1 0x1F AND DUP3 ADD SWAP2 JUMPDEST POP POP POP POP POP DUP2 MSTORE POP POP DUP2 MSTORE PUSH1 0x20 ADD SWAP1 PUSH1 0x1 ADD SWAP1 PUSH2 0x80E JUMP JUMPDEST POP POP POP POP SWAP1 POP PUSH0 DUP2 MLOAD SWAP1 POP PUSH0 DUP2 PUSH8 0xFFFFFFFFFFFFFFFF DUP2 GT ISZERO PUSH2 0x952 JUMPI PUSH2 0x951 PUSH2 0x1803 JUMP JUMPDEST JUMPDEST PUSH1 0x40 MLOAD SWAP1 DUP1 DUP3 MSTORE DUP1 PUSH1 0x20 MUL PUSH1 0x20 ADD DUP3 ADD PUSH1 0x40 MSTORE DUP1 ISZERO PUSH2 0x98B JUMPI DUP2 PUSH1 0x20 ADD JUMPDEST PUSH2 0x978 PUSH2 0xF94 JUMP JUMPDEST DUP2 MSTORE PUSH1 0x20 ADD SWAP1 PUSH1 0x1 SWAP1 SUB SWAP1 DUP2 PUSH2 0x970 JUMPI SWAP1 POP JUMPDEST POP SWAP1 POP PUSH0 JUMPDEST DUP3 DUP2 LT ISZERO PUSH2 0x9DE JUMPI DUP4 DUP2 DUP2 MLOAD DUP2 LT PUSH2 0x9AB JUMPI PUSH2 0x9AA PUSH2 0x1C6C JUMP JUMPDEST JUMPDEST PUSH1 0x20 MUL PUSH1 0x20 ADD ADD MLOAD DUP3 DUP3 DUP2 MLOAD DUP2 LT PUSH2 0x9C6 JUMPI PUSH2 0x9C5 PUSH2 0x1C6C JUMP JUMPDEST JUMPDEST PUSH1 0x20 MUL PUSH1 0x20 ADD ADD DUP2 SWAP1 MSTORE POP DUP1 DUP1 PUSH1 0x1 ADD SWAP2 POP POP PUSH2 0x990 JUMP JUMPDEST POP DUP1 SWAP4 POP POP POP POP SWAP2 SWAP1 POP JUMP JUMPDEST PUSH1 0x2 PUSH1 0x20 MSTORE DUP2 PUSH0 MSTORE PUSH1 0x40 PUSH0 KECCAK256 PUSH1 0x20 MSTORE DUP1 PUSH0 MSTORE PUSH1 0x40 PUSH0 KECCAK256 PUSH0 SWAP2 POP SWAP2 POP SWAP1 SLOAD SWAP1 PUSH2 0x100 EXP SWAP1 DIV PUSH1 0xFF AND DUP2 JUMP JUMPDEST PUSH1 0x3 SLOAD DUP4 LT PUSH2 0xA58 JUMPI PUSH1 0x40 MLOAD PUSH32 0x8C379A000000000000000000000000000000000000000000000000000000000 DUP2 MSTORE PUSH1 0x4 ADD PUSH2 0xA4F SWAP1 PUSH2 0x1CE3 JUMP JUMPDEST PUSH1 0x40 MLOAD DUP1 SWAP2 SUB SWAP1 REVERT JUMPDEST PUSH2 0xA62 CALLER DUP5 PUSH2 0xEE3 JUMP JUMPDEST PUSH2 0xAA1 JUMPI PUSH1 0x40 MLOAD PUSH32 0x8C379A000000000000000000000000000000000000000000000000000000000 DUP2 MSTORE PUSH1 0x4 ADD PUSH2 0xA98 SWAP1 PUSH2 0x1D71 JUMP JUMPDEST PUSH1 0x40 MLOAD DUP1 SWAP2 SUB SWAP1 REVERT JUMPDEST PUSH0 PUSH1 0x1 PUSH0 DUP6 DUP2 MSTORE PUSH1 0x20 ADD SWAP1 DUP2 MSTORE PUSH1 0x20 ADD PUSH0 KECCAK256 SWAP1 POP DUP1 PUSH1 0x40 MLOAD DUP1 PUSH1 0x60 ADD PUSH1 0x40 MSTORE DUP1 CALLER PUSH20 0xFFFFFFFFFFFFFFFFFFFFFFFFFFFFFFFFFFFFFFFF AND DUP2 MSTORE PUSH1 0x20 ADD DUP5 DUP2 MSTORE PUSH1 0x20 ADD DUP6 DUP2 MSTORE POP SWAP1 DUP1 PUSH1 0x1 DUP2 SLOAD ADD DUP1 DUP3 SSTORE DUP1 SWAP2 POP POP PUSH1 0x1 SWAP1 SUB SWAP1 PUSH0 MSTORE PUSH1 0x20 PUSH0 KECCAK256 SWAP1 PUSH1 0x3 MUL ADD PUSH0 SWAP1 SWAP2 SWAP1 SWAP2 SWAP1 SWAP2 POP PUSH0 DUP3 ADD MLOAD DUP2 PUSH0 ADD PUSH0 PUSH2 0x100 EXP DUP2 SLOAD DUP2 PUSH20 0xFFFFFFFFFFFFFFFFFFFFFFFFFFFFFFFFFFFFFFFF MUL NOT AND SWAP1 DUP4 PUSH20 0xFFFFFFFFFFFFFFFFFFFFFFFFFFFFFFFFFFFFFFFF AND MUL OR SWAP1 SSTORE POP PUSH1 0x20 DUP3 ADD MLOAD DUP2 PUSH1 0x1 ADD SSTORE PUSH1 0x40 DUP3 ADD MLOAD DUP2 PUSH1 0x2 ADD SWAP1 DUP2 PUSH2 0xB70 SWAP2 SWAP1 PUSH2 0x1F2C JUMP JUMPDEST POP POP POP DUP1 PUSH1 0x1 PUSH0 DUP7 DUP2 MSTORE PUSH1 0x20 ADD SWAP1 DUP2 MSTORE PUSH1 0x20 ADD PUSH0 KECCAK256 SWAP1 DUP1 SLOAD PUSH2 0xB93 SWAP3 SWAP2 SWAP1 PUSH2 0xFCC JUMP JUMPDEST POP POP POP POP POP JUMP JUMPDEST PUSH1 0x3 SLOAD DUP2 JUMP JUMPDEST PUSH1 0x3 SLOAD DUP4 LT PUSH2 0xBE4 JUMPI PUSH1 0x40 MLOAD PUSH32 0x8C379A000000000000000000000000000000000000000000000000000000000 DUP2 MSTORE PUSH1 0x4 ADD PUSH2 0xBDB SWAP1 PUSH2 0x1CE3 JUMP JUMPDEST PUSH1 0x40 MLOAD DUP1 SWAP2 SUB SWAP1 REVERT JUMPDEST PUSH0 DUP1 DUP5 DUP2 MSTORE PUSH1 0x20 ADD SWAP1 DUP2 MSTORE PUSH1 0x20 ADD PUSH0 KECCAK256 PUSH0 ADD PUSH0 SWAP1 SLOAD SWAP1 PUSH2 0x100 EXP SWAP1 DIV PUSH20 0xFFFFFFFFFFFFFFFFFFFFFFFFFFFFFFFFFFFFFFFF AND PUSH20 0xFFFFFFFFFFFFFFFFFFFFFFFFFFFFFFFFFFFFFFFF AND CALLER PUSH20 0xFFFFFFFFFFFFFFFFFFFFFFFFFFFFFFFFFFFFFFFF AND EQ PUSH2 0xC83 JUMPI PUSH1 0x40 MLOAD PUSH32 0x8C379A000000000000000000000000000000000000000000000000000000000 DUP2 MSTORE PUSH1 0x4 ADD PUSH2 0xC7A SWAP1 PUSH2 0x206B JUMP JUMPDEST PUSH1 0x40 MLOAD DUP1 SWAP2 SUB SWAP1 REVERT JUMPDEST DUP1 PUSH1 0x2 PUSH0 DUP6 DUP2 MSTORE PUSH1 0x20 ADD SWAP1 DUP2 MSTORE PUSH1 0x20 ADD PUSH0 KECCAK256 PUSH0 DUP5 PUSH20 0xFFFFFFFFFFFFFFFFFFFFFFFFFFFFFFFFFFFFFFFF AND PUSH20 0xFFFFFFFFFFFFFFFFFFFFFFFFFFFFFFFFFFFFFFFF AND DUP2 MSTORE PUSH1 0x20 ADD SWAP1 DUP2 MSTORE PUSH1 0x20 ADD PUSH0 KECCAK256 PUSH0 PUSH2 0x100 EXP DUP2 SLOAD DUP2 PUSH1 0xFF MUL NOT AND SWAP1 DUP4 ISZERO ISZERO MUL OR SWAP1 SSTORE POP POP POP POP JUMP JUMPDEST PUSH1 0x40 MLOAD DUP1 PUSH1 0xE0 ADD PUSH1 0x40 MSTORE DUP1 CALLER PUSH20 0xFFFFFFFFFFFFFFFFFFFFFFFFFFFFFFFFFFFFFFFF AND DUP2 MSTORE PUSH1 0x20 ADD DUP10 DUP2 MSTORE PUSH1 0x20 ADD DUP9 DUP2 MSTORE PUSH1 0x20 ADD DUP8 DUP2 MSTORE PUSH1 0x20 ADD DUP7 DUP2 MSTORE PUSH1 0x20 ADD DUP6 DUP2 MSTORE PUSH1 0x20 ADD DUP5 DUP2 MSTORE POP PUSH0 DUP1 PUSH1 0x3 SLOAD DUP2 MSTORE PUSH1 0x20 ADD SWAP1 DUP2 MSTORE PUSH1 0x20 ADD PUSH0 KECCAK256 PUSH0 DUP3 ADD MLOAD DUP2 PUSH0 ADD PUSH0 PUSH2 0x100 EXP DUP2 SLOAD DUP2 PUSH20 0xFFFFFFFFFFFFFFFFFFFFFFFFFFFFFFFFFFFFFFFF MUL NOT AND SWAP1 DUP4 PUSH20 0xFFFFFFFFFFFFFFFFFFFFFFFFFFFFFFFFFFFFFFFF AND MUL OR SWAP1 SSTORE POP PUSH1 0x20 DUP3 ADD MLOAD DUP2 PUSH1 0x1 ADD SWAP1 DUP2 PUSH2 0xD9F SWAP2 SWAP1 PUSH2 0x20E1 JUMP JUMPDEST POP PUSH1 0x40 DUP3 ADD MLOAD DUP2 PUSH1 0x2 ADD SWAP1 DUP2 PUSH2 0xDB5 SWAP2 SWAP1 PUSH2 0x20E1 JUMP JUMPDEST POP PUSH1 0x60 DUP3 ADD MLOAD DUP2 PUSH1 0x3 ADD SSTORE PUSH1 0x80 DUP3 ADD MLOAD DUP2 PUSH1 0x4 ADD SSTORE PUSH1 0xA0 DUP3 ADD MLOAD DUP2 PUSH1 0x5 ADD SSTORE PUSH1 0xC0 DUP3 ADD MLOAD DUP2 PUSH1 0x6 ADD SWAP1 DUP2 PUSH2 0xDE9 SWAP2 SWAP1 PUSH2 0x20E1 JUMP JUMPDEST POP SWAP1 POP POP PUSH0 PUSH1 0x1 PUSH0 PUSH1 0x3 SLOAD DUP2 MSTORE PUSH1 0x20 ADD SWAP1 DUP2 MSTORE PUSH1 0x20 ADD PUSH0 KECCAK256 SWAP1 POP DUP1 PUSH1 0x40 MLOAD DUP1 PUSH1 0x60 ADD PUSH1 0x40 MSTORE DUP1 CALLER PUSH20 0xFFFFFFFFFFFFFFFFFFFFFFFFFFFFFFFFFFFFFFFF AND DUP2 MSTORE PUSH1 0x20 ADD DUP5 DUP2 MSTORE PUSH1 0x20 ADD DUP6 DUP2 MSTORE POP SWAP1 DUP1 PUSH1 0x1 DUP2 SLOAD ADD DUP1 DUP3 SSTORE DUP1 SWAP2 POP POP PUSH1 0x1 SWAP1 SUB SWAP1 PUSH0 MSTORE PUSH1 0x20 PUSH0 KECCAK256 SWAP1 PUSH1 0x3 MUL ADD PUSH0 SWAP1 SWAP2 SWAP1 SWAP2 SWAP1 SWAP2 POP PUSH0 DUP3 ADD MLOAD DUP2 PUSH0 ADD PUSH0 PUSH2 0x100 EXP DUP2 SLOAD DUP2 PUSH20 0xFFFFFFFFFFFFFFFFFFFFFFFFFFFFFFFFFFFFFFFF MUL NOT AND SWAP1 DUP4 PUSH20 0xFFFFFFFFFFFFFFFFFFFFFFFFFFFFFFFFFFFFFFFF AND MUL OR SWAP1 SSTORE POP PUSH1 0x20 DUP3 ADD MLOAD DUP2 PUSH1 0x1 ADD SSTORE PUSH1 0x40 DUP3 ADD MLOAD DUP2 PUSH1 0x2 ADD SWAP1 DUP2 PUSH2 0xEBE SWAP2 SWAP1 PUSH2 0x1F2C JUMP JUMPDEST POP POP POP PUSH1 0x3 PUSH0 DUP2 SLOAD DUP1 SWAP3 SWAP2 SWAP1 PUSH2 0xED3 SWAP1 PUSH2 0x21DD JUMP JUMPDEST SWAP2 SWAP1 POP SSTORE POP POP POP POP POP POP POP POP POP POP JUMP JUMPDEST PUSH0 PUSH1 0x2 PUSH0 DUP4 DUP2 MSTORE PUSH1 0x20 ADD SWAP1 DUP2 MSTORE PUSH1 0x20 ADD PUSH0 KECCAK256 PUSH0 DUP5 PUSH20 0xFFFFFFFFFFFFFFFFFFFFFFFFFFFFFFFFFFFFFFFF AND PUSH20 0xFFFFFFFFFFFFFFFFFFFFFFFFFFFFFFFFFFFFFFFF AND DUP2 MSTORE PUSH1 0x20 ADD SWAP1 DUP2 MSTORE PUSH1 0x20 ADD PUSH0 KECCAK256 PUSH0 SWAP1 SLOAD SWAP1 PUSH2 0x100 EXP SWAP1 DIV PUSH1 0xFF AND SWAP1 POP SWAP3 SWAP2 POP POP JUMP JUMPDEST PUSH1 0x40 MLOAD DUP1 PUSH1 0xE0 ADD PUSH1 0x40 MSTORE DUP1 PUSH0 PUSH20 0xFFFFFFFFFFFFFFFFFFFFFFFFFFFFFFFFFFFFFFFF AND DUP2 MSTORE PUSH1 0x20 ADD PUSH1 0x60 DUP2 MSTORE PUSH1 0x20 ADD PUSH1 0x60 DUP2 MSTORE PUSH1 0x20 ADD PUSH0 DUP2 MSTORE PUSH1 0x20 ADD PUSH0 DUP2 MSTORE PUSH1 0x20 ADD PUSH0 DUP2 MSTORE PUSH1 0x20 ADD PUSH1 0x60 DUP2 MSTORE POP SWAP1 JUMP JUMPDEST PUSH1 0x40 MLOAD DUP1 PUSH1 0x60 ADD PUSH1 0x40 MSTORE DUP1 PUSH0 PUSH20 0xFFFFFFFFFFFFFFFFFFFFFFFFFFFFFFFFFFFFFFFF AND DUP2 MSTORE PUSH1 0x20 ADD PUSH0 DUP1 NOT AND DUP2 MSTORE PUSH1 0x20 ADD PUSH1 0x60 DUP2 MSTORE POP SWAP1 JUMP JUMPDEST DUP3 DUP1 SLOAD DUP3 DUP3 SSTORE SWAP1 PUSH0 MSTORE PUSH1 0x20 PUSH0 KECCAK256 SWAP1 PUSH1 0x3 MUL DUP2 ADD SWAP3 DUP3 ISZERO PUSH2 0x1091 JUMPI PUSH0 MSTORE PUSH1 0x20 PUSH0 KECCAK256 SWAP2 PUSH1 0x3 MUL DUP3 ADD JUMPDEST DUP3 DUP2 GT ISZERO PUSH2 0x1090 JUMPI DUP3 DUP3 PUSH0 DUP3 ADD PUSH0 SWAP1 SLOAD SWAP1 PUSH2 0x100 EXP SWAP1 DIV PUSH20 0xFFFFFFFFFFFFFFFFFFFFFFFFFFFFFFFFFFFFFFFF AND DUP2 PUSH0 ADD PUSH0 PUSH2 0x100 EXP DUP2 SLOAD DUP2 PUSH20 0xFFFFFFFFFFFFFFFFFFFFFFFFFFFFFFFFFFFFFFFF MUL NOT AND SWAP1 DUP4 PUSH20 0xFFFFFFFFFFFFFFFFFFFFFFFFFFFFFFFFFFFFFFFF AND MUL OR SWAP1 SSTORE POP PUSH1 0x1 DUP3 ADD SLOAD DUP2 PUSH1 0x1 ADD SSTORE PUSH1 0x2 DUP3 ADD DUP2 PUSH1 0x2 ADD SWAP1 DUP2 PUSH2 0x107E SWAP2 SWAP1 PUSH2 0x2239 JUMP JUMPDEST POP POP POP SWAP2 PUSH1 0x3 ADD SWAP2 SWAP1 PUSH1 0x3 ADD SWAP1 PUSH2 0xFF3 JUMP JUMPDEST JUMPDEST POP SWAP1 POP PUSH2 0x109E SWAP2 SWAP1 PUSH2 0x10A2 JUMP JUMPDEST POP SWAP1 JUMP JUMPDEST JUMPDEST DUP1 DUP3 GT ISZERO PUSH2 0x10F0 JUMPI PUSH0 DUP1 DUP3 ADD PUSH0 PUSH2 0x100 EXP DUP2 SLOAD SWAP1 PUSH20 0xFFFFFFFFFFFFFFFFFFFFFFFFFFFFFFFFFFFFFFFF MUL NOT AND SWAP1 SSTORE PUSH1 0x1 DUP3 ADD PUSH0 SWAP1 SSTORE PUSH1 0x2 DUP3 ADD PUSH0 PUSH2 0x10E7 SWAP2 SWAP1 PUSH2 0x10F4 JUMP JUMPDEST POP PUSH1 0x3 ADD PUSH2 0x10A3 JUMP JUMPDEST POP SWAP1 JUMP JUMPDEST POP DUP1 SLOAD PUSH2 0x1100 SWAP1 PUSH2 0x1C3C JUMP JUMPDEST PUSH0 DUP3 SSTORE DUP1 PUSH1 0x1F LT PUSH2 0x1111 JUMPI POP PUSH2 0x112E JUMP JUMPDEST PUSH1 0x1F ADD PUSH1 0x20 SWAP1 DIV SWAP1 PUSH0 MSTORE PUSH1 0x20 PUSH0 KECCAK256 SWAP1 DUP2 ADD SWAP1 PUSH2 0x112D SWAP2 SWAP1 PUSH2 0x1131 JUMP JUMPDEST JUMPDEST POP JUMP JUMPDEST JUMPDEST DUP1 DUP3 GT ISZERO PUSH2 0x1148 JUMPI PUSH0 DUP2 PUSH0 SWAP1 SSTORE POP PUSH1 0x1 ADD PUSH2 0x1132 JUMP JUMPDEST POP SWAP1 JUMP JUMPDEST PUSH0 PUSH1 0x40 MLOAD SWAP1 POP SWAP1 JUMP JUMPDEST PUSH0 DUP1 REVERT JUMPDEST PUSH0 DUP1 REVERT JUMPDEST PUSH0 DUP2 SWAP1 POP SWAP2 SWAP1 POP JUMP JUMPDEST PUSH2 0x116F DUP2 PUSH2 0x115D JUMP JUMPDEST DUP2 EQ PUSH2 0x1179 JUMPI PUSH0 DUP1 REVERT JUMPDEST POP JUMP JUMPDEST PUSH0 DUP2 CALLDATALOAD SWAP1 POP PUSH2 0x118A DUP2 PUSH2 0x1166 JUMP JUMPDEST SWAP3 SWAP2 POP POP JUMP JUMPDEST PUSH0 DUP1 PUSH1 0x40 DUP4 DUP6 SUB SLT ISZERO PUSH2 0x11A6 JUMPI PUSH2 0x11A5 PUSH2 0x1155 JUMP JUMPDEST JUMPDEST PUSH0 PUSH2 0x11B3 DUP6 DUP3 DUP7 ADD PUSH2 0x117C JUMP JUMPDEST SWAP3 POP POP PUSH1 0x20 PUSH2 0x11C4 DUP6 DUP3 DUP7 ADD PUSH2 0x117C JUMP JUMPDEST SWAP2 POP POP SWAP3 POP SWAP3 SWAP1 POP JUMP JUMPDEST PUSH0 PUSH20 0xFFFFFFFFFFFFFFFFFFFFFFFFFFFFFFFFFFFFFFFF DUP3 AND SWAP1 POP SWAP2 SWAP1 POP JUMP JUMPDEST PUSH0 PUSH2 0x11F7 DUP3 PUSH2 0x11CE JUMP JUMPDEST SWAP1 POP SWAP2 SWAP1 POP JUMP JUMPDEST PUSH2 0x1207 DUP2 PUSH2 0x11ED JUMP JUMPDEST DUP3 MSTORE POP POP JUMP JUMPDEST PUSH0 DUP2 SWAP1 POP SWAP2 SWAP1 POP JUMP JUMPDEST PUSH2 0x121F DUP2 PUSH2 0x120D JUMP JUMPDEST DUP3 MSTORE POP POP JUMP JUMPDEST PUSH0 DUP2 MLOAD SWAP1 POP SWAP2 SWAP1 POP JUMP JUMPDEST PUSH0 DUP3 DUP3 MSTORE PUSH1 0x20 DUP3 ADD SWAP1 POP SWAP3 SWAP2 POP POP JUMP JUMPDEST PUSH0 JUMPDEST DUP4 DUP2 LT ISZERO PUSH2 0x125C JUMPI DUP1 DUP3 ADD MLOAD DUP2 DUP5 ADD MSTORE PUSH1 0x20 DUP2 ADD SWAP1 POP PUSH2 0x1241 JUMP JUMPDEST PUSH0 DUP5 DUP5 ADD MSTORE POP POP POP POP JUMP JUMPDEST PUSH0 PUSH1 0x1F NOT PUSH1 0x1F DUP4 ADD AND SWAP1 POP SWAP2 SWAP1 POP JUMP JUMPDEST PUSH0 PUSH2 0x1281 DUP3 PUSH2 0x1225 JUMP JUMPDEST PUSH2 0x128B DUP2 DUP6 PUSH2 0x122F JUMP JUMPDEST SWAP4 POP PUSH2 0x129B DUP2 DUP6 PUSH1 0x20 DUP7 ADD PUSH2 0x123F JUMP JUMPDEST PUSH2 0x12A4 DUP2 PUSH2 0x1267 JUMP JUMPDEST DUP5 ADD SWAP2 POP POP SWAP3 SWAP2 POP POP JUMP JUMPDEST PUSH0 PUSH1 0x60 DUP3 ADD SWAP1 POP PUSH2 0x12C2 PUSH0 DUP4 ADD DUP7 PUSH2 0x11FE JUMP JUMPDEST PUSH2 0x12CF PUSH1 0x20 DUP4 ADD DUP6 PUSH2 0x1216 JUMP JUMPDEST DUP2 DUP2 SUB PUSH1 0x40 DUP4 ADD MSTORE PUSH2 0x12E1 DUP2 DUP5 PUSH2 0x1277 JUMP JUMPDEST SWAP1 POP SWAP5 SWAP4 POP POP POP POP JUMP JUMPDEST PUSH0 DUP2 MLOAD SWAP1 POP SWAP2 SWAP1 POP JUMP JUMPDEST PUSH0 DUP3 DUP3 MSTORE PUSH1 0x20 DUP3 ADD SWAP1 POP SWAP3 SWAP2 POP POP JUMP JUMPDEST PUSH0 DUP2 SWAP1 POP PUSH1 0x20 DUP3 ADD SWAP1 POP SWAP2 SWAP1 POP JUMP JUMPDEST PUSH2 0x131D DUP2 PUSH2 0x11ED JUMP JUMPDEST DUP3 MSTORE POP POP JUMP JUMPDEST PUSH0 DUP2 MLOAD SWAP1 POP SWAP2 SWAP1 POP JUMP JUMPDEST PUSH0 DUP3 DUP3 MSTORE PUSH1 0x20 DUP3 ADD SWAP1 POP SWAP3 SWAP2 POP POP JUMP JUMPDEST PUSH0 PUSH2 0x1347 DUP3 PUSH2 0x1323 JUMP JUMPDEST PUSH2 0x1351 DUP2 DUP6 PUSH2 0x132D JUMP JUMPDEST SWAP4 POP PUSH2 0x1361 DUP2 DUP6 PUSH1 0x20 DUP7 ADD PUSH2 0x123F JUMP JUMPDEST PUSH2 0x136A DUP2 PUSH2 0x1267 JUMP JUMPDEST DUP5 ADD SWAP2 POP POP SWAP3 SWAP2 POP POP JUMP JUMPDEST PUSH2 0x137E DUP2 PUSH2 0x115D JUMP JUMPDEST DUP3 MSTORE POP POP JUMP JUMPDEST PUSH0 PUSH1 0xE0 DUP4 ADD PUSH0 DUP4 ADD MLOAD PUSH2 0x1399 PUSH0 DUP7 ADD DUP3 PUSH2 0x1314 JUMP JUMPDEST POP PUSH1 0x20 DUP4 ADD MLOAD DUP5 DUP3 SUB PUSH1 0x20 DUP7 ADD MSTORE PUSH2 0x13B1 DUP3 DUP3 PUSH2 0x133D JUMP JUMPDEST SWAP2 POP POP PUSH1 0x40 DUP4 ADD MLOAD DUP5 DUP3 SUB PUSH1 0x40 DUP7 ADD MSTORE PUSH2 0x13CB DUP3 DUP3 PUSH2 0x133D JUMP JUMPDEST SWAP2 POP POP PUSH1 0x60 DUP4 ADD MLOAD PUSH2 0x13E0 PUSH1 0x60 DUP7 ADD DUP3 PUSH2 0x1375 JUMP JUMPDEST POP PUSH1 0x80 DUP4 ADD MLOAD PUSH2 0x13F3 PUSH1 0x80 DUP7 ADD DUP3 PUSH2 0x1375 JUMP JUMPDEST POP PUSH1 0xA0 DUP4 ADD MLOAD PUSH2 0x1406 PUSH1 0xA0 DUP7 ADD DUP3 PUSH2 0x1375 JUMP JUMPDEST POP PUSH1 0xC0 DUP4 ADD MLOAD DUP5 DUP3 SUB PUSH1 0xC0 DUP7 ADD MSTORE PUSH2 0x141E DUP3 DUP3 PUSH2 0x133D JUMP JUMPDEST SWAP2 POP POP DUP1 SWAP2 POP POP SWAP3 SWAP2 POP POP JUMP JUMPDEST PUSH0 PUSH2 0x1436 DUP4 DUP4 PUSH2 0x1384 JUMP JUMPDEST SWAP1 POP SWAP3 SWAP2 POP POP JUMP JUMPDEST PUSH0 PUSH1 0x20 DUP3 ADD SWAP1 POP SWAP2 SWAP1 POP JUMP JUMPDEST PUSH0 PUSH2 0x1454 DUP3 PUSH2 0x12EB JUMP JUMPDEST PUSH2 0x145E DUP2 DUP6 PUSH2 0x12F5 JUMP JUMPDEST SWAP4 POP DUP4 PUSH1 0x20 DUP3 MUL DUP6 ADD PUSH2 0x1470 DUP6 PUSH2 0x1305 JUMP JUMPDEST DUP1 PUSH0 JUMPDEST DUP6 DUP2 LT ISZERO PUSH2 0x14AB JUMPI DUP5 DUP5 SUB DUP10 MSTORE DUP2 MLOAD PUSH2 0x148C DUP6 DUP3 PUSH2 0x142B JUMP JUMPDEST SWAP5 POP PUSH2 0x1497 DUP4 PUSH2 0x143E JUMP JUMPDEST SWAP3 POP PUSH1 0x20 DUP11 ADD SWAP10 POP POP PUSH1 0x1 DUP2 ADD SWAP1 POP PUSH2 0x1473 JUMP JUMPDEST POP DUP3 SWAP8 POP DUP8 SWAP6 POP POP POP POP POP POP SWAP3 SWAP2 POP POP JUMP JUMPDEST PUSH0 PUSH1 0x20 DUP3 ADD SWAP1 POP DUP2 DUP2 SUB PUSH0 DUP4 ADD MSTORE PUSH2 0x14D5 DUP2 DUP5 PUSH2 0x144A JUMP JUMPDEST SWAP1 POP SWAP3 SWAP2 POP POP JUMP JUMPDEST PUSH0 PUSH1 0x20 DUP3 DUP5 SUB SLT ISZERO PUSH2 0x14F2 JUMPI PUSH2 0x14F1 PUSH2 0x1155 JUMP JUMPDEST JUMPDEST PUSH0 PUSH2 0x14FF DUP5 DUP3 DUP6 ADD PUSH2 0x117C JUMP JUMPDEST SWAP2 POP POP SWAP3 SWAP2 POP POP JUMP JUMPDEST PUSH0 DUP3 DUP3 MSTORE PUSH1 0x20 DUP3 ADD SWAP1 POP SWAP3 SWAP2 POP POP JUMP JUMPDEST PUSH0 PUSH2 0x1522 DUP3 PUSH2 0x1323 JUMP JUMPDEST PUSH2 0x152C DUP2 DUP6 PUSH2 0x1508 JUMP JUMPDEST SWAP4 POP PUSH2 0x153C DUP2 DUP6 PUSH1 0x20 DUP7 ADD PUSH2 0x123F JUMP JUMPDEST PUSH2 0x1545 DUP2 PUSH2 0x1267 JUMP JUMPDEST DUP5 ADD SWAP2 POP POP SWAP3 SWAP2 POP POP JUMP JUMPDEST PUSH2 0x1559 DUP2 PUSH2 0x115D JUMP JUMPDEST DUP3 MSTORE POP POP JUMP JUMPDEST PUSH0 PUSH1 0xE0 DUP3 ADD SWAP1 POP PUSH2 0x1572 PUSH0 DUP4 ADD DUP11 PUSH2 0x11FE JUMP JUMPDEST DUP2 DUP2 SUB PUSH1 0x20 DUP4 ADD MSTORE PUSH2 0x1584 DUP2 DUP10 PUSH2 0x1518 JUMP JUMPDEST SWAP1 POP DUP2 DUP2 SUB PUSH1 0x40 DUP4 ADD MSTORE PUSH2 0x1598 DUP2 DUP9 PUSH2 0x1518 JUMP JUMPDEST SWAP1 POP PUSH2 0x15A7 PUSH1 0x60 DUP4 ADD DUP8 PUSH2 0x1550 JUMP JUMPDEST PUSH2 0x15B4 PUSH1 0x80 DUP4 ADD DUP7 PUSH2 0x1550 JUMP JUMPDEST PUSH2 0x15C1 PUSH1 0xA0 DUP4 ADD DUP6 PUSH2 0x1550 JUMP JUMPDEST DUP2 DUP2 SUB PUSH1 0xC0 DUP4 ADD MSTORE PUSH2 0x15D3 DUP2 DUP5 PUSH2 0x1518 JUMP JUMPDEST SWAP1 POP SWAP9 SWAP8 POP POP POP POP POP POP POP POP JUMP JUMPDEST PUSH0 DUP2 MLOAD SWAP1 POP SWAP2 SWAP1 POP JUMP JUMPDEST PUSH0 DUP3 DUP3 MSTORE PUSH1 0x20 DUP3 ADD SWAP1 POP SWAP3 SWAP2 POP POP JUMP JUMPDEST PUSH0 DUP2 SWAP1 POP PUSH1 0x20 DUP3 ADD SWAP1 POP SWAP2 SWAP1 POP JUMP JUMPDEST PUSH2 0x1613 DUP2 PUSH2 0x120D JUMP JUMPDEST DUP3 MSTORE POP POP JUMP JUMPDEST PUSH0 DUP3 DUP3 MSTORE PUSH1 0x20 DUP3 ADD SWAP1 POP SWAP3 SWAP2 POP POP JUMP JUMPDEST PUSH0 PUSH2 0x1633 DUP3 PUSH2 0x1225 JUMP JUMPDEST PUSH2 0x163D DUP2 DUP6 PUSH2 0x1619 JUMP JUMPDEST SWAP4 POP PUSH2 0x164D DUP2 DUP6 PUSH1 0x20 DUP7 ADD PUSH2 0x123F JUMP JUMPDEST PUSH2 0x1656 DUP2 PUSH2 0x1267 JUMP JUMPDEST DUP5 ADD SWAP2 POP POP SWAP3 SWAP2 POP POP JUMP JUMPDEST PUSH0 PUSH1 0x60 DUP4 ADD PUSH0 DUP4 ADD MLOAD PUSH2 0x1676 PUSH0 DUP7 ADD DUP3 PUSH2 0x1314 JUMP JUMPDEST POP PUSH1 0x20 DUP4 ADD MLOAD PUSH2 0x1689 PUSH1 0x20 DUP7 ADD DUP3 PUSH2 0x160A JUMP JUMPDEST POP PUSH1 0x40 DUP4 ADD MLOAD DUP5 DUP3 SUB PUSH1 0x40 DUP7 ADD MSTORE PUSH2 0x16A1 DUP3 DUP3 PUSH2 0x1629 JUMP JUMPDEST SWAP2 POP POP DUP1 SWAP2 POP POP SWAP3 SWAP2 POP POP JUMP JUMPDEST PUSH0 PUSH2 0x16B9 DUP4 DUP4 PUSH2 0x1661 JUMP JUMPDEST SWAP1 POP SWAP3 SWAP2 POP POP JUMP JUMPDEST PUSH0 PUSH1 0x20 DUP3 ADD SWAP1 POP SWAP2 SWAP1 POP JUMP JUMPDEST PUSH0 PUSH2 0x16D7 DUP3 PUSH2 0x15E1 JUMP JUMPDEST PUSH2 0x16E1 DUP2 DUP6 PUSH2 0x15EB JUMP JUMPDEST SWAP4 POP DUP4 PUSH1 0x20 DUP3 MUL DUP6 ADD PUSH2 0x16F3 DUP6 PUSH2 0x15FB JUMP JUMPDEST DUP1 PUSH0 JUMPDEST DUP6 DUP2 LT ISZERO PUSH2 0x172E JUMPI DUP5 DUP5 SUB DUP10 MSTORE DUP2 MLOAD PUSH2 0x170F DUP6 DUP3 PUSH2 0x16AE JUMP JUMPDEST SWAP5 POP PUSH2 0x171A DUP4 PUSH2 0x16C1 JUMP JUMPDEST SWAP3 POP PUSH1 0x20 DUP11 ADD SWAP10 POP POP PUSH1 0x1 DUP2 ADD SWAP1 POP PUSH2 0x16F6 JUMP JUMPDEST POP DUP3 SWAP8 POP DUP8 SWAP6 POP POP POP POP POP POP SWAP3 SWAP2 POP POP JUMP JUMPDEST PUSH0 PUSH1 0x20 DUP3 ADD SWAP1 POP DUP2 DUP2 SUB PUSH0 DUP4 ADD MSTORE PUSH2 0x1758 DUP2 DUP5 PUSH2 0x16CD JUMP JUMPDEST SWAP1 POP SWAP3 SWAP2 POP POP JUMP JUMPDEST PUSH2 0x1769 DUP2 PUSH2 0x11ED JUMP JUMPDEST DUP2 EQ PUSH2 0x1773 JUMPI PUSH0 DUP1 REVERT JUMPDEST POP JUMP JUMPDEST PUSH0 DUP2 CALLDATALOAD SWAP1 POP PUSH2 0x1784 DUP2 PUSH2 0x1760 JUMP JUMPDEST SWAP3 SWAP2 POP POP JUMP JUMPDEST PUSH0 DUP1 PUSH1 0x40 DUP4 DUP6 SUB SLT ISZERO PUSH2 0x17A0 JUMPI PUSH2 0x179F PUSH2 0x1155 JUMP JUMPDEST JUMPDEST PUSH0 PUSH2 0x17AD DUP6 DUP3 DUP7 ADD PUSH2 0x117C JUMP JUMPDEST SWAP3 POP POP PUSH1 0x20 PUSH2 0x17BE DUP6 DUP3 DUP7 ADD PUSH2 0x1776 JUMP JUMPDEST SWAP2 POP POP SWAP3 POP SWAP3 SWAP1 POP JUMP JUMPDEST PUSH0 DUP2 ISZERO ISZERO SWAP1 POP SWAP2 SWAP1 POP JUMP JUMPDEST PUSH2 0x17DC DUP2 PUSH2 0x17C8 JUMP JUMPDEST DUP3 MSTORE POP POP JUMP JUMPDEST PUSH0 PUSH1 0x20 DUP3 ADD SWAP1 POP PUSH2 0x17F5 PUSH0 DUP4 ADD DUP5 PUSH2 0x17D3 JUMP JUMPDEST SWAP3 SWAP2 POP POP JUMP JUMPDEST PUSH0 DUP1 REVERT JUMPDEST PUSH0 DUP1 REVERT JUMPDEST PUSH32 0x4E487B7100000000000000000000000000000000000000000000000000000000 PUSH0 MSTORE PUSH1 0x41 PUSH1 0x4 MSTORE PUSH1 0x24 PUSH0 REVERT JUMPDEST PUSH2 0x1839 DUP3 PUSH2 0x1267 JUMP JUMPDEST DUP2 ADD DUP2 DUP2 LT PUSH8 0xFFFFFFFFFFFFFFFF DUP3 GT OR ISZERO PUSH2 0x1858 JUMPI PUSH2 0x1857 PUSH2 0x1803 JUMP JUMPDEST JUMPDEST DUP1 PUSH1 0x40 MSTORE POP POP POP JUMP JUMPDEST PUSH0 PUSH2 0x186A PUSH2 0x114C JUMP JUMPDEST SWAP1 POP PUSH2 0x1876 DUP3 DUP3 PUSH2 0x1830 JUMP JUMPDEST SWAP2 SWAP1 POP JUMP JUMPDEST PUSH0 PUSH8 0xFFFFFFFFFFFFFFFF DUP3 GT ISZERO PUSH2 0x1895 JUMPI PUSH2 0x1894 PUSH2 0x1803 JUMP JUMPDEST JUMPDEST PUSH2 0x189E DUP3 PUSH2 0x1267 JUMP JUMPDEST SWAP1 POP PUSH1 0x20 DUP2 ADD SWAP1 POP SWAP2 SWAP1 POP JUMP JUMPDEST DUP3 DUP2 DUP4 CALLDATACOPY PUSH0 DUP4 DUP4 ADD MSTORE POP POP POP JUMP JUMPDEST PUSH0 PUSH2 0x18CB PUSH2 0x18C6 DUP5 PUSH2 0x187B JUMP JUMPDEST PUSH2 0x1861 JUMP JUMPDEST SWAP1 POP DUP3 DUP2 MSTORE PUSH1 0x20 DUP2 ADD DUP5 DUP5 DUP5 ADD GT ISZERO PUSH2 0x18E7 JUMPI PUSH2 0x18E6 PUSH2 0x17FF JUMP JUMPDEST JUMPDEST PUSH2 0x18F2 DUP5 DUP3 DUP6 PUSH2 0x18AB JUMP JUMPDEST POP SWAP4 SWAP3 POP POP POP JUMP JUMPDEST PUSH0 DUP3 PUSH1 0x1F DUP4 ADD SLT PUSH2 0x190E JUMPI PUSH2 0x190D PUSH2 0x17FB JUMP JUMPDEST JUMPDEST DUP2 CALLDATALOAD PUSH2 0x191E DUP5 DUP3 PUSH1 0x20 DUP7 ADD PUSH2 0x18B9 JUMP JUMPDEST SWAP2 POP POP SWAP3 SWAP2 POP POP JUMP JUMPDEST PUSH2 0x1930 DUP2 PUSH2 0x120D JUMP JUMPDEST DUP2 EQ PUSH2 0x193A JUMPI PUSH0 DUP1 REVERT JUMPDEST POP JUMP JUMPDEST PUSH0 DUP2 CALLDATALOAD SWAP1 POP PUSH2 0x194B DUP2 PUSH2 0x1927 JUMP JUMPDEST SWAP3 SWAP2 POP POP JUMP JUMPDEST PUSH0 DUP1 PUSH0 PUSH1 0x60 DUP5 DUP7 SUB SLT ISZERO PUSH2 0x1968 JUMPI PUSH2 0x1967 PUSH2 0x1155 JUMP JUMPDEST JUMPDEST PUSH0 PUSH2 0x1975 DUP7 DUP3 DUP8 ADD PUSH2 0x117C JUMP JUMPDEST SWAP4 POP POP PUSH1 0x20 DUP5 ADD CALLDATALOAD PUSH8 0xFFFFFFFFFFFFFFFF DUP2 GT ISZERO PUSH2 0x1996 JUMPI PUSH2 0x1995 PUSH2 0x1159 JUMP JUMPDEST JUMPDEST PUSH2 0x19A2 DUP7 DUP3 DUP8 ADD PUSH2 0x18FA JUMP JUMPDEST SWAP3 POP POP PUSH1 0x40 PUSH2 0x19B3 DUP7 DUP3 DUP8 ADD PUSH2 0x193D JUMP JUMPDEST SWAP2 POP POP SWAP3 POP SWAP3 POP SWAP3 JUMP JUMPDEST PUSH0 PUSH1 0x20 DUP3 ADD SWAP1 POP PUSH2 0x19D0 PUSH0 DUP4 ADD DUP5 PUSH2 0x1550 JUMP JUMPDEST SWAP3 SWAP2 POP POP JUMP JUMPDEST PUSH2 0x19DF DUP2 PUSH2 0x17C8 JUMP JUMPDEST DUP2 EQ PUSH2 0x19E9 JUMPI PUSH0 DUP1 REVERT JUMPDEST POP JUMP JUMPDEST PUSH0 DUP2 CALLDATALOAD SWAP1 POP PUSH2 0x19FA DUP2 PUSH2 0x19D6 JUMP JUMPDEST SWAP3 SWAP2 POP POP JUMP JUMPDEST PUSH0 DUP1 PUSH0 PUSH1 0x60 DUP5 DUP7 SUB SLT ISZERO PUSH2 0x1A17 JUMPI PUSH2 0x1A16 PUSH2 0x1155 JUMP JUMPDEST JUMPDEST PUSH0 PUSH2 0x1A24 DUP7 DUP3 DUP8 ADD PUSH2 0x117C JUMP JUMPDEST SWAP4 POP POP PUSH1 0x20 PUSH2 0x1A35 DUP7 DUP3 DUP8 ADD PUSH2 0x1776 JUMP JUMPDEST SWAP3 POP POP PUSH1 0x40 PUSH2 0x1A46 DUP7 DUP3 DUP8 ADD PUSH2 0x19EC JUMP JUMPDEST SWAP2 POP POP SWAP3 POP SWAP3 POP SWAP3 JUMP JUMPDEST PUSH0 PUSH8 0xFFFFFFFFFFFFFFFF DUP3 GT ISZERO PUSH2 0x1A6A JUMPI PUSH2 0x1A69 PUSH2 0x1803 JUMP JUMPDEST JUMPDEST PUSH2 0x1A73 DUP3 PUSH2 0x1267 JUMP JUMPDEST SWAP1 POP PUSH1 0x20 DUP2 ADD SWAP1 POP SWAP2 SWAP1 POP JUMP JUMPDEST PUSH0 PUSH2 0x1A92 PUSH2 0x1A8D DUP5 PUSH2 0x1A50 JUMP JUMPDEST PUSH2 0x1861 JUMP JUMPDEST SWAP1 POP DUP3 DUP2 MSTORE PUSH1 0x20 DUP2 ADD DUP5 DUP5 DUP5 ADD GT ISZERO PUSH2 0x1AAE JUMPI PUSH2 0x1AAD PUSH2 0x17FF JUMP JUMPDEST JUMPDEST PUSH2 0x1AB9 DUP5 DUP3 DUP6 PUSH2 0x18AB JUMP JUMPDEST POP SWAP4 SWAP3 POP POP POP JUMP JUMPDEST PUSH0 DUP3 PUSH1 0x1F DUP4 ADD SLT PUSH2 0x1AD5 JUMPI PUSH2 0x1AD4 PUSH2 0x17FB JUMP JUMPDEST JUMPDEST DUP2 CALLDATALOAD PUSH2 0x1AE5 DUP5 DUP3 PUSH1 0x20 DUP7 ADD PUSH2 0x1A80 JUMP JUMPDEST SWAP2 POP POP SWAP3 SWAP2 POP POP JUMP JUMPDEST PUSH0 DUP1 PUSH0 DUP1 PUSH0 DUP1 PUSH0 DUP1 PUSH2 0x100 DUP10 DUP12 SUB SLT ISZERO PUSH2 0x1B0B JUMPI PUSH2 0x1B0A PUSH2 0x1155 JUMP JUMPDEST JUMPDEST PUSH0 DUP10 ADD CALLDATALOAD PUSH8 0xFFFFFFFFFFFFFFFF DUP2 GT ISZERO PUSH2 0x1B28 JUMPI PUSH2 0x1B27 PUSH2 0x1159 JUMP JUMPDEST JUMPDEST PUSH2 0x1B34 DUP12 DUP3 DUP13 ADD PUSH2 0x1AC1 JUMP JUMPDEST SWAP9 POP POP PUSH1 0x20 DUP10 ADD CALLDATALOAD PUSH8 0xFFFFFFFFFFFFFFFF DUP2 GT ISZERO PUSH2 0x1B55 JUMPI PUSH2 0x1B54 PUSH2 0x1159 JUMP JUMPDEST JUMPDEST PUSH2 0x1B61 DUP12 DUP3 DUP13 ADD PUSH2 0x1AC1 JUMP JUMPDEST SWAP8 POP POP PUSH1 0x40 PUSH2 0x1B72 DUP12 DUP3 DUP13 ADD PUSH2 0x117C JUMP JUMPDEST SWAP7 POP POP PUSH1 0x60 PUSH2 0x1B83 DUP12 DUP3 DUP13 ADD PUSH2 0x117C JUMP JUMPDEST SWAP6 POP POP PUSH1 0x80 PUSH2 0x1B94 DUP12 DUP3 DUP13 ADD PUSH2 0x117C JUMP JUMPDEST SWAP5 POP POP PUSH1 0xA0 DUP10 ADD CALLDATALOAD PUSH8 0xFFFFFFFFFFFFFFFF DUP2 GT ISZERO PUSH2 0x1BB5 JUMPI PUSH2 0x1BB4 PUSH2 0x1159 JUMP JUMPDEST JUMPDEST PUSH2 0x1BC1 DUP12 DUP3 DUP13 ADD PUSH2 0x1AC1 JUMP JUMPDEST SWAP4 POP POP PUSH1 0xC0 DUP10 ADD CALLDATALOAD PUSH8 0xFFFFFFFFFFFFFFFF DUP2 GT ISZERO PUSH2 0x1BE2 JUMPI PUSH2 0x1BE1 PUSH2 0x1159 JUMP JUMPDEST JUMPDEST PUSH2 0x1BEE DUP12 DUP3 DUP13 ADD PUSH2 0x18FA JUMP JUMPDEST SWAP3 POP POP PUSH1 0xE0 PUSH2 0x1BFF DUP12 DUP3 DUP13 ADD PUSH2 0x193D JUMP JUMPDEST SWAP2 POP POP SWAP3 SWAP6 SWAP9 POP SWAP3 SWAP6 SWAP9 SWAP1 SWAP4 SWAP7 POP JUMP JUMPDEST PUSH32 0x4E487B7100000000000000000000000000000000000000000000000000000000 PUSH0 MSTORE PUSH1 0x22 PUSH1 0x4 MSTORE PUSH1 0x24 PUSH0 REVERT JUMPDEST PUSH0 PUSH1 0x2 DUP3 DIV SWAP1 POP PUSH1 0x1 DUP3 AND DUP1 PUSH2 0x1C53 JUMPI PUSH1 0x7F DUP3 AND SWAP2 POP JUMPDEST PUSH1 0x20 DUP3 LT DUP2 SUB PUSH2 0x1C66 JUMPI PUSH2 0x1C65 PUSH2 0x1C0F JUMP JUMPDEST JUMPDEST POP SWAP2 SWAP1 POP JUMP JUMPDEST PUSH32 0x4E487B7100000000000000000000000000000000000000000000000000000000 PUSH0 MSTORE PUSH1 0x32 PUSH1 0x4 MSTORE PUSH1 0x24 PUSH0 REVERT JUMPDEST PUSH32 0x537570706C656D656E74206E6F7420666F756E642E0000000000000000000000 PUSH0 DUP3 ADD MSTORE POP JUMP JUMPDEST PUSH0 PUSH2 0x1CCD PUSH1 0x15 DUP4 PUSH2 0x1508 JUMP JUMPDEST SWAP2 POP PUSH2 0x1CD8 DUP3 PUSH2 0x1C99 JUMP JUMPDEST PUSH1 0x20 DUP3 ADD SWAP1 POP SWAP2 SWAP1 POP JUMP JUMPDEST PUSH0 PUSH1 0x20 DUP3 ADD SWAP1 POP DUP2 DUP2 SUB PUSH0 DUP4 ADD MSTORE PUSH2 0x1CFA DUP2 PUSH2 0x1CC1 JUMP JUMPDEST SWAP1 POP SWAP2 SWAP1 POP JUMP JUMPDEST PUSH32 0x4F6E6C7920617574686F72697A656420706172746965732063616E207369676E PUSH0 DUP3 ADD MSTORE PUSH32 0x2074686520737570706C656D656E742E00000000000000000000000000000000 PUSH1 0x20 DUP3 ADD MSTORE POP JUMP JUMPDEST PUSH0 PUSH2 0x1D5B PUSH1 0x30 DUP4 PUSH2 0x1508 JUMP JUMPDEST SWAP2 POP PUSH2 0x1D66 DUP3 PUSH2 0x1D01 JUMP JUMPDEST PUSH1 0x40 DUP3 ADD SWAP1 POP SWAP2 SWAP1 POP JUMP JUMPDEST PUSH0 PUSH1 0x20 DUP3 ADD SWAP1 POP DUP2 DUP2 SUB PUSH0 DUP4 ADD MSTORE PUSH2 0x1D88 DUP2 PUSH2 0x1D4F JUMP JUMPDEST SWAP1 POP SWAP2 SWAP1 POP JUMP JUMPDEST PUSH0 DUP2 SWAP1 POP DUP2 PUSH0 MSTORE PUSH1 0x20 PUSH0 KECCAK256 SWAP1 POP SWAP2 SWAP1 POP JUMP JUMPDEST PUSH0 PUSH1 0x20 PUSH1 0x1F DUP4 ADD DIV SWAP1 POP SWAP2 SWAP1 POP JUMP JUMPDEST PUSH0 DUP3 DUP3 SHL SWAP1 POP SWAP3 SWAP2 POP POP JUMP JUMPDEST PUSH0 PUSH1 0x8 DUP4 MUL PUSH2 0x1DEB PUSH32 0xFFFFFFFFFFFFFFFFFFFFFFFFFFFFFFFFFFFFFFFFFFFFFFFFFFFFFFFFFFFFFFFF DUP3 PUSH2 0x1DB0 JUMP JUMPDEST PUSH2 0x1DF5 DUP7 DUP4 PUSH2 0x1DB0 JUMP JUMPDEST SWAP6 POP DUP1 NOT DUP5 AND SWAP4 POP DUP1 DUP7 AND DUP5 OR SWAP3 POP POP POP SWAP4 SWAP3 POP POP POP JUMP JUMPDEST PUSH0 DUP2 SWAP1 POP SWAP2 SWAP1 POP JUMP JUMPDEST PUSH0 PUSH2 0x1E30 PUSH2 0x1E2B PUSH2 0x1E26 DUP5 PUSH2 0x115D JUMP JUMPDEST PUSH2 0x1E0D JUMP JUMPDEST PUSH2 0x115D JUMP JUMPDEST SWAP1 POP SWAP2 SWAP1 POP JUMP JUMPDEST PUSH0 DUP2 SWAP1 POP SWAP2 SWAP1 POP JUMP JUMPDEST PUSH2 0x1E49 DUP4 PUSH2 0x1E16 JUMP JUMPDEST PUSH2 0x1E5D PUSH2 0x1E55 DUP3 PUSH2 0x1E37 JUMP JUMPDEST DUP5 DUP5 SLOAD PUSH2 0x1DBC JUMP JUMPDEST DUP3 SSTORE POP POP POP POP JUMP JUMPDEST PUSH0 SWAP1 JUMP JUMPDEST PUSH2 0x1E71 PUSH2 0x1E65 JUMP JUMPDEST PUSH2 0x1E7C DUP2 DUP5 DUP5 PUSH2 0x1E40 JUMP JUMPDEST POP POP POP JUMP JUMPDEST JUMPDEST DUP2 DUP2 LT ISZERO PUSH2 0x1E9F JUMPI PUSH2 0x1E94 PUSH0 DUP3 PUSH2 0x1E69 JUMP JUMPDEST PUSH1 0x1 DUP2 ADD SWAP1 POP PUSH2 0x1E82 JUMP JUMPDEST POP POP JUMP JUMPDEST PUSH1 0x1F DUP3 GT ISZERO PUSH2 0x1EE4 JUMPI PUSH2 0x1EB5 DUP2 PUSH2 0x1D8F JUMP JUMPDEST PUSH2 0x1EBE DUP5 PUSH2 0x1DA1 JUMP JUMPDEST DUP2 ADD PUSH1 0x20 DUP6 LT ISZERO PUSH2 0x1ECD JUMPI DUP2 SWAP1 POP JUMPDEST PUSH2 0x1EE1 PUSH2 0x1ED9 DUP6 PUSH2 0x1DA1 JUMP JUMPDEST DUP4 ADD DUP3 PUSH2 0x1E81 JUMP JUMPDEST POP POP JUMPDEST POP POP POP JUMP JUMPDEST PUSH0 DUP3 DUP3 SHR SWAP1 POP SWAP3 SWAP2 POP POP JUMP JUMPDEST PUSH0 PUSH2 0x1F04 PUSH0 NOT DUP5 PUSH1 0x8 MUL PUSH2 0x1EE9 JUMP JUMPDEST NOT DUP1 DUP4 AND SWAP2 POP POP SWAP3 SWAP2 POP POP JUMP JUMPDEST PUSH0 PUSH2 0x1F1C DUP4 DUP4 PUSH2 0x1EF5 JUMP JUMPDEST SWAP2 POP DUP3 PUSH1 0x2 MUL DUP3 OR SWAP1 POP SWAP3 SWAP2 POP POP JUMP JUMPDEST PUSH2 0x1F35 DUP3 PUSH2 0x1225 JUMP JUMPDEST PUSH8 0xFFFFFFFFFFFFFFFF DUP2 GT ISZERO PUSH2 0x1F4E JUMPI PUSH2 0x1F4D PUSH2 0x1803 JUMP JUMPDEST JUMPDEST PUSH2 0x1F58 DUP3 SLOAD PUSH2 0x1C3C JUMP JUMPDEST PUSH2 0x1F63 DUP3 DUP3 DUP6 PUSH2 0x1EA3 JUMP JUMPDEST PUSH0 PUSH1 0x20 SWAP1 POP PUSH1 0x1F DUP4 GT PUSH1 0x1 DUP2 EQ PUSH2 0x1F94 JUMPI PUSH0 DUP5 ISZERO PUSH2 0x1F82 JUMPI DUP3 DUP8 ADD MLOAD SWAP1 POP JUMPDEST PUSH2 0x1F8C DUP6 DUP3 PUSH2 0x1F11 JUMP JUMPDEST DUP7 SSTORE POP PUSH2 0x1FF3 JUMP JUMPDEST PUSH1 0x1F NOT DUP5 AND PUSH2 0x1FA2 DUP7 PUSH2 0x1D8F JUMP JUMPDEST PUSH0 JUMPDEST DUP3 DUP2 LT ISZERO PUSH2 0x1FC9 JUMPI DUP5 DUP10 ADD MLOAD DUP3 SSTORE PUSH1 0x1 DUP3 ADD SWAP2 POP PUSH1 0x20 DUP6 ADD SWAP5 POP PUSH1 0x20 DUP2 ADD SWAP1 POP PUSH2 0x1FA4 JUMP JUMPDEST DUP7 DUP4 LT ISZERO PUSH2 0x1FE6 JUMPI DUP5 DUP10 ADD MLOAD PUSH2 0x1FE2 PUSH1 0x1F DUP10 AND DUP3 PUSH2 0x1EF5 JUMP JUMPDEST DUP4 SSTORE POP JUMPDEST PUSH1 0x1 PUSH1 0x2 DUP9 MUL ADD DUP9 SSTORE POP POP POP JUMPDEST POP POP POP POP POP POP JUMP JUMPDEST PUSH32 0x4F6E6C7920746865206F776E65722063616E2073657420746865207369676E65 PUSH0 DUP3 ADD MSTORE PUSH32 0x7220617574686F72697A6174696F6E2E00000000000000000000000000000000 PUSH1 0x20 DUP3 ADD MSTORE POP JUMP JUMPDEST PUSH0 PUSH2 0x2055 PUSH1 0x30 DUP4 PUSH2 0x1508 JUMP JUMPDEST SWAP2 POP PUSH2 0x2060 DUP3 PUSH2 0x1FFB JUMP JUMPDEST PUSH1 0x40 DUP3 ADD SWAP1 POP SWAP2 SWAP1 POP JUMP JUMPDEST PUSH0 PUSH1 0x20 DUP3 ADD SWAP1 POP DUP2 DUP2 SUB PUSH0 DUP4 ADD MSTORE PUSH2 0x2082 DUP2 PUSH2 0x2049 JUMP JUMPDEST SWAP1 POP SWAP2 SWAP1 POP JUMP JUMPDEST PUSH0 DUP2 SWAP1 POP DUP2 PUSH0 MSTORE PUSH1 0x20 PUSH0 KECCAK256 SWAP1 POP SWAP2 SWAP1 POP JUMP JUMPDEST PUSH1 0x1F DUP3 GT ISZERO PUSH2 0x20DC JUMPI PUSH2 0x20AD DUP2 PUSH2 0x2089 JUMP JUMPDEST PUSH2 0x20B6 DUP5 PUSH2 0x1DA1 JUMP JUMPDEST DUP2 ADD PUSH1 0x20 DUP6 LT ISZERO PUSH2 0x20C5 JUMPI DUP2 SWAP1 POP JUMPDEST PUSH2 0x20D9 PUSH2 0x20D1 DUP6 PUSH2 0x1DA1 JUMP JUMPDEST DUP4 ADD DUP3 PUSH2 0x1E81 JUMP JUMPDEST POP POP JUMPDEST POP POP POP JUMP JUMPDEST PUSH2 0x20EA DUP3 PUSH2 0x1323 JUMP JUMPDEST PUSH8 0xFFFFFFFFFFFFFFFF DUP2 GT ISZERO PUSH2 0x2103 JUMPI PUSH2 0x2102 PUSH2 0x1803 JUMP JUMPDEST JUMPDEST PUSH2 0x210D DUP3 SLOAD PUSH2 0x1C3C JUMP JUMPDEST PUSH2 0x2118 DUP3 DUP3 DUP6 PUSH2 0x209B JUMP JUMPDEST PUSH0 PUSH1 0x20 SWAP1 POP PUSH1 0x1F DUP4 GT PUSH1 0x1 DUP2 EQ PUSH2 0x2149 JUMPI PUSH0 DUP5 ISZERO PUSH2 0x2137 JUMPI DUP3 DUP8 ADD MLOAD SWAP1 POP JUMPDEST PUSH2 0x2141 DUP6 DUP3 PUSH2 0x1F11 JUMP JUMPDEST DUP7 SSTORE POP PUSH2 0x21A8 JUMP JUMPDEST PUSH1 0x1F NOT DUP5 AND PUSH2 0x2157 DUP7 PUSH2 0x2089 JUMP JUMPDEST PUSH0 JUMPDEST DUP3 DUP2 LT ISZERO PUSH2 0x217E JUMPI DUP5 DUP10 ADD MLOAD DUP3 SSTORE PUSH1 0x1 DUP3 ADD SWAP2 POP PUSH1 0x20 DUP6 ADD SWAP5 POP PUSH1 0x20 DUP2 ADD SWAP1 POP PUSH2 0x2159 JUMP JUMPDEST DUP7 DUP4 LT ISZERO PUSH2 0x219B JUMPI DUP5 DUP10 ADD MLOAD PUSH2 0x2197 PUSH1 0x1F DUP10 AND DUP3 PUSH2 0x1EF5 JUMP JUMPDEST DUP4 SSTORE POP JUMPDEST PUSH1 0x1 PUSH1 0x2 DUP9 MUL ADD DUP9 SSTORE POP POP POP JUMPDEST POP POP POP POP POP POP JUMP JUMPDEST PUSH32 0x4E487B7100000000000000000000000000000000000000000000000000000000 PUSH0 MSTORE PUSH1 0x11 PUSH1 0x4 MSTORE PUSH1 0x24 PUSH0 REVERT JUMPDEST PUSH0 PUSH2 0x21E7 DUP3 PUSH2 0x115D JUMP JUMPDEST SWAP2 POP PUSH32 0xFFFFFFFFFFFFFFFFFFFFFFFFFFFFFFFFFFFFFFFFFFFFFFFFFFFFFFFFFFFFFFFF DUP3 SUB PUSH2 0x2219 JUMPI PUSH2 0x2218 PUSH2 0x21B0 JUMP JUMPDEST JUMPDEST PUSH1 0x1 DUP3 ADD SWAP1 POP SWAP2 SWAP1 POP JUMP JUMPDEST PUSH0 DUP2 SLOAD SWAP1 POP PUSH2 0x2232 DUP2 PUSH2 0x1C3C JUMP JUMPDEST SWAP1 POP SWAP2 SWAP1 POP JUMP JUMPDEST DUP2 DUP2 SUB PUSH2 0x2247 JUMPI POP POP PUSH2 0x231C JUMP JUMPDEST PUSH2 0x2250 DUP3 PUSH2 0x2224 JUMP JUMPDEST PUSH8 0xFFFFFFFFFFFFFFFF DUP2 GT ISZERO PUSH2 0x2269 JUMPI PUSH2 0x2268 PUSH2 0x1803 JUMP JUMPDEST JUMPDEST PUSH2 0x2273 DUP3 SLOAD PUSH2 0x1C3C JUMP JUMPDEST PUSH2 0x227E DUP3 DUP3 DUP6 PUSH2 0x1EA3 JUMP JUMPDEST PUSH0 PUSH1 0x1F DUP4 GT PUSH1 0x1 DUP2 EQ PUSH2 0x22AB JUMPI PUSH0 DUP5 ISZERO PUSH2 0x2299 JUMPI DUP3 DUP8 ADD SLOAD SWAP1 POP JUMPDEST PUSH2 0x22A3 DUP6 DUP3 PUSH2 0x1F11 JUMP JUMPDEST DUP7 SSTORE POP PUSH2 0x2315 JUMP JUMPDEST PUSH1 0x1F NOT DUP5 AND PUSH2 0x22B9 DUP8 PUSH2 0x1D8F JUMP JUMPDEST SWAP7 POP PUSH2 0x22C4 DUP7 PUSH2 0x1D8F JUMP JUMPDEST PUSH0 JUMPDEST DUP3 DUP2 LT ISZERO PUSH2 0x22EB JUMPI DUP5 DUP10 ADD SLOAD DUP3 SSTORE PUSH1 0x1 DUP3 ADD SWAP2 POP PUSH1 0x1 DUP6 ADD SWAP5 POP PUSH1 0x20 DUP2 ADD SWAP1 POP PUSH2 0x22C6 JUMP JUMPDEST DUP7 DUP4 LT ISZERO PUSH2 0x2308 JUMPI DUP5 DUP10 ADD SLOAD PUSH2 0x2304 PUSH1 0x1F DUP10 AND DUP3 PUSH2 0x1EF5 JUMP JUMPDEST DUP4 SSTORE POP JUMPDEST PUSH1 0x1 PUSH1 0x2 DUP9 MUL ADD DUP9 SSTORE POP POP POP JUMPDEST POP POP POP POP POP POP JUMPDEST JUMP INVALID LOG2 PUSH5 0x6970667358 0x22 SLT KECCAK256 0xC6 ADD 0xBC PUSH6 0x2CCDEFB08C2D BALANCE PUSH12 0x8CA4EF9ABD257A5D35834141 PUSH14 0xCD5F462D5A7E9764736F6C634300 ADDMOD AND STOP CALLER "
				},
				"gasEstimates": {
					"creation": {
						"codeDepositCost": "1808800",
						"executionCost": "6908",
						"totalCost": "1815708"
					},
					"external": {
						"addSupplement(string,string,uint256,uint256,uint256,string,bytes,bytes32)": "infinite",
						"authorizedSigners(uint256,address)": "3071",
						"getSupplementSignatures(uint256)": "infinite",
						"getSupplements()": "infinite",
						"setSignerAuthorization(uint256,address,bool)": "29662",
						"signSupplement(uint256,bytes,bytes32)": "infinite",
						"supplements(uint256)": "infinite",
						"supplementsCount()": "2469",
						"supplementsSignatures(uint256,uint256)": "infinite"
					},
					"internal": {
						"isAuthorized(address,uint256)": "2334"
					}
				},
				"methodIdentifiers": {
					"addSupplement(string,string,uint256,uint256,uint256,string,bytes,bytes32)": "f1c98ba2",
					"authorizedSigners(uint256,address)": "49aa1d94",
					"getSupplementSignatures(uint256)": "2c290e4e",
					"getSupplements()": "2b39fed7",
					"setSignerAuthorization(uint256,address,bool)": "d92d8f71",
					"signSupplement(uint256,bytes,bytes32)": "bbe3d522",
					"supplements(uint256)": "2b5acd6c",
					"supplementsCount()": "c0c1e2ed",
					"supplementsSignatures(uint256,uint256)": "0f86126e"
				}
			},
			"storageLayout": {
				"storage": [
					{
						"astId": 28,
						"contract": "contracts/SupplementTracker.sol:SupplementTracker",
						"label": "supplements",
						"offset": 0,
						"slot": "0",
						"type": "t_mapping(t_uint256,t_struct(SupplementInfo)16_storage)"
					},
					{
						"astId": 34,
						"contract": "contracts/SupplementTracker.sol:SupplementTracker",
						"label": "supplementsSignatures",
						"offset": 0,
						"slot": "1",
						"type": "t_mapping(t_uint256,t_array(t_struct(SupplementSignature)23_storage)dyn_storage)"
					},
					{
						"astId": 40,
						"contract": "contracts/SupplementTracker.sol:SupplementTracker",
						"label": "authorizedSigners",
						"offset": 0,
						"slot": "2",
						"type": "t_mapping(t_uint256,t_mapping(t_address,t_bool))"
					},
					{
						"astId": 43,
						"contract": "contracts/SupplementTracker.sol:SupplementTracker",
						"label": "supplementsCount",
						"offset": 0,
						"slot": "3",
						"type": "t_uint256"
					}
				],
				"types": {
					"t_address": {
						"encoding": "inplace",
						"label": "address",
						"numberOfBytes": "20"
					},
					"t_array(t_struct(SupplementSignature)23_storage)dyn_storage": {
						"base": "t_struct(SupplementSignature)23_storage",
						"encoding": "dynamic_array",
						"label": "struct SupplementTracker.SupplementSignature[]",
						"numberOfBytes": "32"
					},
					"t_bool": {
						"encoding": "inplace",
						"label": "bool",
						"numberOfBytes": "1"
					},
					"t_bytes32": {
						"encoding": "inplace",
						"label": "bytes32",
						"numberOfBytes": "32"
					},
					"t_bytes_storage": {
						"encoding": "bytes",
						"label": "bytes",
						"numberOfBytes": "32"
					},
					"t_mapping(t_address,t_bool)": {
						"encoding": "mapping",
						"key": "t_address",
						"label": "mapping(address => bool)",
						"numberOfBytes": "32",
						"value": "t_bool"
					},
					"t_mapping(t_uint256,t_array(t_struct(SupplementSignature)23_storage)dyn_storage)": {
						"encoding": "mapping",
						"key": "t_uint256",
						"label": "mapping(uint256 => struct SupplementTracker.SupplementSignature[])",
						"numberOfBytes": "32",
						"value": "t_array(t_struct(SupplementSignature)23_storage)dyn_storage"
					},
					"t_mapping(t_uint256,t_mapping(t_address,t_bool))": {
						"encoding": "mapping",
						"key": "t_uint256",
						"label": "mapping(uint256 => mapping(address => bool))",
						"numberOfBytes": "32",
						"value": "t_mapping(t_address,t_bool)"
					},
					"t_mapping(t_uint256,t_struct(SupplementInfo)16_storage)": {
						"encoding": "mapping",
						"key": "t_uint256",
						"label": "mapping(uint256 => struct SupplementTracker.SupplementInfo)",
						"numberOfBytes": "32",
						"value": "t_struct(SupplementInfo)16_storage"
					},
					"t_string_storage": {
						"encoding": "bytes",
						"label": "string",
						"numberOfBytes": "32"
					},
					"t_struct(SupplementInfo)16_storage": {
						"encoding": "inplace",
						"label": "struct SupplementTracker.SupplementInfo",
						"members": [
							{
								"astId": 3,
								"contract": "contracts/SupplementTracker.sol:SupplementTracker",
								"label": "owner",
								"offset": 0,
								"slot": "0",
								"type": "t_address"
							},
							{
								"astId": 5,
								"contract": "contracts/SupplementTracker.sol:SupplementTracker",
								"label": "name",
								"offset": 0,
								"slot": "1",
								"type": "t_string_storage"
							},
							{
								"astId": 7,
								"contract": "contracts/SupplementTracker.sol:SupplementTracker",
								"label": "manufacturer",
								"offset": 0,
								"slot": "2",
								"type": "t_string_storage"
							},
							{
								"astId": 9,
								"contract": "contracts/SupplementTracker.sol:SupplementTracker",
								"label": "proteins",
								"offset": 0,
								"slot": "3",
								"type": "t_uint256"
							},
							{
								"astId": 11,
								"contract": "contracts/SupplementTracker.sol:SupplementTracker",
								"label": "carbs",
								"offset": 0,
								"slot": "4",
								"type": "t_uint256"
							},
							{
								"astId": 13,
								"contract": "contracts/SupplementTracker.sol:SupplementTracker",
								"label": "fats",
								"offset": 0,
								"slot": "5",
								"type": "t_uint256"
							},
							{
								"astId": 15,
								"contract": "contracts/SupplementTracker.sol:SupplementTracker",
								"label": "expiryDate",
								"offset": 0,
								"slot": "6",
								"type": "t_string_storage"
							}
						],
						"numberOfBytes": "224"
					},
					"t_struct(SupplementSignature)23_storage": {
						"encoding": "inplace",
						"label": "struct SupplementTracker.SupplementSignature",
						"members": [
							{
								"astId": 18,
								"contract": "contracts/SupplementTracker.sol:SupplementTracker",
								"label": "signer",
								"offset": 0,
								"slot": "0",
								"type": "t_address"
							},
							{
								"astId": 20,
								"contract": "contracts/SupplementTracker.sol:SupplementTracker",
								"label": "messageHash",
								"offset": 0,
								"slot": "1",
								"type": "t_bytes32"
							},
							{
								"astId": 22,
								"contract": "contracts/SupplementTracker.sol:SupplementTracker",
								"label": "signature",
								"offset": 0,
								"slot": "2",
								"type": "t_bytes_storage"
							}
						],
						"numberOfBytes": "96"
					},
					"t_uint256": {
						"encoding": "inplace",
						"label": "uint256",
						"numberOfBytes": "32"
					}
				}
			},
			"userdoc": {
				"kind": "user",
				"methods": {},
				"version": 1
			}
		}
	}
}